{
  "_format": "hh-sol-artifact-1",
  "contractName": "DepositMinter",
  "sourceName": "app/contracts/DepositMinter.sol",
  "abi": [
    {
      "inputs": [],
      "stateMutability": "nonpayable",
      "type": "constructor"
    },
    {
      "inputs": [
        {
          "internalType": "string",
          "name": "tokenType",
          "type": "string"
        },
        {
          "internalType": "uint256",
          "name": "required",
          "type": "uint256"
        },
        {
          "internalType": "uint256",
          "name": "current",
          "type": "uint256"
        }
      ],
      "name": "InsufficientAllowance",
      "type": "error"
    },
    {
      "inputs": [
        {
          "internalType": "string",
          "name": "tokenType",
          "type": "string"
        },
        {
          "internalType": "uint256",
          "name": "required",
          "type": "uint256"
        },
        {
          "internalType": "uint256",
          "name": "provided",
          "type": "uint256"
        }
      ],
      "name": "InsufficientDeposit",
      "type": "error"
    },
    {
      "inputs": [],
      "name": "InvalidAmount",
      "type": "error"
    },
    {
      "inputs": [
        {
          "internalType": "int256",
          "name": "responseCode",
          "type": "int256"
        }
      ],
      "name": "MintFailed",
      "type": "error"
    },
    {
      "inputs": [],
      "name": "OnlyAdmin",
      "type": "error"
    },
    {
      "inputs": [
        {
          "internalType": "address",
          "name": "token",
          "type": "address"
        },
        {
          "internalType": "address",
          "name": "account",
          "type": "address"
        }
      ],
      "name": "TokenNotAssociated",
      "type": "error"
    },
    {
      "inputs": [
        {
          "internalType": "string",
          "name": "tokenType",
          "type": "string"
        }
      ],
      "name": "TokenNotSet",
      "type": "error"
    },
    {
      "inputs": [
        {
          "internalType": "string",
          "name": "tokenType",
          "type": "string"
        }
      ],
      "name": "TransferFailed",
      "type": "error"
    },
    {
      "anonymous": false,
      "inputs": [
        {
          "indexed": false,
          "internalType": "address",
          "name": "previousAdmin",
          "type": "address"
        },
        {
          "indexed": false,
          "internalType": "address",
          "name": "newAdmin",
          "type": "address"
        }
      ],
      "name": "AdminTransferred",
      "type": "event"
    },
    {
      "anonymous": false,
      "inputs": [
        {
          "indexed": false,
          "internalType": "address",
          "name": "token",
          "type": "address"
        },
        {
          "indexed": false,
          "internalType": "address",
          "name": "owner",
          "type": "address"
        },
        {
          "indexed": false,
          "internalType": "address",
          "name": "spender",
          "type": "address"
        },
        {
          "indexed": false,
          "internalType": "uint256",
          "name": "allowance",
          "type": "uint256"
        }
      ],
      "name": "AllowanceCheck",
      "type": "event"
    },
    {
      "anonymous": false,
      "inputs": [
        {
          "indexed": false,
          "internalType": "address",
          "name": "token",
          "type": "address"
        },
        {
          "indexed": false,
          "internalType": "int256",
          "name": "responseCode",
          "type": "int256"
        }
      ],
      "name": "AssociationResult",
      "type": "event"
    },
    {
      "anonymous": false,
      "inputs": [
        {
          "indexed": false,
          "internalType": "address",
          "name": "token",
          "type": "address"
        },
        {
          "indexed": false,
          "internalType": "address",
          "name": "account",
          "type": "address"
        },
        {
          "indexed": false,
          "internalType": "uint256",
          "name": "balance",
          "type": "uint256"
        }
      ],
      "name": "BalanceCheck",
      "type": "event"
    },
    {
      "anonymous": false,
      "inputs": [
        {
          "indexed": false,
          "internalType": "bool",
          "name": "",
          "type": "bool"
        },
        {
          "indexed": false,
          "internalType": "bytes",
          "name": "",
          "type": "bytes"
        }
      ],
      "name": "CallResponseEvent",
      "type": "event"
    },
    {
      "anonymous": false,
      "inputs": [
        {
          "indexed": false,
          "internalType": "string",
          "name": "operation",
          "type": "string"
        },
        {
          "indexed": false,
          "internalType": "address",
          "name": "token",
          "type": "address"
        },
        {
          "indexed": false,
          "internalType": "address",
          "name": "account",
          "type": "address"
        },
        {
          "indexed": false,
          "internalType": "int256",
          "name": "responseCode",
          "type": "int256"
        },
        {
          "indexed": false,
          "internalType": "string",
          "name": "message",
          "type": "string"
        }
      ],
      "name": "HTSOperationResult",
      "type": "event"
    },
    {
      "anonymous": false,
      "inputs": [
        {
          "indexed": true,
          "internalType": "address",
          "name": "user",
          "type": "address"
        },
        {
          "indexed": false,
          "internalType": "uint256",
          "name": "lynxAmount",
          "type": "uint256"
        }
      ],
      "name": "LynxMinted",
      "type": "event"
    },
    {
      "anonymous": false,
      "inputs": [
        {
          "indexed": false,
          "internalType": "string",
          "name": "tokenType",
          "type": "string"
        },
        {
          "indexed": false,
          "internalType": "address",
          "name": "previousToken",
          "type": "address"
        },
        {
          "indexed": false,
          "internalType": "address",
          "name": "newToken",
          "type": "address"
        }
      ],
      "name": "TokenAddressSet",
      "type": "event"
    },
    {
      "anonymous": false,
      "inputs": [
        {
          "indexed": true,
          "internalType": "address",
          "name": "user",
          "type": "address"
        },
        {
          "indexed": false,
          "internalType": "uint256",
          "name": "sauceAmount",
          "type": "uint256"
        },
        {
          "indexed": false,
          "internalType": "uint256",
          "name": "clxyAmount",
          "type": "uint256"
        },
        {
          "indexed": false,
          "internalType": "uint256",
          "name": "hbarAmount",
          "type": "uint256"
        }
      ],
      "name": "TokensDeposited",
      "type": "event"
    },
    {
      "anonymous": false,
      "inputs": [
        {
          "indexed": false,
          "internalType": "string",
          "name": "step",
          "type": "string"
        },
        {
          "indexed": false,
          "internalType": "bool",
          "name": "passed",
          "type": "bool"
        },
        {
          "indexed": false,
          "internalType": "string",
          "name": "details",
          "type": "string"
        }
      ],
      "name": "ValidationStep",
      "type": "event"
    },
    {
      "inputs": [],
      "name": "CLXY_DECIMALS",
      "outputs": [
        {
          "internalType": "uint8",
          "name": "",
          "type": "uint8"
        }
      ],
      "stateMutability": "view",
      "type": "function"
    },
    {
      "inputs": [],
      "name": "CLXY_RATIO",
      "outputs": [
        {
          "internalType": "uint256",
          "name": "",
          "type": "uint256"
        }
      ],
      "stateMutability": "view",
      "type": "function"
    },
    {
      "inputs": [],
      "name": "HBAR_RATIO",
      "outputs": [
        {
          "internalType": "uint256",
          "name": "",
          "type": "uint256"
        }
      ],
      "stateMutability": "view",
      "type": "function"
    },
    {
      "inputs": [],
      "name": "LYNX_DECIMALS",
      "outputs": [
        {
          "internalType": "uint8",
          "name": "",
          "type": "uint8"
        }
      ],
      "stateMutability": "view",
      "type": "function"
    },
    {
      "inputs": [],
      "name": "SAUCE_DECIMALS",
      "outputs": [
        {
          "internalType": "uint8",
          "name": "",
          "type": "uint8"
        }
      ],
      "stateMutability": "view",
      "type": "function"
    },
    {
      "inputs": [],
      "name": "SAUCE_RATIO",
      "outputs": [
        {
          "internalType": "uint256",
          "name": "",
          "type": "uint256"
        }
      ],
      "stateMutability": "view",
      "type": "function"
    },
    {
      "inputs": [],
      "name": "admin",
      "outputs": [
        {
          "internalType": "address",
          "name": "",
          "type": "address"
        }
      ],
      "stateMutability": "view",
      "type": "function"
    },
    {
      "inputs": [
        {
          "internalType": "address[]",
          "name": "tokenAddresses",
          "type": "address[]"
        }
      ],
      "name": "associateTokens",
      "outputs": [],
      "stateMutability": "nonpayable",
      "type": "function"
    },
    {
      "inputs": [
        {
          "internalType": "uint256",
          "name": "lynxAmount",
          "type": "uint256"
        }
      ],
      "name": "calculateRequiredDeposits",
      "outputs": [
        {
          "internalType": "uint256",
          "name": "sauceRequired",
          "type": "uint256"
        },
        {
          "internalType": "uint256",
          "name": "clxyRequired",
          "type": "uint256"
        },
        {
          "internalType": "uint256",
          "name": "hbarRequired",
          "type": "uint256"
        }
      ],
      "stateMutability": "pure",
      "type": "function"
    },
    {
      "inputs": [],
      "name": "checkAllAssociations",
      "outputs": [
        {
          "internalType": "bool",
          "name": "contractSauceAssociated",
          "type": "bool"
        },
        {
          "internalType": "bool",
          "name": "contractClxyAssociated",
          "type": "bool"
        },
        {
          "internalType": "bool",
          "name": "contractLynxAssociated",
          "type": "bool"
        }
      ],
      "stateMutability": "nonpayable",
      "type": "function"
    },
    {
      "inputs": [],
      "name": "clxyToken",
      "outputs": [
        {
          "internalType": "address",
          "name": "",
          "type": "address"
        }
      ],
      "stateMutability": "view",
      "type": "function"
    },
    {
      "inputs": [
        {
          "internalType": "uint256",
          "name": "amount",
          "type": "uint256"
        }
      ],
      "name": "emergencyWithdrawHbar",
      "outputs": [],
      "stateMutability": "nonpayable",
      "type": "function"
    },
    {
      "inputs": [],
      "name": "getHbarBalance",
      "outputs": [
        {
          "internalType": "uint256",
          "name": "",
          "type": "uint256"
        }
      ],
      "stateMutability": "view",
      "type": "function"
    },
    {
      "inputs": [],
      "name": "lynxToken",
      "outputs": [
        {
          "internalType": "address",
          "name": "",
          "type": "address"
        }
      ],
      "stateMutability": "view",
      "type": "function"
    },
    {
      "inputs": [
        {
          "internalType": "uint256",
          "name": "lynxAmount",
          "type": "uint256"
        },
        {
          "internalType": "uint256",
          "name": "sauceAmount",
          "type": "uint256"
        },
        {
          "internalType": "uint256",
          "name": "clxyAmount",
          "type": "uint256"
        }
      ],
      "name": "mintWithDeposits",
      "outputs": [],
      "stateMutability": "payable",
      "type": "function"
    },
    {
      "inputs": [
        {
          "internalType": "address",
          "name": "token",
          "type": "address"
        },
        {
          "internalType": "bytes",
          "name": "encodedFunctionSelector",
          "type": "bytes"
        }
      ],
      "name": "redirectForToken",
      "outputs": [
        {
          "internalType": "int256",
          "name": "responseCode",
          "type": "int256"
        },
        {
          "internalType": "bytes",
          "name": "response",
          "type": "bytes"
        }
      ],
      "stateMutability": "nonpayable",
      "type": "function"
    },
    {
      "inputs": [],
      "name": "sauceToken",
      "outputs": [
        {
          "internalType": "address",
          "name": "",
          "type": "address"
        }
      ],
      "stateMutability": "view",
      "type": "function"
    },
    {
      "inputs": [
        {
          "internalType": "address",
          "name": "_clxyToken",
          "type": "address"
        }
      ],
      "name": "setClxyToken",
      "outputs": [],
      "stateMutability": "nonpayable",
      "type": "function"
    },
    {
      "inputs": [
        {
          "internalType": "address",
          "name": "_lynxToken",
          "type": "address"
        }
      ],
      "name": "setLynxToken",
      "outputs": [],
      "stateMutability": "nonpayable",
      "type": "function"
    },
    {
      "inputs": [
        {
          "internalType": "address",
          "name": "_sauceToken",
          "type": "address"
        }
      ],
      "name": "setSauceToken",
      "outputs": [],
      "stateMutability": "nonpayable",
      "type": "function"
    },
    {
      "inputs": [
        {
          "internalType": "address",
          "name": "token",
          "type": "address"
        },
        {
          "internalType": "address",
          "name": "account",
          "type": "address"
        }
      ],
      "name": "testHTSOperations",
      "outputs": [
        {
          "internalType": "bool",
          "name": "isAssociated",
          "type": "bool"
        },
        {
          "internalType": "uint256",
          "name": "balance",
          "type": "uint256"
        },
        {
          "internalType": "uint256",
          "name": "allowance",
          "type": "uint256"
        },
        {
          "internalType": "bool",
          "name": "isValidToken",
          "type": "bool"
        }
      ],
      "stateMutability": "nonpayable",
      "type": "function"
    },
    {
      "inputs": [],
      "name": "testHTSPrecompile",
      "outputs": [
        {
          "internalType": "bool",
          "name": "initialized",
          "type": "bool"
        },
        {
          "internalType": "address",
          "name": "precompileAddress",
          "type": "address"
        }
      ],
      "stateMutability": "view",
      "type": "function"
    },
    {
      "inputs": [
        {
          "internalType": "address",
          "name": "newAdmin",
          "type": "address"
        }
      ],
      "name": "transferAdmin",
      "outputs": [],
      "stateMutability": "nonpayable",
      "type": "function"
    },
    {
      "inputs": [
        {
          "internalType": "address",
          "name": "token",
          "type": "address"
        },
        {
          "internalType": "address",
          "name": "from",
          "type": "address"
        },
        {
          "internalType": "address",
          "name": "to",
          "type": "address"
        },
        {
          "internalType": "uint256",
          "name": "amount",
          "type": "uint256"
        }
      ],
      "name": "transferFrom",
      "outputs": [
        {
          "internalType": "int64",
          "name": "responseCode",
          "type": "int64"
        }
      ],
      "stateMutability": "nonpayable",
      "type": "function"
    },
    {
      "inputs": [
        {
          "internalType": "address",
          "name": "token",
          "type": "address"
        },
        {
          "internalType": "address",
          "name": "from",
          "type": "address"
        },
        {
          "internalType": "address",
          "name": "to",
          "type": "address"
        },
        {
          "internalType": "uint256",
          "name": "serialNumber",
          "type": "uint256"
        }
      ],
      "name": "transferFromNFT",
      "outputs": [
        {
          "internalType": "int64",
          "name": "responseCode",
          "type": "int64"
        }
      ],
      "stateMutability": "nonpayable",
      "type": "function"
    },
    {
      "stateMutability": "payable",
      "type": "receive"
    }
  ],
  "bytecode": "0x608060405234801561001057600080fd5b50600380546001600160a01b03191633179055612732806100326000396000f3fe60806040526004361061016a5760003560e01c80638d6be540116100d1578063b94fab4e1161008a578063e860ff7411610064578063e860ff7414610466578063ef03759314610486578063ef1643e41461049b578063f851a440146104bb57600080fd5b8063b94fab4e14610426578063d65db29714610446578063de97b29f146103b157600080fd5b80638d6be540146103615780638f9f8b011461037657806396cd51d7146103b157806397236479146103c65780639b23d3d9146103e6578063a1d4da151461040657600080fd5b80635ea4a9fd116101235780635ea4a9fd14610261578063618dc65e14610288578063724302a7146102b657806375829def146102ea5780637bd82c691461030a57806387bff26b1461031d57600080fd5b806315dacbea14610176578063169b78a2146101ae5780632ac2555f146101d15780633ed4d3bc146102095780634924190c1461021e57806352eb2a441461024157600080fd5b3661017157005b600080fd5b34801561018257600080fd5b50610196610191366004611c95565b6104db565b60405160079190910b81526020015b60405180910390f35b3480156101ba57600080fd5b5060408051600181526101676020820152016101a5565b3480156101dd57600080fd5b506002546101f1906001600160a01b031681565b6040516001600160a01b0390911681526020016101a5565b61021c610217366004611ce0565b6105cf565b005b34801561022a57600080fd5b50610233600a81565b6040519081526020016101a5565b34801561024d57600080fd5b5061021c61025c366004611d0c565b6105f2565b34801561026d57600080fd5b50610276600881565b60405160ff90911681526020016101a5565b34801561029457600080fd5b506102a86102a3366004611d75565b610715565b6040516101a5929190611e6b565b3480156102c257600080fd5b506102cb610833565b60408051931515845291151560208401521515908201526060016101a5565b3480156102f657600080fd5b5061021c610305366004611d0c565b610886565b34801561031657600080fd5b5047610233565b34801561032957600080fd5b5061033d610338366004611e84565b610961565b604080519415158552602085019390935291830152151560608201526080016101a5565b34801561036d57600080fd5b50610233600281565b34801561038257600080fd5b50610396610391366004611eb7565b6109aa565b604080519384526020840192909252908201526060016101a5565b3480156103bd57600080fd5b50610276600681565b3480156103d257600080fd5b5061021c6103e1366004611d0c565b610a33565b3480156103f257600080fd5b50610196610401366004611c95565b610b41565b34801561041257600080fd5b5061021c610421366004611ed0565b610b86565b34801561043257600080fd5b5061021c610441366004611d0c565b610c9b565b34801561045257600080fd5b5061021c610461366004611eb7565b610da9565b34801561047257600080fd5b506001546101f1906001600160a01b031681565b34801561049257600080fd5b50610233600581565b3480156104a757600080fd5b506000546101f1906001600160a01b031681565b3480156104c757600080fd5b506003546101f1906001600160a01b031681565b6040516001600160a01b038581166024830152848116604483015283166064820152608481018290526000908190819061016790630aed65f560e11b9060a4015b60408051601f198184030181529181526020820180516001600160e01b03166001600160e01b031990941693909317909252905161055a9190611f45565b6000604051808303816000865af19150503d8060008114610597576040519150601f19603f3d011682016040523d82523d6000602084013e61059c565b606091505b5091509150816105ad5760156105c1565b808060200190518101906105c19190611f73565b60030b979650505050505050565b6105da838383610e62565b6105e48282611004565b6105ed8361114c565b505050565b6003546001600160a01b0316331461061d57604051634755657960e01b815260040160405180910390fd5b600080546001600160a01b038381166001600160a01b0319831681179093551690156106d857600061064f30846112aa565b604080516001600160a01b0386168152602081018390529192506000805160206126bd833981519152910160405180910390a16016811461068f8261137e565b60405160200161069f9190611f8e565b604051602081830303815290604052906106d55760405162461bcd60e51b81526004016106cc9190611fd3565b60405180910390fd5b50505b7f267ecc93910a877e2ca3059a02e04c683dc5687c1c8426fa61d6054e39ee022e8183604051610709929190611fe6565b60405180910390a15050565b600060606000806101676001600160a01b031663618dc65e60e01b8787604051602401610743929190612029565b60408051601f198184030181529181526020820180516001600160e01b03166001600160e01b03199094169390931790925290516107819190611f45565b6000604051808303816000865af19150503d80600081146107be576040519150601f19603f3d011682016040523d82523d6000602084013e6107c3565b606091505b50915091507f4af4780e06fe8cb9df64b0794fa6f01399af979175bb988e35e0e57e594567bc82826040516107f992919061204d565b60405180910390a18161081d57601560405180602001604052806000815250610821565b6016815b60039190910b97909650945050505050565b6001546000908190819061084f906001600160a01b0316611558565b600254909350610867906001600160a01b0316611558565b60005490925061087f906001600160a01b0316611558565b9050909192565b6003546001600160a01b031633146108b157604051634755657960e01b815260040160405180910390fd5b6001600160a01b0381166109075760405162461bcd60e51b815260206004820152601f60248201527f43616e6e6f74207472616e7366657220746f207a65726f20616464726573730060448201526064016106cc565b600380546001600160a01b038381166001600160a01b031983168117909355604080519190921680825260208201939093527ff8ccb027dfcd135e000e9d45e6cc2d662578a8825d4c45b5e32e0adf67e79ec69101610709565b6000806000806000806109738861159b565b915060070b9150601660030b8214801561098a5750805b9250821561099f576001955060009450600093505b505092959194509250565b600080806109ba6008600a612164565b6109c66006600a612164565b6109d1600587612173565b6109db9190612173565b6109e591906121a0565b92506109f36008600a612164565b6109ff6006600a612164565b610a0a600287612173565b610a149190612173565b610a1e91906121a0565b9150610a2b600a85612173565b929491935050565b6003546001600160a01b03163314610a5e57604051634755657960e01b815260040160405180910390fd5b600180546001600160a01b038381166001600160a01b031983168117909355169015610b10576000610a9030846112aa565b604080516001600160a01b0386168152602081018390529192506000805160206126bd833981519152910160405180910390a160168114610ad08261137e565b604051602001610ae091906121b4565b60405160208183030381529060405290610b0d5760405162461bcd60e51b81526004016106cc9190611fd3565b50505b7f267ecc93910a877e2ca3059a02e04c683dc5687c1c8426fa61d6054e39ee022e81836040516107099291906121f9565b6040516001600160a01b038581166024830152848116604483015283166064820152608481018290526000908190819061016790639b23d3d960e01b9060a40161051c565b6003546001600160a01b03163314610bb157604051634755657960e01b815260040160405180910390fd5b60005b818110156105ed576000610bee30858585818110610bd457610bd461221e565b9050602002016020810190610be99190611d0c565b6112aa565b90506000805160206126bd833981519152848484818110610c1157610c1161221e565b9050602002016020810190610c269190611d0c565b604080516001600160a01b039092168252602082018490520160405180910390a160168114610c548261137e565b604051602001610c649190612234565b60405160208183030381529060405290610c915760405162461bcd60e51b81526004016106cc9190611fd3565b5050600101610bb4565b6003546001600160a01b03163314610cc657604051634755657960e01b815260040160405180910390fd5b600280546001600160a01b038381166001600160a01b031983168117909355169015610d78576000610cf830846112aa565b604080516001600160a01b0386168152602081018390529192506000805160206126bd833981519152910160405180910390a160168114610d388261137e565b604051602001610d489190612279565b60405160208183030381529060405290610d755760405162461bcd60e51b81526004016106cc9190611fd3565b50505b7f267ecc93910a877e2ca3059a02e04c683dc5687c1c8426fa61d6054e39ee022e81836040516107099291906122b1565b6003546001600160a01b03163314610dd457604051634755657960e01b815260040160405180910390fd5b47811115610e245760405162461bcd60e51b815260206004820152601960248201527f496e73756666696369656e7420484241522062616c616e63650000000000000060448201526064016106cc565b6003546040516001600160a01b039091169082156108fc029083906000818181858888f19350505050158015610e5e573d6000803e3d6000fd5b5050565b82600003610e835760405163162908e360e11b815260040160405180910390fd5b6000546001600160a01b0316610eac576040516364d2ac4160e01b81526004016106cc906122d5565b6001546001600160a01b0316610ed5576040516364d2ac4160e01b81526004016106cc906122f9565b6002546001600160a01b0316610efe576040516364d2ac4160e01b81526004016106cc9061231e565b604051638f9f8b0160e01b815260048101849052600090819081903090638f9f8b0190602401606060405180830381865afa158015610f41573d6000803e3d6000fd5b505050506040513d601f19601f82011682018060405250810190610f659190612342565b92509250925082851015610f9057828560405163d5871b2360e01b81526004016106cc929190612370565b81841015610fb557818460405163d5871b2360e01b81526004016106cc9291906123a5565b80341015610ffc5760405163d5871b2360e01b81526060600480830191909152606482015263242120a960e11b60848201526024810182905234604482015260a4016106cc565b505050505050565b60015460009061101f906001600160a01b031633308661166f565b6001549091506000805160206126dd833981519152906001600160a01b03163383611049816116b7565b60405161105994939291906123c9565b60405180910390a160168114611082576040516312dfddb360e01b81526004016106cc906122f9565b60025460009061109d906001600160a01b031633308661166f565b6002549091506000805160206126dd833981519152906001600160a01b031633836110c7816116b7565b6040516110d794939291906123c9565b60405180910390a160168114611100576040516312dfddb360e01b81526004016106cc9061231e565b6040805185815260208101859052349181019190915233907f651b66d4c82e3fedc9c57c6ff8a4cf8c81b8d1cd432d7297773c6edbf6cfb36a906060015b60405180910390a250505050565b6040805160008082526020820190925281611177565b60608152602001906001900390816111625790505b506000805491925090611194906001600160a01b03168484611b7b565b50506000549091506000805160206126dd833981519152906001600160a01b031630836111c0816116b7565b6040516111d0949392919061242a565b60405180910390a1601681146111fc57604051637850178160e11b8152600481018290526024016106cc565b60008054611215906001600160a01b031630338761166f565b6000549091506000805160206126dd833981519152906001600160a01b0316338361123f816116b7565b60405161124f94939291906123c9565b60405180910390a160168114611278576040516312dfddb360e01b81526004016106cc906122d5565b60405184815233907f465927a4840d7c7d6aa087bb368fe25bed2f96a7de450603903e0331dec0dbb59060200161113e565b604080516001600160a01b038481166024830152831660448083019190915282518083039091018152606490910182526020810180516001600160e01b031663248a35ef60e11b1790529051600091829182916101679161130b9190611f45565b6000604051808303816000865af19150503d8060008114611348576040519150601f19603f3d011682016040523d82523d6000602084013e61134d565b606091505b50915091508161135e576015611372565b808060200190518101906113729190611f73565b60030b95945050505050565b6060816000036113a55750506040805180820190915260018152600360fc1b602082015290565b600080831290816113b657836113bf565b6113bf8461247d565b60408051602080825281830190925291925060009190602082018180368337019050509050601f5b821561144c576113f8600a84612499565b6114039060306124ad565b60f81b8282611411816124c0565b9350815181106114235761142361221e565b60200101906001600160f81b031916908160001a905350611445600a846121a0565b92506113e7565b831561148c57602d60f81b8282611462816124c0565b9350815181106114745761147461221e565b60200101906001600160f81b031916908160001a9053505b600061149982601f6124d7565b67ffffffffffffffff8111156114b1576114b1611d2e565b6040519080825280601f01601f1916602001820160405280156114db576020820181803683370190505b50905060005b815181101561154d5783816114f78560016124ad565b61150191906124ad565b815181106115115761151161221e565b602001015160f81c60f81b82828151811061152e5761152e61221e565b60200101906001600160f81b031916908160001a9053506001016114e1565b509695505050505050565b60006001600160a01b03821661157057506000919050565b60008061157c8461159b565b915060070b9150601660030b821480156115935750805b949350505050565b604080516001600160a01b03831660248083019190915282518083039091018152604490910182526020810180516001600160e01b03166319f3736160e01b1790529051600091829182918291610167916115f591611f45565b6000604051808303816000865af19150503d8060008114611632576040519150601f19603f3d011682016040523d82523d6000602084013e611637565b606091505b50915091508161164a576015600061165e565b8080602001905181019061165e91906124ea565b60039190910b969095509350505050565b6040516001600160a01b038581166024830152848116604483015283166064820152600782900b6084820152600090819081906101679063eca3691760e01b9060a40161051c565b606060151982016116e55750506040805180820190915260078152665355434345535360c81b602082015290565b600019820161171d57505060408051808201909152601381527224a72b20a624a22faa2920a729a0a1aa24a7a760691b602082015290565b600119820161175f57505060408051808201909152601781527f50415945525f4143434f554e545f4e4f545f464f554e44000000000000000000602082015290565b60021982016117985750506040805180820190915260148152731253959053125117d393d11157d050d0d3d5539560621b602082015290565b60031982016117d05750506040805180820190915260138152721514905394d050d51253d397d1561412549151606a1b602082015290565b600419820161181257505060408051808201909152601981527f494e56414c49445f5452414e53414354494f4e5f535441525400000000000000602082015290565b600519820161185457505060408051808201909152601c81527f494e56414c49445f5452414e53414354494f4e5f4455524154494f4e00000000602082015290565b600619820161188a575050604080518082019091526011815270494e56414c49445f5349474e415455524560781b602082015290565b60071982016118bc57505060408051808201909152600d81526c4d454d4f5f544f4f5f4c4f4e4760981b602082015290565b60081982016118f4575050604080518082019091526013815272494e53554646494349454e545f54585f46454560681b602082015290565b600919820161193657505060408051808201909152601a81527f494e53554646494349454e545f50415945525f42414c414e4345000000000000602082015290565b600a198201611970575050604080518082019091526015815274222aa82624a1a0aa22afaa2920a729a0a1aa24a7a760591b602082015290565b600b1982016119995750506040805180820190915260048152634255535960e01b602082015290565b600c1982016119cb57505060408051808201909152600d81526c1393d517d4d5541413d4951151609a1b602082015290565b600d1982016119ff57505060408051808201909152600f81526e1253959053125117d192531157d251608a1b602082015290565b600e198201611a365750506040805180820190915260128152711253959053125117d050d0d3d5539517d25160721b602082015290565b600f198201611a6e5750506040805180820190915260138152721253959053125117d0d3d395149050d517d251606a1b602082015290565b6010198201611aa95750506040805180820190915260168152751253959053125117d514905394d050d51253d397d25160521b602082015290565b6011198201611adf575050604080518082019091526011815270149150d152541517d393d517d193d55391607a1b602082015290565b6012198201611b1457505060408051808201909152601081526f149150d3d49117d393d517d193d5539160821b602082015290565b6013198201611b4c5750506040805180820190915260138152721253959053125117d4d3d3125112551657d251606a1b602082015290565b611b558261137e565b604051602001611b659190612526565b6040516020818303038152906040529050919050565b60008060606000806101676001600160a01b031663e0f4059a60e01b898989604051602401611bac9392919061255c565b60408051601f198184030181529181526020820180516001600160e01b03166001600160e01b0319909416939093179092529051611bea9190611f45565b6000604051808303816000865af19150503d8060008114611c27576040519150601f19603f3d011682016040523d82523d6000602084013e611c2c565b606091505b509150915081611c4f576040805160008082526020820190925260159190611c63565b80806020019051810190611c6391906125ec565b60039290920b9a90995090975095505050505050565b80356001600160a01b0381168114611c9057600080fd5b919050565b60008060008060808587031215611cab57600080fd5b611cb485611c79565b9350611cc260208601611c79565b9250611cd060408601611c79565b9396929550929360600135925050565b600080600060608486031215611cf557600080fd5b505081359360208301359350604090920135919050565b600060208284031215611d1e57600080fd5b611d2782611c79565b9392505050565b634e487b7160e01b600052604160045260246000fd5b604051601f8201601f1916810167ffffffffffffffff81118282101715611d6d57611d6d611d2e565b604052919050565b60008060408385031215611d8857600080fd5b611d9183611c79565b915060208084013567ffffffffffffffff80821115611daf57600080fd5b818601915086601f830112611dc357600080fd5b813581811115611dd557611dd5611d2e565b611de7601f8201601f19168501611d44565b91508082528784828501011115611dfd57600080fd5b80848401858401376000848284010152508093505050509250929050565b60005b83811015611e36578181015183820152602001611e1e565b50506000910152565b60008151808452611e57816020860160208601611e1b565b601f01601f19169290920160200192915050565b8281526040602082015260006115936040830184611e3f565b60008060408385031215611e9757600080fd5b611ea083611c79565b9150611eae60208401611c79565b90509250929050565b600060208284031215611ec957600080fd5b5035919050565b60008060208385031215611ee357600080fd5b823567ffffffffffffffff80821115611efb57600080fd5b818501915085601f830112611f0f57600080fd5b813581811115611f1e57600080fd5b8660208260051b8501011115611f3357600080fd5b60209290920196919550909350505050565b60008251611f57818460208701611e1b565b9190910192915050565b8051600381900b8114611c9057600080fd5b600060208284031215611f8557600080fd5b611d2782611f61565b7f4c594e5820746f6b656e206173736f63696174696f6e206661696c65643a2000815260008251611fc681601f850160208701611e1b565b91909101601f0192915050565b602081526000611d276020830184611e3f565b60608152600061200a606083016004815263098b29cb60e31b602082015260400190565b6001600160a01b03948516602084015292909316604090910152919050565b6001600160a01b038316815260406020820181905260009061159390830184611e3f565b82151581526040602082015260006115936040830184611e3f565b634e487b7160e01b600052601160045260246000fd5b600181815b808511156120b957816000190482111561209f5761209f612068565b808516156120ac57918102915b93841c9390800290612083565b509250929050565b6000826120d05750600161215e565b816120dd5750600061215e565b81600181146120f357600281146120fd57612119565b600191505061215e565b60ff84111561210e5761210e612068565b50506001821b61215e565b5060208310610133831016604e8410600b841016171561213c575081810a61215e565b612146838361207e565b806000190482111561215a5761215a612068565b0290505b92915050565b6000611d2760ff8416836120c1565b808202811582820484141761215e5761215e612068565b634e487b7160e01b600052601260045260246000fd5b6000826121af576121af61218a565b500490565b7f534155434520746f6b656e206173736f63696174696f6e206661696c65643a208152600082516121ec816020850160208701611e1b565b9190910160200192915050565b60608152600061200a606083016005815264534155434560d81b602082015260400190565b634e487b7160e01b600052603260045260246000fd5b7f546f6b656e206173736f63696174696f6e206661696c65643a2000000000000081526000825161226c81601a850160208701611e1b565b91909101601a0192915050565b7f434c585920746f6b656e206173736f63696174696f6e206661696c65643a2000815260008251611fc681601f850160208701611e1b565b60608152600061200a606083016004815263434c585960e01b602082015260400190565b60208152600061215e602083016004815263098b29cb60e31b602082015260400190565b60208152600061215e602083016005815264534155434560d81b602082015260400190565b60208152600061215e602083016004815263434c585960e01b602082015260400190565b60008060006060848603121561235757600080fd5b8351925060208401519150604084015190509250925092565b606081526000612395606083016005815264534155434560d81b602082015260400190565b6020830194909452506040015290565b606081526000612395606083016004815263434c585960e01b602082015260400190565b60a0808252600d908201526c3a3930b739b332b92a37b5b2b760991b60c08201526001600160a01b038581166020830152841660408201526060810183905260e06080820181905260009061242090830184611e3f565b9695505050505050565b60a08082526009908201526836b4b73a2a37b5b2b760b91b60c08201526001600160a01b038581166020830152841660408201526060810183905260e06080820181905260009061242090830184611e3f565b6000600160ff1b820161249257612492612068565b5060000390565b6000826124a8576124a861218a565b500690565b8082018082111561215e5761215e612068565b6000816124cf576124cf612068565b506000190190565b8181038181111561215e5761215e612068565b600080604083850312156124fd57600080fd5b61250683611f61565b91506020830151801515811461251b57600080fd5b809150509250929050565b6d554e4b4e4f574e5f4552524f525f60901b81526000825161254f81600e850160208701611e1b565b91909101600e0192915050565b60006060820160018060a01b038616835260208560070b60208501526060604085015281855180845260808601915060808160051b87010193506020870160005b828110156125cb57607f198887030184526125b9868351611e3f565b9550928401929084019060010161259d565b50939998505050505050505050565b8051600781900b8114611c9057600080fd5b60008060006060848603121561260157600080fd5b61260a84611f61565b925060206126198186016125da565b9250604085015167ffffffffffffffff8082111561263657600080fd5b818701915087601f83011261264a57600080fd5b81518181111561265c5761265c611d2e565b8060051b915061266d848301611d44565b818152918301840191848101908a84111561268757600080fd5b938501935b838510156126ac5761269d856125da565b8252938501939085019061268c565b809650505050505050925092509256feca04269aafa6b89ced6631d9643f3d61366dd8e5abf65031bae59d640e2ab64fe8e92ea3580b0ca922d0ba2eab56806a32481c0b7fb44ce303c6e8eed6ada356a264697066735822122026a51fd55048e34c66ffc9e33a5b3d1512b4b6991797a18d707a5d13db42041364736f6c63430008180033",
  "linkReferences": {},
  "deployedLinkReferences": {}
}