{"app/contracts/IndexTokenController.sol":{"IndexTokenController":{"abi":[{"inputs":[{"internalType":"address","name":"_vaultAddress","type":"address"},{"internalType":"address","name":"_htsAddress","type":"address"}],"stateMutability":"nonpayable","type":"constructor"},{"inputs":[{"internalType":"address","name":"token","type":"address"},{"internalType":"int64","name":"responseCode","type":"int64"},{"internalType":"string","name":"message","type":"string"}],"name":"HtsError","type":"error"},{"inputs":[],"name":"InsufficientDeposits","type":"error"},{"inputs":[],"name":"InvalidAmount","type":"error"},{"inputs":[],"name":"NoSupplyKeyForToken","type":"error"},{"inputs":[],"name":"OnlyAdmin","type":"error"},{"inputs":[{"internalType":"int64","name":"errorCode","type":"int64"}],"name":"TokenCreationFailed","type":"error"},{"inputs":[{"internalType":"address","name":"token","type":"address"},{"internalType":"int64","name":"errorCode","type":"int64"}],"name":"TokenMintFailed","type":"error"},{"inputs":[{"internalType":"address","name":"token","type":"address"},{"internalType":"address","name":"account","type":"address"}],"name":"TokenNotAssociated","type":"error"},{"inputs":[{"internalType":"address","name":"token","type":"address"},{"internalType":"int64","name":"errorCode","type":"int64"}],"name":"TokenTransferFailed","type":"error"},{"anonymous":false,"inputs":[{"indexed":false,"internalType":"address","name":"tokenAddress","type":"address"},{"indexed":false,"internalType":"int64","name":"responseCode","type":"int64"}],"name":"IndexTokenCreated","type":"event"},{"anonymous":false,"inputs":[{"indexed":true,"internalType":"address","name":"user","type":"address"},{"indexed":false,"internalType":"uint256","name":"amount","type":"uint256"}],"name":"IndexTokenMinted","type":"event"},{"anonymous":false,"inputs":[{"indexed":true,"internalType":"address","name":"tokenAddress","type":"address"}],"name":"IndexTokenSet","type":"event"},{"anonymous":false,"inputs":[{"indexed":false,"internalType":"bool","name":"hasKey","type":"bool"}],"name":"SupplyKeyVerified","type":"event"},{"inputs":[],"name":"ADMIN","outputs":[{"internalType":"address","name":"","type":"address"}],"stateMutability":"view","type":"function"},{"inputs":[],"name":"HTS_PRECOMPILE","outputs":[{"internalType":"address","name":"","type":"address"}],"stateMutability":"view","type":"function"},{"inputs":[],"name":"INDEX_TOKEN","outputs":[{"internalType":"address","name":"","type":"address"}],"stateMutability":"view","type":"function"},{"inputs":[],"name":"IS_SUPPLY_TYPE_INFINITE","outputs":[{"internalType":"bool","name":"","type":"bool"}],"stateMutability":"view","type":"function"},{"inputs":[],"name":"TOKEN_DECIMALS","outputs":[{"internalType":"uint8","name":"","type":"uint8"}],"stateMutability":"view","type":"function"},{"inputs":[],"name":"TOKEN_MAX_SUPPLY","outputs":[{"internalType":"uint32","name":"","type":"uint32"}],"stateMutability":"view","type":"function"},{"inputs":[{"internalType":"uint256","name":"amount","type":"uint256"}],"name":"calculateRequiredDeposits","outputs":[{"internalType":"address[]","name":"","type":"address[]"},{"internalType":"uint256[]","name":"","type":"uint256[]"}],"stateMutability":"view","type":"function"},{"inputs":[],"name":"checkSupplyKey","outputs":[],"stateMutability":"nonpayable","type":"function"},{"inputs":[{"internalType":"string","name":"name","type":"string"},{"internalType":"string","name":"symbol","type":"string"},{"internalType":"string","name":"memo","type":"string"}],"name":"createIndexToken","outputs":[],"stateMutability":"nonpayable","type":"function"},{"inputs":[],"name":"getTokenAddress","outputs":[{"internalType":"address","name":"","type":"address"}],"stateMutability":"view","type":"function"},{"inputs":[],"name":"hasSupplyKey","outputs":[{"internalType":"bool","name":"","type":"bool"}],"stateMutability":"view","type":"function"},{"inputs":[{"internalType":"address","name":"recipient","type":"address"},{"internalType":"uint256","name":"amount","type":"uint256"}],"name":"mintTo","outputs":[],"stateMutability":"nonpayable","type":"function"},{"inputs":[{"internalType":"address","name":"newIndexTokenAddress","type":"address"}],"name":"setIndexTokenId","outputs":[],"stateMutability":"nonpayable","type":"function"},{"inputs":[{"internalType":"bool","name":"status","type":"bool"}],"name":"setSupplyKeyStatus","outputs":[],"stateMutability":"nonpayable","type":"function"},{"inputs":[{"internalType":"address","name":"mockHts","type":"address"}],"name":"setTokenService","outputs":[],"stateMutability":"nonpayable","type":"function"},{"inputs":[],"name":"updateSupplyKeyStatus","outputs":[],"stateMutability":"nonpayable","type":"function"},{"inputs":[],"name":"vault","outputs":[{"internalType":"contract IndexVault","name":"","type":"address"}],"stateMutability":"view","type":"function"},{"stateMutability":"payable","type":"receive"}],"devdoc":{"details":"Controller for the index token, handling token creation and minting operations","kind":"dev","methods":{"calculateRequiredDeposits(uint256)":{"details":"Calculate required deposits for minting a specific amount of index tokens","params":{"amount":"The amount of index tokens to mint"},"returns":{"_0":"Tokens and amounts required for the mint"}},"checkSupplyKey()":{"details":"Verify that this contract has the supply key for the index token"},"constructor":{"details":"Constructor to initialize the controller","params":{"_htsAddress":"Address of the HTS precompile (or mock for testing)","_vaultAddress":"Address of the IndexVault that serves as the token treasury"}},"createIndexToken(string,string,string)":{"details":"Create the index token with the controller as supply key holder and vault as treasury","params":{"memo":"Additional information about the token","name":"The name of the token","symbol":"The symbol of the token"}},"getTokenAddress()":{"details":"Get token addresses","returns":{"_0":"The index token address"}},"mintTo(address,uint256)":{"details":"Mint index tokens for a user","params":{"amount":"The amount of tokens to mint","recipient":"The address to receive the minted tokens"}},"setIndexTokenId(address)":{"details":"Update the index token ID after deployment","params":{"newIndexTokenAddress":"The new token address"}},"setSupplyKeyStatus(bool)":{"details":"Force set the supply key status for testing purposes","params":{"status":"The new supply key status"}},"setTokenService(address)":{"details":"Used for testing only - allows setting a mock HTS","params":{"mockHts":"Address of the mock HTS implementation"}},"updateSupplyKeyStatus()":{"details":"Force update the hasSupplyKey status"}},"title":"IndexTokenController","version":1},"evm":{"bytecode":{"linkReferences":{},"object":"60806040526002805460ff60a01b191690553480156200001e57600080fd5b5060405162001950380380620019508339810160408190526200004191620000c3565b6001600160a01b038116156200005857806200005c565b6101675b600380546001600160a01b039283166001600160a01b03199182161790915560028054949092169381169390931790555060018054821633179055600080549091169055620000fb565b80516001600160a01b0381168114620000be57600080fd5b919050565b60008060408385031215620000d757600080fd5b620000e283620000a6565b9150620000f260208401620000a6565b90509250929050565b611845806200010b6000396000f3fe6080604052600436106101025760003560e01c80638ee2c4b811610095578063c2f4bfaf11610064578063c2f4bfaf146102cd578063de579bc9146102e2578063e294204d146102f7578063f76c4a741461030c578063fbfa77cf1461032c57600080fd5b80638ee2c4b8146102355780638f9f8b011461025f578063aa13e5f11461028d578063c11201f7146102ad57600080fd5b8063449a52f8116100d1578063449a52f8146101b85780634543873d146101d85780634bb3c9cf146101ee5780635b7f415c1461020e57600080fd5b806310fe9ae81461010e5780632a0acc6a14610145578063331a4c2014610165578063335c3fe81461019657600080fd5b3661010957005b600080fd5b34801561011a57600080fd5b506000546001600160a01b03165b6040516001600160a01b0390911681526020015b60405180910390f35b34801561015157600080fd5b50600154610128906001600160a01b031681565b34801561017157600080fd5b5060025461018690600160a01b900460ff1681565b604051901515815260200161013c565b3480156101a257600080fd5b506101b66101b13660046110f1565b61034c565b005b3480156101c457600080fd5b506101b66101d336600461112a565b6103cf565b3480156101e457600080fd5b5061012861016781565b3480156101fa57600080fd5b506101b6610209366004611156565b6107fb565b34801561021a57600080fd5b50610223600881565b60405160ff909116815260200161013c565b34801561024157600080fd5b5061024a600081565b60405163ffffffff909116815260200161013c565b34801561026b57600080fd5b5061027f61027a366004611173565b610848565b60405161013c9291906111d0565b34801561029957600080fd5b506101b66102a8366004611156565b6108c7565b3480156102b957600080fd5b50600054610128906001600160a01b031681565b3480156102d957600080fd5b506101b6610a5a565b3480156102ee57600080fd5b506101b6610a8f565b34801561030357600080fd5b50610186600181565b34801561031857600080fd5b506101b6610327366004611270565b610bae565b34801561033857600080fd5b50600254610128906001600160a01b031681565b6001546001600160a01b0316331461037757604051634755657960e01b815260040160405180910390fd5b60028054821515600160a01b0260ff60a01b199091161790556040517f40a36e95e1165e03b5c30095cd9d1e9fa9d8aa98d06aa1d6432a77718c0b68f0906103c490831515815260200190565b60405180910390a150565b6001546001600160a01b031633146103fa57604051634755657960e01b815260040160405180910390fd5b600254600160a01b900460ff166104245760405163b291599960e01b815260040160405180910390fd5b806000036104455760405163162908e360e11b815260040160405180910390fd5b600354600054604051631c97fa2960e21b81526001600160a01b039182166004820152848216602482015291169063725fe8a490604401602060405180830381865afa158015610499573d6000803e3d6000fd5b505050506040513d601f19601f820116820180604052508101906104bd919061130a565b6104f657600054604051632460bcbb60e21b81526001600160a01b03918216600482015290831660248201526044015b60405180910390fd5b600254604051635cea93e360e11b81526001600160a01b03848116600483015260248201849052600092169063b9d527c690604401602060405180830381865afa158015610548573d6000803e3d6000fd5b505050506040513d601f19601f8201168201806040525081019061056c919061130a565b90508061058c5760405163a2725db560e01b815260040160405180910390fd5b60408051600080825260208201909252816105b7565b60608152602001906001900390816105a25790505b50600354600080546040516376096e0160e11b815293945090926001600160a01b039283169263ec12dc02926105f69291169088908790600401611383565b6020604051808303816000875af1158015610615573d6000803e3d6000fd5b505050506040513d601f19601f820116820180604052508101906106399190611413565b90508060070b60001461074b5760008160070b600019146106ee578160070b600119146106c3578160070b60021914610697576040518060400160405280600d81526020016c2ab735b737bbb71032b93937b960991b81525061071c565b6040518060400160405280600e81526020016d125b9d985b1a5908185b5bdd5b9d60921b81525061071c565b6040518060400160405280600d81526020016c4e6f20737570706c79206b657960981b81525061071c565b60405180604001604052806014815260200173151bdad95b881b9bdd08185cdcdbd8da585d195960621b8152505b6000546040516389a219dd60e01b81529192506104ed916001600160a01b03909116908490849060040161142e565b60025460405163746b934560e01b81526001600160a01b038781166004830152602482018790529091169063746b934590604401600060405180830381600087803b15801561079957600080fd5b505af11580156107ad573d6000803e3d6000fd5b50505050846001600160a01b03167fb10d72c4fed7257575e1cb903701345d622e81a97d514c757eeb7bd26dd2f36f856040516107ec91815260200190565b60405180910390a25050505050565b6001546001600160a01b0316331461082657604051634755657960e01b815260040160405180910390fd5b600380546001600160a01b0319166001600160a01b0392909216919091179055565b600254604051638f9f8b0160e01b81526004810183905260609182916001600160a01b0390911690638f9f8b0190602401600060405180830381865afa158015610896573d6000803e3d6000fd5b505050506040513d6000823e601f3d908101601f191682016040526108be9190810190611521565b91509150915091565b6001546001600160a01b031633146108f257604051634755657960e01b815260040160405180910390fd5b6000546001600160a01b03161561094b5760405162461bcd60e51b815260206004820152601760248201527f496e64657820746f6b656e20616c72656164792073657400000000000000000060448201526064016104ed565b6001600160a01b0381166109a15760405162461bcd60e51b815260206004820152601a60248201527f43616e6e6f742073657420746f207a65726f206164647265737300000000000060448201526064016104ed565b600080546001600160a01b0319166001600160a01b0383161790556109c4610a8f565b60025460405163b82a35c560e01b81526001600160a01b0383811660048301529091169063b82a35c590602401600060405180830381600087803b158015610a0b57600080fd5b505af1158015610a1f573d6000803e3d6000fd5b50506040516001600160a01b03841692507f40cdac5625b9528b38b786c9b74c257c1de10eac74b82c0ebc45a652cd8bcf639150600090a250565b6001546001600160a01b03163314610a8557604051634755657960e01b815260040160405180910390fd5b610a8d610a8f565b565b6000546001600160a01b0316610ae3576002805460ff60a01b19169055604051600081527f40a36e95e1165e03b5c30095cd9d1e9fa9d8aa98d06aa1d6432a77718c0b68f0906020015b60405180910390a1565b600354600054604051632e1a634560e11b81526001600160a01b039182166004820152306024820152911690635c34c68a90604401602060405180830381865afa158015610b35573d6000803e3d6000fd5b505050506040513d601f19601f82011682018060405250810190610b59919061130a565b6002805460ff60a01b1916600160a01b9215158302179081905560405160ff9290910491909116151581527f40a36e95e1165e03b5c30095cd9d1e9fa9d8aa98d06aa1d6432a77718c0b68f090602001610ad9565b6001546001600160a01b03163314610bd957604051634755657960e01b815260040160405180910390fd5b6000546001600160a01b031615610c325760405162461bcd60e51b815260206004820152601a60248201527f496e64657820746f6b656e20616c72656164792065786973747300000000000060448201526064016104ed565b60408051600180825281830190925260009160208083019080368337505060015482519293506001600160a01b031691839150600090610c7457610c746115e6565b6001600160a01b0392909216602092830291909101909101526040805160018082528183019092526000918160200160208202803683370190505090503081600081518110610cc557610cc56115e6565b6001600160a01b03929092166020928302919091018201526040805160008082526101e0601f8c018590048502830181019093526101c082018b8152919390929084019182918d908d9081908801838280828437600092019190915250505090825250604080516020601f8c018190048102820181019092528a815291810191908b908b90819084018382808284376000920191909152505050908252506002546001600160a01b031660208083019190915260408051601f8a018390048302810183018252898152920191908990899081908401838280828437600092018290525093855250506001602084015250604080830182905260608084018390526080840187905260a0840187905260c0840188905260e084018990526101008401879052600861012090940193909352805160028082529381019091529293509190816020016020820280368337019050509050600181600081518110610e2e57610e2e6115e6565b602002602001019060ff16908160ff1681525050600481600181518110610e5757610e576115e6565b60ff929092166020928302919091018201526040805160028082526060820183526000939192909183019080368337505060015482519293506001600160a01b031691839150600090610eac57610eac6115e6565b60200260200101906001600160a01b031690816001600160a01b0316815250503081600181518110610ee057610ee06115e6565b6001600160a01b03928316602091820292909201015260035460405162db106560e11b8152600092839216906301b620ca908390610f2890899083908a908a9060040161162f565b604080518083038185885af1158015610f45573d6000803e3d6000fd5b50505050506040513d601f19601f82011682018060405250810190610f6a91906117d8565b915091508160070b600014610f9757604051622a27bf60e01b8152600783900b60048201526024016104ed565b600080546001600160a01b0319166001600160a01b03838116918217835560035460405163248a35ef60e11b8152306004820152602481019390935216906349146bde906044016020604051808303816000875af1158015610ffd573d6000803e3d6000fd5b505050506040513d601f19601f820116820180604052508101906110219190611413565b60025460405163b82a35c560e01b81526001600160a01b03858116600483015292935091169063b82a35c590602401600060405180830381600087803b15801561106a57600080fd5b505af115801561107e573d6000803e3d6000fd5b5050505061108a610a8f565b604080516001600160a01b0384168152600785900b60208201527f6eac19c9a21d5e9d36083852c56740284f5b210efee80c1cd2527b3d4c58fcf6910160405180910390a1505050505050505050505050505050565b80151581146110ee57600080fd5b50565b60006020828403121561110357600080fd5b813561110e816110e0565b9392505050565b6001600160a01b03811681146110ee57600080fd5b6000806040838503121561113d57600080fd5b823561114881611115565b946020939093013593505050565b60006020828403121561116857600080fd5b813561110e81611115565b60006020828403121561118557600080fd5b5035919050565b600081518084526020808501945080840160005b838110156111c55781516001600160a01b0316875295820195908201906001016111a0565b509495945050505050565b6040815260006111e3604083018561118c565b82810360208481019190915284518083528582019282019060005b8181101561121a578451835293830193918301916001016111fe565b5090979650505050505050565b60008083601f84011261123957600080fd5b50813567ffffffffffffffff81111561125157600080fd5b60208301915083602082850101111561126957600080fd5b9250929050565b6000806000806000806060878903121561128957600080fd5b863567ffffffffffffffff808211156112a157600080fd5b6112ad8a838b01611227565b909850965060208901359150808211156112c657600080fd5b6112d28a838b01611227565b909650945060408901359150808211156112eb57600080fd5b506112f889828a01611227565b979a9699509497509295939492505050565b60006020828403121561131c57600080fd5b815161110e816110e0565b634e487b7160e01b600052604160045260246000fd5b6000815180845260005b8181101561136357602081850181015186830182015201611347565b506000602082860101526020601f19601f83011685010191505092915050565b60006060820160018060a01b0386168352602085818501526060604085015281855180845260808601915060808160051b870101935082870160005b828110156113ed57607f198887030184526113db86835161133d565b955092840192908401906001016113bf565b50939998505050505050505050565b8051600781900b811461140e57600080fd5b919050565b60006020828403121561142557600080fd5b61110e826113fc565b60018060a01b03841681528260070b6020820152606060408201526000611458606083018461133d565b95945050505050565b604051601f8201601f1916810167ffffffffffffffff8111828210171561148a5761148a611327565b604052919050565b600067ffffffffffffffff8211156114ac576114ac611327565b5060051b60200190565b600082601f8301126114c757600080fd5b815160206114dc6114d783611492565b611461565b82815260059290921b840181019181810190868411156114fb57600080fd5b8286015b8481101561151657805183529183019183016114ff565b509695505050505050565b6000806040838503121561153457600080fd5b825167ffffffffffffffff8082111561154c57600080fd5b818501915085601f83011261156057600080fd5b815160206115706114d783611492565b82815260059290921b8401810191818101908984111561158f57600080fd5b948201945b838610156115b65785516115a781611115565b82529482019490820190611594565b918801519196509093505050808211156115cf57600080fd5b506115dc858286016114b6565b9150509250929050565b634e487b7160e01b600052603260045260246000fd5b600081518084526020808501945080840160005b838110156111c557815160ff1687529582019590820190600101611610565b60808152600085516101a080608085015261164e61022085018361133d565b91506020880151607f19808685030160a087015261166c848361133d565b935060408a0151915061168a60c08701836001600160a01b03169052565b60608a01519150808685030160e08701526116a5848361133d565b935060808a015191506101006116be8188018415159052565b60a08b015192506101206116d98189018563ffffffff169052565b60c08c015193506101406116f0818a018615159052565b60e08d01519450610160848a890301818b015261170d888761118c565b9750838e015195506101809350848a890301848b015261172d888761118c565b9750828e01519550848a890301878b0152611748888761118c565b9750818e01519650848a8903016101c08b0152611765888861118c565b9750808e0151965050505081878603016101e0880152611785858561118c565b9450808b015193505050506117a061020085018260ff169052565b5085602084015282810360408401526117b981866115fc565b905082810360608401526117cd818561118c565b979650505050505050565b600080604083850312156117eb57600080fd5b6117f4836113fc565b9150602083015161180481611115565b80915050925092905056fea2646970667358221220ee44d251b0959d1e06603823f2811a90f3d7893ca5bf369272138f173efc8d6e64736f6c63430008120033","opcodes":"PUSH1 0x80 PUSH1 0x40 MSTORE PUSH1 0x2 DUP1 SLOAD PUSH1 0xFF PUSH1 0xA0 SHL NOT AND SWAP1 SSTORE CALLVALUE DUP1 ISZERO PUSH3 0x1E JUMPI PUSH1 0x0 DUP1 REVERT JUMPDEST POP PUSH1 0x40 MLOAD PUSH3 0x1950 CODESIZE SUB DUP1 PUSH3 0x1950 DUP4 CODECOPY DUP2 ADD PUSH1 0x40 DUP2 SWAP1 MSTORE PUSH3 0x41 SWAP2 PUSH3 0xC3 JUMP JUMPDEST PUSH1 0x1 PUSH1 0x1 PUSH1 0xA0 SHL SUB DUP2 AND ISZERO PUSH3 0x58 JUMPI DUP1 PUSH3 0x5C JUMP JUMPDEST PUSH2 0x167 JUMPDEST PUSH1 0x3 DUP1 SLOAD PUSH1 0x1 PUSH1 0x1 PUSH1 0xA0 SHL SUB SWAP3 DUP4 AND PUSH1 0x1 PUSH1 0x1 PUSH1 0xA0 SHL SUB NOT SWAP2 DUP3 AND OR SWAP1 SWAP2 SSTORE PUSH1 0x2 DUP1 SLOAD SWAP5 SWAP1 SWAP3 AND SWAP4 DUP2 AND SWAP4 SWAP1 SWAP4 OR SWAP1 SSTORE POP PUSH1 0x1 DUP1 SLOAD DUP3 AND CALLER OR SWAP1 SSTORE PUSH1 0x0 DUP1 SLOAD SWAP1 SWAP2 AND SWAP1 SSTORE PUSH3 0xFB JUMP JUMPDEST DUP1 MLOAD PUSH1 0x1 PUSH1 0x1 PUSH1 0xA0 SHL SUB DUP2 AND DUP2 EQ PUSH3 0xBE JUMPI PUSH1 0x0 DUP1 REVERT JUMPDEST SWAP2 SWAP1 POP JUMP JUMPDEST PUSH1 0x0 DUP1 PUSH1 0x40 DUP4 DUP6 SUB SLT ISZERO PUSH3 0xD7 JUMPI PUSH1 0x0 DUP1 REVERT JUMPDEST PUSH3 0xE2 DUP4 PUSH3 0xA6 JUMP JUMPDEST SWAP2 POP PUSH3 0xF2 PUSH1 0x20 DUP5 ADD PUSH3 0xA6 JUMP JUMPDEST SWAP1 POP SWAP3 POP SWAP3 SWAP1 POP JUMP JUMPDEST PUSH2 0x1845 DUP1 PUSH3 0x10B PUSH1 0x0 CODECOPY PUSH1 0x0 RETURN INVALID PUSH1 0x80 PUSH1 0x40 MSTORE PUSH1 0x4 CALLDATASIZE LT PUSH2 0x102 JUMPI PUSH1 0x0 CALLDATALOAD PUSH1 0xE0 SHR DUP1 PUSH4 0x8EE2C4B8 GT PUSH2 0x95 JUMPI DUP1 PUSH4 0xC2F4BFAF GT PUSH2 0x64 JUMPI DUP1 PUSH4 0xC2F4BFAF EQ PUSH2 0x2CD JUMPI DUP1 PUSH4 0xDE579BC9 EQ PUSH2 0x2E2 JUMPI DUP1 PUSH4 0xE294204D EQ PUSH2 0x2F7 JUMPI DUP1 PUSH4 0xF76C4A74 EQ PUSH2 0x30C JUMPI DUP1 PUSH4 0xFBFA77CF EQ PUSH2 0x32C JUMPI PUSH1 0x0 DUP1 REVERT JUMPDEST DUP1 PUSH4 0x8EE2C4B8 EQ PUSH2 0x235 JUMPI DUP1 PUSH4 0x8F9F8B01 EQ PUSH2 0x25F JUMPI DUP1 PUSH4 0xAA13E5F1 EQ PUSH2 0x28D JUMPI DUP1 PUSH4 0xC11201F7 EQ PUSH2 0x2AD JUMPI PUSH1 0x0 DUP1 REVERT JUMPDEST DUP1 PUSH4 0x449A52F8 GT PUSH2 0xD1 JUMPI DUP1 PUSH4 0x449A52F8 EQ PUSH2 0x1B8 JUMPI DUP1 PUSH4 0x4543873D EQ PUSH2 0x1D8 JUMPI DUP1 PUSH4 0x4BB3C9CF EQ PUSH2 0x1EE JUMPI DUP1 PUSH4 0x5B7F415C EQ PUSH2 0x20E JUMPI PUSH1 0x0 DUP1 REVERT JUMPDEST DUP1 PUSH4 0x10FE9AE8 EQ PUSH2 0x10E JUMPI DUP1 PUSH4 0x2A0ACC6A EQ PUSH2 0x145 JUMPI DUP1 PUSH4 0x331A4C20 EQ PUSH2 0x165 JUMPI DUP1 PUSH4 0x335C3FE8 EQ PUSH2 0x196 JUMPI PUSH1 0x0 DUP1 REVERT JUMPDEST CALLDATASIZE PUSH2 0x109 JUMPI STOP JUMPDEST PUSH1 0x0 DUP1 REVERT JUMPDEST CALLVALUE DUP1 ISZERO PUSH2 0x11A JUMPI PUSH1 0x0 DUP1 REVERT JUMPDEST POP PUSH1 0x0 SLOAD PUSH1 0x1 PUSH1 0x1 PUSH1 0xA0 SHL SUB AND JUMPDEST PUSH1 0x40 MLOAD PUSH1 0x1 PUSH1 0x1 PUSH1 0xA0 SHL SUB SWAP1 SWAP2 AND DUP2 MSTORE PUSH1 0x20 ADD JUMPDEST PUSH1 0x40 MLOAD DUP1 SWAP2 SUB SWAP1 RETURN JUMPDEST CALLVALUE DUP1 ISZERO PUSH2 0x151 JUMPI PUSH1 0x0 DUP1 REVERT JUMPDEST POP PUSH1 0x1 SLOAD PUSH2 0x128 SWAP1 PUSH1 0x1 PUSH1 0x1 PUSH1 0xA0 SHL SUB AND DUP2 JUMP JUMPDEST CALLVALUE DUP1 ISZERO PUSH2 0x171 JUMPI PUSH1 0x0 DUP1 REVERT JUMPDEST POP PUSH1 0x2 SLOAD PUSH2 0x186 SWAP1 PUSH1 0x1 PUSH1 0xA0 SHL SWAP1 DIV PUSH1 0xFF AND DUP2 JUMP JUMPDEST PUSH1 0x40 MLOAD SWAP1 ISZERO ISZERO DUP2 MSTORE PUSH1 0x20 ADD PUSH2 0x13C JUMP JUMPDEST CALLVALUE DUP1 ISZERO PUSH2 0x1A2 JUMPI PUSH1 0x0 DUP1 REVERT JUMPDEST POP PUSH2 0x1B6 PUSH2 0x1B1 CALLDATASIZE PUSH1 0x4 PUSH2 0x10F1 JUMP JUMPDEST PUSH2 0x34C JUMP JUMPDEST STOP JUMPDEST CALLVALUE DUP1 ISZERO PUSH2 0x1C4 JUMPI PUSH1 0x0 DUP1 REVERT JUMPDEST POP PUSH2 0x1B6 PUSH2 0x1D3 CALLDATASIZE PUSH1 0x4 PUSH2 0x112A JUMP JUMPDEST PUSH2 0x3CF JUMP JUMPDEST CALLVALUE DUP1 ISZERO PUSH2 0x1E4 JUMPI PUSH1 0x0 DUP1 REVERT JUMPDEST POP PUSH2 0x128 PUSH2 0x167 DUP2 JUMP JUMPDEST CALLVALUE DUP1 ISZERO PUSH2 0x1FA JUMPI PUSH1 0x0 DUP1 REVERT JUMPDEST POP PUSH2 0x1B6 PUSH2 0x209 CALLDATASIZE PUSH1 0x4 PUSH2 0x1156 JUMP JUMPDEST PUSH2 0x7FB JUMP JUMPDEST CALLVALUE DUP1 ISZERO PUSH2 0x21A JUMPI PUSH1 0x0 DUP1 REVERT JUMPDEST POP PUSH2 0x223 PUSH1 0x8 DUP2 JUMP JUMPDEST PUSH1 0x40 MLOAD PUSH1 0xFF SWAP1 SWAP2 AND DUP2 MSTORE PUSH1 0x20 ADD PUSH2 0x13C JUMP JUMPDEST CALLVALUE DUP1 ISZERO PUSH2 0x241 JUMPI PUSH1 0x0 DUP1 REVERT JUMPDEST POP PUSH2 0x24A PUSH1 0x0 DUP2 JUMP JUMPDEST PUSH1 0x40 MLOAD PUSH4 0xFFFFFFFF SWAP1 SWAP2 AND DUP2 MSTORE PUSH1 0x20 ADD PUSH2 0x13C JUMP JUMPDEST CALLVALUE DUP1 ISZERO PUSH2 0x26B JUMPI PUSH1 0x0 DUP1 REVERT JUMPDEST POP PUSH2 0x27F PUSH2 0x27A CALLDATASIZE PUSH1 0x4 PUSH2 0x1173 JUMP JUMPDEST PUSH2 0x848 JUMP JUMPDEST PUSH1 0x40 MLOAD PUSH2 0x13C SWAP3 SWAP2 SWAP1 PUSH2 0x11D0 JUMP JUMPDEST CALLVALUE DUP1 ISZERO PUSH2 0x299 JUMPI PUSH1 0x0 DUP1 REVERT JUMPDEST POP PUSH2 0x1B6 PUSH2 0x2A8 CALLDATASIZE PUSH1 0x4 PUSH2 0x1156 JUMP JUMPDEST PUSH2 0x8C7 JUMP JUMPDEST CALLVALUE DUP1 ISZERO PUSH2 0x2B9 JUMPI PUSH1 0x0 DUP1 REVERT JUMPDEST POP PUSH1 0x0 SLOAD PUSH2 0x128 SWAP1 PUSH1 0x1 PUSH1 0x1 PUSH1 0xA0 SHL SUB AND DUP2 JUMP JUMPDEST CALLVALUE DUP1 ISZERO PUSH2 0x2D9 JUMPI PUSH1 0x0 DUP1 REVERT JUMPDEST POP PUSH2 0x1B6 PUSH2 0xA5A JUMP JUMPDEST CALLVALUE DUP1 ISZERO PUSH2 0x2EE JUMPI PUSH1 0x0 DUP1 REVERT JUMPDEST POP PUSH2 0x1B6 PUSH2 0xA8F JUMP JUMPDEST CALLVALUE DUP1 ISZERO PUSH2 0x303 JUMPI PUSH1 0x0 DUP1 REVERT JUMPDEST POP PUSH2 0x186 PUSH1 0x1 DUP2 JUMP JUMPDEST CALLVALUE DUP1 ISZERO PUSH2 0x318 JUMPI PUSH1 0x0 DUP1 REVERT JUMPDEST POP PUSH2 0x1B6 PUSH2 0x327 CALLDATASIZE PUSH1 0x4 PUSH2 0x1270 JUMP JUMPDEST PUSH2 0xBAE JUMP JUMPDEST CALLVALUE DUP1 ISZERO PUSH2 0x338 JUMPI PUSH1 0x0 DUP1 REVERT JUMPDEST POP PUSH1 0x2 SLOAD PUSH2 0x128 SWAP1 PUSH1 0x1 PUSH1 0x1 PUSH1 0xA0 SHL SUB AND DUP2 JUMP JUMPDEST PUSH1 0x1 SLOAD PUSH1 0x1 PUSH1 0x1 PUSH1 0xA0 SHL SUB AND CALLER EQ PUSH2 0x377 JUMPI PUSH1 0x40 MLOAD PUSH4 0x47556579 PUSH1 0xE0 SHL DUP2 MSTORE PUSH1 0x4 ADD PUSH1 0x40 MLOAD DUP1 SWAP2 SUB SWAP1 REVERT JUMPDEST PUSH1 0x2 DUP1 SLOAD DUP3 ISZERO ISZERO PUSH1 0x1 PUSH1 0xA0 SHL MUL PUSH1 0xFF PUSH1 0xA0 SHL NOT SWAP1 SWAP2 AND OR SWAP1 SSTORE PUSH1 0x40 MLOAD PUSH32 0x40A36E95E1165E03B5C30095CD9D1E9FA9D8AA98D06AA1D6432A77718C0B68F0 SWAP1 PUSH2 0x3C4 SWAP1 DUP4 ISZERO ISZERO DUP2 MSTORE PUSH1 0x20 ADD SWAP1 JUMP JUMPDEST PUSH1 0x40 MLOAD DUP1 SWAP2 SUB SWAP1 LOG1 POP JUMP JUMPDEST PUSH1 0x1 SLOAD PUSH1 0x1 PUSH1 0x1 PUSH1 0xA0 SHL SUB AND CALLER EQ PUSH2 0x3FA JUMPI PUSH1 0x40 MLOAD PUSH4 0x47556579 PUSH1 0xE0 SHL DUP2 MSTORE PUSH1 0x4 ADD PUSH1 0x40 MLOAD DUP1 SWAP2 SUB SWAP1 REVERT JUMPDEST PUSH1 0x2 SLOAD PUSH1 0x1 PUSH1 0xA0 SHL SWAP1 DIV PUSH1 0xFF AND PUSH2 0x424 JUMPI PUSH1 0x40 MLOAD PUSH4 0xB2915999 PUSH1 0xE0 SHL DUP2 MSTORE PUSH1 0x4 ADD PUSH1 0x40 MLOAD DUP1 SWAP2 SUB SWAP1 REVERT JUMPDEST DUP1 PUSH1 0x0 SUB PUSH2 0x445 JUMPI PUSH1 0x40 MLOAD PUSH4 0x162908E3 PUSH1 0xE1 SHL DUP2 MSTORE PUSH1 0x4 ADD PUSH1 0x40 MLOAD DUP1 SWAP2 SUB SWAP1 REVERT JUMPDEST PUSH1 0x3 SLOAD PUSH1 0x0 SLOAD PUSH1 0x40 MLOAD PUSH4 0x1C97FA29 PUSH1 0xE2 SHL DUP2 MSTORE PUSH1 0x1 PUSH1 0x1 PUSH1 0xA0 SHL SUB SWAP2 DUP3 AND PUSH1 0x4 DUP3 ADD MSTORE DUP5 DUP3 AND PUSH1 0x24 DUP3 ADD MSTORE SWAP2 AND SWAP1 PUSH4 0x725FE8A4 SWAP1 PUSH1 0x44 ADD PUSH1 0x20 PUSH1 0x40 MLOAD DUP1 DUP4 SUB DUP2 DUP7 GAS STATICCALL ISZERO DUP1 ISZERO PUSH2 0x499 JUMPI RETURNDATASIZE PUSH1 0x0 DUP1 RETURNDATACOPY RETURNDATASIZE PUSH1 0x0 REVERT JUMPDEST POP POP POP POP PUSH1 0x40 MLOAD RETURNDATASIZE PUSH1 0x1F NOT PUSH1 0x1F DUP3 ADD AND DUP3 ADD DUP1 PUSH1 0x40 MSTORE POP DUP2 ADD SWAP1 PUSH2 0x4BD SWAP2 SWAP1 PUSH2 0x130A JUMP JUMPDEST PUSH2 0x4F6 JUMPI PUSH1 0x0 SLOAD PUSH1 0x40 MLOAD PUSH4 0x2460BCBB PUSH1 0xE2 SHL DUP2 MSTORE PUSH1 0x1 PUSH1 0x1 PUSH1 0xA0 SHL SUB SWAP2 DUP3 AND PUSH1 0x4 DUP3 ADD MSTORE SWAP1 DUP4 AND PUSH1 0x24 DUP3 ADD MSTORE PUSH1 0x44 ADD JUMPDEST PUSH1 0x40 MLOAD DUP1 SWAP2 SUB SWAP1 REVERT JUMPDEST PUSH1 0x2 SLOAD PUSH1 0x40 MLOAD PUSH4 0x5CEA93E3 PUSH1 0xE1 SHL DUP2 MSTORE PUSH1 0x1 PUSH1 0x1 PUSH1 0xA0 SHL SUB DUP5 DUP2 AND PUSH1 0x4 DUP4 ADD MSTORE PUSH1 0x24 DUP3 ADD DUP5 SWAP1 MSTORE PUSH1 0x0 SWAP3 AND SWAP1 PUSH4 0xB9D527C6 SWAP1 PUSH1 0x44 ADD PUSH1 0x20 PUSH1 0x40 MLOAD DUP1 DUP4 SUB DUP2 DUP7 GAS STATICCALL ISZERO DUP1 ISZERO PUSH2 0x548 JUMPI RETURNDATASIZE PUSH1 0x0 DUP1 RETURNDATACOPY RETURNDATASIZE PUSH1 0x0 REVERT JUMPDEST POP POP POP POP PUSH1 0x40 MLOAD RETURNDATASIZE PUSH1 0x1F NOT PUSH1 0x1F DUP3 ADD AND DUP3 ADD DUP1 PUSH1 0x40 MSTORE POP DUP2 ADD SWAP1 PUSH2 0x56C SWAP2 SWAP1 PUSH2 0x130A JUMP JUMPDEST SWAP1 POP DUP1 PUSH2 0x58C JUMPI PUSH1 0x40 MLOAD PUSH4 0xA2725DB5 PUSH1 0xE0 SHL DUP2 MSTORE PUSH1 0x4 ADD PUSH1 0x40 MLOAD DUP1 SWAP2 SUB SWAP1 REVERT JUMPDEST PUSH1 0x40 DUP1 MLOAD PUSH1 0x0 DUP1 DUP3 MSTORE PUSH1 0x20 DUP3 ADD SWAP1 SWAP3 MSTORE DUP2 PUSH2 0x5B7 JUMP JUMPDEST PUSH1 0x60 DUP2 MSTORE PUSH1 0x20 ADD SWAP1 PUSH1 0x1 SWAP1 SUB SWAP1 DUP2 PUSH2 0x5A2 JUMPI SWAP1 POP JUMPDEST POP PUSH1 0x3 SLOAD PUSH1 0x0 DUP1 SLOAD PUSH1 0x40 MLOAD PUSH4 0x76096E01 PUSH1 0xE1 SHL DUP2 MSTORE SWAP4 SWAP5 POP SWAP1 SWAP3 PUSH1 0x1 PUSH1 0x1 PUSH1 0xA0 SHL SUB SWAP3 DUP4 AND SWAP3 PUSH4 0xEC12DC02 SWAP3 PUSH2 0x5F6 SWAP3 SWAP2 AND SWAP1 DUP9 SWAP1 DUP8 SWAP1 PUSH1 0x4 ADD PUSH2 0x1383 JUMP JUMPDEST PUSH1 0x20 PUSH1 0x40 MLOAD DUP1 DUP4 SUB DUP2 PUSH1 0x0 DUP8 GAS CALL ISZERO DUP1 ISZERO PUSH2 0x615 JUMPI RETURNDATASIZE PUSH1 0x0 DUP1 RETURNDATACOPY RETURNDATASIZE PUSH1 0x0 REVERT JUMPDEST POP POP POP POP PUSH1 0x40 MLOAD RETURNDATASIZE PUSH1 0x1F NOT PUSH1 0x1F DUP3 ADD AND DUP3 ADD DUP1 PUSH1 0x40 MSTORE POP DUP2 ADD SWAP1 PUSH2 0x639 SWAP2 SWAP1 PUSH2 0x1413 JUMP JUMPDEST SWAP1 POP DUP1 PUSH1 0x7 SIGNEXTEND PUSH1 0x0 EQ PUSH2 0x74B JUMPI PUSH1 0x0 DUP2 PUSH1 0x7 SIGNEXTEND PUSH1 0x0 NOT EQ PUSH2 0x6EE JUMPI DUP2 PUSH1 0x7 SIGNEXTEND PUSH1 0x1 NOT EQ PUSH2 0x6C3 JUMPI DUP2 PUSH1 0x7 SIGNEXTEND PUSH1 0x2 NOT EQ PUSH2 0x697 JUMPI PUSH1 0x40 MLOAD DUP1 PUSH1 0x40 ADD PUSH1 0x40 MSTORE DUP1 PUSH1 0xD DUP2 MSTORE PUSH1 0x20 ADD PUSH13 0x2AB735B737BBB71032B93937B9 PUSH1 0x99 SHL DUP2 MSTORE POP PUSH2 0x71C JUMP JUMPDEST PUSH1 0x40 MLOAD DUP1 PUSH1 0x40 ADD PUSH1 0x40 MSTORE DUP1 PUSH1 0xE DUP2 MSTORE PUSH1 0x20 ADD PUSH14 0x125B9D985B1A5908185B5BDD5B9D PUSH1 0x92 SHL DUP2 MSTORE POP PUSH2 0x71C JUMP JUMPDEST PUSH1 0x40 MLOAD DUP1 PUSH1 0x40 ADD PUSH1 0x40 MSTORE DUP1 PUSH1 0xD DUP2 MSTORE PUSH1 0x20 ADD PUSH13 0x4E6F20737570706C79206B6579 PUSH1 0x98 SHL DUP2 MSTORE POP PUSH2 0x71C JUMP JUMPDEST PUSH1 0x40 MLOAD DUP1 PUSH1 0x40 ADD PUSH1 0x40 MSTORE DUP1 PUSH1 0x14 DUP2 MSTORE PUSH1 0x20 ADD PUSH20 0x151BDAD95B881B9BDD08185CDCDBD8DA585D1959 PUSH1 0x62 SHL DUP2 MSTORE POP JUMPDEST PUSH1 0x0 SLOAD PUSH1 0x40 MLOAD PUSH4 0x89A219DD PUSH1 0xE0 SHL DUP2 MSTORE SWAP2 SWAP3 POP PUSH2 0x4ED SWAP2 PUSH1 0x1 PUSH1 0x1 PUSH1 0xA0 SHL SUB SWAP1 SWAP2 AND SWAP1 DUP5 SWAP1 DUP5 SWAP1 PUSH1 0x4 ADD PUSH2 0x142E JUMP JUMPDEST PUSH1 0x2 SLOAD PUSH1 0x40 MLOAD PUSH4 0x746B9345 PUSH1 0xE0 SHL DUP2 MSTORE PUSH1 0x1 PUSH1 0x1 PUSH1 0xA0 SHL SUB DUP8 DUP2 AND PUSH1 0x4 DUP4 ADD MSTORE PUSH1 0x24 DUP3 ADD DUP8 SWAP1 MSTORE SWAP1 SWAP2 AND SWAP1 PUSH4 0x746B9345 SWAP1 PUSH1 0x44 ADD PUSH1 0x0 PUSH1 0x40 MLOAD DUP1 DUP4 SUB DUP2 PUSH1 0x0 DUP8 DUP1 EXTCODESIZE ISZERO DUP1 ISZERO PUSH2 0x799 JUMPI PUSH1 0x0 DUP1 REVERT JUMPDEST POP GAS CALL ISZERO DUP1 ISZERO PUSH2 0x7AD JUMPI RETURNDATASIZE PUSH1 0x0 DUP1 RETURNDATACOPY RETURNDATASIZE PUSH1 0x0 REVERT JUMPDEST POP POP POP POP DUP5 PUSH1 0x1 PUSH1 0x1 PUSH1 0xA0 SHL SUB AND PUSH32 0xB10D72C4FED7257575E1CB903701345D622E81A97D514C757EEB7BD26DD2F36F DUP6 PUSH1 0x40 MLOAD PUSH2 0x7EC SWAP2 DUP2 MSTORE PUSH1 0x20 ADD SWAP1 JUMP JUMPDEST PUSH1 0x40 MLOAD DUP1 SWAP2 SUB SWAP1 LOG2 POP POP POP POP POP JUMP JUMPDEST PUSH1 0x1 SLOAD PUSH1 0x1 PUSH1 0x1 PUSH1 0xA0 SHL SUB AND CALLER EQ PUSH2 0x826 JUMPI PUSH1 0x40 MLOAD PUSH4 0x47556579 PUSH1 0xE0 SHL DUP2 MSTORE PUSH1 0x4 ADD PUSH1 0x40 MLOAD DUP1 SWAP2 SUB SWAP1 REVERT JUMPDEST PUSH1 0x3 DUP1 SLOAD PUSH1 0x1 PUSH1 0x1 PUSH1 0xA0 SHL SUB NOT AND PUSH1 0x1 PUSH1 0x1 PUSH1 0xA0 SHL SUB SWAP3 SWAP1 SWAP3 AND SWAP2 SWAP1 SWAP2 OR SWAP1 SSTORE JUMP JUMPDEST PUSH1 0x2 SLOAD PUSH1 0x40 MLOAD PUSH4 0x8F9F8B01 PUSH1 0xE0 SHL DUP2 MSTORE PUSH1 0x4 DUP2 ADD DUP4 SWAP1 MSTORE PUSH1 0x60 SWAP2 DUP3 SWAP2 PUSH1 0x1 PUSH1 0x1 PUSH1 0xA0 SHL SUB SWAP1 SWAP2 AND SWAP1 PUSH4 0x8F9F8B01 SWAP1 PUSH1 0x24 ADD PUSH1 0x0 PUSH1 0x40 MLOAD DUP1 DUP4 SUB DUP2 DUP7 GAS STATICCALL ISZERO DUP1 ISZERO PUSH2 0x896 JUMPI RETURNDATASIZE PUSH1 0x0 DUP1 RETURNDATACOPY RETURNDATASIZE PUSH1 0x0 REVERT JUMPDEST POP POP POP POP PUSH1 0x40 MLOAD RETURNDATASIZE PUSH1 0x0 DUP3 RETURNDATACOPY PUSH1 0x1F RETURNDATASIZE SWAP1 DUP2 ADD PUSH1 0x1F NOT AND DUP3 ADD PUSH1 0x40 MSTORE PUSH2 0x8BE SWAP2 SWAP1 DUP2 ADD SWAP1 PUSH2 0x1521 JUMP JUMPDEST SWAP2 POP SWAP2 POP SWAP2 POP SWAP2 JUMP JUMPDEST PUSH1 0x1 SLOAD PUSH1 0x1 PUSH1 0x1 PUSH1 0xA0 SHL SUB AND CALLER EQ PUSH2 0x8F2 JUMPI PUSH1 0x40 MLOAD PUSH4 0x47556579 PUSH1 0xE0 SHL DUP2 MSTORE PUSH1 0x4 ADD PUSH1 0x40 MLOAD DUP1 SWAP2 SUB SWAP1 REVERT JUMPDEST PUSH1 0x0 SLOAD PUSH1 0x1 PUSH1 0x1 PUSH1 0xA0 SHL SUB AND ISZERO PUSH2 0x94B JUMPI PUSH1 0x40 MLOAD PUSH3 0x461BCD PUSH1 0xE5 SHL DUP2 MSTORE PUSH1 0x20 PUSH1 0x4 DUP3 ADD MSTORE PUSH1 0x17 PUSH1 0x24 DUP3 ADD MSTORE PUSH32 0x496E64657820746F6B656E20616C726561647920736574000000000000000000 PUSH1 0x44 DUP3 ADD MSTORE PUSH1 0x64 ADD PUSH2 0x4ED JUMP JUMPDEST PUSH1 0x1 PUSH1 0x1 PUSH1 0xA0 SHL SUB DUP2 AND PUSH2 0x9A1 JUMPI PUSH1 0x40 MLOAD PUSH3 0x461BCD PUSH1 0xE5 SHL DUP2 MSTORE PUSH1 0x20 PUSH1 0x4 DUP3 ADD MSTORE PUSH1 0x1A PUSH1 0x24 DUP3 ADD MSTORE PUSH32 0x43616E6E6F742073657420746F207A65726F2061646472657373000000000000 PUSH1 0x44 DUP3 ADD MSTORE PUSH1 0x64 ADD PUSH2 0x4ED JUMP JUMPDEST PUSH1 0x0 DUP1 SLOAD PUSH1 0x1 PUSH1 0x1 PUSH1 0xA0 SHL SUB NOT AND PUSH1 0x1 PUSH1 0x1 PUSH1 0xA0 SHL SUB DUP4 AND OR SWAP1 SSTORE PUSH2 0x9C4 PUSH2 0xA8F JUMP JUMPDEST PUSH1 0x2 SLOAD PUSH1 0x40 MLOAD PUSH4 0xB82A35C5 PUSH1 0xE0 SHL DUP2 MSTORE PUSH1 0x1 PUSH1 0x1 PUSH1 0xA0 SHL SUB DUP4 DUP2 AND PUSH1 0x4 DUP4 ADD MSTORE SWAP1 SWAP2 AND SWAP1 PUSH4 0xB82A35C5 SWAP1 PUSH1 0x24 ADD PUSH1 0x0 PUSH1 0x40 MLOAD DUP1 DUP4 SUB DUP2 PUSH1 0x0 DUP8 DUP1 EXTCODESIZE ISZERO DUP1 ISZERO PUSH2 0xA0B JUMPI PUSH1 0x0 DUP1 REVERT JUMPDEST POP GAS CALL ISZERO DUP1 ISZERO PUSH2 0xA1F JUMPI RETURNDATASIZE PUSH1 0x0 DUP1 RETURNDATACOPY RETURNDATASIZE PUSH1 0x0 REVERT JUMPDEST POP POP PUSH1 0x40 MLOAD PUSH1 0x1 PUSH1 0x1 PUSH1 0xA0 SHL SUB DUP5 AND SWAP3 POP PUSH32 0x40CDAC5625B9528B38B786C9B74C257C1DE10EAC74B82C0EBC45A652CD8BCF63 SWAP2 POP PUSH1 0x0 SWAP1 LOG2 POP JUMP JUMPDEST PUSH1 0x1 SLOAD PUSH1 0x1 PUSH1 0x1 PUSH1 0xA0 SHL SUB AND CALLER EQ PUSH2 0xA85 JUMPI PUSH1 0x40 MLOAD PUSH4 0x47556579 PUSH1 0xE0 SHL DUP2 MSTORE PUSH1 0x4 ADD PUSH1 0x40 MLOAD DUP1 SWAP2 SUB SWAP1 REVERT JUMPDEST PUSH2 0xA8D PUSH2 0xA8F JUMP JUMPDEST JUMP JUMPDEST PUSH1 0x0 SLOAD PUSH1 0x1 PUSH1 0x1 PUSH1 0xA0 SHL SUB AND PUSH2 0xAE3 JUMPI PUSH1 0x2 DUP1 SLOAD PUSH1 0xFF PUSH1 0xA0 SHL NOT AND SWAP1 SSTORE PUSH1 0x40 MLOAD PUSH1 0x0 DUP2 MSTORE PUSH32 0x40A36E95E1165E03B5C30095CD9D1E9FA9D8AA98D06AA1D6432A77718C0B68F0 SWAP1 PUSH1 0x20 ADD JUMPDEST PUSH1 0x40 MLOAD DUP1 SWAP2 SUB SWAP1 LOG1 JUMP JUMPDEST PUSH1 0x3 SLOAD PUSH1 0x0 SLOAD PUSH1 0x40 MLOAD PUSH4 0x2E1A6345 PUSH1 0xE1 SHL DUP2 MSTORE PUSH1 0x1 PUSH1 0x1 PUSH1 0xA0 SHL SUB SWAP2 DUP3 AND PUSH1 0x4 DUP3 ADD MSTORE ADDRESS PUSH1 0x24 DUP3 ADD MSTORE SWAP2 AND SWAP1 PUSH4 0x5C34C68A SWAP1 PUSH1 0x44 ADD PUSH1 0x20 PUSH1 0x40 MLOAD DUP1 DUP4 SUB DUP2 DUP7 GAS STATICCALL ISZERO DUP1 ISZERO PUSH2 0xB35 JUMPI RETURNDATASIZE PUSH1 0x0 DUP1 RETURNDATACOPY RETURNDATASIZE PUSH1 0x0 REVERT JUMPDEST POP POP POP POP PUSH1 0x40 MLOAD RETURNDATASIZE PUSH1 0x1F NOT PUSH1 0x1F DUP3 ADD AND DUP3 ADD DUP1 PUSH1 0x40 MSTORE POP DUP2 ADD SWAP1 PUSH2 0xB59 SWAP2 SWAP1 PUSH2 0x130A JUMP JUMPDEST PUSH1 0x2 DUP1 SLOAD PUSH1 0xFF PUSH1 0xA0 SHL NOT AND PUSH1 0x1 PUSH1 0xA0 SHL SWAP3 ISZERO ISZERO DUP4 MUL OR SWAP1 DUP2 SWAP1 SSTORE PUSH1 0x40 MLOAD PUSH1 0xFF SWAP3 SWAP1 SWAP2 DIV SWAP2 SWAP1 SWAP2 AND ISZERO ISZERO DUP2 MSTORE PUSH32 0x40A36E95E1165E03B5C30095CD9D1E9FA9D8AA98D06AA1D6432A77718C0B68F0 SWAP1 PUSH1 0x20 ADD PUSH2 0xAD9 JUMP JUMPDEST PUSH1 0x1 SLOAD PUSH1 0x1 PUSH1 0x1 PUSH1 0xA0 SHL SUB AND CALLER EQ PUSH2 0xBD9 JUMPI PUSH1 0x40 MLOAD PUSH4 0x47556579 PUSH1 0xE0 SHL DUP2 MSTORE PUSH1 0x4 ADD PUSH1 0x40 MLOAD DUP1 SWAP2 SUB SWAP1 REVERT JUMPDEST PUSH1 0x0 SLOAD PUSH1 0x1 PUSH1 0x1 PUSH1 0xA0 SHL SUB AND ISZERO PUSH2 0xC32 JUMPI PUSH1 0x40 MLOAD PUSH3 0x461BCD PUSH1 0xE5 SHL DUP2 MSTORE PUSH1 0x20 PUSH1 0x4 DUP3 ADD MSTORE PUSH1 0x1A PUSH1 0x24 DUP3 ADD MSTORE PUSH32 0x496E64657820746F6B656E20616C726561647920657869737473000000000000 PUSH1 0x44 DUP3 ADD MSTORE PUSH1 0x64 ADD PUSH2 0x4ED JUMP JUMPDEST PUSH1 0x40 DUP1 MLOAD PUSH1 0x1 DUP1 DUP3 MSTORE DUP2 DUP4 ADD SWAP1 SWAP3 MSTORE PUSH1 0x0 SWAP2 PUSH1 0x20 DUP1 DUP4 ADD SWAP1 DUP1 CALLDATASIZE DUP4 CALLDATACOPY POP POP PUSH1 0x1 SLOAD DUP3 MLOAD SWAP3 SWAP4 POP PUSH1 0x1 PUSH1 0x1 PUSH1 0xA0 SHL SUB AND SWAP2 DUP4 SWAP2 POP PUSH1 0x0 SWAP1 PUSH2 0xC74 JUMPI PUSH2 0xC74 PUSH2 0x15E6 JUMP JUMPDEST PUSH1 0x1 PUSH1 0x1 PUSH1 0xA0 SHL SUB SWAP3 SWAP1 SWAP3 AND PUSH1 0x20 SWAP3 DUP4 MUL SWAP2 SWAP1 SWAP2 ADD SWAP1 SWAP2 ADD MSTORE PUSH1 0x40 DUP1 MLOAD PUSH1 0x1 DUP1 DUP3 MSTORE DUP2 DUP4 ADD SWAP1 SWAP3 MSTORE PUSH1 0x0 SWAP2 DUP2 PUSH1 0x20 ADD PUSH1 0x20 DUP3 MUL DUP1 CALLDATASIZE DUP4 CALLDATACOPY ADD SWAP1 POP POP SWAP1 POP ADDRESS DUP2 PUSH1 0x0 DUP2 MLOAD DUP2 LT PUSH2 0xCC5 JUMPI PUSH2 0xCC5 PUSH2 0x15E6 JUMP JUMPDEST PUSH1 0x1 PUSH1 0x1 PUSH1 0xA0 SHL SUB SWAP3 SWAP1 SWAP3 AND PUSH1 0x20 SWAP3 DUP4 MUL SWAP2 SWAP1 SWAP2 ADD DUP3 ADD MSTORE PUSH1 0x40 DUP1 MLOAD PUSH1 0x0 DUP1 DUP3 MSTORE PUSH2 0x1E0 PUSH1 0x1F DUP13 ADD DUP6 SWAP1 DIV DUP6 MUL DUP4 ADD DUP2 ADD SWAP1 SWAP4 MSTORE PUSH2 0x1C0 DUP3 ADD DUP12 DUP2 MSTORE SWAP2 SWAP4 SWAP1 SWAP3 SWAP1 DUP5 ADD SWAP2 DUP3 SWAP2 DUP14 SWAP1 DUP14 SWAP1 DUP2 SWAP1 DUP9 ADD DUP4 DUP3 DUP1 DUP3 DUP5 CALLDATACOPY PUSH1 0x0 SWAP3 ADD SWAP2 SWAP1 SWAP2 MSTORE POP POP POP SWAP1 DUP3 MSTORE POP PUSH1 0x40 DUP1 MLOAD PUSH1 0x20 PUSH1 0x1F DUP13 ADD DUP2 SWAP1 DIV DUP2 MUL DUP3 ADD DUP2 ADD SWAP1 SWAP3 MSTORE DUP11 DUP2 MSTORE SWAP2 DUP2 ADD SWAP2 SWAP1 DUP12 SWAP1 DUP12 SWAP1 DUP2 SWAP1 DUP5 ADD DUP4 DUP3 DUP1 DUP3 DUP5 CALLDATACOPY PUSH1 0x0 SWAP3 ADD SWAP2 SWAP1 SWAP2 MSTORE POP POP POP SWAP1 DUP3 MSTORE POP PUSH1 0x2 SLOAD PUSH1 0x1 PUSH1 0x1 PUSH1 0xA0 SHL SUB AND PUSH1 0x20 DUP1 DUP4 ADD SWAP2 SWAP1 SWAP2 MSTORE PUSH1 0x40 DUP1 MLOAD PUSH1 0x1F DUP11 ADD DUP4 SWAP1 DIV DUP4 MUL DUP2 ADD DUP4 ADD DUP3 MSTORE DUP10 DUP2 MSTORE SWAP3 ADD SWAP2 SWAP1 DUP10 SWAP1 DUP10 SWAP1 DUP2 SWAP1 DUP5 ADD DUP4 DUP3 DUP1 DUP3 DUP5 CALLDATACOPY PUSH1 0x0 SWAP3 ADD DUP3 SWAP1 MSTORE POP SWAP4 DUP6 MSTORE POP POP PUSH1 0x1 PUSH1 0x20 DUP5 ADD MSTORE POP PUSH1 0x40 DUP1 DUP4 ADD DUP3 SWAP1 MSTORE PUSH1 0x60 DUP1 DUP5 ADD DUP4 SWAP1 MSTORE PUSH1 0x80 DUP5 ADD DUP8 SWAP1 MSTORE PUSH1 0xA0 DUP5 ADD DUP8 SWAP1 MSTORE PUSH1 0xC0 DUP5 ADD DUP9 SWAP1 MSTORE PUSH1 0xE0 DUP5 ADD DUP10 SWAP1 MSTORE PUSH2 0x100 DUP5 ADD DUP8 SWAP1 MSTORE PUSH1 0x8 PUSH2 0x120 SWAP1 SWAP5 ADD SWAP4 SWAP1 SWAP4 MSTORE DUP1 MLOAD PUSH1 0x2 DUP1 DUP3 MSTORE SWAP4 DUP2 ADD SWAP1 SWAP2 MSTORE SWAP3 SWAP4 POP SWAP2 SWAP1 DUP2 PUSH1 0x20 ADD PUSH1 0x20 DUP3 MUL DUP1 CALLDATASIZE DUP4 CALLDATACOPY ADD SWAP1 POP POP SWAP1 POP PUSH1 0x1 DUP2 PUSH1 0x0 DUP2 MLOAD DUP2 LT PUSH2 0xE2E JUMPI PUSH2 0xE2E PUSH2 0x15E6 JUMP JUMPDEST PUSH1 0x20 MUL PUSH1 0x20 ADD ADD SWAP1 PUSH1 0xFF AND SWAP1 DUP2 PUSH1 0xFF AND DUP2 MSTORE POP POP PUSH1 0x4 DUP2 PUSH1 0x1 DUP2 MLOAD DUP2 LT PUSH2 0xE57 JUMPI PUSH2 0xE57 PUSH2 0x15E6 JUMP JUMPDEST PUSH1 0xFF SWAP3 SWAP1 SWAP3 AND PUSH1 0x20 SWAP3 DUP4 MUL SWAP2 SWAP1 SWAP2 ADD DUP3 ADD MSTORE PUSH1 0x40 DUP1 MLOAD PUSH1 0x2 DUP1 DUP3 MSTORE PUSH1 0x60 DUP3 ADD DUP4 MSTORE PUSH1 0x0 SWAP4 SWAP2 SWAP3 SWAP1 SWAP2 DUP4 ADD SWAP1 DUP1 CALLDATASIZE DUP4 CALLDATACOPY POP POP PUSH1 0x1 SLOAD DUP3 MLOAD SWAP3 SWAP4 POP PUSH1 0x1 PUSH1 0x1 PUSH1 0xA0 SHL SUB AND SWAP2 DUP4 SWAP2 POP PUSH1 0x0 SWAP1 PUSH2 0xEAC JUMPI PUSH2 0xEAC PUSH2 0x15E6 JUMP JUMPDEST PUSH1 0x20 MUL PUSH1 0x20 ADD ADD SWAP1 PUSH1 0x1 PUSH1 0x1 PUSH1 0xA0 SHL SUB AND SWAP1 DUP2 PUSH1 0x1 PUSH1 0x1 PUSH1 0xA0 SHL SUB AND DUP2 MSTORE POP POP ADDRESS DUP2 PUSH1 0x1 DUP2 MLOAD DUP2 LT PUSH2 0xEE0 JUMPI PUSH2 0xEE0 PUSH2 0x15E6 JUMP JUMPDEST PUSH1 0x1 PUSH1 0x1 PUSH1 0xA0 SHL SUB SWAP3 DUP4 AND PUSH1 0x20 SWAP2 DUP3 MUL SWAP3 SWAP1 SWAP3 ADD ADD MSTORE PUSH1 0x3 SLOAD PUSH1 0x40 MLOAD PUSH3 0xDB1065 PUSH1 0xE1 SHL DUP2 MSTORE PUSH1 0x0 SWAP3 DUP4 SWAP3 AND SWAP1 PUSH4 0x1B620CA SWAP1 DUP4 SWAP1 PUSH2 0xF28 SWAP1 DUP10 SWAP1 DUP4 SWAP1 DUP11 SWAP1 DUP11 SWAP1 PUSH1 0x4 ADD PUSH2 0x162F JUMP JUMPDEST PUSH1 0x40 DUP1 MLOAD DUP1 DUP4 SUB DUP2 DUP6 DUP9 GAS CALL ISZERO DUP1 ISZERO PUSH2 0xF45 JUMPI RETURNDATASIZE PUSH1 0x0 DUP1 RETURNDATACOPY RETURNDATASIZE PUSH1 0x0 REVERT JUMPDEST POP POP POP POP POP PUSH1 0x40 MLOAD RETURNDATASIZE PUSH1 0x1F NOT PUSH1 0x1F DUP3 ADD AND DUP3 ADD DUP1 PUSH1 0x40 MSTORE POP DUP2 ADD SWAP1 PUSH2 0xF6A SWAP2 SWAP1 PUSH2 0x17D8 JUMP JUMPDEST SWAP2 POP SWAP2 POP DUP2 PUSH1 0x7 SIGNEXTEND PUSH1 0x0 EQ PUSH2 0xF97 JUMPI PUSH1 0x40 MLOAD PUSH3 0x2A27BF PUSH1 0xE0 SHL DUP2 MSTORE PUSH1 0x7 DUP4 SWAP1 SIGNEXTEND PUSH1 0x4 DUP3 ADD MSTORE PUSH1 0x24 ADD PUSH2 0x4ED JUMP JUMPDEST PUSH1 0x0 DUP1 SLOAD PUSH1 0x1 PUSH1 0x1 PUSH1 0xA0 SHL SUB NOT AND PUSH1 0x1 PUSH1 0x1 PUSH1 0xA0 SHL SUB DUP4 DUP2 AND SWAP2 DUP3 OR DUP4 SSTORE PUSH1 0x3 SLOAD PUSH1 0x40 MLOAD PUSH4 0x248A35EF PUSH1 0xE1 SHL DUP2 MSTORE ADDRESS PUSH1 0x4 DUP3 ADD MSTORE PUSH1 0x24 DUP2 ADD SWAP4 SWAP1 SWAP4 MSTORE AND SWAP1 PUSH4 0x49146BDE SWAP1 PUSH1 0x44 ADD PUSH1 0x20 PUSH1 0x40 MLOAD DUP1 DUP4 SUB DUP2 PUSH1 0x0 DUP8 GAS CALL ISZERO DUP1 ISZERO PUSH2 0xFFD JUMPI RETURNDATASIZE PUSH1 0x0 DUP1 RETURNDATACOPY RETURNDATASIZE PUSH1 0x0 REVERT JUMPDEST POP POP POP POP PUSH1 0x40 MLOAD RETURNDATASIZE PUSH1 0x1F NOT PUSH1 0x1F DUP3 ADD AND DUP3 ADD DUP1 PUSH1 0x40 MSTORE POP DUP2 ADD SWAP1 PUSH2 0x1021 SWAP2 SWAP1 PUSH2 0x1413 JUMP JUMPDEST PUSH1 0x2 SLOAD PUSH1 0x40 MLOAD PUSH4 0xB82A35C5 PUSH1 0xE0 SHL DUP2 MSTORE PUSH1 0x1 PUSH1 0x1 PUSH1 0xA0 SHL SUB DUP6 DUP2 AND PUSH1 0x4 DUP4 ADD MSTORE SWAP3 SWAP4 POP SWAP2 AND SWAP1 PUSH4 0xB82A35C5 SWAP1 PUSH1 0x24 ADD PUSH1 0x0 PUSH1 0x40 MLOAD DUP1 DUP4 SUB DUP2 PUSH1 0x0 DUP8 DUP1 EXTCODESIZE ISZERO DUP1 ISZERO PUSH2 0x106A JUMPI PUSH1 0x0 DUP1 REVERT JUMPDEST POP GAS CALL ISZERO DUP1 ISZERO PUSH2 0x107E JUMPI RETURNDATASIZE PUSH1 0x0 DUP1 RETURNDATACOPY RETURNDATASIZE PUSH1 0x0 REVERT JUMPDEST POP POP POP POP PUSH2 0x108A PUSH2 0xA8F JUMP JUMPDEST PUSH1 0x40 DUP1 MLOAD PUSH1 0x1 PUSH1 0x1 PUSH1 0xA0 SHL SUB DUP5 AND DUP2 MSTORE PUSH1 0x7 DUP6 SWAP1 SIGNEXTEND PUSH1 0x20 DUP3 ADD MSTORE PUSH32 0x6EAC19C9A21D5E9D36083852C56740284F5B210EFEE80C1CD2527B3D4C58FCF6 SWAP2 ADD PUSH1 0x40 MLOAD DUP1 SWAP2 SUB SWAP1 LOG1 POP POP POP POP POP POP POP POP POP POP POP POP POP POP POP JUMP JUMPDEST DUP1 ISZERO ISZERO DUP2 EQ PUSH2 0x10EE JUMPI PUSH1 0x0 DUP1 REVERT JUMPDEST POP JUMP JUMPDEST PUSH1 0x0 PUSH1 0x20 DUP3 DUP5 SUB SLT ISZERO PUSH2 0x1103 JUMPI PUSH1 0x0 DUP1 REVERT JUMPDEST DUP2 CALLDATALOAD PUSH2 0x110E DUP2 PUSH2 0x10E0 JUMP JUMPDEST SWAP4 SWAP3 POP POP POP JUMP JUMPDEST PUSH1 0x1 PUSH1 0x1 PUSH1 0xA0 SHL SUB DUP2 AND DUP2 EQ PUSH2 0x10EE JUMPI PUSH1 0x0 DUP1 REVERT JUMPDEST PUSH1 0x0 DUP1 PUSH1 0x40 DUP4 DUP6 SUB SLT ISZERO PUSH2 0x113D JUMPI PUSH1 0x0 DUP1 REVERT JUMPDEST DUP3 CALLDATALOAD PUSH2 0x1148 DUP2 PUSH2 0x1115 JUMP JUMPDEST SWAP5 PUSH1 0x20 SWAP4 SWAP1 SWAP4 ADD CALLDATALOAD SWAP4 POP POP POP JUMP JUMPDEST PUSH1 0x0 PUSH1 0x20 DUP3 DUP5 SUB SLT ISZERO PUSH2 0x1168 JUMPI PUSH1 0x0 DUP1 REVERT JUMPDEST DUP2 CALLDATALOAD PUSH2 0x110E DUP2 PUSH2 0x1115 JUMP JUMPDEST PUSH1 0x0 PUSH1 0x20 DUP3 DUP5 SUB SLT ISZERO PUSH2 0x1185 JUMPI PUSH1 0x0 DUP1 REVERT JUMPDEST POP CALLDATALOAD SWAP2 SWAP1 POP JUMP JUMPDEST PUSH1 0x0 DUP2 MLOAD DUP1 DUP5 MSTORE PUSH1 0x20 DUP1 DUP6 ADD SWAP5 POP DUP1 DUP5 ADD PUSH1 0x0 JUMPDEST DUP4 DUP2 LT ISZERO PUSH2 0x11C5 JUMPI DUP2 MLOAD PUSH1 0x1 PUSH1 0x1 PUSH1 0xA0 SHL SUB AND DUP8 MSTORE SWAP6 DUP3 ADD SWAP6 SWAP1 DUP3 ADD SWAP1 PUSH1 0x1 ADD PUSH2 0x11A0 JUMP JUMPDEST POP SWAP5 SWAP6 SWAP5 POP POP POP POP POP JUMP JUMPDEST PUSH1 0x40 DUP2 MSTORE PUSH1 0x0 PUSH2 0x11E3 PUSH1 0x40 DUP4 ADD DUP6 PUSH2 0x118C JUMP JUMPDEST DUP3 DUP2 SUB PUSH1 0x20 DUP5 DUP2 ADD SWAP2 SWAP1 SWAP2 MSTORE DUP5 MLOAD DUP1 DUP4 MSTORE DUP6 DUP3 ADD SWAP3 DUP3 ADD SWAP1 PUSH1 0x0 JUMPDEST DUP2 DUP2 LT ISZERO PUSH2 0x121A JUMPI DUP5 MLOAD DUP4 MSTORE SWAP4 DUP4 ADD SWAP4 SWAP2 DUP4 ADD SWAP2 PUSH1 0x1 ADD PUSH2 0x11FE JUMP JUMPDEST POP SWAP1 SWAP8 SWAP7 POP POP POP POP POP POP POP JUMP JUMPDEST PUSH1 0x0 DUP1 DUP4 PUSH1 0x1F DUP5 ADD SLT PUSH2 0x1239 JUMPI PUSH1 0x0 DUP1 REVERT JUMPDEST POP DUP2 CALLDATALOAD PUSH8 0xFFFFFFFFFFFFFFFF DUP2 GT ISZERO PUSH2 0x1251 JUMPI PUSH1 0x0 DUP1 REVERT JUMPDEST PUSH1 0x20 DUP4 ADD SWAP2 POP DUP4 PUSH1 0x20 DUP3 DUP6 ADD ADD GT ISZERO PUSH2 0x1269 JUMPI PUSH1 0x0 DUP1 REVERT JUMPDEST SWAP3 POP SWAP3 SWAP1 POP JUMP JUMPDEST PUSH1 0x0 DUP1 PUSH1 0x0 DUP1 PUSH1 0x0 DUP1 PUSH1 0x60 DUP8 DUP10 SUB SLT ISZERO PUSH2 0x1289 JUMPI PUSH1 0x0 DUP1 REVERT JUMPDEST DUP7 CALLDATALOAD PUSH8 0xFFFFFFFFFFFFFFFF DUP1 DUP3 GT ISZERO PUSH2 0x12A1 JUMPI PUSH1 0x0 DUP1 REVERT JUMPDEST PUSH2 0x12AD DUP11 DUP4 DUP12 ADD PUSH2 0x1227 JUMP JUMPDEST SWAP1 SWAP9 POP SWAP7 POP PUSH1 0x20 DUP10 ADD CALLDATALOAD SWAP2 POP DUP1 DUP3 GT ISZERO PUSH2 0x12C6 JUMPI PUSH1 0x0 DUP1 REVERT JUMPDEST PUSH2 0x12D2 DUP11 DUP4 DUP12 ADD PUSH2 0x1227 JUMP JUMPDEST SWAP1 SWAP7 POP SWAP5 POP PUSH1 0x40 DUP10 ADD CALLDATALOAD SWAP2 POP DUP1 DUP3 GT ISZERO PUSH2 0x12EB JUMPI PUSH1 0x0 DUP1 REVERT JUMPDEST POP PUSH2 0x12F8 DUP10 DUP3 DUP11 ADD PUSH2 0x1227 JUMP JUMPDEST SWAP8 SWAP11 SWAP7 SWAP10 POP SWAP5 SWAP8 POP SWAP3 SWAP6 SWAP4 SWAP5 SWAP3 POP POP POP JUMP JUMPDEST PUSH1 0x0 PUSH1 0x20 DUP3 DUP5 SUB SLT ISZERO PUSH2 0x131C JUMPI PUSH1 0x0 DUP1 REVERT JUMPDEST DUP2 MLOAD PUSH2 0x110E DUP2 PUSH2 0x10E0 JUMP JUMPDEST PUSH4 0x4E487B71 PUSH1 0xE0 SHL PUSH1 0x0 MSTORE PUSH1 0x41 PUSH1 0x4 MSTORE PUSH1 0x24 PUSH1 0x0 REVERT JUMPDEST PUSH1 0x0 DUP2 MLOAD DUP1 DUP5 MSTORE PUSH1 0x0 JUMPDEST DUP2 DUP2 LT ISZERO PUSH2 0x1363 JUMPI PUSH1 0x20 DUP2 DUP6 ADD DUP2 ADD MLOAD DUP7 DUP4 ADD DUP3 ADD MSTORE ADD PUSH2 0x1347 JUMP JUMPDEST POP PUSH1 0x0 PUSH1 0x20 DUP3 DUP7 ADD ADD MSTORE PUSH1 0x20 PUSH1 0x1F NOT PUSH1 0x1F DUP4 ADD AND DUP6 ADD ADD SWAP2 POP POP SWAP3 SWAP2 POP POP JUMP JUMPDEST PUSH1 0x0 PUSH1 0x60 DUP3 ADD PUSH1 0x1 DUP1 PUSH1 0xA0 SHL SUB DUP7 AND DUP4 MSTORE PUSH1 0x20 DUP6 DUP2 DUP6 ADD MSTORE PUSH1 0x60 PUSH1 0x40 DUP6 ADD MSTORE DUP2 DUP6 MLOAD DUP1 DUP5 MSTORE PUSH1 0x80 DUP7 ADD SWAP2 POP PUSH1 0x80 DUP2 PUSH1 0x5 SHL DUP8 ADD ADD SWAP4 POP DUP3 DUP8 ADD PUSH1 0x0 JUMPDEST DUP3 DUP2 LT ISZERO PUSH2 0x13ED JUMPI PUSH1 0x7F NOT DUP9 DUP8 SUB ADD DUP5 MSTORE PUSH2 0x13DB DUP7 DUP4 MLOAD PUSH2 0x133D JUMP JUMPDEST SWAP6 POP SWAP3 DUP5 ADD SWAP3 SWAP1 DUP5 ADD SWAP1 PUSH1 0x1 ADD PUSH2 0x13BF JUMP JUMPDEST POP SWAP4 SWAP10 SWAP9 POP POP POP POP POP POP POP POP POP JUMP JUMPDEST DUP1 MLOAD PUSH1 0x7 DUP2 SWAP1 SIGNEXTEND DUP2 EQ PUSH2 0x140E JUMPI PUSH1 0x0 DUP1 REVERT JUMPDEST SWAP2 SWAP1 POP JUMP JUMPDEST PUSH1 0x0 PUSH1 0x20 DUP3 DUP5 SUB SLT ISZERO PUSH2 0x1425 JUMPI PUSH1 0x0 DUP1 REVERT JUMPDEST PUSH2 0x110E DUP3 PUSH2 0x13FC JUMP JUMPDEST PUSH1 0x1 DUP1 PUSH1 0xA0 SHL SUB DUP5 AND DUP2 MSTORE DUP3 PUSH1 0x7 SIGNEXTEND PUSH1 0x20 DUP3 ADD MSTORE PUSH1 0x60 PUSH1 0x40 DUP3 ADD MSTORE PUSH1 0x0 PUSH2 0x1458 PUSH1 0x60 DUP4 ADD DUP5 PUSH2 0x133D JUMP JUMPDEST SWAP6 SWAP5 POP POP POP POP POP JUMP JUMPDEST PUSH1 0x40 MLOAD PUSH1 0x1F DUP3 ADD PUSH1 0x1F NOT AND DUP2 ADD PUSH8 0xFFFFFFFFFFFFFFFF DUP2 GT DUP3 DUP3 LT OR ISZERO PUSH2 0x148A JUMPI PUSH2 0x148A PUSH2 0x1327 JUMP JUMPDEST PUSH1 0x40 MSTORE SWAP2 SWAP1 POP JUMP JUMPDEST PUSH1 0x0 PUSH8 0xFFFFFFFFFFFFFFFF DUP3 GT ISZERO PUSH2 0x14AC JUMPI PUSH2 0x14AC PUSH2 0x1327 JUMP JUMPDEST POP PUSH1 0x5 SHL PUSH1 0x20 ADD SWAP1 JUMP JUMPDEST PUSH1 0x0 DUP3 PUSH1 0x1F DUP4 ADD SLT PUSH2 0x14C7 JUMPI PUSH1 0x0 DUP1 REVERT JUMPDEST DUP2 MLOAD PUSH1 0x20 PUSH2 0x14DC PUSH2 0x14D7 DUP4 PUSH2 0x1492 JUMP JUMPDEST PUSH2 0x1461 JUMP JUMPDEST DUP3 DUP2 MSTORE PUSH1 0x5 SWAP3 SWAP1 SWAP3 SHL DUP5 ADD DUP2 ADD SWAP2 DUP2 DUP2 ADD SWAP1 DUP7 DUP5 GT ISZERO PUSH2 0x14FB JUMPI PUSH1 0x0 DUP1 REVERT JUMPDEST DUP3 DUP7 ADD JUMPDEST DUP5 DUP2 LT ISZERO PUSH2 0x1516 JUMPI DUP1 MLOAD DUP4 MSTORE SWAP2 DUP4 ADD SWAP2 DUP4 ADD PUSH2 0x14FF JUMP JUMPDEST POP SWAP7 SWAP6 POP POP POP POP POP POP JUMP JUMPDEST PUSH1 0x0 DUP1 PUSH1 0x40 DUP4 DUP6 SUB SLT ISZERO PUSH2 0x1534 JUMPI PUSH1 0x0 DUP1 REVERT JUMPDEST DUP3 MLOAD PUSH8 0xFFFFFFFFFFFFFFFF DUP1 DUP3 GT ISZERO PUSH2 0x154C JUMPI PUSH1 0x0 DUP1 REVERT JUMPDEST DUP2 DUP6 ADD SWAP2 POP DUP6 PUSH1 0x1F DUP4 ADD SLT PUSH2 0x1560 JUMPI PUSH1 0x0 DUP1 REVERT JUMPDEST DUP2 MLOAD PUSH1 0x20 PUSH2 0x1570 PUSH2 0x14D7 DUP4 PUSH2 0x1492 JUMP JUMPDEST DUP3 DUP2 MSTORE PUSH1 0x5 SWAP3 SWAP1 SWAP3 SHL DUP5 ADD DUP2 ADD SWAP2 DUP2 DUP2 ADD SWAP1 DUP10 DUP5 GT ISZERO PUSH2 0x158F JUMPI PUSH1 0x0 DUP1 REVERT JUMPDEST SWAP5 DUP3 ADD SWAP5 JUMPDEST DUP4 DUP7 LT ISZERO PUSH2 0x15B6 JUMPI DUP6 MLOAD PUSH2 0x15A7 DUP2 PUSH2 0x1115 JUMP JUMPDEST DUP3 MSTORE SWAP5 DUP3 ADD SWAP5 SWAP1 DUP3 ADD SWAP1 PUSH2 0x1594 JUMP JUMPDEST SWAP2 DUP9 ADD MLOAD SWAP2 SWAP7 POP SWAP1 SWAP4 POP POP POP DUP1 DUP3 GT ISZERO PUSH2 0x15CF JUMPI PUSH1 0x0 DUP1 REVERT JUMPDEST POP PUSH2 0x15DC DUP6 DUP3 DUP7 ADD PUSH2 0x14B6 JUMP JUMPDEST SWAP2 POP POP SWAP3 POP SWAP3 SWAP1 POP JUMP JUMPDEST PUSH4 0x4E487B71 PUSH1 0xE0 SHL PUSH1 0x0 MSTORE PUSH1 0x32 PUSH1 0x4 MSTORE PUSH1 0x24 PUSH1 0x0 REVERT JUMPDEST PUSH1 0x0 DUP2 MLOAD DUP1 DUP5 MSTORE PUSH1 0x20 DUP1 DUP6 ADD SWAP5 POP DUP1 DUP5 ADD PUSH1 0x0 JUMPDEST DUP4 DUP2 LT ISZERO PUSH2 0x11C5 JUMPI DUP2 MLOAD PUSH1 0xFF AND DUP8 MSTORE SWAP6 DUP3 ADD SWAP6 SWAP1 DUP3 ADD SWAP1 PUSH1 0x1 ADD PUSH2 0x1610 JUMP JUMPDEST PUSH1 0x80 DUP2 MSTORE PUSH1 0x0 DUP6 MLOAD PUSH2 0x1A0 DUP1 PUSH1 0x80 DUP6 ADD MSTORE PUSH2 0x164E PUSH2 0x220 DUP6 ADD DUP4 PUSH2 0x133D JUMP JUMPDEST SWAP2 POP PUSH1 0x20 DUP9 ADD MLOAD PUSH1 0x7F NOT DUP1 DUP7 DUP6 SUB ADD PUSH1 0xA0 DUP8 ADD MSTORE PUSH2 0x166C DUP5 DUP4 PUSH2 0x133D JUMP JUMPDEST SWAP4 POP PUSH1 0x40 DUP11 ADD MLOAD SWAP2 POP PUSH2 0x168A PUSH1 0xC0 DUP8 ADD DUP4 PUSH1 0x1 PUSH1 0x1 PUSH1 0xA0 SHL SUB AND SWAP1 MSTORE JUMP JUMPDEST PUSH1 0x60 DUP11 ADD MLOAD SWAP2 POP DUP1 DUP7 DUP6 SUB ADD PUSH1 0xE0 DUP8 ADD MSTORE PUSH2 0x16A5 DUP5 DUP4 PUSH2 0x133D JUMP JUMPDEST SWAP4 POP PUSH1 0x80 DUP11 ADD MLOAD SWAP2 POP PUSH2 0x100 PUSH2 0x16BE DUP2 DUP9 ADD DUP5 ISZERO ISZERO SWAP1 MSTORE JUMP JUMPDEST PUSH1 0xA0 DUP12 ADD MLOAD SWAP3 POP PUSH2 0x120 PUSH2 0x16D9 DUP2 DUP10 ADD DUP6 PUSH4 0xFFFFFFFF AND SWAP1 MSTORE JUMP JUMPDEST PUSH1 0xC0 DUP13 ADD MLOAD SWAP4 POP PUSH2 0x140 PUSH2 0x16F0 DUP2 DUP11 ADD DUP7 ISZERO ISZERO SWAP1 MSTORE JUMP JUMPDEST PUSH1 0xE0 DUP14 ADD MLOAD SWAP5 POP PUSH2 0x160 DUP5 DUP11 DUP10 SUB ADD DUP2 DUP12 ADD MSTORE PUSH2 0x170D DUP9 DUP8 PUSH2 0x118C JUMP JUMPDEST SWAP8 POP DUP4 DUP15 ADD MLOAD SWAP6 POP PUSH2 0x180 SWAP4 POP DUP5 DUP11 DUP10 SUB ADD DUP5 DUP12 ADD MSTORE PUSH2 0x172D DUP9 DUP8 PUSH2 0x118C JUMP JUMPDEST SWAP8 POP DUP3 DUP15 ADD MLOAD SWAP6 POP DUP5 DUP11 DUP10 SUB ADD DUP8 DUP12 ADD MSTORE PUSH2 0x1748 DUP9 DUP8 PUSH2 0x118C JUMP JUMPDEST SWAP8 POP DUP2 DUP15 ADD MLOAD SWAP7 POP DUP5 DUP11 DUP10 SUB ADD PUSH2 0x1C0 DUP12 ADD MSTORE PUSH2 0x1765 DUP9 DUP9 PUSH2 0x118C JUMP JUMPDEST SWAP8 POP DUP1 DUP15 ADD MLOAD SWAP7 POP POP POP POP DUP2 DUP8 DUP7 SUB ADD PUSH2 0x1E0 DUP9 ADD MSTORE PUSH2 0x1785 DUP6 DUP6 PUSH2 0x118C JUMP JUMPDEST SWAP5 POP DUP1 DUP12 ADD MLOAD SWAP4 POP POP POP POP PUSH2 0x17A0 PUSH2 0x200 DUP6 ADD DUP3 PUSH1 0xFF AND SWAP1 MSTORE JUMP JUMPDEST POP DUP6 PUSH1 0x20 DUP5 ADD MSTORE DUP3 DUP2 SUB PUSH1 0x40 DUP5 ADD MSTORE PUSH2 0x17B9 DUP2 DUP7 PUSH2 0x15FC JUMP JUMPDEST SWAP1 POP DUP3 DUP2 SUB PUSH1 0x60 DUP5 ADD MSTORE PUSH2 0x17CD DUP2 DUP6 PUSH2 0x118C JUMP JUMPDEST SWAP8 SWAP7 POP POP POP POP POP POP POP JUMP JUMPDEST PUSH1 0x0 DUP1 PUSH1 0x40 DUP4 DUP6 SUB SLT ISZERO PUSH2 0x17EB JUMPI PUSH1 0x0 DUP1 REVERT JUMPDEST PUSH2 0x17F4 DUP4 PUSH2 0x13FC JUMP JUMPDEST SWAP2 POP PUSH1 0x20 DUP4 ADD MLOAD PUSH2 0x1804 DUP2 PUSH2 0x1115 JUMP JUMPDEST DUP1 SWAP2 POP POP SWAP3 POP SWAP3 SWAP1 POP JUMP INVALID LOG2 PUSH5 0x6970667358 0x22 SLT KECCAK256 0xEE PREVRANDAO 0xD2 MLOAD 0xB0 SWAP6 SWAP14 0x1E MOD PUSH1 0x38 0x23 CALLCODE DUP2 BYTE SWAP1 RETURN 0xD7 DUP10 EXTCODECOPY 0xA5 0xBF CALLDATASIZE SWAP3 PUSH19 0x138F173EFC8D6E64736F6C6343000812003300 "},"gasEstimates":{"creation":{"codeDepositCost":"1242600","executionCost":"infinite","totalCost":"infinite"},"external":{"ADMIN()":"2372","HTS_PRECOMPILE()":"250","INDEX_TOKEN()":"2415","IS_SUPPLY_TYPE_INFINITE()":"267","TOKEN_DECIMALS()":"293","TOKEN_MAX_SUPPLY()":"227","calculateRequiredDeposits(uint256)":"infinite","checkSupplyKey()":"infinite","createIndexToken(string,string,string)":"infinite","getTokenAddress()":"2333","hasSupplyKey()":"2395","mintTo(address,uint256)":"infinite","setIndexTokenId(address)":"infinite","setSupplyKeyStatus(bool)":"27853","setTokenService(address)":"26772","updateSupplyKeyStatus()":"infinite","vault()":"2436"}},"methodIdentifiers":{"ADMIN()":"2a0acc6a","HTS_PRECOMPILE()":"4543873d","INDEX_TOKEN()":"c11201f7","IS_SUPPLY_TYPE_INFINITE()":"e294204d","TOKEN_DECIMALS()":"5b7f415c","TOKEN_MAX_SUPPLY()":"8ee2c4b8","calculateRequiredDeposits(uint256)":"8f9f8b01","checkSupplyKey()":"de579bc9","createIndexToken(string,string,string)":"f76c4a74","getTokenAddress()":"10fe9ae8","hasSupplyKey()":"331a4c20","mintTo(address,uint256)":"449a52f8","setIndexTokenId(address)":"aa13e5f1","setSupplyKeyStatus(bool)":"335c3fe8","setTokenService(address)":"4bb3c9cf","updateSupplyKeyStatus()":"c2f4bfaf","vault()":"fbfa77cf"}},"storageLayout":{"storage":[{"astId":186,"contract":"app/contracts/IndexTokenController.sol:IndexTokenController","label":"INDEX_TOKEN","offset":0,"slot":"0","type":"t_address"},{"astId":188,"contract":"app/contracts/IndexTokenController.sol:IndexTokenController","label":"ADMIN","offset":0,"slot":"1","type":"t_address"},{"astId":191,"contract":"app/contracts/IndexTokenController.sol:IndexTokenController","label":"vault","offset":0,"slot":"2","type":"t_contract(IndexVault)1558"},{"astId":203,"contract":"app/contracts/IndexTokenController.sol:IndexTokenController","label":"hasSupplyKey","offset":20,"slot":"2","type":"t_bool"},{"astId":264,"contract":"app/contracts/IndexTokenController.sol:IndexTokenController","label":"hts","offset":0,"slot":"3","type":"t_contract(IHederaTokenService)1704"}],"types":{"t_address":{"encoding":"inplace","label":"address","numberOfBytes":"20"},"t_bool":{"encoding":"inplace","label":"bool","numberOfBytes":"1"},"t_contract(IHederaTokenService)1704":{"encoding":"inplace","label":"contract IHederaTokenService","numberOfBytes":"20"},"t_contract(IndexVault)1558":{"encoding":"inplace","label":"contract IndexVault","numberOfBytes":"20"}}},"userdoc":{"kind":"user","methods":{},"version":1}}}}