{"app/contracts/LynxMinter.sol":{"LynxMinter":{"abi":[{"inputs":[{"internalType":"address","name":"lynxToken","type":"address"},{"internalType":"address","name":"sauceToken","type":"address"},{"internalType":"address","name":"clxyToken","type":"address"},{"internalType":"address","name":"htsAddress","type":"address"}],"stateMutability":"nonpayable","type":"constructor"},{"inputs":[{"internalType":"uint256","name":"amount","type":"uint256"}],"name":"AmountTooLarge","type":"error"},{"inputs":[],"name":"HbarTransferFailed","type":"error"},{"inputs":[{"internalType":"address","name":"token","type":"address"},{"internalType":"int64","name":"responseCode","type":"int64"},{"internalType":"string","name":"message","type":"string"}],"name":"HtsError","type":"error"},{"inputs":[{"internalType":"uint256","name":"allowance","type":"uint256"},{"internalType":"uint256","name":"required","type":"uint256"}],"name":"InsufficientClxyAllowance","type":"error"},{"inputs":[{"internalType":"address","name":"token","type":"address"},{"internalType":"uint256","name":"balance","type":"uint256"},{"internalType":"uint256","name":"required","type":"uint256"}],"name":"InsufficientContractBalance","type":"error"},{"inputs":[{"internalType":"uint256","name":"allowance","type":"uint256"},{"internalType":"uint256","name":"required","type":"uint256"}],"name":"InsufficientLynxAllowance","type":"error"},{"inputs":[{"internalType":"uint256","name":"allowance","type":"uint256"},{"internalType":"uint256","name":"required","type":"uint256"}],"name":"InsufficientSauceAllowance","type":"error"},{"inputs":[],"name":"InvalidAmount","type":"error"},{"inputs":[{"internalType":"uint256","name":"sent","type":"uint256"},{"internalType":"uint256","name":"required","type":"uint256"}],"name":"MustSendExactHBAR","type":"error"},{"inputs":[],"name":"NoSupplyKeyForToken","type":"error"},{"inputs":[],"name":"OnlyAdmin","type":"error"},{"inputs":[{"internalType":"address","name":"token","type":"address"},{"internalType":"int64","name":"errorCode","type":"int64"}],"name":"TokenBurnFailed","type":"error"},{"inputs":[{"internalType":"int64","name":"errorCode","type":"int64"}],"name":"TokenCreationFailed","type":"error"},{"inputs":[{"internalType":"address","name":"token","type":"address"},{"internalType":"int64","name":"errorCode","type":"int64"}],"name":"TokenMintFailed","type":"error"},{"inputs":[{"internalType":"address","name":"token","type":"address"},{"internalType":"address","name":"account","type":"address"}],"name":"TokenNotAssociated","type":"error"},{"inputs":[{"internalType":"address","name":"token","type":"address"},{"internalType":"int64","name":"errorCode","type":"int64"}],"name":"TokenTransferFailed","type":"error"},{"anonymous":false,"inputs":[{"indexed":true,"internalType":"address","name":"user","type":"address"},{"indexed":false,"internalType":"uint256","name":"lynxAmount","type":"uint256"},{"indexed":false,"internalType":"uint256","name":"hbarAmount","type":"uint256"},{"indexed":false,"internalType":"uint256","name":"sauceAmount","type":"uint256"},{"indexed":false,"internalType":"uint256","name":"clxyAmount","type":"uint256"}],"name":"LynxBurned","type":"event"},{"anonymous":false,"inputs":[{"indexed":true,"internalType":"address","name":"user","type":"address"},{"indexed":false,"internalType":"uint256","name":"lynxAmount","type":"uint256"},{"indexed":false,"internalType":"uint256","name":"hbarAmount","type":"uint256"},{"indexed":false,"internalType":"uint256","name":"sauceAmount","type":"uint256"},{"indexed":false,"internalType":"uint256","name":"clxyAmount","type":"uint256"}],"name":"LynxMinted","type":"event"},{"anonymous":false,"inputs":[{"indexed":false,"internalType":"address","name":"tokenAddress","type":"address"},{"indexed":false,"internalType":"int64","name":"responseCode","type":"int64"}],"name":"LynxTokenCreated","type":"event"},{"anonymous":false,"inputs":[{"indexed":true,"internalType":"address","name":"tokenAddress","type":"address"}],"name":"LynxTokenSet","type":"event"},{"anonymous":false,"inputs":[{"indexed":false,"internalType":"uint256","name":"hbarRatio","type":"uint256"},{"indexed":false,"internalType":"uint256","name":"sauceRatio","type":"uint256"},{"indexed":false,"internalType":"uint256","name":"clxyRatio","type":"uint256"}],"name":"RatiosUpdated","type":"event"},{"anonymous":false,"inputs":[{"indexed":false,"internalType":"bool","name":"hasKey","type":"bool"}],"name":"SupplyKeyVerified","type":"event"},{"anonymous":false,"inputs":[{"indexed":false,"internalType":"address","name":"token","type":"address"},{"indexed":false,"internalType":"int64","name":"responseCode","type":"int64"}],"name":"TokensAssociated","type":"event"},{"stateMutability":"payable","type":"fallback"},{"inputs":[],"name":"ADMIN","outputs":[{"internalType":"address","name":"","type":"address"}],"stateMutability":"view","type":"function"},{"inputs":[],"name":"CLXY_RATIO","outputs":[{"internalType":"uint256","name":"","type":"uint256"}],"stateMutability":"view","type":"function"},{"inputs":[],"name":"CLXY_TOKEN","outputs":[{"internalType":"address","name":"","type":"address"}],"stateMutability":"view","type":"function"},{"inputs":[],"name":"HBAR_RATIO","outputs":[{"internalType":"uint256","name":"","type":"uint256"}],"stateMutability":"view","type":"function"},{"inputs":[],"name":"HTS_PRECOMPILE","outputs":[{"internalType":"address","name":"","type":"address"}],"stateMutability":"view","type":"function"},{"inputs":[],"name":"IS_SUPPLY_TYPE_INFINITE","outputs":[{"internalType":"bool","name":"","type":"bool"}],"stateMutability":"view","type":"function"},{"inputs":[],"name":"LYNX_TOKEN","outputs":[{"internalType":"address","name":"","type":"address"}],"stateMutability":"view","type":"function"},{"inputs":[],"name":"SAUCE_RATIO","outputs":[{"internalType":"uint256","name":"","type":"uint256"}],"stateMutability":"view","type":"function"},{"inputs":[],"name":"SAUCE_TOKEN","outputs":[{"internalType":"address","name":"","type":"address"}],"stateMutability":"view","type":"function"},{"inputs":[],"name":"TOKEN_DECIMALS","outputs":[{"internalType":"uint8","name":"","type":"uint8"}],"stateMutability":"view","type":"function"},{"inputs":[],"name":"TOKEN_MAX_SUPPLY","outputs":[{"internalType":"uint32","name":"","type":"uint32"}],"stateMutability":"view","type":"function"},{"inputs":[],"name":"associateTokens","outputs":[],"stateMutability":"nonpayable","type":"function"},{"inputs":[{"internalType":"uint256","name":"lynxAmount","type":"uint256"}],"name":"burn","outputs":[],"stateMutability":"nonpayable","type":"function"},{"inputs":[{"internalType":"uint256","name":"lynxAmount","type":"uint256"}],"name":"calculateRequiredCLXY","outputs":[{"internalType":"uint256","name":"","type":"uint256"}],"stateMutability":"view","type":"function"},{"inputs":[{"internalType":"uint256","name":"lynxAmount","type":"uint256"}],"name":"calculateRequiredHBAR","outputs":[{"internalType":"uint256","name":"","type":"uint256"}],"stateMutability":"view","type":"function"},{"inputs":[{"internalType":"uint256","name":"lynxAmount","type":"uint256"}],"name":"calculateRequiredSAUCE","outputs":[{"internalType":"uint256","name":"","type":"uint256"}],"stateMutability":"view","type":"function"},{"inputs":[{"internalType":"address","name":"user","type":"address"},{"internalType":"uint256","name":"lynxAmount","type":"uint256"}],"name":"checkAllowances","outputs":[{"internalType":"uint256","name":"sauceAllowance","type":"uint256"},{"internalType":"uint256","name":"clxyAllowance","type":"uint256"},{"internalType":"uint256","name":"sauceRequired","type":"uint256"},{"internalType":"uint256","name":"clxyRequired","type":"uint256"},{"internalType":"bool","name":"isSauceAllowanceSufficient","type":"bool"},{"internalType":"bool","name":"isClxyAllowanceSufficient","type":"bool"}],"stateMutability":"view","type":"function"},{"inputs":[],"name":"checkSupplyKey","outputs":[],"stateMutability":"nonpayable","type":"function"},{"inputs":[{"internalType":"string","name":"name","type":"string"},{"internalType":"string","name":"symbol","type":"string"},{"internalType":"string","name":"memo","type":"string"}],"name":"createLynxToken","outputs":[],"stateMutability":"nonpayable","type":"function"},{"inputs":[{"internalType":"address","name":"user","type":"address"}],"name":"debugAllowances","outputs":[{"internalType":"uint256","name":"sauceAllowance","type":"uint256"},{"internalType":"uint256","name":"clxyAllowance","type":"uint256"},{"internalType":"uint256","name":"lynxAllowance","type":"uint256"}],"stateMutability":"view","type":"function"},{"inputs":[],"name":"getClxyRatio","outputs":[{"internalType":"uint256","name":"","type":"uint256"}],"stateMutability":"view","type":"function"},{"inputs":[],"name":"getHbarRatio","outputs":[{"internalType":"uint256","name":"","type":"uint256"}],"stateMutability":"view","type":"function"},{"inputs":[],"name":"getSauceRatio","outputs":[{"internalType":"uint256","name":"","type":"uint256"}],"stateMutability":"view","type":"function"},{"inputs":[],"name":"getTokenAddresses","outputs":[{"internalType":"address","name":"lynxToken","type":"address"},{"internalType":"address","name":"sauceToken","type":"address"},{"internalType":"address","name":"clxyToken","type":"address"}],"stateMutability":"view","type":"function"},{"inputs":[],"name":"hasSupplyKey","outputs":[{"internalType":"bool","name":"","type":"bool"}],"stateMutability":"view","type":"function"},{"inputs":[{"internalType":"uint256","name":"lynxAmount","type":"uint256"}],"name":"mint","outputs":[],"stateMutability":"payable","type":"function"},{"inputs":[{"internalType":"address","name":"newLynxTokenAddress","type":"address"}],"name":"setLynxTokenId","outputs":[],"stateMutability":"nonpayable","type":"function"},{"inputs":[{"internalType":"bool","name":"status","type":"bool"}],"name":"setSupplyKeyStatus","outputs":[],"stateMutability":"nonpayable","type":"function"},{"inputs":[{"internalType":"address","name":"mockHts","type":"address"}],"name":"setTokenService","outputs":[],"stateMutability":"nonpayable","type":"function"},{"inputs":[{"internalType":"uint256","name":"lynxAmount","type":"uint256"}],"name":"testClxyAllowance","outputs":[],"stateMutability":"payable","type":"function"},{"inputs":[{"internalType":"uint256","name":"hbarRatio","type":"uint256"},{"internalType":"uint256","name":"sauceRatio","type":"uint256"},{"internalType":"uint256","name":"clxyRatio","type":"uint256"}],"name":"updateRatios","outputs":[],"stateMutability":"nonpayable","type":"function"},{"inputs":[],"name":"updateSupplyKeyStatus","outputs":[],"stateMutability":"nonpayable","type":"function"},{"stateMutability":"payable","type":"receive"}],"devdoc":{"kind":"dev","methods":{},"version":1},"evm":{"bytecode":{"linkReferences":{},"object":"6080604052600a600455606460055560326006556007805460ff191690553480156200002a57600080fd5b506040516200316a3803806200316a8339810160408190526200004d9162000195565b6001600160a01b0381161562000064578062000068565b6101675b60078054610100600160a81b0319166101006001600160a01b0393841602179055600080546001600160a01b0319908116878416908117909255600180548216878516179055600280548216938616939093179092556003805433931692909217909155156200016e57600754604051632e1a634560e11b81526001600160a01b03868116600483015230602483015261010090920490911690635c34c68a90604401602060405180830381865afa92505050801562000147575060408051601f3d908101601f191682019092526200014491810190620001f2565b60015b6200015c576007805460ff191690556200016e565b6007805460ff19169115159190911790555b505050506200021d565b80516001600160a01b03811681146200019057600080fd5b919050565b60008060008060808587031215620001ac57600080fd5b620001b78562000178565b9350620001c76020860162000178565b9250620001d76040860162000178565b9150620001e76060860162000178565b905092959194509250565b6000602082840312156200020557600080fd5b815180151581146200021657600080fd5b9392505050565b612f3d806200022d6000396000f3fe6080604052600436106101cf5760003560e01c8063739036b2116100f6578063b0e4fe4f1161008f578063e1e9957611610061578063e1e9957614610570578063e294204d14610590578063ee8c24b8146105a5578063ef037593146105d857005b8063b0e4fe4f146104d5578063c2f4bfaf14610526578063cab21a6a1461053b578063de579bc91461055b57005b80638ee2c4b8116100c85780638ee2c4b8146104635780639057bb4a1461048d57806392361927146104a2578063a0712d68146104c257005b8063739036b214610403578063853f51ad1461041857806385cb42d41461042d5780638d6be5401461044d57005b806342966c6811610168578063539e803f1161013a578063539e803f1461036e5780635b7f415c146103a95780636461e01a146103d0578063702c3c24146103f057005b806342966c68146102f45780634543873d146103145780634924190c1461032a5780634bb3c9cf1461034e57005b80632a0acc6a116101a15780632a0acc6a1461026a57806330d0a66c1461028a578063331a4c20146102aa578063335c3fe8146102d457005b806310ca0bce146101d85780631d12e296146101ed5780631da965c21461020d5780631ec65c361461024a57005b366101d657005b005b3480156101e457600080fd5b506101d66105ee565b3480156101f957600080fd5b506101d66102083660046128ef565b61084c565b34801561021957600080fd5b5060025461022d906001600160a01b031681565b6040516001600160a01b0390911681526020015b60405180910390f35b34801561025657600080fd5b5060015461022d906001600160a01b031681565b34801561027657600080fd5b5060035461022d906001600160a01b031681565b34801561029657600080fd5b506101d66102a5366004612989565b610d1a565b3480156102b657600080fd5b506007546102c49060ff1681565b6040519015158152602001610241565b3480156102e057600080fd5b506101d66102ef3660046129c6565b610d92565b34801561030057600080fd5b506101d661030f3660046129ea565b610e04565b34801561032057600080fd5b5061022d61016781565b34801561033657600080fd5b5061034060045481565b604051908152602001610241565b34801561035a57600080fd5b506101d6610369366004612a18565b6114b6565b34801561037a57600080fd5b5061038e610389366004612a18565b611509565b60408051938452602084019290925290820152606001610241565b3480156103b557600080fd5b506103be600881565b60405160ff9091168152602001610241565b3480156103dc57600080fd5b506103406103eb3660046129ea565b611696565b6101d66103fe3660046129ea565b6116ac565b34801561040f57600080fd5b50600454610340565b34801561042457600080fd5b50600654610340565b34801561043957600080fd5b506101d6610448366004612a18565b6117f2565b34801561045957600080fd5b5061034060065481565b34801561046f57600080fd5b50610478600081565b60405163ffffffff9091168152602001610241565b34801561049957600080fd5b50600554610340565b3480156104ae57600080fd5b506103406104bd3660046129ea565b61191f565b6101d66104d03660046129ea565b61192f565b3480156104e157600080fd5b506104f56104f0366004612a35565b61260f565b60408051968752602087019590955293850192909252606084015215156080830152151560a082015260c001610241565b34801561053257600080fd5b506101d661274e565b34801561054757600080fd5b506103406105563660046129ea565b612783565b34801561056757600080fd5b506101d6612793565b34801561057c57600080fd5b5060005461022d906001600160a01b031681565b34801561059c57600080fd5b506102c4600181565b3480156105b157600080fd5b50600054600154600254604051610241936001600160a01b03908116938116921690612a61565b3480156105e457600080fd5b5061034060055481565b6007546000805460405163248a35ef60e11b815291926001600160a01b036101009091048116926349146bde9261062c923092911690600401612a84565b6020604051808303816000875af115801561064b573d6000803e3d6000fd5b505050506040513d601f19601f8201168201806040525081019061066f9190612ab5565b6000546040519192507f6c452a6a0f6c8613bd46d4bd9a6192b0904a3f33a64c294ba553582502dfd770916106af916001600160a01b0316908490612ad0565b60405180910390a160075460015460405163248a35ef60e11b81526000926001600160a01b036101009091048116926349146bde926106f49230921690600401612a84565b6020604051808303816000875af1158015610713573d6000803e3d6000fd5b505050506040513d601f19601f820116820180604052508101906107379190612ab5565b6001546040519192507f6c452a6a0f6c8613bd46d4bd9a6192b0904a3f33a64c294ba553582502dfd77091610777916001600160a01b0316908490612ad0565b60405180910390a160075460025460405163248a35ef60e11b81526000926001600160a01b036101009091048116926349146bde926107bc9230921690600401612a84565b6020604051808303816000875af11580156107db573d6000803e3d6000fd5b505050506040513d601f19601f820116820180604052508101906107ff9190612ab5565b6002546040519192507f6c452a6a0f6c8613bd46d4bd9a6192b0904a3f33a64c294ba553582502dfd7709161083f916001600160a01b0316908490612ad0565b60405180910390a1505050565b6003546001600160a01b0316331461087757604051634755657960e01b815260040160405180910390fd5b6000546001600160a01b0316156108d55760405162461bcd60e51b815260206004820152601960248201527f4c594e5820746f6b656e20616c7265616479206578697374730000000000000060448201526064015b60405180910390fd5b60408051600180825281830190925260009160208083019080368337505060035482519293506001600160a01b03169183915060009061091757610917612aec565b6001600160a01b039290921660209283029190910190910152604080516001808252818301909252600091816020016020820280368337019050509050308160008151811061096857610968612aec565b6001600160a01b03929092166020928302919091018201526040805160008082526101e0601f8c018590048502830181019093526101c082018b8152919390929084019182918d908d9081908801838280828437600092019190915250505090825250604080516020601f8c018190048102820181019092528a815291810191908b908b90819084018382808284376000920191909152505050908252503060208083019190915260408051601f8a018390048302810183018252898152920191908990899081908401838280828437600092018290525093855250506001602084015250604080830182905260608084018390526080840187905260a0840187905260c0840188905260e084018990526101008401879052600861012090940193909352805160028082529381019091529293509190816020016020820280368337019050509050600181600081518110610ac657610ac6612aec565b602002602001019060ff16908160ff1681525050600481600181518110610aef57610aef612aec565b60ff929092166020928302919091018201526040805160028082526060820183526000939192909183019080368337505060035482519293506001600160a01b031691839150600090610b4457610b44612aec565b60200260200101906001600160a01b031690816001600160a01b0316815250503081600181518110610b7857610b78612aec565b6001600160a01b03928316602091820292909201015260075460405162db106560e11b81526000928392610100900416906301b620ca908390610bc590899083908a908a90600401612bbf565b604080518083038185885af1158015610be2573d6000803e3d6000fd5b50505050506040513d601f19601f82011682018060405250810190610c079190612d68565b915091508160070b600014610c3457604051622a27bf60e01b8152600783900b60048201526024016108cc565b600080546001600160a01b0319166001600160a01b0383811691909117825560075460405163248a35ef60e11b8152610100909104909116906349146bde90610c839030908690600401612a84565b6020604051808303816000875af1158015610ca2573d6000803e3d6000fd5b505050506040513d601f19601f82011682018060405250810190610cc69190612ab5565b9050610cd0612793565b7f3c6983beb442f69ab2bb278a324e9cc5184d0e8e3b8eacbd06dd6f157738420a8284604051610d01929190612ad0565b60405180910390a1505050505050505050505050505050565b6003546001600160a01b03163314610d4557604051634755657960e01b815260040160405180910390fd5b60048390556005829055600681905560408051848152602081018490529081018290527fe2f5c8588887234e6a368ca64e432b81b636580fe80ac266013c33040122e0409060600161083f565b6003546001600160a01b03163314610dbd57604051634755657960e01b815260040160405180910390fd5b6007805460ff19168215159081179091556040519081527f40a36e95e1165e03b5c30095cd9d1e9fa9d8aa98d06aa1d6432a77718c0b68f09060200160405180910390a150565b60075460ff16610e275760405163b291599960e01b815260040160405180910390fd5b80600003610e485760405163162908e360e11b815260040160405180910390fd5b600060045482610e589190612d9f565b9050600060055483610e6a9190612d9f565b9050600060065484610e7c9190612d9f565b6007546000805460405163927da10560e01b815293945090926001600160a01b0361010090930483169263927da10592610ebf9291169033903090600401612a61565b602060405180830381865afa158015610edc573d6000803e3d6000fd5b505050506040513d601f19601f82011682018060405250810190610f009190612dc4565b905084811015610f2d576040516316009c8360e01b815260048101829052602481018690526044016108cc565b83471015610f5e57604051634390211d60e11b815260006004820152476024820152604481018590526064016108cc565b600754600154604051633de222bb60e21b815260009261010090046001600160a01b039081169263f7888aec92610f9d92909116903090600401612a84565b602060405180830381865afa158015610fba573d6000803e3d6000fd5b505050506040513d601f19601f82011682018060405250810190610fde9190612dc4565b90508381101561101e57600154604051634390211d60e11b81526001600160a01b03909116600482015260248101829052604481018590526064016108cc565b600754600254604051633de222bb60e21b815260009261010090046001600160a01b039081169263f7888aec9261105d92909116903090600401612a84565b602060405180830381865afa15801561107a573d6000803e3d6000fd5b505050506040513d601f19601f8201168201806040525081019061109e9190612dc4565b9050838110156110de57600254604051634390211d60e11b81526001600160a01b03909116600482015260248101829052604481018590526064016108cc565b60075460008054604051632c54de4f60e01b815291926001600160a01b03610100909104811692632c54de4f9261111f921690339030908e90600401612ddd565b6020604051808303816000875af115801561113e573d6000803e3d6000fd5b505050506040513d601f19601f820116820180604052508101906111629190612ab5565b90508060070b600014611197576000546040516353b9365760e01b81526108cc916001600160a01b0316908390600401612ad0565b60408051600080825260208201909252816111c2565b60608152602001906001900390816111ad5790505b50600754600080546040516379fe3b7d60e11b815293945090926001600160a01b0361010090930483169263f3fc76fa92611206929116908e908790600401612e5c565b6020604051808303816000875af1158015611225573d6000803e3d6000fd5b505050506040513d601f19601f820116820180604052508101906112499190612ab5565b90508060070b60001461127e57600054604051630272bce360e21b81526108cc916001600160a01b0316908390600401612ad0565b600754600154604051632c54de4f60e01b815260009261010090046001600160a01b0390811692632c54de4f926112c19290911690309033908f90600401612ddd565b6020604051808303816000875af11580156112e0573d6000803e3d6000fd5b505050506040513d601f19601f820116820180604052508101906113049190612ab5565b90508060070b600014611339576001546040516353b9365760e01b81526108cc916001600160a01b0316908390600401612ad0565b600754600254604051632c54de4f60e01b815260009261010090046001600160a01b0390811692632c54de4f9261137c9290911690309033908f90600401612ddd565b6020604051808303816000875af115801561139b573d6000803e3d6000fd5b505050506040513d601f19601f820116820180604052508101906113bf9190612ab5565b90508060070b6000146113f4576002546040516353b9365760e01b81526108cc916001600160a01b0316908390600401612ad0565b60405160009033908d908381818185875af1925050503d8060008114611436576040519150601f19603f3d011682016040523d82523d6000602084013e61143b565b606091505b505090508061145d576040516378bd738360e11b815260040160405180910390fd5b604080518e8152602081018e90529081018c9052606081018b905233907f0a99e3ea632fcdc816b71d0e418dc65b991272ad5bbdd78f5ccf117bfe076b419060800160405180910390a250505050505050505050505050565b6003546001600160a01b031633146114e157604051634755657960e01b815260040160405180910390fd5b600780546001600160a01b0390921661010002610100600160a81b0319909216919091179055565b60075460015460405163927da10560e01b8152600092839283926001600160a01b0361010090930483169263927da1059261154d9291169088903090600401612a61565b602060405180830381865afa15801561156a573d6000803e3d6000fd5b505050506040513d601f19601f8201168201806040525081019061158e9190612dc4565b60075460025460405163927da10560e01b81529295506001600160a01b0361010090920482169263927da105926115cd92169088903090600401612a61565b602060405180830381865afa1580156115ea573d6000803e3d6000fd5b505050506040513d601f19601f8201168201806040525081019061160e9190612dc4565b60075460005460405163927da10560e01b81529294506001600160a01b0361010090920482169263927da1059261164d92169088903090600401612a61565b602060405180830381865afa15801561166a573d6000803e3d6000fd5b505050506040513d601f19601f8201168201806040525081019061168e9190612dc4565b929491935050565b6000600454826116a69190612d9f565b92915050565b60075460ff166116cf5760405163b291599960e01b815260040160405180910390fd5b806000036116f05760405163162908e360e11b815260040160405180910390fd5b6000600454826117009190612d9f565b90506000600654836117129190612d9f565b905081341461173d5760405163613f8e2f60e11b8152346004820152602481018390526044016108cc565b60075460025460405163927da10560e01b815260009261010090046001600160a01b039081169263927da1059261177e929091169033903090600401612a61565b602060405180830381865afa15801561179b573d6000803e3d6000fd5b505050506040513d601f19601f820116820180604052508101906117bf9190612dc4565b9050818110156117ec576040516303ab67df60e01b815260048101829052602481018390526044016108cc565b50505050565b6003546001600160a01b0316331461181d57604051634755657960e01b815260040160405180910390fd5b6000546001600160a01b03161561186f5760405162461bcd60e51b815260206004820152601660248201527513165396081d1bdad95b88185b1c9958591e481cd95d60521b60448201526064016108cc565b6001600160a01b0381166118c55760405162461bcd60e51b815260206004820152601a60248201527f43616e6e6f742073657420746f207a65726f206164647265737300000000000060448201526064016108cc565b600080546001600160a01b0319166001600160a01b0383161790556118e8612793565b6040516001600160a01b038216907f9d3f9bc754b67aecb97c012ccc6e3bca03a800d329b1caa33d2549b2945648fb90600090a250565b6000600654826116a69190612d9f565b60075460ff166119525760405163b291599960e01b815260040160405180910390fd5b806000036119735760405163162908e360e11b815260040160405180910390fd5b6000600454826119839190612d9f565b90506000600554836119959190612d9f565b90506000600654846119a79190612d9f565b90508234146119d25760405163613f8e2f60e11b8152346004820152602481018490526044016108cc565b600754600054604051631c97fa2960e21b81526001600160a01b0361010090930483169263725fe8a492611a0d929116903090600401612a84565b602060405180830381865afa158015611a2a573d6000803e3d6000fd5b505050506040513d601f19601f82011682018060405250810190611a4e9190612e8c565b611a7a57600054604051632460bcbb60e21b81526108cc916001600160a01b0316903090600401612a84565b600754600154604051631c97fa2960e21b81526001600160a01b0361010090930483169263725fe8a492611ab5929116903090600401612a84565b602060405180830381865afa158015611ad2573d6000803e3d6000fd5b505050506040513d601f19601f82011682018060405250810190611af69190612e8c565b611b2257600154604051632460bcbb60e21b81526108cc916001600160a01b0316903090600401612a84565b600754600254604051631c97fa2960e21b81526001600160a01b0361010090930483169263725fe8a492611b5d929116903090600401612a84565b602060405180830381865afa158015611b7a573d6000803e3d6000fd5b505050506040513d601f19601f82011682018060405250810190611b9e9190612e8c565b611bca57600254604051632460bcbb60e21b81526108cc916001600160a01b0316903090600401612a84565b600754600054604051631c97fa2960e21b81526001600160a01b0361010090930483169263725fe8a492611c05929116903390600401612a84565b602060405180830381865afa158015611c22573d6000803e3d6000fd5b505050506040513d601f19601f82011682018060405250810190611c469190612e8c565b611c7257600054604051632460bcbb60e21b81526108cc916001600160a01b0316903390600401612a84565b600754600154604051631c97fa2960e21b81526001600160a01b0361010090930483169263725fe8a492611cad929116903390600401612a84565b602060405180830381865afa158015611cca573d6000803e3d6000fd5b505050506040513d601f19601f82011682018060405250810190611cee9190612e8c565b611d1a57600154604051632460bcbb60e21b81526108cc916001600160a01b0316903390600401612a84565b600754600254604051631c97fa2960e21b81526001600160a01b0361010090930483169263725fe8a492611d55929116903390600401612a84565b602060405180830381865afa158015611d72573d6000803e3d6000fd5b505050506040513d601f19601f82011682018060405250810190611d969190612e8c565b611dc257600254604051632460bcbb60e21b81526108cc916001600160a01b0316903390600401612a84565b60075460015460405163927da10560e01b815260009261010090046001600160a01b039081169263927da10592611e03929091169033903090600401612a61565b602060405180830381865afa158015611e20573d6000803e3d6000fd5b505050506040513d601f19601f82011682018060405250810190611e449190612dc4565b905082811015611e7157604051636dc9c10b60e01b815260048101829052602481018490526044016108cc565b60075460025460405163927da10560e01b815260009261010090046001600160a01b039081169263927da10592611eb2929091169033903090600401612a61565b602060405180830381865afa158015611ecf573d6000803e3d6000fd5b505050506040513d601f19601f82011682018060405250810190611ef39190612dc4565b905082811015611f20576040516303ab67df60e01b815260048101829052602481018490526044016108cc565b60075460ff16611f435760405163b291599960e01b815260040160405180910390fd5b600754600154604051632c54de4f60e01b815260009261010090046001600160a01b0390811692632c54de4f92611f869290911690339030908b90600401612ddd565b6020604051808303816000875af1158015611fa5573d6000803e3d6000fd5b505050506040513d601f19601f82011682018060405250810190611fc99190612ab5565b90508060070b6000146120ea5760008160070b6000191461208d578160070b6001191461205b578160070b60021914612027576040518060400160405280600d81526020016c2ab735b737bbb71032b93937b960991b8152506120bb565b60405180604001604052806016815260200175496e73756666696369656e7420616c6c6f77616e636560501b8152506120bb565b60405180604001604052806014815260200173496e73756666696369656e742062616c616e636560601b8152506120bb565b60405180604001604052806014815260200173151bdad95b881b9bdd08185cdcdbd8da585d195960621b8152505b6001546040516389a219dd60e01b81529192506108cc916001600160a01b039091169084908490600401612ea9565b600754600254604051632c54de4f60e01b815260009261010090046001600160a01b0390811692632c54de4f9261212d9290911690339030908b90600401612ddd565b6020604051808303816000875af115801561214c573d6000803e3d6000fd5b505050506040513d601f19601f820116820180604052508101906121709190612ab5565b90508060070b6000146122915760008160070b60001914612234578160070b60011914612202578160070b600219146121ce576040518060400160405280600d81526020016c2ab735b737bbb71032b93937b960991b815250612262565b60405180604001604052806016815260200175496e73756666696369656e7420616c6c6f77616e636560501b815250612262565b60405180604001604052806014815260200173496e73756666696369656e742062616c616e636560601b815250612262565b60405180604001604052806014815260200173151bdad95b881b9bdd08185cdcdbd8da585d195960621b8152505b6002546040516389a219dd60e01b81529192506108cc916001600160a01b039091169084908490600401612ea9565b60408051600080825260208201909252816122bc565b60608152602001906001900390816122a75790505b50600754600080546040516376096e0160e11b815293945090926001600160a01b0361010090930483169263ec12dc0292612300929116908e908790600401612ed3565b6020604051808303816000875af115801561231f573d6000803e3d6000fd5b505050506040513d601f19601f820116820180604052508101906123439190612ab5565b90508060070b6000146124555760008160070b600019146123f8578160070b600119146123cd578160070b600219146123a1576040518060400160405280600d81526020016c2ab735b737bbb71032b93937b960991b815250612426565b6040518060400160405280600e81526020016d125b9d985b1a5908185b5bdd5b9d60921b815250612426565b6040518060400160405280600d81526020016c4e6f20737570706c79206b657960981b815250612426565b60405180604001604052806014815260200173151bdad95b881b9bdd08185cdcdbd8da585d195960621b8152505b6000546040516389a219dd60e01b81529192506108cc916001600160a01b039091169084908490600401612ea9565b6000600760019054906101000a90046001600160a01b03166001600160a01b0316632c54de4f60008054906101000a90046001600160a01b031630338f6040518563ffffffff1660e01b81526004016124b19493929190612ddd565b6020604051808303816000875af11580156124d0573d6000803e3d6000fd5b505050506040513d601f19601f820116820180604052508101906124f49190612ab5565b90508060070b6000146125b85760008160070b600019146123f8578160070b60011914612586578160070b60021914612552576040518060400160405280600d81526020016c2ab735b737bbb71032b93937b960991b815250612426565b60405180604001604052806016815260200175496e73756666696369656e7420616c6c6f77616e636560501b815250612426565b60405180604001604052806014815260200173496e73756666696369656e742062616c616e636560601b815250612426565b604080518c8152602081018c90529081018a90526060810189905233907fc8692244b89e2a7e07e1d9ea03612e5d30118c61dd11d7e664e945287a3ce61b9060800160405180910390a25050505050505050505050565b600080600080600080600554876126269190612d9f565b9350600654876126369190612d9f565b60075460015460405163927da10560e01b81529295506001600160a01b0361010090920482169263927da105926126759216908c903090600401612a61565b602060405180830381865afa158015612692573d6000803e3d6000fd5b505050506040513d601f19601f820116820180604052508101906126b69190612dc4565b60075460025460405163927da10560e01b81529298506001600160a01b0361010090920482169263927da105926126f59216908c903090600401612a61565b602060405180830381865afa158015612712573d6000803e3d6000fd5b505050506040513d601f19601f820116820180604052508101906127369190612dc4565b94508386101591508285101590509295509295509295565b6003546001600160a01b0316331461277957604051634755657960e01b815260040160405180910390fd5b612781612793565b565b6000600554826116a69190612d9f565b6000546001600160a01b03166127e4576007805460ff19169055604051600081527f40a36e95e1165e03b5c30095cd9d1e9fa9d8aa98d06aa1d6432a77718c0b68f0906020015b60405180910390a1565b600754600054604051632e1a634560e11b81526001600160a01b03610100909304831692635c34c68a9261281f929116903090600401612a84565b602060405180830381865afa15801561283c573d6000803e3d6000fd5b505050506040513d601f19601f820116820180604052508101906128609190612e8c565b6007805460ff1916911515918217905560405160ff909116151581527f40a36e95e1165e03b5c30095cd9d1e9fa9d8aa98d06aa1d6432a77718c0b68f0906020016127da565b60008083601f8401126128b857600080fd5b50813567ffffffffffffffff8111156128d057600080fd5b6020830191508360208285010111156128e857600080fd5b9250929050565b6000806000806000806060878903121561290857600080fd5b863567ffffffffffffffff8082111561292057600080fd5b61292c8a838b016128a6565b9098509650602089013591508082111561294557600080fd5b6129518a838b016128a6565b9096509450604089013591508082111561296a57600080fd5b5061297789828a016128a6565b979a9699509497509295939492505050565b60008060006060848603121561299e57600080fd5b505081359360208301359350604090920135919050565b80151581146129c357600080fd5b50565b6000602082840312156129d857600080fd5b81356129e3816129b5565b9392505050565b6000602082840312156129fc57600080fd5b5035919050565b6001600160a01b03811681146129c357600080fd5b600060208284031215612a2a57600080fd5b81356129e381612a03565b60008060408385031215612a4857600080fd5b8235612a5381612a03565b946020939093013593505050565b6001600160a01b0393841681529183166020830152909116604082015260600190565b6001600160a01b0392831681529116602082015260400190565b8051600781900b8114612ab057600080fd5b919050565b600060208284031215612ac757600080fd5b6129e382612a9e565b6001600160a01b0392909216825260070b602082015260400190565b634e487b7160e01b600052603260045260246000fd5b6000815180845260005b81811015612b2857602081850181015186830182015201612b0c565b506000602082860101526020601f19601f83011685010191505092915050565b600081518084526020808501945080840160005b83811015612b815781516001600160a01b031687529582019590820190600101612b5c565b509495945050505050565b600081518084526020808501945080840160005b83811015612b8157815160ff1687529582019590820190600101612ba0565b60808152600085516101a0806080850152612bde610220850183612b02565b91506020880151607f19808685030160a0870152612bfc8483612b02565b935060408a01519150612c1a60c08701836001600160a01b03169052565b60608a01519150808685030160e0870152612c358483612b02565b935060808a01519150610100612c4e8188018415159052565b60a08b01519250610120612c698189018563ffffffff169052565b60c08c01519350610140612c80818a018615159052565b60e08d01519450610160848a890301818b0152612c9d8887612b48565b9750838e015195506101809350848a890301848b0152612cbd8887612b48565b9750828e01519550848a890301878b0152612cd88887612b48565b9750818e01519650848a8903016101c08b0152612cf58888612b48565b9750808e0151965050505081878603016101e0880152612d158585612b48565b9450808b01519350505050612d3061020085018260ff169052565b508560208401528281036040840152612d498186612b8c565b90508281036060840152612d5d8185612b48565b979650505050505050565b60008060408385031215612d7b57600080fd5b612d8483612a9e565b91506020830151612d9481612a03565b809150509250929050565b80820281158282048414176116a657634e487b7160e01b600052601160045260246000fd5b600060208284031215612dd657600080fd5b5051919050565b6001600160a01b039485168152928416602084015292166040820152606081019190915260800190565b600081518084526020808501808196508360051b8101915082860160005b85811015612e4f578284038952612e3d848351612b02565b98850198935090840190600101612e25565b5091979650505050505050565b60018060a01b0384168152826020820152606060408201526000612e836060830184612e07565b95945050505050565b600060208284031215612e9e57600080fd5b81516129e3816129b5565b60018060a01b03841681528260070b6020820152606060408201526000612e836060830184612b02565b6001600160a01b038416815267ffffffffffffffff83166020820152606060408201819052600090612e8390830184612e0756fea26469706673582212204bed34671a80c5855e650d191ead39b5885b858065e61ebfea00843d4d2792b464736f6c63430008120033","opcodes":"PUSH1 0x80 PUSH1 0x40 MSTORE PUSH1 0xA PUSH1 0x4 SSTORE PUSH1 0x64 PUSH1 0x5 SSTORE PUSH1 0x32 PUSH1 0x6 SSTORE PUSH1 0x7 DUP1 SLOAD PUSH1 0xFF NOT AND SWAP1 SSTORE CALLVALUE DUP1 ISZERO PUSH3 0x2A JUMPI PUSH1 0x0 DUP1 REVERT JUMPDEST POP PUSH1 0x40 MLOAD PUSH3 0x316A CODESIZE SUB DUP1 PUSH3 0x316A DUP4 CODECOPY DUP2 ADD PUSH1 0x40 DUP2 SWAP1 MSTORE PUSH3 0x4D SWAP2 PUSH3 0x195 JUMP JUMPDEST PUSH1 0x1 PUSH1 0x1 PUSH1 0xA0 SHL SUB DUP2 AND ISZERO PUSH3 0x64 JUMPI DUP1 PUSH3 0x68 JUMP JUMPDEST PUSH2 0x167 JUMPDEST PUSH1 0x7 DUP1 SLOAD PUSH2 0x100 PUSH1 0x1 PUSH1 0xA8 SHL SUB NOT AND PUSH2 0x100 PUSH1 0x1 PUSH1 0x1 PUSH1 0xA0 SHL SUB SWAP4 DUP5 AND MUL OR SWAP1 SSTORE PUSH1 0x0 DUP1 SLOAD PUSH1 0x1 PUSH1 0x1 PUSH1 0xA0 SHL SUB NOT SWAP1 DUP2 AND DUP8 DUP5 AND SWAP1 DUP2 OR SWAP1 SWAP3 SSTORE PUSH1 0x1 DUP1 SLOAD DUP3 AND DUP8 DUP6 AND OR SWAP1 SSTORE PUSH1 0x2 DUP1 SLOAD DUP3 AND SWAP4 DUP7 AND SWAP4 SWAP1 SWAP4 OR SWAP1 SWAP3 SSTORE PUSH1 0x3 DUP1 SLOAD CALLER SWAP4 AND SWAP3 SWAP1 SWAP3 OR SWAP1 SWAP2 SSTORE ISZERO PUSH3 0x16E JUMPI PUSH1 0x7 SLOAD PUSH1 0x40 MLOAD PUSH4 0x2E1A6345 PUSH1 0xE1 SHL DUP2 MSTORE PUSH1 0x1 PUSH1 0x1 PUSH1 0xA0 SHL SUB DUP7 DUP2 AND PUSH1 0x4 DUP4 ADD MSTORE ADDRESS PUSH1 0x24 DUP4 ADD MSTORE PUSH2 0x100 SWAP1 SWAP3 DIV SWAP1 SWAP2 AND SWAP1 PUSH4 0x5C34C68A SWAP1 PUSH1 0x44 ADD PUSH1 0x20 PUSH1 0x40 MLOAD DUP1 DUP4 SUB DUP2 DUP7 GAS STATICCALL SWAP3 POP POP POP DUP1 ISZERO PUSH3 0x147 JUMPI POP PUSH1 0x40 DUP1 MLOAD PUSH1 0x1F RETURNDATASIZE SWAP1 DUP2 ADD PUSH1 0x1F NOT AND DUP3 ADD SWAP1 SWAP3 MSTORE PUSH3 0x144 SWAP2 DUP2 ADD SWAP1 PUSH3 0x1F2 JUMP JUMPDEST PUSH1 0x1 JUMPDEST PUSH3 0x15C JUMPI PUSH1 0x7 DUP1 SLOAD PUSH1 0xFF NOT AND SWAP1 SSTORE PUSH3 0x16E JUMP JUMPDEST PUSH1 0x7 DUP1 SLOAD PUSH1 0xFF NOT AND SWAP2 ISZERO ISZERO SWAP2 SWAP1 SWAP2 OR SWAP1 SSTORE JUMPDEST POP POP POP POP PUSH3 0x21D JUMP JUMPDEST DUP1 MLOAD PUSH1 0x1 PUSH1 0x1 PUSH1 0xA0 SHL SUB DUP2 AND DUP2 EQ PUSH3 0x190 JUMPI PUSH1 0x0 DUP1 REVERT JUMPDEST SWAP2 SWAP1 POP JUMP JUMPDEST PUSH1 0x0 DUP1 PUSH1 0x0 DUP1 PUSH1 0x80 DUP6 DUP8 SUB SLT ISZERO PUSH3 0x1AC JUMPI PUSH1 0x0 DUP1 REVERT JUMPDEST PUSH3 0x1B7 DUP6 PUSH3 0x178 JUMP JUMPDEST SWAP4 POP PUSH3 0x1C7 PUSH1 0x20 DUP7 ADD PUSH3 0x178 JUMP JUMPDEST SWAP3 POP PUSH3 0x1D7 PUSH1 0x40 DUP7 ADD PUSH3 0x178 JUMP JUMPDEST SWAP2 POP PUSH3 0x1E7 PUSH1 0x60 DUP7 ADD PUSH3 0x178 JUMP JUMPDEST SWAP1 POP SWAP3 SWAP6 SWAP2 SWAP5 POP SWAP3 POP JUMP JUMPDEST PUSH1 0x0 PUSH1 0x20 DUP3 DUP5 SUB SLT ISZERO PUSH3 0x205 JUMPI PUSH1 0x0 DUP1 REVERT JUMPDEST DUP2 MLOAD DUP1 ISZERO ISZERO DUP2 EQ PUSH3 0x216 JUMPI PUSH1 0x0 DUP1 REVERT JUMPDEST SWAP4 SWAP3 POP POP POP JUMP JUMPDEST PUSH2 0x2F3D DUP1 PUSH3 0x22D PUSH1 0x0 CODECOPY PUSH1 0x0 RETURN INVALID PUSH1 0x80 PUSH1 0x40 MSTORE PUSH1 0x4 CALLDATASIZE LT PUSH2 0x1CF JUMPI PUSH1 0x0 CALLDATALOAD PUSH1 0xE0 SHR DUP1 PUSH4 0x739036B2 GT PUSH2 0xF6 JUMPI DUP1 PUSH4 0xB0E4FE4F GT PUSH2 0x8F JUMPI DUP1 PUSH4 0xE1E99576 GT PUSH2 0x61 JUMPI DUP1 PUSH4 0xE1E99576 EQ PUSH2 0x570 JUMPI DUP1 PUSH4 0xE294204D EQ PUSH2 0x590 JUMPI DUP1 PUSH4 0xEE8C24B8 EQ PUSH2 0x5A5 JUMPI DUP1 PUSH4 0xEF037593 EQ PUSH2 0x5D8 JUMPI STOP JUMPDEST DUP1 PUSH4 0xB0E4FE4F EQ PUSH2 0x4D5 JUMPI DUP1 PUSH4 0xC2F4BFAF EQ PUSH2 0x526 JUMPI DUP1 PUSH4 0xCAB21A6A EQ PUSH2 0x53B JUMPI DUP1 PUSH4 0xDE579BC9 EQ PUSH2 0x55B JUMPI STOP JUMPDEST DUP1 PUSH4 0x8EE2C4B8 GT PUSH2 0xC8 JUMPI DUP1 PUSH4 0x8EE2C4B8 EQ PUSH2 0x463 JUMPI DUP1 PUSH4 0x9057BB4A EQ PUSH2 0x48D JUMPI DUP1 PUSH4 0x92361927 EQ PUSH2 0x4A2 JUMPI DUP1 PUSH4 0xA0712D68 EQ PUSH2 0x4C2 JUMPI STOP JUMPDEST DUP1 PUSH4 0x739036B2 EQ PUSH2 0x403 JUMPI DUP1 PUSH4 0x853F51AD EQ PUSH2 0x418 JUMPI DUP1 PUSH4 0x85CB42D4 EQ PUSH2 0x42D JUMPI DUP1 PUSH4 0x8D6BE540 EQ PUSH2 0x44D JUMPI STOP JUMPDEST DUP1 PUSH4 0x42966C68 GT PUSH2 0x168 JUMPI DUP1 PUSH4 0x539E803F GT PUSH2 0x13A JUMPI DUP1 PUSH4 0x539E803F EQ PUSH2 0x36E JUMPI DUP1 PUSH4 0x5B7F415C EQ PUSH2 0x3A9 JUMPI DUP1 PUSH4 0x6461E01A EQ PUSH2 0x3D0 JUMPI DUP1 PUSH4 0x702C3C24 EQ PUSH2 0x3F0 JUMPI STOP JUMPDEST DUP1 PUSH4 0x42966C68 EQ PUSH2 0x2F4 JUMPI DUP1 PUSH4 0x4543873D EQ PUSH2 0x314 JUMPI DUP1 PUSH4 0x4924190C EQ PUSH2 0x32A JUMPI DUP1 PUSH4 0x4BB3C9CF EQ PUSH2 0x34E JUMPI STOP JUMPDEST DUP1 PUSH4 0x2A0ACC6A GT PUSH2 0x1A1 JUMPI DUP1 PUSH4 0x2A0ACC6A EQ PUSH2 0x26A JUMPI DUP1 PUSH4 0x30D0A66C EQ PUSH2 0x28A JUMPI DUP1 PUSH4 0x331A4C20 EQ PUSH2 0x2AA JUMPI DUP1 PUSH4 0x335C3FE8 EQ PUSH2 0x2D4 JUMPI STOP JUMPDEST DUP1 PUSH4 0x10CA0BCE EQ PUSH2 0x1D8 JUMPI DUP1 PUSH4 0x1D12E296 EQ PUSH2 0x1ED JUMPI DUP1 PUSH4 0x1DA965C2 EQ PUSH2 0x20D JUMPI DUP1 PUSH4 0x1EC65C36 EQ PUSH2 0x24A JUMPI STOP JUMPDEST CALLDATASIZE PUSH2 0x1D6 JUMPI STOP JUMPDEST STOP JUMPDEST CALLVALUE DUP1 ISZERO PUSH2 0x1E4 JUMPI PUSH1 0x0 DUP1 REVERT JUMPDEST POP PUSH2 0x1D6 PUSH2 0x5EE JUMP JUMPDEST CALLVALUE DUP1 ISZERO PUSH2 0x1F9 JUMPI PUSH1 0x0 DUP1 REVERT JUMPDEST POP PUSH2 0x1D6 PUSH2 0x208 CALLDATASIZE PUSH1 0x4 PUSH2 0x28EF JUMP JUMPDEST PUSH2 0x84C JUMP JUMPDEST CALLVALUE DUP1 ISZERO PUSH2 0x219 JUMPI PUSH1 0x0 DUP1 REVERT JUMPDEST POP PUSH1 0x2 SLOAD PUSH2 0x22D SWAP1 PUSH1 0x1 PUSH1 0x1 PUSH1 0xA0 SHL SUB AND DUP2 JUMP JUMPDEST PUSH1 0x40 MLOAD PUSH1 0x1 PUSH1 0x1 PUSH1 0xA0 SHL SUB SWAP1 SWAP2 AND DUP2 MSTORE PUSH1 0x20 ADD JUMPDEST PUSH1 0x40 MLOAD DUP1 SWAP2 SUB SWAP1 RETURN JUMPDEST CALLVALUE DUP1 ISZERO PUSH2 0x256 JUMPI PUSH1 0x0 DUP1 REVERT JUMPDEST POP PUSH1 0x1 SLOAD PUSH2 0x22D SWAP1 PUSH1 0x1 PUSH1 0x1 PUSH1 0xA0 SHL SUB AND DUP2 JUMP JUMPDEST CALLVALUE DUP1 ISZERO PUSH2 0x276 JUMPI PUSH1 0x0 DUP1 REVERT JUMPDEST POP PUSH1 0x3 SLOAD PUSH2 0x22D SWAP1 PUSH1 0x1 PUSH1 0x1 PUSH1 0xA0 SHL SUB AND DUP2 JUMP JUMPDEST CALLVALUE DUP1 ISZERO PUSH2 0x296 JUMPI PUSH1 0x0 DUP1 REVERT JUMPDEST POP PUSH2 0x1D6 PUSH2 0x2A5 CALLDATASIZE PUSH1 0x4 PUSH2 0x2989 JUMP JUMPDEST PUSH2 0xD1A JUMP JUMPDEST CALLVALUE DUP1 ISZERO PUSH2 0x2B6 JUMPI PUSH1 0x0 DUP1 REVERT JUMPDEST POP PUSH1 0x7 SLOAD PUSH2 0x2C4 SWAP1 PUSH1 0xFF AND DUP2 JUMP JUMPDEST PUSH1 0x40 MLOAD SWAP1 ISZERO ISZERO DUP2 MSTORE PUSH1 0x20 ADD PUSH2 0x241 JUMP JUMPDEST CALLVALUE DUP1 ISZERO PUSH2 0x2E0 JUMPI PUSH1 0x0 DUP1 REVERT JUMPDEST POP PUSH2 0x1D6 PUSH2 0x2EF CALLDATASIZE PUSH1 0x4 PUSH2 0x29C6 JUMP JUMPDEST PUSH2 0xD92 JUMP JUMPDEST CALLVALUE DUP1 ISZERO PUSH2 0x300 JUMPI PUSH1 0x0 DUP1 REVERT JUMPDEST POP PUSH2 0x1D6 PUSH2 0x30F CALLDATASIZE PUSH1 0x4 PUSH2 0x29EA JUMP JUMPDEST PUSH2 0xE04 JUMP JUMPDEST CALLVALUE DUP1 ISZERO PUSH2 0x320 JUMPI PUSH1 0x0 DUP1 REVERT JUMPDEST POP PUSH2 0x22D PUSH2 0x167 DUP2 JUMP JUMPDEST CALLVALUE DUP1 ISZERO PUSH2 0x336 JUMPI PUSH1 0x0 DUP1 REVERT JUMPDEST POP PUSH2 0x340 PUSH1 0x4 SLOAD DUP2 JUMP JUMPDEST PUSH1 0x40 MLOAD SWAP1 DUP2 MSTORE PUSH1 0x20 ADD PUSH2 0x241 JUMP JUMPDEST CALLVALUE DUP1 ISZERO PUSH2 0x35A JUMPI PUSH1 0x0 DUP1 REVERT JUMPDEST POP PUSH2 0x1D6 PUSH2 0x369 CALLDATASIZE PUSH1 0x4 PUSH2 0x2A18 JUMP JUMPDEST PUSH2 0x14B6 JUMP JUMPDEST CALLVALUE DUP1 ISZERO PUSH2 0x37A JUMPI PUSH1 0x0 DUP1 REVERT JUMPDEST POP PUSH2 0x38E PUSH2 0x389 CALLDATASIZE PUSH1 0x4 PUSH2 0x2A18 JUMP JUMPDEST PUSH2 0x1509 JUMP JUMPDEST PUSH1 0x40 DUP1 MLOAD SWAP4 DUP5 MSTORE PUSH1 0x20 DUP5 ADD SWAP3 SWAP1 SWAP3 MSTORE SWAP1 DUP3 ADD MSTORE PUSH1 0x60 ADD PUSH2 0x241 JUMP JUMPDEST CALLVALUE DUP1 ISZERO PUSH2 0x3B5 JUMPI PUSH1 0x0 DUP1 REVERT JUMPDEST POP PUSH2 0x3BE PUSH1 0x8 DUP2 JUMP JUMPDEST PUSH1 0x40 MLOAD PUSH1 0xFF SWAP1 SWAP2 AND DUP2 MSTORE PUSH1 0x20 ADD PUSH2 0x241 JUMP JUMPDEST CALLVALUE DUP1 ISZERO PUSH2 0x3DC JUMPI PUSH1 0x0 DUP1 REVERT JUMPDEST POP PUSH2 0x340 PUSH2 0x3EB CALLDATASIZE PUSH1 0x4 PUSH2 0x29EA JUMP JUMPDEST PUSH2 0x1696 JUMP JUMPDEST PUSH2 0x1D6 PUSH2 0x3FE CALLDATASIZE PUSH1 0x4 PUSH2 0x29EA JUMP JUMPDEST PUSH2 0x16AC JUMP JUMPDEST CALLVALUE DUP1 ISZERO PUSH2 0x40F JUMPI PUSH1 0x0 DUP1 REVERT JUMPDEST POP PUSH1 0x4 SLOAD PUSH2 0x340 JUMP JUMPDEST CALLVALUE DUP1 ISZERO PUSH2 0x424 JUMPI PUSH1 0x0 DUP1 REVERT JUMPDEST POP PUSH1 0x6 SLOAD PUSH2 0x340 JUMP JUMPDEST CALLVALUE DUP1 ISZERO PUSH2 0x439 JUMPI PUSH1 0x0 DUP1 REVERT JUMPDEST POP PUSH2 0x1D6 PUSH2 0x448 CALLDATASIZE PUSH1 0x4 PUSH2 0x2A18 JUMP JUMPDEST PUSH2 0x17F2 JUMP JUMPDEST CALLVALUE DUP1 ISZERO PUSH2 0x459 JUMPI PUSH1 0x0 DUP1 REVERT JUMPDEST POP PUSH2 0x340 PUSH1 0x6 SLOAD DUP2 JUMP JUMPDEST CALLVALUE DUP1 ISZERO PUSH2 0x46F JUMPI PUSH1 0x0 DUP1 REVERT JUMPDEST POP PUSH2 0x478 PUSH1 0x0 DUP2 JUMP JUMPDEST PUSH1 0x40 MLOAD PUSH4 0xFFFFFFFF SWAP1 SWAP2 AND DUP2 MSTORE PUSH1 0x20 ADD PUSH2 0x241 JUMP JUMPDEST CALLVALUE DUP1 ISZERO PUSH2 0x499 JUMPI PUSH1 0x0 DUP1 REVERT JUMPDEST POP PUSH1 0x5 SLOAD PUSH2 0x340 JUMP JUMPDEST CALLVALUE DUP1 ISZERO PUSH2 0x4AE JUMPI PUSH1 0x0 DUP1 REVERT JUMPDEST POP PUSH2 0x340 PUSH2 0x4BD CALLDATASIZE PUSH1 0x4 PUSH2 0x29EA JUMP JUMPDEST PUSH2 0x191F JUMP JUMPDEST PUSH2 0x1D6 PUSH2 0x4D0 CALLDATASIZE PUSH1 0x4 PUSH2 0x29EA JUMP JUMPDEST PUSH2 0x192F JUMP JUMPDEST CALLVALUE DUP1 ISZERO PUSH2 0x4E1 JUMPI PUSH1 0x0 DUP1 REVERT JUMPDEST POP PUSH2 0x4F5 PUSH2 0x4F0 CALLDATASIZE PUSH1 0x4 PUSH2 0x2A35 JUMP JUMPDEST PUSH2 0x260F JUMP JUMPDEST PUSH1 0x40 DUP1 MLOAD SWAP7 DUP8 MSTORE PUSH1 0x20 DUP8 ADD SWAP6 SWAP1 SWAP6 MSTORE SWAP4 DUP6 ADD SWAP3 SWAP1 SWAP3 MSTORE PUSH1 0x60 DUP5 ADD MSTORE ISZERO ISZERO PUSH1 0x80 DUP4 ADD MSTORE ISZERO ISZERO PUSH1 0xA0 DUP3 ADD MSTORE PUSH1 0xC0 ADD PUSH2 0x241 JUMP JUMPDEST CALLVALUE DUP1 ISZERO PUSH2 0x532 JUMPI PUSH1 0x0 DUP1 REVERT JUMPDEST POP PUSH2 0x1D6 PUSH2 0x274E JUMP JUMPDEST CALLVALUE DUP1 ISZERO PUSH2 0x547 JUMPI PUSH1 0x0 DUP1 REVERT JUMPDEST POP PUSH2 0x340 PUSH2 0x556 CALLDATASIZE PUSH1 0x4 PUSH2 0x29EA JUMP JUMPDEST PUSH2 0x2783 JUMP JUMPDEST CALLVALUE DUP1 ISZERO PUSH2 0x567 JUMPI PUSH1 0x0 DUP1 REVERT JUMPDEST POP PUSH2 0x1D6 PUSH2 0x2793 JUMP JUMPDEST CALLVALUE DUP1 ISZERO PUSH2 0x57C JUMPI PUSH1 0x0 DUP1 REVERT JUMPDEST POP PUSH1 0x0 SLOAD PUSH2 0x22D SWAP1 PUSH1 0x1 PUSH1 0x1 PUSH1 0xA0 SHL SUB AND DUP2 JUMP JUMPDEST CALLVALUE DUP1 ISZERO PUSH2 0x59C JUMPI PUSH1 0x0 DUP1 REVERT JUMPDEST POP PUSH2 0x2C4 PUSH1 0x1 DUP2 JUMP JUMPDEST CALLVALUE DUP1 ISZERO PUSH2 0x5B1 JUMPI PUSH1 0x0 DUP1 REVERT JUMPDEST POP PUSH1 0x0 SLOAD PUSH1 0x1 SLOAD PUSH1 0x2 SLOAD PUSH1 0x40 MLOAD PUSH2 0x241 SWAP4 PUSH1 0x1 PUSH1 0x1 PUSH1 0xA0 SHL SUB SWAP1 DUP2 AND SWAP4 DUP2 AND SWAP3 AND SWAP1 PUSH2 0x2A61 JUMP JUMPDEST CALLVALUE DUP1 ISZERO PUSH2 0x5E4 JUMPI PUSH1 0x0 DUP1 REVERT JUMPDEST POP PUSH2 0x340 PUSH1 0x5 SLOAD DUP2 JUMP JUMPDEST PUSH1 0x7 SLOAD PUSH1 0x0 DUP1 SLOAD PUSH1 0x40 MLOAD PUSH4 0x248A35EF PUSH1 0xE1 SHL DUP2 MSTORE SWAP2 SWAP3 PUSH1 0x1 PUSH1 0x1 PUSH1 0xA0 SHL SUB PUSH2 0x100 SWAP1 SWAP2 DIV DUP2 AND SWAP3 PUSH4 0x49146BDE SWAP3 PUSH2 0x62C SWAP3 ADDRESS SWAP3 SWAP2 AND SWAP1 PUSH1 0x4 ADD PUSH2 0x2A84 JUMP JUMPDEST PUSH1 0x20 PUSH1 0x40 MLOAD DUP1 DUP4 SUB DUP2 PUSH1 0x0 DUP8 GAS CALL ISZERO DUP1 ISZERO PUSH2 0x64B JUMPI RETURNDATASIZE PUSH1 0x0 DUP1 RETURNDATACOPY RETURNDATASIZE PUSH1 0x0 REVERT JUMPDEST POP POP POP POP PUSH1 0x40 MLOAD RETURNDATASIZE PUSH1 0x1F NOT PUSH1 0x1F DUP3 ADD AND DUP3 ADD DUP1 PUSH1 0x40 MSTORE POP DUP2 ADD SWAP1 PUSH2 0x66F SWAP2 SWAP1 PUSH2 0x2AB5 JUMP JUMPDEST PUSH1 0x0 SLOAD PUSH1 0x40 MLOAD SWAP2 SWAP3 POP PUSH32 0x6C452A6A0F6C8613BD46D4BD9A6192B0904A3F33A64C294BA553582502DFD770 SWAP2 PUSH2 0x6AF SWAP2 PUSH1 0x1 PUSH1 0x1 PUSH1 0xA0 SHL SUB AND SWAP1 DUP5 SWAP1 PUSH2 0x2AD0 JUMP JUMPDEST PUSH1 0x40 MLOAD DUP1 SWAP2 SUB SWAP1 LOG1 PUSH1 0x7 SLOAD PUSH1 0x1 SLOAD PUSH1 0x40 MLOAD PUSH4 0x248A35EF PUSH1 0xE1 SHL DUP2 MSTORE PUSH1 0x0 SWAP3 PUSH1 0x1 PUSH1 0x1 PUSH1 0xA0 SHL SUB PUSH2 0x100 SWAP1 SWAP2 DIV DUP2 AND SWAP3 PUSH4 0x49146BDE SWAP3 PUSH2 0x6F4 SWAP3 ADDRESS SWAP3 AND SWAP1 PUSH1 0x4 ADD PUSH2 0x2A84 JUMP JUMPDEST PUSH1 0x20 PUSH1 0x40 MLOAD DUP1 DUP4 SUB DUP2 PUSH1 0x0 DUP8 GAS CALL ISZERO DUP1 ISZERO PUSH2 0x713 JUMPI RETURNDATASIZE PUSH1 0x0 DUP1 RETURNDATACOPY RETURNDATASIZE PUSH1 0x0 REVERT JUMPDEST POP POP POP POP PUSH1 0x40 MLOAD RETURNDATASIZE PUSH1 0x1F NOT PUSH1 0x1F DUP3 ADD AND DUP3 ADD DUP1 PUSH1 0x40 MSTORE POP DUP2 ADD SWAP1 PUSH2 0x737 SWAP2 SWAP1 PUSH2 0x2AB5 JUMP JUMPDEST PUSH1 0x1 SLOAD PUSH1 0x40 MLOAD SWAP2 SWAP3 POP PUSH32 0x6C452A6A0F6C8613BD46D4BD9A6192B0904A3F33A64C294BA553582502DFD770 SWAP2 PUSH2 0x777 SWAP2 PUSH1 0x1 PUSH1 0x1 PUSH1 0xA0 SHL SUB AND SWAP1 DUP5 SWAP1 PUSH2 0x2AD0 JUMP JUMPDEST PUSH1 0x40 MLOAD DUP1 SWAP2 SUB SWAP1 LOG1 PUSH1 0x7 SLOAD PUSH1 0x2 SLOAD PUSH1 0x40 MLOAD PUSH4 0x248A35EF PUSH1 0xE1 SHL DUP2 MSTORE PUSH1 0x0 SWAP3 PUSH1 0x1 PUSH1 0x1 PUSH1 0xA0 SHL SUB PUSH2 0x100 SWAP1 SWAP2 DIV DUP2 AND SWAP3 PUSH4 0x49146BDE SWAP3 PUSH2 0x7BC SWAP3 ADDRESS SWAP3 AND SWAP1 PUSH1 0x4 ADD PUSH2 0x2A84 JUMP JUMPDEST PUSH1 0x20 PUSH1 0x40 MLOAD DUP1 DUP4 SUB DUP2 PUSH1 0x0 DUP8 GAS CALL ISZERO DUP1 ISZERO PUSH2 0x7DB JUMPI RETURNDATASIZE PUSH1 0x0 DUP1 RETURNDATACOPY RETURNDATASIZE PUSH1 0x0 REVERT JUMPDEST POP POP POP POP PUSH1 0x40 MLOAD RETURNDATASIZE PUSH1 0x1F NOT PUSH1 0x1F DUP3 ADD AND DUP3 ADD DUP1 PUSH1 0x40 MSTORE POP DUP2 ADD SWAP1 PUSH2 0x7FF SWAP2 SWAP1 PUSH2 0x2AB5 JUMP JUMPDEST PUSH1 0x2 SLOAD PUSH1 0x40 MLOAD SWAP2 SWAP3 POP PUSH32 0x6C452A6A0F6C8613BD46D4BD9A6192B0904A3F33A64C294BA553582502DFD770 SWAP2 PUSH2 0x83F SWAP2 PUSH1 0x1 PUSH1 0x1 PUSH1 0xA0 SHL SUB AND SWAP1 DUP5 SWAP1 PUSH2 0x2AD0 JUMP JUMPDEST PUSH1 0x40 MLOAD DUP1 SWAP2 SUB SWAP1 LOG1 POP POP POP JUMP JUMPDEST PUSH1 0x3 SLOAD PUSH1 0x1 PUSH1 0x1 PUSH1 0xA0 SHL SUB AND CALLER EQ PUSH2 0x877 JUMPI PUSH1 0x40 MLOAD PUSH4 0x47556579 PUSH1 0xE0 SHL DUP2 MSTORE PUSH1 0x4 ADD PUSH1 0x40 MLOAD DUP1 SWAP2 SUB SWAP1 REVERT JUMPDEST PUSH1 0x0 SLOAD PUSH1 0x1 PUSH1 0x1 PUSH1 0xA0 SHL SUB AND ISZERO PUSH2 0x8D5 JUMPI PUSH1 0x40 MLOAD PUSH3 0x461BCD PUSH1 0xE5 SHL DUP2 MSTORE PUSH1 0x20 PUSH1 0x4 DUP3 ADD MSTORE PUSH1 0x19 PUSH1 0x24 DUP3 ADD MSTORE PUSH32 0x4C594E5820746F6B656E20616C72656164792065786973747300000000000000 PUSH1 0x44 DUP3 ADD MSTORE PUSH1 0x64 ADD JUMPDEST PUSH1 0x40 MLOAD DUP1 SWAP2 SUB SWAP1 REVERT JUMPDEST PUSH1 0x40 DUP1 MLOAD PUSH1 0x1 DUP1 DUP3 MSTORE DUP2 DUP4 ADD SWAP1 SWAP3 MSTORE PUSH1 0x0 SWAP2 PUSH1 0x20 DUP1 DUP4 ADD SWAP1 DUP1 CALLDATASIZE DUP4 CALLDATACOPY POP POP PUSH1 0x3 SLOAD DUP3 MLOAD SWAP3 SWAP4 POP PUSH1 0x1 PUSH1 0x1 PUSH1 0xA0 SHL SUB AND SWAP2 DUP4 SWAP2 POP PUSH1 0x0 SWAP1 PUSH2 0x917 JUMPI PUSH2 0x917 PUSH2 0x2AEC JUMP JUMPDEST PUSH1 0x1 PUSH1 0x1 PUSH1 0xA0 SHL SUB SWAP3 SWAP1 SWAP3 AND PUSH1 0x20 SWAP3 DUP4 MUL SWAP2 SWAP1 SWAP2 ADD SWAP1 SWAP2 ADD MSTORE PUSH1 0x40 DUP1 MLOAD PUSH1 0x1 DUP1 DUP3 MSTORE DUP2 DUP4 ADD SWAP1 SWAP3 MSTORE PUSH1 0x0 SWAP2 DUP2 PUSH1 0x20 ADD PUSH1 0x20 DUP3 MUL DUP1 CALLDATASIZE DUP4 CALLDATACOPY ADD SWAP1 POP POP SWAP1 POP ADDRESS DUP2 PUSH1 0x0 DUP2 MLOAD DUP2 LT PUSH2 0x968 JUMPI PUSH2 0x968 PUSH2 0x2AEC JUMP JUMPDEST PUSH1 0x1 PUSH1 0x1 PUSH1 0xA0 SHL SUB SWAP3 SWAP1 SWAP3 AND PUSH1 0x20 SWAP3 DUP4 MUL SWAP2 SWAP1 SWAP2 ADD DUP3 ADD MSTORE PUSH1 0x40 DUP1 MLOAD PUSH1 0x0 DUP1 DUP3 MSTORE PUSH2 0x1E0 PUSH1 0x1F DUP13 ADD DUP6 SWAP1 DIV DUP6 MUL DUP4 ADD DUP2 ADD SWAP1 SWAP4 MSTORE PUSH2 0x1C0 DUP3 ADD DUP12 DUP2 MSTORE SWAP2 SWAP4 SWAP1 SWAP3 SWAP1 DUP5 ADD SWAP2 DUP3 SWAP2 DUP14 SWAP1 DUP14 SWAP1 DUP2 SWAP1 DUP9 ADD DUP4 DUP3 DUP1 DUP3 DUP5 CALLDATACOPY PUSH1 0x0 SWAP3 ADD SWAP2 SWAP1 SWAP2 MSTORE POP POP POP SWAP1 DUP3 MSTORE POP PUSH1 0x40 DUP1 MLOAD PUSH1 0x20 PUSH1 0x1F DUP13 ADD DUP2 SWAP1 DIV DUP2 MUL DUP3 ADD DUP2 ADD SWAP1 SWAP3 MSTORE DUP11 DUP2 MSTORE SWAP2 DUP2 ADD SWAP2 SWAP1 DUP12 SWAP1 DUP12 SWAP1 DUP2 SWAP1 DUP5 ADD DUP4 DUP3 DUP1 DUP3 DUP5 CALLDATACOPY PUSH1 0x0 SWAP3 ADD SWAP2 SWAP1 SWAP2 MSTORE POP POP POP SWAP1 DUP3 MSTORE POP ADDRESS PUSH1 0x20 DUP1 DUP4 ADD SWAP2 SWAP1 SWAP2 MSTORE PUSH1 0x40 DUP1 MLOAD PUSH1 0x1F DUP11 ADD DUP4 SWAP1 DIV DUP4 MUL DUP2 ADD DUP4 ADD DUP3 MSTORE DUP10 DUP2 MSTORE SWAP3 ADD SWAP2 SWAP1 DUP10 SWAP1 DUP10 SWAP1 DUP2 SWAP1 DUP5 ADD DUP4 DUP3 DUP1 DUP3 DUP5 CALLDATACOPY PUSH1 0x0 SWAP3 ADD DUP3 SWAP1 MSTORE POP SWAP4 DUP6 MSTORE POP POP PUSH1 0x1 PUSH1 0x20 DUP5 ADD MSTORE POP PUSH1 0x40 DUP1 DUP4 ADD DUP3 SWAP1 MSTORE PUSH1 0x60 DUP1 DUP5 ADD DUP4 SWAP1 MSTORE PUSH1 0x80 DUP5 ADD DUP8 SWAP1 MSTORE PUSH1 0xA0 DUP5 ADD DUP8 SWAP1 MSTORE PUSH1 0xC0 DUP5 ADD DUP9 SWAP1 MSTORE PUSH1 0xE0 DUP5 ADD DUP10 SWAP1 MSTORE PUSH2 0x100 DUP5 ADD DUP8 SWAP1 MSTORE PUSH1 0x8 PUSH2 0x120 SWAP1 SWAP5 ADD SWAP4 SWAP1 SWAP4 MSTORE DUP1 MLOAD PUSH1 0x2 DUP1 DUP3 MSTORE SWAP4 DUP2 ADD SWAP1 SWAP2 MSTORE SWAP3 SWAP4 POP SWAP2 SWAP1 DUP2 PUSH1 0x20 ADD PUSH1 0x20 DUP3 MUL DUP1 CALLDATASIZE DUP4 CALLDATACOPY ADD SWAP1 POP POP SWAP1 POP PUSH1 0x1 DUP2 PUSH1 0x0 DUP2 MLOAD DUP2 LT PUSH2 0xAC6 JUMPI PUSH2 0xAC6 PUSH2 0x2AEC JUMP JUMPDEST PUSH1 0x20 MUL PUSH1 0x20 ADD ADD SWAP1 PUSH1 0xFF AND SWAP1 DUP2 PUSH1 0xFF AND DUP2 MSTORE POP POP PUSH1 0x4 DUP2 PUSH1 0x1 DUP2 MLOAD DUP2 LT PUSH2 0xAEF JUMPI PUSH2 0xAEF PUSH2 0x2AEC JUMP JUMPDEST PUSH1 0xFF SWAP3 SWAP1 SWAP3 AND PUSH1 0x20 SWAP3 DUP4 MUL SWAP2 SWAP1 SWAP2 ADD DUP3 ADD MSTORE PUSH1 0x40 DUP1 MLOAD PUSH1 0x2 DUP1 DUP3 MSTORE PUSH1 0x60 DUP3 ADD DUP4 MSTORE PUSH1 0x0 SWAP4 SWAP2 SWAP3 SWAP1 SWAP2 DUP4 ADD SWAP1 DUP1 CALLDATASIZE DUP4 CALLDATACOPY POP POP PUSH1 0x3 SLOAD DUP3 MLOAD SWAP3 SWAP4 POP PUSH1 0x1 PUSH1 0x1 PUSH1 0xA0 SHL SUB AND SWAP2 DUP4 SWAP2 POP PUSH1 0x0 SWAP1 PUSH2 0xB44 JUMPI PUSH2 0xB44 PUSH2 0x2AEC JUMP JUMPDEST PUSH1 0x20 MUL PUSH1 0x20 ADD ADD SWAP1 PUSH1 0x1 PUSH1 0x1 PUSH1 0xA0 SHL SUB AND SWAP1 DUP2 PUSH1 0x1 PUSH1 0x1 PUSH1 0xA0 SHL SUB AND DUP2 MSTORE POP POP ADDRESS DUP2 PUSH1 0x1 DUP2 MLOAD DUP2 LT PUSH2 0xB78 JUMPI PUSH2 0xB78 PUSH2 0x2AEC JUMP JUMPDEST PUSH1 0x1 PUSH1 0x1 PUSH1 0xA0 SHL SUB SWAP3 DUP4 AND PUSH1 0x20 SWAP2 DUP3 MUL SWAP3 SWAP1 SWAP3 ADD ADD MSTORE PUSH1 0x7 SLOAD PUSH1 0x40 MLOAD PUSH3 0xDB1065 PUSH1 0xE1 SHL DUP2 MSTORE PUSH1 0x0 SWAP3 DUP4 SWAP3 PUSH2 0x100 SWAP1 DIV AND SWAP1 PUSH4 0x1B620CA SWAP1 DUP4 SWAP1 PUSH2 0xBC5 SWAP1 DUP10 SWAP1 DUP4 SWAP1 DUP11 SWAP1 DUP11 SWAP1 PUSH1 0x4 ADD PUSH2 0x2BBF JUMP JUMPDEST PUSH1 0x40 DUP1 MLOAD DUP1 DUP4 SUB DUP2 DUP6 DUP9 GAS CALL ISZERO DUP1 ISZERO PUSH2 0xBE2 JUMPI RETURNDATASIZE PUSH1 0x0 DUP1 RETURNDATACOPY RETURNDATASIZE PUSH1 0x0 REVERT JUMPDEST POP POP POP POP POP PUSH1 0x40 MLOAD RETURNDATASIZE PUSH1 0x1F NOT PUSH1 0x1F DUP3 ADD AND DUP3 ADD DUP1 PUSH1 0x40 MSTORE POP DUP2 ADD SWAP1 PUSH2 0xC07 SWAP2 SWAP1 PUSH2 0x2D68 JUMP JUMPDEST SWAP2 POP SWAP2 POP DUP2 PUSH1 0x7 SIGNEXTEND PUSH1 0x0 EQ PUSH2 0xC34 JUMPI PUSH1 0x40 MLOAD PUSH3 0x2A27BF PUSH1 0xE0 SHL DUP2 MSTORE PUSH1 0x7 DUP4 SWAP1 SIGNEXTEND PUSH1 0x4 DUP3 ADD MSTORE PUSH1 0x24 ADD PUSH2 0x8CC JUMP JUMPDEST PUSH1 0x0 DUP1 SLOAD PUSH1 0x1 PUSH1 0x1 PUSH1 0xA0 SHL SUB NOT AND PUSH1 0x1 PUSH1 0x1 PUSH1 0xA0 SHL SUB DUP4 DUP2 AND SWAP2 SWAP1 SWAP2 OR DUP3 SSTORE PUSH1 0x7 SLOAD PUSH1 0x40 MLOAD PUSH4 0x248A35EF PUSH1 0xE1 SHL DUP2 MSTORE PUSH2 0x100 SWAP1 SWAP2 DIV SWAP1 SWAP2 AND SWAP1 PUSH4 0x49146BDE SWAP1 PUSH2 0xC83 SWAP1 ADDRESS SWAP1 DUP7 SWAP1 PUSH1 0x4 ADD PUSH2 0x2A84 JUMP JUMPDEST PUSH1 0x20 PUSH1 0x40 MLOAD DUP1 DUP4 SUB DUP2 PUSH1 0x0 DUP8 GAS CALL ISZERO DUP1 ISZERO PUSH2 0xCA2 JUMPI RETURNDATASIZE PUSH1 0x0 DUP1 RETURNDATACOPY RETURNDATASIZE PUSH1 0x0 REVERT JUMPDEST POP POP POP POP PUSH1 0x40 MLOAD RETURNDATASIZE PUSH1 0x1F NOT PUSH1 0x1F DUP3 ADD AND DUP3 ADD DUP1 PUSH1 0x40 MSTORE POP DUP2 ADD SWAP1 PUSH2 0xCC6 SWAP2 SWAP1 PUSH2 0x2AB5 JUMP JUMPDEST SWAP1 POP PUSH2 0xCD0 PUSH2 0x2793 JUMP JUMPDEST PUSH32 0x3C6983BEB442F69AB2BB278A324E9CC5184D0E8E3B8EACBD06DD6F157738420A DUP3 DUP5 PUSH1 0x40 MLOAD PUSH2 0xD01 SWAP3 SWAP2 SWAP1 PUSH2 0x2AD0 JUMP JUMPDEST PUSH1 0x40 MLOAD DUP1 SWAP2 SUB SWAP1 LOG1 POP POP POP POP POP POP POP POP POP POP POP POP POP POP POP JUMP JUMPDEST PUSH1 0x3 SLOAD PUSH1 0x1 PUSH1 0x1 PUSH1 0xA0 SHL SUB AND CALLER EQ PUSH2 0xD45 JUMPI PUSH1 0x40 MLOAD PUSH4 0x47556579 PUSH1 0xE0 SHL DUP2 MSTORE PUSH1 0x4 ADD PUSH1 0x40 MLOAD DUP1 SWAP2 SUB SWAP1 REVERT JUMPDEST PUSH1 0x4 DUP4 SWAP1 SSTORE PUSH1 0x5 DUP3 SWAP1 SSTORE PUSH1 0x6 DUP2 SWAP1 SSTORE PUSH1 0x40 DUP1 MLOAD DUP5 DUP2 MSTORE PUSH1 0x20 DUP2 ADD DUP5 SWAP1 MSTORE SWAP1 DUP2 ADD DUP3 SWAP1 MSTORE PUSH32 0xE2F5C8588887234E6A368CA64E432B81B636580FE80AC266013C33040122E040 SWAP1 PUSH1 0x60 ADD PUSH2 0x83F JUMP JUMPDEST PUSH1 0x3 SLOAD PUSH1 0x1 PUSH1 0x1 PUSH1 0xA0 SHL SUB AND CALLER EQ PUSH2 0xDBD JUMPI PUSH1 0x40 MLOAD PUSH4 0x47556579 PUSH1 0xE0 SHL DUP2 MSTORE PUSH1 0x4 ADD PUSH1 0x40 MLOAD DUP1 SWAP2 SUB SWAP1 REVERT JUMPDEST PUSH1 0x7 DUP1 SLOAD PUSH1 0xFF NOT AND DUP3 ISZERO ISZERO SWAP1 DUP2 OR SWAP1 SWAP2 SSTORE PUSH1 0x40 MLOAD SWAP1 DUP2 MSTORE PUSH32 0x40A36E95E1165E03B5C30095CD9D1E9FA9D8AA98D06AA1D6432A77718C0B68F0 SWAP1 PUSH1 0x20 ADD PUSH1 0x40 MLOAD DUP1 SWAP2 SUB SWAP1 LOG1 POP JUMP JUMPDEST PUSH1 0x7 SLOAD PUSH1 0xFF AND PUSH2 0xE27 JUMPI PUSH1 0x40 MLOAD PUSH4 0xB2915999 PUSH1 0xE0 SHL DUP2 MSTORE PUSH1 0x4 ADD PUSH1 0x40 MLOAD DUP1 SWAP2 SUB SWAP1 REVERT JUMPDEST DUP1 PUSH1 0x0 SUB PUSH2 0xE48 JUMPI PUSH1 0x40 MLOAD PUSH4 0x162908E3 PUSH1 0xE1 SHL DUP2 MSTORE PUSH1 0x4 ADD PUSH1 0x40 MLOAD DUP1 SWAP2 SUB SWAP1 REVERT JUMPDEST PUSH1 0x0 PUSH1 0x4 SLOAD DUP3 PUSH2 0xE58 SWAP2 SWAP1 PUSH2 0x2D9F JUMP JUMPDEST SWAP1 POP PUSH1 0x0 PUSH1 0x5 SLOAD DUP4 PUSH2 0xE6A SWAP2 SWAP1 PUSH2 0x2D9F JUMP JUMPDEST SWAP1 POP PUSH1 0x0 PUSH1 0x6 SLOAD DUP5 PUSH2 0xE7C SWAP2 SWAP1 PUSH2 0x2D9F JUMP JUMPDEST PUSH1 0x7 SLOAD PUSH1 0x0 DUP1 SLOAD PUSH1 0x40 MLOAD PUSH4 0x927DA105 PUSH1 0xE0 SHL DUP2 MSTORE SWAP4 SWAP5 POP SWAP1 SWAP3 PUSH1 0x1 PUSH1 0x1 PUSH1 0xA0 SHL SUB PUSH2 0x100 SWAP1 SWAP4 DIV DUP4 AND SWAP3 PUSH4 0x927DA105 SWAP3 PUSH2 0xEBF SWAP3 SWAP2 AND SWAP1 CALLER SWAP1 ADDRESS SWAP1 PUSH1 0x4 ADD PUSH2 0x2A61 JUMP JUMPDEST PUSH1 0x20 PUSH1 0x40 MLOAD DUP1 DUP4 SUB DUP2 DUP7 GAS STATICCALL ISZERO DUP1 ISZERO PUSH2 0xEDC JUMPI RETURNDATASIZE PUSH1 0x0 DUP1 RETURNDATACOPY RETURNDATASIZE PUSH1 0x0 REVERT JUMPDEST POP POP POP POP PUSH1 0x40 MLOAD RETURNDATASIZE PUSH1 0x1F NOT PUSH1 0x1F DUP3 ADD AND DUP3 ADD DUP1 PUSH1 0x40 MSTORE POP DUP2 ADD SWAP1 PUSH2 0xF00 SWAP2 SWAP1 PUSH2 0x2DC4 JUMP JUMPDEST SWAP1 POP DUP5 DUP2 LT ISZERO PUSH2 0xF2D JUMPI PUSH1 0x40 MLOAD PUSH4 0x16009C83 PUSH1 0xE0 SHL DUP2 MSTORE PUSH1 0x4 DUP2 ADD DUP3 SWAP1 MSTORE PUSH1 0x24 DUP2 ADD DUP7 SWAP1 MSTORE PUSH1 0x44 ADD PUSH2 0x8CC JUMP JUMPDEST DUP4 SELFBALANCE LT ISZERO PUSH2 0xF5E JUMPI PUSH1 0x40 MLOAD PUSH4 0x4390211D PUSH1 0xE1 SHL DUP2 MSTORE PUSH1 0x0 PUSH1 0x4 DUP3 ADD MSTORE SELFBALANCE PUSH1 0x24 DUP3 ADD MSTORE PUSH1 0x44 DUP2 ADD DUP6 SWAP1 MSTORE PUSH1 0x64 ADD PUSH2 0x8CC JUMP JUMPDEST PUSH1 0x7 SLOAD PUSH1 0x1 SLOAD PUSH1 0x40 MLOAD PUSH4 0x3DE222BB PUSH1 0xE2 SHL DUP2 MSTORE PUSH1 0x0 SWAP3 PUSH2 0x100 SWAP1 DIV PUSH1 0x1 PUSH1 0x1 PUSH1 0xA0 SHL SUB SWAP1 DUP2 AND SWAP3 PUSH4 0xF7888AEC SWAP3 PUSH2 0xF9D SWAP3 SWAP1 SWAP2 AND SWAP1 ADDRESS SWAP1 PUSH1 0x4 ADD PUSH2 0x2A84 JUMP JUMPDEST PUSH1 0x20 PUSH1 0x40 MLOAD DUP1 DUP4 SUB DUP2 DUP7 GAS STATICCALL ISZERO DUP1 ISZERO PUSH2 0xFBA JUMPI RETURNDATASIZE PUSH1 0x0 DUP1 RETURNDATACOPY RETURNDATASIZE PUSH1 0x0 REVERT JUMPDEST POP POP POP POP PUSH1 0x40 MLOAD RETURNDATASIZE PUSH1 0x1F NOT PUSH1 0x1F DUP3 ADD AND DUP3 ADD DUP1 PUSH1 0x40 MSTORE POP DUP2 ADD SWAP1 PUSH2 0xFDE SWAP2 SWAP1 PUSH2 0x2DC4 JUMP JUMPDEST SWAP1 POP DUP4 DUP2 LT ISZERO PUSH2 0x101E JUMPI PUSH1 0x1 SLOAD PUSH1 0x40 MLOAD PUSH4 0x4390211D PUSH1 0xE1 SHL DUP2 MSTORE PUSH1 0x1 PUSH1 0x1 PUSH1 0xA0 SHL SUB SWAP1 SWAP2 AND PUSH1 0x4 DUP3 ADD MSTORE PUSH1 0x24 DUP2 ADD DUP3 SWAP1 MSTORE PUSH1 0x44 DUP2 ADD DUP6 SWAP1 MSTORE PUSH1 0x64 ADD PUSH2 0x8CC JUMP JUMPDEST PUSH1 0x7 SLOAD PUSH1 0x2 SLOAD PUSH1 0x40 MLOAD PUSH4 0x3DE222BB PUSH1 0xE2 SHL DUP2 MSTORE PUSH1 0x0 SWAP3 PUSH2 0x100 SWAP1 DIV PUSH1 0x1 PUSH1 0x1 PUSH1 0xA0 SHL SUB SWAP1 DUP2 AND SWAP3 PUSH4 0xF7888AEC SWAP3 PUSH2 0x105D SWAP3 SWAP1 SWAP2 AND SWAP1 ADDRESS SWAP1 PUSH1 0x4 ADD PUSH2 0x2A84 JUMP JUMPDEST PUSH1 0x20 PUSH1 0x40 MLOAD DUP1 DUP4 SUB DUP2 DUP7 GAS STATICCALL ISZERO DUP1 ISZERO PUSH2 0x107A JUMPI RETURNDATASIZE PUSH1 0x0 DUP1 RETURNDATACOPY RETURNDATASIZE PUSH1 0x0 REVERT JUMPDEST POP POP POP POP PUSH1 0x40 MLOAD RETURNDATASIZE PUSH1 0x1F NOT PUSH1 0x1F DUP3 ADD AND DUP3 ADD DUP1 PUSH1 0x40 MSTORE POP DUP2 ADD SWAP1 PUSH2 0x109E SWAP2 SWAP1 PUSH2 0x2DC4 JUMP JUMPDEST SWAP1 POP DUP4 DUP2 LT ISZERO PUSH2 0x10DE JUMPI PUSH1 0x2 SLOAD PUSH1 0x40 MLOAD PUSH4 0x4390211D PUSH1 0xE1 SHL DUP2 MSTORE PUSH1 0x1 PUSH1 0x1 PUSH1 0xA0 SHL SUB SWAP1 SWAP2 AND PUSH1 0x4 DUP3 ADD MSTORE PUSH1 0x24 DUP2 ADD DUP3 SWAP1 MSTORE PUSH1 0x44 DUP2 ADD DUP6 SWAP1 MSTORE PUSH1 0x64 ADD PUSH2 0x8CC JUMP JUMPDEST PUSH1 0x7 SLOAD PUSH1 0x0 DUP1 SLOAD PUSH1 0x40 MLOAD PUSH4 0x2C54DE4F PUSH1 0xE0 SHL DUP2 MSTORE SWAP2 SWAP3 PUSH1 0x1 PUSH1 0x1 PUSH1 0xA0 SHL SUB PUSH2 0x100 SWAP1 SWAP2 DIV DUP2 AND SWAP3 PUSH4 0x2C54DE4F SWAP3 PUSH2 0x111F SWAP3 AND SWAP1 CALLER SWAP1 ADDRESS SWAP1 DUP15 SWAP1 PUSH1 0x4 ADD PUSH2 0x2DDD JUMP JUMPDEST PUSH1 0x20 PUSH1 0x40 MLOAD DUP1 DUP4 SUB DUP2 PUSH1 0x0 DUP8 GAS CALL ISZERO DUP1 ISZERO PUSH2 0x113E JUMPI RETURNDATASIZE PUSH1 0x0 DUP1 RETURNDATACOPY RETURNDATASIZE PUSH1 0x0 REVERT JUMPDEST POP POP POP POP PUSH1 0x40 MLOAD RETURNDATASIZE PUSH1 0x1F NOT PUSH1 0x1F DUP3 ADD AND DUP3 ADD DUP1 PUSH1 0x40 MSTORE POP DUP2 ADD SWAP1 PUSH2 0x1162 SWAP2 SWAP1 PUSH2 0x2AB5 JUMP JUMPDEST SWAP1 POP DUP1 PUSH1 0x7 SIGNEXTEND PUSH1 0x0 EQ PUSH2 0x1197 JUMPI PUSH1 0x0 SLOAD PUSH1 0x40 MLOAD PUSH4 0x53B93657 PUSH1 0xE0 SHL DUP2 MSTORE PUSH2 0x8CC SWAP2 PUSH1 0x1 PUSH1 0x1 PUSH1 0xA0 SHL SUB AND SWAP1 DUP4 SWAP1 PUSH1 0x4 ADD PUSH2 0x2AD0 JUMP JUMPDEST PUSH1 0x40 DUP1 MLOAD PUSH1 0x0 DUP1 DUP3 MSTORE PUSH1 0x20 DUP3 ADD SWAP1 SWAP3 MSTORE DUP2 PUSH2 0x11C2 JUMP JUMPDEST PUSH1 0x60 DUP2 MSTORE PUSH1 0x20 ADD SWAP1 PUSH1 0x1 SWAP1 SUB SWAP1 DUP2 PUSH2 0x11AD JUMPI SWAP1 POP JUMPDEST POP PUSH1 0x7 SLOAD PUSH1 0x0 DUP1 SLOAD PUSH1 0x40 MLOAD PUSH4 0x79FE3B7D PUSH1 0xE1 SHL DUP2 MSTORE SWAP4 SWAP5 POP SWAP1 SWAP3 PUSH1 0x1 PUSH1 0x1 PUSH1 0xA0 SHL SUB PUSH2 0x100 SWAP1 SWAP4 DIV DUP4 AND SWAP3 PUSH4 0xF3FC76FA SWAP3 PUSH2 0x1206 SWAP3 SWAP2 AND SWAP1 DUP15 SWAP1 DUP8 SWAP1 PUSH1 0x4 ADD PUSH2 0x2E5C JUMP JUMPDEST PUSH1 0x20 PUSH1 0x40 MLOAD DUP1 DUP4 SUB DUP2 PUSH1 0x0 DUP8 GAS CALL ISZERO DUP1 ISZERO PUSH2 0x1225 JUMPI RETURNDATASIZE PUSH1 0x0 DUP1 RETURNDATACOPY RETURNDATASIZE PUSH1 0x0 REVERT JUMPDEST POP POP POP POP PUSH1 0x40 MLOAD RETURNDATASIZE PUSH1 0x1F NOT PUSH1 0x1F DUP3 ADD AND DUP3 ADD DUP1 PUSH1 0x40 MSTORE POP DUP2 ADD SWAP1 PUSH2 0x1249 SWAP2 SWAP1 PUSH2 0x2AB5 JUMP JUMPDEST SWAP1 POP DUP1 PUSH1 0x7 SIGNEXTEND PUSH1 0x0 EQ PUSH2 0x127E JUMPI PUSH1 0x0 SLOAD PUSH1 0x40 MLOAD PUSH4 0x272BCE3 PUSH1 0xE2 SHL DUP2 MSTORE PUSH2 0x8CC SWAP2 PUSH1 0x1 PUSH1 0x1 PUSH1 0xA0 SHL SUB AND SWAP1 DUP4 SWAP1 PUSH1 0x4 ADD PUSH2 0x2AD0 JUMP JUMPDEST PUSH1 0x7 SLOAD PUSH1 0x1 SLOAD PUSH1 0x40 MLOAD PUSH4 0x2C54DE4F PUSH1 0xE0 SHL DUP2 MSTORE PUSH1 0x0 SWAP3 PUSH2 0x100 SWAP1 DIV PUSH1 0x1 PUSH1 0x1 PUSH1 0xA0 SHL SUB SWAP1 DUP2 AND SWAP3 PUSH4 0x2C54DE4F SWAP3 PUSH2 0x12C1 SWAP3 SWAP1 SWAP2 AND SWAP1 ADDRESS SWAP1 CALLER SWAP1 DUP16 SWAP1 PUSH1 0x4 ADD PUSH2 0x2DDD JUMP JUMPDEST PUSH1 0x20 PUSH1 0x40 MLOAD DUP1 DUP4 SUB DUP2 PUSH1 0x0 DUP8 GAS CALL ISZERO DUP1 ISZERO PUSH2 0x12E0 JUMPI RETURNDATASIZE PUSH1 0x0 DUP1 RETURNDATACOPY RETURNDATASIZE PUSH1 0x0 REVERT JUMPDEST POP POP POP POP PUSH1 0x40 MLOAD RETURNDATASIZE PUSH1 0x1F NOT PUSH1 0x1F DUP3 ADD AND DUP3 ADD DUP1 PUSH1 0x40 MSTORE POP DUP2 ADD SWAP1 PUSH2 0x1304 SWAP2 SWAP1 PUSH2 0x2AB5 JUMP JUMPDEST SWAP1 POP DUP1 PUSH1 0x7 SIGNEXTEND PUSH1 0x0 EQ PUSH2 0x1339 JUMPI PUSH1 0x1 SLOAD PUSH1 0x40 MLOAD PUSH4 0x53B93657 PUSH1 0xE0 SHL DUP2 MSTORE PUSH2 0x8CC SWAP2 PUSH1 0x1 PUSH1 0x1 PUSH1 0xA0 SHL SUB AND SWAP1 DUP4 SWAP1 PUSH1 0x4 ADD PUSH2 0x2AD0 JUMP JUMPDEST PUSH1 0x7 SLOAD PUSH1 0x2 SLOAD PUSH1 0x40 MLOAD PUSH4 0x2C54DE4F PUSH1 0xE0 SHL DUP2 MSTORE PUSH1 0x0 SWAP3 PUSH2 0x100 SWAP1 DIV PUSH1 0x1 PUSH1 0x1 PUSH1 0xA0 SHL SUB SWAP1 DUP2 AND SWAP3 PUSH4 0x2C54DE4F SWAP3 PUSH2 0x137C SWAP3 SWAP1 SWAP2 AND SWAP1 ADDRESS SWAP1 CALLER SWAP1 DUP16 SWAP1 PUSH1 0x4 ADD PUSH2 0x2DDD JUMP JUMPDEST PUSH1 0x20 PUSH1 0x40 MLOAD DUP1 DUP4 SUB DUP2 PUSH1 0x0 DUP8 GAS CALL ISZERO DUP1 ISZERO PUSH2 0x139B JUMPI RETURNDATASIZE PUSH1 0x0 DUP1 RETURNDATACOPY RETURNDATASIZE PUSH1 0x0 REVERT JUMPDEST POP POP POP POP PUSH1 0x40 MLOAD RETURNDATASIZE PUSH1 0x1F NOT PUSH1 0x1F DUP3 ADD AND DUP3 ADD DUP1 PUSH1 0x40 MSTORE POP DUP2 ADD SWAP1 PUSH2 0x13BF SWAP2 SWAP1 PUSH2 0x2AB5 JUMP JUMPDEST SWAP1 POP DUP1 PUSH1 0x7 SIGNEXTEND PUSH1 0x0 EQ PUSH2 0x13F4 JUMPI PUSH1 0x2 SLOAD PUSH1 0x40 MLOAD PUSH4 0x53B93657 PUSH1 0xE0 SHL DUP2 MSTORE PUSH2 0x8CC SWAP2 PUSH1 0x1 PUSH1 0x1 PUSH1 0xA0 SHL SUB AND SWAP1 DUP4 SWAP1 PUSH1 0x4 ADD PUSH2 0x2AD0 JUMP JUMPDEST PUSH1 0x40 MLOAD PUSH1 0x0 SWAP1 CALLER SWAP1 DUP14 SWAP1 DUP4 DUP2 DUP2 DUP2 DUP6 DUP8 GAS CALL SWAP3 POP POP POP RETURNDATASIZE DUP1 PUSH1 0x0 DUP2 EQ PUSH2 0x1436 JUMPI PUSH1 0x40 MLOAD SWAP2 POP PUSH1 0x1F NOT PUSH1 0x3F RETURNDATASIZE ADD AND DUP3 ADD PUSH1 0x40 MSTORE RETURNDATASIZE DUP3 MSTORE RETURNDATASIZE PUSH1 0x0 PUSH1 0x20 DUP5 ADD RETURNDATACOPY PUSH2 0x143B JUMP JUMPDEST PUSH1 0x60 SWAP2 POP JUMPDEST POP POP SWAP1 POP DUP1 PUSH2 0x145D JUMPI PUSH1 0x40 MLOAD PUSH4 0x78BD7383 PUSH1 0xE1 SHL DUP2 MSTORE PUSH1 0x4 ADD PUSH1 0x40 MLOAD DUP1 SWAP2 SUB SWAP1 REVERT JUMPDEST PUSH1 0x40 DUP1 MLOAD DUP15 DUP2 MSTORE PUSH1 0x20 DUP2 ADD DUP15 SWAP1 MSTORE SWAP1 DUP2 ADD DUP13 SWAP1 MSTORE PUSH1 0x60 DUP2 ADD DUP12 SWAP1 MSTORE CALLER SWAP1 PUSH32 0xA99E3EA632FCDC816B71D0E418DC65B991272AD5BBDD78F5CCF117BFE076B41 SWAP1 PUSH1 0x80 ADD PUSH1 0x40 MLOAD DUP1 SWAP2 SUB SWAP1 LOG2 POP POP POP POP POP POP POP POP POP POP POP POP POP JUMP JUMPDEST PUSH1 0x3 SLOAD PUSH1 0x1 PUSH1 0x1 PUSH1 0xA0 SHL SUB AND CALLER EQ PUSH2 0x14E1 JUMPI PUSH1 0x40 MLOAD PUSH4 0x47556579 PUSH1 0xE0 SHL DUP2 MSTORE PUSH1 0x4 ADD PUSH1 0x40 MLOAD DUP1 SWAP2 SUB SWAP1 REVERT JUMPDEST PUSH1 0x7 DUP1 SLOAD PUSH1 0x1 PUSH1 0x1 PUSH1 0xA0 SHL SUB SWAP1 SWAP3 AND PUSH2 0x100 MUL PUSH2 0x100 PUSH1 0x1 PUSH1 0xA8 SHL SUB NOT SWAP1 SWAP3 AND SWAP2 SWAP1 SWAP2 OR SWAP1 SSTORE JUMP JUMPDEST PUSH1 0x7 SLOAD PUSH1 0x1 SLOAD PUSH1 0x40 MLOAD PUSH4 0x927DA105 PUSH1 0xE0 SHL DUP2 MSTORE PUSH1 0x0 SWAP3 DUP4 SWAP3 DUP4 SWAP3 PUSH1 0x1 PUSH1 0x1 PUSH1 0xA0 SHL SUB PUSH2 0x100 SWAP1 SWAP4 DIV DUP4 AND SWAP3 PUSH4 0x927DA105 SWAP3 PUSH2 0x154D SWAP3 SWAP2 AND SWAP1 DUP9 SWAP1 ADDRESS SWAP1 PUSH1 0x4 ADD PUSH2 0x2A61 JUMP JUMPDEST PUSH1 0x20 PUSH1 0x40 MLOAD DUP1 DUP4 SUB DUP2 DUP7 GAS STATICCALL ISZERO DUP1 ISZERO PUSH2 0x156A JUMPI RETURNDATASIZE PUSH1 0x0 DUP1 RETURNDATACOPY RETURNDATASIZE PUSH1 0x0 REVERT JUMPDEST POP POP POP POP PUSH1 0x40 MLOAD RETURNDATASIZE PUSH1 0x1F NOT PUSH1 0x1F DUP3 ADD AND DUP3 ADD DUP1 PUSH1 0x40 MSTORE POP DUP2 ADD SWAP1 PUSH2 0x158E SWAP2 SWAP1 PUSH2 0x2DC4 JUMP JUMPDEST PUSH1 0x7 SLOAD PUSH1 0x2 SLOAD PUSH1 0x40 MLOAD PUSH4 0x927DA105 PUSH1 0xE0 SHL DUP2 MSTORE SWAP3 SWAP6 POP PUSH1 0x1 PUSH1 0x1 PUSH1 0xA0 SHL SUB PUSH2 0x100 SWAP1 SWAP3 DIV DUP3 AND SWAP3 PUSH4 0x927DA105 SWAP3 PUSH2 0x15CD SWAP3 AND SWAP1 DUP9 SWAP1 ADDRESS SWAP1 PUSH1 0x4 ADD PUSH2 0x2A61 JUMP JUMPDEST PUSH1 0x20 PUSH1 0x40 MLOAD DUP1 DUP4 SUB DUP2 DUP7 GAS STATICCALL ISZERO DUP1 ISZERO PUSH2 0x15EA JUMPI RETURNDATASIZE PUSH1 0x0 DUP1 RETURNDATACOPY RETURNDATASIZE PUSH1 0x0 REVERT JUMPDEST POP POP POP POP PUSH1 0x40 MLOAD RETURNDATASIZE PUSH1 0x1F NOT PUSH1 0x1F DUP3 ADD AND DUP3 ADD DUP1 PUSH1 0x40 MSTORE POP DUP2 ADD SWAP1 PUSH2 0x160E SWAP2 SWAP1 PUSH2 0x2DC4 JUMP JUMPDEST PUSH1 0x7 SLOAD PUSH1 0x0 SLOAD PUSH1 0x40 MLOAD PUSH4 0x927DA105 PUSH1 0xE0 SHL DUP2 MSTORE SWAP3 SWAP5 POP PUSH1 0x1 PUSH1 0x1 PUSH1 0xA0 SHL SUB PUSH2 0x100 SWAP1 SWAP3 DIV DUP3 AND SWAP3 PUSH4 0x927DA105 SWAP3 PUSH2 0x164D SWAP3 AND SWAP1 DUP9 SWAP1 ADDRESS SWAP1 PUSH1 0x4 ADD PUSH2 0x2A61 JUMP JUMPDEST PUSH1 0x20 PUSH1 0x40 MLOAD DUP1 DUP4 SUB DUP2 DUP7 GAS STATICCALL ISZERO DUP1 ISZERO PUSH2 0x166A JUMPI RETURNDATASIZE PUSH1 0x0 DUP1 RETURNDATACOPY RETURNDATASIZE PUSH1 0x0 REVERT JUMPDEST POP POP POP POP PUSH1 0x40 MLOAD RETURNDATASIZE PUSH1 0x1F NOT PUSH1 0x1F DUP3 ADD AND DUP3 ADD DUP1 PUSH1 0x40 MSTORE POP DUP2 ADD SWAP1 PUSH2 0x168E SWAP2 SWAP1 PUSH2 0x2DC4 JUMP JUMPDEST SWAP3 SWAP5 SWAP2 SWAP4 POP POP JUMP JUMPDEST PUSH1 0x0 PUSH1 0x4 SLOAD DUP3 PUSH2 0x16A6 SWAP2 SWAP1 PUSH2 0x2D9F JUMP JUMPDEST SWAP3 SWAP2 POP POP JUMP JUMPDEST PUSH1 0x7 SLOAD PUSH1 0xFF AND PUSH2 0x16CF JUMPI PUSH1 0x40 MLOAD PUSH4 0xB2915999 PUSH1 0xE0 SHL DUP2 MSTORE PUSH1 0x4 ADD PUSH1 0x40 MLOAD DUP1 SWAP2 SUB SWAP1 REVERT JUMPDEST DUP1 PUSH1 0x0 SUB PUSH2 0x16F0 JUMPI PUSH1 0x40 MLOAD PUSH4 0x162908E3 PUSH1 0xE1 SHL DUP2 MSTORE PUSH1 0x4 ADD PUSH1 0x40 MLOAD DUP1 SWAP2 SUB SWAP1 REVERT JUMPDEST PUSH1 0x0 PUSH1 0x4 SLOAD DUP3 PUSH2 0x1700 SWAP2 SWAP1 PUSH2 0x2D9F JUMP JUMPDEST SWAP1 POP PUSH1 0x0 PUSH1 0x6 SLOAD DUP4 PUSH2 0x1712 SWAP2 SWAP1 PUSH2 0x2D9F JUMP JUMPDEST SWAP1 POP DUP2 CALLVALUE EQ PUSH2 0x173D JUMPI PUSH1 0x40 MLOAD PUSH4 0x613F8E2F PUSH1 0xE1 SHL DUP2 MSTORE CALLVALUE PUSH1 0x4 DUP3 ADD MSTORE PUSH1 0x24 DUP2 ADD DUP4 SWAP1 MSTORE PUSH1 0x44 ADD PUSH2 0x8CC JUMP JUMPDEST PUSH1 0x7 SLOAD PUSH1 0x2 SLOAD PUSH1 0x40 MLOAD PUSH4 0x927DA105 PUSH1 0xE0 SHL DUP2 MSTORE PUSH1 0x0 SWAP3 PUSH2 0x100 SWAP1 DIV PUSH1 0x1 PUSH1 0x1 PUSH1 0xA0 SHL SUB SWAP1 DUP2 AND SWAP3 PUSH4 0x927DA105 SWAP3 PUSH2 0x177E SWAP3 SWAP1 SWAP2 AND SWAP1 CALLER SWAP1 ADDRESS SWAP1 PUSH1 0x4 ADD PUSH2 0x2A61 JUMP JUMPDEST PUSH1 0x20 PUSH1 0x40 MLOAD DUP1 DUP4 SUB DUP2 DUP7 GAS STATICCALL ISZERO DUP1 ISZERO PUSH2 0x179B JUMPI RETURNDATASIZE PUSH1 0x0 DUP1 RETURNDATACOPY RETURNDATASIZE PUSH1 0x0 REVERT JUMPDEST POP POP POP POP PUSH1 0x40 MLOAD RETURNDATASIZE PUSH1 0x1F NOT PUSH1 0x1F DUP3 ADD AND DUP3 ADD DUP1 PUSH1 0x40 MSTORE POP DUP2 ADD SWAP1 PUSH2 0x17BF SWAP2 SWAP1 PUSH2 0x2DC4 JUMP JUMPDEST SWAP1 POP DUP2 DUP2 LT ISZERO PUSH2 0x17EC JUMPI PUSH1 0x40 MLOAD PUSH4 0x3AB67DF PUSH1 0xE0 SHL DUP2 MSTORE PUSH1 0x4 DUP2 ADD DUP3 SWAP1 MSTORE PUSH1 0x24 DUP2 ADD DUP4 SWAP1 MSTORE PUSH1 0x44 ADD PUSH2 0x8CC JUMP JUMPDEST POP POP POP POP JUMP JUMPDEST PUSH1 0x3 SLOAD PUSH1 0x1 PUSH1 0x1 PUSH1 0xA0 SHL SUB AND CALLER EQ PUSH2 0x181D JUMPI PUSH1 0x40 MLOAD PUSH4 0x47556579 PUSH1 0xE0 SHL DUP2 MSTORE PUSH1 0x4 ADD PUSH1 0x40 MLOAD DUP1 SWAP2 SUB SWAP1 REVERT JUMPDEST PUSH1 0x0 SLOAD PUSH1 0x1 PUSH1 0x1 PUSH1 0xA0 SHL SUB AND ISZERO PUSH2 0x186F JUMPI PUSH1 0x40 MLOAD PUSH3 0x461BCD PUSH1 0xE5 SHL DUP2 MSTORE PUSH1 0x20 PUSH1 0x4 DUP3 ADD MSTORE PUSH1 0x16 PUSH1 0x24 DUP3 ADD MSTORE PUSH22 0x13165396081D1BDAD95B88185B1C9958591E481CD95D PUSH1 0x52 SHL PUSH1 0x44 DUP3 ADD MSTORE PUSH1 0x64 ADD PUSH2 0x8CC JUMP JUMPDEST PUSH1 0x1 PUSH1 0x1 PUSH1 0xA0 SHL SUB DUP2 AND PUSH2 0x18C5 JUMPI PUSH1 0x40 MLOAD PUSH3 0x461BCD PUSH1 0xE5 SHL DUP2 MSTORE PUSH1 0x20 PUSH1 0x4 DUP3 ADD MSTORE PUSH1 0x1A PUSH1 0x24 DUP3 ADD MSTORE PUSH32 0x43616E6E6F742073657420746F207A65726F2061646472657373000000000000 PUSH1 0x44 DUP3 ADD MSTORE PUSH1 0x64 ADD PUSH2 0x8CC JUMP JUMPDEST PUSH1 0x0 DUP1 SLOAD PUSH1 0x1 PUSH1 0x1 PUSH1 0xA0 SHL SUB NOT AND PUSH1 0x1 PUSH1 0x1 PUSH1 0xA0 SHL SUB DUP4 AND OR SWAP1 SSTORE PUSH2 0x18E8 PUSH2 0x2793 JUMP JUMPDEST PUSH1 0x40 MLOAD PUSH1 0x1 PUSH1 0x1 PUSH1 0xA0 SHL SUB DUP3 AND SWAP1 PUSH32 0x9D3F9BC754B67AECB97C012CCC6E3BCA03A800D329B1CAA33D2549B2945648FB SWAP1 PUSH1 0x0 SWAP1 LOG2 POP JUMP JUMPDEST PUSH1 0x0 PUSH1 0x6 SLOAD DUP3 PUSH2 0x16A6 SWAP2 SWAP1 PUSH2 0x2D9F JUMP JUMPDEST PUSH1 0x7 SLOAD PUSH1 0xFF AND PUSH2 0x1952 JUMPI PUSH1 0x40 MLOAD PUSH4 0xB2915999 PUSH1 0xE0 SHL DUP2 MSTORE PUSH1 0x4 ADD PUSH1 0x40 MLOAD DUP1 SWAP2 SUB SWAP1 REVERT JUMPDEST DUP1 PUSH1 0x0 SUB PUSH2 0x1973 JUMPI PUSH1 0x40 MLOAD PUSH4 0x162908E3 PUSH1 0xE1 SHL DUP2 MSTORE PUSH1 0x4 ADD PUSH1 0x40 MLOAD DUP1 SWAP2 SUB SWAP1 REVERT JUMPDEST PUSH1 0x0 PUSH1 0x4 SLOAD DUP3 PUSH2 0x1983 SWAP2 SWAP1 PUSH2 0x2D9F JUMP JUMPDEST SWAP1 POP PUSH1 0x0 PUSH1 0x5 SLOAD DUP4 PUSH2 0x1995 SWAP2 SWAP1 PUSH2 0x2D9F JUMP JUMPDEST SWAP1 POP PUSH1 0x0 PUSH1 0x6 SLOAD DUP5 PUSH2 0x19A7 SWAP2 SWAP1 PUSH2 0x2D9F JUMP JUMPDEST SWAP1 POP DUP3 CALLVALUE EQ PUSH2 0x19D2 JUMPI PUSH1 0x40 MLOAD PUSH4 0x613F8E2F PUSH1 0xE1 SHL DUP2 MSTORE CALLVALUE PUSH1 0x4 DUP3 ADD MSTORE PUSH1 0x24 DUP2 ADD DUP5 SWAP1 MSTORE PUSH1 0x44 ADD PUSH2 0x8CC JUMP JUMPDEST PUSH1 0x7 SLOAD PUSH1 0x0 SLOAD PUSH1 0x40 MLOAD PUSH4 0x1C97FA29 PUSH1 0xE2 SHL DUP2 MSTORE PUSH1 0x1 PUSH1 0x1 PUSH1 0xA0 SHL SUB PUSH2 0x100 SWAP1 SWAP4 DIV DUP4 AND SWAP3 PUSH4 0x725FE8A4 SWAP3 PUSH2 0x1A0D SWAP3 SWAP2 AND SWAP1 ADDRESS SWAP1 PUSH1 0x4 ADD PUSH2 0x2A84 JUMP JUMPDEST PUSH1 0x20 PUSH1 0x40 MLOAD DUP1 DUP4 SUB DUP2 DUP7 GAS STATICCALL ISZERO DUP1 ISZERO PUSH2 0x1A2A JUMPI RETURNDATASIZE PUSH1 0x0 DUP1 RETURNDATACOPY RETURNDATASIZE PUSH1 0x0 REVERT JUMPDEST POP POP POP POP PUSH1 0x40 MLOAD RETURNDATASIZE PUSH1 0x1F NOT PUSH1 0x1F DUP3 ADD AND DUP3 ADD DUP1 PUSH1 0x40 MSTORE POP DUP2 ADD SWAP1 PUSH2 0x1A4E SWAP2 SWAP1 PUSH2 0x2E8C JUMP JUMPDEST PUSH2 0x1A7A JUMPI PUSH1 0x0 SLOAD PUSH1 0x40 MLOAD PUSH4 0x2460BCBB PUSH1 0xE2 SHL DUP2 MSTORE PUSH2 0x8CC SWAP2 PUSH1 0x1 PUSH1 0x1 PUSH1 0xA0 SHL SUB AND SWAP1 ADDRESS SWAP1 PUSH1 0x4 ADD PUSH2 0x2A84 JUMP JUMPDEST PUSH1 0x7 SLOAD PUSH1 0x1 SLOAD PUSH1 0x40 MLOAD PUSH4 0x1C97FA29 PUSH1 0xE2 SHL DUP2 MSTORE PUSH1 0x1 PUSH1 0x1 PUSH1 0xA0 SHL SUB PUSH2 0x100 SWAP1 SWAP4 DIV DUP4 AND SWAP3 PUSH4 0x725FE8A4 SWAP3 PUSH2 0x1AB5 SWAP3 SWAP2 AND SWAP1 ADDRESS SWAP1 PUSH1 0x4 ADD PUSH2 0x2A84 JUMP JUMPDEST PUSH1 0x20 PUSH1 0x40 MLOAD DUP1 DUP4 SUB DUP2 DUP7 GAS STATICCALL ISZERO DUP1 ISZERO PUSH2 0x1AD2 JUMPI RETURNDATASIZE PUSH1 0x0 DUP1 RETURNDATACOPY RETURNDATASIZE PUSH1 0x0 REVERT JUMPDEST POP POP POP POP PUSH1 0x40 MLOAD RETURNDATASIZE PUSH1 0x1F NOT PUSH1 0x1F DUP3 ADD AND DUP3 ADD DUP1 PUSH1 0x40 MSTORE POP DUP2 ADD SWAP1 PUSH2 0x1AF6 SWAP2 SWAP1 PUSH2 0x2E8C JUMP JUMPDEST PUSH2 0x1B22 JUMPI PUSH1 0x1 SLOAD PUSH1 0x40 MLOAD PUSH4 0x2460BCBB PUSH1 0xE2 SHL DUP2 MSTORE PUSH2 0x8CC SWAP2 PUSH1 0x1 PUSH1 0x1 PUSH1 0xA0 SHL SUB AND SWAP1 ADDRESS SWAP1 PUSH1 0x4 ADD PUSH2 0x2A84 JUMP JUMPDEST PUSH1 0x7 SLOAD PUSH1 0x2 SLOAD PUSH1 0x40 MLOAD PUSH4 0x1C97FA29 PUSH1 0xE2 SHL DUP2 MSTORE PUSH1 0x1 PUSH1 0x1 PUSH1 0xA0 SHL SUB PUSH2 0x100 SWAP1 SWAP4 DIV DUP4 AND SWAP3 PUSH4 0x725FE8A4 SWAP3 PUSH2 0x1B5D SWAP3 SWAP2 AND SWAP1 ADDRESS SWAP1 PUSH1 0x4 ADD PUSH2 0x2A84 JUMP JUMPDEST PUSH1 0x20 PUSH1 0x40 MLOAD DUP1 DUP4 SUB DUP2 DUP7 GAS STATICCALL ISZERO DUP1 ISZERO PUSH2 0x1B7A JUMPI RETURNDATASIZE PUSH1 0x0 DUP1 RETURNDATACOPY RETURNDATASIZE PUSH1 0x0 REVERT JUMPDEST POP POP POP POP PUSH1 0x40 MLOAD RETURNDATASIZE PUSH1 0x1F NOT PUSH1 0x1F DUP3 ADD AND DUP3 ADD DUP1 PUSH1 0x40 MSTORE POP DUP2 ADD SWAP1 PUSH2 0x1B9E SWAP2 SWAP1 PUSH2 0x2E8C JUMP JUMPDEST PUSH2 0x1BCA JUMPI PUSH1 0x2 SLOAD PUSH1 0x40 MLOAD PUSH4 0x2460BCBB PUSH1 0xE2 SHL DUP2 MSTORE PUSH2 0x8CC SWAP2 PUSH1 0x1 PUSH1 0x1 PUSH1 0xA0 SHL SUB AND SWAP1 ADDRESS SWAP1 PUSH1 0x4 ADD PUSH2 0x2A84 JUMP JUMPDEST PUSH1 0x7 SLOAD PUSH1 0x0 SLOAD PUSH1 0x40 MLOAD PUSH4 0x1C97FA29 PUSH1 0xE2 SHL DUP2 MSTORE PUSH1 0x1 PUSH1 0x1 PUSH1 0xA0 SHL SUB PUSH2 0x100 SWAP1 SWAP4 DIV DUP4 AND SWAP3 PUSH4 0x725FE8A4 SWAP3 PUSH2 0x1C05 SWAP3 SWAP2 AND SWAP1 CALLER SWAP1 PUSH1 0x4 ADD PUSH2 0x2A84 JUMP JUMPDEST PUSH1 0x20 PUSH1 0x40 MLOAD DUP1 DUP4 SUB DUP2 DUP7 GAS STATICCALL ISZERO DUP1 ISZERO PUSH2 0x1C22 JUMPI RETURNDATASIZE PUSH1 0x0 DUP1 RETURNDATACOPY RETURNDATASIZE PUSH1 0x0 REVERT JUMPDEST POP POP POP POP PUSH1 0x40 MLOAD RETURNDATASIZE PUSH1 0x1F NOT PUSH1 0x1F DUP3 ADD AND DUP3 ADD DUP1 PUSH1 0x40 MSTORE POP DUP2 ADD SWAP1 PUSH2 0x1C46 SWAP2 SWAP1 PUSH2 0x2E8C JUMP JUMPDEST PUSH2 0x1C72 JUMPI PUSH1 0x0 SLOAD PUSH1 0x40 MLOAD PUSH4 0x2460BCBB PUSH1 0xE2 SHL DUP2 MSTORE PUSH2 0x8CC SWAP2 PUSH1 0x1 PUSH1 0x1 PUSH1 0xA0 SHL SUB AND SWAP1 CALLER SWAP1 PUSH1 0x4 ADD PUSH2 0x2A84 JUMP JUMPDEST PUSH1 0x7 SLOAD PUSH1 0x1 SLOAD PUSH1 0x40 MLOAD PUSH4 0x1C97FA29 PUSH1 0xE2 SHL DUP2 MSTORE PUSH1 0x1 PUSH1 0x1 PUSH1 0xA0 SHL SUB PUSH2 0x100 SWAP1 SWAP4 DIV DUP4 AND SWAP3 PUSH4 0x725FE8A4 SWAP3 PUSH2 0x1CAD SWAP3 SWAP2 AND SWAP1 CALLER SWAP1 PUSH1 0x4 ADD PUSH2 0x2A84 JUMP JUMPDEST PUSH1 0x20 PUSH1 0x40 MLOAD DUP1 DUP4 SUB DUP2 DUP7 GAS STATICCALL ISZERO DUP1 ISZERO PUSH2 0x1CCA JUMPI RETURNDATASIZE PUSH1 0x0 DUP1 RETURNDATACOPY RETURNDATASIZE PUSH1 0x0 REVERT JUMPDEST POP POP POP POP PUSH1 0x40 MLOAD RETURNDATASIZE PUSH1 0x1F NOT PUSH1 0x1F DUP3 ADD AND DUP3 ADD DUP1 PUSH1 0x40 MSTORE POP DUP2 ADD SWAP1 PUSH2 0x1CEE SWAP2 SWAP1 PUSH2 0x2E8C JUMP JUMPDEST PUSH2 0x1D1A JUMPI PUSH1 0x1 SLOAD PUSH1 0x40 MLOAD PUSH4 0x2460BCBB PUSH1 0xE2 SHL DUP2 MSTORE PUSH2 0x8CC SWAP2 PUSH1 0x1 PUSH1 0x1 PUSH1 0xA0 SHL SUB AND SWAP1 CALLER SWAP1 PUSH1 0x4 ADD PUSH2 0x2A84 JUMP JUMPDEST PUSH1 0x7 SLOAD PUSH1 0x2 SLOAD PUSH1 0x40 MLOAD PUSH4 0x1C97FA29 PUSH1 0xE2 SHL DUP2 MSTORE PUSH1 0x1 PUSH1 0x1 PUSH1 0xA0 SHL SUB PUSH2 0x100 SWAP1 SWAP4 DIV DUP4 AND SWAP3 PUSH4 0x725FE8A4 SWAP3 PUSH2 0x1D55 SWAP3 SWAP2 AND SWAP1 CALLER SWAP1 PUSH1 0x4 ADD PUSH2 0x2A84 JUMP JUMPDEST PUSH1 0x20 PUSH1 0x40 MLOAD DUP1 DUP4 SUB DUP2 DUP7 GAS STATICCALL ISZERO DUP1 ISZERO PUSH2 0x1D72 JUMPI RETURNDATASIZE PUSH1 0x0 DUP1 RETURNDATACOPY RETURNDATASIZE PUSH1 0x0 REVERT JUMPDEST POP POP POP POP PUSH1 0x40 MLOAD RETURNDATASIZE PUSH1 0x1F NOT PUSH1 0x1F DUP3 ADD AND DUP3 ADD DUP1 PUSH1 0x40 MSTORE POP DUP2 ADD SWAP1 PUSH2 0x1D96 SWAP2 SWAP1 PUSH2 0x2E8C JUMP JUMPDEST PUSH2 0x1DC2 JUMPI PUSH1 0x2 SLOAD PUSH1 0x40 MLOAD PUSH4 0x2460BCBB PUSH1 0xE2 SHL DUP2 MSTORE PUSH2 0x8CC SWAP2 PUSH1 0x1 PUSH1 0x1 PUSH1 0xA0 SHL SUB AND SWAP1 CALLER SWAP1 PUSH1 0x4 ADD PUSH2 0x2A84 JUMP JUMPDEST PUSH1 0x7 SLOAD PUSH1 0x1 SLOAD PUSH1 0x40 MLOAD PUSH4 0x927DA105 PUSH1 0xE0 SHL DUP2 MSTORE PUSH1 0x0 SWAP3 PUSH2 0x100 SWAP1 DIV PUSH1 0x1 PUSH1 0x1 PUSH1 0xA0 SHL SUB SWAP1 DUP2 AND SWAP3 PUSH4 0x927DA105 SWAP3 PUSH2 0x1E03 SWAP3 SWAP1 SWAP2 AND SWAP1 CALLER SWAP1 ADDRESS SWAP1 PUSH1 0x4 ADD PUSH2 0x2A61 JUMP JUMPDEST PUSH1 0x20 PUSH1 0x40 MLOAD DUP1 DUP4 SUB DUP2 DUP7 GAS STATICCALL ISZERO DUP1 ISZERO PUSH2 0x1E20 JUMPI RETURNDATASIZE PUSH1 0x0 DUP1 RETURNDATACOPY RETURNDATASIZE PUSH1 0x0 REVERT JUMPDEST POP POP POP POP PUSH1 0x40 MLOAD RETURNDATASIZE PUSH1 0x1F NOT PUSH1 0x1F DUP3 ADD AND DUP3 ADD DUP1 PUSH1 0x40 MSTORE POP DUP2 ADD SWAP1 PUSH2 0x1E44 SWAP2 SWAP1 PUSH2 0x2DC4 JUMP JUMPDEST SWAP1 POP DUP3 DUP2 LT ISZERO PUSH2 0x1E71 JUMPI PUSH1 0x40 MLOAD PUSH4 0x6DC9C10B PUSH1 0xE0 SHL DUP2 MSTORE PUSH1 0x4 DUP2 ADD DUP3 SWAP1 MSTORE PUSH1 0x24 DUP2 ADD DUP5 SWAP1 MSTORE PUSH1 0x44 ADD PUSH2 0x8CC JUMP JUMPDEST PUSH1 0x7 SLOAD PUSH1 0x2 SLOAD PUSH1 0x40 MLOAD PUSH4 0x927DA105 PUSH1 0xE0 SHL DUP2 MSTORE PUSH1 0x0 SWAP3 PUSH2 0x100 SWAP1 DIV PUSH1 0x1 PUSH1 0x1 PUSH1 0xA0 SHL SUB SWAP1 DUP2 AND SWAP3 PUSH4 0x927DA105 SWAP3 PUSH2 0x1EB2 SWAP3 SWAP1 SWAP2 AND SWAP1 CALLER SWAP1 ADDRESS SWAP1 PUSH1 0x4 ADD PUSH2 0x2A61 JUMP JUMPDEST PUSH1 0x20 PUSH1 0x40 MLOAD DUP1 DUP4 SUB DUP2 DUP7 GAS STATICCALL ISZERO DUP1 ISZERO PUSH2 0x1ECF JUMPI RETURNDATASIZE PUSH1 0x0 DUP1 RETURNDATACOPY RETURNDATASIZE PUSH1 0x0 REVERT JUMPDEST POP POP POP POP PUSH1 0x40 MLOAD RETURNDATASIZE PUSH1 0x1F NOT PUSH1 0x1F DUP3 ADD AND DUP3 ADD DUP1 PUSH1 0x40 MSTORE POP DUP2 ADD SWAP1 PUSH2 0x1EF3 SWAP2 SWAP1 PUSH2 0x2DC4 JUMP JUMPDEST SWAP1 POP DUP3 DUP2 LT ISZERO PUSH2 0x1F20 JUMPI PUSH1 0x40 MLOAD PUSH4 0x3AB67DF PUSH1 0xE0 SHL DUP2 MSTORE PUSH1 0x4 DUP2 ADD DUP3 SWAP1 MSTORE PUSH1 0x24 DUP2 ADD DUP5 SWAP1 MSTORE PUSH1 0x44 ADD PUSH2 0x8CC JUMP JUMPDEST PUSH1 0x7 SLOAD PUSH1 0xFF AND PUSH2 0x1F43 JUMPI PUSH1 0x40 MLOAD PUSH4 0xB2915999 PUSH1 0xE0 SHL DUP2 MSTORE PUSH1 0x4 ADD PUSH1 0x40 MLOAD DUP1 SWAP2 SUB SWAP1 REVERT JUMPDEST PUSH1 0x7 SLOAD PUSH1 0x1 SLOAD PUSH1 0x40 MLOAD PUSH4 0x2C54DE4F PUSH1 0xE0 SHL DUP2 MSTORE PUSH1 0x0 SWAP3 PUSH2 0x100 SWAP1 DIV PUSH1 0x1 PUSH1 0x1 PUSH1 0xA0 SHL SUB SWAP1 DUP2 AND SWAP3 PUSH4 0x2C54DE4F SWAP3 PUSH2 0x1F86 SWAP3 SWAP1 SWAP2 AND SWAP1 CALLER SWAP1 ADDRESS SWAP1 DUP12 SWAP1 PUSH1 0x4 ADD PUSH2 0x2DDD JUMP JUMPDEST PUSH1 0x20 PUSH1 0x40 MLOAD DUP1 DUP4 SUB DUP2 PUSH1 0x0 DUP8 GAS CALL ISZERO DUP1 ISZERO PUSH2 0x1FA5 JUMPI RETURNDATASIZE PUSH1 0x0 DUP1 RETURNDATACOPY RETURNDATASIZE PUSH1 0x0 REVERT JUMPDEST POP POP POP POP PUSH1 0x40 MLOAD RETURNDATASIZE PUSH1 0x1F NOT PUSH1 0x1F DUP3 ADD AND DUP3 ADD DUP1 PUSH1 0x40 MSTORE POP DUP2 ADD SWAP1 PUSH2 0x1FC9 SWAP2 SWAP1 PUSH2 0x2AB5 JUMP JUMPDEST SWAP1 POP DUP1 PUSH1 0x7 SIGNEXTEND PUSH1 0x0 EQ PUSH2 0x20EA JUMPI PUSH1 0x0 DUP2 PUSH1 0x7 SIGNEXTEND PUSH1 0x0 NOT EQ PUSH2 0x208D JUMPI DUP2 PUSH1 0x7 SIGNEXTEND PUSH1 0x1 NOT EQ PUSH2 0x205B JUMPI DUP2 PUSH1 0x7 SIGNEXTEND PUSH1 0x2 NOT EQ PUSH2 0x2027 JUMPI PUSH1 0x40 MLOAD DUP1 PUSH1 0x40 ADD PUSH1 0x40 MSTORE DUP1 PUSH1 0xD DUP2 MSTORE PUSH1 0x20 ADD PUSH13 0x2AB735B737BBB71032B93937B9 PUSH1 0x99 SHL DUP2 MSTORE POP PUSH2 0x20BB JUMP JUMPDEST PUSH1 0x40 MLOAD DUP1 PUSH1 0x40 ADD PUSH1 0x40 MSTORE DUP1 PUSH1 0x16 DUP2 MSTORE PUSH1 0x20 ADD PUSH22 0x496E73756666696369656E7420616C6C6F77616E6365 PUSH1 0x50 SHL DUP2 MSTORE POP PUSH2 0x20BB JUMP JUMPDEST PUSH1 0x40 MLOAD DUP1 PUSH1 0x40 ADD PUSH1 0x40 MSTORE DUP1 PUSH1 0x14 DUP2 MSTORE PUSH1 0x20 ADD PUSH20 0x496E73756666696369656E742062616C616E6365 PUSH1 0x60 SHL DUP2 MSTORE POP PUSH2 0x20BB JUMP JUMPDEST PUSH1 0x40 MLOAD DUP1 PUSH1 0x40 ADD PUSH1 0x40 MSTORE DUP1 PUSH1 0x14 DUP2 MSTORE PUSH1 0x20 ADD PUSH20 0x151BDAD95B881B9BDD08185CDCDBD8DA585D1959 PUSH1 0x62 SHL DUP2 MSTORE POP JUMPDEST PUSH1 0x1 SLOAD PUSH1 0x40 MLOAD PUSH4 0x89A219DD PUSH1 0xE0 SHL DUP2 MSTORE SWAP2 SWAP3 POP PUSH2 0x8CC SWAP2 PUSH1 0x1 PUSH1 0x1 PUSH1 0xA0 SHL SUB SWAP1 SWAP2 AND SWAP1 DUP5 SWAP1 DUP5 SWAP1 PUSH1 0x4 ADD PUSH2 0x2EA9 JUMP JUMPDEST PUSH1 0x7 SLOAD PUSH1 0x2 SLOAD PUSH1 0x40 MLOAD PUSH4 0x2C54DE4F PUSH1 0xE0 SHL DUP2 MSTORE PUSH1 0x0 SWAP3 PUSH2 0x100 SWAP1 DIV PUSH1 0x1 PUSH1 0x1 PUSH1 0xA0 SHL SUB SWAP1 DUP2 AND SWAP3 PUSH4 0x2C54DE4F SWAP3 PUSH2 0x212D SWAP3 SWAP1 SWAP2 AND SWAP1 CALLER SWAP1 ADDRESS SWAP1 DUP12 SWAP1 PUSH1 0x4 ADD PUSH2 0x2DDD JUMP JUMPDEST PUSH1 0x20 PUSH1 0x40 MLOAD DUP1 DUP4 SUB DUP2 PUSH1 0x0 DUP8 GAS CALL ISZERO DUP1 ISZERO PUSH2 0x214C JUMPI RETURNDATASIZE PUSH1 0x0 DUP1 RETURNDATACOPY RETURNDATASIZE PUSH1 0x0 REVERT JUMPDEST POP POP POP POP PUSH1 0x40 MLOAD RETURNDATASIZE PUSH1 0x1F NOT PUSH1 0x1F DUP3 ADD AND DUP3 ADD DUP1 PUSH1 0x40 MSTORE POP DUP2 ADD SWAP1 PUSH2 0x2170 SWAP2 SWAP1 PUSH2 0x2AB5 JUMP JUMPDEST SWAP1 POP DUP1 PUSH1 0x7 SIGNEXTEND PUSH1 0x0 EQ PUSH2 0x2291 JUMPI PUSH1 0x0 DUP2 PUSH1 0x7 SIGNEXTEND PUSH1 0x0 NOT EQ PUSH2 0x2234 JUMPI DUP2 PUSH1 0x7 SIGNEXTEND PUSH1 0x1 NOT EQ PUSH2 0x2202 JUMPI DUP2 PUSH1 0x7 SIGNEXTEND PUSH1 0x2 NOT EQ PUSH2 0x21CE JUMPI PUSH1 0x40 MLOAD DUP1 PUSH1 0x40 ADD PUSH1 0x40 MSTORE DUP1 PUSH1 0xD DUP2 MSTORE PUSH1 0x20 ADD PUSH13 0x2AB735B737BBB71032B93937B9 PUSH1 0x99 SHL DUP2 MSTORE POP PUSH2 0x2262 JUMP JUMPDEST PUSH1 0x40 MLOAD DUP1 PUSH1 0x40 ADD PUSH1 0x40 MSTORE DUP1 PUSH1 0x16 DUP2 MSTORE PUSH1 0x20 ADD PUSH22 0x496E73756666696369656E7420616C6C6F77616E6365 PUSH1 0x50 SHL DUP2 MSTORE POP PUSH2 0x2262 JUMP JUMPDEST PUSH1 0x40 MLOAD DUP1 PUSH1 0x40 ADD PUSH1 0x40 MSTORE DUP1 PUSH1 0x14 DUP2 MSTORE PUSH1 0x20 ADD PUSH20 0x496E73756666696369656E742062616C616E6365 PUSH1 0x60 SHL DUP2 MSTORE POP PUSH2 0x2262 JUMP JUMPDEST PUSH1 0x40 MLOAD DUP1 PUSH1 0x40 ADD PUSH1 0x40 MSTORE DUP1 PUSH1 0x14 DUP2 MSTORE PUSH1 0x20 ADD PUSH20 0x151BDAD95B881B9BDD08185CDCDBD8DA585D1959 PUSH1 0x62 SHL DUP2 MSTORE POP JUMPDEST PUSH1 0x2 SLOAD PUSH1 0x40 MLOAD PUSH4 0x89A219DD PUSH1 0xE0 SHL DUP2 MSTORE SWAP2 SWAP3 POP PUSH2 0x8CC SWAP2 PUSH1 0x1 PUSH1 0x1 PUSH1 0xA0 SHL SUB SWAP1 SWAP2 AND SWAP1 DUP5 SWAP1 DUP5 SWAP1 PUSH1 0x4 ADD PUSH2 0x2EA9 JUMP JUMPDEST PUSH1 0x40 DUP1 MLOAD PUSH1 0x0 DUP1 DUP3 MSTORE PUSH1 0x20 DUP3 ADD SWAP1 SWAP3 MSTORE DUP2 PUSH2 0x22BC JUMP JUMPDEST PUSH1 0x60 DUP2 MSTORE PUSH1 0x20 ADD SWAP1 PUSH1 0x1 SWAP1 SUB SWAP1 DUP2 PUSH2 0x22A7 JUMPI SWAP1 POP JUMPDEST POP PUSH1 0x7 SLOAD PUSH1 0x0 DUP1 SLOAD PUSH1 0x40 MLOAD PUSH4 0x76096E01 PUSH1 0xE1 SHL DUP2 MSTORE SWAP4 SWAP5 POP SWAP1 SWAP3 PUSH1 0x1 PUSH1 0x1 PUSH1 0xA0 SHL SUB PUSH2 0x100 SWAP1 SWAP4 DIV DUP4 AND SWAP3 PUSH4 0xEC12DC02 SWAP3 PUSH2 0x2300 SWAP3 SWAP2 AND SWAP1 DUP15 SWAP1 DUP8 SWAP1 PUSH1 0x4 ADD PUSH2 0x2ED3 JUMP JUMPDEST PUSH1 0x20 PUSH1 0x40 MLOAD DUP1 DUP4 SUB DUP2 PUSH1 0x0 DUP8 GAS CALL ISZERO DUP1 ISZERO PUSH2 0x231F JUMPI RETURNDATASIZE PUSH1 0x0 DUP1 RETURNDATACOPY RETURNDATASIZE PUSH1 0x0 REVERT JUMPDEST POP POP POP POP PUSH1 0x40 MLOAD RETURNDATASIZE PUSH1 0x1F NOT PUSH1 0x1F DUP3 ADD AND DUP3 ADD DUP1 PUSH1 0x40 MSTORE POP DUP2 ADD SWAP1 PUSH2 0x2343 SWAP2 SWAP1 PUSH2 0x2AB5 JUMP JUMPDEST SWAP1 POP DUP1 PUSH1 0x7 SIGNEXTEND PUSH1 0x0 EQ PUSH2 0x2455 JUMPI PUSH1 0x0 DUP2 PUSH1 0x7 SIGNEXTEND PUSH1 0x0 NOT EQ PUSH2 0x23F8 JUMPI DUP2 PUSH1 0x7 SIGNEXTEND PUSH1 0x1 NOT EQ PUSH2 0x23CD JUMPI DUP2 PUSH1 0x7 SIGNEXTEND PUSH1 0x2 NOT EQ PUSH2 0x23A1 JUMPI PUSH1 0x40 MLOAD DUP1 PUSH1 0x40 ADD PUSH1 0x40 MSTORE DUP1 PUSH1 0xD DUP2 MSTORE PUSH1 0x20 ADD PUSH13 0x2AB735B737BBB71032B93937B9 PUSH1 0x99 SHL DUP2 MSTORE POP PUSH2 0x2426 JUMP JUMPDEST PUSH1 0x40 MLOAD DUP1 PUSH1 0x40 ADD PUSH1 0x40 MSTORE DUP1 PUSH1 0xE DUP2 MSTORE PUSH1 0x20 ADD PUSH14 0x125B9D985B1A5908185B5BDD5B9D PUSH1 0x92 SHL DUP2 MSTORE POP PUSH2 0x2426 JUMP JUMPDEST PUSH1 0x40 MLOAD DUP1 PUSH1 0x40 ADD PUSH1 0x40 MSTORE DUP1 PUSH1 0xD DUP2 MSTORE PUSH1 0x20 ADD PUSH13 0x4E6F20737570706C79206B6579 PUSH1 0x98 SHL DUP2 MSTORE POP PUSH2 0x2426 JUMP JUMPDEST PUSH1 0x40 MLOAD DUP1 PUSH1 0x40 ADD PUSH1 0x40 MSTORE DUP1 PUSH1 0x14 DUP2 MSTORE PUSH1 0x20 ADD PUSH20 0x151BDAD95B881B9BDD08185CDCDBD8DA585D1959 PUSH1 0x62 SHL DUP2 MSTORE POP JUMPDEST PUSH1 0x0 SLOAD PUSH1 0x40 MLOAD PUSH4 0x89A219DD PUSH1 0xE0 SHL DUP2 MSTORE SWAP2 SWAP3 POP PUSH2 0x8CC SWAP2 PUSH1 0x1 PUSH1 0x1 PUSH1 0xA0 SHL SUB SWAP1 SWAP2 AND SWAP1 DUP5 SWAP1 DUP5 SWAP1 PUSH1 0x4 ADD PUSH2 0x2EA9 JUMP JUMPDEST PUSH1 0x0 PUSH1 0x7 PUSH1 0x1 SWAP1 SLOAD SWAP1 PUSH2 0x100 EXP SWAP1 DIV PUSH1 0x1 PUSH1 0x1 PUSH1 0xA0 SHL SUB AND PUSH1 0x1 PUSH1 0x1 PUSH1 0xA0 SHL SUB AND PUSH4 0x2C54DE4F PUSH1 0x0 DUP1 SLOAD SWAP1 PUSH2 0x100 EXP SWAP1 DIV PUSH1 0x1 PUSH1 0x1 PUSH1 0xA0 SHL SUB AND ADDRESS CALLER DUP16 PUSH1 0x40 MLOAD DUP6 PUSH4 0xFFFFFFFF AND PUSH1 0xE0 SHL DUP2 MSTORE PUSH1 0x4 ADD PUSH2 0x24B1 SWAP5 SWAP4 SWAP3 SWAP2 SWAP1 PUSH2 0x2DDD JUMP JUMPDEST PUSH1 0x20 PUSH1 0x40 MLOAD DUP1 DUP4 SUB DUP2 PUSH1 0x0 DUP8 GAS CALL ISZERO DUP1 ISZERO PUSH2 0x24D0 JUMPI RETURNDATASIZE PUSH1 0x0 DUP1 RETURNDATACOPY RETURNDATASIZE PUSH1 0x0 REVERT JUMPDEST POP POP POP POP PUSH1 0x40 MLOAD RETURNDATASIZE PUSH1 0x1F NOT PUSH1 0x1F DUP3 ADD AND DUP3 ADD DUP1 PUSH1 0x40 MSTORE POP DUP2 ADD SWAP1 PUSH2 0x24F4 SWAP2 SWAP1 PUSH2 0x2AB5 JUMP JUMPDEST SWAP1 POP DUP1 PUSH1 0x7 SIGNEXTEND PUSH1 0x0 EQ PUSH2 0x25B8 JUMPI PUSH1 0x0 DUP2 PUSH1 0x7 SIGNEXTEND PUSH1 0x0 NOT EQ PUSH2 0x23F8 JUMPI DUP2 PUSH1 0x7 SIGNEXTEND PUSH1 0x1 NOT EQ PUSH2 0x2586 JUMPI DUP2 PUSH1 0x7 SIGNEXTEND PUSH1 0x2 NOT EQ PUSH2 0x2552 JUMPI PUSH1 0x40 MLOAD DUP1 PUSH1 0x40 ADD PUSH1 0x40 MSTORE DUP1 PUSH1 0xD DUP2 MSTORE PUSH1 0x20 ADD PUSH13 0x2AB735B737BBB71032B93937B9 PUSH1 0x99 SHL DUP2 MSTORE POP PUSH2 0x2426 JUMP JUMPDEST PUSH1 0x40 MLOAD DUP1 PUSH1 0x40 ADD PUSH1 0x40 MSTORE DUP1 PUSH1 0x16 DUP2 MSTORE PUSH1 0x20 ADD PUSH22 0x496E73756666696369656E7420616C6C6F77616E6365 PUSH1 0x50 SHL DUP2 MSTORE POP PUSH2 0x2426 JUMP JUMPDEST PUSH1 0x40 MLOAD DUP1 PUSH1 0x40 ADD PUSH1 0x40 MSTORE DUP1 PUSH1 0x14 DUP2 MSTORE PUSH1 0x20 ADD PUSH20 0x496E73756666696369656E742062616C616E6365 PUSH1 0x60 SHL DUP2 MSTORE POP PUSH2 0x2426 JUMP JUMPDEST PUSH1 0x40 DUP1 MLOAD DUP13 DUP2 MSTORE PUSH1 0x20 DUP2 ADD DUP13 SWAP1 MSTORE SWAP1 DUP2 ADD DUP11 SWAP1 MSTORE PUSH1 0x60 DUP2 ADD DUP10 SWAP1 MSTORE CALLER SWAP1 PUSH32 0xC8692244B89E2A7E07E1D9EA03612E5D30118C61DD11D7E664E945287A3CE61B SWAP1 PUSH1 0x80 ADD PUSH1 0x40 MLOAD DUP1 SWAP2 SUB SWAP1 LOG2 POP POP POP POP POP POP POP POP POP POP POP JUMP JUMPDEST PUSH1 0x0 DUP1 PUSH1 0x0 DUP1 PUSH1 0x0 DUP1 PUSH1 0x5 SLOAD DUP8 PUSH2 0x2626 SWAP2 SWAP1 PUSH2 0x2D9F JUMP JUMPDEST SWAP4 POP PUSH1 0x6 SLOAD DUP8 PUSH2 0x2636 SWAP2 SWAP1 PUSH2 0x2D9F JUMP JUMPDEST PUSH1 0x7 SLOAD PUSH1 0x1 SLOAD PUSH1 0x40 MLOAD PUSH4 0x927DA105 PUSH1 0xE0 SHL DUP2 MSTORE SWAP3 SWAP6 POP PUSH1 0x1 PUSH1 0x1 PUSH1 0xA0 SHL SUB PUSH2 0x100 SWAP1 SWAP3 DIV DUP3 AND SWAP3 PUSH4 0x927DA105 SWAP3 PUSH2 0x2675 SWAP3 AND SWAP1 DUP13 SWAP1 ADDRESS SWAP1 PUSH1 0x4 ADD PUSH2 0x2A61 JUMP JUMPDEST PUSH1 0x20 PUSH1 0x40 MLOAD DUP1 DUP4 SUB DUP2 DUP7 GAS STATICCALL ISZERO DUP1 ISZERO PUSH2 0x2692 JUMPI RETURNDATASIZE PUSH1 0x0 DUP1 RETURNDATACOPY RETURNDATASIZE PUSH1 0x0 REVERT JUMPDEST POP POP POP POP PUSH1 0x40 MLOAD RETURNDATASIZE PUSH1 0x1F NOT PUSH1 0x1F DUP3 ADD AND DUP3 ADD DUP1 PUSH1 0x40 MSTORE POP DUP2 ADD SWAP1 PUSH2 0x26B6 SWAP2 SWAP1 PUSH2 0x2DC4 JUMP JUMPDEST PUSH1 0x7 SLOAD PUSH1 0x2 SLOAD PUSH1 0x40 MLOAD PUSH4 0x927DA105 PUSH1 0xE0 SHL DUP2 MSTORE SWAP3 SWAP9 POP PUSH1 0x1 PUSH1 0x1 PUSH1 0xA0 SHL SUB PUSH2 0x100 SWAP1 SWAP3 DIV DUP3 AND SWAP3 PUSH4 0x927DA105 SWAP3 PUSH2 0x26F5 SWAP3 AND SWAP1 DUP13 SWAP1 ADDRESS SWAP1 PUSH1 0x4 ADD PUSH2 0x2A61 JUMP JUMPDEST PUSH1 0x20 PUSH1 0x40 MLOAD DUP1 DUP4 SUB DUP2 DUP7 GAS STATICCALL ISZERO DUP1 ISZERO PUSH2 0x2712 JUMPI RETURNDATASIZE PUSH1 0x0 DUP1 RETURNDATACOPY RETURNDATASIZE PUSH1 0x0 REVERT JUMPDEST POP POP POP POP PUSH1 0x40 MLOAD RETURNDATASIZE PUSH1 0x1F NOT PUSH1 0x1F DUP3 ADD AND DUP3 ADD DUP1 PUSH1 0x40 MSTORE POP DUP2 ADD SWAP1 PUSH2 0x2736 SWAP2 SWAP1 PUSH2 0x2DC4 JUMP JUMPDEST SWAP5 POP DUP4 DUP7 LT ISZERO SWAP2 POP DUP3 DUP6 LT ISZERO SWAP1 POP SWAP3 SWAP6 POP SWAP3 SWAP6 POP SWAP3 SWAP6 JUMP JUMPDEST PUSH1 0x3 SLOAD PUSH1 0x1 PUSH1 0x1 PUSH1 0xA0 SHL SUB AND CALLER EQ PUSH2 0x2779 JUMPI PUSH1 0x40 MLOAD PUSH4 0x47556579 PUSH1 0xE0 SHL DUP2 MSTORE PUSH1 0x4 ADD PUSH1 0x40 MLOAD DUP1 SWAP2 SUB SWAP1 REVERT JUMPDEST PUSH2 0x2781 PUSH2 0x2793 JUMP JUMPDEST JUMP JUMPDEST PUSH1 0x0 PUSH1 0x5 SLOAD DUP3 PUSH2 0x16A6 SWAP2 SWAP1 PUSH2 0x2D9F JUMP JUMPDEST PUSH1 0x0 SLOAD PUSH1 0x1 PUSH1 0x1 PUSH1 0xA0 SHL SUB AND PUSH2 0x27E4 JUMPI PUSH1 0x7 DUP1 SLOAD PUSH1 0xFF NOT AND SWAP1 SSTORE PUSH1 0x40 MLOAD PUSH1 0x0 DUP2 MSTORE PUSH32 0x40A36E95E1165E03B5C30095CD9D1E9FA9D8AA98D06AA1D6432A77718C0B68F0 SWAP1 PUSH1 0x20 ADD JUMPDEST PUSH1 0x40 MLOAD DUP1 SWAP2 SUB SWAP1 LOG1 JUMP JUMPDEST PUSH1 0x7 SLOAD PUSH1 0x0 SLOAD PUSH1 0x40 MLOAD PUSH4 0x2E1A6345 PUSH1 0xE1 SHL DUP2 MSTORE PUSH1 0x1 PUSH1 0x1 PUSH1 0xA0 SHL SUB PUSH2 0x100 SWAP1 SWAP4 DIV DUP4 AND SWAP3 PUSH4 0x5C34C68A SWAP3 PUSH2 0x281F SWAP3 SWAP2 AND SWAP1 ADDRESS SWAP1 PUSH1 0x4 ADD PUSH2 0x2A84 JUMP JUMPDEST PUSH1 0x20 PUSH1 0x40 MLOAD DUP1 DUP4 SUB DUP2 DUP7 GAS STATICCALL ISZERO DUP1 ISZERO PUSH2 0x283C JUMPI RETURNDATASIZE PUSH1 0x0 DUP1 RETURNDATACOPY RETURNDATASIZE PUSH1 0x0 REVERT JUMPDEST POP POP POP POP PUSH1 0x40 MLOAD RETURNDATASIZE PUSH1 0x1F NOT PUSH1 0x1F DUP3 ADD AND DUP3 ADD DUP1 PUSH1 0x40 MSTORE POP DUP2 ADD SWAP1 PUSH2 0x2860 SWAP2 SWAP1 PUSH2 0x2E8C JUMP JUMPDEST PUSH1 0x7 DUP1 SLOAD PUSH1 0xFF NOT AND SWAP2 ISZERO ISZERO SWAP2 DUP3 OR SWAP1 SSTORE PUSH1 0x40 MLOAD PUSH1 0xFF SWAP1 SWAP2 AND ISZERO ISZERO DUP2 MSTORE PUSH32 0x40A36E95E1165E03B5C30095CD9D1E9FA9D8AA98D06AA1D6432A77718C0B68F0 SWAP1 PUSH1 0x20 ADD PUSH2 0x27DA JUMP JUMPDEST PUSH1 0x0 DUP1 DUP4 PUSH1 0x1F DUP5 ADD SLT PUSH2 0x28B8 JUMPI PUSH1 0x0 DUP1 REVERT JUMPDEST POP DUP2 CALLDATALOAD PUSH8 0xFFFFFFFFFFFFFFFF DUP2 GT ISZERO PUSH2 0x28D0 JUMPI PUSH1 0x0 DUP1 REVERT JUMPDEST PUSH1 0x20 DUP4 ADD SWAP2 POP DUP4 PUSH1 0x20 DUP3 DUP6 ADD ADD GT ISZERO PUSH2 0x28E8 JUMPI PUSH1 0x0 DUP1 REVERT JUMPDEST SWAP3 POP SWAP3 SWAP1 POP JUMP JUMPDEST PUSH1 0x0 DUP1 PUSH1 0x0 DUP1 PUSH1 0x0 DUP1 PUSH1 0x60 DUP8 DUP10 SUB SLT ISZERO PUSH2 0x2908 JUMPI PUSH1 0x0 DUP1 REVERT JUMPDEST DUP7 CALLDATALOAD PUSH8 0xFFFFFFFFFFFFFFFF DUP1 DUP3 GT ISZERO PUSH2 0x2920 JUMPI PUSH1 0x0 DUP1 REVERT JUMPDEST PUSH2 0x292C DUP11 DUP4 DUP12 ADD PUSH2 0x28A6 JUMP JUMPDEST SWAP1 SWAP9 POP SWAP7 POP PUSH1 0x20 DUP10 ADD CALLDATALOAD SWAP2 POP DUP1 DUP3 GT ISZERO PUSH2 0x2945 JUMPI PUSH1 0x0 DUP1 REVERT JUMPDEST PUSH2 0x2951 DUP11 DUP4 DUP12 ADD PUSH2 0x28A6 JUMP JUMPDEST SWAP1 SWAP7 POP SWAP5 POP PUSH1 0x40 DUP10 ADD CALLDATALOAD SWAP2 POP DUP1 DUP3 GT ISZERO PUSH2 0x296A JUMPI PUSH1 0x0 DUP1 REVERT JUMPDEST POP PUSH2 0x2977 DUP10 DUP3 DUP11 ADD PUSH2 0x28A6 JUMP JUMPDEST SWAP8 SWAP11 SWAP7 SWAP10 POP SWAP5 SWAP8 POP SWAP3 SWAP6 SWAP4 SWAP5 SWAP3 POP POP POP JUMP JUMPDEST PUSH1 0x0 DUP1 PUSH1 0x0 PUSH1 0x60 DUP5 DUP7 SUB SLT ISZERO PUSH2 0x299E JUMPI PUSH1 0x0 DUP1 REVERT JUMPDEST POP POP DUP2 CALLDATALOAD SWAP4 PUSH1 0x20 DUP4 ADD CALLDATALOAD SWAP4 POP PUSH1 0x40 SWAP1 SWAP3 ADD CALLDATALOAD SWAP2 SWAP1 POP JUMP JUMPDEST DUP1 ISZERO ISZERO DUP2 EQ PUSH2 0x29C3 JUMPI PUSH1 0x0 DUP1 REVERT JUMPDEST POP JUMP JUMPDEST PUSH1 0x0 PUSH1 0x20 DUP3 DUP5 SUB SLT ISZERO PUSH2 0x29D8 JUMPI PUSH1 0x0 DUP1 REVERT JUMPDEST DUP2 CALLDATALOAD PUSH2 0x29E3 DUP2 PUSH2 0x29B5 JUMP JUMPDEST SWAP4 SWAP3 POP POP POP JUMP JUMPDEST PUSH1 0x0 PUSH1 0x20 DUP3 DUP5 SUB SLT ISZERO PUSH2 0x29FC JUMPI PUSH1 0x0 DUP1 REVERT JUMPDEST POP CALLDATALOAD SWAP2 SWAP1 POP JUMP JUMPDEST PUSH1 0x1 PUSH1 0x1 PUSH1 0xA0 SHL SUB DUP2 AND DUP2 EQ PUSH2 0x29C3 JUMPI PUSH1 0x0 DUP1 REVERT JUMPDEST PUSH1 0x0 PUSH1 0x20 DUP3 DUP5 SUB SLT ISZERO PUSH2 0x2A2A JUMPI PUSH1 0x0 DUP1 REVERT JUMPDEST DUP2 CALLDATALOAD PUSH2 0x29E3 DUP2 PUSH2 0x2A03 JUMP JUMPDEST PUSH1 0x0 DUP1 PUSH1 0x40 DUP4 DUP6 SUB SLT ISZERO PUSH2 0x2A48 JUMPI PUSH1 0x0 DUP1 REVERT JUMPDEST DUP3 CALLDATALOAD PUSH2 0x2A53 DUP2 PUSH2 0x2A03 JUMP JUMPDEST SWAP5 PUSH1 0x20 SWAP4 SWAP1 SWAP4 ADD CALLDATALOAD SWAP4 POP POP POP JUMP JUMPDEST PUSH1 0x1 PUSH1 0x1 PUSH1 0xA0 SHL SUB SWAP4 DUP5 AND DUP2 MSTORE SWAP2 DUP4 AND PUSH1 0x20 DUP4 ADD MSTORE SWAP1 SWAP2 AND PUSH1 0x40 DUP3 ADD MSTORE PUSH1 0x60 ADD SWAP1 JUMP JUMPDEST PUSH1 0x1 PUSH1 0x1 PUSH1 0xA0 SHL SUB SWAP3 DUP4 AND DUP2 MSTORE SWAP2 AND PUSH1 0x20 DUP3 ADD MSTORE PUSH1 0x40 ADD SWAP1 JUMP JUMPDEST DUP1 MLOAD PUSH1 0x7 DUP2 SWAP1 SIGNEXTEND DUP2 EQ PUSH2 0x2AB0 JUMPI PUSH1 0x0 DUP1 REVERT JUMPDEST SWAP2 SWAP1 POP JUMP JUMPDEST PUSH1 0x0 PUSH1 0x20 DUP3 DUP5 SUB SLT ISZERO PUSH2 0x2AC7 JUMPI PUSH1 0x0 DUP1 REVERT JUMPDEST PUSH2 0x29E3 DUP3 PUSH2 0x2A9E JUMP JUMPDEST PUSH1 0x1 PUSH1 0x1 PUSH1 0xA0 SHL SUB SWAP3 SWAP1 SWAP3 AND DUP3 MSTORE PUSH1 0x7 SIGNEXTEND PUSH1 0x20 DUP3 ADD MSTORE PUSH1 0x40 ADD SWAP1 JUMP JUMPDEST PUSH4 0x4E487B71 PUSH1 0xE0 SHL PUSH1 0x0 MSTORE PUSH1 0x32 PUSH1 0x4 MSTORE PUSH1 0x24 PUSH1 0x0 REVERT JUMPDEST PUSH1 0x0 DUP2 MLOAD DUP1 DUP5 MSTORE PUSH1 0x0 JUMPDEST DUP2 DUP2 LT ISZERO PUSH2 0x2B28 JUMPI PUSH1 0x20 DUP2 DUP6 ADD DUP2 ADD MLOAD DUP7 DUP4 ADD DUP3 ADD MSTORE ADD PUSH2 0x2B0C JUMP JUMPDEST POP PUSH1 0x0 PUSH1 0x20 DUP3 DUP7 ADD ADD MSTORE PUSH1 0x20 PUSH1 0x1F NOT PUSH1 0x1F DUP4 ADD AND DUP6 ADD ADD SWAP2 POP POP SWAP3 SWAP2 POP POP JUMP JUMPDEST PUSH1 0x0 DUP2 MLOAD DUP1 DUP5 MSTORE PUSH1 0x20 DUP1 DUP6 ADD SWAP5 POP DUP1 DUP5 ADD PUSH1 0x0 JUMPDEST DUP4 DUP2 LT ISZERO PUSH2 0x2B81 JUMPI DUP2 MLOAD PUSH1 0x1 PUSH1 0x1 PUSH1 0xA0 SHL SUB AND DUP8 MSTORE SWAP6 DUP3 ADD SWAP6 SWAP1 DUP3 ADD SWAP1 PUSH1 0x1 ADD PUSH2 0x2B5C JUMP JUMPDEST POP SWAP5 SWAP6 SWAP5 POP POP POP POP POP JUMP JUMPDEST PUSH1 0x0 DUP2 MLOAD DUP1 DUP5 MSTORE PUSH1 0x20 DUP1 DUP6 ADD SWAP5 POP DUP1 DUP5 ADD PUSH1 0x0 JUMPDEST DUP4 DUP2 LT ISZERO PUSH2 0x2B81 JUMPI DUP2 MLOAD PUSH1 0xFF AND DUP8 MSTORE SWAP6 DUP3 ADD SWAP6 SWAP1 DUP3 ADD SWAP1 PUSH1 0x1 ADD PUSH2 0x2BA0 JUMP JUMPDEST PUSH1 0x80 DUP2 MSTORE PUSH1 0x0 DUP6 MLOAD PUSH2 0x1A0 DUP1 PUSH1 0x80 DUP6 ADD MSTORE PUSH2 0x2BDE PUSH2 0x220 DUP6 ADD DUP4 PUSH2 0x2B02 JUMP JUMPDEST SWAP2 POP PUSH1 0x20 DUP9 ADD MLOAD PUSH1 0x7F NOT DUP1 DUP7 DUP6 SUB ADD PUSH1 0xA0 DUP8 ADD MSTORE PUSH2 0x2BFC DUP5 DUP4 PUSH2 0x2B02 JUMP JUMPDEST SWAP4 POP PUSH1 0x40 DUP11 ADD MLOAD SWAP2 POP PUSH2 0x2C1A PUSH1 0xC0 DUP8 ADD DUP4 PUSH1 0x1 PUSH1 0x1 PUSH1 0xA0 SHL SUB AND SWAP1 MSTORE JUMP JUMPDEST PUSH1 0x60 DUP11 ADD MLOAD SWAP2 POP DUP1 DUP7 DUP6 SUB ADD PUSH1 0xE0 DUP8 ADD MSTORE PUSH2 0x2C35 DUP5 DUP4 PUSH2 0x2B02 JUMP JUMPDEST SWAP4 POP PUSH1 0x80 DUP11 ADD MLOAD SWAP2 POP PUSH2 0x100 PUSH2 0x2C4E DUP2 DUP9 ADD DUP5 ISZERO ISZERO SWAP1 MSTORE JUMP JUMPDEST PUSH1 0xA0 DUP12 ADD MLOAD SWAP3 POP PUSH2 0x120 PUSH2 0x2C69 DUP2 DUP10 ADD DUP6 PUSH4 0xFFFFFFFF AND SWAP1 MSTORE JUMP JUMPDEST PUSH1 0xC0 DUP13 ADD MLOAD SWAP4 POP PUSH2 0x140 PUSH2 0x2C80 DUP2 DUP11 ADD DUP7 ISZERO ISZERO SWAP1 MSTORE JUMP JUMPDEST PUSH1 0xE0 DUP14 ADD MLOAD SWAP5 POP PUSH2 0x160 DUP5 DUP11 DUP10 SUB ADD DUP2 DUP12 ADD MSTORE PUSH2 0x2C9D DUP9 DUP8 PUSH2 0x2B48 JUMP JUMPDEST SWAP8 POP DUP4 DUP15 ADD MLOAD SWAP6 POP PUSH2 0x180 SWAP4 POP DUP5 DUP11 DUP10 SUB ADD DUP5 DUP12 ADD MSTORE PUSH2 0x2CBD DUP9 DUP8 PUSH2 0x2B48 JUMP JUMPDEST SWAP8 POP DUP3 DUP15 ADD MLOAD SWAP6 POP DUP5 DUP11 DUP10 SUB ADD DUP8 DUP12 ADD MSTORE PUSH2 0x2CD8 DUP9 DUP8 PUSH2 0x2B48 JUMP JUMPDEST SWAP8 POP DUP2 DUP15 ADD MLOAD SWAP7 POP DUP5 DUP11 DUP10 SUB ADD PUSH2 0x1C0 DUP12 ADD MSTORE PUSH2 0x2CF5 DUP9 DUP9 PUSH2 0x2B48 JUMP JUMPDEST SWAP8 POP DUP1 DUP15 ADD MLOAD SWAP7 POP POP POP POP DUP2 DUP8 DUP7 SUB ADD PUSH2 0x1E0 DUP9 ADD MSTORE PUSH2 0x2D15 DUP6 DUP6 PUSH2 0x2B48 JUMP JUMPDEST SWAP5 POP DUP1 DUP12 ADD MLOAD SWAP4 POP POP POP POP PUSH2 0x2D30 PUSH2 0x200 DUP6 ADD DUP3 PUSH1 0xFF AND SWAP1 MSTORE JUMP JUMPDEST POP DUP6 PUSH1 0x20 DUP5 ADD MSTORE DUP3 DUP2 SUB PUSH1 0x40 DUP5 ADD MSTORE PUSH2 0x2D49 DUP2 DUP7 PUSH2 0x2B8C JUMP JUMPDEST SWAP1 POP DUP3 DUP2 SUB PUSH1 0x60 DUP5 ADD MSTORE PUSH2 0x2D5D DUP2 DUP6 PUSH2 0x2B48 JUMP JUMPDEST SWAP8 SWAP7 POP POP POP POP POP POP POP JUMP JUMPDEST PUSH1 0x0 DUP1 PUSH1 0x40 DUP4 DUP6 SUB SLT ISZERO PUSH2 0x2D7B JUMPI PUSH1 0x0 DUP1 REVERT JUMPDEST PUSH2 0x2D84 DUP4 PUSH2 0x2A9E JUMP JUMPDEST SWAP2 POP PUSH1 0x20 DUP4 ADD MLOAD PUSH2 0x2D94 DUP2 PUSH2 0x2A03 JUMP JUMPDEST DUP1 SWAP2 POP POP SWAP3 POP SWAP3 SWAP1 POP JUMP JUMPDEST DUP1 DUP3 MUL DUP2 ISZERO DUP3 DUP3 DIV DUP5 EQ OR PUSH2 0x16A6 JUMPI PUSH4 0x4E487B71 PUSH1 0xE0 SHL PUSH1 0x0 MSTORE PUSH1 0x11 PUSH1 0x4 MSTORE PUSH1 0x24 PUSH1 0x0 REVERT JUMPDEST PUSH1 0x0 PUSH1 0x20 DUP3 DUP5 SUB SLT ISZERO PUSH2 0x2DD6 JUMPI PUSH1 0x0 DUP1 REVERT JUMPDEST POP MLOAD SWAP2 SWAP1 POP JUMP JUMPDEST PUSH1 0x1 PUSH1 0x1 PUSH1 0xA0 SHL SUB SWAP5 DUP6 AND DUP2 MSTORE SWAP3 DUP5 AND PUSH1 0x20 DUP5 ADD MSTORE SWAP3 AND PUSH1 0x40 DUP3 ADD MSTORE PUSH1 0x60 DUP2 ADD SWAP2 SWAP1 SWAP2 MSTORE PUSH1 0x80 ADD SWAP1 JUMP JUMPDEST PUSH1 0x0 DUP2 MLOAD DUP1 DUP5 MSTORE PUSH1 0x20 DUP1 DUP6 ADD DUP1 DUP2 SWAP7 POP DUP4 PUSH1 0x5 SHL DUP2 ADD SWAP2 POP DUP3 DUP7 ADD PUSH1 0x0 JUMPDEST DUP6 DUP2 LT ISZERO PUSH2 0x2E4F JUMPI DUP3 DUP5 SUB DUP10 MSTORE PUSH2 0x2E3D DUP5 DUP4 MLOAD PUSH2 0x2B02 JUMP JUMPDEST SWAP9 DUP6 ADD SWAP9 SWAP4 POP SWAP1 DUP5 ADD SWAP1 PUSH1 0x1 ADD PUSH2 0x2E25 JUMP JUMPDEST POP SWAP2 SWAP8 SWAP7 POP POP POP POP POP POP POP JUMP JUMPDEST PUSH1 0x1 DUP1 PUSH1 0xA0 SHL SUB DUP5 AND DUP2 MSTORE DUP3 PUSH1 0x20 DUP3 ADD MSTORE PUSH1 0x60 PUSH1 0x40 DUP3 ADD MSTORE PUSH1 0x0 PUSH2 0x2E83 PUSH1 0x60 DUP4 ADD DUP5 PUSH2 0x2E07 JUMP JUMPDEST SWAP6 SWAP5 POP POP POP POP POP JUMP JUMPDEST PUSH1 0x0 PUSH1 0x20 DUP3 DUP5 SUB SLT ISZERO PUSH2 0x2E9E JUMPI PUSH1 0x0 DUP1 REVERT JUMPDEST DUP2 MLOAD PUSH2 0x29E3 DUP2 PUSH2 0x29B5 JUMP JUMPDEST PUSH1 0x1 DUP1 PUSH1 0xA0 SHL SUB DUP5 AND DUP2 MSTORE DUP3 PUSH1 0x7 SIGNEXTEND PUSH1 0x20 DUP3 ADD MSTORE PUSH1 0x60 PUSH1 0x40 DUP3 ADD MSTORE PUSH1 0x0 PUSH2 0x2E83 PUSH1 0x60 DUP4 ADD DUP5 PUSH2 0x2B02 JUMP JUMPDEST PUSH1 0x1 PUSH1 0x1 PUSH1 0xA0 SHL SUB DUP5 AND DUP2 MSTORE PUSH8 0xFFFFFFFFFFFFFFFF DUP4 AND PUSH1 0x20 DUP3 ADD MSTORE PUSH1 0x60 PUSH1 0x40 DUP3 ADD DUP2 SWAP1 MSTORE PUSH1 0x0 SWAP1 PUSH2 0x2E83 SWAP1 DUP4 ADD DUP5 PUSH2 0x2E07 JUMP INVALID LOG2 PUSH5 0x6970667358 0x22 SLT KECCAK256 0x4B 0xED CALLVALUE PUSH8 0x1A80C5855E650D19 0x1E 0xAD CODECOPY 0xB5 DUP9 JUMPDEST DUP6 DUP1 PUSH6 0xE61EBFEA0084 RETURNDATASIZE 0x4D 0x27 SWAP3 0xB4 PUSH5 0x736F6C6343 STOP ADDMOD SLT STOP CALLER "},"gasEstimates":{"creation":{"codeDepositCost":"2418600","executionCost":"infinite","totalCost":"infinite"},"external":{"":"208","ADMIN()":"2372","CLXY_RATIO()":"2407","CLXY_TOKEN()":"2417","HBAR_RATIO()":"2385","HTS_PRECOMPILE()":"273","IS_SUPPLY_TYPE_INFINITE()":"267","LYNX_TOKEN()":"2370","SAUCE_RATIO()":"2405","SAUCE_TOKEN()":"2439","TOKEN_DECIMALS()":"271","TOKEN_MAX_SUPPLY()":"249","associateTokens()":"infinite","burn(uint256)":"infinite","calculateRequiredCLXY(uint256)":"infinite","calculateRequiredHBAR(uint256)":"infinite","calculateRequiredSAUCE(uint256)":"infinite","checkAllowances(address,uint256)":"infinite","checkSupplyKey()":"infinite","createLynxToken(string,string,string)":"infinite","debugAllowances(address)":"infinite","getClxyRatio()":"2360","getHbarRatio()":"2338","getSauceRatio()":"2359","getTokenAddresses()":"6703","hasSupplyKey()":"2400","mint(uint256)":"infinite","setLynxTokenId(address)":"infinite","setSupplyKeyStatus(bool)":"27834","setTokenService(address)":"26828","testClxyAllowance(uint256)":"infinite","updateRatios(uint256,uint256,uint256)":"70434","updateSupplyKeyStatus()":"infinite"}},"methodIdentifiers":{"ADMIN()":"2a0acc6a","CLXY_RATIO()":"8d6be540","CLXY_TOKEN()":"1da965c2","HBAR_RATIO()":"4924190c","HTS_PRECOMPILE()":"4543873d","IS_SUPPLY_TYPE_INFINITE()":"e294204d","LYNX_TOKEN()":"e1e99576","SAUCE_RATIO()":"ef037593","SAUCE_TOKEN()":"1ec65c36","TOKEN_DECIMALS()":"5b7f415c","TOKEN_MAX_SUPPLY()":"8ee2c4b8","associateTokens()":"10ca0bce","burn(uint256)":"42966c68","calculateRequiredCLXY(uint256)":"92361927","calculateRequiredHBAR(uint256)":"6461e01a","calculateRequiredSAUCE(uint256)":"cab21a6a","checkAllowances(address,uint256)":"b0e4fe4f","checkSupplyKey()":"de579bc9","createLynxToken(string,string,string)":"1d12e296","debugAllowances(address)":"539e803f","getClxyRatio()":"853f51ad","getHbarRatio()":"739036b2","getSauceRatio()":"9057bb4a","getTokenAddresses()":"ee8c24b8","hasSupplyKey()":"331a4c20","mint(uint256)":"a0712d68","setLynxTokenId(address)":"85cb42d4","setSupplyKeyStatus(bool)":"335c3fe8","setTokenService(address)":"4bb3c9cf","testClxyAllowance(uint256)":"702c3c24","updateRatios(uint256,uint256,uint256)":"30d0a66c","updateSupplyKeyStatus()":"c2f4bfaf"}},"storageLayout":{"storage":[{"astId":7,"contract":"app/contracts/LynxMinter.sol:LynxMinter","label":"LYNX_TOKEN","offset":0,"slot":"0","type":"t_address"},{"astId":9,"contract":"app/contracts/LynxMinter.sol:LynxMinter","label":"SAUCE_TOKEN","offset":0,"slot":"1","type":"t_address"},{"astId":11,"contract":"app/contracts/LynxMinter.sol:LynxMinter","label":"CLXY_TOKEN","offset":0,"slot":"2","type":"t_address"},{"astId":13,"contract":"app/contracts/LynxMinter.sol:LynxMinter","label":"ADMIN","offset":0,"slot":"3","type":"t_address"},{"astId":25,"contract":"app/contracts/LynxMinter.sol:LynxMinter","label":"HBAR_RATIO","offset":0,"slot":"4","type":"t_uint256"},{"astId":28,"contract":"app/contracts/LynxMinter.sol:LynxMinter","label":"SAUCE_RATIO","offset":0,"slot":"5","type":"t_uint256"},{"astId":31,"contract":"app/contracts/LynxMinter.sol:LynxMinter","label":"CLXY_RATIO","offset":0,"slot":"6","type":"t_uint256"},{"astId":34,"contract":"app/contracts/LynxMinter.sol:LynxMinter","label":"hasSupplyKey","offset":0,"slot":"7","type":"t_bool"},{"astId":169,"contract":"app/contracts/LynxMinter.sol:LynxMinter","label":"hts","offset":1,"slot":"7","type":"t_contract(IHederaTokenService)1731"}],"types":{"t_address":{"encoding":"inplace","label":"address","numberOfBytes":"20"},"t_bool":{"encoding":"inplace","label":"bool","numberOfBytes":"1"},"t_contract(IHederaTokenService)1731":{"encoding":"inplace","label":"contract IHederaTokenService","numberOfBytes":"20"},"t_uint256":{"encoding":"inplace","label":"uint256","numberOfBytes":"32"}}},"userdoc":{"kind":"user","methods":{},"version":1}}}}