{"app/contracts/MockHederaTokenService.sol":{"MockHederaTokenService":{"abi":[{"inputs":[],"stateMutability":"nonpayable","type":"constructor"},{"inputs":[{"internalType":"address","name":"token","type":"address"},{"internalType":"uint256","name":"allowance","type":"uint256"},{"internalType":"uint256","name":"required","type":"uint256"}],"name":"InsufficientTokenAllowance","type":"error"},{"inputs":[{"internalType":"address","name":"token","type":"address"},{"internalType":"address","name":"caller","type":"address"}],"name":"NoSupplyKeyPermission","type":"error"},{"anonymous":false,"inputs":[{"indexed":true,"internalType":"address","name":"account","type":"address"},{"indexed":true,"internalType":"address","name":"token","type":"address"}],"name":"TokenAssociated","type":"event"},{"anonymous":false,"inputs":[{"indexed":true,"internalType":"address","name":"token","type":"address"},{"indexed":false,"internalType":"uint256","name":"amount","type":"uint256"}],"name":"TokenBurned","type":"event"},{"anonymous":false,"inputs":[{"indexed":true,"internalType":"address","name":"token","type":"address"},{"indexed":false,"internalType":"string","name":"name","type":"string"},{"indexed":false,"internalType":"string","name":"symbol","type":"string"},{"indexed":false,"internalType":"address","name":"treasury","type":"address"}],"name":"TokenCreated","type":"event"},{"anonymous":false,"inputs":[{"indexed":true,"internalType":"address","name":"token","type":"address"},{"indexed":false,"internalType":"uint256","name":"amount","type":"uint256"}],"name":"TokenMinted","type":"event"},{"anonymous":false,"inputs":[{"indexed":true,"internalType":"address","name":"token","type":"address"},{"indexed":true,"internalType":"address","name":"from","type":"address"},{"indexed":true,"internalType":"address","name":"to","type":"address"},{"indexed":false,"internalType":"uint256","name":"amount","type":"uint256"}],"name":"TokenTransferred","type":"event"},{"inputs":[{"internalType":"address","name":"token","type":"address"},{"internalType":"address","name":"owner","type":"address"},{"internalType":"address","name":"spender","type":"address"}],"name":"allowance","outputs":[{"internalType":"uint256","name":"","type":"uint256"}],"stateMutability":"view","type":"function"},{"inputs":[{"internalType":"address","name":"account","type":"address"},{"internalType":"address","name":"token","type":"address"}],"name":"associateToken","outputs":[{"internalType":"int64","name":"","type":"int64"}],"stateMutability":"nonpayable","type":"function"},{"inputs":[{"internalType":"address","name":"token","type":"address"},{"internalType":"address","name":"account","type":"address"}],"name":"balanceOf","outputs":[{"internalType":"uint256","name":"","type":"uint256"}],"stateMutability":"view","type":"function"},{"inputs":[{"internalType":"address","name":"token","type":"address"},{"internalType":"uint256","name":"amount","type":"uint256"},{"internalType":"bytes[]","name":"","type":"bytes[]"}],"name":"burnToken","outputs":[{"internalType":"int64","name":"","type":"int64"}],"stateMutability":"nonpayable","type":"function"},{"inputs":[],"name":"clearTransferResults","outputs":[],"stateMutability":"nonpayable","type":"function"},{"inputs":[{"components":[{"internalType":"string","name":"name","type":"string"},{"internalType":"string","name":"symbol","type":"string"},{"internalType":"address","name":"treasury","type":"address"},{"internalType":"string","name":"memo","type":"string"},{"internalType":"bool","name":"supplyType","type":"bool"},{"internalType":"uint32","name":"maxSupply","type":"uint32"},{"internalType":"bool","name":"freezeDefault","type":"bool"},{"internalType":"address[]","name":"freezeKey","type":"address[]"},{"internalType":"address[]","name":"wipeKey","type":"address[]"},{"internalType":"address[]","name":"supplyKey","type":"address[]"},{"internalType":"address[]","name":"adminKey","type":"address[]"},{"internalType":"address[]","name":"kycKey","type":"address[]"},{"internalType":"uint8","name":"decimals","type":"uint8"}],"internalType":"struct IHederaTokenService.HederaToken","name":"token","type":"tuple"},{"internalType":"uint256","name":"initialTotalSupply","type":"uint256"},{"internalType":"uint8[]","name":"keys","type":"uint8[]"},{"internalType":"address[]","name":"keyAddresses","type":"address[]"}],"name":"createToken","outputs":[{"internalType":"int64","name":"responseCode","type":"int64"},{"internalType":"address","name":"tokenAddress","type":"address"}],"stateMutability":"payable","type":"function"},{"inputs":[{"internalType":"address","name":"account","type":"address"},{"internalType":"address","name":"token","type":"address"}],"name":"disassociateToken","outputs":[{"internalType":"int64","name":"","type":"int64"}],"stateMutability":"nonpayable","type":"function"},{"inputs":[{"internalType":"address","name":"token","type":"address"}],"name":"getLastTransfer","outputs":[{"components":[{"internalType":"address","name":"from","type":"address"},{"internalType":"address","name":"to","type":"address"},{"internalType":"uint256","name":"amount","type":"uint256"}],"internalType":"struct MockHederaTokenService.Transfer","name":"","type":"tuple"}],"stateMutability":"view","type":"function"},{"inputs":[],"name":"getMockHtsPrecompile","outputs":[{"internalType":"address","name":"","type":"address"}],"stateMutability":"view","type":"function"},{"inputs":[],"name":"getRecordedCalls","outputs":[{"internalType":"string[]","name":"","type":"string[]"}],"stateMutability":"view","type":"function"},{"inputs":[],"name":"getSkipAllowanceChecks","outputs":[{"internalType":"bool","name":"","type":"bool"}],"stateMutability":"view","type":"function"},{"inputs":[{"internalType":"address","name":"token","type":"address"}],"name":"getSupplyKeyHolder","outputs":[{"internalType":"address","name":"","type":"address"}],"stateMutability":"view","type":"function"},{"inputs":[{"internalType":"address","name":"token","type":"address"},{"internalType":"address","name":"supplyAddress","type":"address"}],"name":"isSupplyKey","outputs":[{"internalType":"bool","name":"","type":"bool"}],"stateMutability":"view","type":"function"},{"inputs":[{"internalType":"address","name":"token","type":"address"},{"internalType":"address","name":"account","type":"address"}],"name":"isTokenAssociated","outputs":[{"internalType":"bool","name":"","type":"bool"}],"stateMutability":"view","type":"function"},{"inputs":[{"internalType":"address","name":"token","type":"address"},{"internalType":"uint256","name":"amount","type":"uint256"},{"internalType":"bytes[]","name":"","type":"bytes[]"}],"name":"mintToken","outputs":[{"internalType":"int64","name":"","type":"int64"}],"stateMutability":"nonpayable","type":"function"},{"inputs":[{"internalType":"int64","name":"responseCode","type":"int64"},{"internalType":"address","name":"tokenAddress","type":"address"}],"name":"mockCreateTokenResponse","outputs":[],"stateMutability":"nonpayable","type":"function"},{"inputs":[{"internalType":"address","name":"token","type":"address"},{"internalType":"address","name":"supplyAddress","type":"address"},{"internalType":"bool","name":"result","type":"bool"}],"name":"mockIsSupplyKey","outputs":[],"stateMutability":"nonpayable","type":"function"},{"inputs":[{"internalType":"address","name":"token","type":"address"},{"internalType":"address","name":"account","type":"address"}],"name":"revokeTokenAssociation","outputs":[],"stateMutability":"nonpayable","type":"function"},{"inputs":[{"internalType":"address","name":"token","type":"address"},{"internalType":"address","name":"owner","type":"address"},{"internalType":"address","name":"spender","type":"address"},{"internalType":"uint256","name":"amount","type":"uint256"}],"name":"setAllowance","outputs":[],"stateMutability":"nonpayable","type":"function"},{"inputs":[{"internalType":"address","name":"token","type":"address"},{"internalType":"address","name":"account","type":"address"},{"internalType":"uint256","name":"amount","type":"uint256"}],"name":"setBalance","outputs":[],"stateMutability":"nonpayable","type":"function"},{"inputs":[{"internalType":"address","name":"token","type":"address"},{"internalType":"bool","name":"shouldFail","type":"bool"}],"name":"setMintFailure","outputs":[],"stateMutability":"nonpayable","type":"function"},{"inputs":[{"internalType":"address","name":"token","type":"address"},{"internalType":"bool","name":"enabled","type":"bool"}],"name":"setMintingEnabled","outputs":[],"stateMutability":"nonpayable","type":"function"},{"inputs":[{"internalType":"address","name":"_mockHtsPrecompile","type":"address"}],"name":"setMockHtsPrecompile","outputs":[],"stateMutability":"nonpayable","type":"function"},{"inputs":[{"internalType":"bool","name":"skip","type":"bool"}],"name":"setSkipAllowanceChecks","outputs":[],"stateMutability":"nonpayable","type":"function"},{"inputs":[{"internalType":"address","name":"token","type":"address"},{"internalType":"address","name":"supplyKeyHolder","type":"address"}],"name":"setSupplyKeyHolder","outputs":[],"stateMutability":"nonpayable","type":"function"},{"inputs":[{"internalType":"address","name":"account","type":"address"},{"internalType":"address","name":"token","type":"address"},{"internalType":"bool","name":"associated","type":"bool"}],"name":"setTokenAssociated","outputs":[],"stateMutability":"nonpayable","type":"function"},{"inputs":[{"internalType":"address","name":"token","type":"address"},{"internalType":"bool","name":"shouldFail","type":"bool"}],"name":"setTransferFailure","outputs":[],"stateMutability":"nonpayable","type":"function"},{"inputs":[{"internalType":"address","name":"token","type":"address"},{"internalType":"int64","name":"result","type":"int64"}],"name":"setTransferResult","outputs":[],"stateMutability":"nonpayable","type":"function"},{"inputs":[{"internalType":"address","name":"lynxToken","type":"address"},{"internalType":"address","name":"sauceToken","type":"address"},{"internalType":"address","name":"clxyToken","type":"address"},{"internalType":"address","name":"lynxMinter","type":"address"}],"name":"setupTokens","outputs":[],"stateMutability":"nonpayable","type":"function"},{"inputs":[{"internalType":"address","name":"token","type":"address"},{"internalType":"address","name":"from","type":"address"},{"internalType":"address","name":"to","type":"address"},{"internalType":"uint256","name":"amount","type":"uint256"}],"name":"transferToken","outputs":[{"internalType":"int64","name":"","type":"int64"}],"stateMutability":"nonpayable","type":"function"},{"stateMutability":"payable","type":"receive"}],"devdoc":{"details":"Comprehensive mock implementation of the Hedera Token Service for testing This contract implements all the required functionality to test the LynxMinter contract","kind":"dev","methods":{"allowance(address,address,address)":{"details":"Get the allowance of tokens that a spender can use from an owner","params":{"owner":"The owner of the tokens","spender":"The spender who can use the tokens","token":"The token to check allowance for"},"returns":{"_0":"The amount of tokens the spender can use"}},"associateToken(address,address)":{"details":"Associate a token with an account","params":{"account":"The account to associate the token with","token":"The token to associate"},"returns":{"_0":"A response code (0 = success)"}},"balanceOf(address,address)":{"details":"Get the balance of tokens for an account","params":{"account":"The account to check the balance for","token":"The token to check the balance of"},"returns":{"_0":"The balance of tokens"}},"burnToken(address,uint256,bytes[])":{"details":"Burn tokens","params":{"amount":"The amount to burn","token":"The token to burn"},"returns":{"_0":"A response code (0 = success)"}},"clearTransferResults()":{"details":"Clear all transfer results (for testing)"},"createToken((string,string,address,string,bool,uint32,bool,address[],address[],address[],address[],address[],uint8),uint256,uint8[],address[])":{"details":"Create a new token","params":{"initialTotalSupply":"The initial supply to mint","keyAddresses":"The addresses for each key","keys":"The key types to set","token":"The token configuration"},"returns":{"responseCode":"A response code (0 = success)","tokenAddress":"The address of the created token"}},"disassociateToken(address,address)":{"details":"Disassociate a token from an account","params":{"account":"The account to disassociate the token from","token":"The token to disassociate"},"returns":{"_0":"A response code (0 = success)"}},"getLastTransfer(address)":{"details":"Get the last transfer for a token","params":{"token":"The token to get the last transfer for"},"returns":{"_0":"The last transfer (from, to, amount)"}},"getMockHtsPrecompile()":{"details":"Get the mock HTS precompile address","returns":{"_0":"The mock HTS precompile address"}},"getRecordedCalls()":{"details":"Get all recorded calls","returns":{"_0":"Array of recorded calls"}},"getSkipAllowanceChecks()":{"details":"Get whether allowance checks are being skipped","returns":{"_0":"Whether allowance checks are being skipped"}},"getSupplyKeyHolder(address)":{"details":"Get the supply key holder for a token (test helper)"},"isSupplyKey(address,address)":{"details":"Check if an address has the supply key for a token","params":{"supplyAddress":"The address to check","token":"The token to check"},"returns":{"_0":"True if the address has the supply key"}},"isTokenAssociated(address,address)":{"details":"Check if a token is associated with an account","params":{"account":"The account to check","token":"The token to check"},"returns":{"_0":"Whether the token is associated with the account"}},"mintToken(address,uint256,bytes[])":{"details":"Mint new tokens","params":{"amount":"The amount to mint","token":"The token to mint"},"returns":{"_0":"A response code (0 = success)"}},"mockCreateTokenResponse(int64,address)":{"details":"Mock the response for createToken (test helper)"},"mockIsSupplyKey(address,address,bool)":{"details":"Mock the response for isSupplyKey (test helper)"},"revokeTokenAssociation(address,address)":{"details":"Revoke token association","params":{"account":"The account to revoke association from","token":"The token to revoke association for"}},"setAllowance(address,address,address,uint256)":{"details":"Set the allowance of tokens for a spender (test helper)"},"setBalance(address,address,uint256)":{"details":"Set token balance for testing","params":{"account":"The account to set balance for","amount":"The amount to set","token":"The token to set balance for"}},"setMintFailure(address,bool)":{"details":"Set mint failure for a token","params":{"shouldFail":"Whether mints should fail","token":"The token to set mint failure for"}},"setMintingEnabled(address,bool)":{"details":"Set whether minting is enabled for a token (test helper)"},"setMockHtsPrecompile(address)":{"details":"Set the mock HTS precompile address","params":{"_mockHtsPrecompile":"The address to use as the mock HTS precompile"}},"setSkipAllowanceChecks(bool)":{"details":"Set whether to skip allowance checks","params":{"skip":"Whether to skip allowance checks"}},"setSupplyKeyHolder(address,address)":{"details":"Set the supply key holder for a token (test helper)","params":{"supplyKeyHolder":"The address to set as the supply key holder","token":"The token to set the supply key holder for"}},"setTokenAssociated(address,address,bool)":{"details":"Set a token as associated with an account (test helper)"},"setTransferFailure(address,bool)":{"details":"Set transfer failure for a token","params":{"shouldFail":"Whether transfers should fail","token":"The token to set transfer failure for"}},"setTransferResult(address,int64)":{"details":"Set a specific transfer result for testing","params":{"result":"The result to return (-1 = not associated, -2 = insufficient balance, -3 = insufficient allowance)","token":"The token to set the result for"}},"setupTokens(address,address,address,address)":{"details":"Setup test tokens with initial configurations","params":{"clxyToken":"The CLXY token address","lynxMinter":"The LynxMinter contract address","lynxToken":"The LYNX token address","sauceToken":"The SAUCE token address"}},"transferToken(address,address,address,uint256)":{"details":"Transfer tokens from one account to another","params":{"amount":"The amount to transfer","from":"The account to transfer from","to":"The account to transfer to","token":"The token to transfer"},"returns":{"_0":"A response code (0 = success)"}}},"title":"MockHederaTokenService","version":1},"evm":{"bytecode":{"linkReferences":{},"object":"6080604052600b805460ff1916905534801561001a57600080fd5b507fa15bc60c955c405d20d9149c709e2460f1c2d9a497496a7f46004d1772c3054c8054600160ff1991821681179092557fc3a24b0501bd2c13a7e57f2db4369ec4c223447539fc0724a9d55ac4a06ebd4d80548216831790557fcbc4e5fb02c3d1de23a9f1e014b4d2ee5aeaea9505df5e855c9210bf472495af80548216831790557fabd6e7cb50984ff9c2f3e18a2660c3353dadf4e3291deeb275dae2cd1e44fe0580546001600160a01b03199081169091557f91da3fd0782e51c6b3986e9e672fd566868e71f3dbc2d6c2cd6fbb3e361af2a78054821690557f2e174c10e159ea99b867ce3205125c24a42d128804e4070ed6fcc8cc98166aa0805490911690553060009081526002602081815260408084208685529091528083208054851686179055908252808220805484168517905560038252812080549092169092179055611f4290819061016f90396000f3fe6080604052600436106101d05760003560e01c806369bf64d1116100f7578063ac9e6d7a11610095578063cc2456b711610064578063cc2456b71461098c578063ec12dc02146109e1578063f3fc76fa14610a01578063f7888aec14610a2157600080fd5b8063ac9e6d7a1461076c578063b38fa556146107b5578063b5c9cbbe146107fb578063c09749461461084057600080fd5b8063927da105116100d1578063927da105146106495780639eb50f1b14610677578063a7070373146106c7578063a7796a901461071757600080fd5b806369bf64d11461058b5780636aaf328d146105b9578063725fe8a4146105ff57600080fd5b80632c54de4f1161016f57806349146bde1161013e57806349146bde146104a75780634b8555a3146104c75780634d2c5311146105005780635c34c68a1461056b57600080fd5b80632c54de4f146103e55780633fda8941146104185780634360b7ec14610438578063446072bf1461045a57600080fd5b80631957457d116101ab5780631957457d146102795780631abb194a1461031757806323408f4f1461035d57806324a94e01146103b357600080fd5b80629f7c13146101dc57806301b620ca1461020557806303bd89001461023a57600080fd5b366101d757005b600080fd5b3480156101e857600080fd5b50600b5460ff165b60405190151581526020015b60405180910390f35b6102186102133660046117f7565b610a65565b6040805160079390930b83526001600160a01b039091166020830152016101fc565b34801561024657600080fd5b50610277610255366004611a12565b600880546001600160a01b0319166001600160a01b0392909216919091179055565b005b34801561028557600080fd5b5061027760056020527f1471eb6eb2c5e789fc3de43f8ce62938c7d1836ec861730447e2ada8fd81017b805467ffffffffffffffff199081169091557f89832631fb3c3307a103ba2c84ab569c64d6182a18893dcd163f0f1c2090733a80548216905560036000527fa9bc9a3a348c357ba16b37005d7e6b3236198c0e939f4af8c5f19b8deeb8ebc080549091169055565b34801561032357600080fd5b50610277610332366004611a2d565b6001600160a01b03919091166000908152600360205260409020805460ff1916911515919091179055565b34801561036957600080fd5b50610277610378366004611a72565b6001600160a01b03919091166000908152600560205260409020805467ffffffffffffffff191667ffffffffffffffff909216919091179055565b3480156103bf57600080fd5b506008546001600160a01b03165b6040516001600160a01b0390911681526020016101fc565b3480156103f157600080fd5b50610405610400366004611a9c565b610df2565b60405160079190910b81526020016101fc565b34801561042457600080fd5b50610405610433366004611ae7565b610ffa565b34801561044457600080fd5b5061044d611030565b6040516101fc9190611b61565b34801561046657600080fd5b50610277610475366004611ae7565b6001600160a01b039081166000908152600260209081526040808320949093168252929092529020805460ff19169055565b3480156104b357600080fd5b506104056104c2366004611ae7565b611109565b3480156104d357600080fd5b506103cd6104e2366004611a12565b6001600160a01b039081166000908152600460205260409020541690565b34801561050c57600080fd5b5061027761051b366004611bc3565b6008805467ffffffffffffffff909316600160a01b0267ffffffffffffffff60a01b1990931692909217909155600980546001600160a01b039092166001600160a01b0319909216919091179055565b34801561057757600080fd5b506101f0610586366004611ae7565b611170565b34801561059757600080fd5b506102776105a6366004611bdf565b600b805460ff1916911515919091179055565b3480156105c557600080fd5b506102776105d4366004611a2d565b6001600160a01b03919091166000908152600d60205260409020805460ff1916911515919091179055565b34801561060b57600080fd5b506101f061061a366004611ae7565b6001600160a01b0380821660009081526002602090815260408083209386168352929052205460ff1692915050565b34801561065557600080fd5b50610669610664366004611bfa565b6111cb565b6040519081526020016101fc565b34801561068357600080fd5b50610697610692366004611a12565b611203565b6040805182516001600160a01b0390811682526020808501519091169082015291810151908201526060016101fc565b3480156106d357600080fd5b506102776106e2366004611a9c565b6001600160a01b0393841660009081526001602090815260408083209587168352948152848220939095168152919093522055565b34801561072357600080fd5b50610277610732366004611c3d565b6001600160a01b03928316600090815260026020908152604080832094909516825292909252919020805460ff1916911515919091179055565b34801561077857600080fd5b50610277610787366004611ae7565b6001600160a01b03918216600090815260046020526040902080546001600160a01b03191691909216179055565b3480156107c157600080fd5b506102776107d0366004611a2d565b6001600160a01b03919091166000908152600c60205260409020805460ff1916911515919091179055565b34801561080757600080fd5b50610277610816366004611c77565b6001600160a01b039283166000908152602081815260408083209490951682529290925291902055565b34801561084c57600080fd5b5061027761085b366004611cb3565b6001600160a01b0393841660008181526003602090815260408083208054600160ff19918216811790925597891680855282852080548a168317905596891680855282852080548a168317905595909816808452600283528184208585528352818420805489168a179055868452818420805489168a179055858452818420805490981689179097558383526004825280832080546001600160a01b031916881790558282528083208784528252808320839055858352828252808320878452825280832083905584835282825280832087845282528083208390559282528681528282208683528152828220828052815282822082905593815285845281812085825284528181208180528452818120819055918252938252838120928152918152828220828052905290812055565b34801561099857600080fd5b506102776109a7366004611c3d565b6001600160a01b039283166000908152600a6020908152604080832094909516825292909252919020805460ff1916911515919091179055565b3480156109ed57600080fd5b506104056109fc366004611d07565b611300565b348015610a0d57600080fd5b50610405610a1c366004611d07565b61147f565b348015610a2d57600080fd5b50610669610a3c366004611ae7565b6001600160a01b0391821660009081526020818152604080832093909416825291909152205490565b60095460009081906001600160a01b031615610c3557505060098054600880546001600160a01b0319831690935567ffffffffffffffff60a01b19831690556001600160a01b03166000818152600360205260409020805460ff19166001179055600160a01b90910460070b908415610b03576001600160a01b038082166000908152602081815260408083208a8201519094168352929052208590555b6040808701516001600160a01b03908116600090815260026020908152838220928516825291909152908120805460ff191660011790555b8451811015610bde57848181518110610b5657610b56611dea565b602002602001015160ff16600403610bcc57838181518110610b7a57610b7a611dea565b602002602001015160046000846001600160a01b03166001600160a01b0316815260200190815260200160002060006101000a8154816001600160a01b0302191690836001600160a01b031602179055505b80610bd681611e16565b915050610b3b565b50806001600160a01b03167f6596c1670eb3390048d23721809c3da5d3f531375ac0e2cab0f77a808ed64331876000015188602001518960400151604051610c2893929190611e2f565b60405180910390a2610de9565b8551604051610c4b914291339190602001611e6d565b60408051601f1981840301815291815281516020928301206001600160a01b038116600090815260039093529120805460ff1916600117905590508415610cb7576001600160a01b038082166000908152602081815260408083208a8201519094168352929052208590555b6040808701516001600160a01b03908116600090815260026020908152838220928516825291909152908120805460ff191660011790555b8451811015610d9257848181518110610d0a57610d0a611dea565b602002602001015160ff16600403610d8057838181518110610d2e57610d2e611dea565b602002602001015160046000846001600160a01b03166001600160a01b0316815260200190815260200160002060006101000a8154816001600160a01b0302191690836001600160a01b031602179055505b80610d8a81611e16565b915050610cef565b50806001600160a01b03167f6596c1670eb3390048d23721809c3da5d3f531375ac0e2cab0f77a808ed64331876000015188602001518960400151604051610ddc93929190611e2f565b60405180910390a2600091505b94509492505050565b6001600160a01b03841660009081526005602052604081205460070b15610e3557506001600160a01b03841660009081526005602052604090205460070b610ff2565b6001600160a01b0380851660009081526002602090815260408083209389168352929052205460ff161580610e9057506001600160a01b0380841660009081526002602090815260408083209389168352929052205460ff16155b15610e9e5750600019610ff2565b6001600160a01b0380861660009081526020818152604080832093881683529290522054821115610ed25750600119610ff2565b336001600160a01b03851614801590610f1757506001600160a01b03808616600090815260016020908152604080832093881683529281528282203383529052205482115b15610f255750600219610ff2565b6001600160a01b0380861660009081526020818152604080832093881683529290529081208054849290610f5a908490611eac565b90915550506001600160a01b0380861660009081526020818152604080832093871683529290529081208054849290610f94908490611ebf565b9091555050336001600160a01b03851614610fee576001600160a01b038086166000908152600160209081526040808320938816835292815282822033835290529081208054849290610fe8908490611eac565b90915550505b5060005b949350505050565b6001600160a01b0380831660009081526002602090815260408083209385168352929052908120805460ff191690555b92915050565b60606007805480602002602001604051908101604052809291908181526020016000905b8282101561110057838290600052602060002001805461107390611ed2565b80601f016020809104026020016040519081016040528092919081815260200182805461109f90611ed2565b80156110ec5780601f106110c1576101008083540402835291602001916110ec565b820191906000526020600020905b8154815290600101906020018083116110cf57829003601f168201915b505050505081526020019060010190611054565b50505050905090565b6001600160a01b03808316600081815260026020908152604080832094861680845294909152808220805460ff1916600117905551909291907f6ba8f0debf54740777149db87bd08717b4dbdcb36073d53cdc784019dafac16f908490a350600092915050565b6001600160a01b038083166000908152600a6020908152604080832093851683529290529081205460ff16156111a85750600161102a565b506001600160a01b03918216600090815260046020526040902054821691161490565b6001600160a01b03808416600090815260016020908152604080832086851684528252808320938516835292905220545b9392505050565b60408051606081018252600080825260208083018290528284018290526001600160a01b038516825260069052919091205461127e5760405162461bcd60e51b8152602060048201526015602482015274139bc81d1c985b9cd9995c9cc81c9958dbdc991959605a1b60448201526064015b60405180910390fd5b6001600160a01b038216600090815260066020526040902080546112a490600190611eac565b815481106112b4576112b4611dea565b600091825260209182902060408051606081018252600390930290910180546001600160a01b039081168452600182015416938301939093526002909201549181019190915292915050565b6001600160a01b0383166000908152600d602052604081205460ff161561132a57506003196111fc565b6001600160a01b03841660009081526003602052604090205460ff1661139d5760405162461bcd60e51b815260206004820152602260248201527f4d696e74696e67206e6f7420656e61626c656420666f72207468697320746f6b60448201526132b760f11b6064820152608401611275565b6001600160a01b038085166000908152600460205260409020541680158015906113d05750336001600160a01b03821614155b156113ff57604051630d27cbf560e11b81526001600160a01b0386166004820152336024820152604401611275565b6001600160a01b03851660009081526020818152604080832033845290915281208054869290611430908490611ebf565b90915550506040518481526001600160a01b038616907fb9144c96c86541f6fa89c9f2f02495cccf4b08cd6643e26d34ee00aa586558a8906020015b60405180910390a2506000949350505050565b6001600160a01b0380841660009081526004602052604081205490911680158015906114b45750336001600160a01b03821614155b156114e357604051630d27cbf560e11b81526001600160a01b0386166004820152336024820152604401611275565b6001600160a01b0385166000908152602081815260408083203384529091529020548411156115545760405162461bcd60e51b815260206004820152601c60248201527f496e73756666696369656e742062616c616e636520746f206275726e000000006044820152606401611275565b6001600160a01b03851660009081526020818152604080832033845290915281208054869290611585908490611eac565b90915550506040518481526001600160a01b038616907f1af5163f80e79b5e554f61e1d052084d3a3fe1166e42a265798c4e2ddce8ffa29060200161146c565b634e487b7160e01b600052604160045260246000fd5b6040516101a0810167ffffffffffffffff811182821017156115ff576115ff6115c5565b60405290565b604051601f8201601f1916810167ffffffffffffffff8111828210171561162e5761162e6115c5565b604052919050565b600067ffffffffffffffff831115611650576116506115c5565b611663601f8401601f1916602001611605565b905082815283838301111561167757600080fd5b828260208301376000602084830101529392505050565b600082601f83011261169f57600080fd5b6111fc83833560208501611636565b80356001600160a01b03811681146116c557600080fd5b919050565b803580151581146116c557600080fd5b803563ffffffff811681146116c557600080fd5b600067ffffffffffffffff821115611708576117086115c5565b5060051b60200190565b600082601f83011261172357600080fd5b81356020611738611733836116ee565b611605565b82815260059290921b8401810191818101908684111561175757600080fd5b8286015b848110156117795761176c816116ae565b835291830191830161175b565b509695505050505050565b803560ff811681146116c557600080fd5b600082601f8301126117a657600080fd5b813560206117b6611733836116ee565b82815260059290921b840181019181810190868411156117d557600080fd5b8286015b84811015611779576117ea81611784565b83529183019183016117d9565b6000806000806080858703121561180d57600080fd5b843567ffffffffffffffff8082111561182557600080fd5b908601906101a0828903121561183a57600080fd5b6118426115db565b82358281111561185157600080fd5b61185d8a82860161168e565b82525060208301358281111561187257600080fd5b61187e8a82860161168e565b602083015250611890604084016116ae565b60408201526060830135828111156118a757600080fd5b6118b38a82860161168e565b6060830152506118c5608084016116ca565b60808201526118d660a084016116da565b60a08201526118e760c084016116ca565b60c082015260e0830135828111156118fe57600080fd5b61190a8a828601611712565b60e083015250610100808401358381111561192457600080fd5b6119308b828701611712565b828401525050610120808401358381111561194a57600080fd5b6119568b828701611712565b828401525050610140808401358381111561197057600080fd5b61197c8b828701611712565b828401525050610160808401358381111561199657600080fd5b6119a28b828701611712565b8284015250506101806119b6818501611784565b9082015295506020870135945060408701359150808211156119d757600080fd5b6119e388838901611795565b935060608701359150808211156119f957600080fd5b50611a0687828801611712565b91505092959194509250565b600060208284031215611a2457600080fd5b6111fc826116ae565b60008060408385031215611a4057600080fd5b611a49836116ae565b9150611a57602084016116ca565b90509250929050565b8035600781900b81146116c557600080fd5b60008060408385031215611a8557600080fd5b611a8e836116ae565b9150611a5760208401611a60565b60008060008060808587031215611ab257600080fd5b611abb856116ae565b9350611ac9602086016116ae565b9250611ad7604086016116ae565b9396929550929360600135925050565b60008060408385031215611afa57600080fd5b611b03836116ae565b9150611a57602084016116ae565b60005b83811015611b2c578181015183820152602001611b14565b50506000910152565b60008151808452611b4d816020860160208601611b11565b601f01601f19169290920160200192915050565b6000602080830181845280855180835260408601915060408160051b870101925083870160005b82811015611bb657603f19888603018452611ba4858351611b35565b94509285019290850190600101611b88565b5092979650505050505050565b60008060408385031215611bd657600080fd5b611b0383611a60565b600060208284031215611bf157600080fd5b6111fc826116ca565b600080600060608486031215611c0f57600080fd5b611c18846116ae565b9250611c26602085016116ae565b9150611c34604085016116ae565b90509250925092565b600080600060608486031215611c5257600080fd5b611c5b846116ae565b9250611c69602085016116ae565b9150611c34604085016116ca565b600080600060608486031215611c8c57600080fd5b611c95846116ae565b9250611ca3602085016116ae565b9150604084013590509250925092565b60008060008060808587031215611cc957600080fd5b611cd2856116ae565b9350611ce0602086016116ae565b9250611cee604086016116ae565b9150611cfc606086016116ae565b905092959194509250565b600080600060608486031215611d1c57600080fd5b611d25846116ae565b9250602080850135925060408086013567ffffffffffffffff80821115611d4b57600080fd5b818801915088601f830112611d5f57600080fd5b8135611d6d611733826116ee565b81815260059190911b8301850190858101908b831115611d8c57600080fd5b8685015b83811015611dd857803585811115611da85760008081fd5b8601603f81018e13611dba5760008081fd5b611dca8e8a8301358a8401611636565b845250918701918701611d90565b50809750505050505050509250925092565b634e487b7160e01b600052603260045260246000fd5b634e487b7160e01b600052601160045260246000fd5b600060018201611e2857611e28611e00565b5060010190565b606081526000611e426060830186611b35565b8281036020840152611e548186611b35565b91505060018060a01b0383166040830152949350505050565b8381526bffffffffffffffffffffffff198360601b16602082015260008251611e9d816034850160208701611b11565b91909101603401949350505050565b8181038181111561102a5761102a611e00565b8082018082111561102a5761102a611e00565b600181811c90821680611ee657607f821691505b602082108103611f0657634e487b7160e01b600052602260045260246000fd5b5091905056fea26469706673582212205f1caa3b5fb6eb7a1fc9544053abf2b343fb549fbbf8a70cc02b8faf4bbb07a164736f6c63430008120033","opcodes":"PUSH1 0x80 PUSH1 0x40 MSTORE PUSH1 0xB DUP1 SLOAD PUSH1 0xFF NOT AND SWAP1 SSTORE CALLVALUE DUP1 ISZERO PUSH2 0x1A JUMPI PUSH1 0x0 DUP1 REVERT JUMPDEST POP PUSH32 0xA15BC60C955C405D20D9149C709E2460F1C2D9A497496A7F46004D1772C3054C DUP1 SLOAD PUSH1 0x1 PUSH1 0xFF NOT SWAP2 DUP3 AND DUP2 OR SWAP1 SWAP3 SSTORE PUSH32 0xC3A24B0501BD2C13A7E57F2DB4369EC4C223447539FC0724A9D55AC4A06EBD4D DUP1 SLOAD DUP3 AND DUP4 OR SWAP1 SSTORE PUSH32 0xCBC4E5FB02C3D1DE23A9F1E014B4D2EE5AEAEA9505DF5E855C9210BF472495AF DUP1 SLOAD DUP3 AND DUP4 OR SWAP1 SSTORE PUSH32 0xABD6E7CB50984FF9C2F3E18A2660C3353DADF4E3291DEEB275DAE2CD1E44FE05 DUP1 SLOAD PUSH1 0x1 PUSH1 0x1 PUSH1 0xA0 SHL SUB NOT SWAP1 DUP2 AND SWAP1 SWAP2 SSTORE PUSH32 0x91DA3FD0782E51C6B3986E9E672FD566868E71F3DBC2D6C2CD6FBB3E361AF2A7 DUP1 SLOAD DUP3 AND SWAP1 SSTORE PUSH32 0x2E174C10E159EA99B867CE3205125C24A42D128804E4070ED6FCC8CC98166AA0 DUP1 SLOAD SWAP1 SWAP2 AND SWAP1 SSTORE ADDRESS PUSH1 0x0 SWAP1 DUP2 MSTORE PUSH1 0x2 PUSH1 0x20 DUP2 DUP2 MSTORE PUSH1 0x40 DUP1 DUP5 KECCAK256 DUP7 DUP6 MSTORE SWAP1 SWAP2 MSTORE DUP1 DUP4 KECCAK256 DUP1 SLOAD DUP6 AND DUP7 OR SWAP1 SSTORE SWAP1 DUP3 MSTORE DUP1 DUP3 KECCAK256 DUP1 SLOAD DUP5 AND DUP6 OR SWAP1 SSTORE PUSH1 0x3 DUP3 MSTORE DUP2 KECCAK256 DUP1 SLOAD SWAP1 SWAP3 AND SWAP1 SWAP3 OR SWAP1 SSTORE PUSH2 0x1F42 SWAP1 DUP2 SWAP1 PUSH2 0x16F SWAP1 CODECOPY PUSH1 0x0 RETURN INVALID PUSH1 0x80 PUSH1 0x40 MSTORE PUSH1 0x4 CALLDATASIZE LT PUSH2 0x1D0 JUMPI PUSH1 0x0 CALLDATALOAD PUSH1 0xE0 SHR DUP1 PUSH4 0x69BF64D1 GT PUSH2 0xF7 JUMPI DUP1 PUSH4 0xAC9E6D7A GT PUSH2 0x95 JUMPI DUP1 PUSH4 0xCC2456B7 GT PUSH2 0x64 JUMPI DUP1 PUSH4 0xCC2456B7 EQ PUSH2 0x98C JUMPI DUP1 PUSH4 0xEC12DC02 EQ PUSH2 0x9E1 JUMPI DUP1 PUSH4 0xF3FC76FA EQ PUSH2 0xA01 JUMPI DUP1 PUSH4 0xF7888AEC EQ PUSH2 0xA21 JUMPI PUSH1 0x0 DUP1 REVERT JUMPDEST DUP1 PUSH4 0xAC9E6D7A EQ PUSH2 0x76C JUMPI DUP1 PUSH4 0xB38FA556 EQ PUSH2 0x7B5 JUMPI DUP1 PUSH4 0xB5C9CBBE EQ PUSH2 0x7FB JUMPI DUP1 PUSH4 0xC0974946 EQ PUSH2 0x840 JUMPI PUSH1 0x0 DUP1 REVERT JUMPDEST DUP1 PUSH4 0x927DA105 GT PUSH2 0xD1 JUMPI DUP1 PUSH4 0x927DA105 EQ PUSH2 0x649 JUMPI DUP1 PUSH4 0x9EB50F1B EQ PUSH2 0x677 JUMPI DUP1 PUSH4 0xA7070373 EQ PUSH2 0x6C7 JUMPI DUP1 PUSH4 0xA7796A90 EQ PUSH2 0x717 JUMPI PUSH1 0x0 DUP1 REVERT JUMPDEST DUP1 PUSH4 0x69BF64D1 EQ PUSH2 0x58B JUMPI DUP1 PUSH4 0x6AAF328D EQ PUSH2 0x5B9 JUMPI DUP1 PUSH4 0x725FE8A4 EQ PUSH2 0x5FF JUMPI PUSH1 0x0 DUP1 REVERT JUMPDEST DUP1 PUSH4 0x2C54DE4F GT PUSH2 0x16F JUMPI DUP1 PUSH4 0x49146BDE GT PUSH2 0x13E JUMPI DUP1 PUSH4 0x49146BDE EQ PUSH2 0x4A7 JUMPI DUP1 PUSH4 0x4B8555A3 EQ PUSH2 0x4C7 JUMPI DUP1 PUSH4 0x4D2C5311 EQ PUSH2 0x500 JUMPI DUP1 PUSH4 0x5C34C68A EQ PUSH2 0x56B JUMPI PUSH1 0x0 DUP1 REVERT JUMPDEST DUP1 PUSH4 0x2C54DE4F EQ PUSH2 0x3E5 JUMPI DUP1 PUSH4 0x3FDA8941 EQ PUSH2 0x418 JUMPI DUP1 PUSH4 0x4360B7EC EQ PUSH2 0x438 JUMPI DUP1 PUSH4 0x446072BF EQ PUSH2 0x45A JUMPI PUSH1 0x0 DUP1 REVERT JUMPDEST DUP1 PUSH4 0x1957457D GT PUSH2 0x1AB JUMPI DUP1 PUSH4 0x1957457D EQ PUSH2 0x279 JUMPI DUP1 PUSH4 0x1ABB194A EQ PUSH2 0x317 JUMPI DUP1 PUSH4 0x23408F4F EQ PUSH2 0x35D JUMPI DUP1 PUSH4 0x24A94E01 EQ PUSH2 0x3B3 JUMPI PUSH1 0x0 DUP1 REVERT JUMPDEST DUP1 PUSH3 0x9F7C13 EQ PUSH2 0x1DC JUMPI DUP1 PUSH4 0x1B620CA EQ PUSH2 0x205 JUMPI DUP1 PUSH4 0x3BD8900 EQ PUSH2 0x23A JUMPI PUSH1 0x0 DUP1 REVERT JUMPDEST CALLDATASIZE PUSH2 0x1D7 JUMPI STOP JUMPDEST PUSH1 0x0 DUP1 REVERT JUMPDEST CALLVALUE DUP1 ISZERO PUSH2 0x1E8 JUMPI PUSH1 0x0 DUP1 REVERT JUMPDEST POP PUSH1 0xB SLOAD PUSH1 0xFF AND JUMPDEST PUSH1 0x40 MLOAD SWAP1 ISZERO ISZERO DUP2 MSTORE PUSH1 0x20 ADD JUMPDEST PUSH1 0x40 MLOAD DUP1 SWAP2 SUB SWAP1 RETURN JUMPDEST PUSH2 0x218 PUSH2 0x213 CALLDATASIZE PUSH1 0x4 PUSH2 0x17F7 JUMP JUMPDEST PUSH2 0xA65 JUMP JUMPDEST PUSH1 0x40 DUP1 MLOAD PUSH1 0x7 SWAP4 SWAP1 SWAP4 SIGNEXTEND DUP4 MSTORE PUSH1 0x1 PUSH1 0x1 PUSH1 0xA0 SHL SUB SWAP1 SWAP2 AND PUSH1 0x20 DUP4 ADD MSTORE ADD PUSH2 0x1FC JUMP JUMPDEST CALLVALUE DUP1 ISZERO PUSH2 0x246 JUMPI PUSH1 0x0 DUP1 REVERT JUMPDEST POP PUSH2 0x277 PUSH2 0x255 CALLDATASIZE PUSH1 0x4 PUSH2 0x1A12 JUMP JUMPDEST PUSH1 0x8 DUP1 SLOAD PUSH1 0x1 PUSH1 0x1 PUSH1 0xA0 SHL SUB NOT AND PUSH1 0x1 PUSH1 0x1 PUSH1 0xA0 SHL SUB SWAP3 SWAP1 SWAP3 AND SWAP2 SWAP1 SWAP2 OR SWAP1 SSTORE JUMP JUMPDEST STOP JUMPDEST CALLVALUE DUP1 ISZERO PUSH2 0x285 JUMPI PUSH1 0x0 DUP1 REVERT JUMPDEST POP PUSH2 0x277 PUSH1 0x5 PUSH1 0x20 MSTORE PUSH32 0x1471EB6EB2C5E789FC3DE43F8CE62938C7D1836EC861730447E2ADA8FD81017B DUP1 SLOAD PUSH8 0xFFFFFFFFFFFFFFFF NOT SWAP1 DUP2 AND SWAP1 SWAP2 SSTORE PUSH32 0x89832631FB3C3307A103BA2C84AB569C64D6182A18893DCD163F0F1C2090733A DUP1 SLOAD DUP3 AND SWAP1 SSTORE PUSH1 0x3 PUSH1 0x0 MSTORE PUSH32 0xA9BC9A3A348C357BA16B37005D7E6B3236198C0E939F4AF8C5F19B8DEEB8EBC0 DUP1 SLOAD SWAP1 SWAP2 AND SWAP1 SSTORE JUMP JUMPDEST CALLVALUE DUP1 ISZERO PUSH2 0x323 JUMPI PUSH1 0x0 DUP1 REVERT JUMPDEST POP PUSH2 0x277 PUSH2 0x332 CALLDATASIZE PUSH1 0x4 PUSH2 0x1A2D JUMP JUMPDEST PUSH1 0x1 PUSH1 0x1 PUSH1 0xA0 SHL SUB SWAP2 SWAP1 SWAP2 AND PUSH1 0x0 SWAP1 DUP2 MSTORE PUSH1 0x3 PUSH1 0x20 MSTORE PUSH1 0x40 SWAP1 KECCAK256 DUP1 SLOAD PUSH1 0xFF NOT AND SWAP2 ISZERO ISZERO SWAP2 SWAP1 SWAP2 OR SWAP1 SSTORE JUMP JUMPDEST CALLVALUE DUP1 ISZERO PUSH2 0x369 JUMPI PUSH1 0x0 DUP1 REVERT JUMPDEST POP PUSH2 0x277 PUSH2 0x378 CALLDATASIZE PUSH1 0x4 PUSH2 0x1A72 JUMP JUMPDEST PUSH1 0x1 PUSH1 0x1 PUSH1 0xA0 SHL SUB SWAP2 SWAP1 SWAP2 AND PUSH1 0x0 SWAP1 DUP2 MSTORE PUSH1 0x5 PUSH1 0x20 MSTORE PUSH1 0x40 SWAP1 KECCAK256 DUP1 SLOAD PUSH8 0xFFFFFFFFFFFFFFFF NOT AND PUSH8 0xFFFFFFFFFFFFFFFF SWAP1 SWAP3 AND SWAP2 SWAP1 SWAP2 OR SWAP1 SSTORE JUMP JUMPDEST CALLVALUE DUP1 ISZERO PUSH2 0x3BF JUMPI PUSH1 0x0 DUP1 REVERT JUMPDEST POP PUSH1 0x8 SLOAD PUSH1 0x1 PUSH1 0x1 PUSH1 0xA0 SHL SUB AND JUMPDEST PUSH1 0x40 MLOAD PUSH1 0x1 PUSH1 0x1 PUSH1 0xA0 SHL SUB SWAP1 SWAP2 AND DUP2 MSTORE PUSH1 0x20 ADD PUSH2 0x1FC JUMP JUMPDEST CALLVALUE DUP1 ISZERO PUSH2 0x3F1 JUMPI PUSH1 0x0 DUP1 REVERT JUMPDEST POP PUSH2 0x405 PUSH2 0x400 CALLDATASIZE PUSH1 0x4 PUSH2 0x1A9C JUMP JUMPDEST PUSH2 0xDF2 JUMP JUMPDEST PUSH1 0x40 MLOAD PUSH1 0x7 SWAP2 SWAP1 SWAP2 SIGNEXTEND DUP2 MSTORE PUSH1 0x20 ADD PUSH2 0x1FC JUMP JUMPDEST CALLVALUE DUP1 ISZERO PUSH2 0x424 JUMPI PUSH1 0x0 DUP1 REVERT JUMPDEST POP PUSH2 0x405 PUSH2 0x433 CALLDATASIZE PUSH1 0x4 PUSH2 0x1AE7 JUMP JUMPDEST PUSH2 0xFFA JUMP JUMPDEST CALLVALUE DUP1 ISZERO PUSH2 0x444 JUMPI PUSH1 0x0 DUP1 REVERT JUMPDEST POP PUSH2 0x44D PUSH2 0x1030 JUMP JUMPDEST PUSH1 0x40 MLOAD PUSH2 0x1FC SWAP2 SWAP1 PUSH2 0x1B61 JUMP JUMPDEST CALLVALUE DUP1 ISZERO PUSH2 0x466 JUMPI PUSH1 0x0 DUP1 REVERT JUMPDEST POP PUSH2 0x277 PUSH2 0x475 CALLDATASIZE PUSH1 0x4 PUSH2 0x1AE7 JUMP JUMPDEST PUSH1 0x1 PUSH1 0x1 PUSH1 0xA0 SHL SUB SWAP1 DUP2 AND PUSH1 0x0 SWAP1 DUP2 MSTORE PUSH1 0x2 PUSH1 0x20 SWAP1 DUP2 MSTORE PUSH1 0x40 DUP1 DUP4 KECCAK256 SWAP5 SWAP1 SWAP4 AND DUP3 MSTORE SWAP3 SWAP1 SWAP3 MSTORE SWAP1 KECCAK256 DUP1 SLOAD PUSH1 0xFF NOT AND SWAP1 SSTORE JUMP JUMPDEST CALLVALUE DUP1 ISZERO PUSH2 0x4B3 JUMPI PUSH1 0x0 DUP1 REVERT JUMPDEST POP PUSH2 0x405 PUSH2 0x4C2 CALLDATASIZE PUSH1 0x4 PUSH2 0x1AE7 JUMP JUMPDEST PUSH2 0x1109 JUMP JUMPDEST CALLVALUE DUP1 ISZERO PUSH2 0x4D3 JUMPI PUSH1 0x0 DUP1 REVERT JUMPDEST POP PUSH2 0x3CD PUSH2 0x4E2 CALLDATASIZE PUSH1 0x4 PUSH2 0x1A12 JUMP JUMPDEST PUSH1 0x1 PUSH1 0x1 PUSH1 0xA0 SHL SUB SWAP1 DUP2 AND PUSH1 0x0 SWAP1 DUP2 MSTORE PUSH1 0x4 PUSH1 0x20 MSTORE PUSH1 0x40 SWAP1 KECCAK256 SLOAD AND SWAP1 JUMP JUMPDEST CALLVALUE DUP1 ISZERO PUSH2 0x50C JUMPI PUSH1 0x0 DUP1 REVERT JUMPDEST POP PUSH2 0x277 PUSH2 0x51B CALLDATASIZE PUSH1 0x4 PUSH2 0x1BC3 JUMP JUMPDEST PUSH1 0x8 DUP1 SLOAD PUSH8 0xFFFFFFFFFFFFFFFF SWAP1 SWAP4 AND PUSH1 0x1 PUSH1 0xA0 SHL MUL PUSH8 0xFFFFFFFFFFFFFFFF PUSH1 0xA0 SHL NOT SWAP1 SWAP4 AND SWAP3 SWAP1 SWAP3 OR SWAP1 SWAP2 SSTORE PUSH1 0x9 DUP1 SLOAD PUSH1 0x1 PUSH1 0x1 PUSH1 0xA0 SHL SUB SWAP1 SWAP3 AND PUSH1 0x1 PUSH1 0x1 PUSH1 0xA0 SHL SUB NOT SWAP1 SWAP3 AND SWAP2 SWAP1 SWAP2 OR SWAP1 SSTORE JUMP JUMPDEST CALLVALUE DUP1 ISZERO PUSH2 0x577 JUMPI PUSH1 0x0 DUP1 REVERT JUMPDEST POP PUSH2 0x1F0 PUSH2 0x586 CALLDATASIZE PUSH1 0x4 PUSH2 0x1AE7 JUMP JUMPDEST PUSH2 0x1170 JUMP JUMPDEST CALLVALUE DUP1 ISZERO PUSH2 0x597 JUMPI PUSH1 0x0 DUP1 REVERT JUMPDEST POP PUSH2 0x277 PUSH2 0x5A6 CALLDATASIZE PUSH1 0x4 PUSH2 0x1BDF JUMP JUMPDEST PUSH1 0xB DUP1 SLOAD PUSH1 0xFF NOT AND SWAP2 ISZERO ISZERO SWAP2 SWAP1 SWAP2 OR SWAP1 SSTORE JUMP JUMPDEST CALLVALUE DUP1 ISZERO PUSH2 0x5C5 JUMPI PUSH1 0x0 DUP1 REVERT JUMPDEST POP PUSH2 0x277 PUSH2 0x5D4 CALLDATASIZE PUSH1 0x4 PUSH2 0x1A2D JUMP JUMPDEST PUSH1 0x1 PUSH1 0x1 PUSH1 0xA0 SHL SUB SWAP2 SWAP1 SWAP2 AND PUSH1 0x0 SWAP1 DUP2 MSTORE PUSH1 0xD PUSH1 0x20 MSTORE PUSH1 0x40 SWAP1 KECCAK256 DUP1 SLOAD PUSH1 0xFF NOT AND SWAP2 ISZERO ISZERO SWAP2 SWAP1 SWAP2 OR SWAP1 SSTORE JUMP JUMPDEST CALLVALUE DUP1 ISZERO PUSH2 0x60B JUMPI PUSH1 0x0 DUP1 REVERT JUMPDEST POP PUSH2 0x1F0 PUSH2 0x61A CALLDATASIZE PUSH1 0x4 PUSH2 0x1AE7 JUMP JUMPDEST PUSH1 0x1 PUSH1 0x1 PUSH1 0xA0 SHL SUB DUP1 DUP3 AND PUSH1 0x0 SWAP1 DUP2 MSTORE PUSH1 0x2 PUSH1 0x20 SWAP1 DUP2 MSTORE PUSH1 0x40 DUP1 DUP4 KECCAK256 SWAP4 DUP7 AND DUP4 MSTORE SWAP3 SWAP1 MSTORE KECCAK256 SLOAD PUSH1 0xFF AND SWAP3 SWAP2 POP POP JUMP JUMPDEST CALLVALUE DUP1 ISZERO PUSH2 0x655 JUMPI PUSH1 0x0 DUP1 REVERT JUMPDEST POP PUSH2 0x669 PUSH2 0x664 CALLDATASIZE PUSH1 0x4 PUSH2 0x1BFA JUMP JUMPDEST PUSH2 0x11CB JUMP JUMPDEST PUSH1 0x40 MLOAD SWAP1 DUP2 MSTORE PUSH1 0x20 ADD PUSH2 0x1FC JUMP JUMPDEST CALLVALUE DUP1 ISZERO PUSH2 0x683 JUMPI PUSH1 0x0 DUP1 REVERT JUMPDEST POP PUSH2 0x697 PUSH2 0x692 CALLDATASIZE PUSH1 0x4 PUSH2 0x1A12 JUMP JUMPDEST PUSH2 0x1203 JUMP JUMPDEST PUSH1 0x40 DUP1 MLOAD DUP3 MLOAD PUSH1 0x1 PUSH1 0x1 PUSH1 0xA0 SHL SUB SWAP1 DUP2 AND DUP3 MSTORE PUSH1 0x20 DUP1 DUP6 ADD MLOAD SWAP1 SWAP2 AND SWAP1 DUP3 ADD MSTORE SWAP2 DUP2 ADD MLOAD SWAP1 DUP3 ADD MSTORE PUSH1 0x60 ADD PUSH2 0x1FC JUMP JUMPDEST CALLVALUE DUP1 ISZERO PUSH2 0x6D3 JUMPI PUSH1 0x0 DUP1 REVERT JUMPDEST POP PUSH2 0x277 PUSH2 0x6E2 CALLDATASIZE PUSH1 0x4 PUSH2 0x1A9C JUMP JUMPDEST PUSH1 0x1 PUSH1 0x1 PUSH1 0xA0 SHL SUB SWAP4 DUP5 AND PUSH1 0x0 SWAP1 DUP2 MSTORE PUSH1 0x1 PUSH1 0x20 SWAP1 DUP2 MSTORE PUSH1 0x40 DUP1 DUP4 KECCAK256 SWAP6 DUP8 AND DUP4 MSTORE SWAP5 DUP2 MSTORE DUP5 DUP3 KECCAK256 SWAP4 SWAP1 SWAP6 AND DUP2 MSTORE SWAP2 SWAP1 SWAP4 MSTORE KECCAK256 SSTORE JUMP JUMPDEST CALLVALUE DUP1 ISZERO PUSH2 0x723 JUMPI PUSH1 0x0 DUP1 REVERT JUMPDEST POP PUSH2 0x277 PUSH2 0x732 CALLDATASIZE PUSH1 0x4 PUSH2 0x1C3D JUMP JUMPDEST PUSH1 0x1 PUSH1 0x1 PUSH1 0xA0 SHL SUB SWAP3 DUP4 AND PUSH1 0x0 SWAP1 DUP2 MSTORE PUSH1 0x2 PUSH1 0x20 SWAP1 DUP2 MSTORE PUSH1 0x40 DUP1 DUP4 KECCAK256 SWAP5 SWAP1 SWAP6 AND DUP3 MSTORE SWAP3 SWAP1 SWAP3 MSTORE SWAP2 SWAP1 KECCAK256 DUP1 SLOAD PUSH1 0xFF NOT AND SWAP2 ISZERO ISZERO SWAP2 SWAP1 SWAP2 OR SWAP1 SSTORE JUMP JUMPDEST CALLVALUE DUP1 ISZERO PUSH2 0x778 JUMPI PUSH1 0x0 DUP1 REVERT JUMPDEST POP PUSH2 0x277 PUSH2 0x787 CALLDATASIZE PUSH1 0x4 PUSH2 0x1AE7 JUMP JUMPDEST PUSH1 0x1 PUSH1 0x1 PUSH1 0xA0 SHL SUB SWAP2 DUP3 AND PUSH1 0x0 SWAP1 DUP2 MSTORE PUSH1 0x4 PUSH1 0x20 MSTORE PUSH1 0x40 SWAP1 KECCAK256 DUP1 SLOAD PUSH1 0x1 PUSH1 0x1 PUSH1 0xA0 SHL SUB NOT AND SWAP2 SWAP1 SWAP3 AND OR SWAP1 SSTORE JUMP JUMPDEST CALLVALUE DUP1 ISZERO PUSH2 0x7C1 JUMPI PUSH1 0x0 DUP1 REVERT JUMPDEST POP PUSH2 0x277 PUSH2 0x7D0 CALLDATASIZE PUSH1 0x4 PUSH2 0x1A2D JUMP JUMPDEST PUSH1 0x1 PUSH1 0x1 PUSH1 0xA0 SHL SUB SWAP2 SWAP1 SWAP2 AND PUSH1 0x0 SWAP1 DUP2 MSTORE PUSH1 0xC PUSH1 0x20 MSTORE PUSH1 0x40 SWAP1 KECCAK256 DUP1 SLOAD PUSH1 0xFF NOT AND SWAP2 ISZERO ISZERO SWAP2 SWAP1 SWAP2 OR SWAP1 SSTORE JUMP JUMPDEST CALLVALUE DUP1 ISZERO PUSH2 0x807 JUMPI PUSH1 0x0 DUP1 REVERT JUMPDEST POP PUSH2 0x277 PUSH2 0x816 CALLDATASIZE PUSH1 0x4 PUSH2 0x1C77 JUMP JUMPDEST PUSH1 0x1 PUSH1 0x1 PUSH1 0xA0 SHL SUB SWAP3 DUP4 AND PUSH1 0x0 SWAP1 DUP2 MSTORE PUSH1 0x20 DUP2 DUP2 MSTORE PUSH1 0x40 DUP1 DUP4 KECCAK256 SWAP5 SWAP1 SWAP6 AND DUP3 MSTORE SWAP3 SWAP1 SWAP3 MSTORE SWAP2 SWAP1 KECCAK256 SSTORE JUMP JUMPDEST CALLVALUE DUP1 ISZERO PUSH2 0x84C JUMPI PUSH1 0x0 DUP1 REVERT JUMPDEST POP PUSH2 0x277 PUSH2 0x85B CALLDATASIZE PUSH1 0x4 PUSH2 0x1CB3 JUMP JUMPDEST PUSH1 0x1 PUSH1 0x1 PUSH1 0xA0 SHL SUB SWAP4 DUP5 AND PUSH1 0x0 DUP2 DUP2 MSTORE PUSH1 0x3 PUSH1 0x20 SWAP1 DUP2 MSTORE PUSH1 0x40 DUP1 DUP4 KECCAK256 DUP1 SLOAD PUSH1 0x1 PUSH1 0xFF NOT SWAP2 DUP3 AND DUP2 OR SWAP1 SWAP3 SSTORE SWAP8 DUP10 AND DUP1 DUP6 MSTORE DUP3 DUP6 KECCAK256 DUP1 SLOAD DUP11 AND DUP4 OR SWAP1 SSTORE SWAP7 DUP10 AND DUP1 DUP6 MSTORE DUP3 DUP6 KECCAK256 DUP1 SLOAD DUP11 AND DUP4 OR SWAP1 SSTORE SWAP6 SWAP1 SWAP9 AND DUP1 DUP5 MSTORE PUSH1 0x2 DUP4 MSTORE DUP2 DUP5 KECCAK256 DUP6 DUP6 MSTORE DUP4 MSTORE DUP2 DUP5 KECCAK256 DUP1 SLOAD DUP10 AND DUP11 OR SWAP1 SSTORE DUP7 DUP5 MSTORE DUP2 DUP5 KECCAK256 DUP1 SLOAD DUP10 AND DUP11 OR SWAP1 SSTORE DUP6 DUP5 MSTORE DUP2 DUP5 KECCAK256 DUP1 SLOAD SWAP1 SWAP9 AND DUP10 OR SWAP1 SWAP8 SSTORE DUP4 DUP4 MSTORE PUSH1 0x4 DUP3 MSTORE DUP1 DUP4 KECCAK256 DUP1 SLOAD PUSH1 0x1 PUSH1 0x1 PUSH1 0xA0 SHL SUB NOT AND DUP9 OR SWAP1 SSTORE DUP3 DUP3 MSTORE DUP1 DUP4 KECCAK256 DUP8 DUP5 MSTORE DUP3 MSTORE DUP1 DUP4 KECCAK256 DUP4 SWAP1 SSTORE DUP6 DUP4 MSTORE DUP3 DUP3 MSTORE DUP1 DUP4 KECCAK256 DUP8 DUP5 MSTORE DUP3 MSTORE DUP1 DUP4 KECCAK256 DUP4 SWAP1 SSTORE DUP5 DUP4 MSTORE DUP3 DUP3 MSTORE DUP1 DUP4 KECCAK256 DUP8 DUP5 MSTORE DUP3 MSTORE DUP1 DUP4 KECCAK256 DUP4 SWAP1 SSTORE SWAP3 DUP3 MSTORE DUP7 DUP2 MSTORE DUP3 DUP3 KECCAK256 DUP7 DUP4 MSTORE DUP2 MSTORE DUP3 DUP3 KECCAK256 DUP3 DUP1 MSTORE DUP2 MSTORE DUP3 DUP3 KECCAK256 DUP3 SWAP1 SSTORE SWAP4 DUP2 MSTORE DUP6 DUP5 MSTORE DUP2 DUP2 KECCAK256 DUP6 DUP3 MSTORE DUP5 MSTORE DUP2 DUP2 KECCAK256 DUP2 DUP1 MSTORE DUP5 MSTORE DUP2 DUP2 KECCAK256 DUP2 SWAP1 SSTORE SWAP2 DUP3 MSTORE SWAP4 DUP3 MSTORE DUP4 DUP2 KECCAK256 SWAP3 DUP2 MSTORE SWAP2 DUP2 MSTORE DUP3 DUP3 KECCAK256 DUP3 DUP1 MSTORE SWAP1 MSTORE SWAP1 DUP2 KECCAK256 SSTORE JUMP JUMPDEST CALLVALUE DUP1 ISZERO PUSH2 0x998 JUMPI PUSH1 0x0 DUP1 REVERT JUMPDEST POP PUSH2 0x277 PUSH2 0x9A7 CALLDATASIZE PUSH1 0x4 PUSH2 0x1C3D JUMP JUMPDEST PUSH1 0x1 PUSH1 0x1 PUSH1 0xA0 SHL SUB SWAP3 DUP4 AND PUSH1 0x0 SWAP1 DUP2 MSTORE PUSH1 0xA PUSH1 0x20 SWAP1 DUP2 MSTORE PUSH1 0x40 DUP1 DUP4 KECCAK256 SWAP5 SWAP1 SWAP6 AND DUP3 MSTORE SWAP3 SWAP1 SWAP3 MSTORE SWAP2 SWAP1 KECCAK256 DUP1 SLOAD PUSH1 0xFF NOT AND SWAP2 ISZERO ISZERO SWAP2 SWAP1 SWAP2 OR SWAP1 SSTORE JUMP JUMPDEST CALLVALUE DUP1 ISZERO PUSH2 0x9ED JUMPI PUSH1 0x0 DUP1 REVERT JUMPDEST POP PUSH2 0x405 PUSH2 0x9FC CALLDATASIZE PUSH1 0x4 PUSH2 0x1D07 JUMP JUMPDEST PUSH2 0x1300 JUMP JUMPDEST CALLVALUE DUP1 ISZERO PUSH2 0xA0D JUMPI PUSH1 0x0 DUP1 REVERT JUMPDEST POP PUSH2 0x405 PUSH2 0xA1C CALLDATASIZE PUSH1 0x4 PUSH2 0x1D07 JUMP JUMPDEST PUSH2 0x147F JUMP JUMPDEST CALLVALUE DUP1 ISZERO PUSH2 0xA2D JUMPI PUSH1 0x0 DUP1 REVERT JUMPDEST POP PUSH2 0x669 PUSH2 0xA3C CALLDATASIZE PUSH1 0x4 PUSH2 0x1AE7 JUMP JUMPDEST PUSH1 0x1 PUSH1 0x1 PUSH1 0xA0 SHL SUB SWAP2 DUP3 AND PUSH1 0x0 SWAP1 DUP2 MSTORE PUSH1 0x20 DUP2 DUP2 MSTORE PUSH1 0x40 DUP1 DUP4 KECCAK256 SWAP4 SWAP1 SWAP5 AND DUP3 MSTORE SWAP2 SWAP1 SWAP2 MSTORE KECCAK256 SLOAD SWAP1 JUMP JUMPDEST PUSH1 0x9 SLOAD PUSH1 0x0 SWAP1 DUP2 SWAP1 PUSH1 0x1 PUSH1 0x1 PUSH1 0xA0 SHL SUB AND ISZERO PUSH2 0xC35 JUMPI POP POP PUSH1 0x9 DUP1 SLOAD PUSH1 0x8 DUP1 SLOAD PUSH1 0x1 PUSH1 0x1 PUSH1 0xA0 SHL SUB NOT DUP4 AND SWAP1 SWAP4 SSTORE PUSH8 0xFFFFFFFFFFFFFFFF PUSH1 0xA0 SHL NOT DUP4 AND SWAP1 SSTORE PUSH1 0x1 PUSH1 0x1 PUSH1 0xA0 SHL SUB AND PUSH1 0x0 DUP2 DUP2 MSTORE PUSH1 0x3 PUSH1 0x20 MSTORE PUSH1 0x40 SWAP1 KECCAK256 DUP1 SLOAD PUSH1 0xFF NOT AND PUSH1 0x1 OR SWAP1 SSTORE PUSH1 0x1 PUSH1 0xA0 SHL SWAP1 SWAP2 DIV PUSH1 0x7 SIGNEXTEND SWAP1 DUP5 ISZERO PUSH2 0xB03 JUMPI PUSH1 0x1 PUSH1 0x1 PUSH1 0xA0 SHL SUB DUP1 DUP3 AND PUSH1 0x0 SWAP1 DUP2 MSTORE PUSH1 0x20 DUP2 DUP2 MSTORE PUSH1 0x40 DUP1 DUP4 KECCAK256 DUP11 DUP3 ADD MLOAD SWAP1 SWAP5 AND DUP4 MSTORE SWAP3 SWAP1 MSTORE KECCAK256 DUP6 SWAP1 SSTORE JUMPDEST PUSH1 0x40 DUP1 DUP8 ADD MLOAD PUSH1 0x1 PUSH1 0x1 PUSH1 0xA0 SHL SUB SWAP1 DUP2 AND PUSH1 0x0 SWAP1 DUP2 MSTORE PUSH1 0x2 PUSH1 0x20 SWAP1 DUP2 MSTORE DUP4 DUP3 KECCAK256 SWAP3 DUP6 AND DUP3 MSTORE SWAP2 SWAP1 SWAP2 MSTORE SWAP1 DUP2 KECCAK256 DUP1 SLOAD PUSH1 0xFF NOT AND PUSH1 0x1 OR SWAP1 SSTORE JUMPDEST DUP5 MLOAD DUP2 LT ISZERO PUSH2 0xBDE JUMPI DUP5 DUP2 DUP2 MLOAD DUP2 LT PUSH2 0xB56 JUMPI PUSH2 0xB56 PUSH2 0x1DEA JUMP JUMPDEST PUSH1 0x20 MUL PUSH1 0x20 ADD ADD MLOAD PUSH1 0xFF AND PUSH1 0x4 SUB PUSH2 0xBCC JUMPI DUP4 DUP2 DUP2 MLOAD DUP2 LT PUSH2 0xB7A JUMPI PUSH2 0xB7A PUSH2 0x1DEA JUMP JUMPDEST PUSH1 0x20 MUL PUSH1 0x20 ADD ADD MLOAD PUSH1 0x4 PUSH1 0x0 DUP5 PUSH1 0x1 PUSH1 0x1 PUSH1 0xA0 SHL SUB AND PUSH1 0x1 PUSH1 0x1 PUSH1 0xA0 SHL SUB AND DUP2 MSTORE PUSH1 0x20 ADD SWAP1 DUP2 MSTORE PUSH1 0x20 ADD PUSH1 0x0 KECCAK256 PUSH1 0x0 PUSH2 0x100 EXP DUP2 SLOAD DUP2 PUSH1 0x1 PUSH1 0x1 PUSH1 0xA0 SHL SUB MUL NOT AND SWAP1 DUP4 PUSH1 0x1 PUSH1 0x1 PUSH1 0xA0 SHL SUB AND MUL OR SWAP1 SSTORE POP JUMPDEST DUP1 PUSH2 0xBD6 DUP2 PUSH2 0x1E16 JUMP JUMPDEST SWAP2 POP POP PUSH2 0xB3B JUMP JUMPDEST POP DUP1 PUSH1 0x1 PUSH1 0x1 PUSH1 0xA0 SHL SUB AND PUSH32 0x6596C1670EB3390048D23721809C3DA5D3F531375AC0E2CAB0F77A808ED64331 DUP8 PUSH1 0x0 ADD MLOAD DUP9 PUSH1 0x20 ADD MLOAD DUP10 PUSH1 0x40 ADD MLOAD PUSH1 0x40 MLOAD PUSH2 0xC28 SWAP4 SWAP3 SWAP2 SWAP1 PUSH2 0x1E2F JUMP JUMPDEST PUSH1 0x40 MLOAD DUP1 SWAP2 SUB SWAP1 LOG2 PUSH2 0xDE9 JUMP JUMPDEST DUP6 MLOAD PUSH1 0x40 MLOAD PUSH2 0xC4B SWAP2 TIMESTAMP SWAP2 CALLER SWAP2 SWAP1 PUSH1 0x20 ADD PUSH2 0x1E6D JUMP JUMPDEST PUSH1 0x40 DUP1 MLOAD PUSH1 0x1F NOT DUP2 DUP5 SUB ADD DUP2 MSTORE SWAP2 DUP2 MSTORE DUP2 MLOAD PUSH1 0x20 SWAP3 DUP4 ADD KECCAK256 PUSH1 0x1 PUSH1 0x1 PUSH1 0xA0 SHL SUB DUP2 AND PUSH1 0x0 SWAP1 DUP2 MSTORE PUSH1 0x3 SWAP1 SWAP4 MSTORE SWAP2 KECCAK256 DUP1 SLOAD PUSH1 0xFF NOT AND PUSH1 0x1 OR SWAP1 SSTORE SWAP1 POP DUP5 ISZERO PUSH2 0xCB7 JUMPI PUSH1 0x1 PUSH1 0x1 PUSH1 0xA0 SHL SUB DUP1 DUP3 AND PUSH1 0x0 SWAP1 DUP2 MSTORE PUSH1 0x20 DUP2 DUP2 MSTORE PUSH1 0x40 DUP1 DUP4 KECCAK256 DUP11 DUP3 ADD MLOAD SWAP1 SWAP5 AND DUP4 MSTORE SWAP3 SWAP1 MSTORE KECCAK256 DUP6 SWAP1 SSTORE JUMPDEST PUSH1 0x40 DUP1 DUP8 ADD MLOAD PUSH1 0x1 PUSH1 0x1 PUSH1 0xA0 SHL SUB SWAP1 DUP2 AND PUSH1 0x0 SWAP1 DUP2 MSTORE PUSH1 0x2 PUSH1 0x20 SWAP1 DUP2 MSTORE DUP4 DUP3 KECCAK256 SWAP3 DUP6 AND DUP3 MSTORE SWAP2 SWAP1 SWAP2 MSTORE SWAP1 DUP2 KECCAK256 DUP1 SLOAD PUSH1 0xFF NOT AND PUSH1 0x1 OR SWAP1 SSTORE JUMPDEST DUP5 MLOAD DUP2 LT ISZERO PUSH2 0xD92 JUMPI DUP5 DUP2 DUP2 MLOAD DUP2 LT PUSH2 0xD0A JUMPI PUSH2 0xD0A PUSH2 0x1DEA JUMP JUMPDEST PUSH1 0x20 MUL PUSH1 0x20 ADD ADD MLOAD PUSH1 0xFF AND PUSH1 0x4 SUB PUSH2 0xD80 JUMPI DUP4 DUP2 DUP2 MLOAD DUP2 LT PUSH2 0xD2E JUMPI PUSH2 0xD2E PUSH2 0x1DEA JUMP JUMPDEST PUSH1 0x20 MUL PUSH1 0x20 ADD ADD MLOAD PUSH1 0x4 PUSH1 0x0 DUP5 PUSH1 0x1 PUSH1 0x1 PUSH1 0xA0 SHL SUB AND PUSH1 0x1 PUSH1 0x1 PUSH1 0xA0 SHL SUB AND DUP2 MSTORE PUSH1 0x20 ADD SWAP1 DUP2 MSTORE PUSH1 0x20 ADD PUSH1 0x0 KECCAK256 PUSH1 0x0 PUSH2 0x100 EXP DUP2 SLOAD DUP2 PUSH1 0x1 PUSH1 0x1 PUSH1 0xA0 SHL SUB MUL NOT AND SWAP1 DUP4 PUSH1 0x1 PUSH1 0x1 PUSH1 0xA0 SHL SUB AND MUL OR SWAP1 SSTORE POP JUMPDEST DUP1 PUSH2 0xD8A DUP2 PUSH2 0x1E16 JUMP JUMPDEST SWAP2 POP POP PUSH2 0xCEF JUMP JUMPDEST POP DUP1 PUSH1 0x1 PUSH1 0x1 PUSH1 0xA0 SHL SUB AND PUSH32 0x6596C1670EB3390048D23721809C3DA5D3F531375AC0E2CAB0F77A808ED64331 DUP8 PUSH1 0x0 ADD MLOAD DUP9 PUSH1 0x20 ADD MLOAD DUP10 PUSH1 0x40 ADD MLOAD PUSH1 0x40 MLOAD PUSH2 0xDDC SWAP4 SWAP3 SWAP2 SWAP1 PUSH2 0x1E2F JUMP JUMPDEST PUSH1 0x40 MLOAD DUP1 SWAP2 SUB SWAP1 LOG2 PUSH1 0x0 SWAP2 POP JUMPDEST SWAP5 POP SWAP5 SWAP3 POP POP POP JUMP JUMPDEST PUSH1 0x1 PUSH1 0x1 PUSH1 0xA0 SHL SUB DUP5 AND PUSH1 0x0 SWAP1 DUP2 MSTORE PUSH1 0x5 PUSH1 0x20 MSTORE PUSH1 0x40 DUP2 KECCAK256 SLOAD PUSH1 0x7 SIGNEXTEND ISZERO PUSH2 0xE35 JUMPI POP PUSH1 0x1 PUSH1 0x1 PUSH1 0xA0 SHL SUB DUP5 AND PUSH1 0x0 SWAP1 DUP2 MSTORE PUSH1 0x5 PUSH1 0x20 MSTORE PUSH1 0x40 SWAP1 KECCAK256 SLOAD PUSH1 0x7 SIGNEXTEND PUSH2 0xFF2 JUMP JUMPDEST PUSH1 0x1 PUSH1 0x1 PUSH1 0xA0 SHL SUB DUP1 DUP6 AND PUSH1 0x0 SWAP1 DUP2 MSTORE PUSH1 0x2 PUSH1 0x20 SWAP1 DUP2 MSTORE PUSH1 0x40 DUP1 DUP4 KECCAK256 SWAP4 DUP10 AND DUP4 MSTORE SWAP3 SWAP1 MSTORE KECCAK256 SLOAD PUSH1 0xFF AND ISZERO DUP1 PUSH2 0xE90 JUMPI POP PUSH1 0x1 PUSH1 0x1 PUSH1 0xA0 SHL SUB DUP1 DUP5 AND PUSH1 0x0 SWAP1 DUP2 MSTORE PUSH1 0x2 PUSH1 0x20 SWAP1 DUP2 MSTORE PUSH1 0x40 DUP1 DUP4 KECCAK256 SWAP4 DUP10 AND DUP4 MSTORE SWAP3 SWAP1 MSTORE KECCAK256 SLOAD PUSH1 0xFF AND ISZERO JUMPDEST ISZERO PUSH2 0xE9E JUMPI POP PUSH1 0x0 NOT PUSH2 0xFF2 JUMP JUMPDEST PUSH1 0x1 PUSH1 0x1 PUSH1 0xA0 SHL SUB DUP1 DUP7 AND PUSH1 0x0 SWAP1 DUP2 MSTORE PUSH1 0x20 DUP2 DUP2 MSTORE PUSH1 0x40 DUP1 DUP4 KECCAK256 SWAP4 DUP9 AND DUP4 MSTORE SWAP3 SWAP1 MSTORE KECCAK256 SLOAD DUP3 GT ISZERO PUSH2 0xED2 JUMPI POP PUSH1 0x1 NOT PUSH2 0xFF2 JUMP JUMPDEST CALLER PUSH1 0x1 PUSH1 0x1 PUSH1 0xA0 SHL SUB DUP6 AND EQ DUP1 ISZERO SWAP1 PUSH2 0xF17 JUMPI POP PUSH1 0x1 PUSH1 0x1 PUSH1 0xA0 SHL SUB DUP1 DUP7 AND PUSH1 0x0 SWAP1 DUP2 MSTORE PUSH1 0x1 PUSH1 0x20 SWAP1 DUP2 MSTORE PUSH1 0x40 DUP1 DUP4 KECCAK256 SWAP4 DUP9 AND DUP4 MSTORE SWAP3 DUP2 MSTORE DUP3 DUP3 KECCAK256 CALLER DUP4 MSTORE SWAP1 MSTORE KECCAK256 SLOAD DUP3 GT JUMPDEST ISZERO PUSH2 0xF25 JUMPI POP PUSH1 0x2 NOT PUSH2 0xFF2 JUMP JUMPDEST PUSH1 0x1 PUSH1 0x1 PUSH1 0xA0 SHL SUB DUP1 DUP7 AND PUSH1 0x0 SWAP1 DUP2 MSTORE PUSH1 0x20 DUP2 DUP2 MSTORE PUSH1 0x40 DUP1 DUP4 KECCAK256 SWAP4 DUP9 AND DUP4 MSTORE SWAP3 SWAP1 MSTORE SWAP1 DUP2 KECCAK256 DUP1 SLOAD DUP5 SWAP3 SWAP1 PUSH2 0xF5A SWAP1 DUP5 SWAP1 PUSH2 0x1EAC JUMP JUMPDEST SWAP1 SWAP2 SSTORE POP POP PUSH1 0x1 PUSH1 0x1 PUSH1 0xA0 SHL SUB DUP1 DUP7 AND PUSH1 0x0 SWAP1 DUP2 MSTORE PUSH1 0x20 DUP2 DUP2 MSTORE PUSH1 0x40 DUP1 DUP4 KECCAK256 SWAP4 DUP8 AND DUP4 MSTORE SWAP3 SWAP1 MSTORE SWAP1 DUP2 KECCAK256 DUP1 SLOAD DUP5 SWAP3 SWAP1 PUSH2 0xF94 SWAP1 DUP5 SWAP1 PUSH2 0x1EBF JUMP JUMPDEST SWAP1 SWAP2 SSTORE POP POP CALLER PUSH1 0x1 PUSH1 0x1 PUSH1 0xA0 SHL SUB DUP6 AND EQ PUSH2 0xFEE JUMPI PUSH1 0x1 PUSH1 0x1 PUSH1 0xA0 SHL SUB DUP1 DUP7 AND PUSH1 0x0 SWAP1 DUP2 MSTORE PUSH1 0x1 PUSH1 0x20 SWAP1 DUP2 MSTORE PUSH1 0x40 DUP1 DUP4 KECCAK256 SWAP4 DUP9 AND DUP4 MSTORE SWAP3 DUP2 MSTORE DUP3 DUP3 KECCAK256 CALLER DUP4 MSTORE SWAP1 MSTORE SWAP1 DUP2 KECCAK256 DUP1 SLOAD DUP5 SWAP3 SWAP1 PUSH2 0xFE8 SWAP1 DUP5 SWAP1 PUSH2 0x1EAC JUMP JUMPDEST SWAP1 SWAP2 SSTORE POP POP JUMPDEST POP PUSH1 0x0 JUMPDEST SWAP5 SWAP4 POP POP POP POP JUMP JUMPDEST PUSH1 0x1 PUSH1 0x1 PUSH1 0xA0 SHL SUB DUP1 DUP4 AND PUSH1 0x0 SWAP1 DUP2 MSTORE PUSH1 0x2 PUSH1 0x20 SWAP1 DUP2 MSTORE PUSH1 0x40 DUP1 DUP4 KECCAK256 SWAP4 DUP6 AND DUP4 MSTORE SWAP3 SWAP1 MSTORE SWAP1 DUP2 KECCAK256 DUP1 SLOAD PUSH1 0xFF NOT AND SWAP1 SSTORE JUMPDEST SWAP3 SWAP2 POP POP JUMP JUMPDEST PUSH1 0x60 PUSH1 0x7 DUP1 SLOAD DUP1 PUSH1 0x20 MUL PUSH1 0x20 ADD PUSH1 0x40 MLOAD SWAP1 DUP2 ADD PUSH1 0x40 MSTORE DUP1 SWAP3 SWAP2 SWAP1 DUP2 DUP2 MSTORE PUSH1 0x20 ADD PUSH1 0x0 SWAP1 JUMPDEST DUP3 DUP3 LT ISZERO PUSH2 0x1100 JUMPI DUP4 DUP3 SWAP1 PUSH1 0x0 MSTORE PUSH1 0x20 PUSH1 0x0 KECCAK256 ADD DUP1 SLOAD PUSH2 0x1073 SWAP1 PUSH2 0x1ED2 JUMP JUMPDEST DUP1 PUSH1 0x1F ADD PUSH1 0x20 DUP1 SWAP2 DIV MUL PUSH1 0x20 ADD PUSH1 0x40 MLOAD SWAP1 DUP2 ADD PUSH1 0x40 MSTORE DUP1 SWAP3 SWAP2 SWAP1 DUP2 DUP2 MSTORE PUSH1 0x20 ADD DUP3 DUP1 SLOAD PUSH2 0x109F SWAP1 PUSH2 0x1ED2 JUMP JUMPDEST DUP1 ISZERO PUSH2 0x10EC JUMPI DUP1 PUSH1 0x1F LT PUSH2 0x10C1 JUMPI PUSH2 0x100 DUP1 DUP4 SLOAD DIV MUL DUP4 MSTORE SWAP2 PUSH1 0x20 ADD SWAP2 PUSH2 0x10EC JUMP JUMPDEST DUP3 ADD SWAP2 SWAP1 PUSH1 0x0 MSTORE PUSH1 0x20 PUSH1 0x0 KECCAK256 SWAP1 JUMPDEST DUP2 SLOAD DUP2 MSTORE SWAP1 PUSH1 0x1 ADD SWAP1 PUSH1 0x20 ADD DUP1 DUP4 GT PUSH2 0x10CF JUMPI DUP3 SWAP1 SUB PUSH1 0x1F AND DUP3 ADD SWAP2 JUMPDEST POP POP POP POP POP DUP2 MSTORE PUSH1 0x20 ADD SWAP1 PUSH1 0x1 ADD SWAP1 PUSH2 0x1054 JUMP JUMPDEST POP POP POP POP SWAP1 POP SWAP1 JUMP JUMPDEST PUSH1 0x1 PUSH1 0x1 PUSH1 0xA0 SHL SUB DUP1 DUP4 AND PUSH1 0x0 DUP2 DUP2 MSTORE PUSH1 0x2 PUSH1 0x20 SWAP1 DUP2 MSTORE PUSH1 0x40 DUP1 DUP4 KECCAK256 SWAP5 DUP7 AND DUP1 DUP5 MSTORE SWAP5 SWAP1 SWAP2 MSTORE DUP1 DUP3 KECCAK256 DUP1 SLOAD PUSH1 0xFF NOT AND PUSH1 0x1 OR SWAP1 SSTORE MLOAD SWAP1 SWAP3 SWAP2 SWAP1 PUSH32 0x6BA8F0DEBF54740777149DB87BD08717B4DBDCB36073D53CDC784019DAFAC16F SWAP1 DUP5 SWAP1 LOG3 POP PUSH1 0x0 SWAP3 SWAP2 POP POP JUMP JUMPDEST PUSH1 0x1 PUSH1 0x1 PUSH1 0xA0 SHL SUB DUP1 DUP4 AND PUSH1 0x0 SWAP1 DUP2 MSTORE PUSH1 0xA PUSH1 0x20 SWAP1 DUP2 MSTORE PUSH1 0x40 DUP1 DUP4 KECCAK256 SWAP4 DUP6 AND DUP4 MSTORE SWAP3 SWAP1 MSTORE SWAP1 DUP2 KECCAK256 SLOAD PUSH1 0xFF AND ISZERO PUSH2 0x11A8 JUMPI POP PUSH1 0x1 PUSH2 0x102A JUMP JUMPDEST POP PUSH1 0x1 PUSH1 0x1 PUSH1 0xA0 SHL SUB SWAP2 DUP3 AND PUSH1 0x0 SWAP1 DUP2 MSTORE PUSH1 0x4 PUSH1 0x20 MSTORE PUSH1 0x40 SWAP1 KECCAK256 SLOAD DUP3 AND SWAP2 AND EQ SWAP1 JUMP JUMPDEST PUSH1 0x1 PUSH1 0x1 PUSH1 0xA0 SHL SUB DUP1 DUP5 AND PUSH1 0x0 SWAP1 DUP2 MSTORE PUSH1 0x1 PUSH1 0x20 SWAP1 DUP2 MSTORE PUSH1 0x40 DUP1 DUP4 KECCAK256 DUP7 DUP6 AND DUP5 MSTORE DUP3 MSTORE DUP1 DUP4 KECCAK256 SWAP4 DUP6 AND DUP4 MSTORE SWAP3 SWAP1 MSTORE KECCAK256 SLOAD JUMPDEST SWAP4 SWAP3 POP POP POP JUMP JUMPDEST PUSH1 0x40 DUP1 MLOAD PUSH1 0x60 DUP2 ADD DUP3 MSTORE PUSH1 0x0 DUP1 DUP3 MSTORE PUSH1 0x20 DUP1 DUP4 ADD DUP3 SWAP1 MSTORE DUP3 DUP5 ADD DUP3 SWAP1 MSTORE PUSH1 0x1 PUSH1 0x1 PUSH1 0xA0 SHL SUB DUP6 AND DUP3 MSTORE PUSH1 0x6 SWAP1 MSTORE SWAP2 SWAP1 SWAP2 KECCAK256 SLOAD PUSH2 0x127E JUMPI PUSH1 0x40 MLOAD PUSH3 0x461BCD PUSH1 0xE5 SHL DUP2 MSTORE PUSH1 0x20 PUSH1 0x4 DUP3 ADD MSTORE PUSH1 0x15 PUSH1 0x24 DUP3 ADD MSTORE PUSH21 0x139BC81D1C985B9CD9995C9CC81C9958DBDC991959 PUSH1 0x5A SHL PUSH1 0x44 DUP3 ADD MSTORE PUSH1 0x64 ADD JUMPDEST PUSH1 0x40 MLOAD DUP1 SWAP2 SUB SWAP1 REVERT JUMPDEST PUSH1 0x1 PUSH1 0x1 PUSH1 0xA0 SHL SUB DUP3 AND PUSH1 0x0 SWAP1 DUP2 MSTORE PUSH1 0x6 PUSH1 0x20 MSTORE PUSH1 0x40 SWAP1 KECCAK256 DUP1 SLOAD PUSH2 0x12A4 SWAP1 PUSH1 0x1 SWAP1 PUSH2 0x1EAC JUMP JUMPDEST DUP2 SLOAD DUP2 LT PUSH2 0x12B4 JUMPI PUSH2 0x12B4 PUSH2 0x1DEA JUMP JUMPDEST PUSH1 0x0 SWAP2 DUP3 MSTORE PUSH1 0x20 SWAP2 DUP3 SWAP1 KECCAK256 PUSH1 0x40 DUP1 MLOAD PUSH1 0x60 DUP2 ADD DUP3 MSTORE PUSH1 0x3 SWAP1 SWAP4 MUL SWAP1 SWAP2 ADD DUP1 SLOAD PUSH1 0x1 PUSH1 0x1 PUSH1 0xA0 SHL SUB SWAP1 DUP2 AND DUP5 MSTORE PUSH1 0x1 DUP3 ADD SLOAD AND SWAP4 DUP4 ADD SWAP4 SWAP1 SWAP4 MSTORE PUSH1 0x2 SWAP1 SWAP3 ADD SLOAD SWAP2 DUP2 ADD SWAP2 SWAP1 SWAP2 MSTORE SWAP3 SWAP2 POP POP JUMP JUMPDEST PUSH1 0x1 PUSH1 0x1 PUSH1 0xA0 SHL SUB DUP4 AND PUSH1 0x0 SWAP1 DUP2 MSTORE PUSH1 0xD PUSH1 0x20 MSTORE PUSH1 0x40 DUP2 KECCAK256 SLOAD PUSH1 0xFF AND ISZERO PUSH2 0x132A JUMPI POP PUSH1 0x3 NOT PUSH2 0x11FC JUMP JUMPDEST PUSH1 0x1 PUSH1 0x1 PUSH1 0xA0 SHL SUB DUP5 AND PUSH1 0x0 SWAP1 DUP2 MSTORE PUSH1 0x3 PUSH1 0x20 MSTORE PUSH1 0x40 SWAP1 KECCAK256 SLOAD PUSH1 0xFF AND PUSH2 0x139D JUMPI PUSH1 0x40 MLOAD PUSH3 0x461BCD PUSH1 0xE5 SHL DUP2 MSTORE PUSH1 0x20 PUSH1 0x4 DUP3 ADD MSTORE PUSH1 0x22 PUSH1 0x24 DUP3 ADD MSTORE PUSH32 0x4D696E74696E67206E6F7420656E61626C656420666F72207468697320746F6B PUSH1 0x44 DUP3 ADD MSTORE PUSH2 0x32B7 PUSH1 0xF1 SHL PUSH1 0x64 DUP3 ADD MSTORE PUSH1 0x84 ADD PUSH2 0x1275 JUMP JUMPDEST PUSH1 0x1 PUSH1 0x1 PUSH1 0xA0 SHL SUB DUP1 DUP6 AND PUSH1 0x0 SWAP1 DUP2 MSTORE PUSH1 0x4 PUSH1 0x20 MSTORE PUSH1 0x40 SWAP1 KECCAK256 SLOAD AND DUP1 ISZERO DUP1 ISZERO SWAP1 PUSH2 0x13D0 JUMPI POP CALLER PUSH1 0x1 PUSH1 0x1 PUSH1 0xA0 SHL SUB DUP3 AND EQ ISZERO JUMPDEST ISZERO PUSH2 0x13FF JUMPI PUSH1 0x40 MLOAD PUSH4 0xD27CBF5 PUSH1 0xE1 SHL DUP2 MSTORE PUSH1 0x1 PUSH1 0x1 PUSH1 0xA0 SHL SUB DUP7 AND PUSH1 0x4 DUP3 ADD MSTORE CALLER PUSH1 0x24 DUP3 ADD MSTORE PUSH1 0x44 ADD PUSH2 0x1275 JUMP JUMPDEST PUSH1 0x1 PUSH1 0x1 PUSH1 0xA0 SHL SUB DUP6 AND PUSH1 0x0 SWAP1 DUP2 MSTORE PUSH1 0x20 DUP2 DUP2 MSTORE PUSH1 0x40 DUP1 DUP4 KECCAK256 CALLER DUP5 MSTORE SWAP1 SWAP2 MSTORE DUP2 KECCAK256 DUP1 SLOAD DUP7 SWAP3 SWAP1 PUSH2 0x1430 SWAP1 DUP5 SWAP1 PUSH2 0x1EBF JUMP JUMPDEST SWAP1 SWAP2 SSTORE POP POP PUSH1 0x40 MLOAD DUP5 DUP2 MSTORE PUSH1 0x1 PUSH1 0x1 PUSH1 0xA0 SHL SUB DUP7 AND SWAP1 PUSH32 0xB9144C96C86541F6FA89C9F2F02495CCCF4B08CD6643E26D34EE00AA586558A8 SWAP1 PUSH1 0x20 ADD JUMPDEST PUSH1 0x40 MLOAD DUP1 SWAP2 SUB SWAP1 LOG2 POP PUSH1 0x0 SWAP5 SWAP4 POP POP POP POP JUMP JUMPDEST PUSH1 0x1 PUSH1 0x1 PUSH1 0xA0 SHL SUB DUP1 DUP5 AND PUSH1 0x0 SWAP1 DUP2 MSTORE PUSH1 0x4 PUSH1 0x20 MSTORE PUSH1 0x40 DUP2 KECCAK256 SLOAD SWAP1 SWAP2 AND DUP1 ISZERO DUP1 ISZERO SWAP1 PUSH2 0x14B4 JUMPI POP CALLER PUSH1 0x1 PUSH1 0x1 PUSH1 0xA0 SHL SUB DUP3 AND EQ ISZERO JUMPDEST ISZERO PUSH2 0x14E3 JUMPI PUSH1 0x40 MLOAD PUSH4 0xD27CBF5 PUSH1 0xE1 SHL DUP2 MSTORE PUSH1 0x1 PUSH1 0x1 PUSH1 0xA0 SHL SUB DUP7 AND PUSH1 0x4 DUP3 ADD MSTORE CALLER PUSH1 0x24 DUP3 ADD MSTORE PUSH1 0x44 ADD PUSH2 0x1275 JUMP JUMPDEST PUSH1 0x1 PUSH1 0x1 PUSH1 0xA0 SHL SUB DUP6 AND PUSH1 0x0 SWAP1 DUP2 MSTORE PUSH1 0x20 DUP2 DUP2 MSTORE PUSH1 0x40 DUP1 DUP4 KECCAK256 CALLER DUP5 MSTORE SWAP1 SWAP2 MSTORE SWAP1 KECCAK256 SLOAD DUP5 GT ISZERO PUSH2 0x1554 JUMPI PUSH1 0x40 MLOAD PUSH3 0x461BCD PUSH1 0xE5 SHL DUP2 MSTORE PUSH1 0x20 PUSH1 0x4 DUP3 ADD MSTORE PUSH1 0x1C PUSH1 0x24 DUP3 ADD MSTORE PUSH32 0x496E73756666696369656E742062616C616E636520746F206275726E00000000 PUSH1 0x44 DUP3 ADD MSTORE PUSH1 0x64 ADD PUSH2 0x1275 JUMP JUMPDEST PUSH1 0x1 PUSH1 0x1 PUSH1 0xA0 SHL SUB DUP6 AND PUSH1 0x0 SWAP1 DUP2 MSTORE PUSH1 0x20 DUP2 DUP2 MSTORE PUSH1 0x40 DUP1 DUP4 KECCAK256 CALLER DUP5 MSTORE SWAP1 SWAP2 MSTORE DUP2 KECCAK256 DUP1 SLOAD DUP7 SWAP3 SWAP1 PUSH2 0x1585 SWAP1 DUP5 SWAP1 PUSH2 0x1EAC JUMP JUMPDEST SWAP1 SWAP2 SSTORE POP POP PUSH1 0x40 MLOAD DUP5 DUP2 MSTORE PUSH1 0x1 PUSH1 0x1 PUSH1 0xA0 SHL SUB DUP7 AND SWAP1 PUSH32 0x1AF5163F80E79B5E554F61E1D052084D3A3FE1166E42A265798C4E2DDCE8FFA2 SWAP1 PUSH1 0x20 ADD PUSH2 0x146C JUMP JUMPDEST PUSH4 0x4E487B71 PUSH1 0xE0 SHL PUSH1 0x0 MSTORE PUSH1 0x41 PUSH1 0x4 MSTORE PUSH1 0x24 PUSH1 0x0 REVERT JUMPDEST PUSH1 0x40 MLOAD PUSH2 0x1A0 DUP2 ADD PUSH8 0xFFFFFFFFFFFFFFFF DUP2 GT DUP3 DUP3 LT OR ISZERO PUSH2 0x15FF JUMPI PUSH2 0x15FF PUSH2 0x15C5 JUMP JUMPDEST PUSH1 0x40 MSTORE SWAP1 JUMP JUMPDEST PUSH1 0x40 MLOAD PUSH1 0x1F DUP3 ADD PUSH1 0x1F NOT AND DUP2 ADD PUSH8 0xFFFFFFFFFFFFFFFF DUP2 GT DUP3 DUP3 LT OR ISZERO PUSH2 0x162E JUMPI PUSH2 0x162E PUSH2 0x15C5 JUMP JUMPDEST PUSH1 0x40 MSTORE SWAP2 SWAP1 POP JUMP JUMPDEST PUSH1 0x0 PUSH8 0xFFFFFFFFFFFFFFFF DUP4 GT ISZERO PUSH2 0x1650 JUMPI PUSH2 0x1650 PUSH2 0x15C5 JUMP JUMPDEST PUSH2 0x1663 PUSH1 0x1F DUP5 ADD PUSH1 0x1F NOT AND PUSH1 0x20 ADD PUSH2 0x1605 JUMP JUMPDEST SWAP1 POP DUP3 DUP2 MSTORE DUP4 DUP4 DUP4 ADD GT ISZERO PUSH2 0x1677 JUMPI PUSH1 0x0 DUP1 REVERT JUMPDEST DUP3 DUP3 PUSH1 0x20 DUP4 ADD CALLDATACOPY PUSH1 0x0 PUSH1 0x20 DUP5 DUP4 ADD ADD MSTORE SWAP4 SWAP3 POP POP POP JUMP JUMPDEST PUSH1 0x0 DUP3 PUSH1 0x1F DUP4 ADD SLT PUSH2 0x169F JUMPI PUSH1 0x0 DUP1 REVERT JUMPDEST PUSH2 0x11FC DUP4 DUP4 CALLDATALOAD PUSH1 0x20 DUP6 ADD PUSH2 0x1636 JUMP JUMPDEST DUP1 CALLDATALOAD PUSH1 0x1 PUSH1 0x1 PUSH1 0xA0 SHL SUB DUP2 AND DUP2 EQ PUSH2 0x16C5 JUMPI PUSH1 0x0 DUP1 REVERT JUMPDEST SWAP2 SWAP1 POP JUMP JUMPDEST DUP1 CALLDATALOAD DUP1 ISZERO ISZERO DUP2 EQ PUSH2 0x16C5 JUMPI PUSH1 0x0 DUP1 REVERT JUMPDEST DUP1 CALLDATALOAD PUSH4 0xFFFFFFFF DUP2 AND DUP2 EQ PUSH2 0x16C5 JUMPI PUSH1 0x0 DUP1 REVERT JUMPDEST PUSH1 0x0 PUSH8 0xFFFFFFFFFFFFFFFF DUP3 GT ISZERO PUSH2 0x1708 JUMPI PUSH2 0x1708 PUSH2 0x15C5 JUMP JUMPDEST POP PUSH1 0x5 SHL PUSH1 0x20 ADD SWAP1 JUMP JUMPDEST PUSH1 0x0 DUP3 PUSH1 0x1F DUP4 ADD SLT PUSH2 0x1723 JUMPI PUSH1 0x0 DUP1 REVERT JUMPDEST DUP2 CALLDATALOAD PUSH1 0x20 PUSH2 0x1738 PUSH2 0x1733 DUP4 PUSH2 0x16EE JUMP JUMPDEST PUSH2 0x1605 JUMP JUMPDEST DUP3 DUP2 MSTORE PUSH1 0x5 SWAP3 SWAP1 SWAP3 SHL DUP5 ADD DUP2 ADD SWAP2 DUP2 DUP2 ADD SWAP1 DUP7 DUP5 GT ISZERO PUSH2 0x1757 JUMPI PUSH1 0x0 DUP1 REVERT JUMPDEST DUP3 DUP7 ADD JUMPDEST DUP5 DUP2 LT ISZERO PUSH2 0x1779 JUMPI PUSH2 0x176C DUP2 PUSH2 0x16AE JUMP JUMPDEST DUP4 MSTORE SWAP2 DUP4 ADD SWAP2 DUP4 ADD PUSH2 0x175B JUMP JUMPDEST POP SWAP7 SWAP6 POP POP POP POP POP POP JUMP JUMPDEST DUP1 CALLDATALOAD PUSH1 0xFF DUP2 AND DUP2 EQ PUSH2 0x16C5 JUMPI PUSH1 0x0 DUP1 REVERT JUMPDEST PUSH1 0x0 DUP3 PUSH1 0x1F DUP4 ADD SLT PUSH2 0x17A6 JUMPI PUSH1 0x0 DUP1 REVERT JUMPDEST DUP2 CALLDATALOAD PUSH1 0x20 PUSH2 0x17B6 PUSH2 0x1733 DUP4 PUSH2 0x16EE JUMP JUMPDEST DUP3 DUP2 MSTORE PUSH1 0x5 SWAP3 SWAP1 SWAP3 SHL DUP5 ADD DUP2 ADD SWAP2 DUP2 DUP2 ADD SWAP1 DUP7 DUP5 GT ISZERO PUSH2 0x17D5 JUMPI PUSH1 0x0 DUP1 REVERT JUMPDEST DUP3 DUP7 ADD JUMPDEST DUP5 DUP2 LT ISZERO PUSH2 0x1779 JUMPI PUSH2 0x17EA DUP2 PUSH2 0x1784 JUMP JUMPDEST DUP4 MSTORE SWAP2 DUP4 ADD SWAP2 DUP4 ADD PUSH2 0x17D9 JUMP JUMPDEST PUSH1 0x0 DUP1 PUSH1 0x0 DUP1 PUSH1 0x80 DUP6 DUP8 SUB SLT ISZERO PUSH2 0x180D JUMPI PUSH1 0x0 DUP1 REVERT JUMPDEST DUP5 CALLDATALOAD PUSH8 0xFFFFFFFFFFFFFFFF DUP1 DUP3 GT ISZERO PUSH2 0x1825 JUMPI PUSH1 0x0 DUP1 REVERT JUMPDEST SWAP1 DUP7 ADD SWAP1 PUSH2 0x1A0 DUP3 DUP10 SUB SLT ISZERO PUSH2 0x183A JUMPI PUSH1 0x0 DUP1 REVERT JUMPDEST PUSH2 0x1842 PUSH2 0x15DB JUMP JUMPDEST DUP3 CALLDATALOAD DUP3 DUP2 GT ISZERO PUSH2 0x1851 JUMPI PUSH1 0x0 DUP1 REVERT JUMPDEST PUSH2 0x185D DUP11 DUP3 DUP7 ADD PUSH2 0x168E JUMP JUMPDEST DUP3 MSTORE POP PUSH1 0x20 DUP4 ADD CALLDATALOAD DUP3 DUP2 GT ISZERO PUSH2 0x1872 JUMPI PUSH1 0x0 DUP1 REVERT JUMPDEST PUSH2 0x187E DUP11 DUP3 DUP7 ADD PUSH2 0x168E JUMP JUMPDEST PUSH1 0x20 DUP4 ADD MSTORE POP PUSH2 0x1890 PUSH1 0x40 DUP5 ADD PUSH2 0x16AE JUMP JUMPDEST PUSH1 0x40 DUP3 ADD MSTORE PUSH1 0x60 DUP4 ADD CALLDATALOAD DUP3 DUP2 GT ISZERO PUSH2 0x18A7 JUMPI PUSH1 0x0 DUP1 REVERT JUMPDEST PUSH2 0x18B3 DUP11 DUP3 DUP7 ADD PUSH2 0x168E JUMP JUMPDEST PUSH1 0x60 DUP4 ADD MSTORE POP PUSH2 0x18C5 PUSH1 0x80 DUP5 ADD PUSH2 0x16CA JUMP JUMPDEST PUSH1 0x80 DUP3 ADD MSTORE PUSH2 0x18D6 PUSH1 0xA0 DUP5 ADD PUSH2 0x16DA JUMP JUMPDEST PUSH1 0xA0 DUP3 ADD MSTORE PUSH2 0x18E7 PUSH1 0xC0 DUP5 ADD PUSH2 0x16CA JUMP JUMPDEST PUSH1 0xC0 DUP3 ADD MSTORE PUSH1 0xE0 DUP4 ADD CALLDATALOAD DUP3 DUP2 GT ISZERO PUSH2 0x18FE JUMPI PUSH1 0x0 DUP1 REVERT JUMPDEST PUSH2 0x190A DUP11 DUP3 DUP7 ADD PUSH2 0x1712 JUMP JUMPDEST PUSH1 0xE0 DUP4 ADD MSTORE POP PUSH2 0x100 DUP1 DUP5 ADD CALLDATALOAD DUP4 DUP2 GT ISZERO PUSH2 0x1924 JUMPI PUSH1 0x0 DUP1 REVERT JUMPDEST PUSH2 0x1930 DUP12 DUP3 DUP8 ADD PUSH2 0x1712 JUMP JUMPDEST DUP3 DUP5 ADD MSTORE POP POP PUSH2 0x120 DUP1 DUP5 ADD CALLDATALOAD DUP4 DUP2 GT ISZERO PUSH2 0x194A JUMPI PUSH1 0x0 DUP1 REVERT JUMPDEST PUSH2 0x1956 DUP12 DUP3 DUP8 ADD PUSH2 0x1712 JUMP JUMPDEST DUP3 DUP5 ADD MSTORE POP POP PUSH2 0x140 DUP1 DUP5 ADD CALLDATALOAD DUP4 DUP2 GT ISZERO PUSH2 0x1970 JUMPI PUSH1 0x0 DUP1 REVERT JUMPDEST PUSH2 0x197C DUP12 DUP3 DUP8 ADD PUSH2 0x1712 JUMP JUMPDEST DUP3 DUP5 ADD MSTORE POP POP PUSH2 0x160 DUP1 DUP5 ADD CALLDATALOAD DUP4 DUP2 GT ISZERO PUSH2 0x1996 JUMPI PUSH1 0x0 DUP1 REVERT JUMPDEST PUSH2 0x19A2 DUP12 DUP3 DUP8 ADD PUSH2 0x1712 JUMP JUMPDEST DUP3 DUP5 ADD MSTORE POP POP PUSH2 0x180 PUSH2 0x19B6 DUP2 DUP6 ADD PUSH2 0x1784 JUMP JUMPDEST SWAP1 DUP3 ADD MSTORE SWAP6 POP PUSH1 0x20 DUP8 ADD CALLDATALOAD SWAP5 POP PUSH1 0x40 DUP8 ADD CALLDATALOAD SWAP2 POP DUP1 DUP3 GT ISZERO PUSH2 0x19D7 JUMPI PUSH1 0x0 DUP1 REVERT JUMPDEST PUSH2 0x19E3 DUP9 DUP4 DUP10 ADD PUSH2 0x1795 JUMP JUMPDEST SWAP4 POP PUSH1 0x60 DUP8 ADD CALLDATALOAD SWAP2 POP DUP1 DUP3 GT ISZERO PUSH2 0x19F9 JUMPI PUSH1 0x0 DUP1 REVERT JUMPDEST POP PUSH2 0x1A06 DUP8 DUP3 DUP9 ADD PUSH2 0x1712 JUMP JUMPDEST SWAP2 POP POP SWAP3 SWAP6 SWAP2 SWAP5 POP SWAP3 POP JUMP JUMPDEST PUSH1 0x0 PUSH1 0x20 DUP3 DUP5 SUB SLT ISZERO PUSH2 0x1A24 JUMPI PUSH1 0x0 DUP1 REVERT JUMPDEST PUSH2 0x11FC DUP3 PUSH2 0x16AE JUMP JUMPDEST PUSH1 0x0 DUP1 PUSH1 0x40 DUP4 DUP6 SUB SLT ISZERO PUSH2 0x1A40 JUMPI PUSH1 0x0 DUP1 REVERT JUMPDEST PUSH2 0x1A49 DUP4 PUSH2 0x16AE JUMP JUMPDEST SWAP2 POP PUSH2 0x1A57 PUSH1 0x20 DUP5 ADD PUSH2 0x16CA JUMP JUMPDEST SWAP1 POP SWAP3 POP SWAP3 SWAP1 POP JUMP JUMPDEST DUP1 CALLDATALOAD PUSH1 0x7 DUP2 SWAP1 SIGNEXTEND DUP2 EQ PUSH2 0x16C5 JUMPI PUSH1 0x0 DUP1 REVERT JUMPDEST PUSH1 0x0 DUP1 PUSH1 0x40 DUP4 DUP6 SUB SLT ISZERO PUSH2 0x1A85 JUMPI PUSH1 0x0 DUP1 REVERT JUMPDEST PUSH2 0x1A8E DUP4 PUSH2 0x16AE JUMP JUMPDEST SWAP2 POP PUSH2 0x1A57 PUSH1 0x20 DUP5 ADD PUSH2 0x1A60 JUMP JUMPDEST PUSH1 0x0 DUP1 PUSH1 0x0 DUP1 PUSH1 0x80 DUP6 DUP8 SUB SLT ISZERO PUSH2 0x1AB2 JUMPI PUSH1 0x0 DUP1 REVERT JUMPDEST PUSH2 0x1ABB DUP6 PUSH2 0x16AE JUMP JUMPDEST SWAP4 POP PUSH2 0x1AC9 PUSH1 0x20 DUP7 ADD PUSH2 0x16AE JUMP JUMPDEST SWAP3 POP PUSH2 0x1AD7 PUSH1 0x40 DUP7 ADD PUSH2 0x16AE JUMP JUMPDEST SWAP4 SWAP7 SWAP3 SWAP6 POP SWAP3 SWAP4 PUSH1 0x60 ADD CALLDATALOAD SWAP3 POP POP JUMP JUMPDEST PUSH1 0x0 DUP1 PUSH1 0x40 DUP4 DUP6 SUB SLT ISZERO PUSH2 0x1AFA JUMPI PUSH1 0x0 DUP1 REVERT JUMPDEST PUSH2 0x1B03 DUP4 PUSH2 0x16AE JUMP JUMPDEST SWAP2 POP PUSH2 0x1A57 PUSH1 0x20 DUP5 ADD PUSH2 0x16AE JUMP JUMPDEST PUSH1 0x0 JUMPDEST DUP4 DUP2 LT ISZERO PUSH2 0x1B2C JUMPI DUP2 DUP2 ADD MLOAD DUP4 DUP3 ADD MSTORE PUSH1 0x20 ADD PUSH2 0x1B14 JUMP JUMPDEST POP POP PUSH1 0x0 SWAP2 ADD MSTORE JUMP JUMPDEST PUSH1 0x0 DUP2 MLOAD DUP1 DUP5 MSTORE PUSH2 0x1B4D DUP2 PUSH1 0x20 DUP7 ADD PUSH1 0x20 DUP7 ADD PUSH2 0x1B11 JUMP JUMPDEST PUSH1 0x1F ADD PUSH1 0x1F NOT AND SWAP3 SWAP1 SWAP3 ADD PUSH1 0x20 ADD SWAP3 SWAP2 POP POP JUMP JUMPDEST PUSH1 0x0 PUSH1 0x20 DUP1 DUP4 ADD DUP2 DUP5 MSTORE DUP1 DUP6 MLOAD DUP1 DUP4 MSTORE PUSH1 0x40 DUP7 ADD SWAP2 POP PUSH1 0x40 DUP2 PUSH1 0x5 SHL DUP8 ADD ADD SWAP3 POP DUP4 DUP8 ADD PUSH1 0x0 JUMPDEST DUP3 DUP2 LT ISZERO PUSH2 0x1BB6 JUMPI PUSH1 0x3F NOT DUP9 DUP7 SUB ADD DUP5 MSTORE PUSH2 0x1BA4 DUP6 DUP4 MLOAD PUSH2 0x1B35 JUMP JUMPDEST SWAP5 POP SWAP3 DUP6 ADD SWAP3 SWAP1 DUP6 ADD SWAP1 PUSH1 0x1 ADD PUSH2 0x1B88 JUMP JUMPDEST POP SWAP3 SWAP8 SWAP7 POP POP POP POP POP POP POP JUMP JUMPDEST PUSH1 0x0 DUP1 PUSH1 0x40 DUP4 DUP6 SUB SLT ISZERO PUSH2 0x1BD6 JUMPI PUSH1 0x0 DUP1 REVERT JUMPDEST PUSH2 0x1B03 DUP4 PUSH2 0x1A60 JUMP JUMPDEST PUSH1 0x0 PUSH1 0x20 DUP3 DUP5 SUB SLT ISZERO PUSH2 0x1BF1 JUMPI PUSH1 0x0 DUP1 REVERT JUMPDEST PUSH2 0x11FC DUP3 PUSH2 0x16CA JUMP JUMPDEST PUSH1 0x0 DUP1 PUSH1 0x0 PUSH1 0x60 DUP5 DUP7 SUB SLT ISZERO PUSH2 0x1C0F JUMPI PUSH1 0x0 DUP1 REVERT JUMPDEST PUSH2 0x1C18 DUP5 PUSH2 0x16AE JUMP JUMPDEST SWAP3 POP PUSH2 0x1C26 PUSH1 0x20 DUP6 ADD PUSH2 0x16AE JUMP JUMPDEST SWAP2 POP PUSH2 0x1C34 PUSH1 0x40 DUP6 ADD PUSH2 0x16AE JUMP JUMPDEST SWAP1 POP SWAP3 POP SWAP3 POP SWAP3 JUMP JUMPDEST PUSH1 0x0 DUP1 PUSH1 0x0 PUSH1 0x60 DUP5 DUP7 SUB SLT ISZERO PUSH2 0x1C52 JUMPI PUSH1 0x0 DUP1 REVERT JUMPDEST PUSH2 0x1C5B DUP5 PUSH2 0x16AE JUMP JUMPDEST SWAP3 POP PUSH2 0x1C69 PUSH1 0x20 DUP6 ADD PUSH2 0x16AE JUMP JUMPDEST SWAP2 POP PUSH2 0x1C34 PUSH1 0x40 DUP6 ADD PUSH2 0x16CA JUMP JUMPDEST PUSH1 0x0 DUP1 PUSH1 0x0 PUSH1 0x60 DUP5 DUP7 SUB SLT ISZERO PUSH2 0x1C8C JUMPI PUSH1 0x0 DUP1 REVERT JUMPDEST PUSH2 0x1C95 DUP5 PUSH2 0x16AE JUMP JUMPDEST SWAP3 POP PUSH2 0x1CA3 PUSH1 0x20 DUP6 ADD PUSH2 0x16AE JUMP JUMPDEST SWAP2 POP PUSH1 0x40 DUP5 ADD CALLDATALOAD SWAP1 POP SWAP3 POP SWAP3 POP SWAP3 JUMP JUMPDEST PUSH1 0x0 DUP1 PUSH1 0x0 DUP1 PUSH1 0x80 DUP6 DUP8 SUB SLT ISZERO PUSH2 0x1CC9 JUMPI PUSH1 0x0 DUP1 REVERT JUMPDEST PUSH2 0x1CD2 DUP6 PUSH2 0x16AE JUMP JUMPDEST SWAP4 POP PUSH2 0x1CE0 PUSH1 0x20 DUP7 ADD PUSH2 0x16AE JUMP JUMPDEST SWAP3 POP PUSH2 0x1CEE PUSH1 0x40 DUP7 ADD PUSH2 0x16AE JUMP JUMPDEST SWAP2 POP PUSH2 0x1CFC PUSH1 0x60 DUP7 ADD PUSH2 0x16AE JUMP JUMPDEST SWAP1 POP SWAP3 SWAP6 SWAP2 SWAP5 POP SWAP3 POP JUMP JUMPDEST PUSH1 0x0 DUP1 PUSH1 0x0 PUSH1 0x60 DUP5 DUP7 SUB SLT ISZERO PUSH2 0x1D1C JUMPI PUSH1 0x0 DUP1 REVERT JUMPDEST PUSH2 0x1D25 DUP5 PUSH2 0x16AE JUMP JUMPDEST SWAP3 POP PUSH1 0x20 DUP1 DUP6 ADD CALLDATALOAD SWAP3 POP PUSH1 0x40 DUP1 DUP7 ADD CALLDATALOAD PUSH8 0xFFFFFFFFFFFFFFFF DUP1 DUP3 GT ISZERO PUSH2 0x1D4B JUMPI PUSH1 0x0 DUP1 REVERT JUMPDEST DUP2 DUP9 ADD SWAP2 POP DUP9 PUSH1 0x1F DUP4 ADD SLT PUSH2 0x1D5F JUMPI PUSH1 0x0 DUP1 REVERT JUMPDEST DUP2 CALLDATALOAD PUSH2 0x1D6D PUSH2 0x1733 DUP3 PUSH2 0x16EE JUMP JUMPDEST DUP2 DUP2 MSTORE PUSH1 0x5 SWAP2 SWAP1 SWAP2 SHL DUP4 ADD DUP6 ADD SWAP1 DUP6 DUP2 ADD SWAP1 DUP12 DUP4 GT ISZERO PUSH2 0x1D8C JUMPI PUSH1 0x0 DUP1 REVERT JUMPDEST DUP7 DUP6 ADD JUMPDEST DUP4 DUP2 LT ISZERO PUSH2 0x1DD8 JUMPI DUP1 CALLDATALOAD DUP6 DUP2 GT ISZERO PUSH2 0x1DA8 JUMPI PUSH1 0x0 DUP1 DUP2 REVERT JUMPDEST DUP7 ADD PUSH1 0x3F DUP2 ADD DUP15 SGT PUSH2 0x1DBA JUMPI PUSH1 0x0 DUP1 DUP2 REVERT JUMPDEST PUSH2 0x1DCA DUP15 DUP11 DUP4 ADD CALLDATALOAD DUP11 DUP5 ADD PUSH2 0x1636 JUMP JUMPDEST DUP5 MSTORE POP SWAP2 DUP8 ADD SWAP2 DUP8 ADD PUSH2 0x1D90 JUMP JUMPDEST POP DUP1 SWAP8 POP POP POP POP POP POP POP POP SWAP3 POP SWAP3 POP SWAP3 JUMP JUMPDEST PUSH4 0x4E487B71 PUSH1 0xE0 SHL PUSH1 0x0 MSTORE PUSH1 0x32 PUSH1 0x4 MSTORE PUSH1 0x24 PUSH1 0x0 REVERT JUMPDEST PUSH4 0x4E487B71 PUSH1 0xE0 SHL PUSH1 0x0 MSTORE PUSH1 0x11 PUSH1 0x4 MSTORE PUSH1 0x24 PUSH1 0x0 REVERT JUMPDEST PUSH1 0x0 PUSH1 0x1 DUP3 ADD PUSH2 0x1E28 JUMPI PUSH2 0x1E28 PUSH2 0x1E00 JUMP JUMPDEST POP PUSH1 0x1 ADD SWAP1 JUMP JUMPDEST PUSH1 0x60 DUP2 MSTORE PUSH1 0x0 PUSH2 0x1E42 PUSH1 0x60 DUP4 ADD DUP7 PUSH2 0x1B35 JUMP JUMPDEST DUP3 DUP2 SUB PUSH1 0x20 DUP5 ADD MSTORE PUSH2 0x1E54 DUP2 DUP7 PUSH2 0x1B35 JUMP JUMPDEST SWAP2 POP POP PUSH1 0x1 DUP1 PUSH1 0xA0 SHL SUB DUP4 AND PUSH1 0x40 DUP4 ADD MSTORE SWAP5 SWAP4 POP POP POP POP JUMP JUMPDEST DUP4 DUP2 MSTORE PUSH12 0xFFFFFFFFFFFFFFFFFFFFFFFF NOT DUP4 PUSH1 0x60 SHL AND PUSH1 0x20 DUP3 ADD MSTORE PUSH1 0x0 DUP3 MLOAD PUSH2 0x1E9D DUP2 PUSH1 0x34 DUP6 ADD PUSH1 0x20 DUP8 ADD PUSH2 0x1B11 JUMP JUMPDEST SWAP2 SWAP1 SWAP2 ADD PUSH1 0x34 ADD SWAP5 SWAP4 POP POP POP POP JUMP JUMPDEST DUP2 DUP2 SUB DUP2 DUP2 GT ISZERO PUSH2 0x102A JUMPI PUSH2 0x102A PUSH2 0x1E00 JUMP JUMPDEST DUP1 DUP3 ADD DUP1 DUP3 GT ISZERO PUSH2 0x102A JUMPI PUSH2 0x102A PUSH2 0x1E00 JUMP JUMPDEST PUSH1 0x1 DUP2 DUP2 SHR SWAP1 DUP3 AND DUP1 PUSH2 0x1EE6 JUMPI PUSH1 0x7F DUP3 AND SWAP2 POP JUMPDEST PUSH1 0x20 DUP3 LT DUP2 SUB PUSH2 0x1F06 JUMPI PUSH4 0x4E487B71 PUSH1 0xE0 SHL PUSH1 0x0 MSTORE PUSH1 0x22 PUSH1 0x4 MSTORE PUSH1 0x24 PUSH1 0x0 REVERT JUMPDEST POP SWAP2 SWAP1 POP JUMP INVALID LOG2 PUSH5 0x6970667358 0x22 SLT KECCAK256 0x5F SHR 0xAA EXTCODESIZE 0x5F 0xB6 0xEB PUSH27 0x1FC9544053ABF2B343FB549FBBF8A70CC02B8FAF4BBB07A164736F PUSH13 0x63430008120033000000000000 "},"gasEstimates":{"creation":{"codeDepositCost":"1600400","executionCost":"244171","totalCost":"1844571"},"external":{"allowance(address,address,address)":"infinite","associateToken(address,address)":"infinite","balanceOf(address,address)":"infinite","burnToken(address,uint256,bytes[])":"infinite","clearTransferResults()":"72856","createToken((string,string,address,string,bool,uint32,bool,address[],address[],address[],address[],address[],uint8),uint256,uint8[],address[])":"infinite","disassociateToken(address,address)":"infinite","getLastTransfer(address)":"13726","getMockHtsPrecompile()":"2432","getRecordedCalls()":"infinite","getSkipAllowanceChecks()":"2329","getSupplyKeyHolder(address)":"2634","isSupplyKey(address,address)":"infinite","isTokenAssociated(address,address)":"infinite","mintToken(address,uint256,bytes[])":"infinite","mockCreateTokenResponse(int64,address)":"infinite","mockIsSupplyKey(address,address,bool)":"infinite","revokeTokenAssociation(address,address)":"infinite","setAllowance(address,address,address,uint256)":"infinite","setBalance(address,address,uint256)":"infinite","setMintFailure(address,bool)":"infinite","setMintingEnabled(address,bool)":"infinite","setMockHtsPrecompile(address)":"24650","setSkipAllowanceChecks(bool)":"24563","setSupplyKeyHolder(address,address)":"infinite","setTokenAssociated(address,address,bool)":"infinite","setTransferFailure(address,bool)":"infinite","setTransferResult(address,int64)":"infinite","setupTokens(address,address,address,address)":"infinite","transferToken(address,address,address,uint256)":"infinite"},"internal":{"char(bytes1)":"infinite","toHexString(address)":"infinite","uint2str(uint256)":"infinite"}},"methodIdentifiers":{"allowance(address,address,address)":"927da105","associateToken(address,address)":"49146bde","balanceOf(address,address)":"f7888aec","burnToken(address,uint256,bytes[])":"f3fc76fa","clearTransferResults()":"1957457d","createToken((string,string,address,string,bool,uint32,bool,address[],address[],address[],address[],address[],uint8),uint256,uint8[],address[])":"01b620ca","disassociateToken(address,address)":"3fda8941","getLastTransfer(address)":"9eb50f1b","getMockHtsPrecompile()":"24a94e01","getRecordedCalls()":"4360b7ec","getSkipAllowanceChecks()":"009f7c13","getSupplyKeyHolder(address)":"4b8555a3","isSupplyKey(address,address)":"5c34c68a","isTokenAssociated(address,address)":"725fe8a4","mintToken(address,uint256,bytes[])":"ec12dc02","mockCreateTokenResponse(int64,address)":"4d2c5311","mockIsSupplyKey(address,address,bool)":"cc2456b7","revokeTokenAssociation(address,address)":"446072bf","setAllowance(address,address,address,uint256)":"a7070373","setBalance(address,address,uint256)":"b5c9cbbe","setMintFailure(address,bool)":"6aaf328d","setMintingEnabled(address,bool)":"1abb194a","setMockHtsPrecompile(address)":"03bd8900","setSkipAllowanceChecks(bool)":"69bf64d1","setSupplyKeyHolder(address,address)":"ac9e6d7a","setTokenAssociated(address,address,bool)":"a7796a90","setTransferFailure(address,bool)":"b38fa556","setTransferResult(address,int64)":"23408f4f","setupTokens(address,address,address,address)":"c0974946","transferToken(address,address,address,uint256)":"2c54de4f"}},"storageLayout":{"storage":[{"astId":12,"contract":"app/contracts/MockHederaTokenService.sol:MockHederaTokenService","label":"tokenBalances","offset":0,"slot":"0","type":"t_mapping(t_address,t_mapping(t_address,t_uint256))"},{"astId":20,"contract":"app/contracts/MockHederaTokenService.sol:MockHederaTokenService","label":"tokenAllowances","offset":0,"slot":"1","type":"t_mapping(t_address,t_mapping(t_address,t_mapping(t_address,t_uint256)))"},{"astId":26,"contract":"app/contracts/MockHederaTokenService.sol:MockHederaTokenService","label":"tokenAssociations","offset":0,"slot":"2","type":"t_mapping(t_address,t_mapping(t_address,t_bool))"},{"astId":30,"contract":"app/contracts/MockHederaTokenService.sol:MockHederaTokenService","label":"mintingEnabled","offset":0,"slot":"3","type":"t_mapping(t_address,t_bool)"},{"astId":34,"contract":"app/contracts/MockHederaTokenService.sol:MockHederaTokenService","label":"tokenSupplyKeyHolders","offset":0,"slot":"4","type":"t_mapping(t_address,t_address)"},{"astId":38,"contract":"app/contracts/MockHederaTokenService.sol:MockHederaTokenService","label":"transferResults","offset":0,"slot":"5","type":"t_mapping(t_address,t_int64)"},{"astId":51,"contract":"app/contracts/MockHederaTokenService.sol:MockHederaTokenService","label":"tokenTransfers","offset":0,"slot":"6","type":"t_mapping(t_address,t_array(t_struct(Transfer)45_storage)dyn_storage)"},{"astId":54,"contract":"app/contracts/MockHederaTokenService.sol:MockHederaTokenService","label":"recordedCalls","offset":0,"slot":"7","type":"t_array(t_string_storage)dyn_storage"},{"astId":56,"contract":"app/contracts/MockHederaTokenService.sol:MockHederaTokenService","label":"mockHtsPrecompile","offset":0,"slot":"8","type":"t_address"},{"astId":58,"contract":"app/contracts/MockHederaTokenService.sol:MockHederaTokenService","label":"mockedCreateTokenResponseCode","offset":20,"slot":"8","type":"t_int64"},{"astId":60,"contract":"app/contracts/MockHederaTokenService.sol:MockHederaTokenService","label":"mockedCreateTokenAddress","offset":0,"slot":"9","type":"t_address"},{"astId":66,"contract":"app/contracts/MockHederaTokenService.sol:MockHederaTokenService","label":"mockedIsSupplyKeyResults","offset":0,"slot":"10","type":"t_mapping(t_address,t_mapping(t_address,t_bool))"},{"astId":69,"contract":"app/contracts/MockHederaTokenService.sol:MockHederaTokenService","label":"skipAllowanceChecks","offset":0,"slot":"11","type":"t_bool"},{"astId":73,"contract":"app/contracts/MockHederaTokenService.sol:MockHederaTokenService","label":"transferFailures","offset":0,"slot":"12","type":"t_mapping(t_address,t_bool)"},{"astId":77,"contract":"app/contracts/MockHederaTokenService.sol:MockHederaTokenService","label":"mintFailures","offset":0,"slot":"13","type":"t_mapping(t_address,t_bool)"}],"types":{"t_address":{"encoding":"inplace","label":"address","numberOfBytes":"20"},"t_array(t_string_storage)dyn_storage":{"base":"t_string_storage","encoding":"dynamic_array","label":"string[]","numberOfBytes":"32"},"t_array(t_struct(Transfer)45_storage)dyn_storage":{"base":"t_struct(Transfer)45_storage","encoding":"dynamic_array","label":"struct MockHederaTokenService.Transfer[]","numberOfBytes":"32"},"t_bool":{"encoding":"inplace","label":"bool","numberOfBytes":"1"},"t_int64":{"encoding":"inplace","label":"int64","numberOfBytes":"8"},"t_mapping(t_address,t_address)":{"encoding":"mapping","key":"t_address","label":"mapping(address => address)","numberOfBytes":"32","value":"t_address"},"t_mapping(t_address,t_array(t_struct(Transfer)45_storage)dyn_storage)":{"encoding":"mapping","key":"t_address","label":"mapping(address => struct MockHederaTokenService.Transfer[])","numberOfBytes":"32","value":"t_array(t_struct(Transfer)45_storage)dyn_storage"},"t_mapping(t_address,t_bool)":{"encoding":"mapping","key":"t_address","label":"mapping(address => bool)","numberOfBytes":"32","value":"t_bool"},"t_mapping(t_address,t_int64)":{"encoding":"mapping","key":"t_address","label":"mapping(address => int64)","numberOfBytes":"32","value":"t_int64"},"t_mapping(t_address,t_mapping(t_address,t_bool))":{"encoding":"mapping","key":"t_address","label":"mapping(address => mapping(address => bool))","numberOfBytes":"32","value":"t_mapping(t_address,t_bool)"},"t_mapping(t_address,t_mapping(t_address,t_mapping(t_address,t_uint256)))":{"encoding":"mapping","key":"t_address","label":"mapping(address => mapping(address => mapping(address => uint256)))","numberOfBytes":"32","value":"t_mapping(t_address,t_mapping(t_address,t_uint256))"},"t_mapping(t_address,t_mapping(t_address,t_uint256))":{"encoding":"mapping","key":"t_address","label":"mapping(address => mapping(address => uint256))","numberOfBytes":"32","value":"t_mapping(t_address,t_uint256)"},"t_mapping(t_address,t_uint256)":{"encoding":"mapping","key":"t_address","label":"mapping(address => uint256)","numberOfBytes":"32","value":"t_uint256"},"t_string_storage":{"encoding":"bytes","label":"string","numberOfBytes":"32"},"t_struct(Transfer)45_storage":{"encoding":"inplace","label":"struct MockHederaTokenService.Transfer","members":[{"astId":40,"contract":"app/contracts/MockHederaTokenService.sol:MockHederaTokenService","label":"from","offset":0,"slot":"0","type":"t_address"},{"astId":42,"contract":"app/contracts/MockHederaTokenService.sol:MockHederaTokenService","label":"to","offset":0,"slot":"1","type":"t_address"},{"astId":44,"contract":"app/contracts/MockHederaTokenService.sol:MockHederaTokenService","label":"amount","offset":0,"slot":"2","type":"t_uint256"}],"numberOfBytes":"96"},"t_uint256":{"encoding":"inplace","label":"uint256","numberOfBytes":"32"}}},"userdoc":{"kind":"user","methods":{},"version":1}}}}