{"app/contracts/SimpleTokenMinter.sol":{"SimpleTokenMinter":{"abi":[{"inputs":[],"stateMutability":"nonpayable","type":"constructor"},{"anonymous":false,"inputs":[{"indexed":false,"internalType":"address","name":"token","type":"address"},{"indexed":false,"internalType":"uint256","name":"amount","type":"uint256"}],"name":"MintAttempt","type":"event"},{"anonymous":false,"inputs":[{"indexed":false,"internalType":"string","name":"reason","type":"string"},{"indexed":false,"internalType":"bool","name":"success","type":"bool"}],"name":"MintError","type":"event"},{"anonymous":false,"inputs":[{"indexed":false,"internalType":"address","name":"token","type":"address"},{"indexed":false,"internalType":"uint256","name":"amount","type":"uint256"},{"indexed":false,"internalType":"int64","name":"responseCode","type":"int64"}],"name":"MintSuccessful","type":"event"},{"anonymous":false,"inputs":[{"indexed":false,"internalType":"address","name":"previousToken","type":"address"},{"indexed":false,"internalType":"address","name":"newToken","type":"address"}],"name":"TokenSet","type":"event"},{"inputs":[],"name":"getTokenBalance","outputs":[{"internalType":"uint256","name":"","type":"uint256"}],"stateMutability":"view","type":"function"},{"inputs":[{"internalType":"int64","name":"amount","type":"int64"}],"name":"mintTokens","outputs":[],"stateMutability":"nonpayable","type":"function"},{"inputs":[{"internalType":"uint64","name":"amount","type":"uint64"}],"name":"mintTokensRaw","outputs":[],"stateMutability":"nonpayable","type":"function"},{"inputs":[{"internalType":"address","name":"_tokenAddress","type":"address"}],"name":"setTokenAddress","outputs":[],"stateMutability":"nonpayable","type":"function"},{"inputs":[],"name":"tokenAddress","outputs":[{"internalType":"address","name":"","type":"address"}],"stateMutability":"view","type":"function"},{"stateMutability":"payable","type":"receive"}],"devdoc":{"kind":"dev","methods":{},"version":1},"evm":{"bytecode":{"linkReferences":{},"object":"608060405234801561001057600080fd5b50600080546001600160a01b031916610167179055610aeb806100346000396000f3fe60806040526004361061004e5760003560e01c806326a4e8d21461005a57806379d2d6d01461007c57806382b2e2571461009c5780639d76ea58146100c4578063b62bca7a146100fc57600080fd5b3661005557005b600080fd5b34801561006657600080fd5b5061007a6100753660046107fc565b61011c565b005b34801561008857600080fd5b5061007a61009736600461082c565b61017d565b3480156100a857600080fd5b506100b16104d9565b6040519081526020015b60405180910390f35b3480156100d057600080fd5b506001546100e4906001600160a01b031681565b6040516001600160a01b0390911681526020016100bb565b34801561010857600080fd5b5061007a610117366004610868565b61057f565b600180546001600160a01b038381166001600160a01b031983168117909355604080519190921680825260208201939093527f0dd664a155dd89526bb019e22b00291bb7ca9d07ba3ec4a1a76b410da9797ceb910160405180910390a15050565b6001546001600160a01b03166101ae5760405162461bcd60e51b81526004016101a590610885565b60405180910390fd5b60008167ffffffffffffffff16116102085760405162461bcd60e51b815260206004820152601d60248201527f416d6f756e74206d7573742062652067726561746572207468616e203000000060448201526064016101a5565b600154604080516001600160a01b03909216825267ffffffffffffffff831660208301527fbad43499e79621fa90281bd86a7ca9a849c7dfd4497986cf42d2492f9f2b24d0910160405180910390a16040805160008082526020820190925281610282565b606081526020019060019003908161026d5790505b506001546040519192506000916376096e0160e11b916102b4916001600160a01b039091169086908690602401610959565b604051602081830303815290604052906001600160e01b0319166020820180516001600160e01b03838183161783525050505090506000806101676001600160a01b0316836040516103069190610996565b6000604051808303816000865af19150503d8060008114610343576040519150601f19603f3d011682016040523d82523d6000602084013e610348565b606091505b5091509150816103a1577f4e43faf42a4c3975f2816164d836207242520ab9f5f2bce124d75369afdda0d28260405161038191906109b2565b60405180910390a160405162461bcd60e51b81526004016101a5906109f8565b6000818060200190518101906103b79190610a34565b600154604080516001600160a01b03909216825267ffffffffffffffff89166020830152600783900b908201529091507f6abd9efc69213999453e7a3b5f4faa1e04225df77e8ac7faa156132ae8086f9a9060600160405180910390a18060070b6000146104d1576040517f4d696e74206661696c6564207769746820636f64653a20000000000000000000602082015260c082901b60378201527f4e43faf42a4c3975f2816164d836207242520ab9f5f2bce124d75369afdda0d290603f0160408051601f1981840301815290829052610493918690610a51565b60405180910390a160405162461bcd60e51b815260206004820152600b60248201526a135a5b9d0819985a5b195960aa1b60448201526064016101a5565b505050505050565b6001546000906001600160a01b03166105045760405162461bcd60e51b81526004016101a590610885565b600054600154604051633de222bb60e21b81526001600160a01b03918216600482015230602482015291169063f7888aec90604401602060405180830381865afa158015610556573d6000803e3d6000fd5b505050506040513d601f19601f8201168201806040525081019061057a9190610a75565b905090565b6001546001600160a01b03166105a75760405162461bcd60e51b81526004016101a590610885565b60008160070b136105fa5760405162461bcd60e51b815260206004820152601d60248201527f416d6f756e74206d7573742062652067726561746572207468616e203000000060448201526064016101a5565b600154604080516001600160a01b03909216825267ffffffffffffffff831660208301819052917fbad43499e79621fa90281bd86a7ca9a849c7dfd4497986cf42d2492f9f2b24d0910160405180910390a16040805160008082526020820190925281610677565b60608152602001906001900390816106625790505b506001546040519192506000918291610167916376096e0160e11b916106af916001600160a01b039091169088908890602401610a8e565b60408051601f198184030181529181526020820180516001600160e01b03166001600160e01b03199094169390931790925290516106ed9190610996565b6000604051808303816000865af19150503d806000811461072a576040519150601f19603f3d011682016040523d82523d6000602084013e61072f565b606091505b5091509150816107515760405162461bcd60e51b81526004016101a5906109f8565b6000818060200190518101906107679190610a34565b600154604080516001600160a01b03909216825260208201889052600783900b908201529091507f6abd9efc69213999453e7a3b5f4faa1e04225df77e8ac7faa156132ae8086f9a9060600160405180910390a18060070b6000146104d15760405162461bcd60e51b815260206004820152600b60248201526a135a5b9d0819985a5b195960aa1b60448201526064016101a5565b60006020828403121561080e57600080fd5b81356001600160a01b038116811461082557600080fd5b9392505050565b60006020828403121561083e57600080fd5b813567ffffffffffffffff8116811461082557600080fd5b8060070b811461086557600080fd5b50565b60006020828403121561087a57600080fd5b813561082581610856565b602080825260159082015274151bdad95b881859191c995cdcc81b9bdd081cd95d605a1b604082015260600190565b60005b838110156108cf5781810151838201526020016108b7565b50506000910152565b600081518084526108f08160208601602086016108b4565b601f01601f19169290920160200192915050565b600081518084526020808501808196508360051b8101915082860160005b8581101561094c57828403895261093a8483516108d8565b98850198935090840190600101610922565b5091979650505050505050565b6001600160a01b038416815267ffffffffffffffff8316602082015260606040820181905260009061098d90830184610904565b95945050505050565b600082516109a88184602087016108b4565b9190910192915050565b6040815260006109e8604083016016815275141c9958dbdb5c1a5b194818d85b1b0819985a5b195960521b602082015260400190565b9050821515602083015292915050565b602081526000610a2e602083016016815275141c9958dbdb5c1a5b194818d85b1b0819985a5b195960521b602082015260400190565b92915050565b600060208284031215610a4657600080fd5b815161082581610856565b604081526000610a6460408301856108d8565b905082151560208301529392505050565b600060208284031215610a8757600080fd5b5051919050565b60018060a01b038416815282602082015260606040820152600061098d606083018461090456fea2646970667358221220a3a0241da93b06e47fbd2edd111a3d0267baceada6d707016d19b5c156069f2a64736f6c63430008120033","opcodes":"PUSH1 0x80 PUSH1 0x40 MSTORE CALLVALUE DUP1 ISZERO PUSH2 0x10 JUMPI PUSH1 0x0 DUP1 REVERT JUMPDEST POP PUSH1 0x0 DUP1 SLOAD PUSH1 0x1 PUSH1 0x1 PUSH1 0xA0 SHL SUB NOT AND PUSH2 0x167 OR SWAP1 SSTORE PUSH2 0xAEB DUP1 PUSH2 0x34 PUSH1 0x0 CODECOPY PUSH1 0x0 RETURN INVALID PUSH1 0x80 PUSH1 0x40 MSTORE PUSH1 0x4 CALLDATASIZE LT PUSH2 0x4E JUMPI PUSH1 0x0 CALLDATALOAD PUSH1 0xE0 SHR DUP1 PUSH4 0x26A4E8D2 EQ PUSH2 0x5A JUMPI DUP1 PUSH4 0x79D2D6D0 EQ PUSH2 0x7C JUMPI DUP1 PUSH4 0x82B2E257 EQ PUSH2 0x9C JUMPI DUP1 PUSH4 0x9D76EA58 EQ PUSH2 0xC4 JUMPI DUP1 PUSH4 0xB62BCA7A EQ PUSH2 0xFC JUMPI PUSH1 0x0 DUP1 REVERT JUMPDEST CALLDATASIZE PUSH2 0x55 JUMPI STOP JUMPDEST PUSH1 0x0 DUP1 REVERT JUMPDEST CALLVALUE DUP1 ISZERO PUSH2 0x66 JUMPI PUSH1 0x0 DUP1 REVERT JUMPDEST POP PUSH2 0x7A PUSH2 0x75 CALLDATASIZE PUSH1 0x4 PUSH2 0x7FC JUMP JUMPDEST PUSH2 0x11C JUMP JUMPDEST STOP JUMPDEST CALLVALUE DUP1 ISZERO PUSH2 0x88 JUMPI PUSH1 0x0 DUP1 REVERT JUMPDEST POP PUSH2 0x7A PUSH2 0x97 CALLDATASIZE PUSH1 0x4 PUSH2 0x82C JUMP JUMPDEST PUSH2 0x17D JUMP JUMPDEST CALLVALUE DUP1 ISZERO PUSH2 0xA8 JUMPI PUSH1 0x0 DUP1 REVERT JUMPDEST POP PUSH2 0xB1 PUSH2 0x4D9 JUMP JUMPDEST PUSH1 0x40 MLOAD SWAP1 DUP2 MSTORE PUSH1 0x20 ADD JUMPDEST PUSH1 0x40 MLOAD DUP1 SWAP2 SUB SWAP1 RETURN JUMPDEST CALLVALUE DUP1 ISZERO PUSH2 0xD0 JUMPI PUSH1 0x0 DUP1 REVERT JUMPDEST POP PUSH1 0x1 SLOAD PUSH2 0xE4 SWAP1 PUSH1 0x1 PUSH1 0x1 PUSH1 0xA0 SHL SUB AND DUP2 JUMP JUMPDEST PUSH1 0x40 MLOAD PUSH1 0x1 PUSH1 0x1 PUSH1 0xA0 SHL SUB SWAP1 SWAP2 AND DUP2 MSTORE PUSH1 0x20 ADD PUSH2 0xBB JUMP JUMPDEST CALLVALUE DUP1 ISZERO PUSH2 0x108 JUMPI PUSH1 0x0 DUP1 REVERT JUMPDEST POP PUSH2 0x7A PUSH2 0x117 CALLDATASIZE PUSH1 0x4 PUSH2 0x868 JUMP JUMPDEST PUSH2 0x57F JUMP JUMPDEST PUSH1 0x1 DUP1 SLOAD PUSH1 0x1 PUSH1 0x1 PUSH1 0xA0 SHL SUB DUP4 DUP2 AND PUSH1 0x1 PUSH1 0x1 PUSH1 0xA0 SHL SUB NOT DUP4 AND DUP2 OR SWAP1 SWAP4 SSTORE PUSH1 0x40 DUP1 MLOAD SWAP2 SWAP1 SWAP3 AND DUP1 DUP3 MSTORE PUSH1 0x20 DUP3 ADD SWAP4 SWAP1 SWAP4 MSTORE PUSH32 0xDD664A155DD89526BB019E22B00291BB7CA9D07BA3EC4A1A76B410DA9797CEB SWAP2 ADD PUSH1 0x40 MLOAD DUP1 SWAP2 SUB SWAP1 LOG1 POP POP JUMP JUMPDEST PUSH1 0x1 SLOAD PUSH1 0x1 PUSH1 0x1 PUSH1 0xA0 SHL SUB AND PUSH2 0x1AE JUMPI PUSH1 0x40 MLOAD PUSH3 0x461BCD PUSH1 0xE5 SHL DUP2 MSTORE PUSH1 0x4 ADD PUSH2 0x1A5 SWAP1 PUSH2 0x885 JUMP JUMPDEST PUSH1 0x40 MLOAD DUP1 SWAP2 SUB SWAP1 REVERT JUMPDEST PUSH1 0x0 DUP2 PUSH8 0xFFFFFFFFFFFFFFFF AND GT PUSH2 0x208 JUMPI PUSH1 0x40 MLOAD PUSH3 0x461BCD PUSH1 0xE5 SHL DUP2 MSTORE PUSH1 0x20 PUSH1 0x4 DUP3 ADD MSTORE PUSH1 0x1D PUSH1 0x24 DUP3 ADD MSTORE PUSH32 0x416D6F756E74206D7573742062652067726561746572207468616E2030000000 PUSH1 0x44 DUP3 ADD MSTORE PUSH1 0x64 ADD PUSH2 0x1A5 JUMP JUMPDEST PUSH1 0x1 SLOAD PUSH1 0x40 DUP1 MLOAD PUSH1 0x1 PUSH1 0x1 PUSH1 0xA0 SHL SUB SWAP1 SWAP3 AND DUP3 MSTORE PUSH8 0xFFFFFFFFFFFFFFFF DUP4 AND PUSH1 0x20 DUP4 ADD MSTORE PUSH32 0xBAD43499E79621FA90281BD86A7CA9A849C7DFD4497986CF42D2492F9F2B24D0 SWAP2 ADD PUSH1 0x40 MLOAD DUP1 SWAP2 SUB SWAP1 LOG1 PUSH1 0x40 DUP1 MLOAD PUSH1 0x0 DUP1 DUP3 MSTORE PUSH1 0x20 DUP3 ADD SWAP1 SWAP3 MSTORE DUP2 PUSH2 0x282 JUMP JUMPDEST PUSH1 0x60 DUP2 MSTORE PUSH1 0x20 ADD SWAP1 PUSH1 0x1 SWAP1 SUB SWAP1 DUP2 PUSH2 0x26D JUMPI SWAP1 POP JUMPDEST POP PUSH1 0x1 SLOAD PUSH1 0x40 MLOAD SWAP2 SWAP3 POP PUSH1 0x0 SWAP2 PUSH4 0x76096E01 PUSH1 0xE1 SHL SWAP2 PUSH2 0x2B4 SWAP2 PUSH1 0x1 PUSH1 0x1 PUSH1 0xA0 SHL SUB SWAP1 SWAP2 AND SWAP1 DUP7 SWAP1 DUP7 SWAP1 PUSH1 0x24 ADD PUSH2 0x959 JUMP JUMPDEST PUSH1 0x40 MLOAD PUSH1 0x20 DUP2 DUP4 SUB SUB DUP2 MSTORE SWAP1 PUSH1 0x40 MSTORE SWAP1 PUSH1 0x1 PUSH1 0x1 PUSH1 0xE0 SHL SUB NOT AND PUSH1 0x20 DUP3 ADD DUP1 MLOAD PUSH1 0x1 PUSH1 0x1 PUSH1 0xE0 SHL SUB DUP4 DUP2 DUP4 AND OR DUP4 MSTORE POP POP POP POP SWAP1 POP PUSH1 0x0 DUP1 PUSH2 0x167 PUSH1 0x1 PUSH1 0x1 PUSH1 0xA0 SHL SUB AND DUP4 PUSH1 0x40 MLOAD PUSH2 0x306 SWAP2 SWAP1 PUSH2 0x996 JUMP JUMPDEST PUSH1 0x0 PUSH1 0x40 MLOAD DUP1 DUP4 SUB DUP2 PUSH1 0x0 DUP7 GAS CALL SWAP2 POP POP RETURNDATASIZE DUP1 PUSH1 0x0 DUP2 EQ PUSH2 0x343 JUMPI PUSH1 0x40 MLOAD SWAP2 POP PUSH1 0x1F NOT PUSH1 0x3F RETURNDATASIZE ADD AND DUP3 ADD PUSH1 0x40 MSTORE RETURNDATASIZE DUP3 MSTORE RETURNDATASIZE PUSH1 0x0 PUSH1 0x20 DUP5 ADD RETURNDATACOPY PUSH2 0x348 JUMP JUMPDEST PUSH1 0x60 SWAP2 POP JUMPDEST POP SWAP2 POP SWAP2 POP DUP2 PUSH2 0x3A1 JUMPI PUSH32 0x4E43FAF42A4C3975F2816164D836207242520AB9F5F2BCE124D75369AFDDA0D2 DUP3 PUSH1 0x40 MLOAD PUSH2 0x381 SWAP2 SWAP1 PUSH2 0x9B2 JUMP JUMPDEST PUSH1 0x40 MLOAD DUP1 SWAP2 SUB SWAP1 LOG1 PUSH1 0x40 MLOAD PUSH3 0x461BCD PUSH1 0xE5 SHL DUP2 MSTORE PUSH1 0x4 ADD PUSH2 0x1A5 SWAP1 PUSH2 0x9F8 JUMP JUMPDEST PUSH1 0x0 DUP2 DUP1 PUSH1 0x20 ADD SWAP1 MLOAD DUP2 ADD SWAP1 PUSH2 0x3B7 SWAP2 SWAP1 PUSH2 0xA34 JUMP JUMPDEST PUSH1 0x1 SLOAD PUSH1 0x40 DUP1 MLOAD PUSH1 0x1 PUSH1 0x1 PUSH1 0xA0 SHL SUB SWAP1 SWAP3 AND DUP3 MSTORE PUSH8 0xFFFFFFFFFFFFFFFF DUP10 AND PUSH1 0x20 DUP4 ADD MSTORE PUSH1 0x7 DUP4 SWAP1 SIGNEXTEND SWAP1 DUP3 ADD MSTORE SWAP1 SWAP2 POP PUSH32 0x6ABD9EFC69213999453E7A3B5F4FAA1E04225DF77E8AC7FAA156132AE8086F9A SWAP1 PUSH1 0x60 ADD PUSH1 0x40 MLOAD DUP1 SWAP2 SUB SWAP1 LOG1 DUP1 PUSH1 0x7 SIGNEXTEND PUSH1 0x0 EQ PUSH2 0x4D1 JUMPI PUSH1 0x40 MLOAD PUSH32 0x4D696E74206661696C6564207769746820636F64653A20000000000000000000 PUSH1 0x20 DUP3 ADD MSTORE PUSH1 0xC0 DUP3 SWAP1 SHL PUSH1 0x37 DUP3 ADD MSTORE PUSH32 0x4E43FAF42A4C3975F2816164D836207242520AB9F5F2BCE124D75369AFDDA0D2 SWAP1 PUSH1 0x3F ADD PUSH1 0x40 DUP1 MLOAD PUSH1 0x1F NOT DUP2 DUP5 SUB ADD DUP2 MSTORE SWAP1 DUP3 SWAP1 MSTORE PUSH2 0x493 SWAP2 DUP7 SWAP1 PUSH2 0xA51 JUMP JUMPDEST PUSH1 0x40 MLOAD DUP1 SWAP2 SUB SWAP1 LOG1 PUSH1 0x40 MLOAD PUSH3 0x461BCD PUSH1 0xE5 SHL DUP2 MSTORE PUSH1 0x20 PUSH1 0x4 DUP3 ADD MSTORE PUSH1 0xB PUSH1 0x24 DUP3 ADD MSTORE PUSH11 0x135A5B9D0819985A5B1959 PUSH1 0xAA SHL PUSH1 0x44 DUP3 ADD MSTORE PUSH1 0x64 ADD PUSH2 0x1A5 JUMP JUMPDEST POP POP POP POP POP POP JUMP JUMPDEST PUSH1 0x1 SLOAD PUSH1 0x0 SWAP1 PUSH1 0x1 PUSH1 0x1 PUSH1 0xA0 SHL SUB AND PUSH2 0x504 JUMPI PUSH1 0x40 MLOAD PUSH3 0x461BCD PUSH1 0xE5 SHL DUP2 MSTORE PUSH1 0x4 ADD PUSH2 0x1A5 SWAP1 PUSH2 0x885 JUMP JUMPDEST PUSH1 0x0 SLOAD PUSH1 0x1 SLOAD PUSH1 0x40 MLOAD PUSH4 0x3DE222BB PUSH1 0xE2 SHL DUP2 MSTORE PUSH1 0x1 PUSH1 0x1 PUSH1 0xA0 SHL SUB SWAP2 DUP3 AND PUSH1 0x4 DUP3 ADD MSTORE ADDRESS PUSH1 0x24 DUP3 ADD MSTORE SWAP2 AND SWAP1 PUSH4 0xF7888AEC SWAP1 PUSH1 0x44 ADD PUSH1 0x20 PUSH1 0x40 MLOAD DUP1 DUP4 SUB DUP2 DUP7 GAS STATICCALL ISZERO DUP1 ISZERO PUSH2 0x556 JUMPI RETURNDATASIZE PUSH1 0x0 DUP1 RETURNDATACOPY RETURNDATASIZE PUSH1 0x0 REVERT JUMPDEST POP POP POP POP PUSH1 0x40 MLOAD RETURNDATASIZE PUSH1 0x1F NOT PUSH1 0x1F DUP3 ADD AND DUP3 ADD DUP1 PUSH1 0x40 MSTORE POP DUP2 ADD SWAP1 PUSH2 0x57A SWAP2 SWAP1 PUSH2 0xA75 JUMP JUMPDEST SWAP1 POP SWAP1 JUMP JUMPDEST PUSH1 0x1 SLOAD PUSH1 0x1 PUSH1 0x1 PUSH1 0xA0 SHL SUB AND PUSH2 0x5A7 JUMPI PUSH1 0x40 MLOAD PUSH3 0x461BCD PUSH1 0xE5 SHL DUP2 MSTORE PUSH1 0x4 ADD PUSH2 0x1A5 SWAP1 PUSH2 0x885 JUMP JUMPDEST PUSH1 0x0 DUP2 PUSH1 0x7 SIGNEXTEND SGT PUSH2 0x5FA JUMPI PUSH1 0x40 MLOAD PUSH3 0x461BCD PUSH1 0xE5 SHL DUP2 MSTORE PUSH1 0x20 PUSH1 0x4 DUP3 ADD MSTORE PUSH1 0x1D PUSH1 0x24 DUP3 ADD MSTORE PUSH32 0x416D6F756E74206D7573742062652067726561746572207468616E2030000000 PUSH1 0x44 DUP3 ADD MSTORE PUSH1 0x64 ADD PUSH2 0x1A5 JUMP JUMPDEST PUSH1 0x1 SLOAD PUSH1 0x40 DUP1 MLOAD PUSH1 0x1 PUSH1 0x1 PUSH1 0xA0 SHL SUB SWAP1 SWAP3 AND DUP3 MSTORE PUSH8 0xFFFFFFFFFFFFFFFF DUP4 AND PUSH1 0x20 DUP4 ADD DUP2 SWAP1 MSTORE SWAP2 PUSH32 0xBAD43499E79621FA90281BD86A7CA9A849C7DFD4497986CF42D2492F9F2B24D0 SWAP2 ADD PUSH1 0x40 MLOAD DUP1 SWAP2 SUB SWAP1 LOG1 PUSH1 0x40 DUP1 MLOAD PUSH1 0x0 DUP1 DUP3 MSTORE PUSH1 0x20 DUP3 ADD SWAP1 SWAP3 MSTORE DUP2 PUSH2 0x677 JUMP JUMPDEST PUSH1 0x60 DUP2 MSTORE PUSH1 0x20 ADD SWAP1 PUSH1 0x1 SWAP1 SUB SWAP1 DUP2 PUSH2 0x662 JUMPI SWAP1 POP JUMPDEST POP PUSH1 0x1 SLOAD PUSH1 0x40 MLOAD SWAP2 SWAP3 POP PUSH1 0x0 SWAP2 DUP3 SWAP2 PUSH2 0x167 SWAP2 PUSH4 0x76096E01 PUSH1 0xE1 SHL SWAP2 PUSH2 0x6AF SWAP2 PUSH1 0x1 PUSH1 0x1 PUSH1 0xA0 SHL SUB SWAP1 SWAP2 AND SWAP1 DUP9 SWAP1 DUP9 SWAP1 PUSH1 0x24 ADD PUSH2 0xA8E JUMP JUMPDEST PUSH1 0x40 DUP1 MLOAD PUSH1 0x1F NOT DUP2 DUP5 SUB ADD DUP2 MSTORE SWAP2 DUP2 MSTORE PUSH1 0x20 DUP3 ADD DUP1 MLOAD PUSH1 0x1 PUSH1 0x1 PUSH1 0xE0 SHL SUB AND PUSH1 0x1 PUSH1 0x1 PUSH1 0xE0 SHL SUB NOT SWAP1 SWAP5 AND SWAP4 SWAP1 SWAP4 OR SWAP1 SWAP3 MSTORE SWAP1 MLOAD PUSH2 0x6ED SWAP2 SWAP1 PUSH2 0x996 JUMP JUMPDEST PUSH1 0x0 PUSH1 0x40 MLOAD DUP1 DUP4 SUB DUP2 PUSH1 0x0 DUP7 GAS CALL SWAP2 POP POP RETURNDATASIZE DUP1 PUSH1 0x0 DUP2 EQ PUSH2 0x72A JUMPI PUSH1 0x40 MLOAD SWAP2 POP PUSH1 0x1F NOT PUSH1 0x3F RETURNDATASIZE ADD AND DUP3 ADD PUSH1 0x40 MSTORE RETURNDATASIZE DUP3 MSTORE RETURNDATASIZE PUSH1 0x0 PUSH1 0x20 DUP5 ADD RETURNDATACOPY PUSH2 0x72F JUMP JUMPDEST PUSH1 0x60 SWAP2 POP JUMPDEST POP SWAP2 POP SWAP2 POP DUP2 PUSH2 0x751 JUMPI PUSH1 0x40 MLOAD PUSH3 0x461BCD PUSH1 0xE5 SHL DUP2 MSTORE PUSH1 0x4 ADD PUSH2 0x1A5 SWAP1 PUSH2 0x9F8 JUMP JUMPDEST PUSH1 0x0 DUP2 DUP1 PUSH1 0x20 ADD SWAP1 MLOAD DUP2 ADD SWAP1 PUSH2 0x767 SWAP2 SWAP1 PUSH2 0xA34 JUMP JUMPDEST PUSH1 0x1 SLOAD PUSH1 0x40 DUP1 MLOAD PUSH1 0x1 PUSH1 0x1 PUSH1 0xA0 SHL SUB SWAP1 SWAP3 AND DUP3 MSTORE PUSH1 0x20 DUP3 ADD DUP9 SWAP1 MSTORE PUSH1 0x7 DUP4 SWAP1 SIGNEXTEND SWAP1 DUP3 ADD MSTORE SWAP1 SWAP2 POP PUSH32 0x6ABD9EFC69213999453E7A3B5F4FAA1E04225DF77E8AC7FAA156132AE8086F9A SWAP1 PUSH1 0x60 ADD PUSH1 0x40 MLOAD DUP1 SWAP2 SUB SWAP1 LOG1 DUP1 PUSH1 0x7 SIGNEXTEND PUSH1 0x0 EQ PUSH2 0x4D1 JUMPI PUSH1 0x40 MLOAD PUSH3 0x461BCD PUSH1 0xE5 SHL DUP2 MSTORE PUSH1 0x20 PUSH1 0x4 DUP3 ADD MSTORE PUSH1 0xB PUSH1 0x24 DUP3 ADD MSTORE PUSH11 0x135A5B9D0819985A5B1959 PUSH1 0xAA SHL PUSH1 0x44 DUP3 ADD MSTORE PUSH1 0x64 ADD PUSH2 0x1A5 JUMP JUMPDEST PUSH1 0x0 PUSH1 0x20 DUP3 DUP5 SUB SLT ISZERO PUSH2 0x80E JUMPI PUSH1 0x0 DUP1 REVERT JUMPDEST DUP2 CALLDATALOAD PUSH1 0x1 PUSH1 0x1 PUSH1 0xA0 SHL SUB DUP2 AND DUP2 EQ PUSH2 0x825 JUMPI PUSH1 0x0 DUP1 REVERT JUMPDEST SWAP4 SWAP3 POP POP POP JUMP JUMPDEST PUSH1 0x0 PUSH1 0x20 DUP3 DUP5 SUB SLT ISZERO PUSH2 0x83E JUMPI PUSH1 0x0 DUP1 REVERT JUMPDEST DUP2 CALLDATALOAD PUSH8 0xFFFFFFFFFFFFFFFF DUP2 AND DUP2 EQ PUSH2 0x825 JUMPI PUSH1 0x0 DUP1 REVERT JUMPDEST DUP1 PUSH1 0x7 SIGNEXTEND DUP2 EQ PUSH2 0x865 JUMPI PUSH1 0x0 DUP1 REVERT JUMPDEST POP JUMP JUMPDEST PUSH1 0x0 PUSH1 0x20 DUP3 DUP5 SUB SLT ISZERO PUSH2 0x87A JUMPI PUSH1 0x0 DUP1 REVERT JUMPDEST DUP2 CALLDATALOAD PUSH2 0x825 DUP2 PUSH2 0x856 JUMP JUMPDEST PUSH1 0x20 DUP1 DUP3 MSTORE PUSH1 0x15 SWAP1 DUP3 ADD MSTORE PUSH21 0x151BDAD95B881859191C995CDCC81B9BDD081CD95D PUSH1 0x5A SHL PUSH1 0x40 DUP3 ADD MSTORE PUSH1 0x60 ADD SWAP1 JUMP JUMPDEST PUSH1 0x0 JUMPDEST DUP4 DUP2 LT ISZERO PUSH2 0x8CF JUMPI DUP2 DUP2 ADD MLOAD DUP4 DUP3 ADD MSTORE PUSH1 0x20 ADD PUSH2 0x8B7 JUMP JUMPDEST POP POP PUSH1 0x0 SWAP2 ADD MSTORE JUMP JUMPDEST PUSH1 0x0 DUP2 MLOAD DUP1 DUP5 MSTORE PUSH2 0x8F0 DUP2 PUSH1 0x20 DUP7 ADD PUSH1 0x20 DUP7 ADD PUSH2 0x8B4 JUMP JUMPDEST PUSH1 0x1F ADD PUSH1 0x1F NOT AND SWAP3 SWAP1 SWAP3 ADD PUSH1 0x20 ADD SWAP3 SWAP2 POP POP JUMP JUMPDEST PUSH1 0x0 DUP2 MLOAD DUP1 DUP5 MSTORE PUSH1 0x20 DUP1 DUP6 ADD DUP1 DUP2 SWAP7 POP DUP4 PUSH1 0x5 SHL DUP2 ADD SWAP2 POP DUP3 DUP7 ADD PUSH1 0x0 JUMPDEST DUP6 DUP2 LT ISZERO PUSH2 0x94C JUMPI DUP3 DUP5 SUB DUP10 MSTORE PUSH2 0x93A DUP5 DUP4 MLOAD PUSH2 0x8D8 JUMP JUMPDEST SWAP9 DUP6 ADD SWAP9 SWAP4 POP SWAP1 DUP5 ADD SWAP1 PUSH1 0x1 ADD PUSH2 0x922 JUMP JUMPDEST POP SWAP2 SWAP8 SWAP7 POP POP POP POP POP POP POP JUMP JUMPDEST PUSH1 0x1 PUSH1 0x1 PUSH1 0xA0 SHL SUB DUP5 AND DUP2 MSTORE PUSH8 0xFFFFFFFFFFFFFFFF DUP4 AND PUSH1 0x20 DUP3 ADD MSTORE PUSH1 0x60 PUSH1 0x40 DUP3 ADD DUP2 SWAP1 MSTORE PUSH1 0x0 SWAP1 PUSH2 0x98D SWAP1 DUP4 ADD DUP5 PUSH2 0x904 JUMP JUMPDEST SWAP6 SWAP5 POP POP POP POP POP JUMP JUMPDEST PUSH1 0x0 DUP3 MLOAD PUSH2 0x9A8 DUP2 DUP5 PUSH1 0x20 DUP8 ADD PUSH2 0x8B4 JUMP JUMPDEST SWAP2 SWAP1 SWAP2 ADD SWAP3 SWAP2 POP POP JUMP JUMPDEST PUSH1 0x40 DUP2 MSTORE PUSH1 0x0 PUSH2 0x9E8 PUSH1 0x40 DUP4 ADD PUSH1 0x16 DUP2 MSTORE PUSH22 0x141C9958DBDB5C1A5B194818D85B1B0819985A5B1959 PUSH1 0x52 SHL PUSH1 0x20 DUP3 ADD MSTORE PUSH1 0x40 ADD SWAP1 JUMP JUMPDEST SWAP1 POP DUP3 ISZERO ISZERO PUSH1 0x20 DUP4 ADD MSTORE SWAP3 SWAP2 POP POP JUMP JUMPDEST PUSH1 0x20 DUP2 MSTORE PUSH1 0x0 PUSH2 0xA2E PUSH1 0x20 DUP4 ADD PUSH1 0x16 DUP2 MSTORE PUSH22 0x141C9958DBDB5C1A5B194818D85B1B0819985A5B1959 PUSH1 0x52 SHL PUSH1 0x20 DUP3 ADD MSTORE PUSH1 0x40 ADD SWAP1 JUMP JUMPDEST SWAP3 SWAP2 POP POP JUMP JUMPDEST PUSH1 0x0 PUSH1 0x20 DUP3 DUP5 SUB SLT ISZERO PUSH2 0xA46 JUMPI PUSH1 0x0 DUP1 REVERT JUMPDEST DUP2 MLOAD PUSH2 0x825 DUP2 PUSH2 0x856 JUMP JUMPDEST PUSH1 0x40 DUP2 MSTORE PUSH1 0x0 PUSH2 0xA64 PUSH1 0x40 DUP4 ADD DUP6 PUSH2 0x8D8 JUMP JUMPDEST SWAP1 POP DUP3 ISZERO ISZERO PUSH1 0x20 DUP4 ADD MSTORE SWAP4 SWAP3 POP POP POP JUMP JUMPDEST PUSH1 0x0 PUSH1 0x20 DUP3 DUP5 SUB SLT ISZERO PUSH2 0xA87 JUMPI PUSH1 0x0 DUP1 REVERT JUMPDEST POP MLOAD SWAP2 SWAP1 POP JUMP JUMPDEST PUSH1 0x1 DUP1 PUSH1 0xA0 SHL SUB DUP5 AND DUP2 MSTORE DUP3 PUSH1 0x20 DUP3 ADD MSTORE PUSH1 0x60 PUSH1 0x40 DUP3 ADD MSTORE PUSH1 0x0 PUSH2 0x98D PUSH1 0x60 DUP4 ADD DUP5 PUSH2 0x904 JUMP INVALID LOG2 PUSH5 0x6970667358 0x22 SLT KECCAK256 LOG3 LOG0 0x24 SAR 0xA9 EXTCODESIZE MOD 0xE4 PUSH32 0xBD2EDD111A3D0267BACEADA6D707016D19B5C156069F2A64736F6C6343000812 STOP CALLER "},"gasEstimates":{"creation":{"codeDepositCost":"559000","executionCost":"24830","totalCost":"583830"},"external":{"getTokenBalance()":"infinite","mintTokens(int64)":"infinite","mintTokensRaw(uint64)":"infinite","setTokenAddress(address)":"25864","tokenAddress()":"2381"}},"methodIdentifiers":{"getTokenBalance()":"82b2e257","mintTokens(int64)":"b62bca7a","mintTokensRaw(uint64)":"79d2d6d0","setTokenAddress(address)":"26a4e8d2","tokenAddress()":"9d76ea58"}},"storageLayout":{"storage":[{"astId":2477,"contract":"app/contracts/SimpleTokenMinter.sol:SimpleTokenMinter","label":"hts","offset":0,"slot":"0","type":"t_contract(IHederaTokenService)197"},{"astId":2479,"contract":"app/contracts/SimpleTokenMinter.sol:SimpleTokenMinter","label":"tokenAddress","offset":0,"slot":"1","type":"t_address"}],"types":{"t_address":{"encoding":"inplace","label":"address","numberOfBytes":"20"},"t_contract(IHederaTokenService)197":{"encoding":"inplace","label":"contract IHederaTokenService","numberOfBytes":"20"}}},"userdoc":{"kind":"user","methods":{},"version":1}}}}