{"app/contracts/MockHederaTokenService.sol":{"MockHederaTokenService":{"abi":[{"inputs":[],"stateMutability":"nonpayable","type":"constructor"},{"anonymous":false,"inputs":[{"indexed":false,"internalType":"address","name":"token","type":"address"},{"indexed":false,"internalType":"address","name":"account","type":"address"},{"indexed":false,"internalType":"int64","name":"responseCode","type":"int64"}],"name":"TokenAssociated","type":"event"},{"anonymous":false,"inputs":[{"indexed":false,"internalType":"address","name":"tokenAddress","type":"address"},{"indexed":false,"internalType":"int64","name":"responseCode","type":"int64"}],"name":"TokenCreated","type":"event"},{"anonymous":false,"inputs":[{"indexed":false,"internalType":"address","name":"token","type":"address"},{"indexed":false,"internalType":"uint256","name":"amount","type":"uint256"},{"indexed":false,"internalType":"int64","name":"responseCode","type":"int64"}],"name":"TokenMinted","type":"event"},{"anonymous":false,"inputs":[{"indexed":false,"internalType":"address","name":"token","type":"address"},{"indexed":false,"internalType":"address","name":"from","type":"address"},{"indexed":false,"internalType":"address","name":"to","type":"address"},{"indexed":false,"internalType":"uint256","name":"amount","type":"uint256"},{"indexed":false,"internalType":"int64","name":"responseCode","type":"int64"}],"name":"TokenTransferred","type":"event"},{"inputs":[{"internalType":"address","name":"token","type":"address"},{"internalType":"address","name":"owner","type":"address"},{"internalType":"address","name":"spender","type":"address"}],"name":"allowance","outputs":[{"internalType":"uint256","name":"","type":"uint256"}],"stateMutability":"view","type":"function"},{"inputs":[{"internalType":"address","name":"account","type":"address"},{"internalType":"address","name":"token","type":"address"}],"name":"associateToken","outputs":[{"internalType":"int64","name":"","type":"int64"}],"stateMutability":"nonpayable","type":"function"},{"inputs":[{"internalType":"address","name":"token","type":"address"},{"internalType":"address","name":"account","type":"address"}],"name":"balanceOf","outputs":[{"internalType":"uint256","name":"","type":"uint256"}],"stateMutability":"view","type":"function"},{"inputs":[{"internalType":"address","name":"token","type":"address"},{"internalType":"uint256","name":"amount","type":"uint256"},{"internalType":"bytes[]","name":"","type":"bytes[]"}],"name":"burnToken","outputs":[{"internalType":"int64","name":"","type":"int64"}],"stateMutability":"nonpayable","type":"function"},{"inputs":[],"name":"clearTransferResults","outputs":[],"stateMutability":"nonpayable","type":"function"},{"inputs":[{"components":[{"internalType":"string","name":"name","type":"string"},{"internalType":"string","name":"symbol","type":"string"},{"internalType":"address","name":"treasury","type":"address"},{"internalType":"string","name":"memo","type":"string"},{"internalType":"bool","name":"supplyType","type":"bool"},{"internalType":"uint32","name":"maxSupply","type":"uint32"},{"internalType":"bool","name":"freezeDefault","type":"bool"},{"internalType":"address[]","name":"freezeKey","type":"address[]"},{"internalType":"address[]","name":"wipeKey","type":"address[]"},{"internalType":"address[]","name":"supplyKey","type":"address[]"},{"internalType":"address[]","name":"adminKey","type":"address[]"},{"internalType":"address[]","name":"kycKey","type":"address[]"},{"internalType":"uint8","name":"decimals","type":"uint8"},{"internalType":"address","name":"autoRenewAccount","type":"address"},{"internalType":"uint32","name":"autoRenewPeriod","type":"uint32"}],"internalType":"struct IHederaTokenService.HederaToken","name":"token","type":"tuple"},{"internalType":"uint256","name":"initialTotalSupply","type":"uint256"},{"internalType":"uint8[]","name":"keys","type":"uint8[]"},{"internalType":"address[]","name":"keyAddresses","type":"address[]"}],"name":"createToken","outputs":[{"internalType":"int64","name":"responseCode","type":"int64"},{"internalType":"address","name":"tokenAddress","type":"address"}],"stateMutability":"payable","type":"function"},{"inputs":[{"internalType":"address","name":"account","type":"address"},{"internalType":"address","name":"token","type":"address"}],"name":"disassociateToken","outputs":[{"internalType":"int64","name":"","type":"int64"}],"stateMutability":"nonpayable","type":"function"},{"inputs":[{"internalType":"address","name":"tokenAddress","type":"address"}],"name":"getTokenInfo","outputs":[{"components":[{"internalType":"string","name":"name","type":"string"},{"internalType":"string","name":"symbol","type":"string"},{"internalType":"address","name":"treasury","type":"address"},{"internalType":"string","name":"memo","type":"string"},{"internalType":"bool","name":"supplyType","type":"bool"},{"internalType":"uint32","name":"maxSupply","type":"uint32"},{"internalType":"bool","name":"freezeDefault","type":"bool"},{"internalType":"address[]","name":"freezeKey","type":"address[]"},{"internalType":"address[]","name":"wipeKey","type":"address[]"},{"internalType":"address[]","name":"supplyKey","type":"address[]"},{"internalType":"address[]","name":"adminKey","type":"address[]"},{"internalType":"address[]","name":"kycKey","type":"address[]"},{"internalType":"uint8","name":"decimals","type":"uint8"},{"internalType":"address","name":"autoRenewAccount","type":"address"},{"internalType":"uint32","name":"autoRenewPeriod","type":"uint32"}],"internalType":"struct IHederaTokenService.HederaToken","name":"","type":"tuple"}],"stateMutability":"view","type":"function"},{"inputs":[{"internalType":"address","name":"token","type":"address"},{"internalType":"address","name":"account","type":"address"}],"name":"isSupplyKey","outputs":[{"internalType":"bool","name":"","type":"bool"}],"stateMutability":"view","type":"function"},{"inputs":[{"internalType":"address","name":"token","type":"address"},{"internalType":"address","name":"account","type":"address"}],"name":"isTokenAssociated","outputs":[{"internalType":"bool","name":"","type":"bool"}],"stateMutability":"view","type":"function"},{"inputs":[{"internalType":"address","name":"token","type":"address"},{"internalType":"uint256","name":"amount","type":"uint256"},{"internalType":"bytes[]","name":"","type":"bytes[]"}],"name":"mintToken","outputs":[{"internalType":"int64","name":"","type":"int64"}],"stateMutability":"nonpayable","type":"function"},{"inputs":[{"internalType":"address","name":"token","type":"address"},{"internalType":"address","name":"owner","type":"address"},{"internalType":"address","name":"spender","type":"address"},{"internalType":"uint256","name":"amount","type":"uint256"}],"name":"setAllowance","outputs":[],"stateMutability":"nonpayable","type":"function"},{"inputs":[{"internalType":"address","name":"token","type":"address"},{"internalType":"address","name":"account","type":"address"},{"internalType":"uint256","name":"balance","type":"uint256"}],"name":"setBalance","outputs":[],"stateMutability":"nonpayable","type":"function"},{"inputs":[{"internalType":"int64","name":"responseCode","type":"int64"},{"internalType":"address","name":"tokenAddress","type":"address"}],"name":"setMockedCreateTokenResponse","outputs":[],"stateMutability":"nonpayable","type":"function"},{"inputs":[{"internalType":"address","name":"token","type":"address"},{"internalType":"address","name":"holder","type":"address"}],"name":"setSupplyKeyHolder","outputs":[],"stateMutability":"nonpayable","type":"function"},{"inputs":[{"internalType":"address","name":"token","type":"address"},{"internalType":"address","name":"account","type":"address"},{"internalType":"bool","name":"isAssociated","type":"bool"}],"name":"setTokenAssociation","outputs":[],"stateMutability":"nonpayable","type":"function"},{"inputs":[{"internalType":"address","name":"token","type":"address"},{"internalType":"int64","name":"result","type":"int64"}],"name":"setTransferResult","outputs":[],"stateMutability":"nonpayable","type":"function"},{"inputs":[{"internalType":"address","name":"tokenAddress","type":"address"},{"internalType":"address","name":"sauceTokenAddress","type":"address"},{"internalType":"address","name":"clxyTokenAddress","type":"address"},{"internalType":"address","name":"userAddress","type":"address"}],"name":"setupTokens","outputs":[],"stateMutability":"nonpayable","type":"function"},{"inputs":[{"internalType":"address","name":"token","type":"address"},{"internalType":"address","name":"sender","type":"address"},{"internalType":"address","name":"recipient","type":"address"},{"internalType":"uint256","name":"amount","type":"uint256"}],"name":"transferToken","outputs":[{"internalType":"int64","name":"","type":"int64"}],"stateMutability":"nonpayable","type":"function"}],"devdoc":{"details":"Mock implementation of the Hedera Token Service for testing","kind":"dev","methods":{"allowance(address,address,address)":{"details":"Get token allowance"},"associateToken(address,address)":{"details":"Associate a token with an account"},"balanceOf(address,address)":{"details":"Get token balance"},"burnToken(address,uint256,bytes[])":{"details":"Burn tokens"},"clearTransferResults()":{"details":"Clear transfer results (for testing)"},"createToken((string,string,address,string,bool,uint32,bool,address[],address[],address[],address[],address[],uint8,address,uint32),uint256,uint8[],address[])":{"details":"Create a new token"},"disassociateToken(address,address)":{"details":"Disassociate a token from an account"},"getTokenInfo(address)":{"details":"Get token details"},"isSupplyKey(address,address)":{"details":"Check if an account has the supply key for a token"},"isTokenAssociated(address,address)":{"details":"Check if a token is associated with an account"},"mintToken(address,uint256,bytes[])":{"details":"Mint tokens"},"setAllowance(address,address,address,uint256)":{"details":"Set token allowance (for testing)"},"setBalance(address,address,uint256)":{"details":"Set token balance (for testing)"},"setMockedCreateTokenResponse(int64,address)":{"details":"Set the mocked create token response"},"setSupplyKeyHolder(address,address)":{"details":"Set supply key holder for a token"},"setTokenAssociation(address,address,bool)":{"details":"Set token association status (for testing)"},"setTransferResult(address,int64)":{"details":"Set transfer result (for testing)"},"setupTokens(address,address,address,address)":{"details":"Set up test tokens"},"transferToken(address,address,address,uint256)":{"details":"Transfer tokens"}},"title":"MockHederaTokenService","version":1},"evm":{"bytecode":{"linkReferences":{},"object":"608060405234801561001057600080fd5b50600680546001600160e01b0319169055611ee4806100306000396000f3fe6080604052600436106101145760003560e01c8063725fe8a4116100a0578063bed2545611610064578063bed254561461045f578063c097494614610494578063ec12dc021461054f578063f3fc76fa1461056f578063f7888aec1461058f57600080fd5b8063725fe8a414610320578063927da10514610369578063a707037314610397578063ac9e6d7a146103e7578063b5c9cbbe1461042757600080fd5b806323408f4f116100e757806323408f4f1461020c5780632c54de4f146102625780633fda89411461029557806349146bde146102b55780635c34c68a146102d557600080fd5b8063034f1ac2146101195780631957457d1461016c5780631f69565f146101815780632175d776146101b7575b600080fd5b34801561012557600080fd5b5061016a610134366004611370565b600680546001600160a01b03909216600160401b026001600160e01b031990921667ffffffffffffffff90931692909217179055565b005b34801561017857600080fd5b5061016a6105c7565b34801561018d57600080fd5b506101a161019c3660046113a3565b61060f565b6040516101ae9190611448565b60405180910390f35b3480156101c357600080fd5b5061016a6101d23660046115ed565b6001600160a01b03928316600090815260016020908152604080832094909516825292909252919020805460ff1916911515919091179055565b34801561021857600080fd5b5061016a610227366004611630565b6001600160a01b03919091166000908152600460205260409020805467ffffffffffffffff191667ffffffffffffffff909216919091179055565b34801561026e57600080fd5b5061028261027d36600461165a565b610ad5565b60405160079190910b81526020016101ae565b3480156102a157600080fd5b506102826102b03660046116a5565b610bea565b3480156102c157600080fd5b506102826102d03660046116a5565b610c20565b3480156102e157600080fd5b506103106102f03660046116a5565b6001600160a01b031660009081526020819052604090205460ff16919050565b60405190151581526020016101ae565b34801561032c57600080fd5b5061031061033b3660046116a5565b6001600160a01b03918216600090815260016020908152604080832093909416825291909152205460ff1690565b34801561037557600080fd5b506103896103843660046116c1565b610cbb565b6040519081526020016101ae565b3480156103a357600080fd5b5061016a6103b236600461165a565b6001600160a01b0393841660009081526003602090815260408083209587168352948152848220939095168152919093522055565b3480156103f357600080fd5b5061016a6104023660046116a5565b6001600160a01b03166000908152602081905260409020805460ff1916600117905550565b34801561043357600080fd5b5061016a6104423660046116fb565b6001600160a01b0390911660009081526002602052604090205550565b61047261046d36600461193d565b610cf3565b6040805160079390930b83526001600160a01b039091166020830152016101ae565b3480156104a057600080fd5b5061016a6104af366004611b7c565b6001600160a01b03938416600090815260016020818152604080842030808652818452828620805460ff199081168717909155988a16865284845282862081875280855283872080548b1687179055978a16865284845282862090865280845282862080548a1686179055959098168452968152868320805487168317905593845285822080548616821790559190925292902080549091169091179055565b34801561055b57600080fd5b5061028261056a366004611bd0565b611201565b34801561057b57600080fd5b5061028261058a366004611bd0565b61127a565b34801561059b57600080fd5b506103896105aa3660046116a5565b6001600160a01b0316600090815260026020526040902054919050565b60005b606481101561060c576001600160a01b0381166000908152600460205260409020805467ffffffffffffffff191690558061060481611cc9565b9150506105ca565b50565b604080516101e08101825260608082526020820181905260009282018390528082018190526080820183905260a0820183905260c0820183905260e0820181905261010082018190526101208201819052610140820181905261016082015261018081018290526101a081018290526101c08101919091526001600160a01b0382166000908152600560205260409081902081516101e081019092528054829082906106ba90611ce2565b80601f01602080910402602001604051908101604052809291908181526020018280546106e690611ce2565b80156107335780601f1061070857610100808354040283529160200191610733565b820191906000526020600020905b81548152906001019060200180831161071657829003601f168201915b5050505050815260200160018201805461074c90611ce2565b80601f016020809104026020016040519081016040528092919081815260200182805461077890611ce2565b80156107c55780601f1061079a576101008083540402835291602001916107c5565b820191906000526020600020905b8154815290600101906020018083116107a857829003601f168201915b505050918352505060028201546001600160a01b031660208201526003820180546040909201916107f590611ce2565b80601f016020809104026020016040519081016040528092919081815260200182805461082190611ce2565b801561086e5780601f106108435761010080835404028352916020019161086e565b820191906000526020600020905b81548152906001019060200180831161085157829003601f168201915b5050509183525050600482015460ff808216151560208085019190915263ffffffff6101008404166040808601919091526501000000000090930490911615156060840152600584018054835181840281018401909452808452608090940193909183018282801561090957602002820191906000526020600020905b81546001600160a01b031681526001909101906020018083116108eb575b505050505081526020016006820180548060200260200160405190810160405280929190818152602001828054801561096b57602002820191906000526020600020905b81546001600160a01b0316815260019091019060200180831161094d575b50505050508152602001600782018054806020026020016040519081016040528092919081815260200182805480156109cd57602002820191906000526020600020905b81546001600160a01b031681526001909101906020018083116109af575b5050505050815260200160088201805480602002602001604051908101604052809291908181526020018280548015610a2f57602002820191906000526020600020905b81546001600160a01b03168152600190910190602001808311610a11575b5050505050815260200160098201805480602002602001604051908101604052809291908181526020018280548015610a9157602002820191906000526020600020905b81546001600160a01b03168152600190910190602001808311610a73575b5050509183525050600a919091015460ff8116602083015261010081046001600160a01b03166040830152600160a81b900463ffffffff1660609091015292915050565b6001600160a01b03841660009081526004602052604081205460070b8015610afe579050610be2565b6001600160a01b038516600090815260026020526040902054831115610b2957600019915050610be2565b6001600160a01b03851660009081526002602052604081208054859290610b51908490611d1c565b90915550506001600160a01b03841660009081526002602052604081208054859290610b7e908490611d2f565b9091555050604080516001600160a01b0388811682528781166020830152861681830152606081018590526000608082015290517f83d02cf5278a4d35d24e9857c57a4ab914f54fd6e5817b6c9a058ba03bfcbd639181900360a00190a160009150505b949350505050565b6001600160a01b0380821660009081526001602090815260408083209386168352929052908120805460ff191690555b92915050565b6001600160a01b03808216600090815260016020908152604080832093861683529290529081205460ff1615610c595750600019610c1a565b6001600160a01b0380831660009081526001602081815260408084209488168452939052828220805460ff191690911790559051600080516020611e8f83398151915291610caa9185918791611d42565b60405180910390a150600092915050565b6001600160a01b03808416600090815260036020908152604080832086851684528252808320938516835292905220545b9392505050565b600654600090819060070b15610d725760065460408051600160401b83046001600160a01b0316815260079290920b60208301527ff2bd9ee0f805f0400eb427de41ff42ecbb8d13cd293bd1289a6b378532ad5d16910160405180910390a15050600654600781900b90600160401b90046001600160a01b03166111f8565b600654600160401b90046001600160a01b031615610da257600654600160401b90046001600160a01b0316610de3565b604080514260208201526bffffffffffffffffffffffff193360601b16918101919091526054016040516020818303038152906040528051906020012060001c5b6001600160a01b0381166000908152600560205260409020875191925087918190610e0e9082611db8565b5060208201516001820190610e239082611db8565b5060408201516002820180546001600160a01b0319166001600160a01b0390921691909117905560608201516003820190610e5e9082611db8565b50608082015160048201805460a085015160c08601511515650100000000000265ff00000000001963ffffffff9092166101000264ffffffff00199515159590951664ffffffffff1990931692909217939093179290921691909117905560e08201518051610ed79160058401916020909101906112c8565b506101008201518051610ef49160068401916020909101906112c8565b506101208201518051610f119160078401916020909101906112c8565b506101408201518051610f2e9160088401916020909101906112c8565b506101608201518051610f4b9160098401916020909101906112c8565b50610180820151600a9190910180546101a08401516101c09094015160ff9093166001600160a81b0319909116176101006001600160a01b03948516021763ffffffff60a81b1916600160a81b63ffffffff9093169290920291909117905581811660009081526001602081815260408084208b820180519096168552909152808320805460ff191690921790915591519151600080516020611e8f83398151915292610ff9928592611d42565b60405180910390a18415611067576040868101516001600160a01b039081166000908152600260209081528382208990558351928516835282018890528183015290517f076afab2d1434e9659d29a63a3220a98ef8853378959685125f3c66bc4f90b809181900360600190a15b60005b84518110156111005784818151811061108557611085611e78565b602002602001015160ff166004036110ee5760016000808684815181106110ae576110ae611e78565b60200260200101516001600160a01b03166001600160a01b0316815260200190815260200160002060006101000a81548160ff0219169083151502179055505b806110f881611cc9565b91505061106a565b506001600160a01b0381166000908152600160208181526040808420308086529252808420805460ff19169093179092559051600080516020611e8f83398151915292611151928592909190611d42565b60405180910390a16001600160a01b0381166000908152600160208181526040808420338086529252808420805460ff19169093179092559051600080516020611e8f833981519152926111a9928592909190611d42565b60405180910390a1604080516001600160a01b0383168152600060208201527ff2bd9ee0f805f0400eb427de41ff42ecbb8d13cd293bd1289a6b378532ad5d16910160405180910390a1600091505b94509492505050565b33600090815260026020526040812080548491908390611222908490611d2f565b9091555050604080516001600160a01b03861681526020810185905260008183015290517f076afab2d1434e9659d29a63a3220a98ef8853378959685125f3c66bc4f90b809181900360600190a15060009392505050565b3360009081526002602052604081205483111561129a5750600019610cec565b33600090815260026020526040812080548592906112b9908490611d1c565b90915550600095945050505050565b82805482825590600052602060002090810192821561131d579160200282015b8281111561131d57825182546001600160a01b0319166001600160a01b039091161782556020909201916001909101906112e8565b5061132992915061132d565b5090565b5b80821115611329576000815560010161132e565b8035600781900b811461135457600080fd5b919050565b80356001600160a01b038116811461135457600080fd5b6000806040838503121561138357600080fd5b61138c83611342565b915061139a60208401611359565b90509250929050565b6000602082840312156113b557600080fd5b610cec82611359565b6000815180845260005b818110156113e4576020818501810151868301820152016113c8565b506000602082860101526020601f19601f83011685010191505092915050565b600081518084526020808501945080840160005b8381101561143d5781516001600160a01b031687529582019590820190600101611418565b509495945050505050565b60208152600082516101e08060208501526114676102008501836113be565b91506020850151601f198086850301604087015261148584836113be565b9350604087015191506114a360608701836001600160a01b03169052565b60608701519150808685030160808701526114be84836113be565b9350608087015191506114d560a087018315159052565b60a087015163ffffffff811660c0880152915060c087015180151560e0880152915060e087015191506101008187860301818801526115148584611404565b9450808801519250506101208187860301818801526115338584611404565b9450808801519250506101408187860301818801526115528584611404565b9450808801519250506101608187860301818801526115718584611404565b9450808801519250506101808187860301818801526115908584611404565b945080880151925050506101a06115ab8187018360ff169052565b86015190506101c06115c7868201836001600160a01b03169052565b9095015163ffffffff1693019290925250919050565b8035801515811461135457600080fd5b60008060006060848603121561160257600080fd5b61160b84611359565b925061161960208501611359565b9150611627604085016115dd565b90509250925092565b6000806040838503121561164357600080fd5b61164c83611359565b915061139a60208401611342565b6000806000806080858703121561167057600080fd5b61167985611359565b935061168760208601611359565b925061169560408601611359565b9396929550929360600135925050565b600080604083850312156116b857600080fd5b61138c83611359565b6000806000606084860312156116d657600080fd5b6116df84611359565b92506116ed60208501611359565b915061162760408501611359565b60008060006060848603121561171057600080fd5b61171984611359565b925061172760208501611359565b9150604084013590509250925092565b634e487b7160e01b600052604160045260246000fd5b6040516101e0810167ffffffffffffffff8111828210171561177157611771611737565b60405290565b604051601f8201601f1916810167ffffffffffffffff811182821017156117a0576117a0611737565b604052919050565b600067ffffffffffffffff8311156117c2576117c2611737565b6117d5601f8401601f1916602001611777565b90508281528383830111156117e957600080fd5b828260208301376000602084830101529392505050565b600082601f83011261181157600080fd5b610cec838335602085016117a8565b803563ffffffff8116811461135457600080fd5b600067ffffffffffffffff82111561184e5761184e611737565b5060051b60200190565b600082601f83011261186957600080fd5b8135602061187e61187983611834565b611777565b82815260059290921b8401810191818101908684111561189d57600080fd5b8286015b848110156118bf576118b281611359565b83529183019183016118a1565b509695505050505050565b803560ff8116811461135457600080fd5b600082601f8301126118ec57600080fd5b813560206118fc61187983611834565b82815260059290921b8401810191818101908684111561191b57600080fd5b8286015b848110156118bf57611930816118ca565b835291830191830161191f565b6000806000806080858703121561195357600080fd5b843567ffffffffffffffff8082111561196b57600080fd5b908601906101e0828903121561198057600080fd5b61198861174d565b82358281111561199757600080fd5b6119a38a828601611800565b8252506020830135828111156119b857600080fd5b6119c48a828601611800565b6020830152506119d660408401611359565b60408201526060830135828111156119ed57600080fd5b6119f98a828601611800565b606083015250611a0b608084016115dd565b6080820152611a1c60a08401611820565b60a0820152611a2d60c084016115dd565b60c082015260e083013582811115611a4457600080fd5b611a508a828601611858565b60e0830152506101008084013583811115611a6a57600080fd5b611a768b828701611858565b8284015250506101208084013583811115611a9057600080fd5b611a9c8b828701611858565b8284015250506101408084013583811115611ab657600080fd5b611ac28b828701611858565b8284015250506101608084013583811115611adc57600080fd5b611ae88b828701611858565b828401525050610180611afc8185016118ca565b908201526101a0611b0e848201611359565b908201526101c0611b20848201611820565b908201529550602087013594506040870135915080821115611b4157600080fd5b611b4d888389016118db565b93506060870135915080821115611b6357600080fd5b50611b7087828801611858565b91505092959194509250565b60008060008060808587031215611b9257600080fd5b611b9b85611359565b9350611ba960208601611359565b9250611bb760408601611359565b9150611bc560608601611359565b905092959194509250565b600080600060608486031215611be557600080fd5b611bee84611359565b9250602080850135925060408086013567ffffffffffffffff80821115611c1457600080fd5b818801915088601f830112611c2857600080fd5b8135611c3661187982611834565b81815260059190911b8301850190858101908b831115611c5557600080fd5b8685015b83811015611ca157803585811115611c715760008081fd5b8601603f81018e13611c835760008081fd5b611c938e8a8301358a84016117a8565b845250918701918701611c59565b50809750505050505050509250925092565b634e487b7160e01b600052601160045260246000fd5b600060018201611cdb57611cdb611cb3565b5060010190565b600181811c90821680611cf657607f821691505b602082108103611d1657634e487b7160e01b600052602260045260246000fd5b50919050565b81810381811115610c1a57610c1a611cb3565b80820180821115610c1a57610c1a611cb3565b6001600160a01b03938416815291909216602082015260079190910b604082015260600190565b601f821115611db357600081815260208120601f850160051c81016020861015611d905750805b601f850160051c820191505b81811015611daf57828155600101611d9c565b5050505b505050565b815167ffffffffffffffff811115611dd257611dd2611737565b611de681611de08454611ce2565b84611d69565b602080601f831160018114611e1b5760008415611e035750858301515b600019600386901b1c1916600185901b178555611daf565b600085815260208120601f198616915b82811015611e4a57888601518255948401946001909101908401611e2b565b5085821015611e685787850151600019600388901b60f8161c191681555b5050505050600190811b01905550565b634e487b7160e01b600052603260045260246000fdfeb73c45028e15765b57e1aa21b09d3aa6a33894ea5278e1d103363f984b3a2447a26469706673582212207c9edbccfd2aef7359d46eef7ee084c07942b51d0170f85ad80962169dae621264736f6c63430008120033","opcodes":"PUSH1 0x80 PUSH1 0x40 MSTORE CALLVALUE DUP1 ISZERO PUSH2 0x10 JUMPI PUSH1 0x0 DUP1 REVERT JUMPDEST POP PUSH1 0x6 DUP1 SLOAD PUSH1 0x1 PUSH1 0x1 PUSH1 0xE0 SHL SUB NOT AND SWAP1 SSTORE PUSH2 0x1EE4 DUP1 PUSH2 0x30 PUSH1 0x0 CODECOPY PUSH1 0x0 RETURN INVALID PUSH1 0x80 PUSH1 0x40 MSTORE PUSH1 0x4 CALLDATASIZE LT PUSH2 0x114 JUMPI PUSH1 0x0 CALLDATALOAD PUSH1 0xE0 SHR DUP1 PUSH4 0x725FE8A4 GT PUSH2 0xA0 JUMPI DUP1 PUSH4 0xBED25456 GT PUSH2 0x64 JUMPI DUP1 PUSH4 0xBED25456 EQ PUSH2 0x45F JUMPI DUP1 PUSH4 0xC0974946 EQ PUSH2 0x494 JUMPI DUP1 PUSH4 0xEC12DC02 EQ PUSH2 0x54F JUMPI DUP1 PUSH4 0xF3FC76FA EQ PUSH2 0x56F JUMPI DUP1 PUSH4 0xF7888AEC EQ PUSH2 0x58F JUMPI PUSH1 0x0 DUP1 REVERT JUMPDEST DUP1 PUSH4 0x725FE8A4 EQ PUSH2 0x320 JUMPI DUP1 PUSH4 0x927DA105 EQ PUSH2 0x369 JUMPI DUP1 PUSH4 0xA7070373 EQ PUSH2 0x397 JUMPI DUP1 PUSH4 0xAC9E6D7A EQ PUSH2 0x3E7 JUMPI DUP1 PUSH4 0xB5C9CBBE EQ PUSH2 0x427 JUMPI PUSH1 0x0 DUP1 REVERT JUMPDEST DUP1 PUSH4 0x23408F4F GT PUSH2 0xE7 JUMPI DUP1 PUSH4 0x23408F4F EQ PUSH2 0x20C JUMPI DUP1 PUSH4 0x2C54DE4F EQ PUSH2 0x262 JUMPI DUP1 PUSH4 0x3FDA8941 EQ PUSH2 0x295 JUMPI DUP1 PUSH4 0x49146BDE EQ PUSH2 0x2B5 JUMPI DUP1 PUSH4 0x5C34C68A EQ PUSH2 0x2D5 JUMPI PUSH1 0x0 DUP1 REVERT JUMPDEST DUP1 PUSH4 0x34F1AC2 EQ PUSH2 0x119 JUMPI DUP1 PUSH4 0x1957457D EQ PUSH2 0x16C JUMPI DUP1 PUSH4 0x1F69565F EQ PUSH2 0x181 JUMPI DUP1 PUSH4 0x2175D776 EQ PUSH2 0x1B7 JUMPI JUMPDEST PUSH1 0x0 DUP1 REVERT JUMPDEST CALLVALUE DUP1 ISZERO PUSH2 0x125 JUMPI PUSH1 0x0 DUP1 REVERT JUMPDEST POP PUSH2 0x16A PUSH2 0x134 CALLDATASIZE PUSH1 0x4 PUSH2 0x1370 JUMP JUMPDEST PUSH1 0x6 DUP1 SLOAD PUSH1 0x1 PUSH1 0x1 PUSH1 0xA0 SHL SUB SWAP1 SWAP3 AND PUSH1 0x1 PUSH1 0x40 SHL MUL PUSH1 0x1 PUSH1 0x1 PUSH1 0xE0 SHL SUB NOT SWAP1 SWAP3 AND PUSH8 0xFFFFFFFFFFFFFFFF SWAP1 SWAP4 AND SWAP3 SWAP1 SWAP3 OR OR SWAP1 SSTORE JUMP JUMPDEST STOP JUMPDEST CALLVALUE DUP1 ISZERO PUSH2 0x178 JUMPI PUSH1 0x0 DUP1 REVERT JUMPDEST POP PUSH2 0x16A PUSH2 0x5C7 JUMP JUMPDEST CALLVALUE DUP1 ISZERO PUSH2 0x18D JUMPI PUSH1 0x0 DUP1 REVERT JUMPDEST POP PUSH2 0x1A1 PUSH2 0x19C CALLDATASIZE PUSH1 0x4 PUSH2 0x13A3 JUMP JUMPDEST PUSH2 0x60F JUMP JUMPDEST PUSH1 0x40 MLOAD PUSH2 0x1AE SWAP2 SWAP1 PUSH2 0x1448 JUMP JUMPDEST PUSH1 0x40 MLOAD DUP1 SWAP2 SUB SWAP1 RETURN JUMPDEST CALLVALUE DUP1 ISZERO PUSH2 0x1C3 JUMPI PUSH1 0x0 DUP1 REVERT JUMPDEST POP PUSH2 0x16A PUSH2 0x1D2 CALLDATASIZE PUSH1 0x4 PUSH2 0x15ED JUMP JUMPDEST PUSH1 0x1 PUSH1 0x1 PUSH1 0xA0 SHL SUB SWAP3 DUP4 AND PUSH1 0x0 SWAP1 DUP2 MSTORE PUSH1 0x1 PUSH1 0x20 SWAP1 DUP2 MSTORE PUSH1 0x40 DUP1 DUP4 KECCAK256 SWAP5 SWAP1 SWAP6 AND DUP3 MSTORE SWAP3 SWAP1 SWAP3 MSTORE SWAP2 SWAP1 KECCAK256 DUP1 SLOAD PUSH1 0xFF NOT AND SWAP2 ISZERO ISZERO SWAP2 SWAP1 SWAP2 OR SWAP1 SSTORE JUMP JUMPDEST CALLVALUE DUP1 ISZERO PUSH2 0x218 JUMPI PUSH1 0x0 DUP1 REVERT JUMPDEST POP PUSH2 0x16A PUSH2 0x227 CALLDATASIZE PUSH1 0x4 PUSH2 0x1630 JUMP JUMPDEST PUSH1 0x1 PUSH1 0x1 PUSH1 0xA0 SHL SUB SWAP2 SWAP1 SWAP2 AND PUSH1 0x0 SWAP1 DUP2 MSTORE PUSH1 0x4 PUSH1 0x20 MSTORE PUSH1 0x40 SWAP1 KECCAK256 DUP1 SLOAD PUSH8 0xFFFFFFFFFFFFFFFF NOT AND PUSH8 0xFFFFFFFFFFFFFFFF SWAP1 SWAP3 AND SWAP2 SWAP1 SWAP2 OR SWAP1 SSTORE JUMP JUMPDEST CALLVALUE DUP1 ISZERO PUSH2 0x26E JUMPI PUSH1 0x0 DUP1 REVERT JUMPDEST POP PUSH2 0x282 PUSH2 0x27D CALLDATASIZE PUSH1 0x4 PUSH2 0x165A JUMP JUMPDEST PUSH2 0xAD5 JUMP JUMPDEST PUSH1 0x40 MLOAD PUSH1 0x7 SWAP2 SWAP1 SWAP2 SIGNEXTEND DUP2 MSTORE PUSH1 0x20 ADD PUSH2 0x1AE JUMP JUMPDEST CALLVALUE DUP1 ISZERO PUSH2 0x2A1 JUMPI PUSH1 0x0 DUP1 REVERT JUMPDEST POP PUSH2 0x282 PUSH2 0x2B0 CALLDATASIZE PUSH1 0x4 PUSH2 0x16A5 JUMP JUMPDEST PUSH2 0xBEA JUMP JUMPDEST CALLVALUE DUP1 ISZERO PUSH2 0x2C1 JUMPI PUSH1 0x0 DUP1 REVERT JUMPDEST POP PUSH2 0x282 PUSH2 0x2D0 CALLDATASIZE PUSH1 0x4 PUSH2 0x16A5 JUMP JUMPDEST PUSH2 0xC20 JUMP JUMPDEST CALLVALUE DUP1 ISZERO PUSH2 0x2E1 JUMPI PUSH1 0x0 DUP1 REVERT JUMPDEST POP PUSH2 0x310 PUSH2 0x2F0 CALLDATASIZE PUSH1 0x4 PUSH2 0x16A5 JUMP JUMPDEST PUSH1 0x1 PUSH1 0x1 PUSH1 0xA0 SHL SUB AND PUSH1 0x0 SWAP1 DUP2 MSTORE PUSH1 0x20 DUP2 SWAP1 MSTORE PUSH1 0x40 SWAP1 KECCAK256 SLOAD PUSH1 0xFF AND SWAP2 SWAP1 POP JUMP JUMPDEST PUSH1 0x40 MLOAD SWAP1 ISZERO ISZERO DUP2 MSTORE PUSH1 0x20 ADD PUSH2 0x1AE JUMP JUMPDEST CALLVALUE DUP1 ISZERO PUSH2 0x32C JUMPI PUSH1 0x0 DUP1 REVERT JUMPDEST POP PUSH2 0x310 PUSH2 0x33B CALLDATASIZE PUSH1 0x4 PUSH2 0x16A5 JUMP JUMPDEST PUSH1 0x1 PUSH1 0x1 PUSH1 0xA0 SHL SUB SWAP2 DUP3 AND PUSH1 0x0 SWAP1 DUP2 MSTORE PUSH1 0x1 PUSH1 0x20 SWAP1 DUP2 MSTORE PUSH1 0x40 DUP1 DUP4 KECCAK256 SWAP4 SWAP1 SWAP5 AND DUP3 MSTORE SWAP2 SWAP1 SWAP2 MSTORE KECCAK256 SLOAD PUSH1 0xFF AND SWAP1 JUMP JUMPDEST CALLVALUE DUP1 ISZERO PUSH2 0x375 JUMPI PUSH1 0x0 DUP1 REVERT JUMPDEST POP PUSH2 0x389 PUSH2 0x384 CALLDATASIZE PUSH1 0x4 PUSH2 0x16C1 JUMP JUMPDEST PUSH2 0xCBB JUMP JUMPDEST PUSH1 0x40 MLOAD SWAP1 DUP2 MSTORE PUSH1 0x20 ADD PUSH2 0x1AE JUMP JUMPDEST CALLVALUE DUP1 ISZERO PUSH2 0x3A3 JUMPI PUSH1 0x0 DUP1 REVERT JUMPDEST POP PUSH2 0x16A PUSH2 0x3B2 CALLDATASIZE PUSH1 0x4 PUSH2 0x165A JUMP JUMPDEST PUSH1 0x1 PUSH1 0x1 PUSH1 0xA0 SHL SUB SWAP4 DUP5 AND PUSH1 0x0 SWAP1 DUP2 MSTORE PUSH1 0x3 PUSH1 0x20 SWAP1 DUP2 MSTORE PUSH1 0x40 DUP1 DUP4 KECCAK256 SWAP6 DUP8 AND DUP4 MSTORE SWAP5 DUP2 MSTORE DUP5 DUP3 KECCAK256 SWAP4 SWAP1 SWAP6 AND DUP2 MSTORE SWAP2 SWAP1 SWAP4 MSTORE KECCAK256 SSTORE JUMP JUMPDEST CALLVALUE DUP1 ISZERO PUSH2 0x3F3 JUMPI PUSH1 0x0 DUP1 REVERT JUMPDEST POP PUSH2 0x16A PUSH2 0x402 CALLDATASIZE PUSH1 0x4 PUSH2 0x16A5 JUMP JUMPDEST PUSH1 0x1 PUSH1 0x1 PUSH1 0xA0 SHL SUB AND PUSH1 0x0 SWAP1 DUP2 MSTORE PUSH1 0x20 DUP2 SWAP1 MSTORE PUSH1 0x40 SWAP1 KECCAK256 DUP1 SLOAD PUSH1 0xFF NOT AND PUSH1 0x1 OR SWAP1 SSTORE POP JUMP JUMPDEST CALLVALUE DUP1 ISZERO PUSH2 0x433 JUMPI PUSH1 0x0 DUP1 REVERT JUMPDEST POP PUSH2 0x16A PUSH2 0x442 CALLDATASIZE PUSH1 0x4 PUSH2 0x16FB JUMP JUMPDEST PUSH1 0x1 PUSH1 0x1 PUSH1 0xA0 SHL SUB SWAP1 SWAP2 AND PUSH1 0x0 SWAP1 DUP2 MSTORE PUSH1 0x2 PUSH1 0x20 MSTORE PUSH1 0x40 SWAP1 KECCAK256 SSTORE POP JUMP JUMPDEST PUSH2 0x472 PUSH2 0x46D CALLDATASIZE PUSH1 0x4 PUSH2 0x193D JUMP JUMPDEST PUSH2 0xCF3 JUMP JUMPDEST PUSH1 0x40 DUP1 MLOAD PUSH1 0x7 SWAP4 SWAP1 SWAP4 SIGNEXTEND DUP4 MSTORE PUSH1 0x1 PUSH1 0x1 PUSH1 0xA0 SHL SUB SWAP1 SWAP2 AND PUSH1 0x20 DUP4 ADD MSTORE ADD PUSH2 0x1AE JUMP JUMPDEST CALLVALUE DUP1 ISZERO PUSH2 0x4A0 JUMPI PUSH1 0x0 DUP1 REVERT JUMPDEST POP PUSH2 0x16A PUSH2 0x4AF CALLDATASIZE PUSH1 0x4 PUSH2 0x1B7C JUMP JUMPDEST PUSH1 0x1 PUSH1 0x1 PUSH1 0xA0 SHL SUB SWAP4 DUP5 AND PUSH1 0x0 SWAP1 DUP2 MSTORE PUSH1 0x1 PUSH1 0x20 DUP2 DUP2 MSTORE PUSH1 0x40 DUP1 DUP5 KECCAK256 ADDRESS DUP1 DUP7 MSTORE DUP2 DUP5 MSTORE DUP3 DUP7 KECCAK256 DUP1 SLOAD PUSH1 0xFF NOT SWAP1 DUP2 AND DUP8 OR SWAP1 SWAP2 SSTORE SWAP9 DUP11 AND DUP7 MSTORE DUP5 DUP5 MSTORE DUP3 DUP7 KECCAK256 DUP2 DUP8 MSTORE DUP1 DUP6 MSTORE DUP4 DUP8 KECCAK256 DUP1 SLOAD DUP12 AND DUP8 OR SWAP1 SSTORE SWAP8 DUP11 AND DUP7 MSTORE DUP5 DUP5 MSTORE DUP3 DUP7 KECCAK256 SWAP1 DUP7 MSTORE DUP1 DUP5 MSTORE DUP3 DUP7 KECCAK256 DUP1 SLOAD DUP11 AND DUP7 OR SWAP1 SSTORE SWAP6 SWAP1 SWAP9 AND DUP5 MSTORE SWAP7 DUP2 MSTORE DUP7 DUP4 KECCAK256 DUP1 SLOAD DUP8 AND DUP4 OR SWAP1 SSTORE SWAP4 DUP5 MSTORE DUP6 DUP3 KECCAK256 DUP1 SLOAD DUP7 AND DUP3 OR SWAP1 SSTORE SWAP2 SWAP1 SWAP3 MSTORE SWAP3 SWAP1 KECCAK256 DUP1 SLOAD SWAP1 SWAP2 AND SWAP1 SWAP2 OR SWAP1 SSTORE JUMP JUMPDEST CALLVALUE DUP1 ISZERO PUSH2 0x55B JUMPI PUSH1 0x0 DUP1 REVERT JUMPDEST POP PUSH2 0x282 PUSH2 0x56A CALLDATASIZE PUSH1 0x4 PUSH2 0x1BD0 JUMP JUMPDEST PUSH2 0x1201 JUMP JUMPDEST CALLVALUE DUP1 ISZERO PUSH2 0x57B JUMPI PUSH1 0x0 DUP1 REVERT JUMPDEST POP PUSH2 0x282 PUSH2 0x58A CALLDATASIZE PUSH1 0x4 PUSH2 0x1BD0 JUMP JUMPDEST PUSH2 0x127A JUMP JUMPDEST CALLVALUE DUP1 ISZERO PUSH2 0x59B JUMPI PUSH1 0x0 DUP1 REVERT JUMPDEST POP PUSH2 0x389 PUSH2 0x5AA CALLDATASIZE PUSH1 0x4 PUSH2 0x16A5 JUMP JUMPDEST PUSH1 0x1 PUSH1 0x1 PUSH1 0xA0 SHL SUB AND PUSH1 0x0 SWAP1 DUP2 MSTORE PUSH1 0x2 PUSH1 0x20 MSTORE PUSH1 0x40 SWAP1 KECCAK256 SLOAD SWAP2 SWAP1 POP JUMP JUMPDEST PUSH1 0x0 JUMPDEST PUSH1 0x64 DUP2 LT ISZERO PUSH2 0x60C JUMPI PUSH1 0x1 PUSH1 0x1 PUSH1 0xA0 SHL SUB DUP2 AND PUSH1 0x0 SWAP1 DUP2 MSTORE PUSH1 0x4 PUSH1 0x20 MSTORE PUSH1 0x40 SWAP1 KECCAK256 DUP1 SLOAD PUSH8 0xFFFFFFFFFFFFFFFF NOT AND SWAP1 SSTORE DUP1 PUSH2 0x604 DUP2 PUSH2 0x1CC9 JUMP JUMPDEST SWAP2 POP POP PUSH2 0x5CA JUMP JUMPDEST POP JUMP JUMPDEST PUSH1 0x40 DUP1 MLOAD PUSH2 0x1E0 DUP2 ADD DUP3 MSTORE PUSH1 0x60 DUP1 DUP3 MSTORE PUSH1 0x20 DUP3 ADD DUP2 SWAP1 MSTORE PUSH1 0x0 SWAP3 DUP3 ADD DUP4 SWAP1 MSTORE DUP1 DUP3 ADD DUP2 SWAP1 MSTORE PUSH1 0x80 DUP3 ADD DUP4 SWAP1 MSTORE PUSH1 0xA0 DUP3 ADD DUP4 SWAP1 MSTORE PUSH1 0xC0 DUP3 ADD DUP4 SWAP1 MSTORE PUSH1 0xE0 DUP3 ADD DUP2 SWAP1 MSTORE PUSH2 0x100 DUP3 ADD DUP2 SWAP1 MSTORE PUSH2 0x120 DUP3 ADD DUP2 SWAP1 MSTORE PUSH2 0x140 DUP3 ADD DUP2 SWAP1 MSTORE PUSH2 0x160 DUP3 ADD MSTORE PUSH2 0x180 DUP2 ADD DUP3 SWAP1 MSTORE PUSH2 0x1A0 DUP2 ADD DUP3 SWAP1 MSTORE PUSH2 0x1C0 DUP2 ADD SWAP2 SWAP1 SWAP2 MSTORE PUSH1 0x1 PUSH1 0x1 PUSH1 0xA0 SHL SUB DUP3 AND PUSH1 0x0 SWAP1 DUP2 MSTORE PUSH1 0x5 PUSH1 0x20 MSTORE PUSH1 0x40 SWAP1 DUP2 SWAP1 KECCAK256 DUP2 MLOAD PUSH2 0x1E0 DUP2 ADD SWAP1 SWAP3 MSTORE DUP1 SLOAD DUP3 SWAP1 DUP3 SWAP1 PUSH2 0x6BA SWAP1 PUSH2 0x1CE2 JUMP JUMPDEST DUP1 PUSH1 0x1F ADD PUSH1 0x20 DUP1 SWAP2 DIV MUL PUSH1 0x20 ADD PUSH1 0x40 MLOAD SWAP1 DUP2 ADD PUSH1 0x40 MSTORE DUP1 SWAP3 SWAP2 SWAP1 DUP2 DUP2 MSTORE PUSH1 0x20 ADD DUP3 DUP1 SLOAD PUSH2 0x6E6 SWAP1 PUSH2 0x1CE2 JUMP JUMPDEST DUP1 ISZERO PUSH2 0x733 JUMPI DUP1 PUSH1 0x1F LT PUSH2 0x708 JUMPI PUSH2 0x100 DUP1 DUP4 SLOAD DIV MUL DUP4 MSTORE SWAP2 PUSH1 0x20 ADD SWAP2 PUSH2 0x733 JUMP JUMPDEST DUP3 ADD SWAP2 SWAP1 PUSH1 0x0 MSTORE PUSH1 0x20 PUSH1 0x0 KECCAK256 SWAP1 JUMPDEST DUP2 SLOAD DUP2 MSTORE SWAP1 PUSH1 0x1 ADD SWAP1 PUSH1 0x20 ADD DUP1 DUP4 GT PUSH2 0x716 JUMPI DUP3 SWAP1 SUB PUSH1 0x1F AND DUP3 ADD SWAP2 JUMPDEST POP POP POP POP POP DUP2 MSTORE PUSH1 0x20 ADD PUSH1 0x1 DUP3 ADD DUP1 SLOAD PUSH2 0x74C SWAP1 PUSH2 0x1CE2 JUMP JUMPDEST DUP1 PUSH1 0x1F ADD PUSH1 0x20 DUP1 SWAP2 DIV MUL PUSH1 0x20 ADD PUSH1 0x40 MLOAD SWAP1 DUP2 ADD PUSH1 0x40 MSTORE DUP1 SWAP3 SWAP2 SWAP1 DUP2 DUP2 MSTORE PUSH1 0x20 ADD DUP3 DUP1 SLOAD PUSH2 0x778 SWAP1 PUSH2 0x1CE2 JUMP JUMPDEST DUP1 ISZERO PUSH2 0x7C5 JUMPI DUP1 PUSH1 0x1F LT PUSH2 0x79A JUMPI PUSH2 0x100 DUP1 DUP4 SLOAD DIV MUL DUP4 MSTORE SWAP2 PUSH1 0x20 ADD SWAP2 PUSH2 0x7C5 JUMP JUMPDEST DUP3 ADD SWAP2 SWAP1 PUSH1 0x0 MSTORE PUSH1 0x20 PUSH1 0x0 KECCAK256 SWAP1 JUMPDEST DUP2 SLOAD DUP2 MSTORE SWAP1 PUSH1 0x1 ADD SWAP1 PUSH1 0x20 ADD DUP1 DUP4 GT PUSH2 0x7A8 JUMPI DUP3 SWAP1 SUB PUSH1 0x1F AND DUP3 ADD SWAP2 JUMPDEST POP POP POP SWAP2 DUP4 MSTORE POP POP PUSH1 0x2 DUP3 ADD SLOAD PUSH1 0x1 PUSH1 0x1 PUSH1 0xA0 SHL SUB AND PUSH1 0x20 DUP3 ADD MSTORE PUSH1 0x3 DUP3 ADD DUP1 SLOAD PUSH1 0x40 SWAP1 SWAP3 ADD SWAP2 PUSH2 0x7F5 SWAP1 PUSH2 0x1CE2 JUMP JUMPDEST DUP1 PUSH1 0x1F ADD PUSH1 0x20 DUP1 SWAP2 DIV MUL PUSH1 0x20 ADD PUSH1 0x40 MLOAD SWAP1 DUP2 ADD PUSH1 0x40 MSTORE DUP1 SWAP3 SWAP2 SWAP1 DUP2 DUP2 MSTORE PUSH1 0x20 ADD DUP3 DUP1 SLOAD PUSH2 0x821 SWAP1 PUSH2 0x1CE2 JUMP JUMPDEST DUP1 ISZERO PUSH2 0x86E JUMPI DUP1 PUSH1 0x1F LT PUSH2 0x843 JUMPI PUSH2 0x100 DUP1 DUP4 SLOAD DIV MUL DUP4 MSTORE SWAP2 PUSH1 0x20 ADD SWAP2 PUSH2 0x86E JUMP JUMPDEST DUP3 ADD SWAP2 SWAP1 PUSH1 0x0 MSTORE PUSH1 0x20 PUSH1 0x0 KECCAK256 SWAP1 JUMPDEST DUP2 SLOAD DUP2 MSTORE SWAP1 PUSH1 0x1 ADD SWAP1 PUSH1 0x20 ADD DUP1 DUP4 GT PUSH2 0x851 JUMPI DUP3 SWAP1 SUB PUSH1 0x1F AND DUP3 ADD SWAP2 JUMPDEST POP POP POP SWAP2 DUP4 MSTORE POP POP PUSH1 0x4 DUP3 ADD SLOAD PUSH1 0xFF DUP1 DUP3 AND ISZERO ISZERO PUSH1 0x20 DUP1 DUP6 ADD SWAP2 SWAP1 SWAP2 MSTORE PUSH4 0xFFFFFFFF PUSH2 0x100 DUP5 DIV AND PUSH1 0x40 DUP1 DUP7 ADD SWAP2 SWAP1 SWAP2 MSTORE PUSH6 0x10000000000 SWAP1 SWAP4 DIV SWAP1 SWAP2 AND ISZERO ISZERO PUSH1 0x60 DUP5 ADD MSTORE PUSH1 0x5 DUP5 ADD DUP1 SLOAD DUP4 MLOAD DUP2 DUP5 MUL DUP2 ADD DUP5 ADD SWAP1 SWAP5 MSTORE DUP1 DUP5 MSTORE PUSH1 0x80 SWAP1 SWAP5 ADD SWAP4 SWAP1 SWAP2 DUP4 ADD DUP3 DUP3 DUP1 ISZERO PUSH2 0x909 JUMPI PUSH1 0x20 MUL DUP3 ADD SWAP2 SWAP1 PUSH1 0x0 MSTORE PUSH1 0x20 PUSH1 0x0 KECCAK256 SWAP1 JUMPDEST DUP2 SLOAD PUSH1 0x1 PUSH1 0x1 PUSH1 0xA0 SHL SUB AND DUP2 MSTORE PUSH1 0x1 SWAP1 SWAP2 ADD SWAP1 PUSH1 0x20 ADD DUP1 DUP4 GT PUSH2 0x8EB JUMPI JUMPDEST POP POP POP POP POP DUP2 MSTORE PUSH1 0x20 ADD PUSH1 0x6 DUP3 ADD DUP1 SLOAD DUP1 PUSH1 0x20 MUL PUSH1 0x20 ADD PUSH1 0x40 MLOAD SWAP1 DUP2 ADD PUSH1 0x40 MSTORE DUP1 SWAP3 SWAP2 SWAP1 DUP2 DUP2 MSTORE PUSH1 0x20 ADD DUP3 DUP1 SLOAD DUP1 ISZERO PUSH2 0x96B JUMPI PUSH1 0x20 MUL DUP3 ADD SWAP2 SWAP1 PUSH1 0x0 MSTORE PUSH1 0x20 PUSH1 0x0 KECCAK256 SWAP1 JUMPDEST DUP2 SLOAD PUSH1 0x1 PUSH1 0x1 PUSH1 0xA0 SHL SUB AND DUP2 MSTORE PUSH1 0x1 SWAP1 SWAP2 ADD SWAP1 PUSH1 0x20 ADD DUP1 DUP4 GT PUSH2 0x94D JUMPI JUMPDEST POP POP POP POP POP DUP2 MSTORE PUSH1 0x20 ADD PUSH1 0x7 DUP3 ADD DUP1 SLOAD DUP1 PUSH1 0x20 MUL PUSH1 0x20 ADD PUSH1 0x40 MLOAD SWAP1 DUP2 ADD PUSH1 0x40 MSTORE DUP1 SWAP3 SWAP2 SWAP1 DUP2 DUP2 MSTORE PUSH1 0x20 ADD DUP3 DUP1 SLOAD DUP1 ISZERO PUSH2 0x9CD JUMPI PUSH1 0x20 MUL DUP3 ADD SWAP2 SWAP1 PUSH1 0x0 MSTORE PUSH1 0x20 PUSH1 0x0 KECCAK256 SWAP1 JUMPDEST DUP2 SLOAD PUSH1 0x1 PUSH1 0x1 PUSH1 0xA0 SHL SUB AND DUP2 MSTORE PUSH1 0x1 SWAP1 SWAP2 ADD SWAP1 PUSH1 0x20 ADD DUP1 DUP4 GT PUSH2 0x9AF JUMPI JUMPDEST POP POP POP POP POP DUP2 MSTORE PUSH1 0x20 ADD PUSH1 0x8 DUP3 ADD DUP1 SLOAD DUP1 PUSH1 0x20 MUL PUSH1 0x20 ADD PUSH1 0x40 MLOAD SWAP1 DUP2 ADD PUSH1 0x40 MSTORE DUP1 SWAP3 SWAP2 SWAP1 DUP2 DUP2 MSTORE PUSH1 0x20 ADD DUP3 DUP1 SLOAD DUP1 ISZERO PUSH2 0xA2F JUMPI PUSH1 0x20 MUL DUP3 ADD SWAP2 SWAP1 PUSH1 0x0 MSTORE PUSH1 0x20 PUSH1 0x0 KECCAK256 SWAP1 JUMPDEST DUP2 SLOAD PUSH1 0x1 PUSH1 0x1 PUSH1 0xA0 SHL SUB AND DUP2 MSTORE PUSH1 0x1 SWAP1 SWAP2 ADD SWAP1 PUSH1 0x20 ADD DUP1 DUP4 GT PUSH2 0xA11 JUMPI JUMPDEST POP POP POP POP POP DUP2 MSTORE PUSH1 0x20 ADD PUSH1 0x9 DUP3 ADD DUP1 SLOAD DUP1 PUSH1 0x20 MUL PUSH1 0x20 ADD PUSH1 0x40 MLOAD SWAP1 DUP2 ADD PUSH1 0x40 MSTORE DUP1 SWAP3 SWAP2 SWAP1 DUP2 DUP2 MSTORE PUSH1 0x20 ADD DUP3 DUP1 SLOAD DUP1 ISZERO PUSH2 0xA91 JUMPI PUSH1 0x20 MUL DUP3 ADD SWAP2 SWAP1 PUSH1 0x0 MSTORE PUSH1 0x20 PUSH1 0x0 KECCAK256 SWAP1 JUMPDEST DUP2 SLOAD PUSH1 0x1 PUSH1 0x1 PUSH1 0xA0 SHL SUB AND DUP2 MSTORE PUSH1 0x1 SWAP1 SWAP2 ADD SWAP1 PUSH1 0x20 ADD DUP1 DUP4 GT PUSH2 0xA73 JUMPI JUMPDEST POP POP POP SWAP2 DUP4 MSTORE POP POP PUSH1 0xA SWAP2 SWAP1 SWAP2 ADD SLOAD PUSH1 0xFF DUP2 AND PUSH1 0x20 DUP4 ADD MSTORE PUSH2 0x100 DUP2 DIV PUSH1 0x1 PUSH1 0x1 PUSH1 0xA0 SHL SUB AND PUSH1 0x40 DUP4 ADD MSTORE PUSH1 0x1 PUSH1 0xA8 SHL SWAP1 DIV PUSH4 0xFFFFFFFF AND PUSH1 0x60 SWAP1 SWAP2 ADD MSTORE SWAP3 SWAP2 POP POP JUMP JUMPDEST PUSH1 0x1 PUSH1 0x1 PUSH1 0xA0 SHL SUB DUP5 AND PUSH1 0x0 SWAP1 DUP2 MSTORE PUSH1 0x4 PUSH1 0x20 MSTORE PUSH1 0x40 DUP2 KECCAK256 SLOAD PUSH1 0x7 SIGNEXTEND DUP1 ISZERO PUSH2 0xAFE JUMPI SWAP1 POP PUSH2 0xBE2 JUMP JUMPDEST PUSH1 0x1 PUSH1 0x1 PUSH1 0xA0 SHL SUB DUP6 AND PUSH1 0x0 SWAP1 DUP2 MSTORE PUSH1 0x2 PUSH1 0x20 MSTORE PUSH1 0x40 SWAP1 KECCAK256 SLOAD DUP4 GT ISZERO PUSH2 0xB29 JUMPI PUSH1 0x0 NOT SWAP2 POP POP PUSH2 0xBE2 JUMP JUMPDEST PUSH1 0x1 PUSH1 0x1 PUSH1 0xA0 SHL SUB DUP6 AND PUSH1 0x0 SWAP1 DUP2 MSTORE PUSH1 0x2 PUSH1 0x20 MSTORE PUSH1 0x40 DUP2 KECCAK256 DUP1 SLOAD DUP6 SWAP3 SWAP1 PUSH2 0xB51 SWAP1 DUP5 SWAP1 PUSH2 0x1D1C JUMP JUMPDEST SWAP1 SWAP2 SSTORE POP POP PUSH1 0x1 PUSH1 0x1 PUSH1 0xA0 SHL SUB DUP5 AND PUSH1 0x0 SWAP1 DUP2 MSTORE PUSH1 0x2 PUSH1 0x20 MSTORE PUSH1 0x40 DUP2 KECCAK256 DUP1 SLOAD DUP6 SWAP3 SWAP1 PUSH2 0xB7E SWAP1 DUP5 SWAP1 PUSH2 0x1D2F JUMP JUMPDEST SWAP1 SWAP2 SSTORE POP POP PUSH1 0x40 DUP1 MLOAD PUSH1 0x1 PUSH1 0x1 PUSH1 0xA0 SHL SUB DUP9 DUP2 AND DUP3 MSTORE DUP8 DUP2 AND PUSH1 0x20 DUP4 ADD MSTORE DUP7 AND DUP2 DUP4 ADD MSTORE PUSH1 0x60 DUP2 ADD DUP6 SWAP1 MSTORE PUSH1 0x0 PUSH1 0x80 DUP3 ADD MSTORE SWAP1 MLOAD PUSH32 0x83D02CF5278A4D35D24E9857C57A4AB914F54FD6E5817B6C9A058BA03BFCBD63 SWAP2 DUP2 SWAP1 SUB PUSH1 0xA0 ADD SWAP1 LOG1 PUSH1 0x0 SWAP2 POP POP JUMPDEST SWAP5 SWAP4 POP POP POP POP JUMP JUMPDEST PUSH1 0x1 PUSH1 0x1 PUSH1 0xA0 SHL SUB DUP1 DUP3 AND PUSH1 0x0 SWAP1 DUP2 MSTORE PUSH1 0x1 PUSH1 0x20 SWAP1 DUP2 MSTORE PUSH1 0x40 DUP1 DUP4 KECCAK256 SWAP4 DUP7 AND DUP4 MSTORE SWAP3 SWAP1 MSTORE SWAP1 DUP2 KECCAK256 DUP1 SLOAD PUSH1 0xFF NOT AND SWAP1 SSTORE JUMPDEST SWAP3 SWAP2 POP POP JUMP JUMPDEST PUSH1 0x1 PUSH1 0x1 PUSH1 0xA0 SHL SUB DUP1 DUP3 AND PUSH1 0x0 SWAP1 DUP2 MSTORE PUSH1 0x1 PUSH1 0x20 SWAP1 DUP2 MSTORE PUSH1 0x40 DUP1 DUP4 KECCAK256 SWAP4 DUP7 AND DUP4 MSTORE SWAP3 SWAP1 MSTORE SWAP1 DUP2 KECCAK256 SLOAD PUSH1 0xFF AND ISZERO PUSH2 0xC59 JUMPI POP PUSH1 0x0 NOT PUSH2 0xC1A JUMP JUMPDEST PUSH1 0x1 PUSH1 0x1 PUSH1 0xA0 SHL SUB DUP1 DUP4 AND PUSH1 0x0 SWAP1 DUP2 MSTORE PUSH1 0x1 PUSH1 0x20 DUP2 DUP2 MSTORE PUSH1 0x40 DUP1 DUP5 KECCAK256 SWAP5 DUP9 AND DUP5 MSTORE SWAP4 SWAP1 MSTORE DUP3 DUP3 KECCAK256 DUP1 SLOAD PUSH1 0xFF NOT AND SWAP1 SWAP2 OR SWAP1 SSTORE SWAP1 MLOAD PUSH1 0x0 DUP1 MLOAD PUSH1 0x20 PUSH2 0x1E8F DUP4 CODECOPY DUP2 MLOAD SWAP2 MSTORE SWAP2 PUSH2 0xCAA SWAP2 DUP6 SWAP2 DUP8 SWAP2 PUSH2 0x1D42 JUMP JUMPDEST PUSH1 0x40 MLOAD DUP1 SWAP2 SUB SWAP1 LOG1 POP PUSH1 0x0 SWAP3 SWAP2 POP POP JUMP JUMPDEST PUSH1 0x1 PUSH1 0x1 PUSH1 0xA0 SHL SUB DUP1 DUP5 AND PUSH1 0x0 SWAP1 DUP2 MSTORE PUSH1 0x3 PUSH1 0x20 SWAP1 DUP2 MSTORE PUSH1 0x40 DUP1 DUP4 KECCAK256 DUP7 DUP6 AND DUP5 MSTORE DUP3 MSTORE DUP1 DUP4 KECCAK256 SWAP4 DUP6 AND DUP4 MSTORE SWAP3 SWAP1 MSTORE KECCAK256 SLOAD JUMPDEST SWAP4 SWAP3 POP POP POP JUMP JUMPDEST PUSH1 0x6 SLOAD PUSH1 0x0 SWAP1 DUP2 SWAP1 PUSH1 0x7 SIGNEXTEND ISZERO PUSH2 0xD72 JUMPI PUSH1 0x6 SLOAD PUSH1 0x40 DUP1 MLOAD PUSH1 0x1 PUSH1 0x40 SHL DUP4 DIV PUSH1 0x1 PUSH1 0x1 PUSH1 0xA0 SHL SUB AND DUP2 MSTORE PUSH1 0x7 SWAP3 SWAP1 SWAP3 SIGNEXTEND PUSH1 0x20 DUP4 ADD MSTORE PUSH32 0xF2BD9EE0F805F0400EB427DE41FF42ECBB8D13CD293BD1289A6B378532AD5D16 SWAP2 ADD PUSH1 0x40 MLOAD DUP1 SWAP2 SUB SWAP1 LOG1 POP POP PUSH1 0x6 SLOAD PUSH1 0x7 DUP2 SWAP1 SIGNEXTEND SWAP1 PUSH1 0x1 PUSH1 0x40 SHL SWAP1 DIV PUSH1 0x1 PUSH1 0x1 PUSH1 0xA0 SHL SUB AND PUSH2 0x11F8 JUMP JUMPDEST PUSH1 0x6 SLOAD PUSH1 0x1 PUSH1 0x40 SHL SWAP1 DIV PUSH1 0x1 PUSH1 0x1 PUSH1 0xA0 SHL SUB AND ISZERO PUSH2 0xDA2 JUMPI PUSH1 0x6 SLOAD PUSH1 0x1 PUSH1 0x40 SHL SWAP1 DIV PUSH1 0x1 PUSH1 0x1 PUSH1 0xA0 SHL SUB AND PUSH2 0xDE3 JUMP JUMPDEST PUSH1 0x40 DUP1 MLOAD TIMESTAMP PUSH1 0x20 DUP3 ADD MSTORE PUSH12 0xFFFFFFFFFFFFFFFFFFFFFFFF NOT CALLER PUSH1 0x60 SHL AND SWAP2 DUP2 ADD SWAP2 SWAP1 SWAP2 MSTORE PUSH1 0x54 ADD PUSH1 0x40 MLOAD PUSH1 0x20 DUP2 DUP4 SUB SUB DUP2 MSTORE SWAP1 PUSH1 0x40 MSTORE DUP1 MLOAD SWAP1 PUSH1 0x20 ADD KECCAK256 PUSH1 0x0 SHR JUMPDEST PUSH1 0x1 PUSH1 0x1 PUSH1 0xA0 SHL SUB DUP2 AND PUSH1 0x0 SWAP1 DUP2 MSTORE PUSH1 0x5 PUSH1 0x20 MSTORE PUSH1 0x40 SWAP1 KECCAK256 DUP8 MLOAD SWAP2 SWAP3 POP DUP8 SWAP2 DUP2 SWAP1 PUSH2 0xE0E SWAP1 DUP3 PUSH2 0x1DB8 JUMP JUMPDEST POP PUSH1 0x20 DUP3 ADD MLOAD PUSH1 0x1 DUP3 ADD SWAP1 PUSH2 0xE23 SWAP1 DUP3 PUSH2 0x1DB8 JUMP JUMPDEST POP PUSH1 0x40 DUP3 ADD MLOAD PUSH1 0x2 DUP3 ADD DUP1 SLOAD PUSH1 0x1 PUSH1 0x1 PUSH1 0xA0 SHL SUB NOT AND PUSH1 0x1 PUSH1 0x1 PUSH1 0xA0 SHL SUB SWAP1 SWAP3 AND SWAP2 SWAP1 SWAP2 OR SWAP1 SSTORE PUSH1 0x60 DUP3 ADD MLOAD PUSH1 0x3 DUP3 ADD SWAP1 PUSH2 0xE5E SWAP1 DUP3 PUSH2 0x1DB8 JUMP JUMPDEST POP PUSH1 0x80 DUP3 ADD MLOAD PUSH1 0x4 DUP3 ADD DUP1 SLOAD PUSH1 0xA0 DUP6 ADD MLOAD PUSH1 0xC0 DUP7 ADD MLOAD ISZERO ISZERO PUSH6 0x10000000000 MUL PUSH6 0xFF0000000000 NOT PUSH4 0xFFFFFFFF SWAP1 SWAP3 AND PUSH2 0x100 MUL PUSH5 0xFFFFFFFF00 NOT SWAP6 ISZERO ISZERO SWAP6 SWAP1 SWAP6 AND PUSH5 0xFFFFFFFFFF NOT SWAP1 SWAP4 AND SWAP3 SWAP1 SWAP3 OR SWAP4 SWAP1 SWAP4 OR SWAP3 SWAP1 SWAP3 AND SWAP2 SWAP1 SWAP2 OR SWAP1 SSTORE PUSH1 0xE0 DUP3 ADD MLOAD DUP1 MLOAD PUSH2 0xED7 SWAP2 PUSH1 0x5 DUP5 ADD SWAP2 PUSH1 0x20 SWAP1 SWAP2 ADD SWAP1 PUSH2 0x12C8 JUMP JUMPDEST POP PUSH2 0x100 DUP3 ADD MLOAD DUP1 MLOAD PUSH2 0xEF4 SWAP2 PUSH1 0x6 DUP5 ADD SWAP2 PUSH1 0x20 SWAP1 SWAP2 ADD SWAP1 PUSH2 0x12C8 JUMP JUMPDEST POP PUSH2 0x120 DUP3 ADD MLOAD DUP1 MLOAD PUSH2 0xF11 SWAP2 PUSH1 0x7 DUP5 ADD SWAP2 PUSH1 0x20 SWAP1 SWAP2 ADD SWAP1 PUSH2 0x12C8 JUMP JUMPDEST POP PUSH2 0x140 DUP3 ADD MLOAD DUP1 MLOAD PUSH2 0xF2E SWAP2 PUSH1 0x8 DUP5 ADD SWAP2 PUSH1 0x20 SWAP1 SWAP2 ADD SWAP1 PUSH2 0x12C8 JUMP JUMPDEST POP PUSH2 0x160 DUP3 ADD MLOAD DUP1 MLOAD PUSH2 0xF4B SWAP2 PUSH1 0x9 DUP5 ADD SWAP2 PUSH1 0x20 SWAP1 SWAP2 ADD SWAP1 PUSH2 0x12C8 JUMP JUMPDEST POP PUSH2 0x180 DUP3 ADD MLOAD PUSH1 0xA SWAP2 SWAP1 SWAP2 ADD DUP1 SLOAD PUSH2 0x1A0 DUP5 ADD MLOAD PUSH2 0x1C0 SWAP1 SWAP5 ADD MLOAD PUSH1 0xFF SWAP1 SWAP4 AND PUSH1 0x1 PUSH1 0x1 PUSH1 0xA8 SHL SUB NOT SWAP1 SWAP2 AND OR PUSH2 0x100 PUSH1 0x1 PUSH1 0x1 PUSH1 0xA0 SHL SUB SWAP5 DUP6 AND MUL OR PUSH4 0xFFFFFFFF PUSH1 0xA8 SHL NOT AND PUSH1 0x1 PUSH1 0xA8 SHL PUSH4 0xFFFFFFFF SWAP1 SWAP4 AND SWAP3 SWAP1 SWAP3 MUL SWAP2 SWAP1 SWAP2 OR SWAP1 SSTORE DUP2 DUP2 AND PUSH1 0x0 SWAP1 DUP2 MSTORE PUSH1 0x1 PUSH1 0x20 DUP2 DUP2 MSTORE PUSH1 0x40 DUP1 DUP5 KECCAK256 DUP12 DUP3 ADD DUP1 MLOAD SWAP1 SWAP7 AND DUP6 MSTORE SWAP1 SWAP2 MSTORE DUP1 DUP4 KECCAK256 DUP1 SLOAD PUSH1 0xFF NOT AND SWAP1 SWAP3 OR SWAP1 SWAP2 SSTORE SWAP2 MLOAD SWAP2 MLOAD PUSH1 0x0 DUP1 MLOAD PUSH1 0x20 PUSH2 0x1E8F DUP4 CODECOPY DUP2 MLOAD SWAP2 MSTORE SWAP3 PUSH2 0xFF9 SWAP3 DUP6 SWAP3 PUSH2 0x1D42 JUMP JUMPDEST PUSH1 0x40 MLOAD DUP1 SWAP2 SUB SWAP1 LOG1 DUP5 ISZERO PUSH2 0x1067 JUMPI PUSH1 0x40 DUP7 DUP2 ADD MLOAD PUSH1 0x1 PUSH1 0x1 PUSH1 0xA0 SHL SUB SWAP1 DUP2 AND PUSH1 0x0 SWAP1 DUP2 MSTORE PUSH1 0x2 PUSH1 0x20 SWAP1 DUP2 MSTORE DUP4 DUP3 KECCAK256 DUP10 SWAP1 SSTORE DUP4 MLOAD SWAP3 DUP6 AND DUP4 MSTORE DUP3 ADD DUP9 SWAP1 MSTORE DUP2 DUP4 ADD MSTORE SWAP1 MLOAD PUSH32 0x76AFAB2D1434E9659D29A63A3220A98EF8853378959685125F3C66BC4F90B80 SWAP2 DUP2 SWAP1 SUB PUSH1 0x60 ADD SWAP1 LOG1 JUMPDEST PUSH1 0x0 JUMPDEST DUP5 MLOAD DUP2 LT ISZERO PUSH2 0x1100 JUMPI DUP5 DUP2 DUP2 MLOAD DUP2 LT PUSH2 0x1085 JUMPI PUSH2 0x1085 PUSH2 0x1E78 JUMP JUMPDEST PUSH1 0x20 MUL PUSH1 0x20 ADD ADD MLOAD PUSH1 0xFF AND PUSH1 0x4 SUB PUSH2 0x10EE JUMPI PUSH1 0x1 PUSH1 0x0 DUP1 DUP7 DUP5 DUP2 MLOAD DUP2 LT PUSH2 0x10AE JUMPI PUSH2 0x10AE PUSH2 0x1E78 JUMP JUMPDEST PUSH1 0x20 MUL PUSH1 0x20 ADD ADD MLOAD PUSH1 0x1 PUSH1 0x1 PUSH1 0xA0 SHL SUB AND PUSH1 0x1 PUSH1 0x1 PUSH1 0xA0 SHL SUB AND DUP2 MSTORE PUSH1 0x20 ADD SWAP1 DUP2 MSTORE PUSH1 0x20 ADD PUSH1 0x0 KECCAK256 PUSH1 0x0 PUSH2 0x100 EXP DUP2 SLOAD DUP2 PUSH1 0xFF MUL NOT AND SWAP1 DUP4 ISZERO ISZERO MUL OR SWAP1 SSTORE POP JUMPDEST DUP1 PUSH2 0x10F8 DUP2 PUSH2 0x1CC9 JUMP JUMPDEST SWAP2 POP POP PUSH2 0x106A JUMP JUMPDEST POP PUSH1 0x1 PUSH1 0x1 PUSH1 0xA0 SHL SUB DUP2 AND PUSH1 0x0 SWAP1 DUP2 MSTORE PUSH1 0x1 PUSH1 0x20 DUP2 DUP2 MSTORE PUSH1 0x40 DUP1 DUP5 KECCAK256 ADDRESS DUP1 DUP7 MSTORE SWAP3 MSTORE DUP1 DUP5 KECCAK256 DUP1 SLOAD PUSH1 0xFF NOT AND SWAP1 SWAP4 OR SWAP1 SWAP3 SSTORE SWAP1 MLOAD PUSH1 0x0 DUP1 MLOAD PUSH1 0x20 PUSH2 0x1E8F DUP4 CODECOPY DUP2 MLOAD SWAP2 MSTORE SWAP3 PUSH2 0x1151 SWAP3 DUP6 SWAP3 SWAP1 SWAP2 SWAP1 PUSH2 0x1D42 JUMP JUMPDEST PUSH1 0x40 MLOAD DUP1 SWAP2 SUB SWAP1 LOG1 PUSH1 0x1 PUSH1 0x1 PUSH1 0xA0 SHL SUB DUP2 AND PUSH1 0x0 SWAP1 DUP2 MSTORE PUSH1 0x1 PUSH1 0x20 DUP2 DUP2 MSTORE PUSH1 0x40 DUP1 DUP5 KECCAK256 CALLER DUP1 DUP7 MSTORE SWAP3 MSTORE DUP1 DUP5 KECCAK256 DUP1 SLOAD PUSH1 0xFF NOT AND SWAP1 SWAP4 OR SWAP1 SWAP3 SSTORE SWAP1 MLOAD PUSH1 0x0 DUP1 MLOAD PUSH1 0x20 PUSH2 0x1E8F DUP4 CODECOPY DUP2 MLOAD SWAP2 MSTORE SWAP3 PUSH2 0x11A9 SWAP3 DUP6 SWAP3 SWAP1 SWAP2 SWAP1 PUSH2 0x1D42 JUMP JUMPDEST PUSH1 0x40 MLOAD DUP1 SWAP2 SUB SWAP1 LOG1 PUSH1 0x40 DUP1 MLOAD PUSH1 0x1 PUSH1 0x1 PUSH1 0xA0 SHL SUB DUP4 AND DUP2 MSTORE PUSH1 0x0 PUSH1 0x20 DUP3 ADD MSTORE PUSH32 0xF2BD9EE0F805F0400EB427DE41FF42ECBB8D13CD293BD1289A6B378532AD5D16 SWAP2 ADD PUSH1 0x40 MLOAD DUP1 SWAP2 SUB SWAP1 LOG1 PUSH1 0x0 SWAP2 POP JUMPDEST SWAP5 POP SWAP5 SWAP3 POP POP POP JUMP JUMPDEST CALLER PUSH1 0x0 SWAP1 DUP2 MSTORE PUSH1 0x2 PUSH1 0x20 MSTORE PUSH1 0x40 DUP2 KECCAK256 DUP1 SLOAD DUP5 SWAP2 SWAP1 DUP4 SWAP1 PUSH2 0x1222 SWAP1 DUP5 SWAP1 PUSH2 0x1D2F JUMP JUMPDEST SWAP1 SWAP2 SSTORE POP POP PUSH1 0x40 DUP1 MLOAD PUSH1 0x1 PUSH1 0x1 PUSH1 0xA0 SHL SUB DUP7 AND DUP2 MSTORE PUSH1 0x20 DUP2 ADD DUP6 SWAP1 MSTORE PUSH1 0x0 DUP2 DUP4 ADD MSTORE SWAP1 MLOAD PUSH32 0x76AFAB2D1434E9659D29A63A3220A98EF8853378959685125F3C66BC4F90B80 SWAP2 DUP2 SWAP1 SUB PUSH1 0x60 ADD SWAP1 LOG1 POP PUSH1 0x0 SWAP4 SWAP3 POP POP POP JUMP JUMPDEST CALLER PUSH1 0x0 SWAP1 DUP2 MSTORE PUSH1 0x2 PUSH1 0x20 MSTORE PUSH1 0x40 DUP2 KECCAK256 SLOAD DUP4 GT ISZERO PUSH2 0x129A JUMPI POP PUSH1 0x0 NOT PUSH2 0xCEC JUMP JUMPDEST CALLER PUSH1 0x0 SWAP1 DUP2 MSTORE PUSH1 0x2 PUSH1 0x20 MSTORE PUSH1 0x40 DUP2 KECCAK256 DUP1 SLOAD DUP6 SWAP3 SWAP1 PUSH2 0x12B9 SWAP1 DUP5 SWAP1 PUSH2 0x1D1C JUMP JUMPDEST SWAP1 SWAP2 SSTORE POP PUSH1 0x0 SWAP6 SWAP5 POP POP POP POP POP JUMP JUMPDEST DUP3 DUP1 SLOAD DUP3 DUP3 SSTORE SWAP1 PUSH1 0x0 MSTORE PUSH1 0x20 PUSH1 0x0 KECCAK256 SWAP1 DUP2 ADD SWAP3 DUP3 ISZERO PUSH2 0x131D JUMPI SWAP2 PUSH1 0x20 MUL DUP3 ADD JUMPDEST DUP3 DUP2 GT ISZERO PUSH2 0x131D JUMPI DUP3 MLOAD DUP3 SLOAD PUSH1 0x1 PUSH1 0x1 PUSH1 0xA0 SHL SUB NOT AND PUSH1 0x1 PUSH1 0x1 PUSH1 0xA0 SHL SUB SWAP1 SWAP2 AND OR DUP3 SSTORE PUSH1 0x20 SWAP1 SWAP3 ADD SWAP2 PUSH1 0x1 SWAP1 SWAP2 ADD SWAP1 PUSH2 0x12E8 JUMP JUMPDEST POP PUSH2 0x1329 SWAP3 SWAP2 POP PUSH2 0x132D JUMP JUMPDEST POP SWAP1 JUMP JUMPDEST JUMPDEST DUP1 DUP3 GT ISZERO PUSH2 0x1329 JUMPI PUSH1 0x0 DUP2 SSTORE PUSH1 0x1 ADD PUSH2 0x132E JUMP JUMPDEST DUP1 CALLDATALOAD PUSH1 0x7 DUP2 SWAP1 SIGNEXTEND DUP2 EQ PUSH2 0x1354 JUMPI PUSH1 0x0 DUP1 REVERT JUMPDEST SWAP2 SWAP1 POP JUMP JUMPDEST DUP1 CALLDATALOAD PUSH1 0x1 PUSH1 0x1 PUSH1 0xA0 SHL SUB DUP2 AND DUP2 EQ PUSH2 0x1354 JUMPI PUSH1 0x0 DUP1 REVERT JUMPDEST PUSH1 0x0 DUP1 PUSH1 0x40 DUP4 DUP6 SUB SLT ISZERO PUSH2 0x1383 JUMPI PUSH1 0x0 DUP1 REVERT JUMPDEST PUSH2 0x138C DUP4 PUSH2 0x1342 JUMP JUMPDEST SWAP2 POP PUSH2 0x139A PUSH1 0x20 DUP5 ADD PUSH2 0x1359 JUMP JUMPDEST SWAP1 POP SWAP3 POP SWAP3 SWAP1 POP JUMP JUMPDEST PUSH1 0x0 PUSH1 0x20 DUP3 DUP5 SUB SLT ISZERO PUSH2 0x13B5 JUMPI PUSH1 0x0 DUP1 REVERT JUMPDEST PUSH2 0xCEC DUP3 PUSH2 0x1359 JUMP JUMPDEST PUSH1 0x0 DUP2 MLOAD DUP1 DUP5 MSTORE PUSH1 0x0 JUMPDEST DUP2 DUP2 LT ISZERO PUSH2 0x13E4 JUMPI PUSH1 0x20 DUP2 DUP6 ADD DUP2 ADD MLOAD DUP7 DUP4 ADD DUP3 ADD MSTORE ADD PUSH2 0x13C8 JUMP JUMPDEST POP PUSH1 0x0 PUSH1 0x20 DUP3 DUP7 ADD ADD MSTORE PUSH1 0x20 PUSH1 0x1F NOT PUSH1 0x1F DUP4 ADD AND DUP6 ADD ADD SWAP2 POP POP SWAP3 SWAP2 POP POP JUMP JUMPDEST PUSH1 0x0 DUP2 MLOAD DUP1 DUP5 MSTORE PUSH1 0x20 DUP1 DUP6 ADD SWAP5 POP DUP1 DUP5 ADD PUSH1 0x0 JUMPDEST DUP4 DUP2 LT ISZERO PUSH2 0x143D JUMPI DUP2 MLOAD PUSH1 0x1 PUSH1 0x1 PUSH1 0xA0 SHL SUB AND DUP8 MSTORE SWAP6 DUP3 ADD SWAP6 SWAP1 DUP3 ADD SWAP1 PUSH1 0x1 ADD PUSH2 0x1418 JUMP JUMPDEST POP SWAP5 SWAP6 SWAP5 POP POP POP POP POP JUMP JUMPDEST PUSH1 0x20 DUP2 MSTORE PUSH1 0x0 DUP3 MLOAD PUSH2 0x1E0 DUP1 PUSH1 0x20 DUP6 ADD MSTORE PUSH2 0x1467 PUSH2 0x200 DUP6 ADD DUP4 PUSH2 0x13BE JUMP JUMPDEST SWAP2 POP PUSH1 0x20 DUP6 ADD MLOAD PUSH1 0x1F NOT DUP1 DUP7 DUP6 SUB ADD PUSH1 0x40 DUP8 ADD MSTORE PUSH2 0x1485 DUP5 DUP4 PUSH2 0x13BE JUMP JUMPDEST SWAP4 POP PUSH1 0x40 DUP8 ADD MLOAD SWAP2 POP PUSH2 0x14A3 PUSH1 0x60 DUP8 ADD DUP4 PUSH1 0x1 PUSH1 0x1 PUSH1 0xA0 SHL SUB AND SWAP1 MSTORE JUMP JUMPDEST PUSH1 0x60 DUP8 ADD MLOAD SWAP2 POP DUP1 DUP7 DUP6 SUB ADD PUSH1 0x80 DUP8 ADD MSTORE PUSH2 0x14BE DUP5 DUP4 PUSH2 0x13BE JUMP JUMPDEST SWAP4 POP PUSH1 0x80 DUP8 ADD MLOAD SWAP2 POP PUSH2 0x14D5 PUSH1 0xA0 DUP8 ADD DUP4 ISZERO ISZERO SWAP1 MSTORE JUMP JUMPDEST PUSH1 0xA0 DUP8 ADD MLOAD PUSH4 0xFFFFFFFF DUP2 AND PUSH1 0xC0 DUP9 ADD MSTORE SWAP2 POP PUSH1 0xC0 DUP8 ADD MLOAD DUP1 ISZERO ISZERO PUSH1 0xE0 DUP9 ADD MSTORE SWAP2 POP PUSH1 0xE0 DUP8 ADD MLOAD SWAP2 POP PUSH2 0x100 DUP2 DUP8 DUP7 SUB ADD DUP2 DUP9 ADD MSTORE PUSH2 0x1514 DUP6 DUP5 PUSH2 0x1404 JUMP JUMPDEST SWAP5 POP DUP1 DUP9 ADD MLOAD SWAP3 POP POP PUSH2 0x120 DUP2 DUP8 DUP7 SUB ADD DUP2 DUP9 ADD MSTORE PUSH2 0x1533 DUP6 DUP5 PUSH2 0x1404 JUMP JUMPDEST SWAP5 POP DUP1 DUP9 ADD MLOAD SWAP3 POP POP PUSH2 0x140 DUP2 DUP8 DUP7 SUB ADD DUP2 DUP9 ADD MSTORE PUSH2 0x1552 DUP6 DUP5 PUSH2 0x1404 JUMP JUMPDEST SWAP5 POP DUP1 DUP9 ADD MLOAD SWAP3 POP POP PUSH2 0x160 DUP2 DUP8 DUP7 SUB ADD DUP2 DUP9 ADD MSTORE PUSH2 0x1571 DUP6 DUP5 PUSH2 0x1404 JUMP JUMPDEST SWAP5 POP DUP1 DUP9 ADD MLOAD SWAP3 POP POP PUSH2 0x180 DUP2 DUP8 DUP7 SUB ADD DUP2 DUP9 ADD MSTORE PUSH2 0x1590 DUP6 DUP5 PUSH2 0x1404 JUMP JUMPDEST SWAP5 POP DUP1 DUP9 ADD MLOAD SWAP3 POP POP POP PUSH2 0x1A0 PUSH2 0x15AB DUP2 DUP8 ADD DUP4 PUSH1 0xFF AND SWAP1 MSTORE JUMP JUMPDEST DUP7 ADD MLOAD SWAP1 POP PUSH2 0x1C0 PUSH2 0x15C7 DUP7 DUP3 ADD DUP4 PUSH1 0x1 PUSH1 0x1 PUSH1 0xA0 SHL SUB AND SWAP1 MSTORE JUMP JUMPDEST SWAP1 SWAP6 ADD MLOAD PUSH4 0xFFFFFFFF AND SWAP4 ADD SWAP3 SWAP1 SWAP3 MSTORE POP SWAP2 SWAP1 POP JUMP JUMPDEST DUP1 CALLDATALOAD DUP1 ISZERO ISZERO DUP2 EQ PUSH2 0x1354 JUMPI PUSH1 0x0 DUP1 REVERT JUMPDEST PUSH1 0x0 DUP1 PUSH1 0x0 PUSH1 0x60 DUP5 DUP7 SUB SLT ISZERO PUSH2 0x1602 JUMPI PUSH1 0x0 DUP1 REVERT JUMPDEST PUSH2 0x160B DUP5 PUSH2 0x1359 JUMP JUMPDEST SWAP3 POP PUSH2 0x1619 PUSH1 0x20 DUP6 ADD PUSH2 0x1359 JUMP JUMPDEST SWAP2 POP PUSH2 0x1627 PUSH1 0x40 DUP6 ADD PUSH2 0x15DD JUMP JUMPDEST SWAP1 POP SWAP3 POP SWAP3 POP SWAP3 JUMP JUMPDEST PUSH1 0x0 DUP1 PUSH1 0x40 DUP4 DUP6 SUB SLT ISZERO PUSH2 0x1643 JUMPI PUSH1 0x0 DUP1 REVERT JUMPDEST PUSH2 0x164C DUP4 PUSH2 0x1359 JUMP JUMPDEST SWAP2 POP PUSH2 0x139A PUSH1 0x20 DUP5 ADD PUSH2 0x1342 JUMP JUMPDEST PUSH1 0x0 DUP1 PUSH1 0x0 DUP1 PUSH1 0x80 DUP6 DUP8 SUB SLT ISZERO PUSH2 0x1670 JUMPI PUSH1 0x0 DUP1 REVERT JUMPDEST PUSH2 0x1679 DUP6 PUSH2 0x1359 JUMP JUMPDEST SWAP4 POP PUSH2 0x1687 PUSH1 0x20 DUP7 ADD PUSH2 0x1359 JUMP JUMPDEST SWAP3 POP PUSH2 0x1695 PUSH1 0x40 DUP7 ADD PUSH2 0x1359 JUMP JUMPDEST SWAP4 SWAP7 SWAP3 SWAP6 POP SWAP3 SWAP4 PUSH1 0x60 ADD CALLDATALOAD SWAP3 POP POP JUMP JUMPDEST PUSH1 0x0 DUP1 PUSH1 0x40 DUP4 DUP6 SUB SLT ISZERO PUSH2 0x16B8 JUMPI PUSH1 0x0 DUP1 REVERT JUMPDEST PUSH2 0x138C DUP4 PUSH2 0x1359 JUMP JUMPDEST PUSH1 0x0 DUP1 PUSH1 0x0 PUSH1 0x60 DUP5 DUP7 SUB SLT ISZERO PUSH2 0x16D6 JUMPI PUSH1 0x0 DUP1 REVERT JUMPDEST PUSH2 0x16DF DUP5 PUSH2 0x1359 JUMP JUMPDEST SWAP3 POP PUSH2 0x16ED PUSH1 0x20 DUP6 ADD PUSH2 0x1359 JUMP JUMPDEST SWAP2 POP PUSH2 0x1627 PUSH1 0x40 DUP6 ADD PUSH2 0x1359 JUMP JUMPDEST PUSH1 0x0 DUP1 PUSH1 0x0 PUSH1 0x60 DUP5 DUP7 SUB SLT ISZERO PUSH2 0x1710 JUMPI PUSH1 0x0 DUP1 REVERT JUMPDEST PUSH2 0x1719 DUP5 PUSH2 0x1359 JUMP JUMPDEST SWAP3 POP PUSH2 0x1727 PUSH1 0x20 DUP6 ADD PUSH2 0x1359 JUMP JUMPDEST SWAP2 POP PUSH1 0x40 DUP5 ADD CALLDATALOAD SWAP1 POP SWAP3 POP SWAP3 POP SWAP3 JUMP JUMPDEST PUSH4 0x4E487B71 PUSH1 0xE0 SHL PUSH1 0x0 MSTORE PUSH1 0x41 PUSH1 0x4 MSTORE PUSH1 0x24 PUSH1 0x0 REVERT JUMPDEST PUSH1 0x40 MLOAD PUSH2 0x1E0 DUP2 ADD PUSH8 0xFFFFFFFFFFFFFFFF DUP2 GT DUP3 DUP3 LT OR ISZERO PUSH2 0x1771 JUMPI PUSH2 0x1771 PUSH2 0x1737 JUMP JUMPDEST PUSH1 0x40 MSTORE SWAP1 JUMP JUMPDEST PUSH1 0x40 MLOAD PUSH1 0x1F DUP3 ADD PUSH1 0x1F NOT AND DUP2 ADD PUSH8 0xFFFFFFFFFFFFFFFF DUP2 GT DUP3 DUP3 LT OR ISZERO PUSH2 0x17A0 JUMPI PUSH2 0x17A0 PUSH2 0x1737 JUMP JUMPDEST PUSH1 0x40 MSTORE SWAP2 SWAP1 POP JUMP JUMPDEST PUSH1 0x0 PUSH8 0xFFFFFFFFFFFFFFFF DUP4 GT ISZERO PUSH2 0x17C2 JUMPI PUSH2 0x17C2 PUSH2 0x1737 JUMP JUMPDEST PUSH2 0x17D5 PUSH1 0x1F DUP5 ADD PUSH1 0x1F NOT AND PUSH1 0x20 ADD PUSH2 0x1777 JUMP JUMPDEST SWAP1 POP DUP3 DUP2 MSTORE DUP4 DUP4 DUP4 ADD GT ISZERO PUSH2 0x17E9 JUMPI PUSH1 0x0 DUP1 REVERT JUMPDEST DUP3 DUP3 PUSH1 0x20 DUP4 ADD CALLDATACOPY PUSH1 0x0 PUSH1 0x20 DUP5 DUP4 ADD ADD MSTORE SWAP4 SWAP3 POP POP POP JUMP JUMPDEST PUSH1 0x0 DUP3 PUSH1 0x1F DUP4 ADD SLT PUSH2 0x1811 JUMPI PUSH1 0x0 DUP1 REVERT JUMPDEST PUSH2 0xCEC DUP4 DUP4 CALLDATALOAD PUSH1 0x20 DUP6 ADD PUSH2 0x17A8 JUMP JUMPDEST DUP1 CALLDATALOAD PUSH4 0xFFFFFFFF DUP2 AND DUP2 EQ PUSH2 0x1354 JUMPI PUSH1 0x0 DUP1 REVERT JUMPDEST PUSH1 0x0 PUSH8 0xFFFFFFFFFFFFFFFF DUP3 GT ISZERO PUSH2 0x184E JUMPI PUSH2 0x184E PUSH2 0x1737 JUMP JUMPDEST POP PUSH1 0x5 SHL PUSH1 0x20 ADD SWAP1 JUMP JUMPDEST PUSH1 0x0 DUP3 PUSH1 0x1F DUP4 ADD SLT PUSH2 0x1869 JUMPI PUSH1 0x0 DUP1 REVERT JUMPDEST DUP2 CALLDATALOAD PUSH1 0x20 PUSH2 0x187E PUSH2 0x1879 DUP4 PUSH2 0x1834 JUMP JUMPDEST PUSH2 0x1777 JUMP JUMPDEST DUP3 DUP2 MSTORE PUSH1 0x5 SWAP3 SWAP1 SWAP3 SHL DUP5 ADD DUP2 ADD SWAP2 DUP2 DUP2 ADD SWAP1 DUP7 DUP5 GT ISZERO PUSH2 0x189D JUMPI PUSH1 0x0 DUP1 REVERT JUMPDEST DUP3 DUP7 ADD JUMPDEST DUP5 DUP2 LT ISZERO PUSH2 0x18BF JUMPI PUSH2 0x18B2 DUP2 PUSH2 0x1359 JUMP JUMPDEST DUP4 MSTORE SWAP2 DUP4 ADD SWAP2 DUP4 ADD PUSH2 0x18A1 JUMP JUMPDEST POP SWAP7 SWAP6 POP POP POP POP POP POP JUMP JUMPDEST DUP1 CALLDATALOAD PUSH1 0xFF DUP2 AND DUP2 EQ PUSH2 0x1354 JUMPI PUSH1 0x0 DUP1 REVERT JUMPDEST PUSH1 0x0 DUP3 PUSH1 0x1F DUP4 ADD SLT PUSH2 0x18EC JUMPI PUSH1 0x0 DUP1 REVERT JUMPDEST DUP2 CALLDATALOAD PUSH1 0x20 PUSH2 0x18FC PUSH2 0x1879 DUP4 PUSH2 0x1834 JUMP JUMPDEST DUP3 DUP2 MSTORE PUSH1 0x5 SWAP3 SWAP1 SWAP3 SHL DUP5 ADD DUP2 ADD SWAP2 DUP2 DUP2 ADD SWAP1 DUP7 DUP5 GT ISZERO PUSH2 0x191B JUMPI PUSH1 0x0 DUP1 REVERT JUMPDEST DUP3 DUP7 ADD JUMPDEST DUP5 DUP2 LT ISZERO PUSH2 0x18BF JUMPI PUSH2 0x1930 DUP2 PUSH2 0x18CA JUMP JUMPDEST DUP4 MSTORE SWAP2 DUP4 ADD SWAP2 DUP4 ADD PUSH2 0x191F JUMP JUMPDEST PUSH1 0x0 DUP1 PUSH1 0x0 DUP1 PUSH1 0x80 DUP6 DUP8 SUB SLT ISZERO PUSH2 0x1953 JUMPI PUSH1 0x0 DUP1 REVERT JUMPDEST DUP5 CALLDATALOAD PUSH8 0xFFFFFFFFFFFFFFFF DUP1 DUP3 GT ISZERO PUSH2 0x196B JUMPI PUSH1 0x0 DUP1 REVERT JUMPDEST SWAP1 DUP7 ADD SWAP1 PUSH2 0x1E0 DUP3 DUP10 SUB SLT ISZERO PUSH2 0x1980 JUMPI PUSH1 0x0 DUP1 REVERT JUMPDEST PUSH2 0x1988 PUSH2 0x174D JUMP JUMPDEST DUP3 CALLDATALOAD DUP3 DUP2 GT ISZERO PUSH2 0x1997 JUMPI PUSH1 0x0 DUP1 REVERT JUMPDEST PUSH2 0x19A3 DUP11 DUP3 DUP7 ADD PUSH2 0x1800 JUMP JUMPDEST DUP3 MSTORE POP PUSH1 0x20 DUP4 ADD CALLDATALOAD DUP3 DUP2 GT ISZERO PUSH2 0x19B8 JUMPI PUSH1 0x0 DUP1 REVERT JUMPDEST PUSH2 0x19C4 DUP11 DUP3 DUP7 ADD PUSH2 0x1800 JUMP JUMPDEST PUSH1 0x20 DUP4 ADD MSTORE POP PUSH2 0x19D6 PUSH1 0x40 DUP5 ADD PUSH2 0x1359 JUMP JUMPDEST PUSH1 0x40 DUP3 ADD MSTORE PUSH1 0x60 DUP4 ADD CALLDATALOAD DUP3 DUP2 GT ISZERO PUSH2 0x19ED JUMPI PUSH1 0x0 DUP1 REVERT JUMPDEST PUSH2 0x19F9 DUP11 DUP3 DUP7 ADD PUSH2 0x1800 JUMP JUMPDEST PUSH1 0x60 DUP4 ADD MSTORE POP PUSH2 0x1A0B PUSH1 0x80 DUP5 ADD PUSH2 0x15DD JUMP JUMPDEST PUSH1 0x80 DUP3 ADD MSTORE PUSH2 0x1A1C PUSH1 0xA0 DUP5 ADD PUSH2 0x1820 JUMP JUMPDEST PUSH1 0xA0 DUP3 ADD MSTORE PUSH2 0x1A2D PUSH1 0xC0 DUP5 ADD PUSH2 0x15DD JUMP JUMPDEST PUSH1 0xC0 DUP3 ADD MSTORE PUSH1 0xE0 DUP4 ADD CALLDATALOAD DUP3 DUP2 GT ISZERO PUSH2 0x1A44 JUMPI PUSH1 0x0 DUP1 REVERT JUMPDEST PUSH2 0x1A50 DUP11 DUP3 DUP7 ADD PUSH2 0x1858 JUMP JUMPDEST PUSH1 0xE0 DUP4 ADD MSTORE POP PUSH2 0x100 DUP1 DUP5 ADD CALLDATALOAD DUP4 DUP2 GT ISZERO PUSH2 0x1A6A JUMPI PUSH1 0x0 DUP1 REVERT JUMPDEST PUSH2 0x1A76 DUP12 DUP3 DUP8 ADD PUSH2 0x1858 JUMP JUMPDEST DUP3 DUP5 ADD MSTORE POP POP PUSH2 0x120 DUP1 DUP5 ADD CALLDATALOAD DUP4 DUP2 GT ISZERO PUSH2 0x1A90 JUMPI PUSH1 0x0 DUP1 REVERT JUMPDEST PUSH2 0x1A9C DUP12 DUP3 DUP8 ADD PUSH2 0x1858 JUMP JUMPDEST DUP3 DUP5 ADD MSTORE POP POP PUSH2 0x140 DUP1 DUP5 ADD CALLDATALOAD DUP4 DUP2 GT ISZERO PUSH2 0x1AB6 JUMPI PUSH1 0x0 DUP1 REVERT JUMPDEST PUSH2 0x1AC2 DUP12 DUP3 DUP8 ADD PUSH2 0x1858 JUMP JUMPDEST DUP3 DUP5 ADD MSTORE POP POP PUSH2 0x160 DUP1 DUP5 ADD CALLDATALOAD DUP4 DUP2 GT ISZERO PUSH2 0x1ADC JUMPI PUSH1 0x0 DUP1 REVERT JUMPDEST PUSH2 0x1AE8 DUP12 DUP3 DUP8 ADD PUSH2 0x1858 JUMP JUMPDEST DUP3 DUP5 ADD MSTORE POP POP PUSH2 0x180 PUSH2 0x1AFC DUP2 DUP6 ADD PUSH2 0x18CA JUMP JUMPDEST SWAP1 DUP3 ADD MSTORE PUSH2 0x1A0 PUSH2 0x1B0E DUP5 DUP3 ADD PUSH2 0x1359 JUMP JUMPDEST SWAP1 DUP3 ADD MSTORE PUSH2 0x1C0 PUSH2 0x1B20 DUP5 DUP3 ADD PUSH2 0x1820 JUMP JUMPDEST SWAP1 DUP3 ADD MSTORE SWAP6 POP PUSH1 0x20 DUP8 ADD CALLDATALOAD SWAP5 POP PUSH1 0x40 DUP8 ADD CALLDATALOAD SWAP2 POP DUP1 DUP3 GT ISZERO PUSH2 0x1B41 JUMPI PUSH1 0x0 DUP1 REVERT JUMPDEST PUSH2 0x1B4D DUP9 DUP4 DUP10 ADD PUSH2 0x18DB JUMP JUMPDEST SWAP4 POP PUSH1 0x60 DUP8 ADD CALLDATALOAD SWAP2 POP DUP1 DUP3 GT ISZERO PUSH2 0x1B63 JUMPI PUSH1 0x0 DUP1 REVERT JUMPDEST POP PUSH2 0x1B70 DUP8 DUP3 DUP9 ADD PUSH2 0x1858 JUMP JUMPDEST SWAP2 POP POP SWAP3 SWAP6 SWAP2 SWAP5 POP SWAP3 POP JUMP JUMPDEST PUSH1 0x0 DUP1 PUSH1 0x0 DUP1 PUSH1 0x80 DUP6 DUP8 SUB SLT ISZERO PUSH2 0x1B92 JUMPI PUSH1 0x0 DUP1 REVERT JUMPDEST PUSH2 0x1B9B DUP6 PUSH2 0x1359 JUMP JUMPDEST SWAP4 POP PUSH2 0x1BA9 PUSH1 0x20 DUP7 ADD PUSH2 0x1359 JUMP JUMPDEST SWAP3 POP PUSH2 0x1BB7 PUSH1 0x40 DUP7 ADD PUSH2 0x1359 JUMP JUMPDEST SWAP2 POP PUSH2 0x1BC5 PUSH1 0x60 DUP7 ADD PUSH2 0x1359 JUMP JUMPDEST SWAP1 POP SWAP3 SWAP6 SWAP2 SWAP5 POP SWAP3 POP JUMP JUMPDEST PUSH1 0x0 DUP1 PUSH1 0x0 PUSH1 0x60 DUP5 DUP7 SUB SLT ISZERO PUSH2 0x1BE5 JUMPI PUSH1 0x0 DUP1 REVERT JUMPDEST PUSH2 0x1BEE DUP5 PUSH2 0x1359 JUMP JUMPDEST SWAP3 POP PUSH1 0x20 DUP1 DUP6 ADD CALLDATALOAD SWAP3 POP PUSH1 0x40 DUP1 DUP7 ADD CALLDATALOAD PUSH8 0xFFFFFFFFFFFFFFFF DUP1 DUP3 GT ISZERO PUSH2 0x1C14 JUMPI PUSH1 0x0 DUP1 REVERT JUMPDEST DUP2 DUP9 ADD SWAP2 POP DUP9 PUSH1 0x1F DUP4 ADD SLT PUSH2 0x1C28 JUMPI PUSH1 0x0 DUP1 REVERT JUMPDEST DUP2 CALLDATALOAD PUSH2 0x1C36 PUSH2 0x1879 DUP3 PUSH2 0x1834 JUMP JUMPDEST DUP2 DUP2 MSTORE PUSH1 0x5 SWAP2 SWAP1 SWAP2 SHL DUP4 ADD DUP6 ADD SWAP1 DUP6 DUP2 ADD SWAP1 DUP12 DUP4 GT ISZERO PUSH2 0x1C55 JUMPI PUSH1 0x0 DUP1 REVERT JUMPDEST DUP7 DUP6 ADD JUMPDEST DUP4 DUP2 LT ISZERO PUSH2 0x1CA1 JUMPI DUP1 CALLDATALOAD DUP6 DUP2 GT ISZERO PUSH2 0x1C71 JUMPI PUSH1 0x0 DUP1 DUP2 REVERT JUMPDEST DUP7 ADD PUSH1 0x3F DUP2 ADD DUP15 SGT PUSH2 0x1C83 JUMPI PUSH1 0x0 DUP1 DUP2 REVERT JUMPDEST PUSH2 0x1C93 DUP15 DUP11 DUP4 ADD CALLDATALOAD DUP11 DUP5 ADD PUSH2 0x17A8 JUMP JUMPDEST DUP5 MSTORE POP SWAP2 DUP8 ADD SWAP2 DUP8 ADD PUSH2 0x1C59 JUMP JUMPDEST POP DUP1 SWAP8 POP POP POP POP POP POP POP POP SWAP3 POP SWAP3 POP SWAP3 JUMP JUMPDEST PUSH4 0x4E487B71 PUSH1 0xE0 SHL PUSH1 0x0 MSTORE PUSH1 0x11 PUSH1 0x4 MSTORE PUSH1 0x24 PUSH1 0x0 REVERT JUMPDEST PUSH1 0x0 PUSH1 0x1 DUP3 ADD PUSH2 0x1CDB JUMPI PUSH2 0x1CDB PUSH2 0x1CB3 JUMP JUMPDEST POP PUSH1 0x1 ADD SWAP1 JUMP JUMPDEST PUSH1 0x1 DUP2 DUP2 SHR SWAP1 DUP3 AND DUP1 PUSH2 0x1CF6 JUMPI PUSH1 0x7F DUP3 AND SWAP2 POP JUMPDEST PUSH1 0x20 DUP3 LT DUP2 SUB PUSH2 0x1D16 JUMPI PUSH4 0x4E487B71 PUSH1 0xE0 SHL PUSH1 0x0 MSTORE PUSH1 0x22 PUSH1 0x4 MSTORE PUSH1 0x24 PUSH1 0x0 REVERT JUMPDEST POP SWAP2 SWAP1 POP JUMP JUMPDEST DUP2 DUP2 SUB DUP2 DUP2 GT ISZERO PUSH2 0xC1A JUMPI PUSH2 0xC1A PUSH2 0x1CB3 JUMP JUMPDEST DUP1 DUP3 ADD DUP1 DUP3 GT ISZERO PUSH2 0xC1A JUMPI PUSH2 0xC1A PUSH2 0x1CB3 JUMP JUMPDEST PUSH1 0x1 PUSH1 0x1 PUSH1 0xA0 SHL SUB SWAP4 DUP5 AND DUP2 MSTORE SWAP2 SWAP1 SWAP3 AND PUSH1 0x20 DUP3 ADD MSTORE PUSH1 0x7 SWAP2 SWAP1 SWAP2 SIGNEXTEND PUSH1 0x40 DUP3 ADD MSTORE PUSH1 0x60 ADD SWAP1 JUMP JUMPDEST PUSH1 0x1F DUP3 GT ISZERO PUSH2 0x1DB3 JUMPI PUSH1 0x0 DUP2 DUP2 MSTORE PUSH1 0x20 DUP2 KECCAK256 PUSH1 0x1F DUP6 ADD PUSH1 0x5 SHR DUP2 ADD PUSH1 0x20 DUP7 LT ISZERO PUSH2 0x1D90 JUMPI POP DUP1 JUMPDEST PUSH1 0x1F DUP6 ADD PUSH1 0x5 SHR DUP3 ADD SWAP2 POP JUMPDEST DUP2 DUP2 LT ISZERO PUSH2 0x1DAF JUMPI DUP3 DUP2 SSTORE PUSH1 0x1 ADD PUSH2 0x1D9C JUMP JUMPDEST POP POP POP JUMPDEST POP POP POP JUMP JUMPDEST DUP2 MLOAD PUSH8 0xFFFFFFFFFFFFFFFF DUP2 GT ISZERO PUSH2 0x1DD2 JUMPI PUSH2 0x1DD2 PUSH2 0x1737 JUMP JUMPDEST PUSH2 0x1DE6 DUP2 PUSH2 0x1DE0 DUP5 SLOAD PUSH2 0x1CE2 JUMP JUMPDEST DUP5 PUSH2 0x1D69 JUMP JUMPDEST PUSH1 0x20 DUP1 PUSH1 0x1F DUP4 GT PUSH1 0x1 DUP2 EQ PUSH2 0x1E1B JUMPI PUSH1 0x0 DUP5 ISZERO PUSH2 0x1E03 JUMPI POP DUP6 DUP4 ADD MLOAD JUMPDEST PUSH1 0x0 NOT PUSH1 0x3 DUP7 SWAP1 SHL SHR NOT AND PUSH1 0x1 DUP6 SWAP1 SHL OR DUP6 SSTORE PUSH2 0x1DAF JUMP JUMPDEST PUSH1 0x0 DUP6 DUP2 MSTORE PUSH1 0x20 DUP2 KECCAK256 PUSH1 0x1F NOT DUP7 AND SWAP2 JUMPDEST DUP3 DUP2 LT ISZERO PUSH2 0x1E4A JUMPI DUP9 DUP7 ADD MLOAD DUP3 SSTORE SWAP5 DUP5 ADD SWAP5 PUSH1 0x1 SWAP1 SWAP2 ADD SWAP1 DUP5 ADD PUSH2 0x1E2B JUMP JUMPDEST POP DUP6 DUP3 LT ISZERO PUSH2 0x1E68 JUMPI DUP8 DUP6 ADD MLOAD PUSH1 0x0 NOT PUSH1 0x3 DUP9 SWAP1 SHL PUSH1 0xF8 AND SHR NOT AND DUP2 SSTORE JUMPDEST POP POP POP POP POP PUSH1 0x1 SWAP1 DUP2 SHL ADD SWAP1 SSTORE POP JUMP JUMPDEST PUSH4 0x4E487B71 PUSH1 0xE0 SHL PUSH1 0x0 MSTORE PUSH1 0x32 PUSH1 0x4 MSTORE PUSH1 0x24 PUSH1 0x0 REVERT INVALID 0xB7 EXTCODECOPY GASLIMIT MUL DUP15 ISZERO PUSH23 0x5B57E1AA21B09D3AA6A33894EA5278E1D103363F984B3A 0x24 SELFBALANCE LOG2 PUSH5 0x6970667358 0x22 SLT KECCAK256 PUSH29 0x9EDBCCFD2AEF7359D46EEF7EE084C07942B51D0170F85AD80962169DAE PUSH3 0x126473 PUSH16 0x6C634300081200330000000000000000 "},"gasEstimates":{"creation":{"codeDepositCost":"1581600","executionCost":"25889","totalCost":"1607489"},"external":{"allowance(address,address,address)":"infinite","associateToken(address,address)":"infinite","balanceOf(address,address)":"infinite","burnToken(address,uint256,bytes[])":"infinite","clearTransferResults()":"infinite","createToken((string,string,address,string,bool,uint32,bool,address[],address[],address[],address[],address[],uint8,address,uint32),uint256,uint8[],address[])":"infinite","disassociateToken(address,address)":"infinite","getTokenInfo(address)":"infinite","isSupplyKey(address,address)":"infinite","isTokenAssociated(address,address)":"infinite","mintToken(address,uint256,bytes[])":"infinite","setAllowance(address,address,address,uint256)":"infinite","setBalance(address,address,uint256)":"infinite","setMockedCreateTokenResponse(int64,address)":"infinite","setSupplyKeyHolder(address,address)":"infinite","setTokenAssociation(address,address,bool)":"infinite","setTransferResult(address,int64)":"infinite","setupTokens(address,address,address,address)":"infinite","transferToken(address,address,address,uint256)":"infinite"}},"methodIdentifiers":{"allowance(address,address,address)":"927da105","associateToken(address,address)":"49146bde","balanceOf(address,address)":"f7888aec","burnToken(address,uint256,bytes[])":"f3fc76fa","clearTransferResults()":"1957457d","createToken((string,string,address,string,bool,uint32,bool,address[],address[],address[],address[],address[],uint8,address,uint32),uint256,uint8[],address[])":"bed25456","disassociateToken(address,address)":"3fda8941","getTokenInfo(address)":"1f69565f","isSupplyKey(address,address)":"5c34c68a","isTokenAssociated(address,address)":"725fe8a4","mintToken(address,uint256,bytes[])":"ec12dc02","setAllowance(address,address,address,uint256)":"a7070373","setBalance(address,address,uint256)":"b5c9cbbe","setMockedCreateTokenResponse(int64,address)":"034f1ac2","setSupplyKeyHolder(address,address)":"ac9e6d7a","setTokenAssociation(address,address,bool)":"2175d776","setTransferResult(address,int64)":"23408f4f","setupTokens(address,address,address,address)":"c0974946","transferToken(address,address,address,uint256)":"2c54de4f"}},"storageLayout":{"storage":[{"astId":1721,"contract":"app/contracts/MockHederaTokenService.sol:MockHederaTokenService","label":"supplyKeys","offset":0,"slot":"0","type":"t_mapping(t_address,t_bool)"},{"astId":1727,"contract":"app/contracts/MockHederaTokenService.sol:MockHederaTokenService","label":"tokenAssociations","offset":0,"slot":"1","type":"t_mapping(t_address,t_mapping(t_address,t_bool))"},{"astId":1731,"contract":"app/contracts/MockHederaTokenService.sol:MockHederaTokenService","label":"tokenBalances","offset":0,"slot":"2","type":"t_mapping(t_address,t_uint256)"},{"astId":1739,"contract":"app/contracts/MockHederaTokenService.sol:MockHederaTokenService","label":"allowances","offset":0,"slot":"3","type":"t_mapping(t_address,t_mapping(t_address,t_mapping(t_address,t_uint256)))"},{"astId":1743,"contract":"app/contracts/MockHederaTokenService.sol:MockHederaTokenService","label":"transferResults","offset":0,"slot":"4","type":"t_mapping(t_address,t_int64)"},{"astId":1748,"contract":"app/contracts/MockHederaTokenService.sol:MockHederaTokenService","label":"tokenDetails","offset":0,"slot":"5","type":"t_mapping(t_address,t_struct(HederaToken)37_storage)"},{"astId":1750,"contract":"app/contracts/MockHederaTokenService.sol:MockHederaTokenService","label":"mockedCreateTokenResponseCode","offset":0,"slot":"6","type":"t_int64"},{"astId":1752,"contract":"app/contracts/MockHederaTokenService.sol:MockHederaTokenService","label":"mockedCreateTokenAddress","offset":8,"slot":"6","type":"t_address"}],"types":{"t_address":{"encoding":"inplace","label":"address","numberOfBytes":"20"},"t_array(t_address)dyn_storage":{"base":"t_address","encoding":"dynamic_array","label":"address[]","numberOfBytes":"32"},"t_bool":{"encoding":"inplace","label":"bool","numberOfBytes":"1"},"t_int64":{"encoding":"inplace","label":"int64","numberOfBytes":"8"},"t_mapping(t_address,t_bool)":{"encoding":"mapping","key":"t_address","label":"mapping(address => bool)","numberOfBytes":"32","value":"t_bool"},"t_mapping(t_address,t_int64)":{"encoding":"mapping","key":"t_address","label":"mapping(address => int64)","numberOfBytes":"32","value":"t_int64"},"t_mapping(t_address,t_mapping(t_address,t_bool))":{"encoding":"mapping","key":"t_address","label":"mapping(address => mapping(address => bool))","numberOfBytes":"32","value":"t_mapping(t_address,t_bool)"},"t_mapping(t_address,t_mapping(t_address,t_mapping(t_address,t_uint256)))":{"encoding":"mapping","key":"t_address","label":"mapping(address => mapping(address => mapping(address => uint256)))","numberOfBytes":"32","value":"t_mapping(t_address,t_mapping(t_address,t_uint256))"},"t_mapping(t_address,t_mapping(t_address,t_uint256))":{"encoding":"mapping","key":"t_address","label":"mapping(address => mapping(address => uint256))","numberOfBytes":"32","value":"t_mapping(t_address,t_uint256)"},"t_mapping(t_address,t_struct(HederaToken)37_storage)":{"encoding":"mapping","key":"t_address","label":"mapping(address => struct IHederaTokenService.HederaToken)","numberOfBytes":"32","value":"t_struct(HederaToken)37_storage"},"t_mapping(t_address,t_uint256)":{"encoding":"mapping","key":"t_address","label":"mapping(address => uint256)","numberOfBytes":"32","value":"t_uint256"},"t_string_storage":{"encoding":"bytes","label":"string","numberOfBytes":"32"},"t_struct(HederaToken)37_storage":{"encoding":"inplace","label":"struct IHederaTokenService.HederaToken","members":[{"astId":3,"contract":"app/contracts/MockHederaTokenService.sol:MockHederaTokenService","label":"name","offset":0,"slot":"0","type":"t_string_storage"},{"astId":5,"contract":"app/contracts/MockHederaTokenService.sol:MockHederaTokenService","label":"symbol","offset":0,"slot":"1","type":"t_string_storage"},{"astId":7,"contract":"app/contracts/MockHederaTokenService.sol:MockHederaTokenService","label":"treasury","offset":0,"slot":"2","type":"t_address"},{"astId":9,"contract":"app/contracts/MockHederaTokenService.sol:MockHederaTokenService","label":"memo","offset":0,"slot":"3","type":"t_string_storage"},{"astId":11,"contract":"app/contracts/MockHederaTokenService.sol:MockHederaTokenService","label":"supplyType","offset":0,"slot":"4","type":"t_bool"},{"astId":13,"contract":"app/contracts/MockHederaTokenService.sol:MockHederaTokenService","label":"maxSupply","offset":1,"slot":"4","type":"t_uint32"},{"astId":15,"contract":"app/contracts/MockHederaTokenService.sol:MockHederaTokenService","label":"freezeDefault","offset":5,"slot":"4","type":"t_bool"},{"astId":18,"contract":"app/contracts/MockHederaTokenService.sol:MockHederaTokenService","label":"freezeKey","offset":0,"slot":"5","type":"t_array(t_address)dyn_storage"},{"astId":21,"contract":"app/contracts/MockHederaTokenService.sol:MockHederaTokenService","label":"wipeKey","offset":0,"slot":"6","type":"t_array(t_address)dyn_storage"},{"astId":24,"contract":"app/contracts/MockHederaTokenService.sol:MockHederaTokenService","label":"supplyKey","offset":0,"slot":"7","type":"t_array(t_address)dyn_storage"},{"astId":27,"contract":"app/contracts/MockHederaTokenService.sol:MockHederaTokenService","label":"adminKey","offset":0,"slot":"8","type":"t_array(t_address)dyn_storage"},{"astId":30,"contract":"app/contracts/MockHederaTokenService.sol:MockHederaTokenService","label":"kycKey","offset":0,"slot":"9","type":"t_array(t_address)dyn_storage"},{"astId":32,"contract":"app/contracts/MockHederaTokenService.sol:MockHederaTokenService","label":"decimals","offset":0,"slot":"10","type":"t_uint8"},{"astId":34,"contract":"app/contracts/MockHederaTokenService.sol:MockHederaTokenService","label":"autoRenewAccount","offset":1,"slot":"10","type":"t_address"},{"astId":36,"contract":"app/contracts/MockHederaTokenService.sol:MockHederaTokenService","label":"autoRenewPeriod","offset":21,"slot":"10","type":"t_uint32"}],"numberOfBytes":"352"},"t_uint256":{"encoding":"inplace","label":"uint256","numberOfBytes":"32"},"t_uint32":{"encoding":"inplace","label":"uint32","numberOfBytes":"4"},"t_uint8":{"encoding":"inplace","label":"uint8","numberOfBytes":"1"}}},"userdoc":{"kind":"user","methods":{},"version":1}}}}