{"app/contracts/MockHederaTokenService.sol":{"MockHederaTokenService":{"abi":[{"inputs":[],"stateMutability":"nonpayable","type":"constructor"},{"inputs":[{"internalType":"address","name":"token","type":"address"},{"internalType":"uint256","name":"allowance","type":"uint256"},{"internalType":"uint256","name":"required","type":"uint256"}],"name":"InsufficientTokenAllowance","type":"error"},{"inputs":[{"internalType":"address","name":"token","type":"address"},{"internalType":"address","name":"caller","type":"address"}],"name":"NoSupplyKeyPermission","type":"error"},{"anonymous":false,"inputs":[{"indexed":true,"internalType":"address","name":"account","type":"address"},{"indexed":true,"internalType":"address","name":"token","type":"address"}],"name":"TokenAssociated","type":"event"},{"anonymous":false,"inputs":[{"indexed":true,"internalType":"address","name":"token","type":"address"},{"indexed":false,"internalType":"uint256","name":"amount","type":"uint256"}],"name":"TokenBurned","type":"event"},{"anonymous":false,"inputs":[{"indexed":true,"internalType":"address","name":"token","type":"address"},{"indexed":false,"internalType":"string","name":"name","type":"string"},{"indexed":false,"internalType":"string","name":"symbol","type":"string"},{"indexed":false,"internalType":"address","name":"treasury","type":"address"}],"name":"TokenCreated","type":"event"},{"anonymous":false,"inputs":[{"indexed":true,"internalType":"address","name":"token","type":"address"},{"indexed":false,"internalType":"uint256","name":"amount","type":"uint256"}],"name":"TokenMinted","type":"event"},{"anonymous":false,"inputs":[{"indexed":true,"internalType":"address","name":"token","type":"address"},{"indexed":true,"internalType":"address","name":"from","type":"address"},{"indexed":true,"internalType":"address","name":"to","type":"address"},{"indexed":false,"internalType":"uint256","name":"amount","type":"uint256"}],"name":"TokenTransferred","type":"event"},{"inputs":[{"internalType":"address","name":"token","type":"address"},{"internalType":"address","name":"owner","type":"address"},{"internalType":"address","name":"spender","type":"address"}],"name":"allowance","outputs":[{"internalType":"uint256","name":"","type":"uint256"}],"stateMutability":"view","type":"function"},{"inputs":[{"internalType":"address","name":"account","type":"address"},{"internalType":"address","name":"token","type":"address"}],"name":"associateToken","outputs":[{"internalType":"int64","name":"","type":"int64"}],"stateMutability":"nonpayable","type":"function"},{"inputs":[{"internalType":"address","name":"token","type":"address"},{"internalType":"address","name":"account","type":"address"}],"name":"balanceOf","outputs":[{"internalType":"uint256","name":"","type":"uint256"}],"stateMutability":"view","type":"function"},{"inputs":[{"internalType":"address","name":"token","type":"address"},{"internalType":"uint256","name":"amount","type":"uint256"},{"internalType":"bytes[]","name":"","type":"bytes[]"}],"name":"burnToken","outputs":[{"internalType":"int64","name":"","type":"int64"}],"stateMutability":"nonpayable","type":"function"},{"inputs":[{"components":[{"internalType":"string","name":"name","type":"string"},{"internalType":"string","name":"symbol","type":"string"},{"internalType":"address","name":"treasury","type":"address"},{"internalType":"string","name":"memo","type":"string"},{"internalType":"bool","name":"supplyType","type":"bool"},{"internalType":"uint32","name":"maxSupply","type":"uint32"},{"internalType":"bool","name":"freezeDefault","type":"bool"},{"internalType":"address[]","name":"freezeKey","type":"address[]"},{"internalType":"address[]","name":"wipeKey","type":"address[]"},{"internalType":"address[]","name":"supplyKey","type":"address[]"},{"internalType":"address[]","name":"adminKey","type":"address[]"},{"internalType":"address[]","name":"kycKey","type":"address[]"},{"internalType":"uint8","name":"decimals","type":"uint8"}],"internalType":"struct IHederaTokenService.HederaToken","name":"token","type":"tuple"},{"internalType":"uint256","name":"initialTotalSupply","type":"uint256"},{"internalType":"uint8[]","name":"keys","type":"uint8[]"},{"internalType":"address[]","name":"keyAddresses","type":"address[]"}],"name":"createToken","outputs":[{"internalType":"int64","name":"responseCode","type":"int64"},{"internalType":"address","name":"tokenAddress","type":"address"}],"stateMutability":"payable","type":"function"},{"inputs":[{"internalType":"address","name":"account","type":"address"},{"internalType":"address","name":"token","type":"address"}],"name":"disassociateToken","outputs":[{"internalType":"int64","name":"","type":"int64"}],"stateMutability":"nonpayable","type":"function"},{"inputs":[{"internalType":"address","name":"token","type":"address"}],"name":"getLastTransfer","outputs":[{"components":[{"internalType":"address","name":"from","type":"address"},{"internalType":"address","name":"to","type":"address"},{"internalType":"uint256","name":"amount","type":"uint256"}],"internalType":"struct MockHederaTokenService.Transfer","name":"","type":"tuple"}],"stateMutability":"view","type":"function"},{"inputs":[],"name":"getMockHtsPrecompile","outputs":[{"internalType":"address","name":"","type":"address"}],"stateMutability":"view","type":"function"},{"inputs":[],"name":"getRecordedCalls","outputs":[{"internalType":"string[]","name":"","type":"string[]"}],"stateMutability":"view","type":"function"},{"inputs":[],"name":"getSkipAllowanceChecks","outputs":[{"internalType":"bool","name":"","type":"bool"}],"stateMutability":"view","type":"function"},{"inputs":[{"internalType":"address","name":"token","type":"address"}],"name":"getSupplyKeyHolder","outputs":[{"internalType":"address","name":"","type":"address"}],"stateMutability":"view","type":"function"},{"inputs":[{"internalType":"address","name":"token","type":"address"},{"internalType":"address","name":"supplyAddress","type":"address"}],"name":"isSupplyKey","outputs":[{"internalType":"bool","name":"","type":"bool"}],"stateMutability":"view","type":"function"},{"inputs":[{"internalType":"address","name":"account","type":"address"},{"internalType":"address","name":"token","type":"address"}],"name":"isTokenAssociated","outputs":[{"internalType":"bool","name":"","type":"bool"}],"stateMutability":"view","type":"function"},{"inputs":[{"internalType":"address","name":"token","type":"address"},{"internalType":"uint256","name":"amount","type":"uint256"},{"internalType":"bytes[]","name":"","type":"bytes[]"}],"name":"mintToken","outputs":[{"internalType":"int64","name":"","type":"int64"}],"stateMutability":"nonpayable","type":"function"},{"inputs":[{"internalType":"int64","name":"responseCode","type":"int64"},{"internalType":"address","name":"tokenAddress","type":"address"}],"name":"mockCreateTokenResponse","outputs":[],"stateMutability":"nonpayable","type":"function"},{"inputs":[{"internalType":"address","name":"token","type":"address"},{"internalType":"address","name":"supplyAddress","type":"address"},{"internalType":"bool","name":"result","type":"bool"}],"name":"mockIsSupplyKey","outputs":[],"stateMutability":"nonpayable","type":"function"},{"inputs":[{"internalType":"address","name":"token","type":"address"},{"internalType":"address","name":"owner","type":"address"},{"internalType":"address","name":"spender","type":"address"},{"internalType":"uint256","name":"amount","type":"uint256"}],"name":"setAllowance","outputs":[],"stateMutability":"nonpayable","type":"function"},{"inputs":[{"internalType":"address","name":"token","type":"address"},{"internalType":"bool","name":"enabled","type":"bool"}],"name":"setMintingEnabled","outputs":[],"stateMutability":"nonpayable","type":"function"},{"inputs":[{"internalType":"address","name":"_mockHtsPrecompile","type":"address"}],"name":"setMockHtsPrecompile","outputs":[],"stateMutability":"nonpayable","type":"function"},{"inputs":[{"internalType":"bool","name":"skip","type":"bool"}],"name":"setSkipAllowanceChecks","outputs":[],"stateMutability":"nonpayable","type":"function"},{"inputs":[{"internalType":"address","name":"token","type":"address"},{"internalType":"address","name":"supplyKeyHolder","type":"address"}],"name":"setSupplyKeyHolder","outputs":[],"stateMutability":"nonpayable","type":"function"},{"inputs":[{"internalType":"address","name":"account","type":"address"},{"internalType":"address","name":"token","type":"address"},{"internalType":"bool","name":"associated","type":"bool"}],"name":"setTokenAssociated","outputs":[],"stateMutability":"nonpayable","type":"function"},{"inputs":[{"internalType":"address","name":"lynxToken","type":"address"},{"internalType":"address","name":"sauceToken","type":"address"},{"internalType":"address","name":"clxyToken","type":"address"},{"internalType":"address","name":"lynxMinter","type":"address"}],"name":"setupTokens","outputs":[],"stateMutability":"nonpayable","type":"function"},{"inputs":[{"internalType":"address","name":"token","type":"address"},{"internalType":"address","name":"from","type":"address"},{"internalType":"address","name":"to","type":"address"},{"internalType":"uint256","name":"amount","type":"uint256"}],"name":"transferToken","outputs":[{"internalType":"int64","name":"","type":"int64"}],"stateMutability":"nonpayable","type":"function"},{"stateMutability":"payable","type":"receive"}],"devdoc":{"details":"Comprehensive mock implementation of the Hedera Token Service for testing This contract implements all the required functionality to test the LynxMinter contract","kind":"dev","methods":{"allowance(address,address,address)":{"details":"Get the allowance of tokens that a spender can use from an owner","params":{"owner":"The owner of the tokens","spender":"The spender who can use the tokens","token":"The token to check allowance for"},"returns":{"_0":"The amount of tokens the spender can use"}},"associateToken(address,address)":{"details":"Associate a token with an account","params":{"account":"The account to associate the token with","token":"The token to associate"},"returns":{"_0":"A response code (0 = success)"}},"balanceOf(address,address)":{"details":"Get the balance of tokens for an account","params":{"account":"The account to check the balance for","token":"The token to check the balance of"},"returns":{"_0":"The balance of tokens"}},"burnToken(address,uint256,bytes[])":{"details":"Burn tokens","params":{"amount":"The amount to burn","token":"The token to burn"},"returns":{"_0":"A response code (0 = success)"}},"createToken((string,string,address,string,bool,uint32,bool,address[],address[],address[],address[],address[],uint8),uint256,uint8[],address[])":{"details":"Create a new token","params":{"initialTotalSupply":"The initial supply to mint","keyAddresses":"The addresses for each key","keys":"The key types to set","token":"The token configuration"},"returns":{"responseCode":"A response code (0 = success)","tokenAddress":"The address of the created token"}},"disassociateToken(address,address)":{"details":"Disassociate a token from an account","params":{"account":"The account to disassociate the token from","token":"The token to disassociate"},"returns":{"_0":"A response code (0 = success)"}},"getLastTransfer(address)":{"details":"Get the last transfer for a token","params":{"token":"The token to get the last transfer for"},"returns":{"_0":"The last transfer (from, to, amount)"}},"getMockHtsPrecompile()":{"details":"Get the mock HTS precompile address","returns":{"_0":"The mock HTS precompile address"}},"getRecordedCalls()":{"details":"Get all recorded calls","returns":{"_0":"Array of recorded calls"}},"getSkipAllowanceChecks()":{"details":"Get whether allowance checks are being skipped","returns":{"_0":"Whether allowance checks are being skipped"}},"getSupplyKeyHolder(address)":{"details":"Get the supply key holder for a token (test helper)"},"isSupplyKey(address,address)":{"details":"Check if an address has the supply key for a token","params":{"supplyAddress":"The address to check","token":"The token to check"},"returns":{"_0":"True if the address has the supply key"}},"isTokenAssociated(address,address)":{"details":"Check if a token is associated with an account (test helper)"},"mintToken(address,uint256,bytes[])":{"details":"Mint new tokens","params":{"amount":"The amount to mint","token":"The token to mint"},"returns":{"_0":"A response code (0 = success)"}},"mockCreateTokenResponse(int64,address)":{"details":"Mock the response for createToken (test helper)"},"mockIsSupplyKey(address,address,bool)":{"details":"Mock the response for isSupplyKey (test helper)"},"setAllowance(address,address,address,uint256)":{"details":"Set the allowance of tokens for a spender (test helper)"},"setMintingEnabled(address,bool)":{"details":"Set whether minting is enabled for a token (test helper)"},"setMockHtsPrecompile(address)":{"details":"Set the mock HTS precompile address","params":{"_mockHtsPrecompile":"The address to use as the mock HTS precompile"}},"setSkipAllowanceChecks(bool)":{"details":"Set whether to skip allowance checks","params":{"skip":"Whether to skip allowance checks"}},"setSupplyKeyHolder(address,address)":{"details":"Set the supply key holder for a token (test helper)"},"setTokenAssociated(address,address,bool)":{"details":"Set a token as associated with an account (test helper)"},"setupTokens(address,address,address,address)":{"details":"Setup test tokens with initial configurations","params":{"clxyToken":"The CLXY token address","lynxMinter":"The LynxMinter contract address","lynxToken":"The LYNX token address","sauceToken":"The SAUCE token address"}},"transferToken(address,address,address,uint256)":{"details":"Transfer tokens from one account to another","params":{"amount":"The amount to transfer","from":"The account to transfer from","to":"The account to transfer to","token":"The token to transfer"},"returns":{"_0":"A response code (0 = success)"}}},"title":"MockHederaTokenService","version":1},"evm":{"bytecode":{"linkReferences":{},"object":"6080604052600a805460ff1916905534801561001a57600080fd5b507fa15bc60c955c405d20d9149c709e2460f1c2d9a497496a7f46004d1772c3054c8054600160ff1991821681179092557fc3a24b0501bd2c13a7e57f2db4369ec4c223447539fc0724a9d55ac4a06ebd4d80548216831790557fcbc4e5fb02c3d1de23a9f1e014b4d2ee5aeaea9505df5e855c9210bf472495af80548216831790557fabd6e7cb50984ff9c2f3e18a2660c3353dadf4e3291deeb275dae2cd1e44fe0580546001600160a01b03199081169091557f91da3fd0782e51c6b3986e9e672fd566868e71f3dbc2d6c2cd6fbb3e361af2a78054821690557f2e174c10e159ea99b867ce3205125c24a42d128804e4070ed6fcc8cc98166aa080549091169055306000908152600260208181526040808420868552909152808320805485168617905590825280822080548416851790556003825281208054909216909217905561231990819061016f90396000f3fe60806040526004361061014e5760003560e01c806369bf64d1116100b6578063ac9e6d7a1161006f578063ac9e6d7a14610592578063c0974946146105db578063cc2456b71461069d578063ec12dc02146106f2578063f3fc76fa14610712578063f7888aec1461073257600080fd5b806369bf64d1146103c8578063725fe8a4146103f6578063927da1051461043f5780639eb50f1b1461049d578063a7070373146104ed578063a7796a901461053d57600080fd5b80633fda8941116101085780633fda8941146102a25780634360b7ec146102c257806349146bde146102e45780634b8555a3146103045780634d2c53111461033d5780635c34c68a146103a857600080fd5b80629f7c131461015a57806301b620ca1461018357806303bd8900146101b85780631abb194a146101f757806324a94e011461023d5780632c54de4f1461026f57600080fd5b3661015557005b600080fd5b34801561016657600080fd5b50600a5460ff165b60405190151581526020015b60405180910390f35b6101966101913660046118db565b610776565b6040805160079390930b83526001600160a01b0390911660208301520161017a565b3480156101c457600080fd5b506101f56101d3366004611af6565b600780546001600160a01b0319166001600160a01b0392909216919091179055565b005b34801561020357600080fd5b506101f5610212366004611b11565b6001600160a01b03919091166000908152600360205260409020805460ff1916911515919091179055565b34801561024957600080fd5b506007546001600160a01b03165b6040516001600160a01b03909116815260200161017a565b34801561027b57600080fd5b5061028f61028a366004611b44565b610b04565b60405160079190910b815260200161017a565b3480156102ae57600080fd5b5061028f6102bd366004611b8f565b610e3b565b3480156102ce57600080fd5b506102d7610ea0565b60405161017a9190611c09565b3480156102f057600080fd5b5061028f6102ff366004611b8f565b610f79565b34801561031057600080fd5b5061025761031f366004611af6565b6001600160a01b039081166000908152600460205260409020541690565b34801561034957600080fd5b506101f5610358366004611c6b565b6007805467ffffffffffffffff909316600160a01b0267ffffffffffffffff60a01b1990931692909217909155600880546001600160a01b039092166001600160a01b0319909216919091179055565b3480156103b457600080fd5b5061016e6103c3366004611b8f565b610fe0565b3480156103d457600080fd5b506101f56103e3366004611c8f565b600a805460ff1916911515919091179055565b34801561040257600080fd5b5061016e610411366004611b8f565b6001600160a01b03918216600090815260026020908152604080832093909416825291909152205460ff1690565b34801561044b57600080fd5b5061048f61045a366004611caa565b6001600160a01b0392831660009081526001602090815260408083209486168352938152838220929094168152925290205490565b60405190815260200161017a565b3480156104a957600080fd5b506104bd6104b8366004611af6565b61103f565b6040805182516001600160a01b03908116825260208085015190911690820152918101519082015260600161017a565b3480156104f957600080fd5b506101f5610508366004611b44565b6001600160a01b0393841660009081526001602090815260408083209587168352948152848220939095168152919093522055565b34801561054957600080fd5b506101f5610558366004611ced565b6001600160a01b03928316600090815260026020908152604080832094909516825292909252919020805460ff1916911515919091179055565b34801561059e57600080fd5b506101f56105ad366004611b8f565b6001600160a01b03918216600090815260046020526040902080546001600160a01b03191691909216179055565b3480156105e757600080fd5b506101f56105f6366004611d27565b6001600160a01b0393841660008181526003602090815260408083208054600160ff19918216811790925597891680855282852080548a168317905596891680855282852080548a168317905595909816808452600283528184208585528352818420805489168a179055958352808320805488168917905593825283822080549096169096179094558352600490935291902080546001600160a01b0319169091179055565b3480156106a957600080fd5b506101f56106b8366004611ced565b6001600160a01b03928316600090815260096020908152604080832094909516825292909252919020805460ff1916911515919091179055565b3480156106fe57600080fd5b5061028f61070d366004611d7b565b61113c565b34801561071e57600080fd5b5061028f61072d366004611d7b565b611291565b34801561073e57600080fd5b5061048f61074d366004611b8f565b6001600160a01b0391821660009081526020818152604080832093909416825291909152205490565b60085460009081906001600160a01b03161561094757505060088054600780546001600160a01b0319831690935567ffffffffffffffff60a01b19831681556001600160a01b039091166000818152600360205260409020805460ff19166001179055600160a01b909204900b908415610815576001600160a01b038082166000908152602081815260408083208a8201519094168352929052208590555b6040808701516001600160a01b03908116600090815260026020908152838220928516825291909152908120805460ff191660011790555b84518110156108f05784818151811061086857610868611e5e565b602002602001015160ff166004036108de5783818151811061088c5761088c611e5e565b602002602001015160046000846001600160a01b03166001600160a01b0316815260200190815260200160002060006101000a8154816001600160a01b0302191690836001600160a01b031602179055505b806108e881611e8a565b91505061084d565b50806001600160a01b03167f6596c1670eb3390048d23721809c3da5d3f531375ac0e2cab0f77a808ed6433187600001518860200151896040015160405161093a93929190611ea3565b60405180910390a2610afb565b855160405161095d914291339190602001611ee1565b60408051601f1981840301815291815281516020928301206001600160a01b038116600090815260039093529120805460ff19166001179055905084156109c9576001600160a01b038082166000908152602081815260408083208a8201519094168352929052208590555b6040808701516001600160a01b03908116600090815260026020908152838220928516825291909152908120805460ff191660011790555b8451811015610aa457848181518110610a1c57610a1c611e5e565b602002602001015160ff16600403610a9257838181518110610a4057610a40611e5e565b602002602001015160046000846001600160a01b03166001600160a01b0316815260200190815260200160002060006101000a8154816001600160a01b0302191690836001600160a01b031602179055505b80610a9c81611e8a565b915050610a01565b50806001600160a01b03167f6596c1670eb3390048d23721809c3da5d3f531375ac0e2cab0f77a808ed64331876000015188602001518960400151604051610aee93929190611ea3565b60405180910390a2600091505b94509492505050565b6001600160a01b03808416600090815260026020908152604080832093881683529290529081205460ff16610b3c5750600019610e33565b6001600160a01b0380841660009081526002602090815260408083209389168352929052205460ff16610b725750600019610e33565b6001600160a01b0380861660009081526020818152604080832093881683529290522054821115610ba65750600119610e33565b6001600160a01b0384163314801590610bc857506001600160a01b0384163014155b8015610bd75750600a5460ff16155b15610c63576001600160a01b03808616600090815260016020908152604080832093881683529281528282203383529052205482811015610c1d57600219915050610e33565b6001600160a01b038087166000908152600160209081526040808320938916835292815282822033835290529081208054859290610c5c908490611f20565b9091555050505b6001600160a01b0380861660009081526020818152604080832093881683529290529081208054849290610c98908490611f20565b90915550506001600160a01b0380861660009081526020818152604080832093871683529290529081208054849290610cd2908490611f33565b90915550506001600160a01b038086166000908152600560209081526040808320815160608101835289861681528886168185019081529281018881528254600181810185559387529486209151600390950290910180549487166001600160a01b03199586161781559251918301805492909616919093161790935551600290920191909155610d62856113d7565b610d6b856113d7565b610d7485611540565b604051602001610d8693929190611f46565b60408051601f19818403018152919052600680546001810182556000919091529091507ff652222313e28459528d920b65115c16c04f3efc82aaedc97be59f3f377c0d3f01610dd58282612051565b50836001600160a01b0316856001600160a01b0316876001600160a01b03167f9af266b6ca4909f988dc948fb50ad15153abbe525351881bad4fa858be96515c86604051610e2591815260200190565b60405180910390a460009150505b949350505050565b6001600160a01b03808316600081815260026020908152604080832094861680845294909152808220805460ff1916905551909291907f6ba8f0debf54740777149db87bd08717b4dbdcb36073d53cdc784019dafac16f908490a35060005b92915050565b60606006805480602002602001604051908101604052809291908181526020016000905b82821015610f70578382906000526020600020018054610ee390611fc8565b80601f0160208091040260200160405190810160405280929190818152602001828054610f0f90611fc8565b8015610f5c5780601f10610f3157610100808354040283529160200191610f5c565b820191906000526020600020905b815481529060010190602001808311610f3f57829003601f168201915b505050505081526020019060010190610ec4565b50505050905090565b6001600160a01b03808316600081815260026020908152604080832094861680845294909152808220805460ff1916600117905551909291907f6ba8f0debf54740777149db87bd08717b4dbdcb36073d53cdc784019dafac16f908490a350600092915050565b6001600160a01b03808316600090815260096020908152604080832093851683529290529081205460ff16801561101b576001915050610e9a565b50506001600160a01b03918216600090815260046020526040902054821691161490565b60408051606081018252600080825260208083018290528284018290526001600160a01b03851682526005905291909120546110ba5760405162461bcd60e51b8152602060048201526015602482015274139bc81d1c985b9cd9995c9cc81c9958dbdc991959605a1b60448201526064015b60405180910390fd5b6001600160a01b038216600090815260056020526040902080546110e090600190611f20565b815481106110f0576110f0611e5e565b600091825260209182902060408051606081018252600390930290910180546001600160a01b039081168452600182015416938301939093526002909201549181019190915292915050565b6001600160a01b03831660009081526003602052604081205460ff166111af5760405162461bcd60e51b815260206004820152602260248201527f4d696e74696e67206e6f7420656e61626c656420666f72207468697320746f6b60448201526132b760f11b60648201526084016110b1565b6001600160a01b038085166000908152600460205260409020541680158015906111e25750336001600160a01b03821614155b1561121157604051630d27cbf560e11b81526001600160a01b03861660048201523360248201526044016110b1565b6001600160a01b03851660009081526020818152604080832033845290915281208054869290611242908490611f33565b90915550506040518481526001600160a01b038616907fb9144c96c86541f6fa89c9f2f02495cccf4b08cd6643e26d34ee00aa586558a8906020015b60405180910390a2506000949350505050565b6001600160a01b0380841660009081526004602052604081205490911680158015906112c65750336001600160a01b03821614155b156112f557604051630d27cbf560e11b81526001600160a01b03861660048201523360248201526044016110b1565b6001600160a01b0385166000908152602081815260408083203384529091529020548411156113665760405162461bcd60e51b815260206004820152601c60248201527f496e73756666696369656e742062616c616e636520746f206275726e0000000060448201526064016110b1565b6001600160a01b03851660009081526020818152604080832033845290915281208054869290611397908490611f20565b90915550506040518481526001600160a01b038616907f1af5163f80e79b5e554f61e1d052084d3a3fe1166e42a265798c4e2ddce8ffa29060200161127e565b60408051602880825260608281019093526000919060208201818036833701905050905060005b6014811015611517576000611414826013611f20565b61141f906008612111565b61142a90600261220c565b61143d906001600160a01b03871661222e565b60f81b9050600060108260f81c6114549190612242565b60f81b905060008160f81c601061146b9190612264565b8360f81c6114799190612287565b60f81b90506114878261166c565b85611493866002612111565b815181106114a3576114a3611e5e565b60200101906001600160f81b031916908160001a9053506114c38161166c565b856114cf866002612111565b6114da906001611f33565b815181106114ea576114ea611e5e565b60200101906001600160f81b031916908160001a905350505050808061150f90611e8a565b9150506113fe565b508060405160200161152991906122a0565b604051602081830303815290604052915050919050565b6060816000036115675750506040805180820190915260018152600360fc1b602082015290565b8160005b8115611591578061157b81611e8a565b915061158a9050600a8361222e565b915061156b565b60008167ffffffffffffffff8111156115ac576115ac6116a7565b6040519080825280601f01601f1916602001820160405280156115d6576020820181803683370190505b509050815b8515611663576115ec600182611f20565b905060006115fb600a8861222e565b61160690600a612111565b6116109088611f20565b61161b9060306122ca565b905060008160f81b90508084848151811061163857611638611e5e565b60200101906001600160f81b031916908160001a90535061165a600a8961222e565b975050506115db565b50949350505050565b6000600a60f883901c10156116935761168a60f883901c60306122ca565b60f81b92915050565b61168a60f883901c60576122ca565b919050565b634e487b7160e01b600052604160045260246000fd5b6040516101a0810167ffffffffffffffff811182821017156116e1576116e16116a7565b60405290565b604051601f8201601f1916810167ffffffffffffffff81118282101715611710576117106116a7565b604052919050565b600067ffffffffffffffff831115611732576117326116a7565b611745601f8401601f19166020016116e7565b905082815283838301111561175957600080fd5b828260208301376000602084830101529392505050565b600082601f83011261178157600080fd5b61179083833560208501611718565b9392505050565b80356001600160a01b03811681146116a257600080fd5b803580151581146116a257600080fd5b803563ffffffff811681146116a257600080fd5b600067ffffffffffffffff8211156117ec576117ec6116a7565b5060051b60200190565b600082601f83011261180757600080fd5b8135602061181c611817836117d2565b6116e7565b82815260059290921b8401810191818101908684111561183b57600080fd5b8286015b8481101561185d5761185081611797565b835291830191830161183f565b509695505050505050565b803560ff811681146116a257600080fd5b600082601f83011261188a57600080fd5b8135602061189a611817836117d2565b82815260059290921b840181019181810190868411156118b957600080fd5b8286015b8481101561185d576118ce81611868565b83529183019183016118bd565b600080600080608085870312156118f157600080fd5b843567ffffffffffffffff8082111561190957600080fd5b908601906101a0828903121561191e57600080fd5b6119266116bd565b82358281111561193557600080fd5b6119418a828601611770565b82525060208301358281111561195657600080fd5b6119628a828601611770565b60208301525061197460408401611797565b604082015260608301358281111561198b57600080fd5b6119978a828601611770565b6060830152506119a9608084016117ae565b60808201526119ba60a084016117be565b60a08201526119cb60c084016117ae565b60c082015260e0830135828111156119e257600080fd5b6119ee8a8286016117f6565b60e0830152506101008084013583811115611a0857600080fd5b611a148b8287016117f6565b8284015250506101208084013583811115611a2e57600080fd5b611a3a8b8287016117f6565b8284015250506101408084013583811115611a5457600080fd5b611a608b8287016117f6565b8284015250506101608084013583811115611a7a57600080fd5b611a868b8287016117f6565b828401525050610180611a9a818501611868565b908201529550602087013594506040870135915080821115611abb57600080fd5b611ac788838901611879565b93506060870135915080821115611add57600080fd5b50611aea878288016117f6565b91505092959194509250565b600060208284031215611b0857600080fd5b61179082611797565b60008060408385031215611b2457600080fd5b611b2d83611797565b9150611b3b602084016117ae565b90509250929050565b60008060008060808587031215611b5a57600080fd5b611b6385611797565b9350611b7160208601611797565b9250611b7f60408601611797565b9396929550929360600135925050565b60008060408385031215611ba257600080fd5b611bab83611797565b9150611b3b60208401611797565b60005b83811015611bd4578181015183820152602001611bbc565b50506000910152565b60008151808452611bf5816020860160208601611bb9565b601f01601f19169290920160200192915050565b6000602080830181845280855180835260408601915060408160051b870101925083870160005b82811015611c5e57603f19888603018452611c4c858351611bdd565b94509285019290850190600101611c30565b5092979650505050505050565b60008060408385031215611c7e57600080fd5b82358060070b8114611bab57600080fd5b600060208284031215611ca157600080fd5b611790826117ae565b600080600060608486031215611cbf57600080fd5b611cc884611797565b9250611cd660208501611797565b9150611ce460408501611797565b90509250925092565b600080600060608486031215611d0257600080fd5b611d0b84611797565b9250611d1960208501611797565b9150611ce4604085016117ae565b60008060008060808587031215611d3d57600080fd5b611d4685611797565b9350611d5460208601611797565b9250611d6260408601611797565b9150611d7060608601611797565b905092959194509250565b600080600060608486031215611d9057600080fd5b611d9984611797565b9250602080850135925060408086013567ffffffffffffffff80821115611dbf57600080fd5b818801915088601f830112611dd357600080fd5b8135611de1611817826117d2565b81815260059190911b8301850190858101908b831115611e0057600080fd5b8685015b83811015611e4c57803585811115611e1c5760008081fd5b8601603f81018e13611e2e5760008081fd5b611e3e8e8a8301358a8401611718565b845250918701918701611e04565b50809750505050505050509250925092565b634e487b7160e01b600052603260045260246000fd5b634e487b7160e01b600052601160045260246000fd5b600060018201611e9c57611e9c611e74565b5060010190565b606081526000611eb66060830186611bdd565b8281036020840152611ec88186611bdd565b91505060018060a01b0383166040830152949350505050565b8381526bffffffffffffffffffffffff198360601b16602082015260008251611f11816034850160208701611bb9565b91909101603401949350505050565b81810381811115610e9a57610e9a611e74565b80820180821115610e9a57610e9a611e74565b6d0e8e4c2dce6cccae4a8ded6cadc560931b815260008451611f6f81600e850160208901611bb9565b8083019050600b60fa1b80600e8301528551611f9281600f850160208a01611bb9565b600f9201918201528351611fad816010840160208801611bb9565b602960f81b6010929091019182015260110195945050505050565b600181811c90821680611fdc57607f821691505b602082108103611ffc57634e487b7160e01b600052602260045260246000fd5b50919050565b601f82111561204c57600081815260208120601f850160051c810160208610156120295750805b601f850160051c820191505b8181101561204857828155600101612035565b5050505b505050565b815167ffffffffffffffff81111561206b5761206b6116a7565b61207f816120798454611fc8565b84612002565b602080601f8311600181146120b4576000841561209c5750858301515b600019600386901b1c1916600185901b178555612048565b600085815260208120601f198616915b828110156120e3578886015182559484019460019091019084016120c4565b50858210156121015787850151600019600388901b60f8161c191681555b5050505050600190811b01905550565b8082028115828204841417610e9a57610e9a611e74565b600181815b8085111561216357816000190482111561214957612149611e74565b8085161561215657918102915b93841c939080029061212d565b509250929050565b60008261217a57506001610e9a565b8161218757506000610e9a565b816001811461219d57600281146121a7576121c3565b6001915050610e9a565b60ff8411156121b8576121b8611e74565b50506001821b610e9a565b5060208310610133831016604e8410600b84101617156121e6575081810a610e9a565b6121f08383612128565b806000190482111561220457612204611e74565b029392505050565b6000611790838361216b565b634e487b7160e01b600052601260045260246000fd5b60008261223d5761223d612218565b500490565b600060ff83168061225557612255612218565b8060ff84160491505092915050565b60ff818116838216029081169081811461228057612280611e74565b5092915050565b60ff8281168282160390811115610e9a57610e9a611e74565b61060f60f31b8152600082516122bd816002850160208701611bb9565b9190910160020192915050565b60ff8181168382160190811115610e9a57610e9a611e7456fea2646970667358221220c4972ad2e68e3149a6bda06f94c2cb1349dc78fd7cfa47d31e9a1bc5b212bdb164736f6c63430008120033","opcodes":"PUSH1 0x80 PUSH1 0x40 MSTORE PUSH1 0xA DUP1 SLOAD PUSH1 0xFF NOT AND SWAP1 SSTORE CALLVALUE DUP1 ISZERO PUSH2 0x1A JUMPI PUSH1 0x0 DUP1 REVERT JUMPDEST POP PUSH32 0xA15BC60C955C405D20D9149C709E2460F1C2D9A497496A7F46004D1772C3054C DUP1 SLOAD PUSH1 0x1 PUSH1 0xFF NOT SWAP2 DUP3 AND DUP2 OR SWAP1 SWAP3 SSTORE PUSH32 0xC3A24B0501BD2C13A7E57F2DB4369EC4C223447539FC0724A9D55AC4A06EBD4D DUP1 SLOAD DUP3 AND DUP4 OR SWAP1 SSTORE PUSH32 0xCBC4E5FB02C3D1DE23A9F1E014B4D2EE5AEAEA9505DF5E855C9210BF472495AF DUP1 SLOAD DUP3 AND DUP4 OR SWAP1 SSTORE PUSH32 0xABD6E7CB50984FF9C2F3E18A2660C3353DADF4E3291DEEB275DAE2CD1E44FE05 DUP1 SLOAD PUSH1 0x1 PUSH1 0x1 PUSH1 0xA0 SHL SUB NOT SWAP1 DUP2 AND SWAP1 SWAP2 SSTORE PUSH32 0x91DA3FD0782E51C6B3986E9E672FD566868E71F3DBC2D6C2CD6FBB3E361AF2A7 DUP1 SLOAD DUP3 AND SWAP1 SSTORE PUSH32 0x2E174C10E159EA99B867CE3205125C24A42D128804E4070ED6FCC8CC98166AA0 DUP1 SLOAD SWAP1 SWAP2 AND SWAP1 SSTORE ADDRESS PUSH1 0x0 SWAP1 DUP2 MSTORE PUSH1 0x2 PUSH1 0x20 DUP2 DUP2 MSTORE PUSH1 0x40 DUP1 DUP5 KECCAK256 DUP7 DUP6 MSTORE SWAP1 SWAP2 MSTORE DUP1 DUP4 KECCAK256 DUP1 SLOAD DUP6 AND DUP7 OR SWAP1 SSTORE SWAP1 DUP3 MSTORE DUP1 DUP3 KECCAK256 DUP1 SLOAD DUP5 AND DUP6 OR SWAP1 SSTORE PUSH1 0x3 DUP3 MSTORE DUP2 KECCAK256 DUP1 SLOAD SWAP1 SWAP3 AND SWAP1 SWAP3 OR SWAP1 SSTORE PUSH2 0x2319 SWAP1 DUP2 SWAP1 PUSH2 0x16F SWAP1 CODECOPY PUSH1 0x0 RETURN INVALID PUSH1 0x80 PUSH1 0x40 MSTORE PUSH1 0x4 CALLDATASIZE LT PUSH2 0x14E JUMPI PUSH1 0x0 CALLDATALOAD PUSH1 0xE0 SHR DUP1 PUSH4 0x69BF64D1 GT PUSH2 0xB6 JUMPI DUP1 PUSH4 0xAC9E6D7A GT PUSH2 0x6F JUMPI DUP1 PUSH4 0xAC9E6D7A EQ PUSH2 0x592 JUMPI DUP1 PUSH4 0xC0974946 EQ PUSH2 0x5DB JUMPI DUP1 PUSH4 0xCC2456B7 EQ PUSH2 0x69D JUMPI DUP1 PUSH4 0xEC12DC02 EQ PUSH2 0x6F2 JUMPI DUP1 PUSH4 0xF3FC76FA EQ PUSH2 0x712 JUMPI DUP1 PUSH4 0xF7888AEC EQ PUSH2 0x732 JUMPI PUSH1 0x0 DUP1 REVERT JUMPDEST DUP1 PUSH4 0x69BF64D1 EQ PUSH2 0x3C8 JUMPI DUP1 PUSH4 0x725FE8A4 EQ PUSH2 0x3F6 JUMPI DUP1 PUSH4 0x927DA105 EQ PUSH2 0x43F JUMPI DUP1 PUSH4 0x9EB50F1B EQ PUSH2 0x49D JUMPI DUP1 PUSH4 0xA7070373 EQ PUSH2 0x4ED JUMPI DUP1 PUSH4 0xA7796A90 EQ PUSH2 0x53D JUMPI PUSH1 0x0 DUP1 REVERT JUMPDEST DUP1 PUSH4 0x3FDA8941 GT PUSH2 0x108 JUMPI DUP1 PUSH4 0x3FDA8941 EQ PUSH2 0x2A2 JUMPI DUP1 PUSH4 0x4360B7EC EQ PUSH2 0x2C2 JUMPI DUP1 PUSH4 0x49146BDE EQ PUSH2 0x2E4 JUMPI DUP1 PUSH4 0x4B8555A3 EQ PUSH2 0x304 JUMPI DUP1 PUSH4 0x4D2C5311 EQ PUSH2 0x33D JUMPI DUP1 PUSH4 0x5C34C68A EQ PUSH2 0x3A8 JUMPI PUSH1 0x0 DUP1 REVERT JUMPDEST DUP1 PUSH3 0x9F7C13 EQ PUSH2 0x15A JUMPI DUP1 PUSH4 0x1B620CA EQ PUSH2 0x183 JUMPI DUP1 PUSH4 0x3BD8900 EQ PUSH2 0x1B8 JUMPI DUP1 PUSH4 0x1ABB194A EQ PUSH2 0x1F7 JUMPI DUP1 PUSH4 0x24A94E01 EQ PUSH2 0x23D JUMPI DUP1 PUSH4 0x2C54DE4F EQ PUSH2 0x26F JUMPI PUSH1 0x0 DUP1 REVERT JUMPDEST CALLDATASIZE PUSH2 0x155 JUMPI STOP JUMPDEST PUSH1 0x0 DUP1 REVERT JUMPDEST CALLVALUE DUP1 ISZERO PUSH2 0x166 JUMPI PUSH1 0x0 DUP1 REVERT JUMPDEST POP PUSH1 0xA SLOAD PUSH1 0xFF AND JUMPDEST PUSH1 0x40 MLOAD SWAP1 ISZERO ISZERO DUP2 MSTORE PUSH1 0x20 ADD JUMPDEST PUSH1 0x40 MLOAD DUP1 SWAP2 SUB SWAP1 RETURN JUMPDEST PUSH2 0x196 PUSH2 0x191 CALLDATASIZE PUSH1 0x4 PUSH2 0x18DB JUMP JUMPDEST PUSH2 0x776 JUMP JUMPDEST PUSH1 0x40 DUP1 MLOAD PUSH1 0x7 SWAP4 SWAP1 SWAP4 SIGNEXTEND DUP4 MSTORE PUSH1 0x1 PUSH1 0x1 PUSH1 0xA0 SHL SUB SWAP1 SWAP2 AND PUSH1 0x20 DUP4 ADD MSTORE ADD PUSH2 0x17A JUMP JUMPDEST CALLVALUE DUP1 ISZERO PUSH2 0x1C4 JUMPI PUSH1 0x0 DUP1 REVERT JUMPDEST POP PUSH2 0x1F5 PUSH2 0x1D3 CALLDATASIZE PUSH1 0x4 PUSH2 0x1AF6 JUMP JUMPDEST PUSH1 0x7 DUP1 SLOAD PUSH1 0x1 PUSH1 0x1 PUSH1 0xA0 SHL SUB NOT AND PUSH1 0x1 PUSH1 0x1 PUSH1 0xA0 SHL SUB SWAP3 SWAP1 SWAP3 AND SWAP2 SWAP1 SWAP2 OR SWAP1 SSTORE JUMP JUMPDEST STOP JUMPDEST CALLVALUE DUP1 ISZERO PUSH2 0x203 JUMPI PUSH1 0x0 DUP1 REVERT JUMPDEST POP PUSH2 0x1F5 PUSH2 0x212 CALLDATASIZE PUSH1 0x4 PUSH2 0x1B11 JUMP JUMPDEST PUSH1 0x1 PUSH1 0x1 PUSH1 0xA0 SHL SUB SWAP2 SWAP1 SWAP2 AND PUSH1 0x0 SWAP1 DUP2 MSTORE PUSH1 0x3 PUSH1 0x20 MSTORE PUSH1 0x40 SWAP1 KECCAK256 DUP1 SLOAD PUSH1 0xFF NOT AND SWAP2 ISZERO ISZERO SWAP2 SWAP1 SWAP2 OR SWAP1 SSTORE JUMP JUMPDEST CALLVALUE DUP1 ISZERO PUSH2 0x249 JUMPI PUSH1 0x0 DUP1 REVERT JUMPDEST POP PUSH1 0x7 SLOAD PUSH1 0x1 PUSH1 0x1 PUSH1 0xA0 SHL SUB AND JUMPDEST PUSH1 0x40 MLOAD PUSH1 0x1 PUSH1 0x1 PUSH1 0xA0 SHL SUB SWAP1 SWAP2 AND DUP2 MSTORE PUSH1 0x20 ADD PUSH2 0x17A JUMP JUMPDEST CALLVALUE DUP1 ISZERO PUSH2 0x27B JUMPI PUSH1 0x0 DUP1 REVERT JUMPDEST POP PUSH2 0x28F PUSH2 0x28A CALLDATASIZE PUSH1 0x4 PUSH2 0x1B44 JUMP JUMPDEST PUSH2 0xB04 JUMP JUMPDEST PUSH1 0x40 MLOAD PUSH1 0x7 SWAP2 SWAP1 SWAP2 SIGNEXTEND DUP2 MSTORE PUSH1 0x20 ADD PUSH2 0x17A JUMP JUMPDEST CALLVALUE DUP1 ISZERO PUSH2 0x2AE JUMPI PUSH1 0x0 DUP1 REVERT JUMPDEST POP PUSH2 0x28F PUSH2 0x2BD CALLDATASIZE PUSH1 0x4 PUSH2 0x1B8F JUMP JUMPDEST PUSH2 0xE3B JUMP JUMPDEST CALLVALUE DUP1 ISZERO PUSH2 0x2CE JUMPI PUSH1 0x0 DUP1 REVERT JUMPDEST POP PUSH2 0x2D7 PUSH2 0xEA0 JUMP JUMPDEST PUSH1 0x40 MLOAD PUSH2 0x17A SWAP2 SWAP1 PUSH2 0x1C09 JUMP JUMPDEST CALLVALUE DUP1 ISZERO PUSH2 0x2F0 JUMPI PUSH1 0x0 DUP1 REVERT JUMPDEST POP PUSH2 0x28F PUSH2 0x2FF CALLDATASIZE PUSH1 0x4 PUSH2 0x1B8F JUMP JUMPDEST PUSH2 0xF79 JUMP JUMPDEST CALLVALUE DUP1 ISZERO PUSH2 0x310 JUMPI PUSH1 0x0 DUP1 REVERT JUMPDEST POP PUSH2 0x257 PUSH2 0x31F CALLDATASIZE PUSH1 0x4 PUSH2 0x1AF6 JUMP JUMPDEST PUSH1 0x1 PUSH1 0x1 PUSH1 0xA0 SHL SUB SWAP1 DUP2 AND PUSH1 0x0 SWAP1 DUP2 MSTORE PUSH1 0x4 PUSH1 0x20 MSTORE PUSH1 0x40 SWAP1 KECCAK256 SLOAD AND SWAP1 JUMP JUMPDEST CALLVALUE DUP1 ISZERO PUSH2 0x349 JUMPI PUSH1 0x0 DUP1 REVERT JUMPDEST POP PUSH2 0x1F5 PUSH2 0x358 CALLDATASIZE PUSH1 0x4 PUSH2 0x1C6B JUMP JUMPDEST PUSH1 0x7 DUP1 SLOAD PUSH8 0xFFFFFFFFFFFFFFFF SWAP1 SWAP4 AND PUSH1 0x1 PUSH1 0xA0 SHL MUL PUSH8 0xFFFFFFFFFFFFFFFF PUSH1 0xA0 SHL NOT SWAP1 SWAP4 AND SWAP3 SWAP1 SWAP3 OR SWAP1 SWAP2 SSTORE PUSH1 0x8 DUP1 SLOAD PUSH1 0x1 PUSH1 0x1 PUSH1 0xA0 SHL SUB SWAP1 SWAP3 AND PUSH1 0x1 PUSH1 0x1 PUSH1 0xA0 SHL SUB NOT SWAP1 SWAP3 AND SWAP2 SWAP1 SWAP2 OR SWAP1 SSTORE JUMP JUMPDEST CALLVALUE DUP1 ISZERO PUSH2 0x3B4 JUMPI PUSH1 0x0 DUP1 REVERT JUMPDEST POP PUSH2 0x16E PUSH2 0x3C3 CALLDATASIZE PUSH1 0x4 PUSH2 0x1B8F JUMP JUMPDEST PUSH2 0xFE0 JUMP JUMPDEST CALLVALUE DUP1 ISZERO PUSH2 0x3D4 JUMPI PUSH1 0x0 DUP1 REVERT JUMPDEST POP PUSH2 0x1F5 PUSH2 0x3E3 CALLDATASIZE PUSH1 0x4 PUSH2 0x1C8F JUMP JUMPDEST PUSH1 0xA DUP1 SLOAD PUSH1 0xFF NOT AND SWAP2 ISZERO ISZERO SWAP2 SWAP1 SWAP2 OR SWAP1 SSTORE JUMP JUMPDEST CALLVALUE DUP1 ISZERO PUSH2 0x402 JUMPI PUSH1 0x0 DUP1 REVERT JUMPDEST POP PUSH2 0x16E PUSH2 0x411 CALLDATASIZE PUSH1 0x4 PUSH2 0x1B8F JUMP JUMPDEST PUSH1 0x1 PUSH1 0x1 PUSH1 0xA0 SHL SUB SWAP2 DUP3 AND PUSH1 0x0 SWAP1 DUP2 MSTORE PUSH1 0x2 PUSH1 0x20 SWAP1 DUP2 MSTORE PUSH1 0x40 DUP1 DUP4 KECCAK256 SWAP4 SWAP1 SWAP5 AND DUP3 MSTORE SWAP2 SWAP1 SWAP2 MSTORE KECCAK256 SLOAD PUSH1 0xFF AND SWAP1 JUMP JUMPDEST CALLVALUE DUP1 ISZERO PUSH2 0x44B JUMPI PUSH1 0x0 DUP1 REVERT JUMPDEST POP PUSH2 0x48F PUSH2 0x45A CALLDATASIZE PUSH1 0x4 PUSH2 0x1CAA JUMP JUMPDEST PUSH1 0x1 PUSH1 0x1 PUSH1 0xA0 SHL SUB SWAP3 DUP4 AND PUSH1 0x0 SWAP1 DUP2 MSTORE PUSH1 0x1 PUSH1 0x20 SWAP1 DUP2 MSTORE PUSH1 0x40 DUP1 DUP4 KECCAK256 SWAP5 DUP7 AND DUP4 MSTORE SWAP4 DUP2 MSTORE DUP4 DUP3 KECCAK256 SWAP3 SWAP1 SWAP5 AND DUP2 MSTORE SWAP3 MSTORE SWAP1 KECCAK256 SLOAD SWAP1 JUMP JUMPDEST PUSH1 0x40 MLOAD SWAP1 DUP2 MSTORE PUSH1 0x20 ADD PUSH2 0x17A JUMP JUMPDEST CALLVALUE DUP1 ISZERO PUSH2 0x4A9 JUMPI PUSH1 0x0 DUP1 REVERT JUMPDEST POP PUSH2 0x4BD PUSH2 0x4B8 CALLDATASIZE PUSH1 0x4 PUSH2 0x1AF6 JUMP JUMPDEST PUSH2 0x103F JUMP JUMPDEST PUSH1 0x40 DUP1 MLOAD DUP3 MLOAD PUSH1 0x1 PUSH1 0x1 PUSH1 0xA0 SHL SUB SWAP1 DUP2 AND DUP3 MSTORE PUSH1 0x20 DUP1 DUP6 ADD MLOAD SWAP1 SWAP2 AND SWAP1 DUP3 ADD MSTORE SWAP2 DUP2 ADD MLOAD SWAP1 DUP3 ADD MSTORE PUSH1 0x60 ADD PUSH2 0x17A JUMP JUMPDEST CALLVALUE DUP1 ISZERO PUSH2 0x4F9 JUMPI PUSH1 0x0 DUP1 REVERT JUMPDEST POP PUSH2 0x1F5 PUSH2 0x508 CALLDATASIZE PUSH1 0x4 PUSH2 0x1B44 JUMP JUMPDEST PUSH1 0x1 PUSH1 0x1 PUSH1 0xA0 SHL SUB SWAP4 DUP5 AND PUSH1 0x0 SWAP1 DUP2 MSTORE PUSH1 0x1 PUSH1 0x20 SWAP1 DUP2 MSTORE PUSH1 0x40 DUP1 DUP4 KECCAK256 SWAP6 DUP8 AND DUP4 MSTORE SWAP5 DUP2 MSTORE DUP5 DUP3 KECCAK256 SWAP4 SWAP1 SWAP6 AND DUP2 MSTORE SWAP2 SWAP1 SWAP4 MSTORE KECCAK256 SSTORE JUMP JUMPDEST CALLVALUE DUP1 ISZERO PUSH2 0x549 JUMPI PUSH1 0x0 DUP1 REVERT JUMPDEST POP PUSH2 0x1F5 PUSH2 0x558 CALLDATASIZE PUSH1 0x4 PUSH2 0x1CED JUMP JUMPDEST PUSH1 0x1 PUSH1 0x1 PUSH1 0xA0 SHL SUB SWAP3 DUP4 AND PUSH1 0x0 SWAP1 DUP2 MSTORE PUSH1 0x2 PUSH1 0x20 SWAP1 DUP2 MSTORE PUSH1 0x40 DUP1 DUP4 KECCAK256 SWAP5 SWAP1 SWAP6 AND DUP3 MSTORE SWAP3 SWAP1 SWAP3 MSTORE SWAP2 SWAP1 KECCAK256 DUP1 SLOAD PUSH1 0xFF NOT AND SWAP2 ISZERO ISZERO SWAP2 SWAP1 SWAP2 OR SWAP1 SSTORE JUMP JUMPDEST CALLVALUE DUP1 ISZERO PUSH2 0x59E JUMPI PUSH1 0x0 DUP1 REVERT JUMPDEST POP PUSH2 0x1F5 PUSH2 0x5AD CALLDATASIZE PUSH1 0x4 PUSH2 0x1B8F JUMP JUMPDEST PUSH1 0x1 PUSH1 0x1 PUSH1 0xA0 SHL SUB SWAP2 DUP3 AND PUSH1 0x0 SWAP1 DUP2 MSTORE PUSH1 0x4 PUSH1 0x20 MSTORE PUSH1 0x40 SWAP1 KECCAK256 DUP1 SLOAD PUSH1 0x1 PUSH1 0x1 PUSH1 0xA0 SHL SUB NOT AND SWAP2 SWAP1 SWAP3 AND OR SWAP1 SSTORE JUMP JUMPDEST CALLVALUE DUP1 ISZERO PUSH2 0x5E7 JUMPI PUSH1 0x0 DUP1 REVERT JUMPDEST POP PUSH2 0x1F5 PUSH2 0x5F6 CALLDATASIZE PUSH1 0x4 PUSH2 0x1D27 JUMP JUMPDEST PUSH1 0x1 PUSH1 0x1 PUSH1 0xA0 SHL SUB SWAP4 DUP5 AND PUSH1 0x0 DUP2 DUP2 MSTORE PUSH1 0x3 PUSH1 0x20 SWAP1 DUP2 MSTORE PUSH1 0x40 DUP1 DUP4 KECCAK256 DUP1 SLOAD PUSH1 0x1 PUSH1 0xFF NOT SWAP2 DUP3 AND DUP2 OR SWAP1 SWAP3 SSTORE SWAP8 DUP10 AND DUP1 DUP6 MSTORE DUP3 DUP6 KECCAK256 DUP1 SLOAD DUP11 AND DUP4 OR SWAP1 SSTORE SWAP7 DUP10 AND DUP1 DUP6 MSTORE DUP3 DUP6 KECCAK256 DUP1 SLOAD DUP11 AND DUP4 OR SWAP1 SSTORE SWAP6 SWAP1 SWAP9 AND DUP1 DUP5 MSTORE PUSH1 0x2 DUP4 MSTORE DUP2 DUP5 KECCAK256 DUP6 DUP6 MSTORE DUP4 MSTORE DUP2 DUP5 KECCAK256 DUP1 SLOAD DUP10 AND DUP11 OR SWAP1 SSTORE SWAP6 DUP4 MSTORE DUP1 DUP4 KECCAK256 DUP1 SLOAD DUP9 AND DUP10 OR SWAP1 SSTORE SWAP4 DUP3 MSTORE DUP4 DUP3 KECCAK256 DUP1 SLOAD SWAP1 SWAP7 AND SWAP1 SWAP7 OR SWAP1 SWAP5 SSTORE DUP4 MSTORE PUSH1 0x4 SWAP1 SWAP4 MSTORE SWAP2 SWAP1 KECCAK256 DUP1 SLOAD PUSH1 0x1 PUSH1 0x1 PUSH1 0xA0 SHL SUB NOT AND SWAP1 SWAP2 OR SWAP1 SSTORE JUMP JUMPDEST CALLVALUE DUP1 ISZERO PUSH2 0x6A9 JUMPI PUSH1 0x0 DUP1 REVERT JUMPDEST POP PUSH2 0x1F5 PUSH2 0x6B8 CALLDATASIZE PUSH1 0x4 PUSH2 0x1CED JUMP JUMPDEST PUSH1 0x1 PUSH1 0x1 PUSH1 0xA0 SHL SUB SWAP3 DUP4 AND PUSH1 0x0 SWAP1 DUP2 MSTORE PUSH1 0x9 PUSH1 0x20 SWAP1 DUP2 MSTORE PUSH1 0x40 DUP1 DUP4 KECCAK256 SWAP5 SWAP1 SWAP6 AND DUP3 MSTORE SWAP3 SWAP1 SWAP3 MSTORE SWAP2 SWAP1 KECCAK256 DUP1 SLOAD PUSH1 0xFF NOT AND SWAP2 ISZERO ISZERO SWAP2 SWAP1 SWAP2 OR SWAP1 SSTORE JUMP JUMPDEST CALLVALUE DUP1 ISZERO PUSH2 0x6FE JUMPI PUSH1 0x0 DUP1 REVERT JUMPDEST POP PUSH2 0x28F PUSH2 0x70D CALLDATASIZE PUSH1 0x4 PUSH2 0x1D7B JUMP JUMPDEST PUSH2 0x113C JUMP JUMPDEST CALLVALUE DUP1 ISZERO PUSH2 0x71E JUMPI PUSH1 0x0 DUP1 REVERT JUMPDEST POP PUSH2 0x28F PUSH2 0x72D CALLDATASIZE PUSH1 0x4 PUSH2 0x1D7B JUMP JUMPDEST PUSH2 0x1291 JUMP JUMPDEST CALLVALUE DUP1 ISZERO PUSH2 0x73E JUMPI PUSH1 0x0 DUP1 REVERT JUMPDEST POP PUSH2 0x48F PUSH2 0x74D CALLDATASIZE PUSH1 0x4 PUSH2 0x1B8F JUMP JUMPDEST PUSH1 0x1 PUSH1 0x1 PUSH1 0xA0 SHL SUB SWAP2 DUP3 AND PUSH1 0x0 SWAP1 DUP2 MSTORE PUSH1 0x20 DUP2 DUP2 MSTORE PUSH1 0x40 DUP1 DUP4 KECCAK256 SWAP4 SWAP1 SWAP5 AND DUP3 MSTORE SWAP2 SWAP1 SWAP2 MSTORE KECCAK256 SLOAD SWAP1 JUMP JUMPDEST PUSH1 0x8 SLOAD PUSH1 0x0 SWAP1 DUP2 SWAP1 PUSH1 0x1 PUSH1 0x1 PUSH1 0xA0 SHL SUB AND ISZERO PUSH2 0x947 JUMPI POP POP PUSH1 0x8 DUP1 SLOAD PUSH1 0x7 DUP1 SLOAD PUSH1 0x1 PUSH1 0x1 PUSH1 0xA0 SHL SUB NOT DUP4 AND SWAP1 SWAP4 SSTORE PUSH8 0xFFFFFFFFFFFFFFFF PUSH1 0xA0 SHL NOT DUP4 AND DUP2 SSTORE PUSH1 0x1 PUSH1 0x1 PUSH1 0xA0 SHL SUB SWAP1 SWAP2 AND PUSH1 0x0 DUP2 DUP2 MSTORE PUSH1 0x3 PUSH1 0x20 MSTORE PUSH1 0x40 SWAP1 KECCAK256 DUP1 SLOAD PUSH1 0xFF NOT AND PUSH1 0x1 OR SWAP1 SSTORE PUSH1 0x1 PUSH1 0xA0 SHL SWAP1 SWAP3 DIV SWAP1 SIGNEXTEND SWAP1 DUP5 ISZERO PUSH2 0x815 JUMPI PUSH1 0x1 PUSH1 0x1 PUSH1 0xA0 SHL SUB DUP1 DUP3 AND PUSH1 0x0 SWAP1 DUP2 MSTORE PUSH1 0x20 DUP2 DUP2 MSTORE PUSH1 0x40 DUP1 DUP4 KECCAK256 DUP11 DUP3 ADD MLOAD SWAP1 SWAP5 AND DUP4 MSTORE SWAP3 SWAP1 MSTORE KECCAK256 DUP6 SWAP1 SSTORE JUMPDEST PUSH1 0x40 DUP1 DUP8 ADD MLOAD PUSH1 0x1 PUSH1 0x1 PUSH1 0xA0 SHL SUB SWAP1 DUP2 AND PUSH1 0x0 SWAP1 DUP2 MSTORE PUSH1 0x2 PUSH1 0x20 SWAP1 DUP2 MSTORE DUP4 DUP3 KECCAK256 SWAP3 DUP6 AND DUP3 MSTORE SWAP2 SWAP1 SWAP2 MSTORE SWAP1 DUP2 KECCAK256 DUP1 SLOAD PUSH1 0xFF NOT AND PUSH1 0x1 OR SWAP1 SSTORE JUMPDEST DUP5 MLOAD DUP2 LT ISZERO PUSH2 0x8F0 JUMPI DUP5 DUP2 DUP2 MLOAD DUP2 LT PUSH2 0x868 JUMPI PUSH2 0x868 PUSH2 0x1E5E JUMP JUMPDEST PUSH1 0x20 MUL PUSH1 0x20 ADD ADD MLOAD PUSH1 0xFF AND PUSH1 0x4 SUB PUSH2 0x8DE JUMPI DUP4 DUP2 DUP2 MLOAD DUP2 LT PUSH2 0x88C JUMPI PUSH2 0x88C PUSH2 0x1E5E JUMP JUMPDEST PUSH1 0x20 MUL PUSH1 0x20 ADD ADD MLOAD PUSH1 0x4 PUSH1 0x0 DUP5 PUSH1 0x1 PUSH1 0x1 PUSH1 0xA0 SHL SUB AND PUSH1 0x1 PUSH1 0x1 PUSH1 0xA0 SHL SUB AND DUP2 MSTORE PUSH1 0x20 ADD SWAP1 DUP2 MSTORE PUSH1 0x20 ADD PUSH1 0x0 KECCAK256 PUSH1 0x0 PUSH2 0x100 EXP DUP2 SLOAD DUP2 PUSH1 0x1 PUSH1 0x1 PUSH1 0xA0 SHL SUB MUL NOT AND SWAP1 DUP4 PUSH1 0x1 PUSH1 0x1 PUSH1 0xA0 SHL SUB AND MUL OR SWAP1 SSTORE POP JUMPDEST DUP1 PUSH2 0x8E8 DUP2 PUSH2 0x1E8A JUMP JUMPDEST SWAP2 POP POP PUSH2 0x84D JUMP JUMPDEST POP DUP1 PUSH1 0x1 PUSH1 0x1 PUSH1 0xA0 SHL SUB AND PUSH32 0x6596C1670EB3390048D23721809C3DA5D3F531375AC0E2CAB0F77A808ED64331 DUP8 PUSH1 0x0 ADD MLOAD DUP9 PUSH1 0x20 ADD MLOAD DUP10 PUSH1 0x40 ADD MLOAD PUSH1 0x40 MLOAD PUSH2 0x93A SWAP4 SWAP3 SWAP2 SWAP1 PUSH2 0x1EA3 JUMP JUMPDEST PUSH1 0x40 MLOAD DUP1 SWAP2 SUB SWAP1 LOG2 PUSH2 0xAFB JUMP JUMPDEST DUP6 MLOAD PUSH1 0x40 MLOAD PUSH2 0x95D SWAP2 TIMESTAMP SWAP2 CALLER SWAP2 SWAP1 PUSH1 0x20 ADD PUSH2 0x1EE1 JUMP JUMPDEST PUSH1 0x40 DUP1 MLOAD PUSH1 0x1F NOT DUP2 DUP5 SUB ADD DUP2 MSTORE SWAP2 DUP2 MSTORE DUP2 MLOAD PUSH1 0x20 SWAP3 DUP4 ADD KECCAK256 PUSH1 0x1 PUSH1 0x1 PUSH1 0xA0 SHL SUB DUP2 AND PUSH1 0x0 SWAP1 DUP2 MSTORE PUSH1 0x3 SWAP1 SWAP4 MSTORE SWAP2 KECCAK256 DUP1 SLOAD PUSH1 0xFF NOT AND PUSH1 0x1 OR SWAP1 SSTORE SWAP1 POP DUP5 ISZERO PUSH2 0x9C9 JUMPI PUSH1 0x1 PUSH1 0x1 PUSH1 0xA0 SHL SUB DUP1 DUP3 AND PUSH1 0x0 SWAP1 DUP2 MSTORE PUSH1 0x20 DUP2 DUP2 MSTORE PUSH1 0x40 DUP1 DUP4 KECCAK256 DUP11 DUP3 ADD MLOAD SWAP1 SWAP5 AND DUP4 MSTORE SWAP3 SWAP1 MSTORE KECCAK256 DUP6 SWAP1 SSTORE JUMPDEST PUSH1 0x40 DUP1 DUP8 ADD MLOAD PUSH1 0x1 PUSH1 0x1 PUSH1 0xA0 SHL SUB SWAP1 DUP2 AND PUSH1 0x0 SWAP1 DUP2 MSTORE PUSH1 0x2 PUSH1 0x20 SWAP1 DUP2 MSTORE DUP4 DUP3 KECCAK256 SWAP3 DUP6 AND DUP3 MSTORE SWAP2 SWAP1 SWAP2 MSTORE SWAP1 DUP2 KECCAK256 DUP1 SLOAD PUSH1 0xFF NOT AND PUSH1 0x1 OR SWAP1 SSTORE JUMPDEST DUP5 MLOAD DUP2 LT ISZERO PUSH2 0xAA4 JUMPI DUP5 DUP2 DUP2 MLOAD DUP2 LT PUSH2 0xA1C JUMPI PUSH2 0xA1C PUSH2 0x1E5E JUMP JUMPDEST PUSH1 0x20 MUL PUSH1 0x20 ADD ADD MLOAD PUSH1 0xFF AND PUSH1 0x4 SUB PUSH2 0xA92 JUMPI DUP4 DUP2 DUP2 MLOAD DUP2 LT PUSH2 0xA40 JUMPI PUSH2 0xA40 PUSH2 0x1E5E JUMP JUMPDEST PUSH1 0x20 MUL PUSH1 0x20 ADD ADD MLOAD PUSH1 0x4 PUSH1 0x0 DUP5 PUSH1 0x1 PUSH1 0x1 PUSH1 0xA0 SHL SUB AND PUSH1 0x1 PUSH1 0x1 PUSH1 0xA0 SHL SUB AND DUP2 MSTORE PUSH1 0x20 ADD SWAP1 DUP2 MSTORE PUSH1 0x20 ADD PUSH1 0x0 KECCAK256 PUSH1 0x0 PUSH2 0x100 EXP DUP2 SLOAD DUP2 PUSH1 0x1 PUSH1 0x1 PUSH1 0xA0 SHL SUB MUL NOT AND SWAP1 DUP4 PUSH1 0x1 PUSH1 0x1 PUSH1 0xA0 SHL SUB AND MUL OR SWAP1 SSTORE POP JUMPDEST DUP1 PUSH2 0xA9C DUP2 PUSH2 0x1E8A JUMP JUMPDEST SWAP2 POP POP PUSH2 0xA01 JUMP JUMPDEST POP DUP1 PUSH1 0x1 PUSH1 0x1 PUSH1 0xA0 SHL SUB AND PUSH32 0x6596C1670EB3390048D23721809C3DA5D3F531375AC0E2CAB0F77A808ED64331 DUP8 PUSH1 0x0 ADD MLOAD DUP9 PUSH1 0x20 ADD MLOAD DUP10 PUSH1 0x40 ADD MLOAD PUSH1 0x40 MLOAD PUSH2 0xAEE SWAP4 SWAP3 SWAP2 SWAP1 PUSH2 0x1EA3 JUMP JUMPDEST PUSH1 0x40 MLOAD DUP1 SWAP2 SUB SWAP1 LOG2 PUSH1 0x0 SWAP2 POP JUMPDEST SWAP5 POP SWAP5 SWAP3 POP POP POP JUMP JUMPDEST PUSH1 0x1 PUSH1 0x1 PUSH1 0xA0 SHL SUB DUP1 DUP5 AND PUSH1 0x0 SWAP1 DUP2 MSTORE PUSH1 0x2 PUSH1 0x20 SWAP1 DUP2 MSTORE PUSH1 0x40 DUP1 DUP4 KECCAK256 SWAP4 DUP9 AND DUP4 MSTORE SWAP3 SWAP1 MSTORE SWAP1 DUP2 KECCAK256 SLOAD PUSH1 0xFF AND PUSH2 0xB3C JUMPI POP PUSH1 0x0 NOT PUSH2 0xE33 JUMP JUMPDEST PUSH1 0x1 PUSH1 0x1 PUSH1 0xA0 SHL SUB DUP1 DUP5 AND PUSH1 0x0 SWAP1 DUP2 MSTORE PUSH1 0x2 PUSH1 0x20 SWAP1 DUP2 MSTORE PUSH1 0x40 DUP1 DUP4 KECCAK256 SWAP4 DUP10 AND DUP4 MSTORE SWAP3 SWAP1 MSTORE KECCAK256 SLOAD PUSH1 0xFF AND PUSH2 0xB72 JUMPI POP PUSH1 0x0 NOT PUSH2 0xE33 JUMP JUMPDEST PUSH1 0x1 PUSH1 0x1 PUSH1 0xA0 SHL SUB DUP1 DUP7 AND PUSH1 0x0 SWAP1 DUP2 MSTORE PUSH1 0x20 DUP2 DUP2 MSTORE PUSH1 0x40 DUP1 DUP4 KECCAK256 SWAP4 DUP9 AND DUP4 MSTORE SWAP3 SWAP1 MSTORE KECCAK256 SLOAD DUP3 GT ISZERO PUSH2 0xBA6 JUMPI POP PUSH1 0x1 NOT PUSH2 0xE33 JUMP JUMPDEST PUSH1 0x1 PUSH1 0x1 PUSH1 0xA0 SHL SUB DUP5 AND CALLER EQ DUP1 ISZERO SWAP1 PUSH2 0xBC8 JUMPI POP PUSH1 0x1 PUSH1 0x1 PUSH1 0xA0 SHL SUB DUP5 AND ADDRESS EQ ISZERO JUMPDEST DUP1 ISZERO PUSH2 0xBD7 JUMPI POP PUSH1 0xA SLOAD PUSH1 0xFF AND ISZERO JUMPDEST ISZERO PUSH2 0xC63 JUMPI PUSH1 0x1 PUSH1 0x1 PUSH1 0xA0 SHL SUB DUP1 DUP7 AND PUSH1 0x0 SWAP1 DUP2 MSTORE PUSH1 0x1 PUSH1 0x20 SWAP1 DUP2 MSTORE PUSH1 0x40 DUP1 DUP4 KECCAK256 SWAP4 DUP9 AND DUP4 MSTORE SWAP3 DUP2 MSTORE DUP3 DUP3 KECCAK256 CALLER DUP4 MSTORE SWAP1 MSTORE KECCAK256 SLOAD DUP3 DUP2 LT ISZERO PUSH2 0xC1D JUMPI PUSH1 0x2 NOT SWAP2 POP POP PUSH2 0xE33 JUMP JUMPDEST PUSH1 0x1 PUSH1 0x1 PUSH1 0xA0 SHL SUB DUP1 DUP8 AND PUSH1 0x0 SWAP1 DUP2 MSTORE PUSH1 0x1 PUSH1 0x20 SWAP1 DUP2 MSTORE PUSH1 0x40 DUP1 DUP4 KECCAK256 SWAP4 DUP10 AND DUP4 MSTORE SWAP3 DUP2 MSTORE DUP3 DUP3 KECCAK256 CALLER DUP4 MSTORE SWAP1 MSTORE SWAP1 DUP2 KECCAK256 DUP1 SLOAD DUP6 SWAP3 SWAP1 PUSH2 0xC5C SWAP1 DUP5 SWAP1 PUSH2 0x1F20 JUMP JUMPDEST SWAP1 SWAP2 SSTORE POP POP POP JUMPDEST PUSH1 0x1 PUSH1 0x1 PUSH1 0xA0 SHL SUB DUP1 DUP7 AND PUSH1 0x0 SWAP1 DUP2 MSTORE PUSH1 0x20 DUP2 DUP2 MSTORE PUSH1 0x40 DUP1 DUP4 KECCAK256 SWAP4 DUP9 AND DUP4 MSTORE SWAP3 SWAP1 MSTORE SWAP1 DUP2 KECCAK256 DUP1 SLOAD DUP5 SWAP3 SWAP1 PUSH2 0xC98 SWAP1 DUP5 SWAP1 PUSH2 0x1F20 JUMP JUMPDEST SWAP1 SWAP2 SSTORE POP POP PUSH1 0x1 PUSH1 0x1 PUSH1 0xA0 SHL SUB DUP1 DUP7 AND PUSH1 0x0 SWAP1 DUP2 MSTORE PUSH1 0x20 DUP2 DUP2 MSTORE PUSH1 0x40 DUP1 DUP4 KECCAK256 SWAP4 DUP8 AND DUP4 MSTORE SWAP3 SWAP1 MSTORE SWAP1 DUP2 KECCAK256 DUP1 SLOAD DUP5 SWAP3 SWAP1 PUSH2 0xCD2 SWAP1 DUP5 SWAP1 PUSH2 0x1F33 JUMP JUMPDEST SWAP1 SWAP2 SSTORE POP POP PUSH1 0x1 PUSH1 0x1 PUSH1 0xA0 SHL SUB DUP1 DUP7 AND PUSH1 0x0 SWAP1 DUP2 MSTORE PUSH1 0x5 PUSH1 0x20 SWAP1 DUP2 MSTORE PUSH1 0x40 DUP1 DUP4 KECCAK256 DUP2 MLOAD PUSH1 0x60 DUP2 ADD DUP4 MSTORE DUP10 DUP7 AND DUP2 MSTORE DUP9 DUP7 AND DUP2 DUP6 ADD SWAP1 DUP2 MSTORE SWAP3 DUP2 ADD DUP9 DUP2 MSTORE DUP3 SLOAD PUSH1 0x1 DUP2 DUP2 ADD DUP6 SSTORE SWAP4 DUP8 MSTORE SWAP5 DUP7 KECCAK256 SWAP2 MLOAD PUSH1 0x3 SWAP1 SWAP6 MUL SWAP1 SWAP2 ADD DUP1 SLOAD SWAP5 DUP8 AND PUSH1 0x1 PUSH1 0x1 PUSH1 0xA0 SHL SUB NOT SWAP6 DUP7 AND OR DUP2 SSTORE SWAP3 MLOAD SWAP2 DUP4 ADD DUP1 SLOAD SWAP3 SWAP1 SWAP7 AND SWAP2 SWAP1 SWAP4 AND OR SWAP1 SWAP4 SSTORE MLOAD PUSH1 0x2 SWAP1 SWAP3 ADD SWAP2 SWAP1 SWAP2 SSTORE PUSH2 0xD62 DUP6 PUSH2 0x13D7 JUMP JUMPDEST PUSH2 0xD6B DUP6 PUSH2 0x13D7 JUMP JUMPDEST PUSH2 0xD74 DUP6 PUSH2 0x1540 JUMP JUMPDEST PUSH1 0x40 MLOAD PUSH1 0x20 ADD PUSH2 0xD86 SWAP4 SWAP3 SWAP2 SWAP1 PUSH2 0x1F46 JUMP JUMPDEST PUSH1 0x40 DUP1 MLOAD PUSH1 0x1F NOT DUP2 DUP5 SUB ADD DUP2 MSTORE SWAP2 SWAP1 MSTORE PUSH1 0x6 DUP1 SLOAD PUSH1 0x1 DUP2 ADD DUP3 SSTORE PUSH1 0x0 SWAP2 SWAP1 SWAP2 MSTORE SWAP1 SWAP2 POP PUSH32 0xF652222313E28459528D920B65115C16C04F3EFC82AAEDC97BE59F3F377C0D3F ADD PUSH2 0xDD5 DUP3 DUP3 PUSH2 0x2051 JUMP JUMPDEST POP DUP4 PUSH1 0x1 PUSH1 0x1 PUSH1 0xA0 SHL SUB AND DUP6 PUSH1 0x1 PUSH1 0x1 PUSH1 0xA0 SHL SUB AND DUP8 PUSH1 0x1 PUSH1 0x1 PUSH1 0xA0 SHL SUB AND PUSH32 0x9AF266B6CA4909F988DC948FB50AD15153ABBE525351881BAD4FA858BE96515C DUP7 PUSH1 0x40 MLOAD PUSH2 0xE25 SWAP2 DUP2 MSTORE PUSH1 0x20 ADD SWAP1 JUMP JUMPDEST PUSH1 0x40 MLOAD DUP1 SWAP2 SUB SWAP1 LOG4 PUSH1 0x0 SWAP2 POP POP JUMPDEST SWAP5 SWAP4 POP POP POP POP JUMP JUMPDEST PUSH1 0x1 PUSH1 0x1 PUSH1 0xA0 SHL SUB DUP1 DUP4 AND PUSH1 0x0 DUP2 DUP2 MSTORE PUSH1 0x2 PUSH1 0x20 SWAP1 DUP2 MSTORE PUSH1 0x40 DUP1 DUP4 KECCAK256 SWAP5 DUP7 AND DUP1 DUP5 MSTORE SWAP5 SWAP1 SWAP2 MSTORE DUP1 DUP3 KECCAK256 DUP1 SLOAD PUSH1 0xFF NOT AND SWAP1 SSTORE MLOAD SWAP1 SWAP3 SWAP2 SWAP1 PUSH32 0x6BA8F0DEBF54740777149DB87BD08717B4DBDCB36073D53CDC784019DAFAC16F SWAP1 DUP5 SWAP1 LOG3 POP PUSH1 0x0 JUMPDEST SWAP3 SWAP2 POP POP JUMP JUMPDEST PUSH1 0x60 PUSH1 0x6 DUP1 SLOAD DUP1 PUSH1 0x20 MUL PUSH1 0x20 ADD PUSH1 0x40 MLOAD SWAP1 DUP2 ADD PUSH1 0x40 MSTORE DUP1 SWAP3 SWAP2 SWAP1 DUP2 DUP2 MSTORE PUSH1 0x20 ADD PUSH1 0x0 SWAP1 JUMPDEST DUP3 DUP3 LT ISZERO PUSH2 0xF70 JUMPI DUP4 DUP3 SWAP1 PUSH1 0x0 MSTORE PUSH1 0x20 PUSH1 0x0 KECCAK256 ADD DUP1 SLOAD PUSH2 0xEE3 SWAP1 PUSH2 0x1FC8 JUMP JUMPDEST DUP1 PUSH1 0x1F ADD PUSH1 0x20 DUP1 SWAP2 DIV MUL PUSH1 0x20 ADD PUSH1 0x40 MLOAD SWAP1 DUP2 ADD PUSH1 0x40 MSTORE DUP1 SWAP3 SWAP2 SWAP1 DUP2 DUP2 MSTORE PUSH1 0x20 ADD DUP3 DUP1 SLOAD PUSH2 0xF0F SWAP1 PUSH2 0x1FC8 JUMP JUMPDEST DUP1 ISZERO PUSH2 0xF5C JUMPI DUP1 PUSH1 0x1F LT PUSH2 0xF31 JUMPI PUSH2 0x100 DUP1 DUP4 SLOAD DIV MUL DUP4 MSTORE SWAP2 PUSH1 0x20 ADD SWAP2 PUSH2 0xF5C JUMP JUMPDEST DUP3 ADD SWAP2 SWAP1 PUSH1 0x0 MSTORE PUSH1 0x20 PUSH1 0x0 KECCAK256 SWAP1 JUMPDEST DUP2 SLOAD DUP2 MSTORE SWAP1 PUSH1 0x1 ADD SWAP1 PUSH1 0x20 ADD DUP1 DUP4 GT PUSH2 0xF3F JUMPI DUP3 SWAP1 SUB PUSH1 0x1F AND DUP3 ADD SWAP2 JUMPDEST POP POP POP POP POP DUP2 MSTORE PUSH1 0x20 ADD SWAP1 PUSH1 0x1 ADD SWAP1 PUSH2 0xEC4 JUMP JUMPDEST POP POP POP POP SWAP1 POP SWAP1 JUMP JUMPDEST PUSH1 0x1 PUSH1 0x1 PUSH1 0xA0 SHL SUB DUP1 DUP4 AND PUSH1 0x0 DUP2 DUP2 MSTORE PUSH1 0x2 PUSH1 0x20 SWAP1 DUP2 MSTORE PUSH1 0x40 DUP1 DUP4 KECCAK256 SWAP5 DUP7 AND DUP1 DUP5 MSTORE SWAP5 SWAP1 SWAP2 MSTORE DUP1 DUP3 KECCAK256 DUP1 SLOAD PUSH1 0xFF NOT AND PUSH1 0x1 OR SWAP1 SSTORE MLOAD SWAP1 SWAP3 SWAP2 SWAP1 PUSH32 0x6BA8F0DEBF54740777149DB87BD08717B4DBDCB36073D53CDC784019DAFAC16F SWAP1 DUP5 SWAP1 LOG3 POP PUSH1 0x0 SWAP3 SWAP2 POP POP JUMP JUMPDEST PUSH1 0x1 PUSH1 0x1 PUSH1 0xA0 SHL SUB DUP1 DUP4 AND PUSH1 0x0 SWAP1 DUP2 MSTORE PUSH1 0x9 PUSH1 0x20 SWAP1 DUP2 MSTORE PUSH1 0x40 DUP1 DUP4 KECCAK256 SWAP4 DUP6 AND DUP4 MSTORE SWAP3 SWAP1 MSTORE SWAP1 DUP2 KECCAK256 SLOAD PUSH1 0xFF AND DUP1 ISZERO PUSH2 0x101B JUMPI PUSH1 0x1 SWAP2 POP POP PUSH2 0xE9A JUMP JUMPDEST POP POP PUSH1 0x1 PUSH1 0x1 PUSH1 0xA0 SHL SUB SWAP2 DUP3 AND PUSH1 0x0 SWAP1 DUP2 MSTORE PUSH1 0x4 PUSH1 0x20 MSTORE PUSH1 0x40 SWAP1 KECCAK256 SLOAD DUP3 AND SWAP2 AND EQ SWAP1 JUMP JUMPDEST PUSH1 0x40 DUP1 MLOAD PUSH1 0x60 DUP2 ADD DUP3 MSTORE PUSH1 0x0 DUP1 DUP3 MSTORE PUSH1 0x20 DUP1 DUP4 ADD DUP3 SWAP1 MSTORE DUP3 DUP5 ADD DUP3 SWAP1 MSTORE PUSH1 0x1 PUSH1 0x1 PUSH1 0xA0 SHL SUB DUP6 AND DUP3 MSTORE PUSH1 0x5 SWAP1 MSTORE SWAP2 SWAP1 SWAP2 KECCAK256 SLOAD PUSH2 0x10BA JUMPI PUSH1 0x40 MLOAD PUSH3 0x461BCD PUSH1 0xE5 SHL DUP2 MSTORE PUSH1 0x20 PUSH1 0x4 DUP3 ADD MSTORE PUSH1 0x15 PUSH1 0x24 DUP3 ADD MSTORE PUSH21 0x139BC81D1C985B9CD9995C9CC81C9958DBDC991959 PUSH1 0x5A SHL PUSH1 0x44 DUP3 ADD MSTORE PUSH1 0x64 ADD JUMPDEST PUSH1 0x40 MLOAD DUP1 SWAP2 SUB SWAP1 REVERT JUMPDEST PUSH1 0x1 PUSH1 0x1 PUSH1 0xA0 SHL SUB DUP3 AND PUSH1 0x0 SWAP1 DUP2 MSTORE PUSH1 0x5 PUSH1 0x20 MSTORE PUSH1 0x40 SWAP1 KECCAK256 DUP1 SLOAD PUSH2 0x10E0 SWAP1 PUSH1 0x1 SWAP1 PUSH2 0x1F20 JUMP JUMPDEST DUP2 SLOAD DUP2 LT PUSH2 0x10F0 JUMPI PUSH2 0x10F0 PUSH2 0x1E5E JUMP JUMPDEST PUSH1 0x0 SWAP2 DUP3 MSTORE PUSH1 0x20 SWAP2 DUP3 SWAP1 KECCAK256 PUSH1 0x40 DUP1 MLOAD PUSH1 0x60 DUP2 ADD DUP3 MSTORE PUSH1 0x3 SWAP1 SWAP4 MUL SWAP1 SWAP2 ADD DUP1 SLOAD PUSH1 0x1 PUSH1 0x1 PUSH1 0xA0 SHL SUB SWAP1 DUP2 AND DUP5 MSTORE PUSH1 0x1 DUP3 ADD SLOAD AND SWAP4 DUP4 ADD SWAP4 SWAP1 SWAP4 MSTORE PUSH1 0x2 SWAP1 SWAP3 ADD SLOAD SWAP2 DUP2 ADD SWAP2 SWAP1 SWAP2 MSTORE SWAP3 SWAP2 POP POP JUMP JUMPDEST PUSH1 0x1 PUSH1 0x1 PUSH1 0xA0 SHL SUB DUP4 AND PUSH1 0x0 SWAP1 DUP2 MSTORE PUSH1 0x3 PUSH1 0x20 MSTORE PUSH1 0x40 DUP2 KECCAK256 SLOAD PUSH1 0xFF AND PUSH2 0x11AF JUMPI PUSH1 0x40 MLOAD PUSH3 0x461BCD PUSH1 0xE5 SHL DUP2 MSTORE PUSH1 0x20 PUSH1 0x4 DUP3 ADD MSTORE PUSH1 0x22 PUSH1 0x24 DUP3 ADD MSTORE PUSH32 0x4D696E74696E67206E6F7420656E61626C656420666F72207468697320746F6B PUSH1 0x44 DUP3 ADD MSTORE PUSH2 0x32B7 PUSH1 0xF1 SHL PUSH1 0x64 DUP3 ADD MSTORE PUSH1 0x84 ADD PUSH2 0x10B1 JUMP JUMPDEST PUSH1 0x1 PUSH1 0x1 PUSH1 0xA0 SHL SUB DUP1 DUP6 AND PUSH1 0x0 SWAP1 DUP2 MSTORE PUSH1 0x4 PUSH1 0x20 MSTORE PUSH1 0x40 SWAP1 KECCAK256 SLOAD AND DUP1 ISZERO DUP1 ISZERO SWAP1 PUSH2 0x11E2 JUMPI POP CALLER PUSH1 0x1 PUSH1 0x1 PUSH1 0xA0 SHL SUB DUP3 AND EQ ISZERO JUMPDEST ISZERO PUSH2 0x1211 JUMPI PUSH1 0x40 MLOAD PUSH4 0xD27CBF5 PUSH1 0xE1 SHL DUP2 MSTORE PUSH1 0x1 PUSH1 0x1 PUSH1 0xA0 SHL SUB DUP7 AND PUSH1 0x4 DUP3 ADD MSTORE CALLER PUSH1 0x24 DUP3 ADD MSTORE PUSH1 0x44 ADD PUSH2 0x10B1 JUMP JUMPDEST PUSH1 0x1 PUSH1 0x1 PUSH1 0xA0 SHL SUB DUP6 AND PUSH1 0x0 SWAP1 DUP2 MSTORE PUSH1 0x20 DUP2 DUP2 MSTORE PUSH1 0x40 DUP1 DUP4 KECCAK256 CALLER DUP5 MSTORE SWAP1 SWAP2 MSTORE DUP2 KECCAK256 DUP1 SLOAD DUP7 SWAP3 SWAP1 PUSH2 0x1242 SWAP1 DUP5 SWAP1 PUSH2 0x1F33 JUMP JUMPDEST SWAP1 SWAP2 SSTORE POP POP PUSH1 0x40 MLOAD DUP5 DUP2 MSTORE PUSH1 0x1 PUSH1 0x1 PUSH1 0xA0 SHL SUB DUP7 AND SWAP1 PUSH32 0xB9144C96C86541F6FA89C9F2F02495CCCF4B08CD6643E26D34EE00AA586558A8 SWAP1 PUSH1 0x20 ADD JUMPDEST PUSH1 0x40 MLOAD DUP1 SWAP2 SUB SWAP1 LOG2 POP PUSH1 0x0 SWAP5 SWAP4 POP POP POP POP JUMP JUMPDEST PUSH1 0x1 PUSH1 0x1 PUSH1 0xA0 SHL SUB DUP1 DUP5 AND PUSH1 0x0 SWAP1 DUP2 MSTORE PUSH1 0x4 PUSH1 0x20 MSTORE PUSH1 0x40 DUP2 KECCAK256 SLOAD SWAP1 SWAP2 AND DUP1 ISZERO DUP1 ISZERO SWAP1 PUSH2 0x12C6 JUMPI POP CALLER PUSH1 0x1 PUSH1 0x1 PUSH1 0xA0 SHL SUB DUP3 AND EQ ISZERO JUMPDEST ISZERO PUSH2 0x12F5 JUMPI PUSH1 0x40 MLOAD PUSH4 0xD27CBF5 PUSH1 0xE1 SHL DUP2 MSTORE PUSH1 0x1 PUSH1 0x1 PUSH1 0xA0 SHL SUB DUP7 AND PUSH1 0x4 DUP3 ADD MSTORE CALLER PUSH1 0x24 DUP3 ADD MSTORE PUSH1 0x44 ADD PUSH2 0x10B1 JUMP JUMPDEST PUSH1 0x1 PUSH1 0x1 PUSH1 0xA0 SHL SUB DUP6 AND PUSH1 0x0 SWAP1 DUP2 MSTORE PUSH1 0x20 DUP2 DUP2 MSTORE PUSH1 0x40 DUP1 DUP4 KECCAK256 CALLER DUP5 MSTORE SWAP1 SWAP2 MSTORE SWAP1 KECCAK256 SLOAD DUP5 GT ISZERO PUSH2 0x1366 JUMPI PUSH1 0x40 MLOAD PUSH3 0x461BCD PUSH1 0xE5 SHL DUP2 MSTORE PUSH1 0x20 PUSH1 0x4 DUP3 ADD MSTORE PUSH1 0x1C PUSH1 0x24 DUP3 ADD MSTORE PUSH32 0x496E73756666696369656E742062616C616E636520746F206275726E00000000 PUSH1 0x44 DUP3 ADD MSTORE PUSH1 0x64 ADD PUSH2 0x10B1 JUMP JUMPDEST PUSH1 0x1 PUSH1 0x1 PUSH1 0xA0 SHL SUB DUP6 AND PUSH1 0x0 SWAP1 DUP2 MSTORE PUSH1 0x20 DUP2 DUP2 MSTORE PUSH1 0x40 DUP1 DUP4 KECCAK256 CALLER DUP5 MSTORE SWAP1 SWAP2 MSTORE DUP2 KECCAK256 DUP1 SLOAD DUP7 SWAP3 SWAP1 PUSH2 0x1397 SWAP1 DUP5 SWAP1 PUSH2 0x1F20 JUMP JUMPDEST SWAP1 SWAP2 SSTORE POP POP PUSH1 0x40 MLOAD DUP5 DUP2 MSTORE PUSH1 0x1 PUSH1 0x1 PUSH1 0xA0 SHL SUB DUP7 AND SWAP1 PUSH32 0x1AF5163F80E79B5E554F61E1D052084D3A3FE1166E42A265798C4E2DDCE8FFA2 SWAP1 PUSH1 0x20 ADD PUSH2 0x127E JUMP JUMPDEST PUSH1 0x40 DUP1 MLOAD PUSH1 0x28 DUP1 DUP3 MSTORE PUSH1 0x60 DUP3 DUP2 ADD SWAP1 SWAP4 MSTORE PUSH1 0x0 SWAP2 SWAP1 PUSH1 0x20 DUP3 ADD DUP2 DUP1 CALLDATASIZE DUP4 CALLDATACOPY ADD SWAP1 POP POP SWAP1 POP PUSH1 0x0 JUMPDEST PUSH1 0x14 DUP2 LT ISZERO PUSH2 0x1517 JUMPI PUSH1 0x0 PUSH2 0x1414 DUP3 PUSH1 0x13 PUSH2 0x1F20 JUMP JUMPDEST PUSH2 0x141F SWAP1 PUSH1 0x8 PUSH2 0x2111 JUMP JUMPDEST PUSH2 0x142A SWAP1 PUSH1 0x2 PUSH2 0x220C JUMP JUMPDEST PUSH2 0x143D SWAP1 PUSH1 0x1 PUSH1 0x1 PUSH1 0xA0 SHL SUB DUP8 AND PUSH2 0x222E JUMP JUMPDEST PUSH1 0xF8 SHL SWAP1 POP PUSH1 0x0 PUSH1 0x10 DUP3 PUSH1 0xF8 SHR PUSH2 0x1454 SWAP2 SWAP1 PUSH2 0x2242 JUMP JUMPDEST PUSH1 0xF8 SHL SWAP1 POP PUSH1 0x0 DUP2 PUSH1 0xF8 SHR PUSH1 0x10 PUSH2 0x146B SWAP2 SWAP1 PUSH2 0x2264 JUMP JUMPDEST DUP4 PUSH1 0xF8 SHR PUSH2 0x1479 SWAP2 SWAP1 PUSH2 0x2287 JUMP JUMPDEST PUSH1 0xF8 SHL SWAP1 POP PUSH2 0x1487 DUP3 PUSH2 0x166C JUMP JUMPDEST DUP6 PUSH2 0x1493 DUP7 PUSH1 0x2 PUSH2 0x2111 JUMP JUMPDEST DUP2 MLOAD DUP2 LT PUSH2 0x14A3 JUMPI PUSH2 0x14A3 PUSH2 0x1E5E JUMP JUMPDEST PUSH1 0x20 ADD ADD SWAP1 PUSH1 0x1 PUSH1 0x1 PUSH1 0xF8 SHL SUB NOT AND SWAP1 DUP2 PUSH1 0x0 BYTE SWAP1 MSTORE8 POP PUSH2 0x14C3 DUP2 PUSH2 0x166C JUMP JUMPDEST DUP6 PUSH2 0x14CF DUP7 PUSH1 0x2 PUSH2 0x2111 JUMP JUMPDEST PUSH2 0x14DA SWAP1 PUSH1 0x1 PUSH2 0x1F33 JUMP JUMPDEST DUP2 MLOAD DUP2 LT PUSH2 0x14EA JUMPI PUSH2 0x14EA PUSH2 0x1E5E JUMP JUMPDEST PUSH1 0x20 ADD ADD SWAP1 PUSH1 0x1 PUSH1 0x1 PUSH1 0xF8 SHL SUB NOT AND SWAP1 DUP2 PUSH1 0x0 BYTE SWAP1 MSTORE8 POP POP POP POP DUP1 DUP1 PUSH2 0x150F SWAP1 PUSH2 0x1E8A JUMP JUMPDEST SWAP2 POP POP PUSH2 0x13FE JUMP JUMPDEST POP DUP1 PUSH1 0x40 MLOAD PUSH1 0x20 ADD PUSH2 0x1529 SWAP2 SWAP1 PUSH2 0x22A0 JUMP JUMPDEST PUSH1 0x40 MLOAD PUSH1 0x20 DUP2 DUP4 SUB SUB DUP2 MSTORE SWAP1 PUSH1 0x40 MSTORE SWAP2 POP POP SWAP2 SWAP1 POP JUMP JUMPDEST PUSH1 0x60 DUP2 PUSH1 0x0 SUB PUSH2 0x1567 JUMPI POP POP PUSH1 0x40 DUP1 MLOAD DUP1 DUP3 ADD SWAP1 SWAP2 MSTORE PUSH1 0x1 DUP2 MSTORE PUSH1 0x3 PUSH1 0xFC SHL PUSH1 0x20 DUP3 ADD MSTORE SWAP1 JUMP JUMPDEST DUP2 PUSH1 0x0 JUMPDEST DUP2 ISZERO PUSH2 0x1591 JUMPI DUP1 PUSH2 0x157B DUP2 PUSH2 0x1E8A JUMP JUMPDEST SWAP2 POP PUSH2 0x158A SWAP1 POP PUSH1 0xA DUP4 PUSH2 0x222E JUMP JUMPDEST SWAP2 POP PUSH2 0x156B JUMP JUMPDEST PUSH1 0x0 DUP2 PUSH8 0xFFFFFFFFFFFFFFFF DUP2 GT ISZERO PUSH2 0x15AC JUMPI PUSH2 0x15AC PUSH2 0x16A7 JUMP JUMPDEST PUSH1 0x40 MLOAD SWAP1 DUP1 DUP3 MSTORE DUP1 PUSH1 0x1F ADD PUSH1 0x1F NOT AND PUSH1 0x20 ADD DUP3 ADD PUSH1 0x40 MSTORE DUP1 ISZERO PUSH2 0x15D6 JUMPI PUSH1 0x20 DUP3 ADD DUP2 DUP1 CALLDATASIZE DUP4 CALLDATACOPY ADD SWAP1 POP JUMPDEST POP SWAP1 POP DUP2 JUMPDEST DUP6 ISZERO PUSH2 0x1663 JUMPI PUSH2 0x15EC PUSH1 0x1 DUP3 PUSH2 0x1F20 JUMP JUMPDEST SWAP1 POP PUSH1 0x0 PUSH2 0x15FB PUSH1 0xA DUP9 PUSH2 0x222E JUMP JUMPDEST PUSH2 0x1606 SWAP1 PUSH1 0xA PUSH2 0x2111 JUMP JUMPDEST PUSH2 0x1610 SWAP1 DUP9 PUSH2 0x1F20 JUMP JUMPDEST PUSH2 0x161B SWAP1 PUSH1 0x30 PUSH2 0x22CA JUMP JUMPDEST SWAP1 POP PUSH1 0x0 DUP2 PUSH1 0xF8 SHL SWAP1 POP DUP1 DUP5 DUP5 DUP2 MLOAD DUP2 LT PUSH2 0x1638 JUMPI PUSH2 0x1638 PUSH2 0x1E5E JUMP JUMPDEST PUSH1 0x20 ADD ADD SWAP1 PUSH1 0x1 PUSH1 0x1 PUSH1 0xF8 SHL SUB NOT AND SWAP1 DUP2 PUSH1 0x0 BYTE SWAP1 MSTORE8 POP PUSH2 0x165A PUSH1 0xA DUP10 PUSH2 0x222E JUMP JUMPDEST SWAP8 POP POP POP PUSH2 0x15DB JUMP JUMPDEST POP SWAP5 SWAP4 POP POP POP POP JUMP JUMPDEST PUSH1 0x0 PUSH1 0xA PUSH1 0xF8 DUP4 SWAP1 SHR LT ISZERO PUSH2 0x1693 JUMPI PUSH2 0x168A PUSH1 0xF8 DUP4 SWAP1 SHR PUSH1 0x30 PUSH2 0x22CA JUMP JUMPDEST PUSH1 0xF8 SHL SWAP3 SWAP2 POP POP JUMP JUMPDEST PUSH2 0x168A PUSH1 0xF8 DUP4 SWAP1 SHR PUSH1 0x57 PUSH2 0x22CA JUMP JUMPDEST SWAP2 SWAP1 POP JUMP JUMPDEST PUSH4 0x4E487B71 PUSH1 0xE0 SHL PUSH1 0x0 MSTORE PUSH1 0x41 PUSH1 0x4 MSTORE PUSH1 0x24 PUSH1 0x0 REVERT JUMPDEST PUSH1 0x40 MLOAD PUSH2 0x1A0 DUP2 ADD PUSH8 0xFFFFFFFFFFFFFFFF DUP2 GT DUP3 DUP3 LT OR ISZERO PUSH2 0x16E1 JUMPI PUSH2 0x16E1 PUSH2 0x16A7 JUMP JUMPDEST PUSH1 0x40 MSTORE SWAP1 JUMP JUMPDEST PUSH1 0x40 MLOAD PUSH1 0x1F DUP3 ADD PUSH1 0x1F NOT AND DUP2 ADD PUSH8 0xFFFFFFFFFFFFFFFF DUP2 GT DUP3 DUP3 LT OR ISZERO PUSH2 0x1710 JUMPI PUSH2 0x1710 PUSH2 0x16A7 JUMP JUMPDEST PUSH1 0x40 MSTORE SWAP2 SWAP1 POP JUMP JUMPDEST PUSH1 0x0 PUSH8 0xFFFFFFFFFFFFFFFF DUP4 GT ISZERO PUSH2 0x1732 JUMPI PUSH2 0x1732 PUSH2 0x16A7 JUMP JUMPDEST PUSH2 0x1745 PUSH1 0x1F DUP5 ADD PUSH1 0x1F NOT AND PUSH1 0x20 ADD PUSH2 0x16E7 JUMP JUMPDEST SWAP1 POP DUP3 DUP2 MSTORE DUP4 DUP4 DUP4 ADD GT ISZERO PUSH2 0x1759 JUMPI PUSH1 0x0 DUP1 REVERT JUMPDEST DUP3 DUP3 PUSH1 0x20 DUP4 ADD CALLDATACOPY PUSH1 0x0 PUSH1 0x20 DUP5 DUP4 ADD ADD MSTORE SWAP4 SWAP3 POP POP POP JUMP JUMPDEST PUSH1 0x0 DUP3 PUSH1 0x1F DUP4 ADD SLT PUSH2 0x1781 JUMPI PUSH1 0x0 DUP1 REVERT JUMPDEST PUSH2 0x1790 DUP4 DUP4 CALLDATALOAD PUSH1 0x20 DUP6 ADD PUSH2 0x1718 JUMP JUMPDEST SWAP4 SWAP3 POP POP POP JUMP JUMPDEST DUP1 CALLDATALOAD PUSH1 0x1 PUSH1 0x1 PUSH1 0xA0 SHL SUB DUP2 AND DUP2 EQ PUSH2 0x16A2 JUMPI PUSH1 0x0 DUP1 REVERT JUMPDEST DUP1 CALLDATALOAD DUP1 ISZERO ISZERO DUP2 EQ PUSH2 0x16A2 JUMPI PUSH1 0x0 DUP1 REVERT JUMPDEST DUP1 CALLDATALOAD PUSH4 0xFFFFFFFF DUP2 AND DUP2 EQ PUSH2 0x16A2 JUMPI PUSH1 0x0 DUP1 REVERT JUMPDEST PUSH1 0x0 PUSH8 0xFFFFFFFFFFFFFFFF DUP3 GT ISZERO PUSH2 0x17EC JUMPI PUSH2 0x17EC PUSH2 0x16A7 JUMP JUMPDEST POP PUSH1 0x5 SHL PUSH1 0x20 ADD SWAP1 JUMP JUMPDEST PUSH1 0x0 DUP3 PUSH1 0x1F DUP4 ADD SLT PUSH2 0x1807 JUMPI PUSH1 0x0 DUP1 REVERT JUMPDEST DUP2 CALLDATALOAD PUSH1 0x20 PUSH2 0x181C PUSH2 0x1817 DUP4 PUSH2 0x17D2 JUMP JUMPDEST PUSH2 0x16E7 JUMP JUMPDEST DUP3 DUP2 MSTORE PUSH1 0x5 SWAP3 SWAP1 SWAP3 SHL DUP5 ADD DUP2 ADD SWAP2 DUP2 DUP2 ADD SWAP1 DUP7 DUP5 GT ISZERO PUSH2 0x183B JUMPI PUSH1 0x0 DUP1 REVERT JUMPDEST DUP3 DUP7 ADD JUMPDEST DUP5 DUP2 LT ISZERO PUSH2 0x185D JUMPI PUSH2 0x1850 DUP2 PUSH2 0x1797 JUMP JUMPDEST DUP4 MSTORE SWAP2 DUP4 ADD SWAP2 DUP4 ADD PUSH2 0x183F JUMP JUMPDEST POP SWAP7 SWAP6 POP POP POP POP POP POP JUMP JUMPDEST DUP1 CALLDATALOAD PUSH1 0xFF DUP2 AND DUP2 EQ PUSH2 0x16A2 JUMPI PUSH1 0x0 DUP1 REVERT JUMPDEST PUSH1 0x0 DUP3 PUSH1 0x1F DUP4 ADD SLT PUSH2 0x188A JUMPI PUSH1 0x0 DUP1 REVERT JUMPDEST DUP2 CALLDATALOAD PUSH1 0x20 PUSH2 0x189A PUSH2 0x1817 DUP4 PUSH2 0x17D2 JUMP JUMPDEST DUP3 DUP2 MSTORE PUSH1 0x5 SWAP3 SWAP1 SWAP3 SHL DUP5 ADD DUP2 ADD SWAP2 DUP2 DUP2 ADD SWAP1 DUP7 DUP5 GT ISZERO PUSH2 0x18B9 JUMPI PUSH1 0x0 DUP1 REVERT JUMPDEST DUP3 DUP7 ADD JUMPDEST DUP5 DUP2 LT ISZERO PUSH2 0x185D JUMPI PUSH2 0x18CE DUP2 PUSH2 0x1868 JUMP JUMPDEST DUP4 MSTORE SWAP2 DUP4 ADD SWAP2 DUP4 ADD PUSH2 0x18BD JUMP JUMPDEST PUSH1 0x0 DUP1 PUSH1 0x0 DUP1 PUSH1 0x80 DUP6 DUP8 SUB SLT ISZERO PUSH2 0x18F1 JUMPI PUSH1 0x0 DUP1 REVERT JUMPDEST DUP5 CALLDATALOAD PUSH8 0xFFFFFFFFFFFFFFFF DUP1 DUP3 GT ISZERO PUSH2 0x1909 JUMPI PUSH1 0x0 DUP1 REVERT JUMPDEST SWAP1 DUP7 ADD SWAP1 PUSH2 0x1A0 DUP3 DUP10 SUB SLT ISZERO PUSH2 0x191E JUMPI PUSH1 0x0 DUP1 REVERT JUMPDEST PUSH2 0x1926 PUSH2 0x16BD JUMP JUMPDEST DUP3 CALLDATALOAD DUP3 DUP2 GT ISZERO PUSH2 0x1935 JUMPI PUSH1 0x0 DUP1 REVERT JUMPDEST PUSH2 0x1941 DUP11 DUP3 DUP7 ADD PUSH2 0x1770 JUMP JUMPDEST DUP3 MSTORE POP PUSH1 0x20 DUP4 ADD CALLDATALOAD DUP3 DUP2 GT ISZERO PUSH2 0x1956 JUMPI PUSH1 0x0 DUP1 REVERT JUMPDEST PUSH2 0x1962 DUP11 DUP3 DUP7 ADD PUSH2 0x1770 JUMP JUMPDEST PUSH1 0x20 DUP4 ADD MSTORE POP PUSH2 0x1974 PUSH1 0x40 DUP5 ADD PUSH2 0x1797 JUMP JUMPDEST PUSH1 0x40 DUP3 ADD MSTORE PUSH1 0x60 DUP4 ADD CALLDATALOAD DUP3 DUP2 GT ISZERO PUSH2 0x198B JUMPI PUSH1 0x0 DUP1 REVERT JUMPDEST PUSH2 0x1997 DUP11 DUP3 DUP7 ADD PUSH2 0x1770 JUMP JUMPDEST PUSH1 0x60 DUP4 ADD MSTORE POP PUSH2 0x19A9 PUSH1 0x80 DUP5 ADD PUSH2 0x17AE JUMP JUMPDEST PUSH1 0x80 DUP3 ADD MSTORE PUSH2 0x19BA PUSH1 0xA0 DUP5 ADD PUSH2 0x17BE JUMP JUMPDEST PUSH1 0xA0 DUP3 ADD MSTORE PUSH2 0x19CB PUSH1 0xC0 DUP5 ADD PUSH2 0x17AE JUMP JUMPDEST PUSH1 0xC0 DUP3 ADD MSTORE PUSH1 0xE0 DUP4 ADD CALLDATALOAD DUP3 DUP2 GT ISZERO PUSH2 0x19E2 JUMPI PUSH1 0x0 DUP1 REVERT JUMPDEST PUSH2 0x19EE DUP11 DUP3 DUP7 ADD PUSH2 0x17F6 JUMP JUMPDEST PUSH1 0xE0 DUP4 ADD MSTORE POP PUSH2 0x100 DUP1 DUP5 ADD CALLDATALOAD DUP4 DUP2 GT ISZERO PUSH2 0x1A08 JUMPI PUSH1 0x0 DUP1 REVERT JUMPDEST PUSH2 0x1A14 DUP12 DUP3 DUP8 ADD PUSH2 0x17F6 JUMP JUMPDEST DUP3 DUP5 ADD MSTORE POP POP PUSH2 0x120 DUP1 DUP5 ADD CALLDATALOAD DUP4 DUP2 GT ISZERO PUSH2 0x1A2E JUMPI PUSH1 0x0 DUP1 REVERT JUMPDEST PUSH2 0x1A3A DUP12 DUP3 DUP8 ADD PUSH2 0x17F6 JUMP JUMPDEST DUP3 DUP5 ADD MSTORE POP POP PUSH2 0x140 DUP1 DUP5 ADD CALLDATALOAD DUP4 DUP2 GT ISZERO PUSH2 0x1A54 JUMPI PUSH1 0x0 DUP1 REVERT JUMPDEST PUSH2 0x1A60 DUP12 DUP3 DUP8 ADD PUSH2 0x17F6 JUMP JUMPDEST DUP3 DUP5 ADD MSTORE POP POP PUSH2 0x160 DUP1 DUP5 ADD CALLDATALOAD DUP4 DUP2 GT ISZERO PUSH2 0x1A7A JUMPI PUSH1 0x0 DUP1 REVERT JUMPDEST PUSH2 0x1A86 DUP12 DUP3 DUP8 ADD PUSH2 0x17F6 JUMP JUMPDEST DUP3 DUP5 ADD MSTORE POP POP PUSH2 0x180 PUSH2 0x1A9A DUP2 DUP6 ADD PUSH2 0x1868 JUMP JUMPDEST SWAP1 DUP3 ADD MSTORE SWAP6 POP PUSH1 0x20 DUP8 ADD CALLDATALOAD SWAP5 POP PUSH1 0x40 DUP8 ADD CALLDATALOAD SWAP2 POP DUP1 DUP3 GT ISZERO PUSH2 0x1ABB JUMPI PUSH1 0x0 DUP1 REVERT JUMPDEST PUSH2 0x1AC7 DUP9 DUP4 DUP10 ADD PUSH2 0x1879 JUMP JUMPDEST SWAP4 POP PUSH1 0x60 DUP8 ADD CALLDATALOAD SWAP2 POP DUP1 DUP3 GT ISZERO PUSH2 0x1ADD JUMPI PUSH1 0x0 DUP1 REVERT JUMPDEST POP PUSH2 0x1AEA DUP8 DUP3 DUP9 ADD PUSH2 0x17F6 JUMP JUMPDEST SWAP2 POP POP SWAP3 SWAP6 SWAP2 SWAP5 POP SWAP3 POP JUMP JUMPDEST PUSH1 0x0 PUSH1 0x20 DUP3 DUP5 SUB SLT ISZERO PUSH2 0x1B08 JUMPI PUSH1 0x0 DUP1 REVERT JUMPDEST PUSH2 0x1790 DUP3 PUSH2 0x1797 JUMP JUMPDEST PUSH1 0x0 DUP1 PUSH1 0x40 DUP4 DUP6 SUB SLT ISZERO PUSH2 0x1B24 JUMPI PUSH1 0x0 DUP1 REVERT JUMPDEST PUSH2 0x1B2D DUP4 PUSH2 0x1797 JUMP JUMPDEST SWAP2 POP PUSH2 0x1B3B PUSH1 0x20 DUP5 ADD PUSH2 0x17AE JUMP JUMPDEST SWAP1 POP SWAP3 POP SWAP3 SWAP1 POP JUMP JUMPDEST PUSH1 0x0 DUP1 PUSH1 0x0 DUP1 PUSH1 0x80 DUP6 DUP8 SUB SLT ISZERO PUSH2 0x1B5A JUMPI PUSH1 0x0 DUP1 REVERT JUMPDEST PUSH2 0x1B63 DUP6 PUSH2 0x1797 JUMP JUMPDEST SWAP4 POP PUSH2 0x1B71 PUSH1 0x20 DUP7 ADD PUSH2 0x1797 JUMP JUMPDEST SWAP3 POP PUSH2 0x1B7F PUSH1 0x40 DUP7 ADD PUSH2 0x1797 JUMP JUMPDEST SWAP4 SWAP7 SWAP3 SWAP6 POP SWAP3 SWAP4 PUSH1 0x60 ADD CALLDATALOAD SWAP3 POP POP JUMP JUMPDEST PUSH1 0x0 DUP1 PUSH1 0x40 DUP4 DUP6 SUB SLT ISZERO PUSH2 0x1BA2 JUMPI PUSH1 0x0 DUP1 REVERT JUMPDEST PUSH2 0x1BAB DUP4 PUSH2 0x1797 JUMP JUMPDEST SWAP2 POP PUSH2 0x1B3B PUSH1 0x20 DUP5 ADD PUSH2 0x1797 JUMP JUMPDEST PUSH1 0x0 JUMPDEST DUP4 DUP2 LT ISZERO PUSH2 0x1BD4 JUMPI DUP2 DUP2 ADD MLOAD DUP4 DUP3 ADD MSTORE PUSH1 0x20 ADD PUSH2 0x1BBC JUMP JUMPDEST POP POP PUSH1 0x0 SWAP2 ADD MSTORE JUMP JUMPDEST PUSH1 0x0 DUP2 MLOAD DUP1 DUP5 MSTORE PUSH2 0x1BF5 DUP2 PUSH1 0x20 DUP7 ADD PUSH1 0x20 DUP7 ADD PUSH2 0x1BB9 JUMP JUMPDEST PUSH1 0x1F ADD PUSH1 0x1F NOT AND SWAP3 SWAP1 SWAP3 ADD PUSH1 0x20 ADD SWAP3 SWAP2 POP POP JUMP JUMPDEST PUSH1 0x0 PUSH1 0x20 DUP1 DUP4 ADD DUP2 DUP5 MSTORE DUP1 DUP6 MLOAD DUP1 DUP4 MSTORE PUSH1 0x40 DUP7 ADD SWAP2 POP PUSH1 0x40 DUP2 PUSH1 0x5 SHL DUP8 ADD ADD SWAP3 POP DUP4 DUP8 ADD PUSH1 0x0 JUMPDEST DUP3 DUP2 LT ISZERO PUSH2 0x1C5E JUMPI PUSH1 0x3F NOT DUP9 DUP7 SUB ADD DUP5 MSTORE PUSH2 0x1C4C DUP6 DUP4 MLOAD PUSH2 0x1BDD JUMP JUMPDEST SWAP5 POP SWAP3 DUP6 ADD SWAP3 SWAP1 DUP6 ADD SWAP1 PUSH1 0x1 ADD PUSH2 0x1C30 JUMP JUMPDEST POP SWAP3 SWAP8 SWAP7 POP POP POP POP POP POP POP JUMP JUMPDEST PUSH1 0x0 DUP1 PUSH1 0x40 DUP4 DUP6 SUB SLT ISZERO PUSH2 0x1C7E JUMPI PUSH1 0x0 DUP1 REVERT JUMPDEST DUP3 CALLDATALOAD DUP1 PUSH1 0x7 SIGNEXTEND DUP2 EQ PUSH2 0x1BAB JUMPI PUSH1 0x0 DUP1 REVERT JUMPDEST PUSH1 0x0 PUSH1 0x20 DUP3 DUP5 SUB SLT ISZERO PUSH2 0x1CA1 JUMPI PUSH1 0x0 DUP1 REVERT JUMPDEST PUSH2 0x1790 DUP3 PUSH2 0x17AE JUMP JUMPDEST PUSH1 0x0 DUP1 PUSH1 0x0 PUSH1 0x60 DUP5 DUP7 SUB SLT ISZERO PUSH2 0x1CBF JUMPI PUSH1 0x0 DUP1 REVERT JUMPDEST PUSH2 0x1CC8 DUP5 PUSH2 0x1797 JUMP JUMPDEST SWAP3 POP PUSH2 0x1CD6 PUSH1 0x20 DUP6 ADD PUSH2 0x1797 JUMP JUMPDEST SWAP2 POP PUSH2 0x1CE4 PUSH1 0x40 DUP6 ADD PUSH2 0x1797 JUMP JUMPDEST SWAP1 POP SWAP3 POP SWAP3 POP SWAP3 JUMP JUMPDEST PUSH1 0x0 DUP1 PUSH1 0x0 PUSH1 0x60 DUP5 DUP7 SUB SLT ISZERO PUSH2 0x1D02 JUMPI PUSH1 0x0 DUP1 REVERT JUMPDEST PUSH2 0x1D0B DUP5 PUSH2 0x1797 JUMP JUMPDEST SWAP3 POP PUSH2 0x1D19 PUSH1 0x20 DUP6 ADD PUSH2 0x1797 JUMP JUMPDEST SWAP2 POP PUSH2 0x1CE4 PUSH1 0x40 DUP6 ADD PUSH2 0x17AE JUMP JUMPDEST PUSH1 0x0 DUP1 PUSH1 0x0 DUP1 PUSH1 0x80 DUP6 DUP8 SUB SLT ISZERO PUSH2 0x1D3D JUMPI PUSH1 0x0 DUP1 REVERT JUMPDEST PUSH2 0x1D46 DUP6 PUSH2 0x1797 JUMP JUMPDEST SWAP4 POP PUSH2 0x1D54 PUSH1 0x20 DUP7 ADD PUSH2 0x1797 JUMP JUMPDEST SWAP3 POP PUSH2 0x1D62 PUSH1 0x40 DUP7 ADD PUSH2 0x1797 JUMP JUMPDEST SWAP2 POP PUSH2 0x1D70 PUSH1 0x60 DUP7 ADD PUSH2 0x1797 JUMP JUMPDEST SWAP1 POP SWAP3 SWAP6 SWAP2 SWAP5 POP SWAP3 POP JUMP JUMPDEST PUSH1 0x0 DUP1 PUSH1 0x0 PUSH1 0x60 DUP5 DUP7 SUB SLT ISZERO PUSH2 0x1D90 JUMPI PUSH1 0x0 DUP1 REVERT JUMPDEST PUSH2 0x1D99 DUP5 PUSH2 0x1797 JUMP JUMPDEST SWAP3 POP PUSH1 0x20 DUP1 DUP6 ADD CALLDATALOAD SWAP3 POP PUSH1 0x40 DUP1 DUP7 ADD CALLDATALOAD PUSH8 0xFFFFFFFFFFFFFFFF DUP1 DUP3 GT ISZERO PUSH2 0x1DBF JUMPI PUSH1 0x0 DUP1 REVERT JUMPDEST DUP2 DUP9 ADD SWAP2 POP DUP9 PUSH1 0x1F DUP4 ADD SLT PUSH2 0x1DD3 JUMPI PUSH1 0x0 DUP1 REVERT JUMPDEST DUP2 CALLDATALOAD PUSH2 0x1DE1 PUSH2 0x1817 DUP3 PUSH2 0x17D2 JUMP JUMPDEST DUP2 DUP2 MSTORE PUSH1 0x5 SWAP2 SWAP1 SWAP2 SHL DUP4 ADD DUP6 ADD SWAP1 DUP6 DUP2 ADD SWAP1 DUP12 DUP4 GT ISZERO PUSH2 0x1E00 JUMPI PUSH1 0x0 DUP1 REVERT JUMPDEST DUP7 DUP6 ADD JUMPDEST DUP4 DUP2 LT ISZERO PUSH2 0x1E4C JUMPI DUP1 CALLDATALOAD DUP6 DUP2 GT ISZERO PUSH2 0x1E1C JUMPI PUSH1 0x0 DUP1 DUP2 REVERT JUMPDEST DUP7 ADD PUSH1 0x3F DUP2 ADD DUP15 SGT PUSH2 0x1E2E JUMPI PUSH1 0x0 DUP1 DUP2 REVERT JUMPDEST PUSH2 0x1E3E DUP15 DUP11 DUP4 ADD CALLDATALOAD DUP11 DUP5 ADD PUSH2 0x1718 JUMP JUMPDEST DUP5 MSTORE POP SWAP2 DUP8 ADD SWAP2 DUP8 ADD PUSH2 0x1E04 JUMP JUMPDEST POP DUP1 SWAP8 POP POP POP POP POP POP POP POP SWAP3 POP SWAP3 POP SWAP3 JUMP JUMPDEST PUSH4 0x4E487B71 PUSH1 0xE0 SHL PUSH1 0x0 MSTORE PUSH1 0x32 PUSH1 0x4 MSTORE PUSH1 0x24 PUSH1 0x0 REVERT JUMPDEST PUSH4 0x4E487B71 PUSH1 0xE0 SHL PUSH1 0x0 MSTORE PUSH1 0x11 PUSH1 0x4 MSTORE PUSH1 0x24 PUSH1 0x0 REVERT JUMPDEST PUSH1 0x0 PUSH1 0x1 DUP3 ADD PUSH2 0x1E9C JUMPI PUSH2 0x1E9C PUSH2 0x1E74 JUMP JUMPDEST POP PUSH1 0x1 ADD SWAP1 JUMP JUMPDEST PUSH1 0x60 DUP2 MSTORE PUSH1 0x0 PUSH2 0x1EB6 PUSH1 0x60 DUP4 ADD DUP7 PUSH2 0x1BDD JUMP JUMPDEST DUP3 DUP2 SUB PUSH1 0x20 DUP5 ADD MSTORE PUSH2 0x1EC8 DUP2 DUP7 PUSH2 0x1BDD JUMP JUMPDEST SWAP2 POP POP PUSH1 0x1 DUP1 PUSH1 0xA0 SHL SUB DUP4 AND PUSH1 0x40 DUP4 ADD MSTORE SWAP5 SWAP4 POP POP POP POP JUMP JUMPDEST DUP4 DUP2 MSTORE PUSH12 0xFFFFFFFFFFFFFFFFFFFFFFFF NOT DUP4 PUSH1 0x60 SHL AND PUSH1 0x20 DUP3 ADD MSTORE PUSH1 0x0 DUP3 MLOAD PUSH2 0x1F11 DUP2 PUSH1 0x34 DUP6 ADD PUSH1 0x20 DUP8 ADD PUSH2 0x1BB9 JUMP JUMPDEST SWAP2 SWAP1 SWAP2 ADD PUSH1 0x34 ADD SWAP5 SWAP4 POP POP POP POP JUMP JUMPDEST DUP2 DUP2 SUB DUP2 DUP2 GT ISZERO PUSH2 0xE9A JUMPI PUSH2 0xE9A PUSH2 0x1E74 JUMP JUMPDEST DUP1 DUP3 ADD DUP1 DUP3 GT ISZERO PUSH2 0xE9A JUMPI PUSH2 0xE9A PUSH2 0x1E74 JUMP JUMPDEST PUSH14 0xE8E4C2DCE6CCCAE4A8DED6CADC5 PUSH1 0x93 SHL DUP2 MSTORE PUSH1 0x0 DUP5 MLOAD PUSH2 0x1F6F DUP2 PUSH1 0xE DUP6 ADD PUSH1 0x20 DUP10 ADD PUSH2 0x1BB9 JUMP JUMPDEST DUP1 DUP4 ADD SWAP1 POP PUSH1 0xB PUSH1 0xFA SHL DUP1 PUSH1 0xE DUP4 ADD MSTORE DUP6 MLOAD PUSH2 0x1F92 DUP2 PUSH1 0xF DUP6 ADD PUSH1 0x20 DUP11 ADD PUSH2 0x1BB9 JUMP JUMPDEST PUSH1 0xF SWAP3 ADD SWAP2 DUP3 ADD MSTORE DUP4 MLOAD PUSH2 0x1FAD DUP2 PUSH1 0x10 DUP5 ADD PUSH1 0x20 DUP9 ADD PUSH2 0x1BB9 JUMP JUMPDEST PUSH1 0x29 PUSH1 0xF8 SHL PUSH1 0x10 SWAP3 SWAP1 SWAP2 ADD SWAP2 DUP3 ADD MSTORE PUSH1 0x11 ADD SWAP6 SWAP5 POP POP POP POP POP JUMP JUMPDEST PUSH1 0x1 DUP2 DUP2 SHR SWAP1 DUP3 AND DUP1 PUSH2 0x1FDC JUMPI PUSH1 0x7F DUP3 AND SWAP2 POP JUMPDEST PUSH1 0x20 DUP3 LT DUP2 SUB PUSH2 0x1FFC JUMPI PUSH4 0x4E487B71 PUSH1 0xE0 SHL PUSH1 0x0 MSTORE PUSH1 0x22 PUSH1 0x4 MSTORE PUSH1 0x24 PUSH1 0x0 REVERT JUMPDEST POP SWAP2 SWAP1 POP JUMP JUMPDEST PUSH1 0x1F DUP3 GT ISZERO PUSH2 0x204C JUMPI PUSH1 0x0 DUP2 DUP2 MSTORE PUSH1 0x20 DUP2 KECCAK256 PUSH1 0x1F DUP6 ADD PUSH1 0x5 SHR DUP2 ADD PUSH1 0x20 DUP7 LT ISZERO PUSH2 0x2029 JUMPI POP DUP1 JUMPDEST PUSH1 0x1F DUP6 ADD PUSH1 0x5 SHR DUP3 ADD SWAP2 POP JUMPDEST DUP2 DUP2 LT ISZERO PUSH2 0x2048 JUMPI DUP3 DUP2 SSTORE PUSH1 0x1 ADD PUSH2 0x2035 JUMP JUMPDEST POP POP POP JUMPDEST POP POP POP JUMP JUMPDEST DUP2 MLOAD PUSH8 0xFFFFFFFFFFFFFFFF DUP2 GT ISZERO PUSH2 0x206B JUMPI PUSH2 0x206B PUSH2 0x16A7 JUMP JUMPDEST PUSH2 0x207F DUP2 PUSH2 0x2079 DUP5 SLOAD PUSH2 0x1FC8 JUMP JUMPDEST DUP5 PUSH2 0x2002 JUMP JUMPDEST PUSH1 0x20 DUP1 PUSH1 0x1F DUP4 GT PUSH1 0x1 DUP2 EQ PUSH2 0x20B4 JUMPI PUSH1 0x0 DUP5 ISZERO PUSH2 0x209C JUMPI POP DUP6 DUP4 ADD MLOAD JUMPDEST PUSH1 0x0 NOT PUSH1 0x3 DUP7 SWAP1 SHL SHR NOT AND PUSH1 0x1 DUP6 SWAP1 SHL OR DUP6 SSTORE PUSH2 0x2048 JUMP JUMPDEST PUSH1 0x0 DUP6 DUP2 MSTORE PUSH1 0x20 DUP2 KECCAK256 PUSH1 0x1F NOT DUP7 AND SWAP2 JUMPDEST DUP3 DUP2 LT ISZERO PUSH2 0x20E3 JUMPI DUP9 DUP7 ADD MLOAD DUP3 SSTORE SWAP5 DUP5 ADD SWAP5 PUSH1 0x1 SWAP1 SWAP2 ADD SWAP1 DUP5 ADD PUSH2 0x20C4 JUMP JUMPDEST POP DUP6 DUP3 LT ISZERO PUSH2 0x2101 JUMPI DUP8 DUP6 ADD MLOAD PUSH1 0x0 NOT PUSH1 0x3 DUP9 SWAP1 SHL PUSH1 0xF8 AND SHR NOT AND DUP2 SSTORE JUMPDEST POP POP POP POP POP PUSH1 0x1 SWAP1 DUP2 SHL ADD SWAP1 SSTORE POP JUMP JUMPDEST DUP1 DUP3 MUL DUP2 ISZERO DUP3 DUP3 DIV DUP5 EQ OR PUSH2 0xE9A JUMPI PUSH2 0xE9A PUSH2 0x1E74 JUMP JUMPDEST PUSH1 0x1 DUP2 DUP2 JUMPDEST DUP1 DUP6 GT ISZERO PUSH2 0x2163 JUMPI DUP2 PUSH1 0x0 NOT DIV DUP3 GT ISZERO PUSH2 0x2149 JUMPI PUSH2 0x2149 PUSH2 0x1E74 JUMP JUMPDEST DUP1 DUP6 AND ISZERO PUSH2 0x2156 JUMPI SWAP2 DUP2 MUL SWAP2 JUMPDEST SWAP4 DUP5 SHR SWAP4 SWAP1 DUP1 MUL SWAP1 PUSH2 0x212D JUMP JUMPDEST POP SWAP3 POP SWAP3 SWAP1 POP JUMP JUMPDEST PUSH1 0x0 DUP3 PUSH2 0x217A JUMPI POP PUSH1 0x1 PUSH2 0xE9A JUMP JUMPDEST DUP2 PUSH2 0x2187 JUMPI POP PUSH1 0x0 PUSH2 0xE9A JUMP JUMPDEST DUP2 PUSH1 0x1 DUP2 EQ PUSH2 0x219D JUMPI PUSH1 0x2 DUP2 EQ PUSH2 0x21A7 JUMPI PUSH2 0x21C3 JUMP JUMPDEST PUSH1 0x1 SWAP2 POP POP PUSH2 0xE9A JUMP JUMPDEST PUSH1 0xFF DUP5 GT ISZERO PUSH2 0x21B8 JUMPI PUSH2 0x21B8 PUSH2 0x1E74 JUMP JUMPDEST POP POP PUSH1 0x1 DUP3 SHL PUSH2 0xE9A JUMP JUMPDEST POP PUSH1 0x20 DUP4 LT PUSH2 0x133 DUP4 LT AND PUSH1 0x4E DUP5 LT PUSH1 0xB DUP5 LT AND OR ISZERO PUSH2 0x21E6 JUMPI POP DUP2 DUP2 EXP PUSH2 0xE9A JUMP JUMPDEST PUSH2 0x21F0 DUP4 DUP4 PUSH2 0x2128 JUMP JUMPDEST DUP1 PUSH1 0x0 NOT DIV DUP3 GT ISZERO PUSH2 0x2204 JUMPI PUSH2 0x2204 PUSH2 0x1E74 JUMP JUMPDEST MUL SWAP4 SWAP3 POP POP POP JUMP JUMPDEST PUSH1 0x0 PUSH2 0x1790 DUP4 DUP4 PUSH2 0x216B JUMP JUMPDEST PUSH4 0x4E487B71 PUSH1 0xE0 SHL PUSH1 0x0 MSTORE PUSH1 0x12 PUSH1 0x4 MSTORE PUSH1 0x24 PUSH1 0x0 REVERT JUMPDEST PUSH1 0x0 DUP3 PUSH2 0x223D JUMPI PUSH2 0x223D PUSH2 0x2218 JUMP JUMPDEST POP DIV SWAP1 JUMP JUMPDEST PUSH1 0x0 PUSH1 0xFF DUP4 AND DUP1 PUSH2 0x2255 JUMPI PUSH2 0x2255 PUSH2 0x2218 JUMP JUMPDEST DUP1 PUSH1 0xFF DUP5 AND DIV SWAP2 POP POP SWAP3 SWAP2 POP POP JUMP JUMPDEST PUSH1 0xFF DUP2 DUP2 AND DUP4 DUP3 AND MUL SWAP1 DUP2 AND SWAP1 DUP2 DUP2 EQ PUSH2 0x2280 JUMPI PUSH2 0x2280 PUSH2 0x1E74 JUMP JUMPDEST POP SWAP3 SWAP2 POP POP JUMP JUMPDEST PUSH1 0xFF DUP3 DUP2 AND DUP3 DUP3 AND SUB SWAP1 DUP2 GT ISZERO PUSH2 0xE9A JUMPI PUSH2 0xE9A PUSH2 0x1E74 JUMP JUMPDEST PUSH2 0x60F PUSH1 0xF3 SHL DUP2 MSTORE PUSH1 0x0 DUP3 MLOAD PUSH2 0x22BD DUP2 PUSH1 0x2 DUP6 ADD PUSH1 0x20 DUP8 ADD PUSH2 0x1BB9 JUMP JUMPDEST SWAP2 SWAP1 SWAP2 ADD PUSH1 0x2 ADD SWAP3 SWAP2 POP POP JUMP JUMPDEST PUSH1 0xFF DUP2 DUP2 AND DUP4 DUP3 AND ADD SWAP1 DUP2 GT ISZERO PUSH2 0xE9A JUMPI PUSH2 0xE9A PUSH2 0x1E74 JUMP INVALID LOG2 PUSH5 0x6970667358 0x22 SLT KECCAK256 0xC4 SWAP8 0x2A 0xD2 0xE6 DUP15 BALANCE 0x49 0xA6 0xBD LOG0 PUSH16 0x94C2CB1349DC78FD7CFA47D31E9A1BC5 0xB2 SLT 0xBD 0xB1 PUSH5 0x736F6C6343 STOP ADDMOD SLT STOP CALLER "},"gasEstimates":{"creation":{"codeDepositCost":"1797000","executionCost":"244382","totalCost":"2041382"},"external":{"allowance(address,address,address)":"infinite","associateToken(address,address)":"infinite","balanceOf(address,address)":"infinite","burnToken(address,uint256,bytes[])":"infinite","createToken((string,string,address,string,bool,uint32,bool,address[],address[],address[],address[],address[],uint8),uint256,uint8[],address[])":"infinite","disassociateToken(address,address)":"infinite","getLastTransfer(address)":"13748","getMockHtsPrecompile()":"2432","getRecordedCalls()":"infinite","getSkipAllowanceChecks()":"2306","getSupplyKeyHolder(address)":"2656","isSupplyKey(address,address)":"infinite","isTokenAssociated(address,address)":"infinite","mintToken(address,uint256,bytes[])":"infinite","mockCreateTokenResponse(int64,address)":"49001","mockIsSupplyKey(address,address,bool)":"infinite","setAllowance(address,address,address,uint256)":"infinite","setMintingEnabled(address,bool)":"infinite","setMockHtsPrecompile(address)":"24627","setSkipAllowanceChecks(bool)":"24540","setSupplyKeyHolder(address,address)":"infinite","setTokenAssociated(address,address,bool)":"infinite","setupTokens(address,address,address,address)":"infinite","transferToken(address,address,address,uint256)":"infinite"},"internal":{"char(bytes1)":"169","toHexString(address)":"infinite","uint2str(uint256)":"infinite"}},"methodIdentifiers":{"allowance(address,address,address)":"927da105","associateToken(address,address)":"49146bde","balanceOf(address,address)":"f7888aec","burnToken(address,uint256,bytes[])":"f3fc76fa","createToken((string,string,address,string,bool,uint32,bool,address[],address[],address[],address[],address[],uint8),uint256,uint8[],address[])":"01b620ca","disassociateToken(address,address)":"3fda8941","getLastTransfer(address)":"9eb50f1b","getMockHtsPrecompile()":"24a94e01","getRecordedCalls()":"4360b7ec","getSkipAllowanceChecks()":"009f7c13","getSupplyKeyHolder(address)":"4b8555a3","isSupplyKey(address,address)":"5c34c68a","isTokenAssociated(address,address)":"725fe8a4","mintToken(address,uint256,bytes[])":"ec12dc02","mockCreateTokenResponse(int64,address)":"4d2c5311","mockIsSupplyKey(address,address,bool)":"cc2456b7","setAllowance(address,address,address,uint256)":"a7070373","setMintingEnabled(address,bool)":"1abb194a","setMockHtsPrecompile(address)":"03bd8900","setSkipAllowanceChecks(bool)":"69bf64d1","setSupplyKeyHolder(address,address)":"ac9e6d7a","setTokenAssociated(address,address,bool)":"a7796a90","setupTokens(address,address,address,address)":"c0974946","transferToken(address,address,address,uint256)":"2c54de4f"}},"storageLayout":{"storage":[{"astId":1750,"contract":"app/contracts/MockHederaTokenService.sol:MockHederaTokenService","label":"balances","offset":0,"slot":"0","type":"t_mapping(t_address,t_mapping(t_address,t_uint256))"},{"astId":1758,"contract":"app/contracts/MockHederaTokenService.sol:MockHederaTokenService","label":"allowances","offset":0,"slot":"1","type":"t_mapping(t_address,t_mapping(t_address,t_mapping(t_address,t_uint256)))"},{"astId":1764,"contract":"app/contracts/MockHederaTokenService.sol:MockHederaTokenService","label":"tokenAssociations","offset":0,"slot":"2","type":"t_mapping(t_address,t_mapping(t_address,t_bool))"},{"astId":1768,"contract":"app/contracts/MockHederaTokenService.sol:MockHederaTokenService","label":"mintingEnabled","offset":0,"slot":"3","type":"t_mapping(t_address,t_bool)"},{"astId":1772,"contract":"app/contracts/MockHederaTokenService.sol:MockHederaTokenService","label":"tokenSupplyKeyHolders","offset":0,"slot":"4","type":"t_mapping(t_address,t_address)"},{"astId":1785,"contract":"app/contracts/MockHederaTokenService.sol:MockHederaTokenService","label":"tokenTransfers","offset":0,"slot":"5","type":"t_mapping(t_address,t_array(t_struct(Transfer)1779_storage)dyn_storage)"},{"astId":1788,"contract":"app/contracts/MockHederaTokenService.sol:MockHederaTokenService","label":"recordedCalls","offset":0,"slot":"6","type":"t_array(t_string_storage)dyn_storage"},{"astId":1790,"contract":"app/contracts/MockHederaTokenService.sol:MockHederaTokenService","label":"mockHtsPrecompile","offset":0,"slot":"7","type":"t_address"},{"astId":1792,"contract":"app/contracts/MockHederaTokenService.sol:MockHederaTokenService","label":"mockedCreateTokenResponseCode","offset":20,"slot":"7","type":"t_int64"},{"astId":1794,"contract":"app/contracts/MockHederaTokenService.sol:MockHederaTokenService","label":"mockedCreateTokenAddress","offset":0,"slot":"8","type":"t_address"},{"astId":1800,"contract":"app/contracts/MockHederaTokenService.sol:MockHederaTokenService","label":"mockedIsSupplyKeyResults","offset":0,"slot":"9","type":"t_mapping(t_address,t_mapping(t_address,t_bool))"},{"astId":1803,"contract":"app/contracts/MockHederaTokenService.sol:MockHederaTokenService","label":"skipAllowanceChecks","offset":0,"slot":"10","type":"t_bool"}],"types":{"t_address":{"encoding":"inplace","label":"address","numberOfBytes":"20"},"t_array(t_string_storage)dyn_storage":{"base":"t_string_storage","encoding":"dynamic_array","label":"string[]","numberOfBytes":"32"},"t_array(t_struct(Transfer)1779_storage)dyn_storage":{"base":"t_struct(Transfer)1779_storage","encoding":"dynamic_array","label":"struct MockHederaTokenService.Transfer[]","numberOfBytes":"32"},"t_bool":{"encoding":"inplace","label":"bool","numberOfBytes":"1"},"t_int64":{"encoding":"inplace","label":"int64","numberOfBytes":"8"},"t_mapping(t_address,t_address)":{"encoding":"mapping","key":"t_address","label":"mapping(address => address)","numberOfBytes":"32","value":"t_address"},"t_mapping(t_address,t_array(t_struct(Transfer)1779_storage)dyn_storage)":{"encoding":"mapping","key":"t_address","label":"mapping(address => struct MockHederaTokenService.Transfer[])","numberOfBytes":"32","value":"t_array(t_struct(Transfer)1779_storage)dyn_storage"},"t_mapping(t_address,t_bool)":{"encoding":"mapping","key":"t_address","label":"mapping(address => bool)","numberOfBytes":"32","value":"t_bool"},"t_mapping(t_address,t_mapping(t_address,t_bool))":{"encoding":"mapping","key":"t_address","label":"mapping(address => mapping(address => bool))","numberOfBytes":"32","value":"t_mapping(t_address,t_bool)"},"t_mapping(t_address,t_mapping(t_address,t_mapping(t_address,t_uint256)))":{"encoding":"mapping","key":"t_address","label":"mapping(address => mapping(address => mapping(address => uint256)))","numberOfBytes":"32","value":"t_mapping(t_address,t_mapping(t_address,t_uint256))"},"t_mapping(t_address,t_mapping(t_address,t_uint256))":{"encoding":"mapping","key":"t_address","label":"mapping(address => mapping(address => uint256))","numberOfBytes":"32","value":"t_mapping(t_address,t_uint256)"},"t_mapping(t_address,t_uint256)":{"encoding":"mapping","key":"t_address","label":"mapping(address => uint256)","numberOfBytes":"32","value":"t_uint256"},"t_string_storage":{"encoding":"bytes","label":"string","numberOfBytes":"32"},"t_struct(Transfer)1779_storage":{"encoding":"inplace","label":"struct MockHederaTokenService.Transfer","members":[{"astId":1774,"contract":"app/contracts/MockHederaTokenService.sol:MockHederaTokenService","label":"from","offset":0,"slot":"0","type":"t_address"},{"astId":1776,"contract":"app/contracts/MockHederaTokenService.sol:MockHederaTokenService","label":"to","offset":0,"slot":"1","type":"t_address"},{"astId":1778,"contract":"app/contracts/MockHederaTokenService.sol:MockHederaTokenService","label":"amount","offset":0,"slot":"2","type":"t_uint256"}],"numberOfBytes":"96"},"t_uint256":{"encoding":"inplace","label":"uint256","numberOfBytes":"32"}}},"userdoc":{"kind":"user","methods":{},"version":1}}}}