{"app/contracts/DepositMinter.sol":{"DepositMinter":{"abi":[{"inputs":[],"stateMutability":"nonpayable","type":"constructor"},{"inputs":[{"internalType":"string","name":"tokenType","type":"string"},{"internalType":"uint256","name":"required","type":"uint256"},{"internalType":"uint256","name":"current","type":"uint256"}],"name":"InsufficientAllowance","type":"error"},{"inputs":[{"internalType":"string","name":"tokenType","type":"string"},{"internalType":"uint256","name":"required","type":"uint256"},{"internalType":"uint256","name":"provided","type":"uint256"}],"name":"InsufficientDeposit","type":"error"},{"inputs":[],"name":"InvalidAmount","type":"error"},{"inputs":[{"internalType":"int256","name":"responseCode","type":"int256"}],"name":"MintFailed","type":"error"},{"inputs":[],"name":"OnlyAdmin","type":"error"},{"inputs":[{"internalType":"address","name":"token","type":"address"},{"internalType":"address","name":"account","type":"address"}],"name":"TokenNotAssociated","type":"error"},{"inputs":[{"internalType":"string","name":"tokenType","type":"string"}],"name":"TokenNotSet","type":"error"},{"inputs":[{"internalType":"string","name":"tokenType","type":"string"}],"name":"TransferFailed","type":"error"},{"anonymous":false,"inputs":[{"indexed":false,"internalType":"address","name":"previousAdmin","type":"address"},{"indexed":false,"internalType":"address","name":"newAdmin","type":"address"}],"name":"AdminTransferred","type":"event"},{"anonymous":false,"inputs":[{"indexed":false,"internalType":"address","name":"token","type":"address"},{"indexed":false,"internalType":"address","name":"owner","type":"address"},{"indexed":false,"internalType":"address","name":"spender","type":"address"},{"indexed":false,"internalType":"uint256","name":"allowance","type":"uint256"}],"name":"AllowanceCheck","type":"event"},{"anonymous":false,"inputs":[{"indexed":false,"internalType":"address","name":"token","type":"address"},{"indexed":false,"internalType":"int256","name":"responseCode","type":"int256"}],"name":"AssociationResult","type":"event"},{"anonymous":false,"inputs":[{"indexed":false,"internalType":"address","name":"token","type":"address"},{"indexed":false,"internalType":"address","name":"account","type":"address"},{"indexed":false,"internalType":"uint256","name":"balance","type":"uint256"}],"name":"BalanceCheck","type":"event"},{"anonymous":false,"inputs":[{"indexed":false,"internalType":"bool","name":"","type":"bool"},{"indexed":false,"internalType":"bytes","name":"","type":"bytes"}],"name":"CallResponseEvent","type":"event"},{"anonymous":false,"inputs":[{"indexed":false,"internalType":"string","name":"operation","type":"string"},{"indexed":false,"internalType":"address","name":"token","type":"address"},{"indexed":false,"internalType":"address","name":"account","type":"address"},{"indexed":false,"internalType":"int256","name":"responseCode","type":"int256"},{"indexed":false,"internalType":"string","name":"message","type":"string"}],"name":"HTSOperationResult","type":"event"},{"anonymous":false,"inputs":[{"indexed":true,"internalType":"address","name":"user","type":"address"},{"indexed":false,"internalType":"uint256","name":"lynxAmount","type":"uint256"}],"name":"LynxMinted","type":"event"},{"anonymous":false,"inputs":[{"indexed":false,"internalType":"string","name":"tokenType","type":"string"},{"indexed":false,"internalType":"address","name":"previousToken","type":"address"},{"indexed":false,"internalType":"address","name":"newToken","type":"address"}],"name":"TokenAddressSet","type":"event"},{"anonymous":false,"inputs":[{"indexed":true,"internalType":"address","name":"user","type":"address"},{"indexed":false,"internalType":"uint256","name":"sauceAmount","type":"uint256"},{"indexed":false,"internalType":"uint256","name":"clxyAmount","type":"uint256"},{"indexed":false,"internalType":"uint256","name":"hbarAmount","type":"uint256"}],"name":"TokensDeposited","type":"event"},{"anonymous":false,"inputs":[{"indexed":false,"internalType":"string","name":"step","type":"string"},{"indexed":false,"internalType":"bool","name":"passed","type":"bool"},{"indexed":false,"internalType":"string","name":"details","type":"string"}],"name":"ValidationStep","type":"event"},{"inputs":[],"name":"CLXY_DECIMALS","outputs":[{"internalType":"uint8","name":"","type":"uint8"}],"stateMutability":"view","type":"function"},{"inputs":[],"name":"CLXY_RATIO","outputs":[{"internalType":"uint256","name":"","type":"uint256"}],"stateMutability":"view","type":"function"},{"inputs":[],"name":"HBAR_RATIO","outputs":[{"internalType":"uint256","name":"","type":"uint256"}],"stateMutability":"view","type":"function"},{"inputs":[],"name":"LYNX_DECIMALS","outputs":[{"internalType":"uint8","name":"","type":"uint8"}],"stateMutability":"view","type":"function"},{"inputs":[],"name":"SAUCE_DECIMALS","outputs":[{"internalType":"uint8","name":"","type":"uint8"}],"stateMutability":"view","type":"function"},{"inputs":[],"name":"SAUCE_RATIO","outputs":[{"internalType":"uint256","name":"","type":"uint256"}],"stateMutability":"view","type":"function"},{"inputs":[],"name":"admin","outputs":[{"internalType":"address","name":"","type":"address"}],"stateMutability":"view","type":"function"},{"inputs":[{"internalType":"address[]","name":"tokenAddresses","type":"address[]"}],"name":"associateTokens","outputs":[],"stateMutability":"nonpayable","type":"function"},{"inputs":[{"internalType":"uint256","name":"lynxAmount","type":"uint256"}],"name":"calculateRequiredDeposits","outputs":[{"internalType":"uint256","name":"sauceRequired","type":"uint256"},{"internalType":"uint256","name":"clxyRequired","type":"uint256"},{"internalType":"uint256","name":"hbarRequired","type":"uint256"}],"stateMutability":"pure","type":"function"},{"inputs":[],"name":"checkAllAssociations","outputs":[{"internalType":"bool","name":"contractSauceAssociated","type":"bool"},{"internalType":"bool","name":"contractClxyAssociated","type":"bool"},{"internalType":"bool","name":"contractLynxAssociated","type":"bool"}],"stateMutability":"nonpayable","type":"function"},{"inputs":[],"name":"clxyToken","outputs":[{"internalType":"address","name":"","type":"address"}],"stateMutability":"view","type":"function"},{"inputs":[{"internalType":"uint256","name":"amount","type":"uint256"}],"name":"emergencyWithdrawHbar","outputs":[],"stateMutability":"nonpayable","type":"function"},{"inputs":[],"name":"getHbarBalance","outputs":[{"internalType":"uint256","name":"","type":"uint256"}],"stateMutability":"view","type":"function"},{"inputs":[],"name":"lynxToken","outputs":[{"internalType":"address","name":"","type":"address"}],"stateMutability":"view","type":"function"},{"inputs":[{"internalType":"uint256","name":"lynxAmount","type":"uint256"},{"internalType":"uint256","name":"sauceAmount","type":"uint256"},{"internalType":"uint256","name":"clxyAmount","type":"uint256"}],"name":"mintWithDeposits","outputs":[],"stateMutability":"payable","type":"function"},{"inputs":[{"internalType":"address","name":"token","type":"address"},{"internalType":"bytes","name":"encodedFunctionSelector","type":"bytes"}],"name":"redirectForToken","outputs":[{"internalType":"int256","name":"responseCode","type":"int256"},{"internalType":"bytes","name":"response","type":"bytes"}],"stateMutability":"nonpayable","type":"function"},{"inputs":[],"name":"sauceToken","outputs":[{"internalType":"address","name":"","type":"address"}],"stateMutability":"view","type":"function"},{"inputs":[{"internalType":"address","name":"_clxyToken","type":"address"}],"name":"setClxyToken","outputs":[],"stateMutability":"nonpayable","type":"function"},{"inputs":[{"internalType":"address","name":"_lynxToken","type":"address"}],"name":"setLynxToken","outputs":[],"stateMutability":"nonpayable","type":"function"},{"inputs":[{"internalType":"address","name":"_sauceToken","type":"address"}],"name":"setSauceToken","outputs":[],"stateMutability":"nonpayable","type":"function"},{"inputs":[{"internalType":"address","name":"token","type":"address"},{"internalType":"address","name":"account","type":"address"}],"name":"testHTSOperations","outputs":[{"internalType":"bool","name":"isAssociated","type":"bool"},{"internalType":"uint256","name":"balance","type":"uint256"},{"internalType":"uint256","name":"allowance","type":"uint256"},{"internalType":"bool","name":"isValidToken","type":"bool"}],"stateMutability":"nonpayable","type":"function"},{"inputs":[],"name":"testHTSPrecompile","outputs":[{"internalType":"bool","name":"initialized","type":"bool"},{"internalType":"address","name":"precompileAddress","type":"address"}],"stateMutability":"view","type":"function"},{"inputs":[{"internalType":"address","name":"newAdmin","type":"address"}],"name":"transferAdmin","outputs":[],"stateMutability":"nonpayable","type":"function"},{"inputs":[{"internalType":"address","name":"token","type":"address"},{"internalType":"address","name":"from","type":"address"},{"internalType":"address","name":"to","type":"address"},{"internalType":"uint256","name":"amount","type":"uint256"}],"name":"transferFrom","outputs":[{"internalType":"int64","name":"responseCode","type":"int64"}],"stateMutability":"nonpayable","type":"function"},{"inputs":[{"internalType":"address","name":"token","type":"address"},{"internalType":"address","name":"from","type":"address"},{"internalType":"address","name":"to","type":"address"},{"internalType":"uint256","name":"serialNumber","type":"uint256"}],"name":"transferFromNFT","outputs":[{"internalType":"int64","name":"responseCode","type":"int64"}],"stateMutability":"nonpayable","type":"function"},{"stateMutability":"payable","type":"receive"}],"devdoc":{"details":"Enhanced token minter that accepts SAUCE/CLXY deposits and mints proportional LYNX tokens Using official Hedera inheritance pattern - inherits from HederaTokenService","kind":"dev","methods":{"associateTokens(address[])":{"details":"Associate contract with multiple tokens using inherited HTS functions"},"calculateRequiredDeposits(uint256)":{"details":"Calculate required deposits for a given LYNX amount (accounting for decimals)"},"checkAllAssociations()":{"details":"Check all associations using inherited HTS functions"},"emergencyWithdrawHbar(uint256)":{"details":"Emergency withdrawal (admin only)"},"getHbarBalance()":{"details":"Get contract's HBAR balance"},"mintWithDeposits(uint256,uint256,uint256)":{"details":"Mint LYNX tokens by depositing SAUCE, CLXY, and HBAR"},"redirectForToken(address,bytes)":{"params":{"encodedFunctionSelector":"The function selector from the ERC20 interface + the bytes input for the function called","token":"The token address"},"returns":{"response":"The result of the call that had been encoded and sent for execution.","responseCode":"The response code for the status of the request. SUCCESS is 22."}},"setLynxToken(address)":{"details":"Set token addresses (admin only) - automatically associates with contract"},"testHTSOperations(address,address)":{"details":"Test HTS operations directly using inheritance pattern"},"testHTSPrecompile()":{"details":"Test if HTS precompile is properly initialized"},"transferAdmin(address)":{"details":"Transfer admin rights"},"transferFrom(address,address,address,uint256)":{"params":{"amount":"The amount of tokens to transfer from `from` to `to`","from":"The account address of the owner of the token, on the behalf of which to transfer `amount` tokens","to":"The account address of the receiver of the `amount` tokens","token":"The address of the fungible Hedera token to transfer"},"returns":{"responseCode":"The response code for the status of the request. SUCCESS is 22."}},"transferFromNFT(address,address,address,uint256)":{"params":{"from":"The account address of the owner of `serialNumber` of `token`","serialNumber":"The NFT serial number to transfer","to":"The account address of the receiver of `serialNumber`","token":"The address of the non-fungible Hedera token to transfer"},"returns":{"responseCode":"The response code for the status of the request. SUCCESS is 22."}}},"title":"DepositMinter","version":1},"evm":{"bytecode":{"linkReferences":{},"object":"608060405234801561001057600080fd5b50600380546001600160a01b03191633179055612732806100326000396000f3fe60806040526004361061016a5760003560e01c80638d6be540116100d1578063b94fab4e1161008a578063e860ff7411610064578063e860ff7414610466578063ef03759314610486578063ef1643e41461049b578063f851a440146104bb57600080fd5b8063b94fab4e14610426578063d65db29714610446578063de97b29f146103b157600080fd5b80638d6be540146103615780638f9f8b011461037657806396cd51d7146103b157806397236479146103c65780639b23d3d9146103e6578063a1d4da151461040657600080fd5b80635ea4a9fd116101235780635ea4a9fd14610261578063618dc65e14610288578063724302a7146102b657806375829def146102ea5780637bd82c691461030a57806387bff26b1461031d57600080fd5b806315dacbea14610176578063169b78a2146101ae5780632ac2555f146101d15780633ed4d3bc146102095780634924190c1461021e57806352eb2a441461024157600080fd5b3661017157005b600080fd5b34801561018257600080fd5b50610196610191366004611c95565b6104db565b60405160079190910b81526020015b60405180910390f35b3480156101ba57600080fd5b5060408051600181526101676020820152016101a5565b3480156101dd57600080fd5b506002546101f1906001600160a01b031681565b6040516001600160a01b0390911681526020016101a5565b61021c610217366004611ce0565b6105cf565b005b34801561022a57600080fd5b50610233600a81565b6040519081526020016101a5565b34801561024d57600080fd5b5061021c61025c366004611d0c565b6105f2565b34801561026d57600080fd5b50610276600881565b60405160ff90911681526020016101a5565b34801561029457600080fd5b506102a86102a3366004611d75565b610715565b6040516101a5929190611e6b565b3480156102c257600080fd5b506102cb610833565b60408051931515845291151560208401521515908201526060016101a5565b3480156102f657600080fd5b5061021c610305366004611d0c565b610886565b34801561031657600080fd5b5047610233565b34801561032957600080fd5b5061033d610338366004611e84565b610961565b604080519415158552602085019390935291830152151560608201526080016101a5565b34801561036d57600080fd5b50610233600281565b34801561038257600080fd5b50610396610391366004611eb7565b6109aa565b604080519384526020840192909252908201526060016101a5565b3480156103bd57600080fd5b50610276600681565b3480156103d257600080fd5b5061021c6103e1366004611d0c565b610a33565b3480156103f257600080fd5b50610196610401366004611c95565b610b41565b34801561041257600080fd5b5061021c610421366004611ed0565b610b86565b34801561043257600080fd5b5061021c610441366004611d0c565b610c9b565b34801561045257600080fd5b5061021c610461366004611eb7565b610da9565b34801561047257600080fd5b506001546101f1906001600160a01b031681565b34801561049257600080fd5b50610233600581565b3480156104a757600080fd5b506000546101f1906001600160a01b031681565b3480156104c757600080fd5b506003546101f1906001600160a01b031681565b6040516001600160a01b038581166024830152848116604483015283166064820152608481018290526000908190819061016790630aed65f560e11b9060a4015b60408051601f198184030181529181526020820180516001600160e01b03166001600160e01b031990941693909317909252905161055a9190611f45565b6000604051808303816000865af19150503d8060008114610597576040519150601f19603f3d011682016040523d82523d6000602084013e61059c565b606091505b5091509150816105ad5760156105c1565b808060200190518101906105c19190611f73565b60030b979650505050505050565b6105da838383610e62565b6105e48282611004565b6105ed8361114c565b505050565b6003546001600160a01b0316331461061d57604051634755657960e01b815260040160405180910390fd5b600080546001600160a01b038381166001600160a01b0319831681179093551690156106d857600061064f30846112aa565b604080516001600160a01b0386168152602081018390529192506000805160206126bd833981519152910160405180910390a16016811461068f8261137e565b60405160200161069f9190611f8e565b604051602081830303815290604052906106d55760405162461bcd60e51b81526004016106cc9190611fd3565b60405180910390fd5b50505b7f267ecc93910a877e2ca3059a02e04c683dc5687c1c8426fa61d6054e39ee022e8183604051610709929190611fe6565b60405180910390a15050565b600060606000806101676001600160a01b031663618dc65e60e01b8787604051602401610743929190612029565b60408051601f198184030181529181526020820180516001600160e01b03166001600160e01b03199094169390931790925290516107819190611f45565b6000604051808303816000865af19150503d80600081146107be576040519150601f19603f3d011682016040523d82523d6000602084013e6107c3565b606091505b50915091507f4af4780e06fe8cb9df64b0794fa6f01399af979175bb988e35e0e57e594567bc82826040516107f992919061204d565b60405180910390a18161081d57601560405180602001604052806000815250610821565b6016815b60039190910b97909650945050505050565b6001546000908190819061084f906001600160a01b0316611558565b600254909350610867906001600160a01b0316611558565b60005490925061087f906001600160a01b0316611558565b9050909192565b6003546001600160a01b031633146108b157604051634755657960e01b815260040160405180910390fd5b6001600160a01b0381166109075760405162461bcd60e51b815260206004820152601f60248201527f43616e6e6f74207472616e7366657220746f207a65726f20616464726573730060448201526064016106cc565b600380546001600160a01b038381166001600160a01b031983168117909355604080519190921680825260208201939093527ff8ccb027dfcd135e000e9d45e6cc2d662578a8825d4c45b5e32e0adf67e79ec69101610709565b6000806000806000806109738861159b565b915060070b9150601660030b8214801561098a5750805b9250821561099f576001955060009450600093505b505092959194509250565b600080806109ba6008600a612164565b6109c66006600a612164565b6109d1600587612173565b6109db9190612173565b6109e591906121a0565b92506109f36008600a612164565b6109ff6006600a612164565b610a0a600287612173565b610a149190612173565b610a1e91906121a0565b9150610a2b600a85612173565b929491935050565b6003546001600160a01b03163314610a5e57604051634755657960e01b815260040160405180910390fd5b600180546001600160a01b038381166001600160a01b031983168117909355169015610b10576000610a9030846112aa565b604080516001600160a01b0386168152602081018390529192506000805160206126bd833981519152910160405180910390a160168114610ad08261137e565b604051602001610ae091906121b4565b60405160208183030381529060405290610b0d5760405162461bcd60e51b81526004016106cc9190611fd3565b50505b7f267ecc93910a877e2ca3059a02e04c683dc5687c1c8426fa61d6054e39ee022e81836040516107099291906121f9565b6040516001600160a01b038581166024830152848116604483015283166064820152608481018290526000908190819061016790639b23d3d960e01b9060a40161051c565b6003546001600160a01b03163314610bb157604051634755657960e01b815260040160405180910390fd5b60005b818110156105ed576000610bee30858585818110610bd457610bd461221e565b9050602002016020810190610be99190611d0c565b6112aa565b90506000805160206126bd833981519152848484818110610c1157610c1161221e565b9050602002016020810190610c269190611d0c565b604080516001600160a01b039092168252602082018490520160405180910390a160168114610c548261137e565b604051602001610c649190612234565b60405160208183030381529060405290610c915760405162461bcd60e51b81526004016106cc9190611fd3565b5050600101610bb4565b6003546001600160a01b03163314610cc657604051634755657960e01b815260040160405180910390fd5b600280546001600160a01b038381166001600160a01b031983168117909355169015610d78576000610cf830846112aa565b604080516001600160a01b0386168152602081018390529192506000805160206126bd833981519152910160405180910390a160168114610d388261137e565b604051602001610d489190612279565b60405160208183030381529060405290610d755760405162461bcd60e51b81526004016106cc9190611fd3565b50505b7f267ecc93910a877e2ca3059a02e04c683dc5687c1c8426fa61d6054e39ee022e81836040516107099291906122b1565b6003546001600160a01b03163314610dd457604051634755657960e01b815260040160405180910390fd5b47811115610e245760405162461bcd60e51b815260206004820152601960248201527f496e73756666696369656e7420484241522062616c616e63650000000000000060448201526064016106cc565b6003546040516001600160a01b039091169082156108fc029083906000818181858888f19350505050158015610e5e573d6000803e3d6000fd5b5050565b82600003610e835760405163162908e360e11b815260040160405180910390fd5b6000546001600160a01b0316610eac576040516364d2ac4160e01b81526004016106cc906122d5565b6001546001600160a01b0316610ed5576040516364d2ac4160e01b81526004016106cc906122f9565b6002546001600160a01b0316610efe576040516364d2ac4160e01b81526004016106cc9061231e565b604051638f9f8b0160e01b815260048101849052600090819081903090638f9f8b0190602401606060405180830381865afa158015610f41573d6000803e3d6000fd5b505050506040513d601f19601f82011682018060405250810190610f659190612342565b92509250925082851015610f9057828560405163d5871b2360e01b81526004016106cc929190612370565b81841015610fb557818460405163d5871b2360e01b81526004016106cc9291906123a5565b80341015610ffc5760405163d5871b2360e01b81526060600480830191909152606482015263242120a960e11b60848201526024810182905234604482015260a4016106cc565b505050505050565b60015460009061101f906001600160a01b031633308661166f565b6001549091506000805160206126dd833981519152906001600160a01b03163383611049816116b7565b60405161105994939291906123c9565b60405180910390a160168114611082576040516312dfddb360e01b81526004016106cc906122f9565b60025460009061109d906001600160a01b031633308661166f565b6002549091506000805160206126dd833981519152906001600160a01b031633836110c7816116b7565b6040516110d794939291906123c9565b60405180910390a160168114611100576040516312dfddb360e01b81526004016106cc9061231e565b6040805185815260208101859052349181019190915233907f651b66d4c82e3fedc9c57c6ff8a4cf8c81b8d1cd432d7297773c6edbf6cfb36a906060015b60405180910390a250505050565b6040805160008082526020820190925281611177565b60608152602001906001900390816111625790505b506000805491925090611194906001600160a01b03168484611b7b565b50506000549091506000805160206126dd833981519152906001600160a01b031630836111c0816116b7565b6040516111d0949392919061242a565b60405180910390a1601681146111fc57604051637850178160e11b8152600481018290526024016106cc565b60008054611215906001600160a01b031630338761166f565b6000549091506000805160206126dd833981519152906001600160a01b0316338361123f816116b7565b60405161124f94939291906123c9565b60405180910390a160168114611278576040516312dfddb360e01b81526004016106cc906122d5565b60405184815233907f465927a4840d7c7d6aa087bb368fe25bed2f96a7de450603903e0331dec0dbb59060200161113e565b604080516001600160a01b038481166024830152831660448083019190915282518083039091018152606490910182526020810180516001600160e01b031663248a35ef60e11b1790529051600091829182916101679161130b9190611f45565b6000604051808303816000865af19150503d8060008114611348576040519150601f19603f3d011682016040523d82523d6000602084013e61134d565b606091505b50915091508161135e576015611372565b808060200190518101906113729190611f73565b60030b95945050505050565b6060816000036113a55750506040805180820190915260018152600360fc1b602082015290565b600080831290816113b657836113bf565b6113bf8461247d565b60408051602080825281830190925291925060009190602082018180368337019050509050601f5b821561144c576113f8600a84612499565b6114039060306124ad565b60f81b8282611411816124c0565b9350815181106114235761142361221e565b60200101906001600160f81b031916908160001a905350611445600a846121a0565b92506113e7565b831561148c57602d60f81b8282611462816124c0565b9350815181106114745761147461221e565b60200101906001600160f81b031916908160001a9053505b600061149982601f6124d7565b67ffffffffffffffff8111156114b1576114b1611d2e565b6040519080825280601f01601f1916602001820160405280156114db576020820181803683370190505b50905060005b815181101561154d5783816114f78560016124ad565b61150191906124ad565b815181106115115761151161221e565b602001015160f81c60f81b82828151811061152e5761152e61221e565b60200101906001600160f81b031916908160001a9053506001016114e1565b509695505050505050565b60006001600160a01b03821661157057506000919050565b60008061157c8461159b565b915060070b9150601660030b821480156115935750805b949350505050565b604080516001600160a01b03831660248083019190915282518083039091018152604490910182526020810180516001600160e01b03166319f3736160e01b1790529051600091829182918291610167916115f591611f45565b6000604051808303816000865af19150503d8060008114611632576040519150601f19603f3d011682016040523d82523d6000602084013e611637565b606091505b50915091508161164a576015600061165e565b8080602001905181019061165e91906124ea565b60039190910b969095509350505050565b6040516001600160a01b038581166024830152848116604483015283166064820152600782900b6084820152600090819081906101679063eca3691760e01b9060a40161051c565b606060151982016116e55750506040805180820190915260078152665355434345535360c81b602082015290565b600019820161171d57505060408051808201909152601381527224a72b20a624a22faa2920a729a0a1aa24a7a760691b602082015290565b600119820161175f57505060408051808201909152601781527f50415945525f4143434f554e545f4e4f545f464f554e44000000000000000000602082015290565b60021982016117985750506040805180820190915260148152731253959053125117d393d11157d050d0d3d5539560621b602082015290565b60031982016117d05750506040805180820190915260138152721514905394d050d51253d397d1561412549151606a1b602082015290565b600419820161181257505060408051808201909152601981527f494e56414c49445f5452414e53414354494f4e5f535441525400000000000000602082015290565b600519820161185457505060408051808201909152601c81527f494e56414c49445f5452414e53414354494f4e5f4455524154494f4e00000000602082015290565b600619820161188a575050604080518082019091526011815270494e56414c49445f5349474e415455524560781b602082015290565b60071982016118bc57505060408051808201909152600d81526c4d454d4f5f544f4f5f4c4f4e4760981b602082015290565b60081982016118f4575050604080518082019091526013815272494e53554646494349454e545f54585f46454560681b602082015290565b600919820161193657505060408051808201909152601a81527f494e53554646494349454e545f50415945525f42414c414e4345000000000000602082015290565b600a198201611970575050604080518082019091526015815274222aa82624a1a0aa22afaa2920a729a0a1aa24a7a760591b602082015290565b600b1982016119995750506040805180820190915260048152634255535960e01b602082015290565b600c1982016119cb57505060408051808201909152600d81526c1393d517d4d5541413d4951151609a1b602082015290565b600d1982016119ff57505060408051808201909152600f81526e1253959053125117d192531157d251608a1b602082015290565b600e198201611a365750506040805180820190915260128152711253959053125117d050d0d3d5539517d25160721b602082015290565b600f198201611a6e5750506040805180820190915260138152721253959053125117d0d3d395149050d517d251606a1b602082015290565b6010198201611aa95750506040805180820190915260168152751253959053125117d514905394d050d51253d397d25160521b602082015290565b6011198201611adf575050604080518082019091526011815270149150d152541517d393d517d193d55391607a1b602082015290565b6012198201611b1457505060408051808201909152601081526f149150d3d49117d393d517d193d5539160821b602082015290565b6013198201611b4c5750506040805180820190915260138152721253959053125117d4d3d3125112551657d251606a1b602082015290565b611b558261137e565b604051602001611b659190612526565b6040516020818303038152906040529050919050565b60008060606000806101676001600160a01b031663e0f4059a60e01b898989604051602401611bac9392919061255c565b60408051601f198184030181529181526020820180516001600160e01b03166001600160e01b0319909416939093179092529051611bea9190611f45565b6000604051808303816000865af19150503d8060008114611c27576040519150601f19603f3d011682016040523d82523d6000602084013e611c2c565b606091505b509150915081611c4f576040805160008082526020820190925260159190611c63565b80806020019051810190611c6391906125ec565b60039290920b9a90995090975095505050505050565b80356001600160a01b0381168114611c9057600080fd5b919050565b60008060008060808587031215611cab57600080fd5b611cb485611c79565b9350611cc260208601611c79565b9250611cd060408601611c79565b9396929550929360600135925050565b600080600060608486031215611cf557600080fd5b505081359360208301359350604090920135919050565b600060208284031215611d1e57600080fd5b611d2782611c79565b9392505050565b634e487b7160e01b600052604160045260246000fd5b604051601f8201601f1916810167ffffffffffffffff81118282101715611d6d57611d6d611d2e565b604052919050565b60008060408385031215611d8857600080fd5b611d9183611c79565b915060208084013567ffffffffffffffff80821115611daf57600080fd5b818601915086601f830112611dc357600080fd5b813581811115611dd557611dd5611d2e565b611de7601f8201601f19168501611d44565b91508082528784828501011115611dfd57600080fd5b80848401858401376000848284010152508093505050509250929050565b60005b83811015611e36578181015183820152602001611e1e565b50506000910152565b60008151808452611e57816020860160208601611e1b565b601f01601f19169290920160200192915050565b8281526040602082015260006115936040830184611e3f565b60008060408385031215611e9757600080fd5b611ea083611c79565b9150611eae60208401611c79565b90509250929050565b600060208284031215611ec957600080fd5b5035919050565b60008060208385031215611ee357600080fd5b823567ffffffffffffffff80821115611efb57600080fd5b818501915085601f830112611f0f57600080fd5b813581811115611f1e57600080fd5b8660208260051b8501011115611f3357600080fd5b60209290920196919550909350505050565b60008251611f57818460208701611e1b565b9190910192915050565b8051600381900b8114611c9057600080fd5b600060208284031215611f8557600080fd5b611d2782611f61565b7f4c594e5820746f6b656e206173736f63696174696f6e206661696c65643a2000815260008251611fc681601f850160208701611e1b565b91909101601f0192915050565b602081526000611d276020830184611e3f565b60608152600061200a606083016004815263098b29cb60e31b602082015260400190565b6001600160a01b03948516602084015292909316604090910152919050565b6001600160a01b038316815260406020820181905260009061159390830184611e3f565b82151581526040602082015260006115936040830184611e3f565b634e487b7160e01b600052601160045260246000fd5b600181815b808511156120b957816000190482111561209f5761209f612068565b808516156120ac57918102915b93841c9390800290612083565b509250929050565b6000826120d05750600161215e565b816120dd5750600061215e565b81600181146120f357600281146120fd57612119565b600191505061215e565b60ff84111561210e5761210e612068565b50506001821b61215e565b5060208310610133831016604e8410600b841016171561213c575081810a61215e565b612146838361207e565b806000190482111561215a5761215a612068565b0290505b92915050565b6000611d2760ff8416836120c1565b808202811582820484141761215e5761215e612068565b634e487b7160e01b600052601260045260246000fd5b6000826121af576121af61218a565b500490565b7f534155434520746f6b656e206173736f63696174696f6e206661696c65643a208152600082516121ec816020850160208701611e1b565b9190910160200192915050565b60608152600061200a606083016005815264534155434560d81b602082015260400190565b634e487b7160e01b600052603260045260246000fd5b7f546f6b656e206173736f63696174696f6e206661696c65643a2000000000000081526000825161226c81601a850160208701611e1b565b91909101601a0192915050565b7f434c585920746f6b656e206173736f63696174696f6e206661696c65643a2000815260008251611fc681601f850160208701611e1b565b60608152600061200a606083016004815263434c585960e01b602082015260400190565b60208152600061215e602083016004815263098b29cb60e31b602082015260400190565b60208152600061215e602083016005815264534155434560d81b602082015260400190565b60208152600061215e602083016004815263434c585960e01b602082015260400190565b60008060006060848603121561235757600080fd5b8351925060208401519150604084015190509250925092565b606081526000612395606083016005815264534155434560d81b602082015260400190565b6020830194909452506040015290565b606081526000612395606083016004815263434c585960e01b602082015260400190565b60a0808252600d908201526c3a3930b739b332b92a37b5b2b760991b60c08201526001600160a01b038581166020830152841660408201526060810183905260e06080820181905260009061242090830184611e3f565b9695505050505050565b60a08082526009908201526836b4b73a2a37b5b2b760b91b60c08201526001600160a01b038581166020830152841660408201526060810183905260e06080820181905260009061242090830184611e3f565b6000600160ff1b820161249257612492612068565b5060000390565b6000826124a8576124a861218a565b500690565b8082018082111561215e5761215e612068565b6000816124cf576124cf612068565b506000190190565b8181038181111561215e5761215e612068565b600080604083850312156124fd57600080fd5b61250683611f61565b91506020830151801515811461251b57600080fd5b809150509250929050565b6d554e4b4e4f574e5f4552524f525f60901b81526000825161254f81600e850160208701611e1b565b91909101600e0192915050565b60006060820160018060a01b038616835260208560070b60208501526060604085015281855180845260808601915060808160051b87010193506020870160005b828110156125cb57607f198887030184526125b9868351611e3f565b9550928401929084019060010161259d565b50939998505050505050505050565b8051600781900b8114611c9057600080fd5b60008060006060848603121561260157600080fd5b61260a84611f61565b925060206126198186016125da565b9250604085015167ffffffffffffffff8082111561263657600080fd5b818701915087601f83011261264a57600080fd5b81518181111561265c5761265c611d2e565b8060051b915061266d848301611d44565b818152918301840191848101908a84111561268757600080fd5b938501935b838510156126ac5761269d856125da565b8252938501939085019061268c565b809650505050505050925092509256feca04269aafa6b89ced6631d9643f3d61366dd8e5abf65031bae59d640e2ab64fe8e92ea3580b0ca922d0ba2eab56806a32481c0b7fb44ce303c6e8eed6ada356a264697066735822122026a51fd55048e34c66ffc9e33a5b3d1512b4b6991797a18d707a5d13db42041364736f6c63430008180033","opcodes":"PUSH1 0x80 PUSH1 0x40 MSTORE CALLVALUE DUP1 ISZERO PUSH2 0x10 JUMPI PUSH1 0x0 DUP1 REVERT JUMPDEST POP PUSH1 0x3 DUP1 SLOAD PUSH1 0x1 PUSH1 0x1 PUSH1 0xA0 SHL SUB NOT AND CALLER OR SWAP1 SSTORE PUSH2 0x2732 DUP1 PUSH2 0x32 PUSH1 0x0 CODECOPY PUSH1 0x0 RETURN INVALID PUSH1 0x80 PUSH1 0x40 MSTORE PUSH1 0x4 CALLDATASIZE LT PUSH2 0x16A JUMPI PUSH1 0x0 CALLDATALOAD PUSH1 0xE0 SHR DUP1 PUSH4 0x8D6BE540 GT PUSH2 0xD1 JUMPI DUP1 PUSH4 0xB94FAB4E GT PUSH2 0x8A JUMPI DUP1 PUSH4 0xE860FF74 GT PUSH2 0x64 JUMPI DUP1 PUSH4 0xE860FF74 EQ PUSH2 0x466 JUMPI DUP1 PUSH4 0xEF037593 EQ PUSH2 0x486 JUMPI DUP1 PUSH4 0xEF1643E4 EQ PUSH2 0x49B JUMPI DUP1 PUSH4 0xF851A440 EQ PUSH2 0x4BB JUMPI PUSH1 0x0 DUP1 REVERT JUMPDEST DUP1 PUSH4 0xB94FAB4E EQ PUSH2 0x426 JUMPI DUP1 PUSH4 0xD65DB297 EQ PUSH2 0x446 JUMPI DUP1 PUSH4 0xDE97B29F EQ PUSH2 0x3B1 JUMPI PUSH1 0x0 DUP1 REVERT JUMPDEST DUP1 PUSH4 0x8D6BE540 EQ PUSH2 0x361 JUMPI DUP1 PUSH4 0x8F9F8B01 EQ PUSH2 0x376 JUMPI DUP1 PUSH4 0x96CD51D7 EQ PUSH2 0x3B1 JUMPI DUP1 PUSH4 0x97236479 EQ PUSH2 0x3C6 JUMPI DUP1 PUSH4 0x9B23D3D9 EQ PUSH2 0x3E6 JUMPI DUP1 PUSH4 0xA1D4DA15 EQ PUSH2 0x406 JUMPI PUSH1 0x0 DUP1 REVERT JUMPDEST DUP1 PUSH4 0x5EA4A9FD GT PUSH2 0x123 JUMPI DUP1 PUSH4 0x5EA4A9FD EQ PUSH2 0x261 JUMPI DUP1 PUSH4 0x618DC65E EQ PUSH2 0x288 JUMPI DUP1 PUSH4 0x724302A7 EQ PUSH2 0x2B6 JUMPI DUP1 PUSH4 0x75829DEF EQ PUSH2 0x2EA JUMPI DUP1 PUSH4 0x7BD82C69 EQ PUSH2 0x30A JUMPI DUP1 PUSH4 0x87BFF26B EQ PUSH2 0x31D JUMPI PUSH1 0x0 DUP1 REVERT JUMPDEST DUP1 PUSH4 0x15DACBEA EQ PUSH2 0x176 JUMPI DUP1 PUSH4 0x169B78A2 EQ PUSH2 0x1AE JUMPI DUP1 PUSH4 0x2AC2555F EQ PUSH2 0x1D1 JUMPI DUP1 PUSH4 0x3ED4D3BC EQ PUSH2 0x209 JUMPI DUP1 PUSH4 0x4924190C EQ PUSH2 0x21E JUMPI DUP1 PUSH4 0x52EB2A44 EQ PUSH2 0x241 JUMPI PUSH1 0x0 DUP1 REVERT JUMPDEST CALLDATASIZE PUSH2 0x171 JUMPI STOP JUMPDEST PUSH1 0x0 DUP1 REVERT JUMPDEST CALLVALUE DUP1 ISZERO PUSH2 0x182 JUMPI PUSH1 0x0 DUP1 REVERT JUMPDEST POP PUSH2 0x196 PUSH2 0x191 CALLDATASIZE PUSH1 0x4 PUSH2 0x1C95 JUMP JUMPDEST PUSH2 0x4DB JUMP JUMPDEST PUSH1 0x40 MLOAD PUSH1 0x7 SWAP2 SWAP1 SWAP2 SIGNEXTEND DUP2 MSTORE PUSH1 0x20 ADD JUMPDEST PUSH1 0x40 MLOAD DUP1 SWAP2 SUB SWAP1 RETURN JUMPDEST CALLVALUE DUP1 ISZERO PUSH2 0x1BA JUMPI PUSH1 0x0 DUP1 REVERT JUMPDEST POP PUSH1 0x40 DUP1 MLOAD PUSH1 0x1 DUP2 MSTORE PUSH2 0x167 PUSH1 0x20 DUP3 ADD MSTORE ADD PUSH2 0x1A5 JUMP JUMPDEST CALLVALUE DUP1 ISZERO PUSH2 0x1DD JUMPI PUSH1 0x0 DUP1 REVERT JUMPDEST POP PUSH1 0x2 SLOAD PUSH2 0x1F1 SWAP1 PUSH1 0x1 PUSH1 0x1 PUSH1 0xA0 SHL SUB AND DUP2 JUMP JUMPDEST PUSH1 0x40 MLOAD PUSH1 0x1 PUSH1 0x1 PUSH1 0xA0 SHL SUB SWAP1 SWAP2 AND DUP2 MSTORE PUSH1 0x20 ADD PUSH2 0x1A5 JUMP JUMPDEST PUSH2 0x21C PUSH2 0x217 CALLDATASIZE PUSH1 0x4 PUSH2 0x1CE0 JUMP JUMPDEST PUSH2 0x5CF JUMP JUMPDEST STOP JUMPDEST CALLVALUE DUP1 ISZERO PUSH2 0x22A JUMPI PUSH1 0x0 DUP1 REVERT JUMPDEST POP PUSH2 0x233 PUSH1 0xA DUP2 JUMP JUMPDEST PUSH1 0x40 MLOAD SWAP1 DUP2 MSTORE PUSH1 0x20 ADD PUSH2 0x1A5 JUMP JUMPDEST CALLVALUE DUP1 ISZERO PUSH2 0x24D JUMPI PUSH1 0x0 DUP1 REVERT JUMPDEST POP PUSH2 0x21C PUSH2 0x25C CALLDATASIZE PUSH1 0x4 PUSH2 0x1D0C JUMP JUMPDEST PUSH2 0x5F2 JUMP JUMPDEST CALLVALUE DUP1 ISZERO PUSH2 0x26D JUMPI PUSH1 0x0 DUP1 REVERT JUMPDEST POP PUSH2 0x276 PUSH1 0x8 DUP2 JUMP JUMPDEST PUSH1 0x40 MLOAD PUSH1 0xFF SWAP1 SWAP2 AND DUP2 MSTORE PUSH1 0x20 ADD PUSH2 0x1A5 JUMP JUMPDEST CALLVALUE DUP1 ISZERO PUSH2 0x294 JUMPI PUSH1 0x0 DUP1 REVERT JUMPDEST POP PUSH2 0x2A8 PUSH2 0x2A3 CALLDATASIZE PUSH1 0x4 PUSH2 0x1D75 JUMP JUMPDEST PUSH2 0x715 JUMP JUMPDEST PUSH1 0x40 MLOAD PUSH2 0x1A5 SWAP3 SWAP2 SWAP1 PUSH2 0x1E6B JUMP JUMPDEST CALLVALUE DUP1 ISZERO PUSH2 0x2C2 JUMPI PUSH1 0x0 DUP1 REVERT JUMPDEST POP PUSH2 0x2CB PUSH2 0x833 JUMP JUMPDEST PUSH1 0x40 DUP1 MLOAD SWAP4 ISZERO ISZERO DUP5 MSTORE SWAP2 ISZERO ISZERO PUSH1 0x20 DUP5 ADD MSTORE ISZERO ISZERO SWAP1 DUP3 ADD MSTORE PUSH1 0x60 ADD PUSH2 0x1A5 JUMP JUMPDEST CALLVALUE DUP1 ISZERO PUSH2 0x2F6 JUMPI PUSH1 0x0 DUP1 REVERT JUMPDEST POP PUSH2 0x21C PUSH2 0x305 CALLDATASIZE PUSH1 0x4 PUSH2 0x1D0C JUMP JUMPDEST PUSH2 0x886 JUMP JUMPDEST CALLVALUE DUP1 ISZERO PUSH2 0x316 JUMPI PUSH1 0x0 DUP1 REVERT JUMPDEST POP SELFBALANCE PUSH2 0x233 JUMP JUMPDEST CALLVALUE DUP1 ISZERO PUSH2 0x329 JUMPI PUSH1 0x0 DUP1 REVERT JUMPDEST POP PUSH2 0x33D PUSH2 0x338 CALLDATASIZE PUSH1 0x4 PUSH2 0x1E84 JUMP JUMPDEST PUSH2 0x961 JUMP JUMPDEST PUSH1 0x40 DUP1 MLOAD SWAP5 ISZERO ISZERO DUP6 MSTORE PUSH1 0x20 DUP6 ADD SWAP4 SWAP1 SWAP4 MSTORE SWAP2 DUP4 ADD MSTORE ISZERO ISZERO PUSH1 0x60 DUP3 ADD MSTORE PUSH1 0x80 ADD PUSH2 0x1A5 JUMP JUMPDEST CALLVALUE DUP1 ISZERO PUSH2 0x36D JUMPI PUSH1 0x0 DUP1 REVERT JUMPDEST POP PUSH2 0x233 PUSH1 0x2 DUP2 JUMP JUMPDEST CALLVALUE DUP1 ISZERO PUSH2 0x382 JUMPI PUSH1 0x0 DUP1 REVERT JUMPDEST POP PUSH2 0x396 PUSH2 0x391 CALLDATASIZE PUSH1 0x4 PUSH2 0x1EB7 JUMP JUMPDEST PUSH2 0x9AA JUMP JUMPDEST PUSH1 0x40 DUP1 MLOAD SWAP4 DUP5 MSTORE PUSH1 0x20 DUP5 ADD SWAP3 SWAP1 SWAP3 MSTORE SWAP1 DUP3 ADD MSTORE PUSH1 0x60 ADD PUSH2 0x1A5 JUMP JUMPDEST CALLVALUE DUP1 ISZERO PUSH2 0x3BD JUMPI PUSH1 0x0 DUP1 REVERT JUMPDEST POP PUSH2 0x276 PUSH1 0x6 DUP2 JUMP JUMPDEST CALLVALUE DUP1 ISZERO PUSH2 0x3D2 JUMPI PUSH1 0x0 DUP1 REVERT JUMPDEST POP PUSH2 0x21C PUSH2 0x3E1 CALLDATASIZE PUSH1 0x4 PUSH2 0x1D0C JUMP JUMPDEST PUSH2 0xA33 JUMP JUMPDEST CALLVALUE DUP1 ISZERO PUSH2 0x3F2 JUMPI PUSH1 0x0 DUP1 REVERT JUMPDEST POP PUSH2 0x196 PUSH2 0x401 CALLDATASIZE PUSH1 0x4 PUSH2 0x1C95 JUMP JUMPDEST PUSH2 0xB41 JUMP JUMPDEST CALLVALUE DUP1 ISZERO PUSH2 0x412 JUMPI PUSH1 0x0 DUP1 REVERT JUMPDEST POP PUSH2 0x21C PUSH2 0x421 CALLDATASIZE PUSH1 0x4 PUSH2 0x1ED0 JUMP JUMPDEST PUSH2 0xB86 JUMP JUMPDEST CALLVALUE DUP1 ISZERO PUSH2 0x432 JUMPI PUSH1 0x0 DUP1 REVERT JUMPDEST POP PUSH2 0x21C PUSH2 0x441 CALLDATASIZE PUSH1 0x4 PUSH2 0x1D0C JUMP JUMPDEST PUSH2 0xC9B JUMP JUMPDEST CALLVALUE DUP1 ISZERO PUSH2 0x452 JUMPI PUSH1 0x0 DUP1 REVERT JUMPDEST POP PUSH2 0x21C PUSH2 0x461 CALLDATASIZE PUSH1 0x4 PUSH2 0x1EB7 JUMP JUMPDEST PUSH2 0xDA9 JUMP JUMPDEST CALLVALUE DUP1 ISZERO PUSH2 0x472 JUMPI PUSH1 0x0 DUP1 REVERT JUMPDEST POP PUSH1 0x1 SLOAD PUSH2 0x1F1 SWAP1 PUSH1 0x1 PUSH1 0x1 PUSH1 0xA0 SHL SUB AND DUP2 JUMP JUMPDEST CALLVALUE DUP1 ISZERO PUSH2 0x492 JUMPI PUSH1 0x0 DUP1 REVERT JUMPDEST POP PUSH2 0x233 PUSH1 0x5 DUP2 JUMP JUMPDEST CALLVALUE DUP1 ISZERO PUSH2 0x4A7 JUMPI PUSH1 0x0 DUP1 REVERT JUMPDEST POP PUSH1 0x0 SLOAD PUSH2 0x1F1 SWAP1 PUSH1 0x1 PUSH1 0x1 PUSH1 0xA0 SHL SUB AND DUP2 JUMP JUMPDEST CALLVALUE DUP1 ISZERO PUSH2 0x4C7 JUMPI PUSH1 0x0 DUP1 REVERT JUMPDEST POP PUSH1 0x3 SLOAD PUSH2 0x1F1 SWAP1 PUSH1 0x1 PUSH1 0x1 PUSH1 0xA0 SHL SUB AND DUP2 JUMP JUMPDEST PUSH1 0x40 MLOAD PUSH1 0x1 PUSH1 0x1 PUSH1 0xA0 SHL SUB DUP6 DUP2 AND PUSH1 0x24 DUP4 ADD MSTORE DUP5 DUP2 AND PUSH1 0x44 DUP4 ADD MSTORE DUP4 AND PUSH1 0x64 DUP3 ADD MSTORE PUSH1 0x84 DUP2 ADD DUP3 SWAP1 MSTORE PUSH1 0x0 SWAP1 DUP2 SWAP1 DUP2 SWAP1 PUSH2 0x167 SWAP1 PUSH4 0xAED65F5 PUSH1 0xE1 SHL SWAP1 PUSH1 0xA4 ADD JUMPDEST PUSH1 0x40 DUP1 MLOAD PUSH1 0x1F NOT DUP2 DUP5 SUB ADD DUP2 MSTORE SWAP2 DUP2 MSTORE PUSH1 0x20 DUP3 ADD DUP1 MLOAD PUSH1 0x1 PUSH1 0x1 PUSH1 0xE0 SHL SUB AND PUSH1 0x1 PUSH1 0x1 PUSH1 0xE0 SHL SUB NOT SWAP1 SWAP5 AND SWAP4 SWAP1 SWAP4 OR SWAP1 SWAP3 MSTORE SWAP1 MLOAD PUSH2 0x55A SWAP2 SWAP1 PUSH2 0x1F45 JUMP JUMPDEST PUSH1 0x0 PUSH1 0x40 MLOAD DUP1 DUP4 SUB DUP2 PUSH1 0x0 DUP7 GAS CALL SWAP2 POP POP RETURNDATASIZE DUP1 PUSH1 0x0 DUP2 EQ PUSH2 0x597 JUMPI PUSH1 0x40 MLOAD SWAP2 POP PUSH1 0x1F NOT PUSH1 0x3F RETURNDATASIZE ADD AND DUP3 ADD PUSH1 0x40 MSTORE RETURNDATASIZE DUP3 MSTORE RETURNDATASIZE PUSH1 0x0 PUSH1 0x20 DUP5 ADD RETURNDATACOPY PUSH2 0x59C JUMP JUMPDEST PUSH1 0x60 SWAP2 POP JUMPDEST POP SWAP2 POP SWAP2 POP DUP2 PUSH2 0x5AD JUMPI PUSH1 0x15 PUSH2 0x5C1 JUMP JUMPDEST DUP1 DUP1 PUSH1 0x20 ADD SWAP1 MLOAD DUP2 ADD SWAP1 PUSH2 0x5C1 SWAP2 SWAP1 PUSH2 0x1F73 JUMP JUMPDEST PUSH1 0x3 SIGNEXTEND SWAP8 SWAP7 POP POP POP POP POP POP POP JUMP JUMPDEST PUSH2 0x5DA DUP4 DUP4 DUP4 PUSH2 0xE62 JUMP JUMPDEST PUSH2 0x5E4 DUP3 DUP3 PUSH2 0x1004 JUMP JUMPDEST PUSH2 0x5ED DUP4 PUSH2 0x114C JUMP JUMPDEST POP POP POP JUMP JUMPDEST PUSH1 0x3 SLOAD PUSH1 0x1 PUSH1 0x1 PUSH1 0xA0 SHL SUB AND CALLER EQ PUSH2 0x61D JUMPI PUSH1 0x40 MLOAD PUSH4 0x47556579 PUSH1 0xE0 SHL DUP2 MSTORE PUSH1 0x4 ADD PUSH1 0x40 MLOAD DUP1 SWAP2 SUB SWAP1 REVERT JUMPDEST PUSH1 0x0 DUP1 SLOAD PUSH1 0x1 PUSH1 0x1 PUSH1 0xA0 SHL SUB DUP4 DUP2 AND PUSH1 0x1 PUSH1 0x1 PUSH1 0xA0 SHL SUB NOT DUP4 AND DUP2 OR SWAP1 SWAP4 SSTORE AND SWAP1 ISZERO PUSH2 0x6D8 JUMPI PUSH1 0x0 PUSH2 0x64F ADDRESS DUP5 PUSH2 0x12AA JUMP JUMPDEST PUSH1 0x40 DUP1 MLOAD PUSH1 0x1 PUSH1 0x1 PUSH1 0xA0 SHL SUB DUP7 AND DUP2 MSTORE PUSH1 0x20 DUP2 ADD DUP4 SWAP1 MSTORE SWAP2 SWAP3 POP PUSH1 0x0 DUP1 MLOAD PUSH1 0x20 PUSH2 0x26BD DUP4 CODECOPY DUP2 MLOAD SWAP2 MSTORE SWAP2 ADD PUSH1 0x40 MLOAD DUP1 SWAP2 SUB SWAP1 LOG1 PUSH1 0x16 DUP2 EQ PUSH2 0x68F DUP3 PUSH2 0x137E JUMP JUMPDEST PUSH1 0x40 MLOAD PUSH1 0x20 ADD PUSH2 0x69F SWAP2 SWAP1 PUSH2 0x1F8E JUMP JUMPDEST PUSH1 0x40 MLOAD PUSH1 0x20 DUP2 DUP4 SUB SUB DUP2 MSTORE SWAP1 PUSH1 0x40 MSTORE SWAP1 PUSH2 0x6D5 JUMPI PUSH1 0x40 MLOAD PUSH3 0x461BCD PUSH1 0xE5 SHL DUP2 MSTORE PUSH1 0x4 ADD PUSH2 0x6CC SWAP2 SWAP1 PUSH2 0x1FD3 JUMP JUMPDEST PUSH1 0x40 MLOAD DUP1 SWAP2 SUB SWAP1 REVERT JUMPDEST POP POP JUMPDEST PUSH32 0x267ECC93910A877E2CA3059A02E04C683DC5687C1C8426FA61D6054E39EE022E DUP2 DUP4 PUSH1 0x40 MLOAD PUSH2 0x709 SWAP3 SWAP2 SWAP1 PUSH2 0x1FE6 JUMP JUMPDEST PUSH1 0x40 MLOAD DUP1 SWAP2 SUB SWAP1 LOG1 POP POP JUMP JUMPDEST PUSH1 0x0 PUSH1 0x60 PUSH1 0x0 DUP1 PUSH2 0x167 PUSH1 0x1 PUSH1 0x1 PUSH1 0xA0 SHL SUB AND PUSH4 0x618DC65E PUSH1 0xE0 SHL DUP8 DUP8 PUSH1 0x40 MLOAD PUSH1 0x24 ADD PUSH2 0x743 SWAP3 SWAP2 SWAP1 PUSH2 0x2029 JUMP JUMPDEST PUSH1 0x40 DUP1 MLOAD PUSH1 0x1F NOT DUP2 DUP5 SUB ADD DUP2 MSTORE SWAP2 DUP2 MSTORE PUSH1 0x20 DUP3 ADD DUP1 MLOAD PUSH1 0x1 PUSH1 0x1 PUSH1 0xE0 SHL SUB AND PUSH1 0x1 PUSH1 0x1 PUSH1 0xE0 SHL SUB NOT SWAP1 SWAP5 AND SWAP4 SWAP1 SWAP4 OR SWAP1 SWAP3 MSTORE SWAP1 MLOAD PUSH2 0x781 SWAP2 SWAP1 PUSH2 0x1F45 JUMP JUMPDEST PUSH1 0x0 PUSH1 0x40 MLOAD DUP1 DUP4 SUB DUP2 PUSH1 0x0 DUP7 GAS CALL SWAP2 POP POP RETURNDATASIZE DUP1 PUSH1 0x0 DUP2 EQ PUSH2 0x7BE JUMPI PUSH1 0x40 MLOAD SWAP2 POP PUSH1 0x1F NOT PUSH1 0x3F RETURNDATASIZE ADD AND DUP3 ADD PUSH1 0x40 MSTORE RETURNDATASIZE DUP3 MSTORE RETURNDATASIZE PUSH1 0x0 PUSH1 0x20 DUP5 ADD RETURNDATACOPY PUSH2 0x7C3 JUMP JUMPDEST PUSH1 0x60 SWAP2 POP JUMPDEST POP SWAP2 POP SWAP2 POP PUSH32 0x4AF4780E06FE8CB9DF64B0794FA6F01399AF979175BB988E35E0E57E594567BC DUP3 DUP3 PUSH1 0x40 MLOAD PUSH2 0x7F9 SWAP3 SWAP2 SWAP1 PUSH2 0x204D JUMP JUMPDEST PUSH1 0x40 MLOAD DUP1 SWAP2 SUB SWAP1 LOG1 DUP2 PUSH2 0x81D JUMPI PUSH1 0x15 PUSH1 0x40 MLOAD DUP1 PUSH1 0x20 ADD PUSH1 0x40 MSTORE DUP1 PUSH1 0x0 DUP2 MSTORE POP PUSH2 0x821 JUMP JUMPDEST PUSH1 0x16 DUP2 JUMPDEST PUSH1 0x3 SWAP2 SWAP1 SWAP2 SIGNEXTEND SWAP8 SWAP1 SWAP7 POP SWAP5 POP POP POP POP POP JUMP JUMPDEST PUSH1 0x1 SLOAD PUSH1 0x0 SWAP1 DUP2 SWAP1 DUP2 SWAP1 PUSH2 0x84F SWAP1 PUSH1 0x1 PUSH1 0x1 PUSH1 0xA0 SHL SUB AND PUSH2 0x1558 JUMP JUMPDEST PUSH1 0x2 SLOAD SWAP1 SWAP4 POP PUSH2 0x867 SWAP1 PUSH1 0x1 PUSH1 0x1 PUSH1 0xA0 SHL SUB AND PUSH2 0x1558 JUMP JUMPDEST PUSH1 0x0 SLOAD SWAP1 SWAP3 POP PUSH2 0x87F SWAP1 PUSH1 0x1 PUSH1 0x1 PUSH1 0xA0 SHL SUB AND PUSH2 0x1558 JUMP JUMPDEST SWAP1 POP SWAP1 SWAP2 SWAP3 JUMP JUMPDEST PUSH1 0x3 SLOAD PUSH1 0x1 PUSH1 0x1 PUSH1 0xA0 SHL SUB AND CALLER EQ PUSH2 0x8B1 JUMPI PUSH1 0x40 MLOAD PUSH4 0x47556579 PUSH1 0xE0 SHL DUP2 MSTORE PUSH1 0x4 ADD PUSH1 0x40 MLOAD DUP1 SWAP2 SUB SWAP1 REVERT JUMPDEST PUSH1 0x1 PUSH1 0x1 PUSH1 0xA0 SHL SUB DUP2 AND PUSH2 0x907 JUMPI PUSH1 0x40 MLOAD PUSH3 0x461BCD PUSH1 0xE5 SHL DUP2 MSTORE PUSH1 0x20 PUSH1 0x4 DUP3 ADD MSTORE PUSH1 0x1F PUSH1 0x24 DUP3 ADD MSTORE PUSH32 0x43616E6E6F74207472616E7366657220746F207A65726F206164647265737300 PUSH1 0x44 DUP3 ADD MSTORE PUSH1 0x64 ADD PUSH2 0x6CC JUMP JUMPDEST PUSH1 0x3 DUP1 SLOAD PUSH1 0x1 PUSH1 0x1 PUSH1 0xA0 SHL SUB DUP4 DUP2 AND PUSH1 0x1 PUSH1 0x1 PUSH1 0xA0 SHL SUB NOT DUP4 AND DUP2 OR SWAP1 SWAP4 SSTORE PUSH1 0x40 DUP1 MLOAD SWAP2 SWAP1 SWAP3 AND DUP1 DUP3 MSTORE PUSH1 0x20 DUP3 ADD SWAP4 SWAP1 SWAP4 MSTORE PUSH32 0xF8CCB027DFCD135E000E9D45E6CC2D662578A8825D4C45B5E32E0ADF67E79EC6 SWAP2 ADD PUSH2 0x709 JUMP JUMPDEST PUSH1 0x0 DUP1 PUSH1 0x0 DUP1 PUSH1 0x0 DUP1 PUSH2 0x973 DUP9 PUSH2 0x159B JUMP JUMPDEST SWAP2 POP PUSH1 0x7 SIGNEXTEND SWAP2 POP PUSH1 0x16 PUSH1 0x3 SIGNEXTEND DUP3 EQ DUP1 ISZERO PUSH2 0x98A JUMPI POP DUP1 JUMPDEST SWAP3 POP DUP3 ISZERO PUSH2 0x99F JUMPI PUSH1 0x1 SWAP6 POP PUSH1 0x0 SWAP5 POP PUSH1 0x0 SWAP4 POP JUMPDEST POP POP SWAP3 SWAP6 SWAP2 SWAP5 POP SWAP3 POP JUMP JUMPDEST PUSH1 0x0 DUP1 DUP1 PUSH2 0x9BA PUSH1 0x8 PUSH1 0xA PUSH2 0x2164 JUMP JUMPDEST PUSH2 0x9C6 PUSH1 0x6 PUSH1 0xA PUSH2 0x2164 JUMP JUMPDEST PUSH2 0x9D1 PUSH1 0x5 DUP8 PUSH2 0x2173 JUMP JUMPDEST PUSH2 0x9DB SWAP2 SWAP1 PUSH2 0x2173 JUMP JUMPDEST PUSH2 0x9E5 SWAP2 SWAP1 PUSH2 0x21A0 JUMP JUMPDEST SWAP3 POP PUSH2 0x9F3 PUSH1 0x8 PUSH1 0xA PUSH2 0x2164 JUMP JUMPDEST PUSH2 0x9FF PUSH1 0x6 PUSH1 0xA PUSH2 0x2164 JUMP JUMPDEST PUSH2 0xA0A PUSH1 0x2 DUP8 PUSH2 0x2173 JUMP JUMPDEST PUSH2 0xA14 SWAP2 SWAP1 PUSH2 0x2173 JUMP JUMPDEST PUSH2 0xA1E SWAP2 SWAP1 PUSH2 0x21A0 JUMP JUMPDEST SWAP2 POP PUSH2 0xA2B PUSH1 0xA DUP6 PUSH2 0x2173 JUMP JUMPDEST SWAP3 SWAP5 SWAP2 SWAP4 POP POP JUMP JUMPDEST PUSH1 0x3 SLOAD PUSH1 0x1 PUSH1 0x1 PUSH1 0xA0 SHL SUB AND CALLER EQ PUSH2 0xA5E JUMPI PUSH1 0x40 MLOAD PUSH4 0x47556579 PUSH1 0xE0 SHL DUP2 MSTORE PUSH1 0x4 ADD PUSH1 0x40 MLOAD DUP1 SWAP2 SUB SWAP1 REVERT JUMPDEST PUSH1 0x1 DUP1 SLOAD PUSH1 0x1 PUSH1 0x1 PUSH1 0xA0 SHL SUB DUP4 DUP2 AND PUSH1 0x1 PUSH1 0x1 PUSH1 0xA0 SHL SUB NOT DUP4 AND DUP2 OR SWAP1 SWAP4 SSTORE AND SWAP1 ISZERO PUSH2 0xB10 JUMPI PUSH1 0x0 PUSH2 0xA90 ADDRESS DUP5 PUSH2 0x12AA JUMP JUMPDEST PUSH1 0x40 DUP1 MLOAD PUSH1 0x1 PUSH1 0x1 PUSH1 0xA0 SHL SUB DUP7 AND DUP2 MSTORE PUSH1 0x20 DUP2 ADD DUP4 SWAP1 MSTORE SWAP2 SWAP3 POP PUSH1 0x0 DUP1 MLOAD PUSH1 0x20 PUSH2 0x26BD DUP4 CODECOPY DUP2 MLOAD SWAP2 MSTORE SWAP2 ADD PUSH1 0x40 MLOAD DUP1 SWAP2 SUB SWAP1 LOG1 PUSH1 0x16 DUP2 EQ PUSH2 0xAD0 DUP3 PUSH2 0x137E JUMP JUMPDEST PUSH1 0x40 MLOAD PUSH1 0x20 ADD PUSH2 0xAE0 SWAP2 SWAP1 PUSH2 0x21B4 JUMP JUMPDEST PUSH1 0x40 MLOAD PUSH1 0x20 DUP2 DUP4 SUB SUB DUP2 MSTORE SWAP1 PUSH1 0x40 MSTORE SWAP1 PUSH2 0xB0D JUMPI PUSH1 0x40 MLOAD PUSH3 0x461BCD PUSH1 0xE5 SHL DUP2 MSTORE PUSH1 0x4 ADD PUSH2 0x6CC SWAP2 SWAP1 PUSH2 0x1FD3 JUMP JUMPDEST POP POP JUMPDEST PUSH32 0x267ECC93910A877E2CA3059A02E04C683DC5687C1C8426FA61D6054E39EE022E DUP2 DUP4 PUSH1 0x40 MLOAD PUSH2 0x709 SWAP3 SWAP2 SWAP1 PUSH2 0x21F9 JUMP JUMPDEST PUSH1 0x40 MLOAD PUSH1 0x1 PUSH1 0x1 PUSH1 0xA0 SHL SUB DUP6 DUP2 AND PUSH1 0x24 DUP4 ADD MSTORE DUP5 DUP2 AND PUSH1 0x44 DUP4 ADD MSTORE DUP4 AND PUSH1 0x64 DUP3 ADD MSTORE PUSH1 0x84 DUP2 ADD DUP3 SWAP1 MSTORE PUSH1 0x0 SWAP1 DUP2 SWAP1 DUP2 SWAP1 PUSH2 0x167 SWAP1 PUSH4 0x9B23D3D9 PUSH1 0xE0 SHL SWAP1 PUSH1 0xA4 ADD PUSH2 0x51C JUMP JUMPDEST PUSH1 0x3 SLOAD PUSH1 0x1 PUSH1 0x1 PUSH1 0xA0 SHL SUB AND CALLER EQ PUSH2 0xBB1 JUMPI PUSH1 0x40 MLOAD PUSH4 0x47556579 PUSH1 0xE0 SHL DUP2 MSTORE PUSH1 0x4 ADD PUSH1 0x40 MLOAD DUP1 SWAP2 SUB SWAP1 REVERT JUMPDEST PUSH1 0x0 JUMPDEST DUP2 DUP2 LT ISZERO PUSH2 0x5ED JUMPI PUSH1 0x0 PUSH2 0xBEE ADDRESS DUP6 DUP6 DUP6 DUP2 DUP2 LT PUSH2 0xBD4 JUMPI PUSH2 0xBD4 PUSH2 0x221E JUMP JUMPDEST SWAP1 POP PUSH1 0x20 MUL ADD PUSH1 0x20 DUP2 ADD SWAP1 PUSH2 0xBE9 SWAP2 SWAP1 PUSH2 0x1D0C JUMP JUMPDEST PUSH2 0x12AA JUMP JUMPDEST SWAP1 POP PUSH1 0x0 DUP1 MLOAD PUSH1 0x20 PUSH2 0x26BD DUP4 CODECOPY DUP2 MLOAD SWAP2 MSTORE DUP5 DUP5 DUP5 DUP2 DUP2 LT PUSH2 0xC11 JUMPI PUSH2 0xC11 PUSH2 0x221E JUMP JUMPDEST SWAP1 POP PUSH1 0x20 MUL ADD PUSH1 0x20 DUP2 ADD SWAP1 PUSH2 0xC26 SWAP2 SWAP1 PUSH2 0x1D0C JUMP JUMPDEST PUSH1 0x40 DUP1 MLOAD PUSH1 0x1 PUSH1 0x1 PUSH1 0xA0 SHL SUB SWAP1 SWAP3 AND DUP3 MSTORE PUSH1 0x20 DUP3 ADD DUP5 SWAP1 MSTORE ADD PUSH1 0x40 MLOAD DUP1 SWAP2 SUB SWAP1 LOG1 PUSH1 0x16 DUP2 EQ PUSH2 0xC54 DUP3 PUSH2 0x137E JUMP JUMPDEST PUSH1 0x40 MLOAD PUSH1 0x20 ADD PUSH2 0xC64 SWAP2 SWAP1 PUSH2 0x2234 JUMP JUMPDEST PUSH1 0x40 MLOAD PUSH1 0x20 DUP2 DUP4 SUB SUB DUP2 MSTORE SWAP1 PUSH1 0x40 MSTORE SWAP1 PUSH2 0xC91 JUMPI PUSH1 0x40 MLOAD PUSH3 0x461BCD PUSH1 0xE5 SHL DUP2 MSTORE PUSH1 0x4 ADD PUSH2 0x6CC SWAP2 SWAP1 PUSH2 0x1FD3 JUMP JUMPDEST POP POP PUSH1 0x1 ADD PUSH2 0xBB4 JUMP JUMPDEST PUSH1 0x3 SLOAD PUSH1 0x1 PUSH1 0x1 PUSH1 0xA0 SHL SUB AND CALLER EQ PUSH2 0xCC6 JUMPI PUSH1 0x40 MLOAD PUSH4 0x47556579 PUSH1 0xE0 SHL DUP2 MSTORE PUSH1 0x4 ADD PUSH1 0x40 MLOAD DUP1 SWAP2 SUB SWAP1 REVERT JUMPDEST PUSH1 0x2 DUP1 SLOAD PUSH1 0x1 PUSH1 0x1 PUSH1 0xA0 SHL SUB DUP4 DUP2 AND PUSH1 0x1 PUSH1 0x1 PUSH1 0xA0 SHL SUB NOT DUP4 AND DUP2 OR SWAP1 SWAP4 SSTORE AND SWAP1 ISZERO PUSH2 0xD78 JUMPI PUSH1 0x0 PUSH2 0xCF8 ADDRESS DUP5 PUSH2 0x12AA JUMP JUMPDEST PUSH1 0x40 DUP1 MLOAD PUSH1 0x1 PUSH1 0x1 PUSH1 0xA0 SHL SUB DUP7 AND DUP2 MSTORE PUSH1 0x20 DUP2 ADD DUP4 SWAP1 MSTORE SWAP2 SWAP3 POP PUSH1 0x0 DUP1 MLOAD PUSH1 0x20 PUSH2 0x26BD DUP4 CODECOPY DUP2 MLOAD SWAP2 MSTORE SWAP2 ADD PUSH1 0x40 MLOAD DUP1 SWAP2 SUB SWAP1 LOG1 PUSH1 0x16 DUP2 EQ PUSH2 0xD38 DUP3 PUSH2 0x137E JUMP JUMPDEST PUSH1 0x40 MLOAD PUSH1 0x20 ADD PUSH2 0xD48 SWAP2 SWAP1 PUSH2 0x2279 JUMP JUMPDEST PUSH1 0x40 MLOAD PUSH1 0x20 DUP2 DUP4 SUB SUB DUP2 MSTORE SWAP1 PUSH1 0x40 MSTORE SWAP1 PUSH2 0xD75 JUMPI PUSH1 0x40 MLOAD PUSH3 0x461BCD PUSH1 0xE5 SHL DUP2 MSTORE PUSH1 0x4 ADD PUSH2 0x6CC SWAP2 SWAP1 PUSH2 0x1FD3 JUMP JUMPDEST POP POP JUMPDEST PUSH32 0x267ECC93910A877E2CA3059A02E04C683DC5687C1C8426FA61D6054E39EE022E DUP2 DUP4 PUSH1 0x40 MLOAD PUSH2 0x709 SWAP3 SWAP2 SWAP1 PUSH2 0x22B1 JUMP JUMPDEST PUSH1 0x3 SLOAD PUSH1 0x1 PUSH1 0x1 PUSH1 0xA0 SHL SUB AND CALLER EQ PUSH2 0xDD4 JUMPI PUSH1 0x40 MLOAD PUSH4 0x47556579 PUSH1 0xE0 SHL DUP2 MSTORE PUSH1 0x4 ADD PUSH1 0x40 MLOAD DUP1 SWAP2 SUB SWAP1 REVERT JUMPDEST SELFBALANCE DUP2 GT ISZERO PUSH2 0xE24 JUMPI PUSH1 0x40 MLOAD PUSH3 0x461BCD PUSH1 0xE5 SHL DUP2 MSTORE PUSH1 0x20 PUSH1 0x4 DUP3 ADD MSTORE PUSH1 0x19 PUSH1 0x24 DUP3 ADD MSTORE PUSH32 0x496E73756666696369656E7420484241522062616C616E636500000000000000 PUSH1 0x44 DUP3 ADD MSTORE PUSH1 0x64 ADD PUSH2 0x6CC JUMP JUMPDEST PUSH1 0x3 SLOAD PUSH1 0x40 MLOAD PUSH1 0x1 PUSH1 0x1 PUSH1 0xA0 SHL SUB SWAP1 SWAP2 AND SWAP1 DUP3 ISZERO PUSH2 0x8FC MUL SWAP1 DUP4 SWAP1 PUSH1 0x0 DUP2 DUP2 DUP2 DUP6 DUP9 DUP9 CALL SWAP4 POP POP POP POP ISZERO DUP1 ISZERO PUSH2 0xE5E JUMPI RETURNDATASIZE PUSH1 0x0 DUP1 RETURNDATACOPY RETURNDATASIZE PUSH1 0x0 REVERT JUMPDEST POP POP JUMP JUMPDEST DUP3 PUSH1 0x0 SUB PUSH2 0xE83 JUMPI PUSH1 0x40 MLOAD PUSH4 0x162908E3 PUSH1 0xE1 SHL DUP2 MSTORE PUSH1 0x4 ADD PUSH1 0x40 MLOAD DUP1 SWAP2 SUB SWAP1 REVERT JUMPDEST PUSH1 0x0 SLOAD PUSH1 0x1 PUSH1 0x1 PUSH1 0xA0 SHL SUB AND PUSH2 0xEAC JUMPI PUSH1 0x40 MLOAD PUSH4 0x64D2AC41 PUSH1 0xE0 SHL DUP2 MSTORE PUSH1 0x4 ADD PUSH2 0x6CC SWAP1 PUSH2 0x22D5 JUMP JUMPDEST PUSH1 0x1 SLOAD PUSH1 0x1 PUSH1 0x1 PUSH1 0xA0 SHL SUB AND PUSH2 0xED5 JUMPI PUSH1 0x40 MLOAD PUSH4 0x64D2AC41 PUSH1 0xE0 SHL DUP2 MSTORE PUSH1 0x4 ADD PUSH2 0x6CC SWAP1 PUSH2 0x22F9 JUMP JUMPDEST PUSH1 0x2 SLOAD PUSH1 0x1 PUSH1 0x1 PUSH1 0xA0 SHL SUB AND PUSH2 0xEFE JUMPI PUSH1 0x40 MLOAD PUSH4 0x64D2AC41 PUSH1 0xE0 SHL DUP2 MSTORE PUSH1 0x4 ADD PUSH2 0x6CC SWAP1 PUSH2 0x231E JUMP JUMPDEST PUSH1 0x40 MLOAD PUSH4 0x8F9F8B01 PUSH1 0xE0 SHL DUP2 MSTORE PUSH1 0x4 DUP2 ADD DUP5 SWAP1 MSTORE PUSH1 0x0 SWAP1 DUP2 SWAP1 DUP2 SWAP1 ADDRESS SWAP1 PUSH4 0x8F9F8B01 SWAP1 PUSH1 0x24 ADD PUSH1 0x60 PUSH1 0x40 MLOAD DUP1 DUP4 SUB DUP2 DUP7 GAS STATICCALL ISZERO DUP1 ISZERO PUSH2 0xF41 JUMPI RETURNDATASIZE PUSH1 0x0 DUP1 RETURNDATACOPY RETURNDATASIZE PUSH1 0x0 REVERT JUMPDEST POP POP POP POP PUSH1 0x40 MLOAD RETURNDATASIZE PUSH1 0x1F NOT PUSH1 0x1F DUP3 ADD AND DUP3 ADD DUP1 PUSH1 0x40 MSTORE POP DUP2 ADD SWAP1 PUSH2 0xF65 SWAP2 SWAP1 PUSH2 0x2342 JUMP JUMPDEST SWAP3 POP SWAP3 POP SWAP3 POP DUP3 DUP6 LT ISZERO PUSH2 0xF90 JUMPI DUP3 DUP6 PUSH1 0x40 MLOAD PUSH4 0xD5871B23 PUSH1 0xE0 SHL DUP2 MSTORE PUSH1 0x4 ADD PUSH2 0x6CC SWAP3 SWAP2 SWAP1 PUSH2 0x2370 JUMP JUMPDEST DUP2 DUP5 LT ISZERO PUSH2 0xFB5 JUMPI DUP2 DUP5 PUSH1 0x40 MLOAD PUSH4 0xD5871B23 PUSH1 0xE0 SHL DUP2 MSTORE PUSH1 0x4 ADD PUSH2 0x6CC SWAP3 SWAP2 SWAP1 PUSH2 0x23A5 JUMP JUMPDEST DUP1 CALLVALUE LT ISZERO PUSH2 0xFFC JUMPI PUSH1 0x40 MLOAD PUSH4 0xD5871B23 PUSH1 0xE0 SHL DUP2 MSTORE PUSH1 0x60 PUSH1 0x4 DUP1 DUP4 ADD SWAP2 SWAP1 SWAP2 MSTORE PUSH1 0x64 DUP3 ADD MSTORE PUSH4 0x242120A9 PUSH1 0xE1 SHL PUSH1 0x84 DUP3 ADD MSTORE PUSH1 0x24 DUP2 ADD DUP3 SWAP1 MSTORE CALLVALUE PUSH1 0x44 DUP3 ADD MSTORE PUSH1 0xA4 ADD PUSH2 0x6CC JUMP JUMPDEST POP POP POP POP POP POP JUMP JUMPDEST PUSH1 0x1 SLOAD PUSH1 0x0 SWAP1 PUSH2 0x101F SWAP1 PUSH1 0x1 PUSH1 0x1 PUSH1 0xA0 SHL SUB AND CALLER ADDRESS DUP7 PUSH2 0x166F JUMP JUMPDEST PUSH1 0x1 SLOAD SWAP1 SWAP2 POP PUSH1 0x0 DUP1 MLOAD PUSH1 0x20 PUSH2 0x26DD DUP4 CODECOPY DUP2 MLOAD SWAP2 MSTORE SWAP1 PUSH1 0x1 PUSH1 0x1 PUSH1 0xA0 SHL SUB AND CALLER DUP4 PUSH2 0x1049 DUP2 PUSH2 0x16B7 JUMP JUMPDEST PUSH1 0x40 MLOAD PUSH2 0x1059 SWAP5 SWAP4 SWAP3 SWAP2 SWAP1 PUSH2 0x23C9 JUMP JUMPDEST PUSH1 0x40 MLOAD DUP1 SWAP2 SUB SWAP1 LOG1 PUSH1 0x16 DUP2 EQ PUSH2 0x1082 JUMPI PUSH1 0x40 MLOAD PUSH4 0x12DFDDB3 PUSH1 0xE0 SHL DUP2 MSTORE PUSH1 0x4 ADD PUSH2 0x6CC SWAP1 PUSH2 0x22F9 JUMP JUMPDEST PUSH1 0x2 SLOAD PUSH1 0x0 SWAP1 PUSH2 0x109D SWAP1 PUSH1 0x1 PUSH1 0x1 PUSH1 0xA0 SHL SUB AND CALLER ADDRESS DUP7 PUSH2 0x166F JUMP JUMPDEST PUSH1 0x2 SLOAD SWAP1 SWAP2 POP PUSH1 0x0 DUP1 MLOAD PUSH1 0x20 PUSH2 0x26DD DUP4 CODECOPY DUP2 MLOAD SWAP2 MSTORE SWAP1 PUSH1 0x1 PUSH1 0x1 PUSH1 0xA0 SHL SUB AND CALLER DUP4 PUSH2 0x10C7 DUP2 PUSH2 0x16B7 JUMP JUMPDEST PUSH1 0x40 MLOAD PUSH2 0x10D7 SWAP5 SWAP4 SWAP3 SWAP2 SWAP1 PUSH2 0x23C9 JUMP JUMPDEST PUSH1 0x40 MLOAD DUP1 SWAP2 SUB SWAP1 LOG1 PUSH1 0x16 DUP2 EQ PUSH2 0x1100 JUMPI PUSH1 0x40 MLOAD PUSH4 0x12DFDDB3 PUSH1 0xE0 SHL DUP2 MSTORE PUSH1 0x4 ADD PUSH2 0x6CC SWAP1 PUSH2 0x231E JUMP JUMPDEST PUSH1 0x40 DUP1 MLOAD DUP6 DUP2 MSTORE PUSH1 0x20 DUP2 ADD DUP6 SWAP1 MSTORE CALLVALUE SWAP2 DUP2 ADD SWAP2 SWAP1 SWAP2 MSTORE CALLER SWAP1 PUSH32 0x651B66D4C82E3FEDC9C57C6FF8A4CF8C81B8D1CD432D7297773C6EDBF6CFB36A SWAP1 PUSH1 0x60 ADD JUMPDEST PUSH1 0x40 MLOAD DUP1 SWAP2 SUB SWAP1 LOG2 POP POP POP POP JUMP JUMPDEST PUSH1 0x40 DUP1 MLOAD PUSH1 0x0 DUP1 DUP3 MSTORE PUSH1 0x20 DUP3 ADD SWAP1 SWAP3 MSTORE DUP2 PUSH2 0x1177 JUMP JUMPDEST PUSH1 0x60 DUP2 MSTORE PUSH1 0x20 ADD SWAP1 PUSH1 0x1 SWAP1 SUB SWAP1 DUP2 PUSH2 0x1162 JUMPI SWAP1 POP JUMPDEST POP PUSH1 0x0 DUP1 SLOAD SWAP2 SWAP3 POP SWAP1 PUSH2 0x1194 SWAP1 PUSH1 0x1 PUSH1 0x1 PUSH1 0xA0 SHL SUB AND DUP5 DUP5 PUSH2 0x1B7B JUMP JUMPDEST POP POP PUSH1 0x0 SLOAD SWAP1 SWAP2 POP PUSH1 0x0 DUP1 MLOAD PUSH1 0x20 PUSH2 0x26DD DUP4 CODECOPY DUP2 MLOAD SWAP2 MSTORE SWAP1 PUSH1 0x1 PUSH1 0x1 PUSH1 0xA0 SHL SUB AND ADDRESS DUP4 PUSH2 0x11C0 DUP2 PUSH2 0x16B7 JUMP JUMPDEST PUSH1 0x40 MLOAD PUSH2 0x11D0 SWAP5 SWAP4 SWAP3 SWAP2 SWAP1 PUSH2 0x242A JUMP JUMPDEST PUSH1 0x40 MLOAD DUP1 SWAP2 SUB SWAP1 LOG1 PUSH1 0x16 DUP2 EQ PUSH2 0x11FC JUMPI PUSH1 0x40 MLOAD PUSH4 0x78501781 PUSH1 0xE1 SHL DUP2 MSTORE PUSH1 0x4 DUP2 ADD DUP3 SWAP1 MSTORE PUSH1 0x24 ADD PUSH2 0x6CC JUMP JUMPDEST PUSH1 0x0 DUP1 SLOAD PUSH2 0x1215 SWAP1 PUSH1 0x1 PUSH1 0x1 PUSH1 0xA0 SHL SUB AND ADDRESS CALLER DUP8 PUSH2 0x166F JUMP JUMPDEST PUSH1 0x0 SLOAD SWAP1 SWAP2 POP PUSH1 0x0 DUP1 MLOAD PUSH1 0x20 PUSH2 0x26DD DUP4 CODECOPY DUP2 MLOAD SWAP2 MSTORE SWAP1 PUSH1 0x1 PUSH1 0x1 PUSH1 0xA0 SHL SUB AND CALLER DUP4 PUSH2 0x123F DUP2 PUSH2 0x16B7 JUMP JUMPDEST PUSH1 0x40 MLOAD PUSH2 0x124F SWAP5 SWAP4 SWAP3 SWAP2 SWAP1 PUSH2 0x23C9 JUMP JUMPDEST PUSH1 0x40 MLOAD DUP1 SWAP2 SUB SWAP1 LOG1 PUSH1 0x16 DUP2 EQ PUSH2 0x1278 JUMPI PUSH1 0x40 MLOAD PUSH4 0x12DFDDB3 PUSH1 0xE0 SHL DUP2 MSTORE PUSH1 0x4 ADD PUSH2 0x6CC SWAP1 PUSH2 0x22D5 JUMP JUMPDEST PUSH1 0x40 MLOAD DUP5 DUP2 MSTORE CALLER SWAP1 PUSH32 0x465927A4840D7C7D6AA087BB368FE25BED2F96A7DE450603903E0331DEC0DBB5 SWAP1 PUSH1 0x20 ADD PUSH2 0x113E JUMP JUMPDEST PUSH1 0x40 DUP1 MLOAD PUSH1 0x1 PUSH1 0x1 PUSH1 0xA0 SHL SUB DUP5 DUP2 AND PUSH1 0x24 DUP4 ADD MSTORE DUP4 AND PUSH1 0x44 DUP1 DUP4 ADD SWAP2 SWAP1 SWAP2 MSTORE DUP3 MLOAD DUP1 DUP4 SUB SWAP1 SWAP2 ADD DUP2 MSTORE PUSH1 0x64 SWAP1 SWAP2 ADD DUP3 MSTORE PUSH1 0x20 DUP2 ADD DUP1 MLOAD PUSH1 0x1 PUSH1 0x1 PUSH1 0xE0 SHL SUB AND PUSH4 0x248A35EF PUSH1 0xE1 SHL OR SWAP1 MSTORE SWAP1 MLOAD PUSH1 0x0 SWAP2 DUP3 SWAP2 DUP3 SWAP2 PUSH2 0x167 SWAP2 PUSH2 0x130B SWAP2 SWAP1 PUSH2 0x1F45 JUMP JUMPDEST PUSH1 0x0 PUSH1 0x40 MLOAD DUP1 DUP4 SUB DUP2 PUSH1 0x0 DUP7 GAS CALL SWAP2 POP POP RETURNDATASIZE DUP1 PUSH1 0x0 DUP2 EQ PUSH2 0x1348 JUMPI PUSH1 0x40 MLOAD SWAP2 POP PUSH1 0x1F NOT PUSH1 0x3F RETURNDATASIZE ADD AND DUP3 ADD PUSH1 0x40 MSTORE RETURNDATASIZE DUP3 MSTORE RETURNDATASIZE PUSH1 0x0 PUSH1 0x20 DUP5 ADD RETURNDATACOPY PUSH2 0x134D JUMP JUMPDEST PUSH1 0x60 SWAP2 POP JUMPDEST POP SWAP2 POP SWAP2 POP DUP2 PUSH2 0x135E JUMPI PUSH1 0x15 PUSH2 0x1372 JUMP JUMPDEST DUP1 DUP1 PUSH1 0x20 ADD SWAP1 MLOAD DUP2 ADD SWAP1 PUSH2 0x1372 SWAP2 SWAP1 PUSH2 0x1F73 JUMP JUMPDEST PUSH1 0x3 SIGNEXTEND SWAP6 SWAP5 POP POP POP POP POP JUMP JUMPDEST PUSH1 0x60 DUP2 PUSH1 0x0 SUB PUSH2 0x13A5 JUMPI POP POP PUSH1 0x40 DUP1 MLOAD DUP1 DUP3 ADD SWAP1 SWAP2 MSTORE PUSH1 0x1 DUP2 MSTORE PUSH1 0x3 PUSH1 0xFC SHL PUSH1 0x20 DUP3 ADD MSTORE SWAP1 JUMP JUMPDEST PUSH1 0x0 DUP1 DUP4 SLT SWAP1 DUP2 PUSH2 0x13B6 JUMPI DUP4 PUSH2 0x13BF JUMP JUMPDEST PUSH2 0x13BF DUP5 PUSH2 0x247D JUMP JUMPDEST PUSH1 0x40 DUP1 MLOAD PUSH1 0x20 DUP1 DUP3 MSTORE DUP2 DUP4 ADD SWAP1 SWAP3 MSTORE SWAP2 SWAP3 POP PUSH1 0x0 SWAP2 SWAP1 PUSH1 0x20 DUP3 ADD DUP2 DUP1 CALLDATASIZE DUP4 CALLDATACOPY ADD SWAP1 POP POP SWAP1 POP PUSH1 0x1F JUMPDEST DUP3 ISZERO PUSH2 0x144C JUMPI PUSH2 0x13F8 PUSH1 0xA DUP5 PUSH2 0x2499 JUMP JUMPDEST PUSH2 0x1403 SWAP1 PUSH1 0x30 PUSH2 0x24AD JUMP JUMPDEST PUSH1 0xF8 SHL DUP3 DUP3 PUSH2 0x1411 DUP2 PUSH2 0x24C0 JUMP JUMPDEST SWAP4 POP DUP2 MLOAD DUP2 LT PUSH2 0x1423 JUMPI PUSH2 0x1423 PUSH2 0x221E JUMP JUMPDEST PUSH1 0x20 ADD ADD SWAP1 PUSH1 0x1 PUSH1 0x1 PUSH1 0xF8 SHL SUB NOT AND SWAP1 DUP2 PUSH1 0x0 BYTE SWAP1 MSTORE8 POP PUSH2 0x1445 PUSH1 0xA DUP5 PUSH2 0x21A0 JUMP JUMPDEST SWAP3 POP PUSH2 0x13E7 JUMP JUMPDEST DUP4 ISZERO PUSH2 0x148C JUMPI PUSH1 0x2D PUSH1 0xF8 SHL DUP3 DUP3 PUSH2 0x1462 DUP2 PUSH2 0x24C0 JUMP JUMPDEST SWAP4 POP DUP2 MLOAD DUP2 LT PUSH2 0x1474 JUMPI PUSH2 0x1474 PUSH2 0x221E JUMP JUMPDEST PUSH1 0x20 ADD ADD SWAP1 PUSH1 0x1 PUSH1 0x1 PUSH1 0xF8 SHL SUB NOT AND SWAP1 DUP2 PUSH1 0x0 BYTE SWAP1 MSTORE8 POP JUMPDEST PUSH1 0x0 PUSH2 0x1499 DUP3 PUSH1 0x1F PUSH2 0x24D7 JUMP JUMPDEST PUSH8 0xFFFFFFFFFFFFFFFF DUP2 GT ISZERO PUSH2 0x14B1 JUMPI PUSH2 0x14B1 PUSH2 0x1D2E JUMP JUMPDEST PUSH1 0x40 MLOAD SWAP1 DUP1 DUP3 MSTORE DUP1 PUSH1 0x1F ADD PUSH1 0x1F NOT AND PUSH1 0x20 ADD DUP3 ADD PUSH1 0x40 MSTORE DUP1 ISZERO PUSH2 0x14DB JUMPI PUSH1 0x20 DUP3 ADD DUP2 DUP1 CALLDATASIZE DUP4 CALLDATACOPY ADD SWAP1 POP JUMPDEST POP SWAP1 POP PUSH1 0x0 JUMPDEST DUP2 MLOAD DUP2 LT ISZERO PUSH2 0x154D JUMPI DUP4 DUP2 PUSH2 0x14F7 DUP6 PUSH1 0x1 PUSH2 0x24AD JUMP JUMPDEST PUSH2 0x1501 SWAP2 SWAP1 PUSH2 0x24AD JUMP JUMPDEST DUP2 MLOAD DUP2 LT PUSH2 0x1511 JUMPI PUSH2 0x1511 PUSH2 0x221E JUMP JUMPDEST PUSH1 0x20 ADD ADD MLOAD PUSH1 0xF8 SHR PUSH1 0xF8 SHL DUP3 DUP3 DUP2 MLOAD DUP2 LT PUSH2 0x152E JUMPI PUSH2 0x152E PUSH2 0x221E JUMP JUMPDEST PUSH1 0x20 ADD ADD SWAP1 PUSH1 0x1 PUSH1 0x1 PUSH1 0xF8 SHL SUB NOT AND SWAP1 DUP2 PUSH1 0x0 BYTE SWAP1 MSTORE8 POP PUSH1 0x1 ADD PUSH2 0x14E1 JUMP JUMPDEST POP SWAP7 SWAP6 POP POP POP POP POP POP JUMP JUMPDEST PUSH1 0x0 PUSH1 0x1 PUSH1 0x1 PUSH1 0xA0 SHL SUB DUP3 AND PUSH2 0x1570 JUMPI POP PUSH1 0x0 SWAP2 SWAP1 POP JUMP JUMPDEST PUSH1 0x0 DUP1 PUSH2 0x157C DUP5 PUSH2 0x159B JUMP JUMPDEST SWAP2 POP PUSH1 0x7 SIGNEXTEND SWAP2 POP PUSH1 0x16 PUSH1 0x3 SIGNEXTEND DUP3 EQ DUP1 ISZERO PUSH2 0x1593 JUMPI POP DUP1 JUMPDEST SWAP5 SWAP4 POP POP POP POP JUMP JUMPDEST PUSH1 0x40 DUP1 MLOAD PUSH1 0x1 PUSH1 0x1 PUSH1 0xA0 SHL SUB DUP4 AND PUSH1 0x24 DUP1 DUP4 ADD SWAP2 SWAP1 SWAP2 MSTORE DUP3 MLOAD DUP1 DUP4 SUB SWAP1 SWAP2 ADD DUP2 MSTORE PUSH1 0x44 SWAP1 SWAP2 ADD DUP3 MSTORE PUSH1 0x20 DUP2 ADD DUP1 MLOAD PUSH1 0x1 PUSH1 0x1 PUSH1 0xE0 SHL SUB AND PUSH4 0x19F37361 PUSH1 0xE0 SHL OR SWAP1 MSTORE SWAP1 MLOAD PUSH1 0x0 SWAP2 DUP3 SWAP2 DUP3 SWAP2 DUP3 SWAP2 PUSH2 0x167 SWAP2 PUSH2 0x15F5 SWAP2 PUSH2 0x1F45 JUMP JUMPDEST PUSH1 0x0 PUSH1 0x40 MLOAD DUP1 DUP4 SUB DUP2 PUSH1 0x0 DUP7 GAS CALL SWAP2 POP POP RETURNDATASIZE DUP1 PUSH1 0x0 DUP2 EQ PUSH2 0x1632 JUMPI PUSH1 0x40 MLOAD SWAP2 POP PUSH1 0x1F NOT PUSH1 0x3F RETURNDATASIZE ADD AND DUP3 ADD PUSH1 0x40 MSTORE RETURNDATASIZE DUP3 MSTORE RETURNDATASIZE PUSH1 0x0 PUSH1 0x20 DUP5 ADD RETURNDATACOPY PUSH2 0x1637 JUMP JUMPDEST PUSH1 0x60 SWAP2 POP JUMPDEST POP SWAP2 POP SWAP2 POP DUP2 PUSH2 0x164A JUMPI PUSH1 0x15 PUSH1 0x0 PUSH2 0x165E JUMP JUMPDEST DUP1 DUP1 PUSH1 0x20 ADD SWAP1 MLOAD DUP2 ADD SWAP1 PUSH2 0x165E SWAP2 SWAP1 PUSH2 0x24EA JUMP JUMPDEST PUSH1 0x3 SWAP2 SWAP1 SWAP2 SIGNEXTEND SWAP7 SWAP1 SWAP6 POP SWAP4 POP POP POP POP JUMP JUMPDEST PUSH1 0x40 MLOAD PUSH1 0x1 PUSH1 0x1 PUSH1 0xA0 SHL SUB DUP6 DUP2 AND PUSH1 0x24 DUP4 ADD MSTORE DUP5 DUP2 AND PUSH1 0x44 DUP4 ADD MSTORE DUP4 AND PUSH1 0x64 DUP3 ADD MSTORE PUSH1 0x7 DUP3 SWAP1 SIGNEXTEND PUSH1 0x84 DUP3 ADD MSTORE PUSH1 0x0 SWAP1 DUP2 SWAP1 DUP2 SWAP1 PUSH2 0x167 SWAP1 PUSH4 0xECA36917 PUSH1 0xE0 SHL SWAP1 PUSH1 0xA4 ADD PUSH2 0x51C JUMP JUMPDEST PUSH1 0x60 PUSH1 0x15 NOT DUP3 ADD PUSH2 0x16E5 JUMPI POP POP PUSH1 0x40 DUP1 MLOAD DUP1 DUP3 ADD SWAP1 SWAP2 MSTORE PUSH1 0x7 DUP2 MSTORE PUSH7 0x53554343455353 PUSH1 0xC8 SHL PUSH1 0x20 DUP3 ADD MSTORE SWAP1 JUMP JUMPDEST PUSH1 0x0 NOT DUP3 ADD PUSH2 0x171D JUMPI POP POP PUSH1 0x40 DUP1 MLOAD DUP1 DUP3 ADD SWAP1 SWAP2 MSTORE PUSH1 0x13 DUP2 MSTORE PUSH19 0x24A72B20A624A22FAA2920A729A0A1AA24A7A7 PUSH1 0x69 SHL PUSH1 0x20 DUP3 ADD MSTORE SWAP1 JUMP JUMPDEST PUSH1 0x1 NOT DUP3 ADD PUSH2 0x175F JUMPI POP POP PUSH1 0x40 DUP1 MLOAD DUP1 DUP3 ADD SWAP1 SWAP2 MSTORE PUSH1 0x17 DUP2 MSTORE PUSH32 0x50415945525F4143434F554E545F4E4F545F464F554E44000000000000000000 PUSH1 0x20 DUP3 ADD MSTORE SWAP1 JUMP JUMPDEST PUSH1 0x2 NOT DUP3 ADD PUSH2 0x1798 JUMPI POP POP PUSH1 0x40 DUP1 MLOAD DUP1 DUP3 ADD SWAP1 SWAP2 MSTORE PUSH1 0x14 DUP2 MSTORE PUSH20 0x1253959053125117D393D11157D050D0D3D55395 PUSH1 0x62 SHL PUSH1 0x20 DUP3 ADD MSTORE SWAP1 JUMP JUMPDEST PUSH1 0x3 NOT DUP3 ADD PUSH2 0x17D0 JUMPI POP POP PUSH1 0x40 DUP1 MLOAD DUP1 DUP3 ADD SWAP1 SWAP2 MSTORE PUSH1 0x13 DUP2 MSTORE PUSH19 0x1514905394D050D51253D397D1561412549151 PUSH1 0x6A SHL PUSH1 0x20 DUP3 ADD MSTORE SWAP1 JUMP JUMPDEST PUSH1 0x4 NOT DUP3 ADD PUSH2 0x1812 JUMPI POP POP PUSH1 0x40 DUP1 MLOAD DUP1 DUP3 ADD SWAP1 SWAP2 MSTORE PUSH1 0x19 DUP2 MSTORE PUSH32 0x494E56414C49445F5452414E53414354494F4E5F535441525400000000000000 PUSH1 0x20 DUP3 ADD MSTORE SWAP1 JUMP JUMPDEST PUSH1 0x5 NOT DUP3 ADD PUSH2 0x1854 JUMPI POP POP PUSH1 0x40 DUP1 MLOAD DUP1 DUP3 ADD SWAP1 SWAP2 MSTORE PUSH1 0x1C DUP2 MSTORE PUSH32 0x494E56414C49445F5452414E53414354494F4E5F4455524154494F4E00000000 PUSH1 0x20 DUP3 ADD MSTORE SWAP1 JUMP JUMPDEST PUSH1 0x6 NOT DUP3 ADD PUSH2 0x188A JUMPI POP POP PUSH1 0x40 DUP1 MLOAD DUP1 DUP3 ADD SWAP1 SWAP2 MSTORE PUSH1 0x11 DUP2 MSTORE PUSH17 0x494E56414C49445F5349474E4154555245 PUSH1 0x78 SHL PUSH1 0x20 DUP3 ADD MSTORE SWAP1 JUMP JUMPDEST PUSH1 0x7 NOT DUP3 ADD PUSH2 0x18BC JUMPI POP POP PUSH1 0x40 DUP1 MLOAD DUP1 DUP3 ADD SWAP1 SWAP2 MSTORE PUSH1 0xD DUP2 MSTORE PUSH13 0x4D454D4F5F544F4F5F4C4F4E47 PUSH1 0x98 SHL PUSH1 0x20 DUP3 ADD MSTORE SWAP1 JUMP JUMPDEST PUSH1 0x8 NOT DUP3 ADD PUSH2 0x18F4 JUMPI POP POP PUSH1 0x40 DUP1 MLOAD DUP1 DUP3 ADD SWAP1 SWAP2 MSTORE PUSH1 0x13 DUP2 MSTORE PUSH19 0x494E53554646494349454E545F54585F464545 PUSH1 0x68 SHL PUSH1 0x20 DUP3 ADD MSTORE SWAP1 JUMP JUMPDEST PUSH1 0x9 NOT DUP3 ADD PUSH2 0x1936 JUMPI POP POP PUSH1 0x40 DUP1 MLOAD DUP1 DUP3 ADD SWAP1 SWAP2 MSTORE PUSH1 0x1A DUP2 MSTORE PUSH32 0x494E53554646494349454E545F50415945525F42414C414E4345000000000000 PUSH1 0x20 DUP3 ADD MSTORE SWAP1 JUMP JUMPDEST PUSH1 0xA NOT DUP3 ADD PUSH2 0x1970 JUMPI POP POP PUSH1 0x40 DUP1 MLOAD DUP1 DUP3 ADD SWAP1 SWAP2 MSTORE PUSH1 0x15 DUP2 MSTORE PUSH21 0x222AA82624A1A0AA22AFAA2920A729A0A1AA24A7A7 PUSH1 0x59 SHL PUSH1 0x20 DUP3 ADD MSTORE SWAP1 JUMP JUMPDEST PUSH1 0xB NOT DUP3 ADD PUSH2 0x1999 JUMPI POP POP PUSH1 0x40 DUP1 MLOAD DUP1 DUP3 ADD SWAP1 SWAP2 MSTORE PUSH1 0x4 DUP2 MSTORE PUSH4 0x42555359 PUSH1 0xE0 SHL PUSH1 0x20 DUP3 ADD MSTORE SWAP1 JUMP JUMPDEST PUSH1 0xC NOT DUP3 ADD PUSH2 0x19CB JUMPI POP POP PUSH1 0x40 DUP1 MLOAD DUP1 DUP3 ADD SWAP1 SWAP2 MSTORE PUSH1 0xD DUP2 MSTORE PUSH13 0x1393D517D4D5541413D4951151 PUSH1 0x9A SHL PUSH1 0x20 DUP3 ADD MSTORE SWAP1 JUMP JUMPDEST PUSH1 0xD NOT DUP3 ADD PUSH2 0x19FF JUMPI POP POP PUSH1 0x40 DUP1 MLOAD DUP1 DUP3 ADD SWAP1 SWAP2 MSTORE PUSH1 0xF DUP2 MSTORE PUSH15 0x1253959053125117D192531157D251 PUSH1 0x8A SHL PUSH1 0x20 DUP3 ADD MSTORE SWAP1 JUMP JUMPDEST PUSH1 0xE NOT DUP3 ADD PUSH2 0x1A36 JUMPI POP POP PUSH1 0x40 DUP1 MLOAD DUP1 DUP3 ADD SWAP1 SWAP2 MSTORE PUSH1 0x12 DUP2 MSTORE PUSH18 0x1253959053125117D050D0D3D5539517D251 PUSH1 0x72 SHL PUSH1 0x20 DUP3 ADD MSTORE SWAP1 JUMP JUMPDEST PUSH1 0xF NOT DUP3 ADD PUSH2 0x1A6E JUMPI POP POP PUSH1 0x40 DUP1 MLOAD DUP1 DUP3 ADD SWAP1 SWAP2 MSTORE PUSH1 0x13 DUP2 MSTORE PUSH19 0x1253959053125117D0D3D395149050D517D251 PUSH1 0x6A SHL PUSH1 0x20 DUP3 ADD MSTORE SWAP1 JUMP JUMPDEST PUSH1 0x10 NOT DUP3 ADD PUSH2 0x1AA9 JUMPI POP POP PUSH1 0x40 DUP1 MLOAD DUP1 DUP3 ADD SWAP1 SWAP2 MSTORE PUSH1 0x16 DUP2 MSTORE PUSH22 0x1253959053125117D514905394D050D51253D397D251 PUSH1 0x52 SHL PUSH1 0x20 DUP3 ADD MSTORE SWAP1 JUMP JUMPDEST PUSH1 0x11 NOT DUP3 ADD PUSH2 0x1ADF JUMPI POP POP PUSH1 0x40 DUP1 MLOAD DUP1 DUP3 ADD SWAP1 SWAP2 MSTORE PUSH1 0x11 DUP2 MSTORE PUSH17 0x149150D152541517D393D517D193D55391 PUSH1 0x7A SHL PUSH1 0x20 DUP3 ADD MSTORE SWAP1 JUMP JUMPDEST PUSH1 0x12 NOT DUP3 ADD PUSH2 0x1B14 JUMPI POP POP PUSH1 0x40 DUP1 MLOAD DUP1 DUP3 ADD SWAP1 SWAP2 MSTORE PUSH1 0x10 DUP2 MSTORE PUSH16 0x149150D3D49117D393D517D193D55391 PUSH1 0x82 SHL PUSH1 0x20 DUP3 ADD MSTORE SWAP1 JUMP JUMPDEST PUSH1 0x13 NOT DUP3 ADD PUSH2 0x1B4C JUMPI POP POP PUSH1 0x40 DUP1 MLOAD DUP1 DUP3 ADD SWAP1 SWAP2 MSTORE PUSH1 0x13 DUP2 MSTORE PUSH19 0x1253959053125117D4D3D3125112551657D251 PUSH1 0x6A SHL PUSH1 0x20 DUP3 ADD MSTORE SWAP1 JUMP JUMPDEST PUSH2 0x1B55 DUP3 PUSH2 0x137E JUMP JUMPDEST PUSH1 0x40 MLOAD PUSH1 0x20 ADD PUSH2 0x1B65 SWAP2 SWAP1 PUSH2 0x2526 JUMP JUMPDEST PUSH1 0x40 MLOAD PUSH1 0x20 DUP2 DUP4 SUB SUB DUP2 MSTORE SWAP1 PUSH1 0x40 MSTORE SWAP1 POP SWAP2 SWAP1 POP JUMP JUMPDEST PUSH1 0x0 DUP1 PUSH1 0x60 PUSH1 0x0 DUP1 PUSH2 0x167 PUSH1 0x1 PUSH1 0x1 PUSH1 0xA0 SHL SUB AND PUSH4 0xE0F4059A PUSH1 0xE0 SHL DUP10 DUP10 DUP10 PUSH1 0x40 MLOAD PUSH1 0x24 ADD PUSH2 0x1BAC SWAP4 SWAP3 SWAP2 SWAP1 PUSH2 0x255C JUMP JUMPDEST PUSH1 0x40 DUP1 MLOAD PUSH1 0x1F NOT DUP2 DUP5 SUB ADD DUP2 MSTORE SWAP2 DUP2 MSTORE PUSH1 0x20 DUP3 ADD DUP1 MLOAD PUSH1 0x1 PUSH1 0x1 PUSH1 0xE0 SHL SUB AND PUSH1 0x1 PUSH1 0x1 PUSH1 0xE0 SHL SUB NOT SWAP1 SWAP5 AND SWAP4 SWAP1 SWAP4 OR SWAP1 SWAP3 MSTORE SWAP1 MLOAD PUSH2 0x1BEA SWAP2 SWAP1 PUSH2 0x1F45 JUMP JUMPDEST PUSH1 0x0 PUSH1 0x40 MLOAD DUP1 DUP4 SUB DUP2 PUSH1 0x0 DUP7 GAS CALL SWAP2 POP POP RETURNDATASIZE DUP1 PUSH1 0x0 DUP2 EQ PUSH2 0x1C27 JUMPI PUSH1 0x40 MLOAD SWAP2 POP PUSH1 0x1F NOT PUSH1 0x3F RETURNDATASIZE ADD AND DUP3 ADD PUSH1 0x40 MSTORE RETURNDATASIZE DUP3 MSTORE RETURNDATASIZE PUSH1 0x0 PUSH1 0x20 DUP5 ADD RETURNDATACOPY PUSH2 0x1C2C JUMP JUMPDEST PUSH1 0x60 SWAP2 POP JUMPDEST POP SWAP2 POP SWAP2 POP DUP2 PUSH2 0x1C4F JUMPI PUSH1 0x40 DUP1 MLOAD PUSH1 0x0 DUP1 DUP3 MSTORE PUSH1 0x20 DUP3 ADD SWAP1 SWAP3 MSTORE PUSH1 0x15 SWAP2 SWAP1 PUSH2 0x1C63 JUMP JUMPDEST DUP1 DUP1 PUSH1 0x20 ADD SWAP1 MLOAD DUP2 ADD SWAP1 PUSH2 0x1C63 SWAP2 SWAP1 PUSH2 0x25EC JUMP JUMPDEST PUSH1 0x3 SWAP3 SWAP1 SWAP3 SIGNEXTEND SWAP11 SWAP1 SWAP10 POP SWAP1 SWAP8 POP SWAP6 POP POP POP POP POP POP JUMP JUMPDEST DUP1 CALLDATALOAD PUSH1 0x1 PUSH1 0x1 PUSH1 0xA0 SHL SUB DUP2 AND DUP2 EQ PUSH2 0x1C90 JUMPI PUSH1 0x0 DUP1 REVERT JUMPDEST SWAP2 SWAP1 POP JUMP JUMPDEST PUSH1 0x0 DUP1 PUSH1 0x0 DUP1 PUSH1 0x80 DUP6 DUP8 SUB SLT ISZERO PUSH2 0x1CAB JUMPI PUSH1 0x0 DUP1 REVERT JUMPDEST PUSH2 0x1CB4 DUP6 PUSH2 0x1C79 JUMP JUMPDEST SWAP4 POP PUSH2 0x1CC2 PUSH1 0x20 DUP7 ADD PUSH2 0x1C79 JUMP JUMPDEST SWAP3 POP PUSH2 0x1CD0 PUSH1 0x40 DUP7 ADD PUSH2 0x1C79 JUMP JUMPDEST SWAP4 SWAP7 SWAP3 SWAP6 POP SWAP3 SWAP4 PUSH1 0x60 ADD CALLDATALOAD SWAP3 POP POP JUMP JUMPDEST PUSH1 0x0 DUP1 PUSH1 0x0 PUSH1 0x60 DUP5 DUP7 SUB SLT ISZERO PUSH2 0x1CF5 JUMPI PUSH1 0x0 DUP1 REVERT JUMPDEST POP POP DUP2 CALLDATALOAD SWAP4 PUSH1 0x20 DUP4 ADD CALLDATALOAD SWAP4 POP PUSH1 0x40 SWAP1 SWAP3 ADD CALLDATALOAD SWAP2 SWAP1 POP JUMP JUMPDEST PUSH1 0x0 PUSH1 0x20 DUP3 DUP5 SUB SLT ISZERO PUSH2 0x1D1E JUMPI PUSH1 0x0 DUP1 REVERT JUMPDEST PUSH2 0x1D27 DUP3 PUSH2 0x1C79 JUMP JUMPDEST SWAP4 SWAP3 POP POP POP JUMP JUMPDEST PUSH4 0x4E487B71 PUSH1 0xE0 SHL PUSH1 0x0 MSTORE PUSH1 0x41 PUSH1 0x4 MSTORE PUSH1 0x24 PUSH1 0x0 REVERT JUMPDEST PUSH1 0x40 MLOAD PUSH1 0x1F DUP3 ADD PUSH1 0x1F NOT AND DUP2 ADD PUSH8 0xFFFFFFFFFFFFFFFF DUP2 GT DUP3 DUP3 LT OR ISZERO PUSH2 0x1D6D JUMPI PUSH2 0x1D6D PUSH2 0x1D2E JUMP JUMPDEST PUSH1 0x40 MSTORE SWAP2 SWAP1 POP JUMP JUMPDEST PUSH1 0x0 DUP1 PUSH1 0x40 DUP4 DUP6 SUB SLT ISZERO PUSH2 0x1D88 JUMPI PUSH1 0x0 DUP1 REVERT JUMPDEST PUSH2 0x1D91 DUP4 PUSH2 0x1C79 JUMP JUMPDEST SWAP2 POP PUSH1 0x20 DUP1 DUP5 ADD CALLDATALOAD PUSH8 0xFFFFFFFFFFFFFFFF DUP1 DUP3 GT ISZERO PUSH2 0x1DAF JUMPI PUSH1 0x0 DUP1 REVERT JUMPDEST DUP2 DUP7 ADD SWAP2 POP DUP7 PUSH1 0x1F DUP4 ADD SLT PUSH2 0x1DC3 JUMPI PUSH1 0x0 DUP1 REVERT JUMPDEST DUP2 CALLDATALOAD DUP2 DUP2 GT ISZERO PUSH2 0x1DD5 JUMPI PUSH2 0x1DD5 PUSH2 0x1D2E JUMP JUMPDEST PUSH2 0x1DE7 PUSH1 0x1F DUP3 ADD PUSH1 0x1F NOT AND DUP6 ADD PUSH2 0x1D44 JUMP JUMPDEST SWAP2 POP DUP1 DUP3 MSTORE DUP8 DUP5 DUP3 DUP6 ADD ADD GT ISZERO PUSH2 0x1DFD JUMPI PUSH1 0x0 DUP1 REVERT JUMPDEST DUP1 DUP5 DUP5 ADD DUP6 DUP5 ADD CALLDATACOPY PUSH1 0x0 DUP5 DUP3 DUP5 ADD ADD MSTORE POP DUP1 SWAP4 POP POP POP POP SWAP3 POP SWAP3 SWAP1 POP JUMP JUMPDEST PUSH1 0x0 JUMPDEST DUP4 DUP2 LT ISZERO PUSH2 0x1E36 JUMPI DUP2 DUP2 ADD MLOAD DUP4 DUP3 ADD MSTORE PUSH1 0x20 ADD PUSH2 0x1E1E JUMP JUMPDEST POP POP PUSH1 0x0 SWAP2 ADD MSTORE JUMP JUMPDEST PUSH1 0x0 DUP2 MLOAD DUP1 DUP5 MSTORE PUSH2 0x1E57 DUP2 PUSH1 0x20 DUP7 ADD PUSH1 0x20 DUP7 ADD PUSH2 0x1E1B JUMP JUMPDEST PUSH1 0x1F ADD PUSH1 0x1F NOT AND SWAP3 SWAP1 SWAP3 ADD PUSH1 0x20 ADD SWAP3 SWAP2 POP POP JUMP JUMPDEST DUP3 DUP2 MSTORE PUSH1 0x40 PUSH1 0x20 DUP3 ADD MSTORE PUSH1 0x0 PUSH2 0x1593 PUSH1 0x40 DUP4 ADD DUP5 PUSH2 0x1E3F JUMP JUMPDEST PUSH1 0x0 DUP1 PUSH1 0x40 DUP4 DUP6 SUB SLT ISZERO PUSH2 0x1E97 JUMPI PUSH1 0x0 DUP1 REVERT JUMPDEST PUSH2 0x1EA0 DUP4 PUSH2 0x1C79 JUMP JUMPDEST SWAP2 POP PUSH2 0x1EAE PUSH1 0x20 DUP5 ADD PUSH2 0x1C79 JUMP JUMPDEST SWAP1 POP SWAP3 POP SWAP3 SWAP1 POP JUMP JUMPDEST PUSH1 0x0 PUSH1 0x20 DUP3 DUP5 SUB SLT ISZERO PUSH2 0x1EC9 JUMPI PUSH1 0x0 DUP1 REVERT JUMPDEST POP CALLDATALOAD SWAP2 SWAP1 POP JUMP JUMPDEST PUSH1 0x0 DUP1 PUSH1 0x20 DUP4 DUP6 SUB SLT ISZERO PUSH2 0x1EE3 JUMPI PUSH1 0x0 DUP1 REVERT JUMPDEST DUP3 CALLDATALOAD PUSH8 0xFFFFFFFFFFFFFFFF DUP1 DUP3 GT ISZERO PUSH2 0x1EFB JUMPI PUSH1 0x0 DUP1 REVERT JUMPDEST DUP2 DUP6 ADD SWAP2 POP DUP6 PUSH1 0x1F DUP4 ADD SLT PUSH2 0x1F0F JUMPI PUSH1 0x0 DUP1 REVERT JUMPDEST DUP2 CALLDATALOAD DUP2 DUP2 GT ISZERO PUSH2 0x1F1E JUMPI PUSH1 0x0 DUP1 REVERT JUMPDEST DUP7 PUSH1 0x20 DUP3 PUSH1 0x5 SHL DUP6 ADD ADD GT ISZERO PUSH2 0x1F33 JUMPI PUSH1 0x0 DUP1 REVERT JUMPDEST PUSH1 0x20 SWAP3 SWAP1 SWAP3 ADD SWAP7 SWAP2 SWAP6 POP SWAP1 SWAP4 POP POP POP POP JUMP JUMPDEST PUSH1 0x0 DUP3 MLOAD PUSH2 0x1F57 DUP2 DUP5 PUSH1 0x20 DUP8 ADD PUSH2 0x1E1B JUMP JUMPDEST SWAP2 SWAP1 SWAP2 ADD SWAP3 SWAP2 POP POP JUMP JUMPDEST DUP1 MLOAD PUSH1 0x3 DUP2 SWAP1 SIGNEXTEND DUP2 EQ PUSH2 0x1C90 JUMPI PUSH1 0x0 DUP1 REVERT JUMPDEST PUSH1 0x0 PUSH1 0x20 DUP3 DUP5 SUB SLT ISZERO PUSH2 0x1F85 JUMPI PUSH1 0x0 DUP1 REVERT JUMPDEST PUSH2 0x1D27 DUP3 PUSH2 0x1F61 JUMP JUMPDEST PUSH32 0x4C594E5820746F6B656E206173736F63696174696F6E206661696C65643A2000 DUP2 MSTORE PUSH1 0x0 DUP3 MLOAD PUSH2 0x1FC6 DUP2 PUSH1 0x1F DUP6 ADD PUSH1 0x20 DUP8 ADD PUSH2 0x1E1B JUMP JUMPDEST SWAP2 SWAP1 SWAP2 ADD PUSH1 0x1F ADD SWAP3 SWAP2 POP POP JUMP JUMPDEST PUSH1 0x20 DUP2 MSTORE PUSH1 0x0 PUSH2 0x1D27 PUSH1 0x20 DUP4 ADD DUP5 PUSH2 0x1E3F JUMP JUMPDEST PUSH1 0x60 DUP2 MSTORE PUSH1 0x0 PUSH2 0x200A PUSH1 0x60 DUP4 ADD PUSH1 0x4 DUP2 MSTORE PUSH4 0x98B29CB PUSH1 0xE3 SHL PUSH1 0x20 DUP3 ADD MSTORE PUSH1 0x40 ADD SWAP1 JUMP JUMPDEST PUSH1 0x1 PUSH1 0x1 PUSH1 0xA0 SHL SUB SWAP5 DUP6 AND PUSH1 0x20 DUP5 ADD MSTORE SWAP3 SWAP1 SWAP4 AND PUSH1 0x40 SWAP1 SWAP2 ADD MSTORE SWAP2 SWAP1 POP JUMP JUMPDEST PUSH1 0x1 PUSH1 0x1 PUSH1 0xA0 SHL SUB DUP4 AND DUP2 MSTORE PUSH1 0x40 PUSH1 0x20 DUP3 ADD DUP2 SWAP1 MSTORE PUSH1 0x0 SWAP1 PUSH2 0x1593 SWAP1 DUP4 ADD DUP5 PUSH2 0x1E3F JUMP JUMPDEST DUP3 ISZERO ISZERO DUP2 MSTORE PUSH1 0x40 PUSH1 0x20 DUP3 ADD MSTORE PUSH1 0x0 PUSH2 0x1593 PUSH1 0x40 DUP4 ADD DUP5 PUSH2 0x1E3F JUMP JUMPDEST PUSH4 0x4E487B71 PUSH1 0xE0 SHL PUSH1 0x0 MSTORE PUSH1 0x11 PUSH1 0x4 MSTORE PUSH1 0x24 PUSH1 0x0 REVERT JUMPDEST PUSH1 0x1 DUP2 DUP2 JUMPDEST DUP1 DUP6 GT ISZERO PUSH2 0x20B9 JUMPI DUP2 PUSH1 0x0 NOT DIV DUP3 GT ISZERO PUSH2 0x209F JUMPI PUSH2 0x209F PUSH2 0x2068 JUMP JUMPDEST DUP1 DUP6 AND ISZERO PUSH2 0x20AC JUMPI SWAP2 DUP2 MUL SWAP2 JUMPDEST SWAP4 DUP5 SHR SWAP4 SWAP1 DUP1 MUL SWAP1 PUSH2 0x2083 JUMP JUMPDEST POP SWAP3 POP SWAP3 SWAP1 POP JUMP JUMPDEST PUSH1 0x0 DUP3 PUSH2 0x20D0 JUMPI POP PUSH1 0x1 PUSH2 0x215E JUMP JUMPDEST DUP2 PUSH2 0x20DD JUMPI POP PUSH1 0x0 PUSH2 0x215E JUMP JUMPDEST DUP2 PUSH1 0x1 DUP2 EQ PUSH2 0x20F3 JUMPI PUSH1 0x2 DUP2 EQ PUSH2 0x20FD JUMPI PUSH2 0x2119 JUMP JUMPDEST PUSH1 0x1 SWAP2 POP POP PUSH2 0x215E JUMP JUMPDEST PUSH1 0xFF DUP5 GT ISZERO PUSH2 0x210E JUMPI PUSH2 0x210E PUSH2 0x2068 JUMP JUMPDEST POP POP PUSH1 0x1 DUP3 SHL PUSH2 0x215E JUMP JUMPDEST POP PUSH1 0x20 DUP4 LT PUSH2 0x133 DUP4 LT AND PUSH1 0x4E DUP5 LT PUSH1 0xB DUP5 LT AND OR ISZERO PUSH2 0x213C JUMPI POP DUP2 DUP2 EXP PUSH2 0x215E JUMP JUMPDEST PUSH2 0x2146 DUP4 DUP4 PUSH2 0x207E JUMP JUMPDEST DUP1 PUSH1 0x0 NOT DIV DUP3 GT ISZERO PUSH2 0x215A JUMPI PUSH2 0x215A PUSH2 0x2068 JUMP JUMPDEST MUL SWAP1 POP JUMPDEST SWAP3 SWAP2 POP POP JUMP JUMPDEST PUSH1 0x0 PUSH2 0x1D27 PUSH1 0xFF DUP5 AND DUP4 PUSH2 0x20C1 JUMP JUMPDEST DUP1 DUP3 MUL DUP2 ISZERO DUP3 DUP3 DIV DUP5 EQ OR PUSH2 0x215E JUMPI PUSH2 0x215E PUSH2 0x2068 JUMP JUMPDEST PUSH4 0x4E487B71 PUSH1 0xE0 SHL PUSH1 0x0 MSTORE PUSH1 0x12 PUSH1 0x4 MSTORE PUSH1 0x24 PUSH1 0x0 REVERT JUMPDEST PUSH1 0x0 DUP3 PUSH2 0x21AF JUMPI PUSH2 0x21AF PUSH2 0x218A JUMP JUMPDEST POP DIV SWAP1 JUMP JUMPDEST PUSH32 0x534155434520746F6B656E206173736F63696174696F6E206661696C65643A20 DUP2 MSTORE PUSH1 0x0 DUP3 MLOAD PUSH2 0x21EC DUP2 PUSH1 0x20 DUP6 ADD PUSH1 0x20 DUP8 ADD PUSH2 0x1E1B JUMP JUMPDEST SWAP2 SWAP1 SWAP2 ADD PUSH1 0x20 ADD SWAP3 SWAP2 POP POP JUMP JUMPDEST PUSH1 0x60 DUP2 MSTORE PUSH1 0x0 PUSH2 0x200A PUSH1 0x60 DUP4 ADD PUSH1 0x5 DUP2 MSTORE PUSH5 0x5341554345 PUSH1 0xD8 SHL PUSH1 0x20 DUP3 ADD MSTORE PUSH1 0x40 ADD SWAP1 JUMP JUMPDEST PUSH4 0x4E487B71 PUSH1 0xE0 SHL PUSH1 0x0 MSTORE PUSH1 0x32 PUSH1 0x4 MSTORE PUSH1 0x24 PUSH1 0x0 REVERT JUMPDEST PUSH32 0x546F6B656E206173736F63696174696F6E206661696C65643A20000000000000 DUP2 MSTORE PUSH1 0x0 DUP3 MLOAD PUSH2 0x226C DUP2 PUSH1 0x1A DUP6 ADD PUSH1 0x20 DUP8 ADD PUSH2 0x1E1B JUMP JUMPDEST SWAP2 SWAP1 SWAP2 ADD PUSH1 0x1A ADD SWAP3 SWAP2 POP POP JUMP JUMPDEST PUSH32 0x434C585920746F6B656E206173736F63696174696F6E206661696C65643A2000 DUP2 MSTORE PUSH1 0x0 DUP3 MLOAD PUSH2 0x1FC6 DUP2 PUSH1 0x1F DUP6 ADD PUSH1 0x20 DUP8 ADD PUSH2 0x1E1B JUMP JUMPDEST PUSH1 0x60 DUP2 MSTORE PUSH1 0x0 PUSH2 0x200A PUSH1 0x60 DUP4 ADD PUSH1 0x4 DUP2 MSTORE PUSH4 0x434C5859 PUSH1 0xE0 SHL PUSH1 0x20 DUP3 ADD MSTORE PUSH1 0x40 ADD SWAP1 JUMP JUMPDEST PUSH1 0x20 DUP2 MSTORE PUSH1 0x0 PUSH2 0x215E PUSH1 0x20 DUP4 ADD PUSH1 0x4 DUP2 MSTORE PUSH4 0x98B29CB PUSH1 0xE3 SHL PUSH1 0x20 DUP3 ADD MSTORE PUSH1 0x40 ADD SWAP1 JUMP JUMPDEST PUSH1 0x20 DUP2 MSTORE PUSH1 0x0 PUSH2 0x215E PUSH1 0x20 DUP4 ADD PUSH1 0x5 DUP2 MSTORE PUSH5 0x5341554345 PUSH1 0xD8 SHL PUSH1 0x20 DUP3 ADD MSTORE PUSH1 0x40 ADD SWAP1 JUMP JUMPDEST PUSH1 0x20 DUP2 MSTORE PUSH1 0x0 PUSH2 0x215E PUSH1 0x20 DUP4 ADD PUSH1 0x4 DUP2 MSTORE PUSH4 0x434C5859 PUSH1 0xE0 SHL PUSH1 0x20 DUP3 ADD MSTORE PUSH1 0x40 ADD SWAP1 JUMP JUMPDEST PUSH1 0x0 DUP1 PUSH1 0x0 PUSH1 0x60 DUP5 DUP7 SUB SLT ISZERO PUSH2 0x2357 JUMPI PUSH1 0x0 DUP1 REVERT JUMPDEST DUP4 MLOAD SWAP3 POP PUSH1 0x20 DUP5 ADD MLOAD SWAP2 POP PUSH1 0x40 DUP5 ADD MLOAD SWAP1 POP SWAP3 POP SWAP3 POP SWAP3 JUMP JUMPDEST PUSH1 0x60 DUP2 MSTORE PUSH1 0x0 PUSH2 0x2395 PUSH1 0x60 DUP4 ADD PUSH1 0x5 DUP2 MSTORE PUSH5 0x5341554345 PUSH1 0xD8 SHL PUSH1 0x20 DUP3 ADD MSTORE PUSH1 0x40 ADD SWAP1 JUMP JUMPDEST PUSH1 0x20 DUP4 ADD SWAP5 SWAP1 SWAP5 MSTORE POP PUSH1 0x40 ADD MSTORE SWAP1 JUMP JUMPDEST PUSH1 0x60 DUP2 MSTORE PUSH1 0x0 PUSH2 0x2395 PUSH1 0x60 DUP4 ADD PUSH1 0x4 DUP2 MSTORE PUSH4 0x434C5859 PUSH1 0xE0 SHL PUSH1 0x20 DUP3 ADD MSTORE PUSH1 0x40 ADD SWAP1 JUMP JUMPDEST PUSH1 0xA0 DUP1 DUP3 MSTORE PUSH1 0xD SWAP1 DUP3 ADD MSTORE PUSH13 0x3A3930B739B332B92A37B5B2B7 PUSH1 0x99 SHL PUSH1 0xC0 DUP3 ADD MSTORE PUSH1 0x1 PUSH1 0x1 PUSH1 0xA0 SHL SUB DUP6 DUP2 AND PUSH1 0x20 DUP4 ADD MSTORE DUP5 AND PUSH1 0x40 DUP3 ADD MSTORE PUSH1 0x60 DUP2 ADD DUP4 SWAP1 MSTORE PUSH1 0xE0 PUSH1 0x80 DUP3 ADD DUP2 SWAP1 MSTORE PUSH1 0x0 SWAP1 PUSH2 0x2420 SWAP1 DUP4 ADD DUP5 PUSH2 0x1E3F JUMP JUMPDEST SWAP7 SWAP6 POP POP POP POP POP POP JUMP JUMPDEST PUSH1 0xA0 DUP1 DUP3 MSTORE PUSH1 0x9 SWAP1 DUP3 ADD MSTORE PUSH9 0x36B4B73A2A37B5B2B7 PUSH1 0xB9 SHL PUSH1 0xC0 DUP3 ADD MSTORE PUSH1 0x1 PUSH1 0x1 PUSH1 0xA0 SHL SUB DUP6 DUP2 AND PUSH1 0x20 DUP4 ADD MSTORE DUP5 AND PUSH1 0x40 DUP3 ADD MSTORE PUSH1 0x60 DUP2 ADD DUP4 SWAP1 MSTORE PUSH1 0xE0 PUSH1 0x80 DUP3 ADD DUP2 SWAP1 MSTORE PUSH1 0x0 SWAP1 PUSH2 0x2420 SWAP1 DUP4 ADD DUP5 PUSH2 0x1E3F JUMP JUMPDEST PUSH1 0x0 PUSH1 0x1 PUSH1 0xFF SHL DUP3 ADD PUSH2 0x2492 JUMPI PUSH2 0x2492 PUSH2 0x2068 JUMP JUMPDEST POP PUSH1 0x0 SUB SWAP1 JUMP JUMPDEST PUSH1 0x0 DUP3 PUSH2 0x24A8 JUMPI PUSH2 0x24A8 PUSH2 0x218A JUMP JUMPDEST POP MOD SWAP1 JUMP JUMPDEST DUP1 DUP3 ADD DUP1 DUP3 GT ISZERO PUSH2 0x215E JUMPI PUSH2 0x215E PUSH2 0x2068 JUMP JUMPDEST PUSH1 0x0 DUP2 PUSH2 0x24CF JUMPI PUSH2 0x24CF PUSH2 0x2068 JUMP JUMPDEST POP PUSH1 0x0 NOT ADD SWAP1 JUMP JUMPDEST DUP2 DUP2 SUB DUP2 DUP2 GT ISZERO PUSH2 0x215E JUMPI PUSH2 0x215E PUSH2 0x2068 JUMP JUMPDEST PUSH1 0x0 DUP1 PUSH1 0x40 DUP4 DUP6 SUB SLT ISZERO PUSH2 0x24FD JUMPI PUSH1 0x0 DUP1 REVERT JUMPDEST PUSH2 0x2506 DUP4 PUSH2 0x1F61 JUMP JUMPDEST SWAP2 POP PUSH1 0x20 DUP4 ADD MLOAD DUP1 ISZERO ISZERO DUP2 EQ PUSH2 0x251B JUMPI PUSH1 0x0 DUP1 REVERT JUMPDEST DUP1 SWAP2 POP POP SWAP3 POP SWAP3 SWAP1 POP JUMP JUMPDEST PUSH14 0x554E4B4E4F574E5F4552524F525F PUSH1 0x90 SHL DUP2 MSTORE PUSH1 0x0 DUP3 MLOAD PUSH2 0x254F DUP2 PUSH1 0xE DUP6 ADD PUSH1 0x20 DUP8 ADD PUSH2 0x1E1B JUMP JUMPDEST SWAP2 SWAP1 SWAP2 ADD PUSH1 0xE ADD SWAP3 SWAP2 POP POP JUMP JUMPDEST PUSH1 0x0 PUSH1 0x60 DUP3 ADD PUSH1 0x1 DUP1 PUSH1 0xA0 SHL SUB DUP7 AND DUP4 MSTORE PUSH1 0x20 DUP6 PUSH1 0x7 SIGNEXTEND PUSH1 0x20 DUP6 ADD MSTORE PUSH1 0x60 PUSH1 0x40 DUP6 ADD MSTORE DUP2 DUP6 MLOAD DUP1 DUP5 MSTORE PUSH1 0x80 DUP7 ADD SWAP2 POP PUSH1 0x80 DUP2 PUSH1 0x5 SHL DUP8 ADD ADD SWAP4 POP PUSH1 0x20 DUP8 ADD PUSH1 0x0 JUMPDEST DUP3 DUP2 LT ISZERO PUSH2 0x25CB JUMPI PUSH1 0x7F NOT DUP9 DUP8 SUB ADD DUP5 MSTORE PUSH2 0x25B9 DUP7 DUP4 MLOAD PUSH2 0x1E3F JUMP JUMPDEST SWAP6 POP SWAP3 DUP5 ADD SWAP3 SWAP1 DUP5 ADD SWAP1 PUSH1 0x1 ADD PUSH2 0x259D JUMP JUMPDEST POP SWAP4 SWAP10 SWAP9 POP POP POP POP POP POP POP POP POP JUMP JUMPDEST DUP1 MLOAD PUSH1 0x7 DUP2 SWAP1 SIGNEXTEND DUP2 EQ PUSH2 0x1C90 JUMPI PUSH1 0x0 DUP1 REVERT JUMPDEST PUSH1 0x0 DUP1 PUSH1 0x0 PUSH1 0x60 DUP5 DUP7 SUB SLT ISZERO PUSH2 0x2601 JUMPI PUSH1 0x0 DUP1 REVERT JUMPDEST PUSH2 0x260A DUP5 PUSH2 0x1F61 JUMP JUMPDEST SWAP3 POP PUSH1 0x20 PUSH2 0x2619 DUP2 DUP7 ADD PUSH2 0x25DA JUMP JUMPDEST SWAP3 POP PUSH1 0x40 DUP6 ADD MLOAD PUSH8 0xFFFFFFFFFFFFFFFF DUP1 DUP3 GT ISZERO PUSH2 0x2636 JUMPI PUSH1 0x0 DUP1 REVERT JUMPDEST DUP2 DUP8 ADD SWAP2 POP DUP8 PUSH1 0x1F DUP4 ADD SLT PUSH2 0x264A JUMPI PUSH1 0x0 DUP1 REVERT JUMPDEST DUP2 MLOAD DUP2 DUP2 GT ISZERO PUSH2 0x265C JUMPI PUSH2 0x265C PUSH2 0x1D2E JUMP JUMPDEST DUP1 PUSH1 0x5 SHL SWAP2 POP PUSH2 0x266D DUP5 DUP4 ADD PUSH2 0x1D44 JUMP JUMPDEST DUP2 DUP2 MSTORE SWAP2 DUP4 ADD DUP5 ADD SWAP2 DUP5 DUP2 ADD SWAP1 DUP11 DUP5 GT ISZERO PUSH2 0x2687 JUMPI PUSH1 0x0 DUP1 REVERT JUMPDEST SWAP4 DUP6 ADD SWAP4 JUMPDEST DUP4 DUP6 LT ISZERO PUSH2 0x26AC JUMPI PUSH2 0x269D DUP6 PUSH2 0x25DA JUMP JUMPDEST DUP3 MSTORE SWAP4 DUP6 ADD SWAP4 SWAP1 DUP6 ADD SWAP1 PUSH2 0x268C JUMP JUMPDEST DUP1 SWAP7 POP POP POP POP POP POP POP SWAP3 POP SWAP3 POP SWAP3 JUMP INVALID 0xCA DIV 0x26 SWAP11 0xAF 0xA6 0xB8 SWAP13 0xED PUSH7 0x31D9643F3D6136 PUSH14 0xD8E5ABF65031BAE59D640E2AB64F 0xE8 0xE9 0x2E LOG3 PC SIGNEXTEND 0xC 0xA9 0x22 0xD0 0xBA 0x2E 0xAB JUMP DUP1 PUSH11 0x32481C0B7FB44CE303C6E8 0xEE 0xD6 0xAD LOG3 JUMP LOG2 PUSH5 0x6970667358 0x22 SLT KECCAK256 0x26 0xA5 0x1F 0xD5 POP BASEFEE 0xE3 0x4C PUSH7 0xFFC9E33A5B3D15 SLT 0xB4 0xB6 SWAP10 OR SWAP8 LOG1 DUP14 PUSH17 0x7A5D13DB42041364736F6C634300081800 CALLER "},"gasEstimates":{"creation":{"codeDepositCost":"2006800","executionCost":"26362","totalCost":"2033162"},"external":{"CLXY_DECIMALS()":"271","CLXY_RATIO()":"218","HBAR_RATIO()":"307","LYNX_DECIMALS()":"227","SAUCE_DECIMALS()":"293","SAUCE_RATIO()":"261","admin()":"2447","associateTokens(address[])":"infinite","calculateRequiredDeposits(uint256)":"infinite","checkAllAssociations()":"infinite","clxyToken()":"2405","emergencyWithdrawHbar(uint256)":"infinite","getHbarBalance()":"305","lynxToken()":"2425","mintWithDeposits(uint256,uint256,uint256)":"infinite","redirectForToken(address,bytes)":"infinite","sauceToken()":"2381","setClxyToken(address)":"infinite","setLynxToken(address)":"infinite","setSauceToken(address)":"infinite","testHTSOperations(address,address)":"infinite","testHTSPrecompile()":"241","transferAdmin(address)":"28197","transferFrom(address,address,address,uint256)":"infinite","transferFromNFT(address,address,address,uint256)":"infinite"},"internal":{"_checkTokenAssociation(address)":"infinite","_getHTSErrorMessage(int256)":"infinite","_int64ToString(int256)":"infinite","_mintAndTransfer(uint256)":"infinite","_processDeposits(uint256,uint256)":"infinite","_validateMintInputs(uint256,uint256,uint256)":"infinite"}},"methodIdentifiers":{"CLXY_DECIMALS()":"96cd51d7","CLXY_RATIO()":"8d6be540","HBAR_RATIO()":"4924190c","LYNX_DECIMALS()":"5ea4a9fd","SAUCE_DECIMALS()":"de97b29f","SAUCE_RATIO()":"ef037593","admin()":"f851a440","associateTokens(address[])":"a1d4da15","calculateRequiredDeposits(uint256)":"8f9f8b01","checkAllAssociations()":"724302a7","clxyToken()":"2ac2555f","emergencyWithdrawHbar(uint256)":"d65db297","getHbarBalance()":"7bd82c69","lynxToken()":"ef1643e4","mintWithDeposits(uint256,uint256,uint256)":"3ed4d3bc","redirectForToken(address,bytes)":"618dc65e","sauceToken()":"e860ff74","setClxyToken(address)":"b94fab4e","setLynxToken(address)":"52eb2a44","setSauceToken(address)":"97236479","testHTSOperations(address,address)":"87bff26b","testHTSPrecompile()":"169b78a2","transferAdmin(address)":"75829def","transferFrom(address,address,address,uint256)":"15dacbea","transferFromNFT(address,address,address,uint256)":"9b23d3d9"}},"storageLayout":{"storage":[{"astId":8,"contract":"app/contracts/DepositMinter.sol:DepositMinter","label":"lynxToken","offset":0,"slot":"0","type":"t_address"},{"astId":10,"contract":"app/contracts/DepositMinter.sol:DepositMinter","label":"sauceToken","offset":0,"slot":"1","type":"t_address"},{"astId":12,"contract":"app/contracts/DepositMinter.sol:DepositMinter","label":"clxyToken","offset":0,"slot":"2","type":"t_address"},{"astId":14,"contract":"app/contracts/DepositMinter.sol:DepositMinter","label":"admin","offset":0,"slot":"3","type":"t_address"}],"types":{"t_address":{"encoding":"inplace","label":"address","numberOfBytes":"20"}}},"userdoc":{"events":{"CallResponseEvent(bool,bytes)":{"notice":"Generic event"}},"kind":"user","methods":{"redirectForToken(address,bytes)":{"notice":"Redirect for token"},"transferFrom(address,address,address,uint256)":{"notice":"Only applicable to fungible tokens"},"transferFromNFT(address,address,address,uint256)":{"notice":"Transfers `serialNumber` of `token` from `from` to `to` using the allowance mechanism. Only applicable to NFT tokens"}},"version":1}}}}