{
  "_format": "hh-sol-artifact-1",
  "contractName": "IndexVault",
  "sourceName": "contracts/index-token/IndexVault.sol",
  "abi": [
    {
      "inputs": [
        {
          "internalType": "address",
          "name": "_admin",
          "type": "address"
        },
        {
          "internalType": "address",
          "name": "_htsAddress",
          "type": "address"
        }
      ],
      "stateMutability": "nonpayable",
      "type": "constructor"
    },
    {
      "anonymous": false,
      "inputs": [
        {
          "indexed": false,
          "internalType": "address",
          "name": "controllerAddress",
          "type": "address"
        }
      ],
      "name": "ControllerSet",
      "type": "event"
    },
    {
      "anonymous": false,
      "inputs": [
        {
          "indexed": false,
          "internalType": "bool",
          "name": "activated",
          "type": "bool"
        }
      ],
      "name": "GovernanceActivated",
      "type": "event"
    },
    {
      "anonymous": false,
      "inputs": [
        {
          "indexed": false,
          "internalType": "address",
          "name": "hookAddress",
          "type": "address"
        }
      ],
      "name": "GovernanceHookSet",
      "type": "event"
    },
    {
      "anonymous": false,
      "inputs": [
        {
          "indexed": false,
          "internalType": "address",
          "name": "indexToken",
          "type": "address"
        }
      ],
      "name": "IndexTokenSet",
      "type": "event"
    },
    {
      "anonymous": false,
      "inputs": [
        {
          "indexed": false,
          "internalType": "address",
          "name": "token",
          "type": "address"
        },
        {
          "indexed": false,
          "internalType": "uint256",
          "name": "weight",
          "type": "uint256"
        }
      ],
      "name": "TokenAdded",
      "type": "event"
    },
    {
      "anonymous": false,
      "inputs": [
        {
          "indexed": false,
          "internalType": "address",
          "name": "token",
          "type": "address"
        }
      ],
      "name": "TokenRemoved",
      "type": "event"
    },
    {
      "anonymous": false,
      "inputs": [
        {
          "indexed": false,
          "internalType": "address",
          "name": "token",
          "type": "address"
        },
        {
          "indexed": false,
          "internalType": "uint256",
          "name": "oldWeight",
          "type": "uint256"
        },
        {
          "indexed": false,
          "internalType": "uint256",
          "name": "newWeight",
          "type": "uint256"
        }
      ],
      "name": "TokenWeightUpdated",
      "type": "event"
    },
    {
      "anonymous": false,
      "inputs": [
        {
          "indexed": false,
          "internalType": "address",
          "name": "user",
          "type": "address"
        },
        {
          "indexed": false,
          "internalType": "address",
          "name": "token",
          "type": "address"
        },
        {
          "indexed": false,
          "internalType": "uint256",
          "name": "amount",
          "type": "uint256"
        }
      ],
      "name": "UserDeposit",
      "type": "event"
    },
    {
      "inputs": [
        {
          "internalType": "address",
          "name": "_token",
          "type": "address"
        },
        {
          "internalType": "uint256",
          "name": "_weight",
          "type": "uint256"
        }
      ],
      "name": "addToken",
      "outputs": [],
      "stateMutability": "nonpayable",
      "type": "function"
    },
    {
      "inputs": [],
      "name": "admin",
      "outputs": [
        {
          "internalType": "address",
          "name": "",
          "type": "address"
        }
      ],
      "stateMutability": "view",
      "type": "function"
    },
    {
      "inputs": [
        {
          "internalType": "uint256",
          "name": "_mintAmount",
          "type": "uint256"
        }
      ],
      "name": "calculateRequiredDeposits",
      "outputs": [
        {
          "internalType": "address[]",
          "name": "tokens",
          "type": "address[]"
        },
        {
          "internalType": "uint256[]",
          "name": "amounts",
          "type": "uint256[]"
        }
      ],
      "stateMutability": "view",
      "type": "function"
    },
    {
      "inputs": [
        {
          "internalType": "uint256",
          "name": "",
          "type": "uint256"
        }
      ],
      "name": "compositionTokens",
      "outputs": [
        {
          "internalType": "address",
          "name": "",
          "type": "address"
        }
      ],
      "stateMutability": "view",
      "type": "function"
    },
    {
      "inputs": [],
      "name": "controller",
      "outputs": [
        {
          "internalType": "address",
          "name": "",
          "type": "address"
        }
      ],
      "stateMutability": "view",
      "type": "function"
    },
    {
      "inputs": [
        {
          "internalType": "address",
          "name": "_token",
          "type": "address"
        },
        {
          "internalType": "uint256",
          "name": "_amount",
          "type": "uint256"
        }
      ],
      "name": "depositToken",
      "outputs": [],
      "stateMutability": "nonpayable",
      "type": "function"
    },
    {
      "inputs": [],
      "name": "getComposition",
      "outputs": [
        {
          "internalType": "address[]",
          "name": "tokens",
          "type": "address[]"
        },
        {
          "internalType": "uint256[]",
          "name": "weights",
          "type": "uint256[]"
        }
      ],
      "stateMutability": "view",
      "type": "function"
    },
    {
      "inputs": [],
      "name": "governanceActivated",
      "outputs": [
        {
          "internalType": "bool",
          "name": "",
          "type": "bool"
        }
      ],
      "stateMutability": "view",
      "type": "function"
    },
    {
      "inputs": [],
      "name": "governanceHook",
      "outputs": [
        {
          "internalType": "contract IGovernanceHook",
          "name": "",
          "type": "address"
        }
      ],
      "stateMutability": "view",
      "type": "function"
    },
    {
      "inputs": [],
      "name": "indexToken",
      "outputs": [
        {
          "internalType": "address",
          "name": "",
          "type": "address"
        }
      ],
      "stateMutability": "view",
      "type": "function"
    },
    {
      "inputs": [
        {
          "internalType": "address",
          "name": "",
          "type": "address"
        }
      ],
      "name": "isCompositionToken",
      "outputs": [
        {
          "internalType": "bool",
          "name": "",
          "type": "bool"
        }
      ],
      "stateMutability": "view",
      "type": "function"
    },
    {
      "inputs": [
        {
          "internalType": "address",
          "name": "_user",
          "type": "address"
        },
        {
          "internalType": "uint256",
          "name": "_mintAmount",
          "type": "uint256"
        }
      ],
      "name": "processMint",
      "outputs": [],
      "stateMutability": "nonpayable",
      "type": "function"
    },
    {
      "inputs": [
        {
          "internalType": "address",
          "name": "_token",
          "type": "address"
        }
      ],
      "name": "removeToken",
      "outputs": [],
      "stateMutability": "nonpayable",
      "type": "function"
    },
    {
      "inputs": [
        {
          "internalType": "address",
          "name": "_controller",
          "type": "address"
        }
      ],
      "name": "setController",
      "outputs": [],
      "stateMutability": "nonpayable",
      "type": "function"
    },
    {
      "inputs": [
        {
          "internalType": "bool",
          "name": "_activated",
          "type": "bool"
        }
      ],
      "name": "setGovernanceActivated",
      "outputs": [],
      "stateMutability": "nonpayable",
      "type": "function"
    },
    {
      "inputs": [
        {
          "internalType": "address",
          "name": "_hook",
          "type": "address"
        }
      ],
      "name": "setGovernanceHook",
      "outputs": [],
      "stateMutability": "nonpayable",
      "type": "function"
    },
    {
      "inputs": [
        {
          "internalType": "address",
          "name": "_indexToken",
          "type": "address"
        }
      ],
      "name": "setIndexToken",
      "outputs": [],
      "stateMutability": "nonpayable",
      "type": "function"
    },
    {
      "inputs": [
        {
          "internalType": "address",
          "name": "",
          "type": "address"
        }
      ],
      "name": "tokenWeights",
      "outputs": [
        {
          "internalType": "uint256",
          "name": "",
          "type": "uint256"
        }
      ],
      "stateMutability": "view",
      "type": "function"
    },
    {
      "inputs": [],
      "name": "totalWeight",
      "outputs": [
        {
          "internalType": "uint256",
          "name": "",
          "type": "uint256"
        }
      ],
      "stateMutability": "view",
      "type": "function"
    },
    {
      "inputs": [
        {
          "internalType": "address",
          "name": "_token",
          "type": "address"
        },
        {
          "internalType": "uint256",
          "name": "_newWeight",
          "type": "uint256"
        }
      ],
      "name": "updateTokenWeight",
      "outputs": [],
      "stateMutability": "nonpayable",
      "type": "function"
    },
    {
      "inputs": [
        {
          "internalType": "address",
          "name": "",
          "type": "address"
        },
        {
          "internalType": "address",
          "name": "",
          "type": "address"
        }
      ],
      "name": "userDeposits",
      "outputs": [
        {
          "internalType": "uint256",
          "name": "",
          "type": "uint256"
        }
      ],
      "stateMutability": "view",
      "type": "function"
    },
    {
      "inputs": [
        {
          "internalType": "address",
          "name": "_user",
          "type": "address"
        },
        {
          "internalType": "uint256",
          "name": "_mintAmount",
          "type": "uint256"
        }
      ],
      "name": "validateMint",
      "outputs": [
        {
          "internalType": "bool",
          "name": "",
          "type": "bool"
        }
      ],
      "stateMutability": "view",
      "type": "function"
    },
    {
      "stateMutability": "payable",
      "type": "receive"
    }
  ],
  "bytecode": "0x60806040526003805460ff60a01b1916905560006007553480156200002357600080fd5b5060405162001ca538038062001ca5833981016040819052620000469162000095565b600180546001600160a01b039384166001600160a01b03199182161790915560008054929093169116179055620000cd565b80516001600160a01b03811681146200009057600080fd5b919050565b60008060408385031215620000a957600080fd5b620000b48362000078565b9150620000c46020840162000078565b90509250929050565b611bc880620000dd6000396000f3fe6080604052600436106101395760003560e01c806392eefe9b116100ab578063b9d527c61161006f578063b9d527c6146103b1578063c228ddd7146103d1578063e7d015f2146103f1578063f77c479114610411578063f851a44014610431578063fbadceca1461045157600080fd5b806392eefe9b1461030e57806396c82e571461032e578063ab2f3ad414610344578063af81c5b914610371578063b82a35c51461039157600080fd5b8063338b5dea116100fd578063338b5dea14610228578063436d8039146102485780634df8dce51461028e57806357c37b69146102ae5780635fa7b584146102ce5780638f9f8b01146102ee57600080fd5b8063047ac6e21461014557806308d72102146101825780630e8fb99b146101a557806321faf184146101e5578063322b5c481461020757600080fd5b3661014057005b600080fd5b34801561015157600080fd5b50600354610165906001600160a01b031681565b6040516001600160a01b0390911681526020015b60405180910390f35b34801561018e57600080fd5b50610197610471565b604051610179929190611837565b3480156101b157600080fd5b506101d56101c03660046118d7565b60056020526000908152604090205460ff1681565b6040519015158152602001610179565b3480156101f157600080fd5b506102056102003660046118f9565b6105e7565b005b34801561021357600080fd5b506003546101d590600160a01b900460ff1681565b34801561023457600080fd5b506102056102433660046118f9565b610755565b34801561025457600080fd5b50610280610263366004611923565b600860209081526000928352604080842090915290825290205481565b604051908152602001610179565b34801561029a57600080fd5b506101656102a9366004611956565b610bf7565b3480156102ba57600080fd5b506102056102c93660046118d7565b610c21565b3480156102da57600080fd5b506102056102e93660046118d7565b610cc9565b3480156102fa57600080fd5b50610197610309366004611956565b610ef2565b34801561031a57600080fd5b506102056103293660046118d7565b61107e565b34801561033a57600080fd5b5061028060075481565b34801561035057600080fd5b5061028061035f3660046118d7565b60066020526000908152604090205481565b34801561037d57600080fd5b5061020561038c3660046118f9565b61111f565b34801561039d57600080fd5b506102056103ac3660046118d7565b611348565b3480156103bd57600080fd5b506101d56103cc3660046118f9565b611556565b3480156103dd57600080fd5b506102056103ec366004611980565b611643565b3480156103fd57600080fd5b50600954610165906001600160a01b031681565b34801561041d57600080fd5b50600254610165906001600160a01b031681565b34801561043d57600080fd5b50600154610165906001600160a01b031681565b34801561045d57600080fd5b5061020561046c3660046118f9565b6116e3565b600454606090819067ffffffffffffffff8111156104915761049161199d565b6040519080825280602002602001820160405280156104ba578160200160208202803683370190505b5060045490925067ffffffffffffffff8111156104d9576104d961199d565b604051908082528060200260200182016040528015610502578160200160208202803683370190505b50905060005b6004548110156105e25760048181548110610525576105256119b3565b9060005260206000200160009054906101000a90046001600160a01b0316838281518110610555576105556119b3565b60200260200101906001600160a01b031690816001600160a01b031681525050600660006004838154811061058c5761058c6119b3565b60009182526020808320909101546001600160a01b0316835282019290925260400190205482518390839081106105c5576105c56119b3565b6020908102919091010152806105da816119df565b915050610508565b509091565b6001546001600160a01b031633148061061e5750600354600160a01b900460ff16801561061e57506003546001600160a01b031633145b6106435760405162461bcd60e51b815260040161063a906119f8565b60405180910390fd5b6001600160a01b03821660009081526005602052604090205460ff1661067b5760405162461bcd60e51b815260040161063a90611a47565b600081116106cb5760405162461bcd60e51b815260206004820152601d60248201527f576569676874206d7573742062652067726561746572207468616e2030000000604482015260640161063a565b6001600160a01b038216600090815260066020526040902080549082905560075482906106f9908390611a7e565b6107039190611a91565b600755604080516001600160a01b0385168152602081018390529081018390527fd61df61512d18d18089442c81b1ab8998bb7e67975673fb7dbfcc07efc5330e89060600160405180910390a1505050565b6001600160a01b03821660009081526005602052604090205460ff1661078d5760405162461bcd60e51b815260040161063a90611a47565b600081116107dd5760405162461bcd60e51b815260206004820152601d60248201527f416d6f756e74206d7573742062652067726561746572207468616e2030000000604482015260640161063a565b600054604051631c97fa2960e21b81526001600160a01b0384811660048301523060248301529091169063725fe8a490604401602060405180830381865afa15801561082d573d6000803e3d6000fd5b505050506040513d601f19601f820116820180604052508101906108519190611aa4565b61089d5760405162461bcd60e51b815260206004820152601f60248201527f546f6b656e206e6f74206173736f6369617465642077697468207661756c7400604482015260640161063a565b600054604051631c97fa2960e21b81526001600160a01b0384811660048301523360248301529091169063725fe8a490604401602060405180830381865afa1580156108ed573d6000803e3d6000fd5b505050506040513d601f19601f820116820180604052508101906109119190611aa4565b61095d5760405162461bcd60e51b815260206004820181905260248201527f546f6b656e206e6f74206173736f63696174656420776974682073656e646572604482015260640161063a565b60008054604051633de222bb60e21b81526001600160a01b0385811660048301523060248301529091169063f7888aec90604401602060405180830381865afa1580156109ae573d6000803e3d6000fd5b505050506040513d601f19601f820116820180604052508101906109d29190611ac1565b60008054604051632c54de4f60e01b81526001600160a01b0387811660048301523360248301523060448301526064820187905293945091921690632c54de4f906084016020604051808303816000875af1158015610a35573d6000803e3d6000fd5b505050506040513d601f19601f82011682018060405250810190610a599190611ada565b90508060070b600014610aa05760405162461bcd60e51b815260206004820152600f60248201526e151c985b9cd9995c8819985a5b1959608a1b604482015260640161063a565b60008054604051633de222bb60e21b81526001600160a01b0387811660048301523060248301529091169063f7888aec90604401602060405180830381865afa158015610af1573d6000803e3d6000fd5b505050506040513d601f19601f82011682018060405250810190610b159190611ac1565b905083610b228483611a7e565b14610b6f5760405162461bcd60e51b815260206004820152601860248201527f5472616e7366657220616d6f756e74206d69736d617463680000000000000000604482015260640161063a565b3360009081526008602090815260408083206001600160a01b038916845290915281208054869290610ba2908490611a91565b9091555050604080513381526001600160a01b03871660208201529081018590527f3bc57f469ad6d10d7723ea226cd22bd2b9e527def2b529f6ab44645a166895829060600160405180910390a15050505050565b60048181548110610c0757600080fd5b6000918252602090912001546001600160a01b0316905081565b6001546001600160a01b0316331480610c585750600354600160a01b900460ff168015610c5857506003546001600160a01b031633145b610c745760405162461bcd60e51b815260040161063a906119f8565b600380546001600160a01b0319166001600160a01b0383169081179091556040519081527f5791ed6893704b67959da1f8dcad745d80186900528da4fe640c2c5154e45f05906020015b60405180910390a150565b6001546001600160a01b0316331480610d005750600354600160a01b900460ff168015610d0057506003546001600160a01b031633145b610d1c5760405162461bcd60e51b815260040161063a906119f8565b6001600160a01b03811660009081526005602052604090205460ff16610d545760405162461bcd60e51b815260040161063a90611a47565b6001600160a01b0381166000908152600660205260408120546007805491929091610d80908490611a7e565b90915550506001600160a01b038116600090815260066020908152604080832083905560059091528120805460ff191690555b600454811015610eb857816001600160a01b031660048281548110610dda57610dda6119b3565b6000918252602090912001546001600160a01b031603610ea65760048054610e0490600190611a7e565b81548110610e1457610e146119b3565b600091825260209091200154600480546001600160a01b039092169183908110610e4057610e406119b3565b9060005260206000200160006101000a8154816001600160a01b0302191690836001600160a01b031602179055506004805480610e7f57610e7f611afd565b600082815260209020810160001990810180546001600160a01b0319169055019055610eb8565b80610eb0816119df565b915050610db3565b506040516001600160a01b03821681527f4c910b69fe65a61f7531b9c5042b2329ca7179c77290aa7e2eb3afa3c8511fd390602001610cbe565b600454606090819067ffffffffffffffff811115610f1257610f1261199d565b604051908082528060200260200182016040528015610f3b578160200160208202803683370190505b5060045490925067ffffffffffffffff811115610f5a57610f5a61199d565b604051908082528060200260200182016040528015610f83578160200160208202803683370190505b50905060005b6004548110156110785760048181548110610fa657610fa66119b3565b9060005260206000200160009054906101000a90046001600160a01b0316838281518110610fd657610fd66119b3565b60200260200101906001600160a01b031690816001600160a01b0316815250506007546006600060048481548110611010576110106119b3565b60009182526020808320909101546001600160a01b0316835282019290925260400190205461103f9086611b13565b6110499190611b2a565b82828151811061105b5761105b6119b3565b602090810291909101015280611070816119df565b915050610f89565b50915091565b6001546001600160a01b03163314806110b55750600354600160a01b900460ff1680156110b557506003546001600160a01b031633145b6110d15760405162461bcd60e51b815260040161063a906119f8565b600280546001600160a01b0319166001600160a01b0383169081179091556040519081527f79f74fd5964b6943d8a1865abfb7f668c92fa3f32c0a2e3195da7d0946703ad790602001610cbe565b6001546001600160a01b03163314806111565750600354600160a01b900460ff16801561115657506003546001600160a01b031633145b6111725760405162461bcd60e51b815260040161063a906119f8565b6001600160a01b0382166111c05760405162461bcd60e51b8152602060048201526015602482015274496e76616c696420746f6b656e206164647265737360581b604482015260640161063a565b600081116112105760405162461bcd60e51b815260206004820152601d60248201527f576569676874206d7573742062652067726561746572207468616e2030000000604482015260640161063a565b6001600160a01b03821660009081526005602052604090205460ff16156112795760405162461bcd60e51b815260206004820152601c60248201527f546f6b656e20616c726561647920696e20636f6d706f736974696f6e00000000604482015260640161063a565b6001600160a01b0382166000818152600560209081526040808320805460ff191660019081179091556006909252822084905560048054918201815582527f8a35acfbc15ff81a39ae7d344fd709f28e8600b4aa8c65c6b64bfe7fe36bd19b0180546001600160a01b031916909217909155600780548392906112fd908490611a91565b9091555050604080516001600160a01b0384168152602081018390527ff4c563a3ea86ff1f4275e8c207df0375a51963f2b831b7bf4da8be938d92876c910160405180910390a15050565b6002546001600160a01b031633146113725760405162461bcd60e51b815260040161063a90611b4c565b6001600160a01b0381166113c05760405162461bcd60e51b8152602060048201526015602482015274496e76616c696420746f6b656e206164647265737360581b604482015260640161063a565b600980546001600160a01b0319166001600160a01b03838116918217909255600054604051631c97fa2960e21b815230600482015260248101929092529091169063725fe8a490604401602060405180830381865afa158015611427573d6000803e3d6000fd5b505050506040513d601f19601f8201168201806040525081019061144b9190611aa4565b61151d576000805460405163248a35ef60e11b81523060048201526001600160a01b038481166024830152909116906349146bde906044016020604051808303816000875af11580156114a2573d6000803e3d6000fd5b505050506040513d601f19601f820116820180604052508101906114c69190611ada565b90508060070b60001461151b5760405162461bcd60e51b815260206004820152601860248201527f546f6b656e206173736f63696174696f6e206661696c65640000000000000000604482015260640161063a565b505b6040516001600160a01b03821681527f40cdac5625b9528b38b786c9b74c257c1de10eac74b82c0ebc45a652cd8bcf6390602001610cbe565b6002546000906001600160a01b031633146115835760405162461bcd60e51b815260040161063a90611b4c565b60005b600454811015611637576000600482815481106115a5576115a56119b3565b60009182526020808320909101546007546001600160a01b0390911680845260069092526040832054919350906115dc9087611b13565b6115e69190611b2a565b6001600160a01b03808816600090815260086020908152604080832093871683529290522054909150811115611622576000935050505061163d565b5050808061162f906119df565b915050611586565b50600190505b92915050565b6001546001600160a01b031633148061167a5750600354600160a01b900460ff16801561167a57506003546001600160a01b031633145b6116965760405162461bcd60e51b815260040161063a906119f8565b60038054821515600160a01b0260ff60a01b199091161790556040517f809d1f09b32df1036de4c3ec9f8f624ee9a1ba9489ac372d25693caf17835a9590610cbe90831515815260200190565b6002546001600160a01b0316331461170d5760405162461bcd60e51b815260040161063a90611b4c565b60005b6004548110156118325760006004828154811061172f5761172f6119b3565b60009182526020808320909101546007546001600160a01b0390911680845260069092526040832054919350906117669086611b13565b6117709190611b2a565b6001600160a01b038087166000908152600860209081526040808320938716835292905220549091508111156117df5760405162461bcd60e51b8152602060048201526014602482015273125b9cdd59999a58da595b9d0819195c1bdcda5d60621b604482015260640161063a565b6001600160a01b03808616600090815260086020908152604080832093861683529290529081208054839290611816908490611a7e565b925050819055505050808061182a906119df565b915050611710565b505050565b604080825283519082018190526000906020906060840190828701845b828110156118795781516001600160a01b031684529284019290840190600101611854565b5050508381038285015284518082528583019183019060005b818110156118ae57835183529284019291840191600101611892565b5090979650505050505050565b80356001600160a01b03811681146118d257600080fd5b919050565b6000602082840312156118e957600080fd5b6118f2826118bb565b9392505050565b6000806040838503121561190c57600080fd5b611915836118bb565b946020939093013593505050565b6000806040838503121561193657600080fd5b61193f836118bb565b915061194d602084016118bb565b90509250929050565b60006020828403121561196857600080fd5b5035919050565b801515811461197d57600080fd5b50565b60006020828403121561199257600080fd5b81356118f28161196f565b634e487b7160e01b600052604160045260246000fd5b634e487b7160e01b600052603260045260246000fd5b634e487b7160e01b600052601160045260246000fd5b6000600182016119f1576119f16119c9565b5060010190565b6020808252602f908201527f4f6e6c792061646d696e206f7220676f7665726e616e63652063616e2063616c60408201526e36103a3434b990333ab731ba34b7b760891b606082015260800190565b60208082526018908201527f546f6b656e206e6f7420696e20636f6d706f736974696f6e0000000000000000604082015260600190565b8181038181111561163d5761163d6119c9565b8082018082111561163d5761163d6119c9565b600060208284031215611ab657600080fd5b81516118f28161196f565b600060208284031215611ad357600080fd5b5051919050565b600060208284031215611aec57600080fd5b81518060070b81146118f257600080fd5b634e487b7160e01b600052603160045260246000fd5b808202811582820484141761163d5761163d6119c9565b600082611b4757634e487b7160e01b600052601260045260246000fd5b500490565b60208082526026908201527f4f6e6c7920636f6e74726f6c6c65722063616e2063616c6c20746869732066756040820152653731ba34b7b760d11b60608201526080019056fea2646970667358221220c24c6ed210e7af93165b6b18bfa30a4dbd7e903132982c4edb5a9bbbb02f1ccb64736f6c63430008130033",
  "linkReferences": {},
  "deployedLinkReferences": {}
}