{
  "_format": "hh-sol-artifact-1",
  "contractName": "DepositMinterV2",
  "sourceName": "contracts/DepositMinterV2.sol",
  "abi": [
    {
      "inputs": [
        {
          "internalType": "address",
          "name": "lynxToken",
          "type": "address"
        },
        {
          "internalType": "address",
          "name": "wbtcToken",
          "type": "address"
        },
        {
          "internalType": "address",
          "name": "sauceToken",
          "type": "address"
        },
        {
          "internalType": "address",
          "name": "usdcToken",
          "type": "address"
        },
        {
          "internalType": "address",
          "name": "jamToken",
          "type": "address"
        },
        {
          "internalType": "address",
          "name": "headstartToken",
          "type": "address"
        },
        {
          "internalType": "address",
          "name": "treasury",
          "type": "address"
        }
      ],
      "stateMutability": "nonpayable",
      "type": "constructor"
    },
    {
      "inputs": [
        {
          "internalType": "string",
          "name": "operation",
          "type": "string"
        },
        {
          "internalType": "int64",
          "name": "responseCode",
          "type": "int64"
        }
      ],
      "name": "HTSOperationFailed",
      "type": "error"
    },
    {
      "inputs": [
        {
          "internalType": "string",
          "name": "tokenType",
          "type": "string"
        },
        {
          "internalType": "uint256",
          "name": "required",
          "type": "uint256"
        },
        {
          "internalType": "uint256",
          "name": "provided",
          "type": "uint256"
        }
      ],
      "name": "InsufficientDeposit",
      "type": "error"
    },
    {
      "inputs": [],
      "name": "InvalidAmount",
      "type": "error"
    },
    {
      "inputs": [],
      "name": "OnlyAdmin",
      "type": "error"
    },
    {
      "inputs": [
        {
          "internalType": "string",
          "name": "tokenType",
          "type": "string"
        }
      ],
      "name": "TokenNotSet",
      "type": "error"
    },
    {
      "anonymous": false,
      "inputs": [
        {
          "indexed": true,
          "internalType": "address",
          "name": "user",
          "type": "address"
        },
        {
          "indexed": false,
          "internalType": "uint256",
          "name": "totalTokensProcessed",
          "type": "uint256"
        }
      ],
      "name": "DepositsProcessed",
      "type": "event"
    },
    {
      "anonymous": false,
      "inputs": [
        {
          "indexed": true,
          "internalType": "address",
          "name": "user",
          "type": "address"
        },
        {
          "indexed": false,
          "internalType": "uint256",
          "name": "lynxAmount",
          "type": "uint256"
        }
      ],
      "name": "LynxMinted",
      "type": "event"
    },
    {
      "anonymous": false,
      "inputs": [
        {
          "indexed": true,
          "internalType": "address",
          "name": "user",
          "type": "address"
        },
        {
          "indexed": false,
          "internalType": "uint256",
          "name": "lynxAmount",
          "type": "uint256"
        },
        {
          "indexed": false,
          "internalType": "uint256",
          "name": "lynxBaseUnits",
          "type": "uint256"
        }
      ],
      "name": "MintAttempt",
      "type": "event"
    },
    {
      "anonymous": false,
      "inputs": [
        {
          "indexed": false,
          "internalType": "int64",
          "name": "responseCode",
          "type": "int64"
        },
        {
          "indexed": false,
          "internalType": "int64",
          "name": "newTotalSupply",
          "type": "int64"
        }
      ],
      "name": "MintResult",
      "type": "event"
    },
    {
      "anonymous": false,
      "inputs": [
        {
          "indexed": false,
          "internalType": "address",
          "name": "token",
          "type": "address"
        },
        {
          "indexed": false,
          "internalType": "int64",
          "name": "responseCode",
          "type": "int64"
        }
      ],
      "name": "TokensAssociated",
      "type": "event"
    },
    {
      "anonymous": false,
      "inputs": [
        {
          "indexed": true,
          "internalType": "address",
          "name": "user",
          "type": "address"
        },
        {
          "indexed": false,
          "internalType": "uint256",
          "name": "hbarAmount",
          "type": "uint256"
        },
        {
          "indexed": false,
          "internalType": "uint256",
          "name": "wbtcAmount",
          "type": "uint256"
        },
        {
          "indexed": false,
          "internalType": "uint256",
          "name": "sauceAmount",
          "type": "uint256"
        },
        {
          "indexed": false,
          "internalType": "uint256",
          "name": "usdcAmount",
          "type": "uint256"
        },
        {
          "indexed": false,
          "internalType": "uint256",
          "name": "jamAmount",
          "type": "uint256"
        },
        {
          "indexed": false,
          "internalType": "uint256",
          "name": "headstartAmount",
          "type": "uint256"
        }
      ],
      "name": "TokensDeposited",
      "type": "event"
    },
    {
      "anonymous": false,
      "inputs": [
        {
          "indexed": false,
          "internalType": "address",
          "name": "from",
          "type": "address"
        },
        {
          "indexed": false,
          "internalType": "address",
          "name": "to",
          "type": "address"
        },
        {
          "indexed": false,
          "internalType": "uint256",
          "name": "amount",
          "type": "uint256"
        }
      ],
      "name": "TransferAttempt",
      "type": "event"
    },
    {
      "anonymous": false,
      "inputs": [
        {
          "indexed": false,
          "internalType": "int64",
          "name": "responseCode",
          "type": "int64"
        }
      ],
      "name": "TransferResult",
      "type": "event"
    },
    {
      "inputs": [],
      "name": "ADMIN",
      "outputs": [
        {
          "internalType": "address",
          "name": "",
          "type": "address"
        }
      ],
      "stateMutability": "view",
      "type": "function"
    },
    {
      "inputs": [],
      "name": "HBAR_RATIO",
      "outputs": [
        {
          "internalType": "uint256",
          "name": "",
          "type": "uint256"
        }
      ],
      "stateMutability": "view",
      "type": "function"
    },
    {
      "inputs": [],
      "name": "HEADSTART_DECIMALS",
      "outputs": [
        {
          "internalType": "uint8",
          "name": "",
          "type": "uint8"
        }
      ],
      "stateMutability": "view",
      "type": "function"
    },
    {
      "inputs": [],
      "name": "HEADSTART_RATIO",
      "outputs": [
        {
          "internalType": "uint256",
          "name": "",
          "type": "uint256"
        }
      ],
      "stateMutability": "view",
      "type": "function"
    },
    {
      "inputs": [],
      "name": "HEADSTART_TOKEN",
      "outputs": [
        {
          "internalType": "address",
          "name": "",
          "type": "address"
        }
      ],
      "stateMutability": "view",
      "type": "function"
    },
    {
      "inputs": [],
      "name": "JAM_DECIMALS",
      "outputs": [
        {
          "internalType": "uint8",
          "name": "",
          "type": "uint8"
        }
      ],
      "stateMutability": "view",
      "type": "function"
    },
    {
      "inputs": [],
      "name": "JAM_RATIO",
      "outputs": [
        {
          "internalType": "uint256",
          "name": "",
          "type": "uint256"
        }
      ],
      "stateMutability": "view",
      "type": "function"
    },
    {
      "inputs": [],
      "name": "JAM_TOKEN",
      "outputs": [
        {
          "internalType": "address",
          "name": "",
          "type": "address"
        }
      ],
      "stateMutability": "view",
      "type": "function"
    },
    {
      "inputs": [],
      "name": "LYNX_DECIMALS",
      "outputs": [
        {
          "internalType": "uint8",
          "name": "",
          "type": "uint8"
        }
      ],
      "stateMutability": "view",
      "type": "function"
    },
    {
      "inputs": [],
      "name": "LYNX_TOKEN",
      "outputs": [
        {
          "internalType": "address",
          "name": "",
          "type": "address"
        }
      ],
      "stateMutability": "view",
      "type": "function"
    },
    {
      "inputs": [],
      "name": "SAUCE_DECIMALS",
      "outputs": [
        {
          "internalType": "uint8",
          "name": "",
          "type": "uint8"
        }
      ],
      "stateMutability": "view",
      "type": "function"
    },
    {
      "inputs": [],
      "name": "SAUCE_RATIO",
      "outputs": [
        {
          "internalType": "uint256",
          "name": "",
          "type": "uint256"
        }
      ],
      "stateMutability": "view",
      "type": "function"
    },
    {
      "inputs": [],
      "name": "SAUCE_TOKEN",
      "outputs": [
        {
          "internalType": "address",
          "name": "",
          "type": "address"
        }
      ],
      "stateMutability": "view",
      "type": "function"
    },
    {
      "inputs": [],
      "name": "TREASURY",
      "outputs": [
        {
          "internalType": "address",
          "name": "",
          "type": "address"
        }
      ],
      "stateMutability": "view",
      "type": "function"
    },
    {
      "inputs": [],
      "name": "USDC_DECIMALS",
      "outputs": [
        {
          "internalType": "uint8",
          "name": "",
          "type": "uint8"
        }
      ],
      "stateMutability": "view",
      "type": "function"
    },
    {
      "inputs": [],
      "name": "USDC_RATIO",
      "outputs": [
        {
          "internalType": "uint256",
          "name": "",
          "type": "uint256"
        }
      ],
      "stateMutability": "view",
      "type": "function"
    },
    {
      "inputs": [],
      "name": "USDC_TOKEN",
      "outputs": [
        {
          "internalType": "address",
          "name": "",
          "type": "address"
        }
      ],
      "stateMutability": "view",
      "type": "function"
    },
    {
      "inputs": [],
      "name": "WBTC_DECIMALS",
      "outputs": [
        {
          "internalType": "uint8",
          "name": "",
          "type": "uint8"
        }
      ],
      "stateMutability": "view",
      "type": "function"
    },
    {
      "inputs": [],
      "name": "WBTC_RATIO",
      "outputs": [
        {
          "internalType": "uint256",
          "name": "",
          "type": "uint256"
        }
      ],
      "stateMutability": "view",
      "type": "function"
    },
    {
      "inputs": [],
      "name": "WBTC_TOKEN",
      "outputs": [
        {
          "internalType": "address",
          "name": "",
          "type": "address"
        }
      ],
      "stateMutability": "view",
      "type": "function"
    },
    {
      "inputs": [],
      "name": "associateTokens",
      "outputs": [],
      "stateMutability": "nonpayable",
      "type": "function"
    },
    {
      "inputs": [
        {
          "internalType": "uint256",
          "name": "lynxAmount",
          "type": "uint256"
        }
      ],
      "name": "calculateRequiredDeposits",
      "outputs": [
        {
          "internalType": "uint256",
          "name": "hbarRequired",
          "type": "uint256"
        },
        {
          "internalType": "uint256",
          "name": "wbtcRequired",
          "type": "uint256"
        },
        {
          "internalType": "uint256",
          "name": "sauceRequired",
          "type": "uint256"
        },
        {
          "internalType": "uint256",
          "name": "usdcRequired",
          "type": "uint256"
        },
        {
          "internalType": "uint256",
          "name": "jamRequired",
          "type": "uint256"
        },
        {
          "internalType": "uint256",
          "name": "headstartRequired",
          "type": "uint256"
        }
      ],
      "stateMutability": "pure",
      "type": "function"
    },
    {
      "inputs": [],
      "name": "checkAssociations",
      "outputs": [
        {
          "internalType": "bool",
          "name": "lynxAssociated",
          "type": "bool"
        },
        {
          "internalType": "bool",
          "name": "wbtcAssociated",
          "type": "bool"
        },
        {
          "internalType": "bool",
          "name": "sauceAssociated",
          "type": "bool"
        },
        {
          "internalType": "bool",
          "name": "usdcAssociated",
          "type": "bool"
        },
        {
          "internalType": "bool",
          "name": "jamAssociated",
          "type": "bool"
        },
        {
          "internalType": "bool",
          "name": "headstartAssociated",
          "type": "bool"
        }
      ],
      "stateMutability": "nonpayable",
      "type": "function"
    },
    {
      "inputs": [
        {
          "internalType": "uint256",
          "name": "amount",
          "type": "uint256"
        }
      ],
      "name": "emergencyWithdrawHbar",
      "outputs": [],
      "stateMutability": "nonpayable",
      "type": "function"
    },
    {
      "inputs": [],
      "name": "getHbarBalance",
      "outputs": [
        {
          "internalType": "uint256",
          "name": "",
          "type": "uint256"
        }
      ],
      "stateMutability": "view",
      "type": "function"
    },
    {
      "inputs": [
        {
          "internalType": "uint256",
          "name": "lynxAmount",
          "type": "uint256"
        },
        {
          "internalType": "uint256",
          "name": "wbtcAmount",
          "type": "uint256"
        },
        {
          "internalType": "uint256",
          "name": "sauceAmount",
          "type": "uint256"
        },
        {
          "internalType": "uint256",
          "name": "usdcAmount",
          "type": "uint256"
        },
        {
          "internalType": "uint256",
          "name": "jamAmount",
          "type": "uint256"
        },
        {
          "internalType": "uint256",
          "name": "headstartAmount",
          "type": "uint256"
        }
      ],
      "name": "mintWithDeposits",
      "outputs": [],
      "stateMutability": "payable",
      "type": "function"
    },
    {
      "stateMutability": "payable",
      "type": "receive"
    }
  ],
  "bytecode": "0x60806040523480156200001157600080fd5b506040516200210f3803806200210f8339810160408190526200003491620000ea565b600080546101676001600160a01b0319918216179091556001805482166001600160a01b03998a1617905560028054821697891697909717909655600380548716958816959095179094556004805486169387169390931790925560058054851691861691909117905560068054841691851691909117905560078054339084161790556008805490921692169190911790556200017f565b80516001600160a01b0381168114620000e557600080fd5b919050565b600080600080600080600060e0888a0312156200010657600080fd5b6200011188620000cd565b96506200012160208901620000cd565b95506200013160408901620000cd565b94506200014160608901620000cd565b93506200015160808901620000cd565b92506200016160a08901620000cd565b91506200017160c08901620000cd565b905092959891949750929550565b611f80806200018f6000396000f3fe6080604052600436106101855760003560e01c80638f8f6c01116100d1578063de97b29f1161008a578063e9142b2e11610064578063e9142b2e1461040f578063ef0375931461033a578063fa56927414610424578063ff4348871461026857600080fd5b8063de97b29f14610268578063e1e99576146103cf578063e40d79a0146103ef57600080fd5b80638f8f6c011461033a5780638f9f8b011461034f578063a1c6a7af1461033a578063b158d32b1461039c578063c1419def14610268578063d65db297146103af57600080fd5b80634234e0ed1161013e5780635af91dab116101185780635af91dab146102b95780635ea4a9fd1461028f5780637bd82c691461030757806384b1349e1461031a57600080fd5b80634234e0ed14610268578063462ef0fa1461028f5780634924190c146102a457600080fd5b806310ca0bce146101915780631bf5ae0c146101a85780631ec65c36146101d05780632a0acc6a146102085780632d2c5565146102285780632ed413841461024857600080fd5b3661018c57005b600080fd5b34801561019d57600080fd5b506101a6610444565b005b3480156101b457600080fd5b506101bd600281565b6040519081526020015b60405180910390f35b3480156101dc57600080fd5b506003546101f0906001600160a01b031681565b6040516001600160a01b0390911681526020016101c7565b34801561021457600080fd5b506007546101f0906001600160a01b031681565b34801561023457600080fd5b506008546101f0906001600160a01b031681565b34801561025457600080fd5b506002546101f0906001600160a01b031681565b34801561027457600080fd5b5061027d600681565b60405160ff90911681526020016101c7565b34801561029b57600080fd5b5061027d600881565b3480156102b057600080fd5b506101bd601981565b3480156102c557600080fd5b506102ce610870565b604080519615158752941515602087015292151593850193909352151560608401529015156080830152151560a082015260c0016101c7565b34801561031357600080fd5b50476101bd565b34801561032657600080fd5b506006546101f0906001600160a01b031681565b34801561034657600080fd5b506101bd600f81565b34801561035b57600080fd5b5061036f61036a36600461191f565b610c12565b604080519687526020870195909552938501929092526060840152608083015260a082015260c0016101c7565b6101a66103aa366004611938565b610d30565b3480156103bb57600080fd5b506101a66103ca36600461191f565b610d5c565b3480156103db57600080fd5b506001546101f0906001600160a01b031681565b3480156103fb57600080fd5b506005546101f0906001600160a01b031681565b34801561041b57600080fd5b506101bd600a81565b34801561043057600080fd5b506004546101f0906001600160a01b031681565b6000805460015460405163248a35ef60e11b81526001600160a01b03928316926349146bde9261047c9230929091169060040161197b565b6020604051808303816000875af115801561049b573d6000803e3d6000fd5b505050506040513d601f19601f820116820180604052508101906104bf91906119ac565b600154604051919250600080516020611f2b833981519152916104ed916001600160a01b03169084906119ce565b60405180910390a16000805460025460405163248a35ef60e11b81526001600160a01b03928316926349146bde9261052d9230929091169060040161197b565b6020604051808303816000875af115801561054c573d6000803e3d6000fd5b505050506040513d601f19601f8201168201806040525081019061057091906119ac565b600254604051919250600080516020611f2b8339815191529161059e916001600160a01b03169084906119ce565b60405180910390a16000805460035460405163248a35ef60e11b81526001600160a01b03928316926349146bde926105de9230929091169060040161197b565b6020604051808303816000875af11580156105fd573d6000803e3d6000fd5b505050506040513d601f19601f8201168201806040525081019061062191906119ac565b600354604051919250600080516020611f2b8339815191529161064f916001600160a01b03169084906119ce565b60405180910390a1600080546004805460405163248a35ef60e11b81526001600160a01b03938416936349146bde9361068d9330939216910161197b565b6020604051808303816000875af11580156106ac573d6000803e3d6000fd5b505050506040513d601f19601f820116820180604052508101906106d091906119ac565b600454604051919250600080516020611f2b833981519152916106fe916001600160a01b03169084906119ce565b60405180910390a16000805460055460405163248a35ef60e11b81526001600160a01b03928316926349146bde9261073e9230929091169060040161197b565b6020604051808303816000875af115801561075d573d6000803e3d6000fd5b505050506040513d601f19601f8201168201806040525081019061078191906119ac565b600554604051919250600080516020611f2b833981519152916107af916001600160a01b03169084906119ce565b60405180910390a16000805460065460405163248a35ef60e11b81526001600160a01b03928316926349146bde926107ef9230929091169060040161197b565b6020604051808303816000875af115801561080e573d6000803e3d6000fd5b505050506040513d601f19601f8201168201806040525081019061083291906119ac565b600654604051919250600080516020611f2b83398151915291610860916001600160a01b03169084906119ce565b60405180910390a1505050505050565b60008054600154604051630d9f324960e31b815283928392839283928392839283926001600160a01b0390811692636cf99248926108b4923092169060040161197b565b60408051808303816000875af11580156108d2573d6000803e3d6000fd5b505050506040513d601f19601f820116820180604052508101906108f691906119ea565b91509150601660030b8260070b14801561090d5750805b60008054600254604051630d9f324960e31b8152939b50919283926001600160a01b0392831692636cf992489261094a923092169060040161197b565b60408051808303816000875af1158015610968573d6000803e3d6000fd5b505050506040513d601f19601f8201168201806040525081019061098c91906119ea565b91509150601660030b8260070b1480156109a35750805b60008054600354604051630d9f324960e31b8152939c50919283926001600160a01b0392831692636cf99248926109e0923092169060040161197b565b60408051808303816000875af11580156109fe573d6000803e3d6000fd5b505050506040513d601f19601f82011682018060405250810190610a2291906119ea565b91509150601660030b8260070b148015610a395750805b6000805460048054604051630d9f324960e31b8152949e50929384936001600160a01b0393841693636cf9924893610a77933093909216910161197b565b60408051808303816000875af1158015610a95573d6000803e3d6000fd5b505050506040513d601f19601f82011682018060405250810190610ab991906119ea565b91509150601660030b8260070b148015610ad05750805b60008054600554604051630d9f324960e31b8152939e50919283926001600160a01b0392831692636cf9924892610b0d923092169060040161197b565b60408051808303816000875af1158015610b2b573d6000803e3d6000fd5b505050506040513d601f19601f82011682018060405250810190610b4f91906119ea565b91509150601660030b8260070b148015610b665750805b60008054600654604051630d9f324960e31b8152939f50919283926001600160a01b0392831692636cf9924892610ba3923092169060040161197b565b60408051808303816000875af1158015610bc1573d6000803e3d6000fd5b505050506040513d601f19601f82011682018060405250810190610be591906119ea565b91509150601660030b8260070b148015610bfc5750805b9c50505050505050505050505050909192939495565b60008080808080600a610c26601989611a3c565b610c34906305f5e100611a3c565b610c3e9190611a59565b95506064610c4e6008600a611b5f565b610c5960028a611a3c565b610c639190611a3c565b610c6d9190611a59565b9450600a610c7c600682611b5f565b610c87600f8a611a3c565b610c919190611a3c565b610c9b9190611a59565b9350600a610caa600682611b5f565b610cb5600f8a611a3c565b610cbf9190611a3c565b610cc99190611a59565b9250600a610cd8600682611b5f565b610ce3600f8a611a3c565b610ced9190611a3c565b610cf79190611a59565b9150600a610d06600682611b5f565b610d11600a8a611a3c565b610d1b9190611a3c565b610d259190611a59565b905091939550919395565b610d3e868686868686610e1a565b610d4b85858585856110dc565b610d54866115dc565b505050505050565b6007546001600160a01b03163314610d8757604051634755657960e01b815260040160405180910390fd5b47811115610ddc5760405162461bcd60e51b815260206004820152601960248201527f496e73756666696369656e7420484241522062616c616e63650000000000000060448201526064015b60405180910390fd5b6007546040516001600160a01b039091169082156108fc029083906000818181858888f19350505050158015610e16573d6000803e3d6000fd5b5050565b85600003610e3b5760405163162908e360e11b815260040160405180910390fd5b6001546001600160a01b0316610e7d576040516364d2ac4160e01b8152600401610dd390602080825260049082015263098b29cb60e31b604082015260600190565b6002546001600160a01b0316610ea6576040516364d2ac4160e01b8152600401610dd390611b6e565b6003546001600160a01b0316610ecf576040516364d2ac4160e01b8152600401610dd390611b92565b6004546001600160a01b0316610ef8576040516364d2ac4160e01b8152600401610dd390611bb7565b6005546001600160a01b0316610f21576040516364d2ac4160e01b8152600401610dd390611bdb565b6006546001600160a01b0316610f4a576040516364d2ac4160e01b8152600401610dd390611bfe565b600080600080600080306001600160a01b0316638f9f8b018d6040518263ffffffff1660e01b8152600401610f8191815260200190565b60c060405180830381865afa158015610f9e573d6000803e3d6000fd5b505050506040513d601f19601f82011682018060405250810190610fc29190611c27565b955095509550955095509550853410156110155760405163d5871b2360e01b81526060600480830191909152606482015263242120a960e11b60848201526024810187905234604482015260a401610dd3565b848b101561103a57848b60405163d5871b2360e01b8152600401610dd3929190611c71565b838a101561105f57838a60405163d5871b2360e01b8152600401610dd3929190611ca5565b8289101561108457828960405163d5871b2360e01b8152600401610dd3929190611cca565b818810156110a957818860405163d5871b2360e01b8152600401610dd3929190611cee565b808710156110ce57808760405163d5871b2360e01b8152600401610dd3929190611d11565b505050505050505050505050565b6000805460025460405163eca3691760e01b815283926001600160a01b039081169263eca369179261111a9290911690339030908d90600401611d3a565b6020604051808303816000875af1158015611139573d6000803e3d6000fd5b505050506040513d601f19601f8201168201806040525081019061115d91906119ac565b9050600781900b6016146111b0576040805163016146c160e61b81526004810191909152600d60448201526c2ba12a21903a3930b739b332b960991b6064820152600782900b6024820152608401610dd3565b816111ba81611d67565b6000805460035460405163eca3691760e01b81529396509193506001600160a01b039081169263eca36917926111fa921690339030908d90600401611d3a565b6020604051808303816000875af1158015611219573d6000803e3d6000fd5b505050506040513d601f19601f8201168201806040525081019061123d91906119ac565b9050600781900b601614611291576040805163016146c160e61b81526004810191909152600e60448201526d29a0aaa1a2903a3930b739b332b960911b6064820152600782900b6024820152608401610dd3565b8261129b81611d67565b600080546004805460405163eca3691760e01b81529498509294506001600160a01b039182169363eca36917936112da931691339130918e9101611d3a565b6020604051808303816000875af11580156112f9573d6000803e3d6000fd5b505050506040513d601f19601f8201168201806040525081019061131d91906119ac565b9050600781900b601614611370576040805163016146c160e61b81526004810191909152600d60448201526c2aa9a221903a3930b739b332b960991b6064820152600782900b6024820152608401610dd3565b8361137a81611d67565b6000805460055460405163eca3691760e01b81529398509193506001600160a01b039081169263eca36917926113ba921690339030908d90600401611d3a565b6020604051808303816000875af11580156113d9573d6000803e3d6000fd5b505050506040513d601f19601f820116820180604052508101906113fd91906119ac565b9050600781900b60161461144f576040805163016146c160e61b81526004810191909152600c60448201526b2520a6903a3930b739b332b960a11b6064820152600782900b6024820152608401610dd3565b8461145981611d67565b6000805460065460405163eca3691760e01b81529399509193506001600160a01b039081169263eca3691792611499921690339030908d90600401611d3a565b6020604051808303816000875af11580156114b8573d6000803e3d6000fd5b505050506040513d601f19601f820116820180604052508101906114dc91906119ac565b9050600781900b601614611534576040805163016146c160e61b8152600481019190915260126044820152712422a0a229aa20a92a103a3930b739b332b960711b6064820152600782900b6024820152608401610dd3565b8561153e81611d67565b6040518181529097503391507ffb6c065aedb9f80db2a7c600754a071d9b16cdee761f37b7ecf1f3e68578b3229060200160405180910390a260408051348152602081018d90529081018b9052606081018a90526080810189905260a0810188905233907f46e94826ddc11785b987fda075f8564a41ac10326680fcd384e60b2064a7fab89060c00160405180910390a25050505050505050505050565b60006115ea6008600a611b5f565b6115f49083611a3c565b604080518481526020810183905291925033917fef8f5be9f6e9b6cafe9795e6972d99452d92fdfca92995050eaa9cbbdcd627dc910160405180910390a2604080516000808252602082019092528161165d565b60608152602001906001900390816116485790505b506000805460015460405163707a02cd60e11b8152939450919283926001600160a01b039283169263e0f4059a9261169f929091169088908890600401611d96565b6000604051808303816000875af11580156116be573d6000803e3d6000fd5b505050506040513d6000823e601f3d908101601f191682016040526116e69190810190611e42565b5060408051600784810b825283900b60208201529294509092507feeb8b94f7bf115b59d1437edf60f2f07656a1eb52234a1835d90480777c5762c910160405180910390a1600782900b601614611778576040805163016146c160e61b81526004810191909152600960448201526813165396081b5a5b9d60ba1b6064820152600783900b6024820152608401610dd3565b600854604080516001600160a01b03909216825233602083015281018590527f883dd34324c5e33f1ce994b8f1652ab425a78c77305f00a08660b05245ed17b39060600160405180910390a16000805460015460085460405163eca3691760e01b81526001600160a01b039384169363eca3691793611804939082169291169033908b90600401611d3a565b6020604051808303816000875af1158015611823573d6000803e3d6000fd5b505050506040513d601f19601f8201168201806040525081019061184791906119ac565b604051600782900b81529091507fdba6742b403f91ba4bdac157a4315ca9e09412ea4375f6ebbd570c7676c11f479060200160405180910390a1600781900b6016146118e2576040805163016146c160e61b81526004810191909152601b60448201527f4c594e58207472616e736665722066726f6d20747265617375727900000000006064820152600782900b6024820152608401610dd3565b60405186815233907f465927a4840d7c7d6aa087bb368fe25bed2f96a7de450603903e0331dec0dbb59060200160405180910390a2505050505050565b60006020828403121561193157600080fd5b5035919050565b60008060008060008060c0878903121561195157600080fd5b505084359660208601359650604086013595606081013595506080810135945060a0013592509050565b6001600160a01b0392831681529116602082015260400190565b8051600781900b81146119a757600080fd5b919050565b6000602082840312156119be57600080fd5b6119c782611995565b9392505050565b6001600160a01b0392909216825260070b602082015260400190565b600080604083850312156119fd57600080fd5b611a0683611995565b915060208301518015158114611a1b57600080fd5b809150509250929050565b634e487b7160e01b600052601160045260246000fd5b8082028115828204841417611a5357611a53611a26565b92915050565b600082611a7657634e487b7160e01b600052601260045260246000fd5b500490565b600181815b80851115611ab6578160001904821115611a9c57611a9c611a26565b80851615611aa957918102915b93841c9390800290611a80565b509250929050565b600082611acd57506001611a53565b81611ada57506000611a53565b8160018114611af05760028114611afa57611b16565b6001915050611a53565b60ff841115611b0b57611b0b611a26565b50506001821b611a53565b5060208310610133831016604e8410600b8410161715611b39575081810a611a53565b611b438383611a7b565b8060001904821115611b5757611b57611a26565b029392505050565b60006119c760ff841683611abe565b602081526000611a536020830160048152635742544360e01b602082015260400190565b602081526000611a53602083016005815264534155434560d81b602082015260400190565b602081526000611a536020830160048152635553444360e01b602082015260400190565b602081526000611a536020830160038152624a414d60e81b602082015260400190565b602081526000611a536020830160098152681211505114d510549560ba1b602082015260400190565b60008060008060008060c08789031215611c4057600080fd5b865195506020870151945060408701519350606087015192506080870151915060a087015190509295509295509295565b606081526000611c956060830160048152635742544360e01b602082015260400190565b6020830194909452506040015290565b606081526000611c95606083016005815264534155434560d81b602082015260400190565b606081526000611c956060830160048152635553444360e01b602082015260400190565b606081526000611c956060830160038152624a414d60e81b602082015260400190565b606081526000611c956060830160098152681211505114d510549560ba1b602082015260400190565b6001600160a01b03948516815292841660208401529216604082015260079190910b606082015260800190565b600060018201611d7957611d79611a26565b5060010190565b634e487b7160e01b600052604160045260246000fd5b60006060820160018060a01b038616835260208560070b818501526060604085015281855180845260808601915060808160051b87010193508287016000805b83811015611e3257888703607f1901855282518051808952835b81811015611e0b578281018901518a82018a01528801611df0565b508881018801849052601f01601f1916909701860196509385019391850191600101611dd6565b50949a9950505050505050505050565b600080600060608486031215611e5757600080fd5b611e6084611995565b92506020611e6f818601611995565b9250604085015167ffffffffffffffff80821115611e8c57600080fd5b818701915087601f830112611ea057600080fd5b815181811115611eb257611eb2611d80565b8060051b604051601f19603f83011681018181108582111715611ed757611ed7611d80565b60405291825284820192508381018501918a831115611ef557600080fd5b938501935b82851015611f1a57611f0b85611995565b84529385019392850192611efa565b809650505050505050925092509256fe6c452a6a0f6c8613bd46d4bd9a6192b0904a3f33a64c294ba553582502dfd770a26469706673582212207b09384d3cdfbfe6c46b11767c9f81cc5542de3c51ba3fc916e8eb020e6e684c64736f6c63430008130033",
  "linkReferences": {},
  "deployedLinkReferences": {}
}