{
  "_format": "hh-sol-artifact-1",
  "contractName": "MockHederaTokenService",
  "sourceName": "app/contracts/MockHederaTokenService.sol",
  "abi": [
    {
      "inputs": [],
      "stateMutability": "nonpayable",
      "type": "constructor"
    },
    {
      "anonymous": false,
      "inputs": [
        {
          "indexed": false,
          "internalType": "address",
          "name": "token",
          "type": "address"
        },
        {
          "indexed": false,
          "internalType": "address",
          "name": "account",
          "type": "address"
        },
        {
          "indexed": false,
          "internalType": "int64",
          "name": "responseCode",
          "type": "int64"
        }
      ],
      "name": "TokenAssociated",
      "type": "event"
    },
    {
      "anonymous": false,
      "inputs": [
        {
          "indexed": false,
          "internalType": "address",
          "name": "tokenAddress",
          "type": "address"
        },
        {
          "indexed": false,
          "internalType": "int64",
          "name": "responseCode",
          "type": "int64"
        }
      ],
      "name": "TokenCreated",
      "type": "event"
    },
    {
      "anonymous": false,
      "inputs": [
        {
          "indexed": false,
          "internalType": "address",
          "name": "token",
          "type": "address"
        },
        {
          "indexed": false,
          "internalType": "uint256",
          "name": "amount",
          "type": "uint256"
        },
        {
          "indexed": false,
          "internalType": "int64",
          "name": "responseCode",
          "type": "int64"
        }
      ],
      "name": "TokenMinted",
      "type": "event"
    },
    {
      "anonymous": false,
      "inputs": [
        {
          "indexed": false,
          "internalType": "address",
          "name": "token",
          "type": "address"
        },
        {
          "indexed": false,
          "internalType": "address",
          "name": "from",
          "type": "address"
        },
        {
          "indexed": false,
          "internalType": "address",
          "name": "to",
          "type": "address"
        },
        {
          "indexed": false,
          "internalType": "uint256",
          "name": "amount",
          "type": "uint256"
        },
        {
          "indexed": false,
          "internalType": "int64",
          "name": "responseCode",
          "type": "int64"
        }
      ],
      "name": "TokenTransferred",
      "type": "event"
    },
    {
      "inputs": [
        {
          "internalType": "address",
          "name": "token",
          "type": "address"
        },
        {
          "internalType": "address",
          "name": "owner",
          "type": "address"
        },
        {
          "internalType": "address",
          "name": "spender",
          "type": "address"
        }
      ],
      "name": "allowance",
      "outputs": [
        {
          "internalType": "uint256",
          "name": "",
          "type": "uint256"
        }
      ],
      "stateMutability": "view",
      "type": "function"
    },
    {
      "inputs": [
        {
          "internalType": "address",
          "name": "account",
          "type": "address"
        },
        {
          "internalType": "address",
          "name": "token",
          "type": "address"
        }
      ],
      "name": "associateToken",
      "outputs": [
        {
          "internalType": "int64",
          "name": "",
          "type": "int64"
        }
      ],
      "stateMutability": "nonpayable",
      "type": "function"
    },
    {
      "inputs": [
        {
          "internalType": "address",
          "name": "token",
          "type": "address"
        },
        {
          "internalType": "address",
          "name": "account",
          "type": "address"
        }
      ],
      "name": "balanceOf",
      "outputs": [
        {
          "internalType": "uint256",
          "name": "",
          "type": "uint256"
        }
      ],
      "stateMutability": "view",
      "type": "function"
    },
    {
      "inputs": [
        {
          "internalType": "address",
          "name": "token",
          "type": "address"
        },
        {
          "internalType": "uint256",
          "name": "amount",
          "type": "uint256"
        },
        {
          "internalType": "bytes[]",
          "name": "",
          "type": "bytes[]"
        }
      ],
      "name": "burnToken",
      "outputs": [
        {
          "internalType": "int64",
          "name": "",
          "type": "int64"
        }
      ],
      "stateMutability": "nonpayable",
      "type": "function"
    },
    {
      "inputs": [],
      "name": "clearTransferResults",
      "outputs": [],
      "stateMutability": "nonpayable",
      "type": "function"
    },
    {
      "inputs": [
        {
          "components": [
            {
              "internalType": "string",
              "name": "name",
              "type": "string"
            },
            {
              "internalType": "string",
              "name": "symbol",
              "type": "string"
            },
            {
              "internalType": "address",
              "name": "treasury",
              "type": "address"
            },
            {
              "internalType": "string",
              "name": "memo",
              "type": "string"
            },
            {
              "internalType": "bool",
              "name": "supplyType",
              "type": "bool"
            },
            {
              "internalType": "uint32",
              "name": "maxSupply",
              "type": "uint32"
            },
            {
              "internalType": "bool",
              "name": "freezeDefault",
              "type": "bool"
            },
            {
              "internalType": "address[]",
              "name": "freezeKey",
              "type": "address[]"
            },
            {
              "internalType": "address[]",
              "name": "wipeKey",
              "type": "address[]"
            },
            {
              "internalType": "address[]",
              "name": "supplyKey",
              "type": "address[]"
            },
            {
              "internalType": "address[]",
              "name": "adminKey",
              "type": "address[]"
            },
            {
              "internalType": "address[]",
              "name": "kycKey",
              "type": "address[]"
            },
            {
              "internalType": "uint8",
              "name": "decimals",
              "type": "uint8"
            },
            {
              "internalType": "address",
              "name": "autoRenewAccount",
              "type": "address"
            },
            {
              "internalType": "uint32",
              "name": "autoRenewPeriod",
              "type": "uint32"
            }
          ],
          "internalType": "struct IHederaTokenService.HederaToken",
          "name": "token",
          "type": "tuple"
        },
        {
          "internalType": "uint256",
          "name": "initialTotalSupply",
          "type": "uint256"
        },
        {
          "internalType": "uint8[]",
          "name": "keys",
          "type": "uint8[]"
        },
        {
          "internalType": "address[]",
          "name": "keyAddresses",
          "type": "address[]"
        }
      ],
      "name": "createToken",
      "outputs": [
        {
          "internalType": "int64",
          "name": "responseCode",
          "type": "int64"
        },
        {
          "internalType": "address",
          "name": "tokenAddress",
          "type": "address"
        }
      ],
      "stateMutability": "payable",
      "type": "function"
    },
    {
      "inputs": [
        {
          "internalType": "address",
          "name": "account",
          "type": "address"
        },
        {
          "internalType": "address",
          "name": "token",
          "type": "address"
        }
      ],
      "name": "disassociateToken",
      "outputs": [
        {
          "internalType": "int64",
          "name": "",
          "type": "int64"
        }
      ],
      "stateMutability": "nonpayable",
      "type": "function"
    },
    {
      "inputs": [
        {
          "internalType": "address",
          "name": "tokenAddress",
          "type": "address"
        }
      ],
      "name": "getTokenInfo",
      "outputs": [
        {
          "components": [
            {
              "internalType": "string",
              "name": "name",
              "type": "string"
            },
            {
              "internalType": "string",
              "name": "symbol",
              "type": "string"
            },
            {
              "internalType": "address",
              "name": "treasury",
              "type": "address"
            },
            {
              "internalType": "string",
              "name": "memo",
              "type": "string"
            },
            {
              "internalType": "bool",
              "name": "supplyType",
              "type": "bool"
            },
            {
              "internalType": "uint32",
              "name": "maxSupply",
              "type": "uint32"
            },
            {
              "internalType": "bool",
              "name": "freezeDefault",
              "type": "bool"
            },
            {
              "internalType": "address[]",
              "name": "freezeKey",
              "type": "address[]"
            },
            {
              "internalType": "address[]",
              "name": "wipeKey",
              "type": "address[]"
            },
            {
              "internalType": "address[]",
              "name": "supplyKey",
              "type": "address[]"
            },
            {
              "internalType": "address[]",
              "name": "adminKey",
              "type": "address[]"
            },
            {
              "internalType": "address[]",
              "name": "kycKey",
              "type": "address[]"
            },
            {
              "internalType": "uint8",
              "name": "decimals",
              "type": "uint8"
            },
            {
              "internalType": "address",
              "name": "autoRenewAccount",
              "type": "address"
            },
            {
              "internalType": "uint32",
              "name": "autoRenewPeriod",
              "type": "uint32"
            }
          ],
          "internalType": "struct IHederaTokenService.HederaToken",
          "name": "",
          "type": "tuple"
        }
      ],
      "stateMutability": "view",
      "type": "function"
    },
    {
      "inputs": [
        {
          "internalType": "address",
          "name": "token",
          "type": "address"
        },
        {
          "internalType": "address",
          "name": "account",
          "type": "address"
        }
      ],
      "name": "isSupplyKey",
      "outputs": [
        {
          "internalType": "bool",
          "name": "",
          "type": "bool"
        }
      ],
      "stateMutability": "view",
      "type": "function"
    },
    {
      "inputs": [
        {
          "internalType": "address",
          "name": "token",
          "type": "address"
        },
        {
          "internalType": "address",
          "name": "account",
          "type": "address"
        }
      ],
      "name": "isTokenAssociated",
      "outputs": [
        {
          "internalType": "bool",
          "name": "",
          "type": "bool"
        }
      ],
      "stateMutability": "view",
      "type": "function"
    },
    {
      "inputs": [
        {
          "internalType": "address",
          "name": "token",
          "type": "address"
        },
        {
          "internalType": "uint256",
          "name": "amount",
          "type": "uint256"
        },
        {
          "internalType": "bytes[]",
          "name": "",
          "type": "bytes[]"
        }
      ],
      "name": "mintToken",
      "outputs": [
        {
          "internalType": "int64",
          "name": "",
          "type": "int64"
        }
      ],
      "stateMutability": "nonpayable",
      "type": "function"
    },
    {
      "inputs": [
        {
          "internalType": "address",
          "name": "token",
          "type": "address"
        },
        {
          "internalType": "address",
          "name": "owner",
          "type": "address"
        },
        {
          "internalType": "address",
          "name": "spender",
          "type": "address"
        },
        {
          "internalType": "uint256",
          "name": "amount",
          "type": "uint256"
        }
      ],
      "name": "setAllowance",
      "outputs": [],
      "stateMutability": "nonpayable",
      "type": "function"
    },
    {
      "inputs": [
        {
          "internalType": "address",
          "name": "token",
          "type": "address"
        },
        {
          "internalType": "address",
          "name": "account",
          "type": "address"
        },
        {
          "internalType": "uint256",
          "name": "balance",
          "type": "uint256"
        }
      ],
      "name": "setBalance",
      "outputs": [],
      "stateMutability": "nonpayable",
      "type": "function"
    },
    {
      "inputs": [
        {
          "internalType": "int64",
          "name": "responseCode",
          "type": "int64"
        },
        {
          "internalType": "address",
          "name": "tokenAddress",
          "type": "address"
        }
      ],
      "name": "setMockedCreateTokenResponse",
      "outputs": [],
      "stateMutability": "nonpayable",
      "type": "function"
    },
    {
      "inputs": [
        {
          "internalType": "address",
          "name": "token",
          "type": "address"
        },
        {
          "internalType": "address",
          "name": "holder",
          "type": "address"
        }
      ],
      "name": "setSupplyKeyHolder",
      "outputs": [],
      "stateMutability": "nonpayable",
      "type": "function"
    },
    {
      "inputs": [
        {
          "internalType": "address",
          "name": "token",
          "type": "address"
        },
        {
          "internalType": "address",
          "name": "account",
          "type": "address"
        },
        {
          "internalType": "bool",
          "name": "isAssociated",
          "type": "bool"
        }
      ],
      "name": "setTokenAssociation",
      "outputs": [],
      "stateMutability": "nonpayable",
      "type": "function"
    },
    {
      "inputs": [
        {
          "internalType": "address",
          "name": "token",
          "type": "address"
        },
        {
          "internalType": "int64",
          "name": "result",
          "type": "int64"
        }
      ],
      "name": "setTransferResult",
      "outputs": [],
      "stateMutability": "nonpayable",
      "type": "function"
    },
    {
      "inputs": [
        {
          "internalType": "address",
          "name": "tokenAddress",
          "type": "address"
        },
        {
          "internalType": "address",
          "name": "sauceTokenAddress",
          "type": "address"
        },
        {
          "internalType": "address",
          "name": "clxyTokenAddress",
          "type": "address"
        },
        {
          "internalType": "address",
          "name": "userAddress",
          "type": "address"
        }
      ],
      "name": "setupTokens",
      "outputs": [],
      "stateMutability": "nonpayable",
      "type": "function"
    },
    {
      "inputs": [
        {
          "internalType": "address",
          "name": "token",
          "type": "address"
        },
        {
          "internalType": "address",
          "name": "sender",
          "type": "address"
        },
        {
          "internalType": "address",
          "name": "recipient",
          "type": "address"
        },
        {
          "internalType": "uint256",
          "name": "amount",
          "type": "uint256"
        }
      ],
      "name": "transferToken",
      "outputs": [
        {
          "internalType": "int64",
          "name": "",
          "type": "int64"
        }
      ],
      "stateMutability": "nonpayable",
      "type": "function"
    }
  ],
  "bytecode": "0x608060405234801561001057600080fd5b50600680546001600160e01b0319169055611ee4806100306000396000f3fe6080604052600436106101145760003560e01c8063725fe8a4116100a0578063bed2545611610064578063bed254561461045f578063c097494614610494578063ec12dc021461054f578063f3fc76fa1461056f578063f7888aec1461058f57600080fd5b8063725fe8a414610320578063927da10514610369578063a707037314610397578063ac9e6d7a146103e7578063b5c9cbbe1461042757600080fd5b806323408f4f116100e757806323408f4f1461020c5780632c54de4f146102625780633fda89411461029557806349146bde146102b55780635c34c68a146102d557600080fd5b8063034f1ac2146101195780631957457d1461016c5780631f69565f146101815780632175d776146101b7575b600080fd5b34801561012557600080fd5b5061016a610134366004611370565b600680546001600160a01b03909216600160401b026001600160e01b031990921667ffffffffffffffff90931692909217179055565b005b34801561017857600080fd5b5061016a6105c7565b34801561018d57600080fd5b506101a161019c3660046113a3565b61060f565b6040516101ae9190611448565b60405180910390f35b3480156101c357600080fd5b5061016a6101d23660046115ed565b6001600160a01b03928316600090815260016020908152604080832094909516825292909252919020805460ff1916911515919091179055565b34801561021857600080fd5b5061016a610227366004611630565b6001600160a01b03919091166000908152600460205260409020805467ffffffffffffffff191667ffffffffffffffff909216919091179055565b34801561026e57600080fd5b5061028261027d36600461165a565b610ad5565b60405160079190910b81526020016101ae565b3480156102a157600080fd5b506102826102b03660046116a5565b610bea565b3480156102c157600080fd5b506102826102d03660046116a5565b610c20565b3480156102e157600080fd5b506103106102f03660046116a5565b6001600160a01b031660009081526020819052604090205460ff16919050565b60405190151581526020016101ae565b34801561032c57600080fd5b5061031061033b3660046116a5565b6001600160a01b03918216600090815260016020908152604080832093909416825291909152205460ff1690565b34801561037557600080fd5b506103896103843660046116c1565b610cbb565b6040519081526020016101ae565b3480156103a357600080fd5b5061016a6103b236600461165a565b6001600160a01b0393841660009081526003602090815260408083209587168352948152848220939095168152919093522055565b3480156103f357600080fd5b5061016a6104023660046116a5565b6001600160a01b03166000908152602081905260409020805460ff1916600117905550565b34801561043357600080fd5b5061016a6104423660046116fb565b6001600160a01b0390911660009081526002602052604090205550565b61047261046d36600461193d565b610cf3565b6040805160079390930b83526001600160a01b039091166020830152016101ae565b3480156104a057600080fd5b5061016a6104af366004611b7c565b6001600160a01b03938416600090815260016020818152604080842030808652818452828620805460ff199081168717909155988a16865284845282862081875280855283872080548b1687179055978a16865284845282862090865280845282862080548a1686179055959098168452968152868320805487168317905593845285822080548616821790559190925292902080549091169091179055565b34801561055b57600080fd5b5061028261056a366004611bd0565b611201565b34801561057b57600080fd5b5061028261058a366004611bd0565b61127a565b34801561059b57600080fd5b506103896105aa3660046116a5565b6001600160a01b0316600090815260026020526040902054919050565b60005b606481101561060c576001600160a01b0381166000908152600460205260409020805467ffffffffffffffff191690558061060481611cc9565b9150506105ca565b50565b604080516101e08101825260608082526020820181905260009282018390528082018190526080820183905260a0820183905260c0820183905260e0820181905261010082018190526101208201819052610140820181905261016082015261018081018290526101a081018290526101c08101919091526001600160a01b0382166000908152600560205260409081902081516101e081019092528054829082906106ba90611ce2565b80601f01602080910402602001604051908101604052809291908181526020018280546106e690611ce2565b80156107335780601f1061070857610100808354040283529160200191610733565b820191906000526020600020905b81548152906001019060200180831161071657829003601f168201915b5050505050815260200160018201805461074c90611ce2565b80601f016020809104026020016040519081016040528092919081815260200182805461077890611ce2565b80156107c55780601f1061079a576101008083540402835291602001916107c5565b820191906000526020600020905b8154815290600101906020018083116107a857829003601f168201915b505050918352505060028201546001600160a01b031660208201526003820180546040909201916107f590611ce2565b80601f016020809104026020016040519081016040528092919081815260200182805461082190611ce2565b801561086e5780601f106108435761010080835404028352916020019161086e565b820191906000526020600020905b81548152906001019060200180831161085157829003601f168201915b5050509183525050600482015460ff808216151560208085019190915263ffffffff6101008404166040808601919091526501000000000090930490911615156060840152600584018054835181840281018401909452808452608090940193909183018282801561090957602002820191906000526020600020905b81546001600160a01b031681526001909101906020018083116108eb575b505050505081526020016006820180548060200260200160405190810160405280929190818152602001828054801561096b57602002820191906000526020600020905b81546001600160a01b0316815260019091019060200180831161094d575b50505050508152602001600782018054806020026020016040519081016040528092919081815260200182805480156109cd57602002820191906000526020600020905b81546001600160a01b031681526001909101906020018083116109af575b5050505050815260200160088201805480602002602001604051908101604052809291908181526020018280548015610a2f57602002820191906000526020600020905b81546001600160a01b03168152600190910190602001808311610a11575b5050505050815260200160098201805480602002602001604051908101604052809291908181526020018280548015610a9157602002820191906000526020600020905b81546001600160a01b03168152600190910190602001808311610a73575b5050509183525050600a919091015460ff8116602083015261010081046001600160a01b03166040830152600160a81b900463ffffffff1660609091015292915050565b6001600160a01b03841660009081526004602052604081205460070b8015610afe579050610be2565b6001600160a01b038516600090815260026020526040902054831115610b2957600019915050610be2565b6001600160a01b03851660009081526002602052604081208054859290610b51908490611d1c565b90915550506001600160a01b03841660009081526002602052604081208054859290610b7e908490611d2f565b9091555050604080516001600160a01b0388811682528781166020830152861681830152606081018590526000608082015290517f83d02cf5278a4d35d24e9857c57a4ab914f54fd6e5817b6c9a058ba03bfcbd639181900360a00190a160009150505b949350505050565b6001600160a01b0380821660009081526001602090815260408083209386168352929052908120805460ff191690555b92915050565b6001600160a01b03808216600090815260016020908152604080832093861683529290529081205460ff1615610c595750600019610c1a565b6001600160a01b0380831660009081526001602081815260408084209488168452939052828220805460ff191690911790559051600080516020611e8f83398151915291610caa9185918791611d42565b60405180910390a150600092915050565b6001600160a01b03808416600090815260036020908152604080832086851684528252808320938516835292905220545b9392505050565b600654600090819060070b15610d725760065460408051600160401b83046001600160a01b0316815260079290920b60208301527ff2bd9ee0f805f0400eb427de41ff42ecbb8d13cd293bd1289a6b378532ad5d16910160405180910390a15050600654600781900b90600160401b90046001600160a01b03166111f8565b600654600160401b90046001600160a01b031615610da257600654600160401b90046001600160a01b0316610de3565b604080514260208201526bffffffffffffffffffffffff193360601b16918101919091526054016040516020818303038152906040528051906020012060001c5b6001600160a01b0381166000908152600560205260409020875191925087918190610e0e9082611db8565b5060208201516001820190610e239082611db8565b5060408201516002820180546001600160a01b0319166001600160a01b0390921691909117905560608201516003820190610e5e9082611db8565b50608082015160048201805460a085015160c08601511515650100000000000265ff00000000001963ffffffff9092166101000264ffffffff00199515159590951664ffffffffff1990931692909217939093179290921691909117905560e08201518051610ed79160058401916020909101906112c8565b506101008201518051610ef49160068401916020909101906112c8565b506101208201518051610f119160078401916020909101906112c8565b506101408201518051610f2e9160088401916020909101906112c8565b506101608201518051610f4b9160098401916020909101906112c8565b50610180820151600a9190910180546101a08401516101c09094015160ff9093166001600160a81b0319909116176101006001600160a01b03948516021763ffffffff60a81b1916600160a81b63ffffffff9093169290920291909117905581811660009081526001602081815260408084208b820180519096168552909152808320805460ff191690921790915591519151600080516020611e8f83398151915292610ff9928592611d42565b60405180910390a18415611067576040868101516001600160a01b039081166000908152600260209081528382208990558351928516835282018890528183015290517f076afab2d1434e9659d29a63a3220a98ef8853378959685125f3c66bc4f90b809181900360600190a15b60005b84518110156111005784818151811061108557611085611e78565b602002602001015160ff166004036110ee5760016000808684815181106110ae576110ae611e78565b60200260200101516001600160a01b03166001600160a01b0316815260200190815260200160002060006101000a81548160ff0219169083151502179055505b806110f881611cc9565b91505061106a565b506001600160a01b0381166000908152600160208181526040808420308086529252808420805460ff19169093179092559051600080516020611e8f83398151915292611151928592909190611d42565b60405180910390a16001600160a01b0381166000908152600160208181526040808420338086529252808420805460ff19169093179092559051600080516020611e8f833981519152926111a9928592909190611d42565b60405180910390a1604080516001600160a01b0383168152600060208201527ff2bd9ee0f805f0400eb427de41ff42ecbb8d13cd293bd1289a6b378532ad5d16910160405180910390a1600091505b94509492505050565b33600090815260026020526040812080548491908390611222908490611d2f565b9091555050604080516001600160a01b03861681526020810185905260008183015290517f076afab2d1434e9659d29a63a3220a98ef8853378959685125f3c66bc4f90b809181900360600190a15060009392505050565b3360009081526002602052604081205483111561129a5750600019610cec565b33600090815260026020526040812080548592906112b9908490611d1c565b90915550600095945050505050565b82805482825590600052602060002090810192821561131d579160200282015b8281111561131d57825182546001600160a01b0319166001600160a01b039091161782556020909201916001909101906112e8565b5061132992915061132d565b5090565b5b80821115611329576000815560010161132e565b8035600781900b811461135457600080fd5b919050565b80356001600160a01b038116811461135457600080fd5b6000806040838503121561138357600080fd5b61138c83611342565b915061139a60208401611359565b90509250929050565b6000602082840312156113b557600080fd5b610cec82611359565b6000815180845260005b818110156113e4576020818501810151868301820152016113c8565b506000602082860101526020601f19601f83011685010191505092915050565b600081518084526020808501945080840160005b8381101561143d5781516001600160a01b031687529582019590820190600101611418565b509495945050505050565b60208152600082516101e08060208501526114676102008501836113be565b91506020850151601f198086850301604087015261148584836113be565b9350604087015191506114a360608701836001600160a01b03169052565b60608701519150808685030160808701526114be84836113be565b9350608087015191506114d560a087018315159052565b60a087015163ffffffff811660c0880152915060c087015180151560e0880152915060e087015191506101008187860301818801526115148584611404565b9450808801519250506101208187860301818801526115338584611404565b9450808801519250506101408187860301818801526115528584611404565b9450808801519250506101608187860301818801526115718584611404565b9450808801519250506101808187860301818801526115908584611404565b945080880151925050506101a06115ab8187018360ff169052565b86015190506101c06115c7868201836001600160a01b03169052565b9095015163ffffffff1693019290925250919050565b8035801515811461135457600080fd5b60008060006060848603121561160257600080fd5b61160b84611359565b925061161960208501611359565b9150611627604085016115dd565b90509250925092565b6000806040838503121561164357600080fd5b61164c83611359565b915061139a60208401611342565b6000806000806080858703121561167057600080fd5b61167985611359565b935061168760208601611359565b925061169560408601611359565b9396929550929360600135925050565b600080604083850312156116b857600080fd5b61138c83611359565b6000806000606084860312156116d657600080fd5b6116df84611359565b92506116ed60208501611359565b915061162760408501611359565b60008060006060848603121561171057600080fd5b61171984611359565b925061172760208501611359565b9150604084013590509250925092565b634e487b7160e01b600052604160045260246000fd5b6040516101e0810167ffffffffffffffff8111828210171561177157611771611737565b60405290565b604051601f8201601f1916810167ffffffffffffffff811182821017156117a0576117a0611737565b604052919050565b600067ffffffffffffffff8311156117c2576117c2611737565b6117d5601f8401601f1916602001611777565b90508281528383830111156117e957600080fd5b828260208301376000602084830101529392505050565b600082601f83011261181157600080fd5b610cec838335602085016117a8565b803563ffffffff8116811461135457600080fd5b600067ffffffffffffffff82111561184e5761184e611737565b5060051b60200190565b600082601f83011261186957600080fd5b8135602061187e61187983611834565b611777565b82815260059290921b8401810191818101908684111561189d57600080fd5b8286015b848110156118bf576118b281611359565b83529183019183016118a1565b509695505050505050565b803560ff8116811461135457600080fd5b600082601f8301126118ec57600080fd5b813560206118fc61187983611834565b82815260059290921b8401810191818101908684111561191b57600080fd5b8286015b848110156118bf57611930816118ca565b835291830191830161191f565b6000806000806080858703121561195357600080fd5b843567ffffffffffffffff8082111561196b57600080fd5b908601906101e0828903121561198057600080fd5b61198861174d565b82358281111561199757600080fd5b6119a38a828601611800565b8252506020830135828111156119b857600080fd5b6119c48a828601611800565b6020830152506119d660408401611359565b60408201526060830135828111156119ed57600080fd5b6119f98a828601611800565b606083015250611a0b608084016115dd565b6080820152611a1c60a08401611820565b60a0820152611a2d60c084016115dd565b60c082015260e083013582811115611a4457600080fd5b611a508a828601611858565b60e0830152506101008084013583811115611a6a57600080fd5b611a768b828701611858565b8284015250506101208084013583811115611a9057600080fd5b611a9c8b828701611858565b8284015250506101408084013583811115611ab657600080fd5b611ac28b828701611858565b8284015250506101608084013583811115611adc57600080fd5b611ae88b828701611858565b828401525050610180611afc8185016118ca565b908201526101a0611b0e848201611359565b908201526101c0611b20848201611820565b908201529550602087013594506040870135915080821115611b4157600080fd5b611b4d888389016118db565b93506060870135915080821115611b6357600080fd5b50611b7087828801611858565b91505092959194509250565b60008060008060808587031215611b9257600080fd5b611b9b85611359565b9350611ba960208601611359565b9250611bb760408601611359565b9150611bc560608601611359565b905092959194509250565b600080600060608486031215611be557600080fd5b611bee84611359565b9250602080850135925060408086013567ffffffffffffffff80821115611c1457600080fd5b818801915088601f830112611c2857600080fd5b8135611c3661187982611834565b81815260059190911b8301850190858101908b831115611c5557600080fd5b8685015b83811015611ca157803585811115611c715760008081fd5b8601603f81018e13611c835760008081fd5b611c938e8a8301358a84016117a8565b845250918701918701611c59565b50809750505050505050509250925092565b634e487b7160e01b600052601160045260246000fd5b600060018201611cdb57611cdb611cb3565b5060010190565b600181811c90821680611cf657607f821691505b602082108103611d1657634e487b7160e01b600052602260045260246000fd5b50919050565b81810381811115610c1a57610c1a611cb3565b80820180821115610c1a57610c1a611cb3565b6001600160a01b03938416815291909216602082015260079190910b604082015260600190565b601f821115611db357600081815260208120601f850160051c81016020861015611d905750805b601f850160051c820191505b81811015611daf57828155600101611d9c565b5050505b505050565b815167ffffffffffffffff811115611dd257611dd2611737565b611de681611de08454611ce2565b84611d69565b602080601f831160018114611e1b5760008415611e035750858301515b600019600386901b1c1916600185901b178555611daf565b600085815260208120601f198616915b82811015611e4a57888601518255948401946001909101908401611e2b565b5085821015611e685787850151600019600388901b60f8161c191681555b5050505050600190811b01905550565b634e487b7160e01b600052603260045260246000fdfeb73c45028e15765b57e1aa21b09d3aa6a33894ea5278e1d103363f984b3a2447a26469706673582212207c9edbccfd2aef7359d46eef7ee084c07942b51d0170f85ad80962169dae621264736f6c63430008120033",
  "linkReferences": {},
  "deployedLinkReferences": {}
}