{
  "_format": "hh-sol-artifact-1",
  "contractName": "MockHederaTokenService",
  "sourceName": "app/contracts/MockHederaTokenService.sol",
  "abi": [
    {
      "inputs": [],
      "stateMutability": "nonpayable",
      "type": "constructor"
    },
    {
      "anonymous": false,
      "inputs": [
        {
          "indexed": false,
          "internalType": "address",
          "name": "token",
          "type": "address"
        },
        {
          "indexed": false,
          "internalType": "address",
          "name": "account",
          "type": "address"
        },
        {
          "indexed": false,
          "internalType": "int64",
          "name": "responseCode",
          "type": "int64"
        }
      ],
      "name": "TokenAssociated",
      "type": "event"
    },
    {
      "anonymous": false,
      "inputs": [
        {
          "indexed": false,
          "internalType": "address",
          "name": "tokenAddress",
          "type": "address"
        },
        {
          "indexed": false,
          "internalType": "int64",
          "name": "responseCode",
          "type": "int64"
        }
      ],
      "name": "TokenCreated",
      "type": "event"
    },
    {
      "anonymous": false,
      "inputs": [
        {
          "indexed": false,
          "internalType": "address",
          "name": "token",
          "type": "address"
        },
        {
          "indexed": false,
          "internalType": "uint256",
          "name": "amount",
          "type": "uint256"
        },
        {
          "indexed": false,
          "internalType": "int64",
          "name": "responseCode",
          "type": "int64"
        }
      ],
      "name": "TokenMinted",
      "type": "event"
    },
    {
      "anonymous": false,
      "inputs": [
        {
          "indexed": false,
          "internalType": "address",
          "name": "token",
          "type": "address"
        },
        {
          "indexed": false,
          "internalType": "address",
          "name": "from",
          "type": "address"
        },
        {
          "indexed": false,
          "internalType": "address",
          "name": "to",
          "type": "address"
        },
        {
          "indexed": false,
          "internalType": "uint256",
          "name": "amount",
          "type": "uint256"
        },
        {
          "indexed": false,
          "internalType": "int64",
          "name": "responseCode",
          "type": "int64"
        }
      ],
      "name": "TokenTransferred",
      "type": "event"
    },
    {
      "inputs": [
        {
          "components": [
            {
              "internalType": "address",
              "name": "token",
              "type": "address"
            },
            {
              "components": [
                {
                  "internalType": "address",
                  "name": "accountID",
                  "type": "address"
                },
                {
                  "internalType": "int64",
                  "name": "amount",
                  "type": "int64"
                },
                {
                  "internalType": "bool",
                  "name": "isApproval",
                  "type": "bool"
                }
              ],
              "internalType": "struct IHederaTokenService.AccountAmount[]",
              "name": "transfers",
              "type": "tuple[]"
            },
            {
              "components": [
                {
                  "internalType": "address",
                  "name": "senderAccountID",
                  "type": "address"
                },
                {
                  "internalType": "address",
                  "name": "receiverAccountID",
                  "type": "address"
                },
                {
                  "internalType": "int64",
                  "name": "serialNumber",
                  "type": "int64"
                },
                {
                  "internalType": "bool",
                  "name": "isApproval",
                  "type": "bool"
                }
              ],
              "internalType": "struct IHederaTokenService.NftTransfer[]",
              "name": "nftTransfers",
              "type": "tuple[]"
            }
          ],
          "internalType": "struct IHederaTokenService.TokenTransferList[]",
          "name": "",
          "type": "tuple[]"
        }
      ],
      "name": "airdropTokens",
      "outputs": [
        {
          "internalType": "int64",
          "name": "",
          "type": "int64"
        }
      ],
      "stateMutability": "nonpayable",
      "type": "function"
    },
    {
      "inputs": [
        {
          "internalType": "address",
          "name": "token",
          "type": "address"
        },
        {
          "internalType": "address",
          "name": "owner",
          "type": "address"
        },
        {
          "internalType": "address",
          "name": "spender",
          "type": "address"
        }
      ],
      "name": "allowance",
      "outputs": [
        {
          "internalType": "int64",
          "name": "responseCode",
          "type": "int64"
        },
        {
          "internalType": "uint256",
          "name": "allowanceAmount",
          "type": "uint256"
        }
      ],
      "stateMutability": "nonpayable",
      "type": "function"
    },
    {
      "inputs": [
        {
          "internalType": "address",
          "name": "",
          "type": "address"
        },
        {
          "internalType": "address",
          "name": "",
          "type": "address"
        },
        {
          "internalType": "uint256",
          "name": "",
          "type": "uint256"
        }
      ],
      "name": "approve",
      "outputs": [
        {
          "internalType": "int64",
          "name": "",
          "type": "int64"
        }
      ],
      "stateMutability": "nonpayable",
      "type": "function"
    },
    {
      "inputs": [
        {
          "internalType": "address",
          "name": "",
          "type": "address"
        },
        {
          "internalType": "address",
          "name": "",
          "type": "address"
        },
        {
          "internalType": "uint256",
          "name": "",
          "type": "uint256"
        }
      ],
      "name": "approveNFT",
      "outputs": [
        {
          "internalType": "int64",
          "name": "",
          "type": "int64"
        }
      ],
      "stateMutability": "nonpayable",
      "type": "function"
    },
    {
      "inputs": [
        {
          "internalType": "address",
          "name": "account",
          "type": "address"
        },
        {
          "internalType": "address",
          "name": "token",
          "type": "address"
        }
      ],
      "name": "associateToken",
      "outputs": [
        {
          "internalType": "int64",
          "name": "responseCode",
          "type": "int64"
        }
      ],
      "stateMutability": "nonpayable",
      "type": "function"
    },
    {
      "inputs": [
        {
          "internalType": "address",
          "name": "account",
          "type": "address"
        },
        {
          "internalType": "address[]",
          "name": "tokens",
          "type": "address[]"
        }
      ],
      "name": "associateTokens",
      "outputs": [
        {
          "internalType": "int64",
          "name": "responseCode",
          "type": "int64"
        }
      ],
      "stateMutability": "nonpayable",
      "type": "function"
    },
    {
      "inputs": [
        {
          "internalType": "address",
          "name": "token",
          "type": "address"
        },
        {
          "internalType": "int64",
          "name": "amount",
          "type": "int64"
        },
        {
          "internalType": "int64[]",
          "name": "serialNumbers",
          "type": "int64[]"
        }
      ],
      "name": "burnToken",
      "outputs": [
        {
          "internalType": "int64",
          "name": "responseCode",
          "type": "int64"
        },
        {
          "internalType": "int64",
          "name": "newTotalSupply",
          "type": "int64"
        }
      ],
      "stateMutability": "nonpayable",
      "type": "function"
    },
    {
      "inputs": [
        {
          "components": [
            {
              "internalType": "address",
              "name": "sender",
              "type": "address"
            },
            {
              "internalType": "address",
              "name": "receiver",
              "type": "address"
            },
            {
              "internalType": "address",
              "name": "token",
              "type": "address"
            },
            {
              "internalType": "int64",
              "name": "serial",
              "type": "int64"
            }
          ],
          "internalType": "struct IHederaTokenService.PendingAirdrop[]",
          "name": "",
          "type": "tuple[]"
        }
      ],
      "name": "cancelAirdrops",
      "outputs": [
        {
          "internalType": "int64",
          "name": "",
          "type": "int64"
        }
      ],
      "stateMutability": "nonpayable",
      "type": "function"
    },
    {
      "inputs": [
        {
          "components": [
            {
              "internalType": "address",
              "name": "sender",
              "type": "address"
            },
            {
              "internalType": "address",
              "name": "receiver",
              "type": "address"
            },
            {
              "internalType": "address",
              "name": "token",
              "type": "address"
            },
            {
              "internalType": "int64",
              "name": "serial",
              "type": "int64"
            }
          ],
          "internalType": "struct IHederaTokenService.PendingAirdrop[]",
          "name": "",
          "type": "tuple[]"
        }
      ],
      "name": "claimAirdrops",
      "outputs": [
        {
          "internalType": "int64",
          "name": "",
          "type": "int64"
        }
      ],
      "stateMutability": "nonpayable",
      "type": "function"
    },
    {
      "inputs": [
        {
          "components": [
            {
              "internalType": "string",
              "name": "name",
              "type": "string"
            },
            {
              "internalType": "string",
              "name": "symbol",
              "type": "string"
            },
            {
              "internalType": "address",
              "name": "treasury",
              "type": "address"
            },
            {
              "internalType": "string",
              "name": "memo",
              "type": "string"
            },
            {
              "internalType": "bool",
              "name": "tokenSupplyType",
              "type": "bool"
            },
            {
              "internalType": "int64",
              "name": "maxSupply",
              "type": "int64"
            },
            {
              "internalType": "bool",
              "name": "freezeDefault",
              "type": "bool"
            },
            {
              "components": [
                {
                  "internalType": "int64",
                  "name": "second",
                  "type": "int64"
                },
                {
                  "internalType": "address",
                  "name": "autoRenewAccount",
                  "type": "address"
                },
                {
                  "internalType": "int64",
                  "name": "autoRenewPeriod",
                  "type": "int64"
                }
              ],
              "internalType": "struct IHederaTokenService.Expiry",
              "name": "expiry",
              "type": "tuple"
            }
          ],
          "internalType": "struct IHederaTokenService.HederaToken",
          "name": "token",
          "type": "tuple"
        },
        {
          "internalType": "int64",
          "name": "initialTotalSupply",
          "type": "int64"
        },
        {
          "internalType": "int32",
          "name": "decimals",
          "type": "int32"
        }
      ],
      "name": "createFungibleToken",
      "outputs": [
        {
          "internalType": "int64",
          "name": "responseCode",
          "type": "int64"
        },
        {
          "internalType": "address",
          "name": "tokenAddress",
          "type": "address"
        }
      ],
      "stateMutability": "payable",
      "type": "function"
    },
    {
      "inputs": [
        {
          "components": [
            {
              "internalType": "string",
              "name": "name",
              "type": "string"
            },
            {
              "internalType": "string",
              "name": "symbol",
              "type": "string"
            },
            {
              "internalType": "address",
              "name": "treasury",
              "type": "address"
            },
            {
              "internalType": "string",
              "name": "memo",
              "type": "string"
            },
            {
              "internalType": "bool",
              "name": "tokenSupplyType",
              "type": "bool"
            },
            {
              "internalType": "int64",
              "name": "maxSupply",
              "type": "int64"
            },
            {
              "internalType": "bool",
              "name": "freezeDefault",
              "type": "bool"
            },
            {
              "components": [
                {
                  "internalType": "int64",
                  "name": "second",
                  "type": "int64"
                },
                {
                  "internalType": "address",
                  "name": "autoRenewAccount",
                  "type": "address"
                },
                {
                  "internalType": "int64",
                  "name": "autoRenewPeriod",
                  "type": "int64"
                }
              ],
              "internalType": "struct IHederaTokenService.Expiry",
              "name": "expiry",
              "type": "tuple"
            }
          ],
          "internalType": "struct IHederaTokenService.HederaToken",
          "name": "",
          "type": "tuple"
        },
        {
          "internalType": "int64",
          "name": "",
          "type": "int64"
        },
        {
          "internalType": "int32",
          "name": "",
          "type": "int32"
        },
        {
          "components": [
            {
              "internalType": "int64",
              "name": "amount",
              "type": "int64"
            },
            {
              "internalType": "address",
              "name": "tokenId",
              "type": "address"
            },
            {
              "internalType": "bool",
              "name": "useHbarsForPayment",
              "type": "bool"
            },
            {
              "internalType": "bool",
              "name": "useCurrentTokenForPayment",
              "type": "bool"
            },
            {
              "internalType": "address",
              "name": "feeCollector",
              "type": "address"
            }
          ],
          "internalType": "struct IHederaTokenService.FixedFee[]",
          "name": "",
          "type": "tuple[]"
        },
        {
          "components": [
            {
              "internalType": "int64",
              "name": "numerator",
              "type": "int64"
            },
            {
              "internalType": "int64",
              "name": "denominator",
              "type": "int64"
            },
            {
              "internalType": "int64",
              "name": "minimumAmount",
              "type": "int64"
            },
            {
              "internalType": "int64",
              "name": "maximumAmount",
              "type": "int64"
            },
            {
              "internalType": "bool",
              "name": "netOfTransfers",
              "type": "bool"
            },
            {
              "internalType": "address",
              "name": "feeCollector",
              "type": "address"
            }
          ],
          "internalType": "struct IHederaTokenService.FractionalFee[]",
          "name": "",
          "type": "tuple[]"
        }
      ],
      "name": "createFungibleTokenWithCustomFees",
      "outputs": [
        {
          "internalType": "int64",
          "name": "",
          "type": "int64"
        },
        {
          "internalType": "address",
          "name": "",
          "type": "address"
        }
      ],
      "stateMutability": "payable",
      "type": "function"
    },
    {
      "inputs": [
        {
          "components": [
            {
              "internalType": "string",
              "name": "name",
              "type": "string"
            },
            {
              "internalType": "string",
              "name": "symbol",
              "type": "string"
            },
            {
              "internalType": "address",
              "name": "treasury",
              "type": "address"
            },
            {
              "internalType": "string",
              "name": "memo",
              "type": "string"
            },
            {
              "internalType": "bool",
              "name": "tokenSupplyType",
              "type": "bool"
            },
            {
              "internalType": "int64",
              "name": "maxSupply",
              "type": "int64"
            },
            {
              "internalType": "bool",
              "name": "freezeDefault",
              "type": "bool"
            },
            {
              "components": [
                {
                  "internalType": "int64",
                  "name": "second",
                  "type": "int64"
                },
                {
                  "internalType": "address",
                  "name": "autoRenewAccount",
                  "type": "address"
                },
                {
                  "internalType": "int64",
                  "name": "autoRenewPeriod",
                  "type": "int64"
                }
              ],
              "internalType": "struct IHederaTokenService.Expiry",
              "name": "expiry",
              "type": "tuple"
            }
          ],
          "internalType": "struct IHederaTokenService.HederaToken",
          "name": "",
          "type": "tuple"
        }
      ],
      "name": "createNonFungibleToken",
      "outputs": [
        {
          "internalType": "int64",
          "name": "",
          "type": "int64"
        },
        {
          "internalType": "address",
          "name": "",
          "type": "address"
        }
      ],
      "stateMutability": "payable",
      "type": "function"
    },
    {
      "inputs": [
        {
          "components": [
            {
              "internalType": "string",
              "name": "name",
              "type": "string"
            },
            {
              "internalType": "string",
              "name": "symbol",
              "type": "string"
            },
            {
              "internalType": "address",
              "name": "treasury",
              "type": "address"
            },
            {
              "internalType": "string",
              "name": "memo",
              "type": "string"
            },
            {
              "internalType": "bool",
              "name": "tokenSupplyType",
              "type": "bool"
            },
            {
              "internalType": "int64",
              "name": "maxSupply",
              "type": "int64"
            },
            {
              "internalType": "bool",
              "name": "freezeDefault",
              "type": "bool"
            },
            {
              "components": [
                {
                  "internalType": "int64",
                  "name": "second",
                  "type": "int64"
                },
                {
                  "internalType": "address",
                  "name": "autoRenewAccount",
                  "type": "address"
                },
                {
                  "internalType": "int64",
                  "name": "autoRenewPeriod",
                  "type": "int64"
                }
              ],
              "internalType": "struct IHederaTokenService.Expiry",
              "name": "expiry",
              "type": "tuple"
            }
          ],
          "internalType": "struct IHederaTokenService.HederaToken",
          "name": "",
          "type": "tuple"
        },
        {
          "components": [
            {
              "internalType": "int64",
              "name": "amount",
              "type": "int64"
            },
            {
              "internalType": "address",
              "name": "tokenId",
              "type": "address"
            },
            {
              "internalType": "bool",
              "name": "useHbarsForPayment",
              "type": "bool"
            },
            {
              "internalType": "bool",
              "name": "useCurrentTokenForPayment",
              "type": "bool"
            },
            {
              "internalType": "address",
              "name": "feeCollector",
              "type": "address"
            }
          ],
          "internalType": "struct IHederaTokenService.FixedFee[]",
          "name": "",
          "type": "tuple[]"
        },
        {
          "components": [
            {
              "internalType": "int64",
              "name": "numerator",
              "type": "int64"
            },
            {
              "internalType": "int64",
              "name": "denominator",
              "type": "int64"
            },
            {
              "internalType": "int64",
              "name": "amount",
              "type": "int64"
            },
            {
              "internalType": "address",
              "name": "tokenId",
              "type": "address"
            },
            {
              "internalType": "bool",
              "name": "useHbarsForPayment",
              "type": "bool"
            },
            {
              "internalType": "address",
              "name": "feeCollector",
              "type": "address"
            }
          ],
          "internalType": "struct IHederaTokenService.RoyaltyFee[]",
          "name": "",
          "type": "tuple[]"
        }
      ],
      "name": "createNonFungibleTokenWithCustomFees",
      "outputs": [
        {
          "internalType": "int64",
          "name": "",
          "type": "int64"
        },
        {
          "internalType": "address",
          "name": "",
          "type": "address"
        }
      ],
      "stateMutability": "payable",
      "type": "function"
    },
    {
      "inputs": [
        {
          "components": [
            {
              "components": [
                {
                  "internalType": "address",
                  "name": "accountID",
                  "type": "address"
                },
                {
                  "internalType": "int64",
                  "name": "amount",
                  "type": "int64"
                },
                {
                  "internalType": "bool",
                  "name": "isApproval",
                  "type": "bool"
                }
              ],
              "internalType": "struct IHederaTokenService.AccountAmount[]",
              "name": "transfers",
              "type": "tuple[]"
            }
          ],
          "internalType": "struct IHederaTokenService.TransferList",
          "name": "",
          "type": "tuple"
        },
        {
          "components": [
            {
              "internalType": "address",
              "name": "token",
              "type": "address"
            },
            {
              "components": [
                {
                  "internalType": "address",
                  "name": "accountID",
                  "type": "address"
                },
                {
                  "internalType": "int64",
                  "name": "amount",
                  "type": "int64"
                },
                {
                  "internalType": "bool",
                  "name": "isApproval",
                  "type": "bool"
                }
              ],
              "internalType": "struct IHederaTokenService.AccountAmount[]",
              "name": "transfers",
              "type": "tuple[]"
            },
            {
              "components": [
                {
                  "internalType": "address",
                  "name": "senderAccountID",
                  "type": "address"
                },
                {
                  "internalType": "address",
                  "name": "receiverAccountID",
                  "type": "address"
                },
                {
                  "internalType": "int64",
                  "name": "serialNumber",
                  "type": "int64"
                },
                {
                  "internalType": "bool",
                  "name": "isApproval",
                  "type": "bool"
                }
              ],
              "internalType": "struct IHederaTokenService.NftTransfer[]",
              "name": "nftTransfers",
              "type": "tuple[]"
            }
          ],
          "internalType": "struct IHederaTokenService.TokenTransferList[]",
          "name": "",
          "type": "tuple[]"
        }
      ],
      "name": "cryptoTransfer",
      "outputs": [
        {
          "internalType": "int64",
          "name": "",
          "type": "int64"
        }
      ],
      "stateMutability": "nonpayable",
      "type": "function"
    },
    {
      "inputs": [
        {
          "internalType": "address",
          "name": "",
          "type": "address"
        }
      ],
      "name": "deleteToken",
      "outputs": [
        {
          "internalType": "int64",
          "name": "",
          "type": "int64"
        }
      ],
      "stateMutability": "nonpayable",
      "type": "function"
    },
    {
      "inputs": [
        {
          "internalType": "address",
          "name": "account",
          "type": "address"
        },
        {
          "internalType": "address",
          "name": "token",
          "type": "address"
        }
      ],
      "name": "dissociateToken",
      "outputs": [
        {
          "internalType": "int64",
          "name": "responseCode",
          "type": "int64"
        }
      ],
      "stateMutability": "nonpayable",
      "type": "function"
    },
    {
      "inputs": [
        {
          "internalType": "address",
          "name": "account",
          "type": "address"
        },
        {
          "internalType": "address[]",
          "name": "tokens",
          "type": "address[]"
        }
      ],
      "name": "dissociateTokens",
      "outputs": [
        {
          "internalType": "int64",
          "name": "responseCode",
          "type": "int64"
        }
      ],
      "stateMutability": "nonpayable",
      "type": "function"
    },
    {
      "inputs": [
        {
          "internalType": "address",
          "name": "",
          "type": "address"
        },
        {
          "internalType": "address",
          "name": "",
          "type": "address"
        }
      ],
      "name": "freezeToken",
      "outputs": [
        {
          "internalType": "int64",
          "name": "",
          "type": "int64"
        }
      ],
      "stateMutability": "nonpayable",
      "type": "function"
    },
    {
      "inputs": [
        {
          "internalType": "address",
          "name": "",
          "type": "address"
        },
        {
          "internalType": "uint256",
          "name": "",
          "type": "uint256"
        }
      ],
      "name": "getApproved",
      "outputs": [
        {
          "internalType": "int64",
          "name": "",
          "type": "int64"
        },
        {
          "internalType": "address",
          "name": "",
          "type": "address"
        }
      ],
      "stateMutability": "nonpayable",
      "type": "function"
    },
    {
      "inputs": [
        {
          "internalType": "address",
          "name": "",
          "type": "address"
        }
      ],
      "name": "getFungibleTokenInfo",
      "outputs": [
        {
          "internalType": "int64",
          "name": "",
          "type": "int64"
        },
        {
          "components": [
            {
              "components": [
                {
                  "components": [
                    {
                      "internalType": "string",
                      "name": "name",
                      "type": "string"
                    },
                    {
                      "internalType": "string",
                      "name": "symbol",
                      "type": "string"
                    },
                    {
                      "internalType": "address",
                      "name": "treasury",
                      "type": "address"
                    },
                    {
                      "internalType": "string",
                      "name": "memo",
                      "type": "string"
                    },
                    {
                      "internalType": "bool",
                      "name": "tokenSupplyType",
                      "type": "bool"
                    },
                    {
                      "internalType": "int64",
                      "name": "maxSupply",
                      "type": "int64"
                    },
                    {
                      "internalType": "bool",
                      "name": "freezeDefault",
                      "type": "bool"
                    },
                    {
                      "components": [
                        {
                          "internalType": "int64",
                          "name": "second",
                          "type": "int64"
                        },
                        {
                          "internalType": "address",
                          "name": "autoRenewAccount",
                          "type": "address"
                        },
                        {
                          "internalType": "int64",
                          "name": "autoRenewPeriod",
                          "type": "int64"
                        }
                      ],
                      "internalType": "struct IHederaTokenService.Expiry",
                      "name": "expiry",
                      "type": "tuple"
                    }
                  ],
                  "internalType": "struct IHederaTokenService.HederaToken",
                  "name": "token",
                  "type": "tuple"
                },
                {
                  "internalType": "int64",
                  "name": "totalSupply",
                  "type": "int64"
                },
                {
                  "internalType": "bool",
                  "name": "deleted",
                  "type": "bool"
                },
                {
                  "internalType": "bool",
                  "name": "defaultKycStatus",
                  "type": "bool"
                },
                {
                  "internalType": "bool",
                  "name": "pauseStatus",
                  "type": "bool"
                },
                {
                  "components": [
                    {
                      "internalType": "int64",
                      "name": "amount",
                      "type": "int64"
                    },
                    {
                      "internalType": "address",
                      "name": "tokenId",
                      "type": "address"
                    },
                    {
                      "internalType": "bool",
                      "name": "useHbarsForPayment",
                      "type": "bool"
                    },
                    {
                      "internalType": "bool",
                      "name": "useCurrentTokenForPayment",
                      "type": "bool"
                    },
                    {
                      "internalType": "address",
                      "name": "feeCollector",
                      "type": "address"
                    }
                  ],
                  "internalType": "struct IHederaTokenService.FixedFee[]",
                  "name": "fixedFees",
                  "type": "tuple[]"
                },
                {
                  "components": [
                    {
                      "internalType": "int64",
                      "name": "numerator",
                      "type": "int64"
                    },
                    {
                      "internalType": "int64",
                      "name": "denominator",
                      "type": "int64"
                    },
                    {
                      "internalType": "int64",
                      "name": "minimumAmount",
                      "type": "int64"
                    },
                    {
                      "internalType": "int64",
                      "name": "maximumAmount",
                      "type": "int64"
                    },
                    {
                      "internalType": "bool",
                      "name": "netOfTransfers",
                      "type": "bool"
                    },
                    {
                      "internalType": "address",
                      "name": "feeCollector",
                      "type": "address"
                    }
                  ],
                  "internalType": "struct IHederaTokenService.FractionalFee[]",
                  "name": "fractionalFees",
                  "type": "tuple[]"
                },
                {
                  "components": [
                    {
                      "internalType": "int64",
                      "name": "numerator",
                      "type": "int64"
                    },
                    {
                      "internalType": "int64",
                      "name": "denominator",
                      "type": "int64"
                    },
                    {
                      "internalType": "int64",
                      "name": "amount",
                      "type": "int64"
                    },
                    {
                      "internalType": "address",
                      "name": "tokenId",
                      "type": "address"
                    },
                    {
                      "internalType": "bool",
                      "name": "useHbarsForPayment",
                      "type": "bool"
                    },
                    {
                      "internalType": "address",
                      "name": "feeCollector",
                      "type": "address"
                    }
                  ],
                  "internalType": "struct IHederaTokenService.RoyaltyFee[]",
                  "name": "royaltyFees",
                  "type": "tuple[]"
                },
                {
                  "internalType": "string",
                  "name": "ledgerId",
                  "type": "string"
                }
              ],
              "internalType": "struct IHederaTokenService.TokenInfo",
              "name": "tokenInfo",
              "type": "tuple"
            },
            {
              "internalType": "int32",
              "name": "decimals",
              "type": "int32"
            }
          ],
          "internalType": "struct IHederaTokenService.FungibleTokenInfo",
          "name": "",
          "type": "tuple"
        }
      ],
      "stateMutability": "nonpayable",
      "type": "function"
    },
    {
      "inputs": [
        {
          "internalType": "address",
          "name": "",
          "type": "address"
        },
        {
          "internalType": "int64",
          "name": "",
          "type": "int64"
        }
      ],
      "name": "getNonFungibleTokenInfo",
      "outputs": [
        {
          "internalType": "int64",
          "name": "",
          "type": "int64"
        },
        {
          "components": [
            {
              "components": [
                {
                  "components": [
                    {
                      "internalType": "string",
                      "name": "name",
                      "type": "string"
                    },
                    {
                      "internalType": "string",
                      "name": "symbol",
                      "type": "string"
                    },
                    {
                      "internalType": "address",
                      "name": "treasury",
                      "type": "address"
                    },
                    {
                      "internalType": "string",
                      "name": "memo",
                      "type": "string"
                    },
                    {
                      "internalType": "bool",
                      "name": "tokenSupplyType",
                      "type": "bool"
                    },
                    {
                      "internalType": "int64",
                      "name": "maxSupply",
                      "type": "int64"
                    },
                    {
                      "internalType": "bool",
                      "name": "freezeDefault",
                      "type": "bool"
                    },
                    {
                      "components": [
                        {
                          "internalType": "int64",
                          "name": "second",
                          "type": "int64"
                        },
                        {
                          "internalType": "address",
                          "name": "autoRenewAccount",
                          "type": "address"
                        },
                        {
                          "internalType": "int64",
                          "name": "autoRenewPeriod",
                          "type": "int64"
                        }
                      ],
                      "internalType": "struct IHederaTokenService.Expiry",
                      "name": "expiry",
                      "type": "tuple"
                    }
                  ],
                  "internalType": "struct IHederaTokenService.HederaToken",
                  "name": "token",
                  "type": "tuple"
                },
                {
                  "internalType": "int64",
                  "name": "totalSupply",
                  "type": "int64"
                },
                {
                  "internalType": "bool",
                  "name": "deleted",
                  "type": "bool"
                },
                {
                  "internalType": "bool",
                  "name": "defaultKycStatus",
                  "type": "bool"
                },
                {
                  "internalType": "bool",
                  "name": "pauseStatus",
                  "type": "bool"
                },
                {
                  "components": [
                    {
                      "internalType": "int64",
                      "name": "amount",
                      "type": "int64"
                    },
                    {
                      "internalType": "address",
                      "name": "tokenId",
                      "type": "address"
                    },
                    {
                      "internalType": "bool",
                      "name": "useHbarsForPayment",
                      "type": "bool"
                    },
                    {
                      "internalType": "bool",
                      "name": "useCurrentTokenForPayment",
                      "type": "bool"
                    },
                    {
                      "internalType": "address",
                      "name": "feeCollector",
                      "type": "address"
                    }
                  ],
                  "internalType": "struct IHederaTokenService.FixedFee[]",
                  "name": "fixedFees",
                  "type": "tuple[]"
                },
                {
                  "components": [
                    {
                      "internalType": "int64",
                      "name": "numerator",
                      "type": "int64"
                    },
                    {
                      "internalType": "int64",
                      "name": "denominator",
                      "type": "int64"
                    },
                    {
                      "internalType": "int64",
                      "name": "minimumAmount",
                      "type": "int64"
                    },
                    {
                      "internalType": "int64",
                      "name": "maximumAmount",
                      "type": "int64"
                    },
                    {
                      "internalType": "bool",
                      "name": "netOfTransfers",
                      "type": "bool"
                    },
                    {
                      "internalType": "address",
                      "name": "feeCollector",
                      "type": "address"
                    }
                  ],
                  "internalType": "struct IHederaTokenService.FractionalFee[]",
                  "name": "fractionalFees",
                  "type": "tuple[]"
                },
                {
                  "components": [
                    {
                      "internalType": "int64",
                      "name": "numerator",
                      "type": "int64"
                    },
                    {
                      "internalType": "int64",
                      "name": "denominator",
                      "type": "int64"
                    },
                    {
                      "internalType": "int64",
                      "name": "amount",
                      "type": "int64"
                    },
                    {
                      "internalType": "address",
                      "name": "tokenId",
                      "type": "address"
                    },
                    {
                      "internalType": "bool",
                      "name": "useHbarsForPayment",
                      "type": "bool"
                    },
                    {
                      "internalType": "address",
                      "name": "feeCollector",
                      "type": "address"
                    }
                  ],
                  "internalType": "struct IHederaTokenService.RoyaltyFee[]",
                  "name": "royaltyFees",
                  "type": "tuple[]"
                },
                {
                  "internalType": "string",
                  "name": "ledgerId",
                  "type": "string"
                }
              ],
              "internalType": "struct IHederaTokenService.TokenInfo",
              "name": "tokenInfo",
              "type": "tuple"
            },
            {
              "internalType": "int64",
              "name": "serialNumber",
              "type": "int64"
            },
            {
              "internalType": "address",
              "name": "ownerId",
              "type": "address"
            },
            {
              "internalType": "int64",
              "name": "creationTime",
              "type": "int64"
            },
            {
              "internalType": "bytes",
              "name": "metadata",
              "type": "bytes"
            },
            {
              "internalType": "address",
              "name": "spenderId",
              "type": "address"
            }
          ],
          "internalType": "struct IHederaTokenService.NonFungibleTokenInfo",
          "name": "",
          "type": "tuple"
        }
      ],
      "stateMutability": "nonpayable",
      "type": "function"
    },
    {
      "inputs": [
        {
          "internalType": "address",
          "name": "",
          "type": "address"
        }
      ],
      "name": "getTokenCustomFees",
      "outputs": [
        {
          "internalType": "int64",
          "name": "",
          "type": "int64"
        },
        {
          "components": [
            {
              "internalType": "int64",
              "name": "amount",
              "type": "int64"
            },
            {
              "internalType": "address",
              "name": "tokenId",
              "type": "address"
            },
            {
              "internalType": "bool",
              "name": "useHbarsForPayment",
              "type": "bool"
            },
            {
              "internalType": "bool",
              "name": "useCurrentTokenForPayment",
              "type": "bool"
            },
            {
              "internalType": "address",
              "name": "feeCollector",
              "type": "address"
            }
          ],
          "internalType": "struct IHederaTokenService.FixedFee[]",
          "name": "",
          "type": "tuple[]"
        },
        {
          "components": [
            {
              "internalType": "int64",
              "name": "numerator",
              "type": "int64"
            },
            {
              "internalType": "int64",
              "name": "denominator",
              "type": "int64"
            },
            {
              "internalType": "int64",
              "name": "minimumAmount",
              "type": "int64"
            },
            {
              "internalType": "int64",
              "name": "maximumAmount",
              "type": "int64"
            },
            {
              "internalType": "bool",
              "name": "netOfTransfers",
              "type": "bool"
            },
            {
              "internalType": "address",
              "name": "feeCollector",
              "type": "address"
            }
          ],
          "internalType": "struct IHederaTokenService.FractionalFee[]",
          "name": "",
          "type": "tuple[]"
        },
        {
          "components": [
            {
              "internalType": "int64",
              "name": "numerator",
              "type": "int64"
            },
            {
              "internalType": "int64",
              "name": "denominator",
              "type": "int64"
            },
            {
              "internalType": "int64",
              "name": "amount",
              "type": "int64"
            },
            {
              "internalType": "address",
              "name": "tokenId",
              "type": "address"
            },
            {
              "internalType": "bool",
              "name": "useHbarsForPayment",
              "type": "bool"
            },
            {
              "internalType": "address",
              "name": "feeCollector",
              "type": "address"
            }
          ],
          "internalType": "struct IHederaTokenService.RoyaltyFee[]",
          "name": "",
          "type": "tuple[]"
        }
      ],
      "stateMutability": "nonpayable",
      "type": "function"
    },
    {
      "inputs": [
        {
          "internalType": "address",
          "name": "",
          "type": "address"
        }
      ],
      "name": "getTokenDefaultFreezeStatus",
      "outputs": [
        {
          "internalType": "int64",
          "name": "",
          "type": "int64"
        },
        {
          "internalType": "bool",
          "name": "",
          "type": "bool"
        }
      ],
      "stateMutability": "nonpayable",
      "type": "function"
    },
    {
      "inputs": [
        {
          "internalType": "address",
          "name": "",
          "type": "address"
        }
      ],
      "name": "getTokenDefaultKycStatus",
      "outputs": [
        {
          "internalType": "int64",
          "name": "",
          "type": "int64"
        },
        {
          "internalType": "bool",
          "name": "",
          "type": "bool"
        }
      ],
      "stateMutability": "nonpayable",
      "type": "function"
    },
    {
      "inputs": [
        {
          "internalType": "address",
          "name": "",
          "type": "address"
        }
      ],
      "name": "getTokenExpiryInfo",
      "outputs": [
        {
          "internalType": "int64",
          "name": "",
          "type": "int64"
        },
        {
          "components": [
            {
              "internalType": "int64",
              "name": "second",
              "type": "int64"
            },
            {
              "internalType": "address",
              "name": "autoRenewAccount",
              "type": "address"
            },
            {
              "internalType": "int64",
              "name": "autoRenewPeriod",
              "type": "int64"
            }
          ],
          "internalType": "struct IHederaTokenService.Expiry",
          "name": "",
          "type": "tuple"
        }
      ],
      "stateMutability": "nonpayable",
      "type": "function"
    },
    {
      "inputs": [
        {
          "internalType": "address",
          "name": "",
          "type": "address"
        }
      ],
      "name": "getTokenInfo",
      "outputs": [
        {
          "internalType": "int64",
          "name": "",
          "type": "int64"
        },
        {
          "components": [
            {
              "components": [
                {
                  "internalType": "string",
                  "name": "name",
                  "type": "string"
                },
                {
                  "internalType": "string",
                  "name": "symbol",
                  "type": "string"
                },
                {
                  "internalType": "address",
                  "name": "treasury",
                  "type": "address"
                },
                {
                  "internalType": "string",
                  "name": "memo",
                  "type": "string"
                },
                {
                  "internalType": "bool",
                  "name": "tokenSupplyType",
                  "type": "bool"
                },
                {
                  "internalType": "int64",
                  "name": "maxSupply",
                  "type": "int64"
                },
                {
                  "internalType": "bool",
                  "name": "freezeDefault",
                  "type": "bool"
                },
                {
                  "components": [
                    {
                      "internalType": "int64",
                      "name": "second",
                      "type": "int64"
                    },
                    {
                      "internalType": "address",
                      "name": "autoRenewAccount",
                      "type": "address"
                    },
                    {
                      "internalType": "int64",
                      "name": "autoRenewPeriod",
                      "type": "int64"
                    }
                  ],
                  "internalType": "struct IHederaTokenService.Expiry",
                  "name": "expiry",
                  "type": "tuple"
                }
              ],
              "internalType": "struct IHederaTokenService.HederaToken",
              "name": "token",
              "type": "tuple"
            },
            {
              "internalType": "int64",
              "name": "totalSupply",
              "type": "int64"
            },
            {
              "internalType": "bool",
              "name": "deleted",
              "type": "bool"
            },
            {
              "internalType": "bool",
              "name": "defaultKycStatus",
              "type": "bool"
            },
            {
              "internalType": "bool",
              "name": "pauseStatus",
              "type": "bool"
            },
            {
              "components": [
                {
                  "internalType": "int64",
                  "name": "amount",
                  "type": "int64"
                },
                {
                  "internalType": "address",
                  "name": "tokenId",
                  "type": "address"
                },
                {
                  "internalType": "bool",
                  "name": "useHbarsForPayment",
                  "type": "bool"
                },
                {
                  "internalType": "bool",
                  "name": "useCurrentTokenForPayment",
                  "type": "bool"
                },
                {
                  "internalType": "address",
                  "name": "feeCollector",
                  "type": "address"
                }
              ],
              "internalType": "struct IHederaTokenService.FixedFee[]",
              "name": "fixedFees",
              "type": "tuple[]"
            },
            {
              "components": [
                {
                  "internalType": "int64",
                  "name": "numerator",
                  "type": "int64"
                },
                {
                  "internalType": "int64",
                  "name": "denominator",
                  "type": "int64"
                },
                {
                  "internalType": "int64",
                  "name": "minimumAmount",
                  "type": "int64"
                },
                {
                  "internalType": "int64",
                  "name": "maximumAmount",
                  "type": "int64"
                },
                {
                  "internalType": "bool",
                  "name": "netOfTransfers",
                  "type": "bool"
                },
                {
                  "internalType": "address",
                  "name": "feeCollector",
                  "type": "address"
                }
              ],
              "internalType": "struct IHederaTokenService.FractionalFee[]",
              "name": "fractionalFees",
              "type": "tuple[]"
            },
            {
              "components": [
                {
                  "internalType": "int64",
                  "name": "numerator",
                  "type": "int64"
                },
                {
                  "internalType": "int64",
                  "name": "denominator",
                  "type": "int64"
                },
                {
                  "internalType": "int64",
                  "name": "amount",
                  "type": "int64"
                },
                {
                  "internalType": "address",
                  "name": "tokenId",
                  "type": "address"
                },
                {
                  "internalType": "bool",
                  "name": "useHbarsForPayment",
                  "type": "bool"
                },
                {
                  "internalType": "address",
                  "name": "feeCollector",
                  "type": "address"
                }
              ],
              "internalType": "struct IHederaTokenService.RoyaltyFee[]",
              "name": "royaltyFees",
              "type": "tuple[]"
            },
            {
              "internalType": "string",
              "name": "ledgerId",
              "type": "string"
            }
          ],
          "internalType": "struct IHederaTokenService.TokenInfo",
          "name": "",
          "type": "tuple"
        }
      ],
      "stateMutability": "nonpayable",
      "type": "function"
    },
    {
      "inputs": [
        {
          "internalType": "address",
          "name": "",
          "type": "address"
        },
        {
          "internalType": "uint256",
          "name": "",
          "type": "uint256"
        }
      ],
      "name": "getTokenKey",
      "outputs": [
        {
          "internalType": "int64",
          "name": "",
          "type": "int64"
        },
        {
          "components": [
            {
              "internalType": "bool",
              "name": "inheritAccountKey",
              "type": "bool"
            },
            {
              "internalType": "address",
              "name": "contractId",
              "type": "address"
            },
            {
              "internalType": "bytes",
              "name": "ed25519",
              "type": "bytes"
            },
            {
              "internalType": "bytes",
              "name": "ECDSA_secp256k1",
              "type": "bytes"
            },
            {
              "internalType": "address",
              "name": "delegatableContractId",
              "type": "address"
            }
          ],
          "internalType": "struct IHederaTokenService.KeyValue",
          "name": "",
          "type": "tuple"
        }
      ],
      "stateMutability": "nonpayable",
      "type": "function"
    },
    {
      "inputs": [
        {
          "internalType": "address",
          "name": "",
          "type": "address"
        }
      ],
      "name": "getTokenType",
      "outputs": [
        {
          "internalType": "int64",
          "name": "",
          "type": "int64"
        },
        {
          "internalType": "int32",
          "name": "",
          "type": "int32"
        }
      ],
      "stateMutability": "nonpayable",
      "type": "function"
    },
    {
      "inputs": [
        {
          "internalType": "address",
          "name": "",
          "type": "address"
        },
        {
          "internalType": "address",
          "name": "",
          "type": "address"
        }
      ],
      "name": "grantTokenKyc",
      "outputs": [
        {
          "internalType": "int64",
          "name": "",
          "type": "int64"
        }
      ],
      "stateMutability": "nonpayable",
      "type": "function"
    },
    {
      "inputs": [
        {
          "internalType": "address",
          "name": "",
          "type": "address"
        },
        {
          "internalType": "address",
          "name": "",
          "type": "address"
        },
        {
          "internalType": "address",
          "name": "",
          "type": "address"
        }
      ],
      "name": "isApprovedForAll",
      "outputs": [
        {
          "internalType": "int64",
          "name": "",
          "type": "int64"
        },
        {
          "internalType": "bool",
          "name": "",
          "type": "bool"
        }
      ],
      "stateMutability": "nonpayable",
      "type": "function"
    },
    {
      "inputs": [
        {
          "internalType": "address",
          "name": "",
          "type": "address"
        },
        {
          "internalType": "address",
          "name": "",
          "type": "address"
        }
      ],
      "name": "isFrozen",
      "outputs": [
        {
          "internalType": "int64",
          "name": "",
          "type": "int64"
        },
        {
          "internalType": "bool",
          "name": "",
          "type": "bool"
        }
      ],
      "stateMutability": "nonpayable",
      "type": "function"
    },
    {
      "inputs": [
        {
          "internalType": "address",
          "name": "",
          "type": "address"
        },
        {
          "internalType": "address",
          "name": "",
          "type": "address"
        }
      ],
      "name": "isKyc",
      "outputs": [
        {
          "internalType": "int64",
          "name": "",
          "type": "int64"
        },
        {
          "internalType": "bool",
          "name": "",
          "type": "bool"
        }
      ],
      "stateMutability": "nonpayable",
      "type": "function"
    },
    {
      "inputs": [
        {
          "internalType": "address",
          "name": "token",
          "type": "address"
        }
      ],
      "name": "isToken",
      "outputs": [
        {
          "internalType": "int64",
          "name": "responseCode",
          "type": "int64"
        },
        {
          "internalType": "bool",
          "name": "isTokenFlag",
          "type": "bool"
        }
      ],
      "stateMutability": "nonpayable",
      "type": "function"
    },
    {
      "inputs": [
        {
          "internalType": "address",
          "name": "token",
          "type": "address"
        },
        {
          "internalType": "int64",
          "name": "amount",
          "type": "int64"
        },
        {
          "internalType": "bytes[]",
          "name": "metadata",
          "type": "bytes[]"
        }
      ],
      "name": "mintToken",
      "outputs": [
        {
          "internalType": "int64",
          "name": "responseCode",
          "type": "int64"
        },
        {
          "internalType": "int64",
          "name": "newTotalSupply",
          "type": "int64"
        },
        {
          "internalType": "int64[]",
          "name": "serialNumbers",
          "type": "int64[]"
        }
      ],
      "stateMutability": "nonpayable",
      "type": "function"
    },
    {
      "inputs": [
        {
          "internalType": "address",
          "name": "",
          "type": "address"
        }
      ],
      "name": "pauseToken",
      "outputs": [
        {
          "internalType": "int64",
          "name": "",
          "type": "int64"
        }
      ],
      "stateMutability": "nonpayable",
      "type": "function"
    },
    {
      "inputs": [
        {
          "internalType": "address",
          "name": "",
          "type": "address"
        },
        {
          "internalType": "bytes",
          "name": "",
          "type": "bytes"
        }
      ],
      "name": "redirectForToken",
      "outputs": [
        {
          "internalType": "int64",
          "name": "",
          "type": "int64"
        },
        {
          "internalType": "bytes",
          "name": "",
          "type": "bytes"
        }
      ],
      "stateMutability": "nonpayable",
      "type": "function"
    },
    {
      "inputs": [
        {
          "internalType": "address",
          "name": "",
          "type": "address"
        },
        {
          "internalType": "address[]",
          "name": "",
          "type": "address[]"
        },
        {
          "components": [
            {
              "internalType": "address",
              "name": "nft",
              "type": "address"
            },
            {
              "internalType": "int64",
              "name": "serial",
              "type": "int64"
            }
          ],
          "internalType": "struct IHederaTokenService.NftID[]",
          "name": "",
          "type": "tuple[]"
        }
      ],
      "name": "rejectTokens",
      "outputs": [
        {
          "internalType": "int64",
          "name": "",
          "type": "int64"
        }
      ],
      "stateMutability": "nonpayable",
      "type": "function"
    },
    {
      "inputs": [
        {
          "internalType": "address",
          "name": "",
          "type": "address"
        },
        {
          "internalType": "address",
          "name": "",
          "type": "address"
        }
      ],
      "name": "revokeTokenKyc",
      "outputs": [
        {
          "internalType": "int64",
          "name": "",
          "type": "int64"
        }
      ],
      "stateMutability": "nonpayable",
      "type": "function"
    },
    {
      "inputs": [
        {
          "internalType": "address",
          "name": "",
          "type": "address"
        },
        {
          "internalType": "address",
          "name": "",
          "type": "address"
        },
        {
          "internalType": "bool",
          "name": "",
          "type": "bool"
        }
      ],
      "name": "setApprovalForAll",
      "outputs": [
        {
          "internalType": "int64",
          "name": "",
          "type": "int64"
        }
      ],
      "stateMutability": "nonpayable",
      "type": "function"
    },
    {
      "inputs": [
        {
          "internalType": "int64",
          "name": "responseCode",
          "type": "int64"
        },
        {
          "internalType": "address",
          "name": "tokenAddress",
          "type": "address"
        }
      ],
      "name": "setMockedCreateTokenResponse",
      "outputs": [],
      "stateMutability": "nonpayable",
      "type": "function"
    },
    {
      "inputs": [
        {
          "internalType": "address",
          "name": "token",
          "type": "address"
        },
        {
          "internalType": "address",
          "name": "holder",
          "type": "address"
        }
      ],
      "name": "setSupplyKeyHolder",
      "outputs": [],
      "stateMutability": "nonpayable",
      "type": "function"
    },
    {
      "inputs": [
        {
          "internalType": "address",
          "name": "token",
          "type": "address"
        },
        {
          "internalType": "address",
          "name": "account",
          "type": "address"
        },
        {
          "internalType": "bool",
          "name": "isAssociated",
          "type": "bool"
        }
      ],
      "name": "setTokenAssociation",
      "outputs": [],
      "stateMutability": "nonpayable",
      "type": "function"
    },
    {
      "inputs": [
        {
          "internalType": "address",
          "name": "tokenAddress",
          "type": "address"
        },
        {
          "internalType": "address",
          "name": "sauceTokenAddress",
          "type": "address"
        },
        {
          "internalType": "address",
          "name": "clxyTokenAddress",
          "type": "address"
        },
        {
          "internalType": "address",
          "name": "userAddress",
          "type": "address"
        }
      ],
      "name": "setupTokens",
      "outputs": [],
      "stateMutability": "nonpayable",
      "type": "function"
    },
    {
      "inputs": [
        {
          "internalType": "address",
          "name": "",
          "type": "address"
        },
        {
          "internalType": "address",
          "name": "",
          "type": "address"
        },
        {
          "internalType": "address",
          "name": "",
          "type": "address"
        },
        {
          "internalType": "uint256",
          "name": "",
          "type": "uint256"
        }
      ],
      "name": "transferFrom",
      "outputs": [
        {
          "internalType": "int64",
          "name": "",
          "type": "int64"
        }
      ],
      "stateMutability": "nonpayable",
      "type": "function"
    },
    {
      "inputs": [
        {
          "internalType": "address",
          "name": "",
          "type": "address"
        },
        {
          "internalType": "address",
          "name": "",
          "type": "address"
        },
        {
          "internalType": "address",
          "name": "",
          "type": "address"
        },
        {
          "internalType": "uint256",
          "name": "",
          "type": "uint256"
        }
      ],
      "name": "transferFromNFT",
      "outputs": [
        {
          "internalType": "int64",
          "name": "",
          "type": "int64"
        }
      ],
      "stateMutability": "nonpayable",
      "type": "function"
    },
    {
      "inputs": [
        {
          "internalType": "address",
          "name": "",
          "type": "address"
        },
        {
          "internalType": "address",
          "name": "",
          "type": "address"
        },
        {
          "internalType": "address",
          "name": "",
          "type": "address"
        },
        {
          "internalType": "int64",
          "name": "",
          "type": "int64"
        }
      ],
      "name": "transferNFT",
      "outputs": [
        {
          "internalType": "int64",
          "name": "",
          "type": "int64"
        }
      ],
      "stateMutability": "nonpayable",
      "type": "function"
    },
    {
      "inputs": [
        {
          "internalType": "address",
          "name": "",
          "type": "address"
        },
        {
          "internalType": "address[]",
          "name": "",
          "type": "address[]"
        },
        {
          "internalType": "address[]",
          "name": "",
          "type": "address[]"
        },
        {
          "internalType": "int64[]",
          "name": "",
          "type": "int64[]"
        }
      ],
      "name": "transferNFTs",
      "outputs": [
        {
          "internalType": "int64",
          "name": "",
          "type": "int64"
        }
      ],
      "stateMutability": "nonpayable",
      "type": "function"
    },
    {
      "inputs": [
        {
          "internalType": "address",
          "name": "token",
          "type": "address"
        },
        {
          "internalType": "address",
          "name": "sender",
          "type": "address"
        },
        {
          "internalType": "address",
          "name": "recipient",
          "type": "address"
        },
        {
          "internalType": "int64",
          "name": "amount",
          "type": "int64"
        }
      ],
      "name": "transferToken",
      "outputs": [
        {
          "internalType": "int64",
          "name": "responseCode",
          "type": "int64"
        }
      ],
      "stateMutability": "nonpayable",
      "type": "function"
    },
    {
      "inputs": [
        {
          "internalType": "address",
          "name": "",
          "type": "address"
        },
        {
          "internalType": "address[]",
          "name": "",
          "type": "address[]"
        },
        {
          "internalType": "int64[]",
          "name": "",
          "type": "int64[]"
        }
      ],
      "name": "transferTokens",
      "outputs": [
        {
          "internalType": "int64",
          "name": "",
          "type": "int64"
        }
      ],
      "stateMutability": "nonpayable",
      "type": "function"
    },
    {
      "inputs": [
        {
          "internalType": "address",
          "name": "",
          "type": "address"
        },
        {
          "internalType": "address",
          "name": "",
          "type": "address"
        }
      ],
      "name": "unfreezeToken",
      "outputs": [
        {
          "internalType": "int64",
          "name": "",
          "type": "int64"
        }
      ],
      "stateMutability": "nonpayable",
      "type": "function"
    },
    {
      "inputs": [
        {
          "internalType": "address",
          "name": "",
          "type": "address"
        }
      ],
      "name": "unpauseToken",
      "outputs": [
        {
          "internalType": "int64",
          "name": "",
          "type": "int64"
        }
      ],
      "stateMutability": "nonpayable",
      "type": "function"
    },
    {
      "inputs": [
        {
          "internalType": "address",
          "name": "",
          "type": "address"
        },
        {
          "components": [
            {
              "internalType": "int64",
              "name": "amount",
              "type": "int64"
            },
            {
              "internalType": "address",
              "name": "tokenId",
              "type": "address"
            },
            {
              "internalType": "bool",
              "name": "useHbarsForPayment",
              "type": "bool"
            },
            {
              "internalType": "bool",
              "name": "useCurrentTokenForPayment",
              "type": "bool"
            },
            {
              "internalType": "address",
              "name": "feeCollector",
              "type": "address"
            }
          ],
          "internalType": "struct IHederaTokenService.FixedFee[]",
          "name": "",
          "type": "tuple[]"
        },
        {
          "components": [
            {
              "internalType": "int64",
              "name": "numerator",
              "type": "int64"
            },
            {
              "internalType": "int64",
              "name": "denominator",
              "type": "int64"
            },
            {
              "internalType": "int64",
              "name": "minimumAmount",
              "type": "int64"
            },
            {
              "internalType": "int64",
              "name": "maximumAmount",
              "type": "int64"
            },
            {
              "internalType": "bool",
              "name": "netOfTransfers",
              "type": "bool"
            },
            {
              "internalType": "address",
              "name": "feeCollector",
              "type": "address"
            }
          ],
          "internalType": "struct IHederaTokenService.FractionalFee[]",
          "name": "",
          "type": "tuple[]"
        }
      ],
      "name": "updateFungibleTokenCustomFees",
      "outputs": [
        {
          "internalType": "int64",
          "name": "",
          "type": "int64"
        }
      ],
      "stateMutability": "nonpayable",
      "type": "function"
    },
    {
      "inputs": [
        {
          "internalType": "address",
          "name": "",
          "type": "address"
        },
        {
          "components": [
            {
              "internalType": "int64",
              "name": "amount",
              "type": "int64"
            },
            {
              "internalType": "address",
              "name": "tokenId",
              "type": "address"
            },
            {
              "internalType": "bool",
              "name": "useHbarsForPayment",
              "type": "bool"
            },
            {
              "internalType": "bool",
              "name": "useCurrentTokenForPayment",
              "type": "bool"
            },
            {
              "internalType": "address",
              "name": "feeCollector",
              "type": "address"
            }
          ],
          "internalType": "struct IHederaTokenService.FixedFee[]",
          "name": "",
          "type": "tuple[]"
        },
        {
          "components": [
            {
              "internalType": "int64",
              "name": "numerator",
              "type": "int64"
            },
            {
              "internalType": "int64",
              "name": "denominator",
              "type": "int64"
            },
            {
              "internalType": "int64",
              "name": "amount",
              "type": "int64"
            },
            {
              "internalType": "address",
              "name": "tokenId",
              "type": "address"
            },
            {
              "internalType": "bool",
              "name": "useHbarsForPayment",
              "type": "bool"
            },
            {
              "internalType": "address",
              "name": "feeCollector",
              "type": "address"
            }
          ],
          "internalType": "struct IHederaTokenService.RoyaltyFee[]",
          "name": "",
          "type": "tuple[]"
        }
      ],
      "name": "updateNonFungibleTokenCustomFees",
      "outputs": [
        {
          "internalType": "int64",
          "name": "",
          "type": "int64"
        }
      ],
      "stateMutability": "nonpayable",
      "type": "function"
    },
    {
      "inputs": [
        {
          "internalType": "address",
          "name": "",
          "type": "address"
        },
        {
          "components": [
            {
              "internalType": "int64",
              "name": "second",
              "type": "int64"
            },
            {
              "internalType": "address",
              "name": "autoRenewAccount",
              "type": "address"
            },
            {
              "internalType": "int64",
              "name": "autoRenewPeriod",
              "type": "int64"
            }
          ],
          "internalType": "struct IHederaTokenService.Expiry",
          "name": "",
          "type": "tuple"
        }
      ],
      "name": "updateTokenExpiryInfo",
      "outputs": [
        {
          "internalType": "int64",
          "name": "",
          "type": "int64"
        }
      ],
      "stateMutability": "nonpayable",
      "type": "function"
    },
    {
      "inputs": [
        {
          "internalType": "address",
          "name": "",
          "type": "address"
        },
        {
          "components": [
            {
              "internalType": "string",
              "name": "name",
              "type": "string"
            },
            {
              "internalType": "string",
              "name": "symbol",
              "type": "string"
            },
            {
              "internalType": "address",
              "name": "treasury",
              "type": "address"
            },
            {
              "internalType": "string",
              "name": "memo",
              "type": "string"
            },
            {
              "internalType": "bool",
              "name": "tokenSupplyType",
              "type": "bool"
            },
            {
              "internalType": "int64",
              "name": "maxSupply",
              "type": "int64"
            },
            {
              "internalType": "bool",
              "name": "freezeDefault",
              "type": "bool"
            },
            {
              "components": [
                {
                  "internalType": "int64",
                  "name": "second",
                  "type": "int64"
                },
                {
                  "internalType": "address",
                  "name": "autoRenewAccount",
                  "type": "address"
                },
                {
                  "internalType": "int64",
                  "name": "autoRenewPeriod",
                  "type": "int64"
                }
              ],
              "internalType": "struct IHederaTokenService.Expiry",
              "name": "expiry",
              "type": "tuple"
            }
          ],
          "internalType": "struct IHederaTokenService.HederaToken",
          "name": "",
          "type": "tuple"
        }
      ],
      "name": "updateTokenInfo",
      "outputs": [
        {
          "internalType": "int64",
          "name": "",
          "type": "int64"
        }
      ],
      "stateMutability": "nonpayable",
      "type": "function"
    },
    {
      "inputs": [
        {
          "internalType": "address",
          "name": "",
          "type": "address"
        },
        {
          "components": [
            {
              "internalType": "uint256",
              "name": "keyType",
              "type": "uint256"
            },
            {
              "components": [
                {
                  "internalType": "bool",
                  "name": "inheritAccountKey",
                  "type": "bool"
                },
                {
                  "internalType": "address",
                  "name": "contractId",
                  "type": "address"
                },
                {
                  "internalType": "bytes",
                  "name": "ed25519",
                  "type": "bytes"
                },
                {
                  "internalType": "bytes",
                  "name": "ECDSA_secp256k1",
                  "type": "bytes"
                },
                {
                  "internalType": "address",
                  "name": "delegatableContractId",
                  "type": "address"
                }
              ],
              "internalType": "struct IHederaTokenService.KeyValue",
              "name": "key",
              "type": "tuple"
            }
          ],
          "internalType": "struct IHederaTokenService.TokenKey[]",
          "name": "",
          "type": "tuple[]"
        }
      ],
      "name": "updateTokenKeys",
      "outputs": [
        {
          "internalType": "int64",
          "name": "",
          "type": "int64"
        }
      ],
      "stateMutability": "nonpayable",
      "type": "function"
    },
    {
      "inputs": [
        {
          "internalType": "address",
          "name": "",
          "type": "address"
        },
        {
          "internalType": "address",
          "name": "",
          "type": "address"
        },
        {
          "internalType": "int64",
          "name": "",
          "type": "int64"
        }
      ],
      "name": "wipeTokenAccount",
      "outputs": [
        {
          "internalType": "int64",
          "name": "",
          "type": "int64"
        }
      ],
      "stateMutability": "nonpayable",
      "type": "function"
    },
    {
      "inputs": [
        {
          "internalType": "address",
          "name": "",
          "type": "address"
        },
        {
          "internalType": "address",
          "name": "",
          "type": "address"
        },
        {
          "internalType": "int64[]",
          "name": "",
          "type": "int64[]"
        }
      ],
      "name": "wipeTokenAccountNFT",
      "outputs": [
        {
          "internalType": "int64",
          "name": "",
          "type": "int64"
        }
      ],
      "stateMutability": "nonpayable",
      "type": "function"
    }
  ],
  "bytecode": "0x608060405234801561001057600080fd5b50600680546001600160e01b03191660161790556133e1806100336000396000f3fe6080604052600436106103815760003560e01c80637c41ad2c116101d1578063d5f60c4711610102578063ebd595e0116100a0578063f2c31ff41161006f578063f2c31ff414610b84578063f49f40db14610ba9578063f6f1ca3614610bd0578063f7f38e2614610bde57600080fd5b8063ebd595e014610b2e578063eca3691714610b49578063efef57f914610b69578063f069f7121461067d57600080fd5b8063dbc619eb116100dc578063dbc619eb14610ade578063e0f4059a14610af1578063e1f21c67146107bf578063e41e7b7b14610b2057600080fd5b8063d5f60c4714610a28578063d614cdb814610a43578063d6910d0614610aa457600080fd5b8063a7daa18d1161016f578063af99c63311610149578063af99c6331461072f578063c097494614610937578063c76282ac146109f2578063d27be6cd14610a0d57600080fd5b8063a7daa18d146108ac578063ac9e6d7a146108c7578063ae7611a01461090757600080fd5b80638f8d7f99116101ab5780638f8d7f991461072f578063927da1051461083157806393272baf1461086b5780639b23d3d91461049b57600080fd5b80637c41ad2c1461067d5780638276a279146107fa57806382bba4931461081657600080fd5b806330727a29116102b657806349146bde11610254578063618dc65e11610223578063618dc65e146107655780636fc3cbaf146107a45780637336aaf0146107bf57806378b63918146107da57600080fd5b806349146bde1461070f57806352f913871461072f5780635b8f85841461072f5780635cfc90111461074a57600080fd5b80633b3bff0f116102905780633b3bff0f1461067d5780633c4dd32e146106985780633f28a19b146106c657806346de0fb1146106f457600080fd5b806330727a291461061e578063335e04c11461063e578063367605ca1461066257600080fd5b806319f3736111610323578063287e1da8116102fd578063287e1da81461059a5780632c4ba191146105c85780632e63879b146105e35780632f3481191461060357600080fd5b806319f37361146104bb5780631f69565f146105175780632175d7761461054557600080fd5b8063098f23661161035f578063098f236614610411578063099794e8146104585780630e71804f1461047857806315dacbea1461049b57600080fd5b8063012ebcaf14610386578063034f1ac2146103bf5780630596164114610386575b600080fd5b34801561039257600080fd5b506103a76103a1366004611847565b50601690565b60405160079190910b81526020015b60405180910390f35b3480156103cb57600080fd5b5061040f6103da366004611932565b600680546001600160a01b03909216600160401b026001600160e01b03199092166001600160401b0390931692909217179055565b005b34801561041d57600080fd5b5061043661042c366004611965565b5060169160009150565b6040805160079390930b83526001600160a01b039091166020830152016103b6565b34801561046457600080fd5b506103a761047336600461198f565b610bf9565b34801561048457600080fd5b506103a7610493366004611c05565b601692915050565b3480156104a757600080fd5b506103a76104b6366004611cac565b610c2f565b3480156104c757600080fd5b506104fd6104d6366004611cf7565b6001600160a01b039081166000908152600560205260409020600201546016929116151590565b6040805160079390930b83529015156020830152016103b6565b34801561052357600080fd5b50610537610532366004611cf7565b610c3a565b6040516103b6929190612081565b34801561055157600080fd5b5061040f61056036600461209d565b6001600160a01b03928316600090815260016020908152604080832094909516825292909252919020805460ff1916911515919091179055565b3480156105a657600080fd5b506105ba6105b53660046120e0565b610c57565b6040516103b692919061210a565b3480156105d457600080fd5b506103a76104b6366004612264565b3480156105ef57600080fd5b506103a76105fe3660046122fc565b610c75565b34801561060f57600080fd5b506103a76103a136600461233f565b34801561062a57600080fd5b506103a7610639366004612500565b610d62565b34801561064a57600080fd5b506104fd610659366004611cf7565b50601690600190565b34801561066e57600080fd5b506103a761063936600461209d565b34801561068957600080fd5b506103a76103a1366004611cf7565b3480156106a457600080fd5b506106b86106b3366004611965565b610d6c565b6040516103b6929190612573565b3480156106d257600080fd5b506106e66106e1366004611cf7565b610d7e565b6040516103b69291906125f2565b34801561070057600080fd5b506104fd61042c36600461198f565b34801561071b57600080fd5b506103a761072a36600461198f565b610d90565b34801561073b57600080fd5b506103a761049336600461198f565b34801561075657600080fd5b506103a76104b6366004612630565b34801561077157600080fd5b506107966107803660046126f3565b5050604080516020810190915260008152601691565b6040516103b6929190612736565b3480156107b057600080fd5b506103a7610493366004612752565b3480156107cb57600080fd5b506103a76106393660046128e7565b3480156107e657600080fd5b506103a76107f53660046122fc565b610e3f565b610436610808366004612b3d565b601660009550959350505050565b34801561082257600080fd5b506103a7610639366004612be6565b34801561083d57600080fd5b5061085161084c366004612c4f565b610eaf565b6040805160079390930b83526020830191909152016103b6565b34801561087757600080fd5b5061088f610886366004611cf7565b50601690600090565b6040805160079390930b835260039190910b6020830152016103b6565b3480156108b857600080fd5b506104fd610886366004611cf7565b3480156108d357600080fd5b5061040f6108e236600461198f565b6001600160a01b03166000908152602081905260409020805460ff1916600117905550565b34801561091357600080fd5b50610927610922366004611cf7565b610eeb565b6040516103b69493929190612c89565b34801561094357600080fd5b5061040f610952366004612ccb565b6001600160a01b03938416600090815260016020818152604080842030808652818452828620805460ff199081168717909155988a16865284845282862081875280855283872080548b1687179055978a16865284845282862090865280845282862080548a1686179055959098168452968152868320805487168317905593845285822080548616821790559190925292902080549091169091179055565b3480156109fe57600080fd5b506103a7610493366004612d14565b348015610a1957600080fd5b506103a7610493366004612d57565b348015610a3457600080fd5b506103a7610639366004612d82565b348015610a4f57600080fd5b50610a96610a5e366004611cf7565b506040805160608082018352600080835260208084018290529284018190528351918201845280825291810182905291820152601691565b6040516103b6929190612deb565b348015610ab057600080fd5b50610ac4610abf366004612e27565b611008565b60408051600793840b81529190920b6020820152016103b6565b610436610aec366004612e7a565b61106a565b348015610afd57600080fd5b50610b11610b0c366004612ece565b6113cf565b6040516103b693929190612fa1565b610436610886366004613003565b348015610b3a57600080fd5b506103a7610639366004613037565b348015610b5557600080fd5b506103a7610b64366004612630565b611471565b348015610b7557600080fd5b506103a7610639366004613134565b348015610b9057600080fd5b506104fd610b9f36600461198f565b5060169160019150565b348015610bb557600080fd5b506104fd610bc4366004612c4f565b60166000935093915050565b610436610bc436600461316e565b348015610bea57600080fd5b506103a76106393660046131bc565b6001600160a01b038082166000908152600160209081526040808320938616835292905220805460ff1916905560165b92915050565b60165b949350505050565b6000610c44611590565b610c4c611590565b601694909350915050565b6000610c6161163f565b610c6961163f565b60169590945092505050565b6000805b8251811015610d58576001806000858481518110610c9957610c996131e8565b60200260200101516001600160a01b03166001600160a01b031681526020019081526020016000206000866001600160a01b03166001600160a01b0316815260200190815260200160002060006101000a81548160ff0219169083151502179055507fb73c45028e15765b57e1aa21b09d3aa6a33894ea5278e1d103363f984b3a2447838281518110610d2e57610d2e6131e8565b6020026020010151856016604051610d48939291906131fe565b60405180910390a1600101610c79565b5060169392505050565b60165b9392505050565b6000610d7661167a565b610c6961167a565b6000610d886116bd565b610c4c6116bd565b6001600160a01b03808216600090815260016020908152604080832093861683529290529081205460ff1615610dc8575060ad610c29565b6001600160a01b038083166000908152600160208181526040808420948816845293905290829020805460ff19169091179055517fb73c45028e15765b57e1aa21b09d3aa6a33894ea5278e1d103363f984b3a244790610e2e90849086906016906131fe565b60405180910390a150601692915050565b6000805b8251811015610d5857600060016000858481518110610e6457610e646131e8565b6020908102919091018101516001600160a01b039081168352828201939093526040918201600090812093891681529290529020805460ff1916911515919091179055600101610e43565b6001600160a01b03808416600090815260036020908152604080832086851684528252808320938516835292905220546016905b935093915050565b604080516000808252602082019092526060908190819060169085610f46565b6040805160a081018252600080825260208083018290529282018190526060820181905260808201528252600019909201910181610f0b5790505b506040805160008082526020820190925290610f9f565b6040805160c08101825260008082526020808301829052928201819052606082018190526080820181905260a08201528252600019909201910181610f5d5790505b506040805160008082526020820190925290610ff8565b6040805160c08101825260008082526020808301829052928201819052606082018190526080820181905260a08201528252600019909201910181610fb65790505b5093509350935093509193509193565b3360009081526002602052604081205481906001600160401b0385169081111561103a57600d60009250925050610ee3565b336000908152600260205260408120805483929061105990849061323b565b909155506016979596505050505050565b600654600090819060070b6016146110eb5760065460408051600160401b83046001600160a01b0316815260079290920b60208301527ff2bd9ee0f805f0400eb427de41ff42ecbb8d13cd293bd1289a6b378532ad5d16910160405180910390a15050600654600781900b90600160401b90046001600160a01b0316610ee3565b600654600160401b90046001600160a01b03161561111b57600654600160401b90046001600160a01b031661115c565b604080514260208201526bffffffffffffffffffffffff193360601b16918101919091526054016040516020818303038152906040528051906020012060001c5b6001600160a01b038116600090815260056020526040902086519192508691819061118790826132d9565b506020820151600182019061119c90826132d9565b5060408201516002820180546001600160a01b0319166001600160a01b03909216919091179055606082015160038201906111d790826132d9565b50608082015160048201805460a085015160c086015168ffffffffffffffffff1990921693151568ffffffffffffffff001916939093176101006001600160401b03948516021769ff000000000000000000191669010000000000000000009115159190910217905560e09092015180516005830180546020808501519387166001600160e01b031990921691909117600160401b6001600160a01b0394851602179091556040928301516006909401805467ffffffffffffffff19169490951693909317909355838316600090815260018084528282208a840180519096168352909352819020805460ff1916909217909155905190517fb73c45028e15765b57e1aa21b09d3aa6a33894ea5278e1d103363f984b3a244791611300918491906016906131fe565b60405180910390a160008460070b1315611381576040858101516001600160a01b03908116600090815260026020908152908390206001600160401b03881690819055835192851683529082015260168183015290517f076afab2d1434e9659d29a63a3220a98ef8853378959685125f3c66bc4f90b809181900360600190a15b604080516001600160a01b0383168152601660208201527ff2bd9ee0f805f0400eb427de41ff42ecbb8d13cd293bd1289a6b378532ad5d16910160405180910390a160169150935093915050565b336000908152600260205260408120805482916060916001600160401b038716919084906113fe908490613398565b9091555050604080516001600160a01b03881681526001600160401b038716602082015260168183015290517f076afab2d1434e9659d29a63a3220a98ef8853378959685125f3c66bc4f90b809181900360600190a1505060408051600081526020810190915260169593945092915050565b6001600160a01b03841660009081526004602052604081205460070b801561149a579050610c32565b6001600160a01b0385166000908152600260205260409020546001600160401b038416908111156114d057600d92505050610c32565b6001600160a01b038616600090815260026020526040812080548392906114f890849061323b565b90915550506001600160a01b03851660009081526002602052604081208054839290611525908490613398565b9091555050604080516001600160a01b0389811682528881166020830152871681830152606081018390526016608082015290517f83d02cf5278a4d35d24e9857c57a4ab914f54fd6e5817b6c9a058ba03bfcbd639181900360a00190a15060169695505050505050565b60408051610220810182526060610120820181815261014083018290526000610160840181905261018084018390526101a084018190526101c084018190526101e084018190528451928301855280835260208301819052938201939093526102008201529081908152602001600060070b8152602001600015158152602001600015158152602001600015158152602001606081526020016060815260200160608152602001606081525090565b6040518060c00160405280611652611590565b8152600060208201819052604082018190526060808301829052608083015260a09091015290565b6040518060a0016040528060001515815260200160006001600160a01b03168152602001606081526020016060815260200160006001600160a01b031681525090565b60405180604001604052806116d0611590565b8152600060209091015290565b634e487b7160e01b600052604160045260246000fd5b604051608081016001600160401b0381118282101715611715576117156116dd565b60405290565b604051606081016001600160401b0381118282101715611715576117156116dd565b60405160a081016001600160401b0381118282101715611715576117156116dd565b60405160c081016001600160401b0381118282101715611715576117156116dd565b604080519081016001600160401b0381118282101715611715576117156116dd565b60405161010081016001600160401b0381118282101715611715576117156116dd565b604051601f8201601f191681016001600160401b03811182821017156117ee576117ee6116dd565b604052919050565b60006001600160401b0382111561180f5761180f6116dd565b5060051b60200190565b80356001600160a01b038116811461183057600080fd5b919050565b8035600781900b811461183057600080fd5b6000602080838503121561185a57600080fd5b82356001600160401b0381111561187057600080fd5b8301601f8101851361188157600080fd5b803561189461188f826117f6565b6117c6565b81815260079190911b820183019083810190878311156118b357600080fd5b928401925b8284101561192757608084890312156118d15760008081fd5b6118d96116f3565b6118e285611819565b81526118ef868601611819565b868201526040611900818701611819565b908201526060611911868201611835565b90820152825260809390930192908401906118b8565b979650505050505050565b6000806040838503121561194557600080fd5b61194e83611835565b915061195c60208401611819565b90509250929050565b6000806040838503121561197857600080fd5b61198183611819565b946020939093013593505050565b600080604083850312156119a257600080fd5b61194e83611819565b8035801515811461183057600080fd5b600082601f8301126119cc57600080fd5b813560206119dc61188f836117f6565b828152606092830285018201928282019190878511156119fb57600080fd5b8387015b85811015611a575781818a031215611a175760008081fd5b611a1f61171b565b611a2882611819565b8152611a35868301611835565b868201526040611a468184016119ab565b9082015284529284019281016119ff565b5090979650505050505050565b600082601f830112611a7557600080fd5b81356020611a8561188f836117f6565b82815260059290921b84018101918181019086841115611aa457600080fd5b8286015b84811015611bfa5780356001600160401b0380821115611ac757600080fd5b908801906060828b03601f19011215611adf57600080fd5b611ae761171b565b611af2878401611819565b815260408084013583811115611b0757600080fd5b611b158d8a838801016119bb565b8984015250606084013583811115611b2c57600080fd5b8085019450508b603f850112611b4157600080fd5b878401359250611b5361188f846117f6565b83815260079390931b8401810192888101908d851115611b7257600080fd5b948201945b84861015611be3576080868f031215611b8f57600080fd5b611b976116f3565b611ba087611819565b8152611bad8b8801611819565b8b820152611bbc848801611835565b84820152611bcc606088016119ab565b606082015282526080959095019490890190611b77565b918301919091525085525050918301918301611aa8565b509695505050505050565b60008060408385031215611c1857600080fd5b82356001600160401b0380821115611c2f57600080fd5b9084019060208287031215611c4357600080fd5b604051602081018181108382111715611c5e57611c5e6116dd565b604052823582811115611c7057600080fd5b611c7c888286016119bb565b82525093506020850135915080821115611c9557600080fd5b50611ca285828601611a64565b9150509250929050565b60008060008060808587031215611cc257600080fd5b611ccb85611819565b9350611cd960208601611819565b9250611ce760408601611819565b9396929550929360600135925050565b600060208284031215611d0957600080fd5b610d6582611819565b6000815180845260005b81811015611d3857602081850181015186830182015201611d1c565b506000602082860101526020601f19601f83011685010191505092915050565b60006101408251818552611d6e82860182611d12565b91505060208301518482036020860152611d888282611d12565b91505060018060a01b03604084015116604085015260608301518482036060860152611db48282611d12565b9150506080830151611dca608086018215159052565b5060a0830151611ddf60a086018260070b9052565b5060c0830151611df360c086018215159052565b5060e0830151611e2a60e08601828051600790810b83526020808301516001600160a01b031690840152604091820151900b910152565b509392505050565b60008151808452602080850194506020840160005b83811015611ea0578151805160070b8852838101516001600160a01b03908116858a01526040808301511515908a01526060808301511515908a0152608091820151169088015260a09096019590820190600101611e47565b509495945050505050565b60008151808452602080850194506020840160005b83811015611ea05781518051600790810b895284820151810b858a0152604080830151820b908a015260608083015190910b9089015260808082015115159089015260a0908101516001600160a01b03169088015260c09096019590820190600101611ec0565b60008151808452602080850194506020840160005b83811015611ea05781518051600790810b895284820151810b858a015260408083015190910b908901526060808201516001600160a01b03908116918a01919091526080808301511515908a015260a091820151169088015260c09096019590820190600101611f3c565b60006101208251818552611fbd82860182611d58565b9150506020830151611fd4602086018260070b9052565b506040830151611fe8604086018215159052565b506060830151611ffc606086018215159052565b506080830151612010608086018215159052565b5060a083015184820360a08601526120288282611e32565b91505060c083015184820360c08601526120428282611eab565b91505060e083015184820360e086015261205c8282611f27565b91505061010080840151858303828701526120778382611d12565b9695505050505050565b8260070b8152604060208201526000610c326040830184611fa7565b6000806000606084860312156120b257600080fd5b6120bb84611819565b92506120c960208501611819565b91506120d7604085016119ab565b90509250925092565b600080604083850312156120f357600080fd5b6120fc83611819565b915061195c60208401611835565b8260070b8152604060208201526000825160c06040840152612130610100840182611fa7565b9050602084015160070b6060840152604084015160018060a01b038082166080860152606086015160070b60a086015260808601519150603f198584030160c086015261217d8383611d12565b92508060a08701511660e08601525050809150509392505050565b600082601f8301126121a957600080fd5b813560206121b961188f836117f6565b8083825260208201915060208460051b8701019350868411156121db57600080fd5b602086015b84811015611bfa576121f181611819565b83529183019183016121e0565b600082601f83011261220f57600080fd5b8135602061221f61188f836117f6565b8083825260208201915060208460051b87010193508684111561224157600080fd5b602086015b84811015611bfa5761225781611835565b8352918301918301612246565b6000806000806080858703121561227a57600080fd5b61228385611819565b935060208501356001600160401b038082111561229f57600080fd5b6122ab88838901612198565b945060408701359150808211156122c157600080fd5b6122cd88838901612198565b935060608701359150808211156122e357600080fd5b506122f0878288016121fe565b91505092959194509250565b6000806040838503121561230f57600080fd5b61231883611819565b915060208301356001600160401b0381111561233357600080fd5b611ca285828601612198565b60006020828403121561235157600080fd5b81356001600160401b0381111561236757600080fd5b610c3284828501611a64565b600082601f83011261238457600080fd5b8135602061239461188f836117f6565b82815260a092830285018201928282019190878511156123b357600080fd5b8387015b85811015611a575781818a0312156123cf5760008081fd5b6123d761173d565b6123e082611835565b81526123ed868301611819565b8682015260406123fe8184016119ab565b90820152606061240f8382016119ab565b908201526080612420838201611819565b9082015284529284019281016123b7565b600082601f83011261244257600080fd5b8135602061245261188f836117f6565b82815260c0928302850182019282820191908785111561247157600080fd5b8387015b85811015611a575781818a03121561248d5760008081fd5b61249561175f565b61249e82611835565b81526124ab868301611835565b8682015260406124bc818401611835565b9082015260606124cd838201611819565b9082015260806124de8382016119ab565b9082015260a06124ef838201611819565b908201528452928401928101612475565b60008060006060848603121561251557600080fd5b61251e84611819565b925060208401356001600160401b038082111561253a57600080fd5b61254687838801612373565b9350604086013591508082111561255c57600080fd5b5061256986828701612431565b9150509250925092565b600783900b81526040602080830182905283511515828401528301516001600160a01b0390811660608401529083015160a060808401526000916125ba60e0850183611d12565b91506060850151603f198584030160a08601526125d78382611d12565b9250508060808601511660c085015250809150509392505050565b8260070b815260406020820152600082516040808401526126166080840182611fa7565b9050602084015160030b6060840152809150509392505050565b6000806000806080858703121561264657600080fd5b61264f85611819565b935061265d60208601611819565b925061266b60408601611819565b915061267960608601611835565b905092959194509250565b600082601f83011261269557600080fd5b81356001600160401b038111156126ae576126ae6116dd565b6126c1601f8201601f19166020016117c6565b8181528460208386010111156126d657600080fd5b816020850160208301376000918101602001919091529392505050565b6000806040838503121561270657600080fd5b61270f83611819565b915060208301356001600160401b0381111561272a57600080fd5b611ca285828601612684565b8260070b8152604060208201526000610c326040830184611d12565b6000806040838503121561276557600080fd5b61276e83611819565b915060208301356001600160401b038082111561278a57600080fd5b818501915085601f83011261279e57600080fd5b6127ab61188f83356117f6565b82358082526020808301929160051b850101888111156127ca57600080fd5b602085015b818110156128d85784813511156127e557600080fd5b80358601601f196040828d03820112156127fe57600080fd5b612806611781565b6020830135815260408301358881111561281f57600080fd5b929092019160a0838e038301121561283657600080fd5b61283e61173d565b915061284c602084016119ab565b825261285a60408401611819565b602083015260608301358881111561287157600080fd5b6128808e602083870101612684565b60408401525060808301358881111561289857600080fd5b6128a78e602083870101612684565b6060840152506128b960a08401611819565b60808301526020818101929092528652948501949190910190506127cf565b50959890975095505050505050565b6000806000606084860312156128fc57600080fd5b61290584611819565b925061291360208501611819565b9150604084013590509250925092565b60006060828403121561293557600080fd5b61293d61171b565b905061294882611835565b815261295660208301611819565b602082015261296760408301611835565b604082015292915050565b6000610140828403121561298557600080fd5b61298d6117a3565b905081356001600160401b03808211156129a657600080fd5b6129b285838601612684565b835260208401359150808211156129c857600080fd5b6129d485838601612684565b60208401526129e560408501611819565b604084015260608401359150808211156129fe57600080fd5b50612a0b84828501612684565b606083015250612a1d608083016119ab565b6080820152612a2e60a08301611835565b60a0820152612a3f60c083016119ab565b60c0820152612a518360e08401612923565b60e082015292915050565b8035600381900b811461183057600080fd5b600082601f830112612a7f57600080fd5b81356020612a8f61188f836117f6565b82815260c09283028501820192828201919087851115612aae57600080fd5b8387015b85811015611a575781818a031215612aca5760008081fd5b612ad261175f565b612adb82611835565b8152612ae8868301611835565b868201526040612af9818401611835565b908201526060612b0a838201611835565b908201526080612b1b8382016119ab565b9082015260a0612b2c838201611819565b908201528452928401928101612ab2565b600080600080600060a08688031215612b5557600080fd5b85356001600160401b0380821115612b6c57600080fd5b612b7889838a01612972565b9650612b8660208901611835565b9550612b9460408901612a5c565b94506060880135915080821115612baa57600080fd5b612bb689838a01612373565b93506080880135915080821115612bcc57600080fd5b50612bd988828901612a6e565b9150509295509295909350565b600080600060608486031215612bfb57600080fd5b612c0484611819565b925060208401356001600160401b0380821115612c2057600080fd5b612c2c87838801612198565b93506040860135915080821115612c4257600080fd5b50612569868287016121fe565b600080600060608486031215612c6457600080fd5b612c6d84611819565b9250612c7b60208501611819565b91506120d760408501611819565b8460070b8152608060208201526000612ca56080830186611e32565b8281036040840152612cb78186611eab565b905082810360608401526119278185611f27565b60008060008060808587031215612ce157600080fd5b612cea85611819565b9350612cf860208601611819565b9250612d0660408601611819565b915061267960608601611819565b60008060408385031215612d2757600080fd5b612d3083611819565b915060208301356001600160401b03811115612d4b57600080fd5b611ca285828601612972565b60008060808385031215612d6a57600080fd5b612d7383611819565b915061195c8460208501612923565b600080600060608486031215612d9757600080fd5b612da084611819565b925060208401356001600160401b0380821115612dbc57600080fd5b612dc887838801612373565b93506040860135915080821115612dde57600080fd5b5061256986828701612a6e565b600783900b815260808101610d6560208301848051600790810b83526020808301516001600160a01b031690840152604091820151900b910152565b600080600060608486031215612e3c57600080fd5b612e4584611819565b9250612e5360208501611835565b915060408401356001600160401b03811115612e6e57600080fd5b612569868287016121fe565b600080600060608486031215612e8f57600080fd5b83356001600160401b03811115612ea557600080fd5b612eb186828701612972565b935050612ec060208501611835565b91506120d760408501612a5c565b600080600060608486031215612ee357600080fd5b612eec84611819565b92506020612efb818601611835565b925060408501356001600160401b0380821115612f1757600080fd5b818701915087601f830112612f2b57600080fd5b8135612f3961188f826117f6565b81815260059190911b8301840190848101908a831115612f5857600080fd5b8585015b83811015612f9057803585811115612f745760008081fd5b612f828d89838a0101612684565b845250918601918601612f5c565b508096505050505050509250925092565b60006060820160078660070b845260208660070b60208601526060604086015282865180855260808701915060208801945060005b81811015612ff4578551850b83529483019491830191600101612fd6565b50909998505050505050505050565b60006020828403121561301557600080fd5b81356001600160401b0381111561302b57600080fd5b610c3284828501612972565b60008060006060848603121561304c57600080fd5b61305584611819565b92506020808501356001600160401b038082111561307257600080fd5b61307e88838901612198565b94506040915060408701358181111561309657600080fd5b87019050601f810188136130a957600080fd5b80356130b761188f826117f6565b81815260069190911b8201840190848101908a8311156130d657600080fd5b928501925b828410156131245784848c0312156130f35760008081fd5b6130fb611781565b61310485611819565b8152613111878601611835565b81880152825292840192908501906130db565b8096505050505050509250925092565b60008060006060848603121561314957600080fd5b61315284611819565b925061316060208501611819565b91506120d760408501611835565b60008060006060848603121561318357600080fd5b83356001600160401b038082111561319a57600080fd5b6131a687838801612972565b9450602086013591508082111561253a57600080fd5b6000806000606084860312156131d157600080fd5b6131da84611819565b9250612e5360208501611819565b634e487b7160e01b600052603260045260246000fd5b6001600160a01b03938416815291909216602082015260079190910b604082015260600190565b634e487b7160e01b600052601160045260246000fd5b81810381811115610c2957610c29613225565b600181811c9082168061326257607f821691505b60208210810361328257634e487b7160e01b600052602260045260246000fd5b50919050565b601f8211156132d4576000816000526020600020601f850160051c810160208610156132b15750805b601f850160051c820191505b818110156132d0578281556001016132bd565b5050505b505050565b81516001600160401b038111156132f2576132f26116dd565b61330681613300845461324e565b84613288565b602080601f83116001811461333b57600084156133235750858301515b600019600386901b1c1916600185901b1785556132d0565b600085815260208120601f198616915b8281101561336a5788860151825594840194600190910190840161334b565b50858210156133885787850151600019600388901b60f8161c191681555b5050505050600190811b01905550565b80820180821115610c2957610c2961322556fea2646970667358221220a6763d92da12f56485ed22ee346d70ad808afd55c6214d9824529691b9f075e864736f6c63430008180033",
  "linkReferences": {},
  "deployedLinkReferences": {}
}