{
  "_format": "hh-sol-artifact-1",
  "contractName": "IndexTokenController",
  "sourceName": "app/contracts/IndexTokenController.sol",
  "abi": [
    {
      "inputs": [
        {
          "internalType": "address",
          "name": "_vaultAddress",
          "type": "address"
        },
        {
          "internalType": "address",
          "name": "_htsAddress",
          "type": "address"
        }
      ],
      "stateMutability": "nonpayable",
      "type": "constructor"
    },
    {
      "inputs": [
        {
          "internalType": "address",
          "name": "token",
          "type": "address"
        },
        {
          "internalType": "int64",
          "name": "responseCode",
          "type": "int64"
        },
        {
          "internalType": "string",
          "name": "message",
          "type": "string"
        }
      ],
      "name": "HtsError",
      "type": "error"
    },
    {
      "inputs": [],
      "name": "InsufficientDeposits",
      "type": "error"
    },
    {
      "inputs": [],
      "name": "InvalidAmount",
      "type": "error"
    },
    {
      "inputs": [],
      "name": "NoSupplyKeyForToken",
      "type": "error"
    },
    {
      "inputs": [],
      "name": "OnlyAdmin",
      "type": "error"
    },
    {
      "inputs": [
        {
          "internalType": "int64",
          "name": "errorCode",
          "type": "int64"
        }
      ],
      "name": "TokenCreationFailed",
      "type": "error"
    },
    {
      "inputs": [
        {
          "internalType": "address",
          "name": "token",
          "type": "address"
        },
        {
          "internalType": "int64",
          "name": "errorCode",
          "type": "int64"
        }
      ],
      "name": "TokenMintFailed",
      "type": "error"
    },
    {
      "inputs": [
        {
          "internalType": "address",
          "name": "token",
          "type": "address"
        },
        {
          "internalType": "address",
          "name": "account",
          "type": "address"
        }
      ],
      "name": "TokenNotAssociated",
      "type": "error"
    },
    {
      "inputs": [
        {
          "internalType": "address",
          "name": "token",
          "type": "address"
        },
        {
          "internalType": "int64",
          "name": "errorCode",
          "type": "int64"
        }
      ],
      "name": "TokenTransferFailed",
      "type": "error"
    },
    {
      "anonymous": false,
      "inputs": [
        {
          "indexed": false,
          "internalType": "address",
          "name": "tokenAddress",
          "type": "address"
        },
        {
          "indexed": false,
          "internalType": "int64",
          "name": "responseCode",
          "type": "int64"
        }
      ],
      "name": "IndexTokenCreated",
      "type": "event"
    },
    {
      "anonymous": false,
      "inputs": [
        {
          "indexed": true,
          "internalType": "address",
          "name": "user",
          "type": "address"
        },
        {
          "indexed": false,
          "internalType": "uint256",
          "name": "amount",
          "type": "uint256"
        }
      ],
      "name": "IndexTokenMinted",
      "type": "event"
    },
    {
      "anonymous": false,
      "inputs": [
        {
          "indexed": true,
          "internalType": "address",
          "name": "tokenAddress",
          "type": "address"
        }
      ],
      "name": "IndexTokenSet",
      "type": "event"
    },
    {
      "anonymous": false,
      "inputs": [
        {
          "indexed": false,
          "internalType": "bool",
          "name": "hasKey",
          "type": "bool"
        }
      ],
      "name": "SupplyKeyVerified",
      "type": "event"
    },
    {
      "inputs": [],
      "name": "ADMIN",
      "outputs": [
        {
          "internalType": "address",
          "name": "",
          "type": "address"
        }
      ],
      "stateMutability": "view",
      "type": "function"
    },
    {
      "inputs": [],
      "name": "HTS_PRECOMPILE",
      "outputs": [
        {
          "internalType": "address",
          "name": "",
          "type": "address"
        }
      ],
      "stateMutability": "view",
      "type": "function"
    },
    {
      "inputs": [],
      "name": "INDEX_TOKEN",
      "outputs": [
        {
          "internalType": "address",
          "name": "",
          "type": "address"
        }
      ],
      "stateMutability": "view",
      "type": "function"
    },
    {
      "inputs": [],
      "name": "IS_SUPPLY_TYPE_INFINITE",
      "outputs": [
        {
          "internalType": "bool",
          "name": "",
          "type": "bool"
        }
      ],
      "stateMutability": "view",
      "type": "function"
    },
    {
      "inputs": [],
      "name": "TOKEN_DECIMALS",
      "outputs": [
        {
          "internalType": "uint8",
          "name": "",
          "type": "uint8"
        }
      ],
      "stateMutability": "view",
      "type": "function"
    },
    {
      "inputs": [],
      "name": "TOKEN_MAX_SUPPLY",
      "outputs": [
        {
          "internalType": "uint32",
          "name": "",
          "type": "uint32"
        }
      ],
      "stateMutability": "view",
      "type": "function"
    },
    {
      "inputs": [
        {
          "internalType": "uint256",
          "name": "amount",
          "type": "uint256"
        }
      ],
      "name": "calculateRequiredDeposits",
      "outputs": [
        {
          "internalType": "address[]",
          "name": "",
          "type": "address[]"
        },
        {
          "internalType": "uint256[]",
          "name": "",
          "type": "uint256[]"
        }
      ],
      "stateMutability": "view",
      "type": "function"
    },
    {
      "inputs": [],
      "name": "checkSupplyKey",
      "outputs": [],
      "stateMutability": "nonpayable",
      "type": "function"
    },
    {
      "inputs": [
        {
          "internalType": "string",
          "name": "name",
          "type": "string"
        },
        {
          "internalType": "string",
          "name": "symbol",
          "type": "string"
        },
        {
          "internalType": "string",
          "name": "memo",
          "type": "string"
        }
      ],
      "name": "createIndexToken",
      "outputs": [],
      "stateMutability": "nonpayable",
      "type": "function"
    },
    {
      "inputs": [],
      "name": "getTokenAddress",
      "outputs": [
        {
          "internalType": "address",
          "name": "",
          "type": "address"
        }
      ],
      "stateMutability": "view",
      "type": "function"
    },
    {
      "inputs": [],
      "name": "hasSupplyKey",
      "outputs": [
        {
          "internalType": "bool",
          "name": "",
          "type": "bool"
        }
      ],
      "stateMutability": "view",
      "type": "function"
    },
    {
      "inputs": [
        {
          "internalType": "address",
          "name": "recipient",
          "type": "address"
        },
        {
          "internalType": "uint256",
          "name": "amount",
          "type": "uint256"
        }
      ],
      "name": "mintTo",
      "outputs": [],
      "stateMutability": "nonpayable",
      "type": "function"
    },
    {
      "inputs": [
        {
          "internalType": "address",
          "name": "newIndexTokenAddress",
          "type": "address"
        }
      ],
      "name": "setIndexTokenId",
      "outputs": [],
      "stateMutability": "nonpayable",
      "type": "function"
    },
    {
      "inputs": [
        {
          "internalType": "bool",
          "name": "status",
          "type": "bool"
        }
      ],
      "name": "setSupplyKeyStatus",
      "outputs": [],
      "stateMutability": "nonpayable",
      "type": "function"
    },
    {
      "inputs": [
        {
          "internalType": "address",
          "name": "mockHts",
          "type": "address"
        }
      ],
      "name": "setTokenService",
      "outputs": [],
      "stateMutability": "nonpayable",
      "type": "function"
    },
    {
      "inputs": [],
      "name": "updateSupplyKeyStatus",
      "outputs": [],
      "stateMutability": "nonpayable",
      "type": "function"
    },
    {
      "inputs": [],
      "name": "vault",
      "outputs": [
        {
          "internalType": "contract IndexVault",
          "name": "",
          "type": "address"
        }
      ],
      "stateMutability": "view",
      "type": "function"
    },
    {
      "stateMutability": "payable",
      "type": "receive"
    }
  ],
  "bytecode": "0x60806040526002805460ff60a01b191690553480156200001e57600080fd5b5060405162001950380380620019508339810160408190526200004191620000c3565b6001600160a01b038116156200005857806200005c565b6101675b600380546001600160a01b039283166001600160a01b03199182161790915560028054949092169381169390931790555060018054821633179055600080549091169055620000fb565b80516001600160a01b0381168114620000be57600080fd5b919050565b60008060408385031215620000d757600080fd5b620000e283620000a6565b9150620000f260208401620000a6565b90509250929050565b611845806200010b6000396000f3fe6080604052600436106101025760003560e01c80638ee2c4b811610095578063c2f4bfaf11610064578063c2f4bfaf146102cd578063de579bc9146102e2578063e294204d146102f7578063f76c4a741461030c578063fbfa77cf1461032c57600080fd5b80638ee2c4b8146102355780638f9f8b011461025f578063aa13e5f11461028d578063c11201f7146102ad57600080fd5b8063449a52f8116100d1578063449a52f8146101b85780634543873d146101d85780634bb3c9cf146101ee5780635b7f415c1461020e57600080fd5b806310fe9ae81461010e5780632a0acc6a14610145578063331a4c2014610165578063335c3fe81461019657600080fd5b3661010957005b600080fd5b34801561011a57600080fd5b506000546001600160a01b03165b6040516001600160a01b0390911681526020015b60405180910390f35b34801561015157600080fd5b50600154610128906001600160a01b031681565b34801561017157600080fd5b5060025461018690600160a01b900460ff1681565b604051901515815260200161013c565b3480156101a257600080fd5b506101b66101b13660046110f1565b61034c565b005b3480156101c457600080fd5b506101b66101d336600461112a565b6103cf565b3480156101e457600080fd5b5061012861016781565b3480156101fa57600080fd5b506101b6610209366004611156565b6107fb565b34801561021a57600080fd5b50610223600881565b60405160ff909116815260200161013c565b34801561024157600080fd5b5061024a600081565b60405163ffffffff909116815260200161013c565b34801561026b57600080fd5b5061027f61027a366004611173565b610848565b60405161013c9291906111d0565b34801561029957600080fd5b506101b66102a8366004611156565b6108c7565b3480156102b957600080fd5b50600054610128906001600160a01b031681565b3480156102d957600080fd5b506101b6610a5a565b3480156102ee57600080fd5b506101b6610a8f565b34801561030357600080fd5b50610186600181565b34801561031857600080fd5b506101b6610327366004611270565b610bae565b34801561033857600080fd5b50600254610128906001600160a01b031681565b6001546001600160a01b0316331461037757604051634755657960e01b815260040160405180910390fd5b60028054821515600160a01b0260ff60a01b199091161790556040517f40a36e95e1165e03b5c30095cd9d1e9fa9d8aa98d06aa1d6432a77718c0b68f0906103c490831515815260200190565b60405180910390a150565b6001546001600160a01b031633146103fa57604051634755657960e01b815260040160405180910390fd5b600254600160a01b900460ff166104245760405163b291599960e01b815260040160405180910390fd5b806000036104455760405163162908e360e11b815260040160405180910390fd5b600354600054604051631c97fa2960e21b81526001600160a01b039182166004820152848216602482015291169063725fe8a490604401602060405180830381865afa158015610499573d6000803e3d6000fd5b505050506040513d601f19601f820116820180604052508101906104bd919061130a565b6104f657600054604051632460bcbb60e21b81526001600160a01b03918216600482015290831660248201526044015b60405180910390fd5b600254604051635cea93e360e11b81526001600160a01b03848116600483015260248201849052600092169063b9d527c690604401602060405180830381865afa158015610548573d6000803e3d6000fd5b505050506040513d601f19601f8201168201806040525081019061056c919061130a565b90508061058c5760405163a2725db560e01b815260040160405180910390fd5b60408051600080825260208201909252816105b7565b60608152602001906001900390816105a25790505b50600354600080546040516376096e0160e11b815293945090926001600160a01b039283169263ec12dc02926105f69291169088908790600401611383565b6020604051808303816000875af1158015610615573d6000803e3d6000fd5b505050506040513d601f19601f820116820180604052508101906106399190611413565b90508060070b60001461074b5760008160070b600019146106ee578160070b600119146106c3578160070b60021914610697576040518060400160405280600d81526020016c2ab735b737bbb71032b93937b960991b81525061071c565b6040518060400160405280600e81526020016d125b9d985b1a5908185b5bdd5b9d60921b81525061071c565b6040518060400160405280600d81526020016c4e6f20737570706c79206b657960981b81525061071c565b60405180604001604052806014815260200173151bdad95b881b9bdd08185cdcdbd8da585d195960621b8152505b6000546040516389a219dd60e01b81529192506104ed916001600160a01b03909116908490849060040161142e565b60025460405163746b934560e01b81526001600160a01b038781166004830152602482018790529091169063746b934590604401600060405180830381600087803b15801561079957600080fd5b505af11580156107ad573d6000803e3d6000fd5b50505050846001600160a01b03167fb10d72c4fed7257575e1cb903701345d622e81a97d514c757eeb7bd26dd2f36f856040516107ec91815260200190565b60405180910390a25050505050565b6001546001600160a01b0316331461082657604051634755657960e01b815260040160405180910390fd5b600380546001600160a01b0319166001600160a01b0392909216919091179055565b600254604051638f9f8b0160e01b81526004810183905260609182916001600160a01b0390911690638f9f8b0190602401600060405180830381865afa158015610896573d6000803e3d6000fd5b505050506040513d6000823e601f3d908101601f191682016040526108be9190810190611521565b91509150915091565b6001546001600160a01b031633146108f257604051634755657960e01b815260040160405180910390fd5b6000546001600160a01b03161561094b5760405162461bcd60e51b815260206004820152601760248201527f496e64657820746f6b656e20616c72656164792073657400000000000000000060448201526064016104ed565b6001600160a01b0381166109a15760405162461bcd60e51b815260206004820152601a60248201527f43616e6e6f742073657420746f207a65726f206164647265737300000000000060448201526064016104ed565b600080546001600160a01b0319166001600160a01b0383161790556109c4610a8f565b60025460405163b82a35c560e01b81526001600160a01b0383811660048301529091169063b82a35c590602401600060405180830381600087803b158015610a0b57600080fd5b505af1158015610a1f573d6000803e3d6000fd5b50506040516001600160a01b03841692507f40cdac5625b9528b38b786c9b74c257c1de10eac74b82c0ebc45a652cd8bcf639150600090a250565b6001546001600160a01b03163314610a8557604051634755657960e01b815260040160405180910390fd5b610a8d610a8f565b565b6000546001600160a01b0316610ae3576002805460ff60a01b19169055604051600081527f40a36e95e1165e03b5c30095cd9d1e9fa9d8aa98d06aa1d6432a77718c0b68f0906020015b60405180910390a1565b600354600054604051632e1a634560e11b81526001600160a01b039182166004820152306024820152911690635c34c68a90604401602060405180830381865afa158015610b35573d6000803e3d6000fd5b505050506040513d601f19601f82011682018060405250810190610b59919061130a565b6002805460ff60a01b1916600160a01b9215158302179081905560405160ff9290910491909116151581527f40a36e95e1165e03b5c30095cd9d1e9fa9d8aa98d06aa1d6432a77718c0b68f090602001610ad9565b6001546001600160a01b03163314610bd957604051634755657960e01b815260040160405180910390fd5b6000546001600160a01b031615610c325760405162461bcd60e51b815260206004820152601a60248201527f496e64657820746f6b656e20616c72656164792065786973747300000000000060448201526064016104ed565b60408051600180825281830190925260009160208083019080368337505060015482519293506001600160a01b031691839150600090610c7457610c746115e6565b6001600160a01b0392909216602092830291909101909101526040805160018082528183019092526000918160200160208202803683370190505090503081600081518110610cc557610cc56115e6565b6001600160a01b03929092166020928302919091018201526040805160008082526101e0601f8c018590048502830181019093526101c082018b8152919390929084019182918d908d9081908801838280828437600092019190915250505090825250604080516020601f8c018190048102820181019092528a815291810191908b908b90819084018382808284376000920191909152505050908252506002546001600160a01b031660208083019190915260408051601f8a018390048302810183018252898152920191908990899081908401838280828437600092018290525093855250506001602084015250604080830182905260608084018390526080840187905260a0840187905260c0840188905260e084018990526101008401879052600861012090940193909352805160028082529381019091529293509190816020016020820280368337019050509050600181600081518110610e2e57610e2e6115e6565b602002602001019060ff16908160ff1681525050600481600181518110610e5757610e576115e6565b60ff929092166020928302919091018201526040805160028082526060820183526000939192909183019080368337505060015482519293506001600160a01b031691839150600090610eac57610eac6115e6565b60200260200101906001600160a01b031690816001600160a01b0316815250503081600181518110610ee057610ee06115e6565b6001600160a01b03928316602091820292909201015260035460405162db106560e11b8152600092839216906301b620ca908390610f2890899083908a908a9060040161162f565b604080518083038185885af1158015610f45573d6000803e3d6000fd5b50505050506040513d601f19601f82011682018060405250810190610f6a91906117d8565b915091508160070b600014610f9757604051622a27bf60e01b8152600783900b60048201526024016104ed565b600080546001600160a01b0319166001600160a01b03838116918217835560035460405163248a35ef60e11b8152306004820152602481019390935216906349146bde906044016020604051808303816000875af1158015610ffd573d6000803e3d6000fd5b505050506040513d601f19601f820116820180604052508101906110219190611413565b60025460405163b82a35c560e01b81526001600160a01b03858116600483015292935091169063b82a35c590602401600060405180830381600087803b15801561106a57600080fd5b505af115801561107e573d6000803e3d6000fd5b5050505061108a610a8f565b604080516001600160a01b0384168152600785900b60208201527f6eac19c9a21d5e9d36083852c56740284f5b210efee80c1cd2527b3d4c58fcf6910160405180910390a1505050505050505050505050505050565b80151581146110ee57600080fd5b50565b60006020828403121561110357600080fd5b813561110e816110e0565b9392505050565b6001600160a01b03811681146110ee57600080fd5b6000806040838503121561113d57600080fd5b823561114881611115565b946020939093013593505050565b60006020828403121561116857600080fd5b813561110e81611115565b60006020828403121561118557600080fd5b5035919050565b600081518084526020808501945080840160005b838110156111c55781516001600160a01b0316875295820195908201906001016111a0565b509495945050505050565b6040815260006111e3604083018561118c565b82810360208481019190915284518083528582019282019060005b8181101561121a578451835293830193918301916001016111fe565b5090979650505050505050565b60008083601f84011261123957600080fd5b50813567ffffffffffffffff81111561125157600080fd5b60208301915083602082850101111561126957600080fd5b9250929050565b6000806000806000806060878903121561128957600080fd5b863567ffffffffffffffff808211156112a157600080fd5b6112ad8a838b01611227565b909850965060208901359150808211156112c657600080fd5b6112d28a838b01611227565b909650945060408901359150808211156112eb57600080fd5b506112f889828a01611227565b979a9699509497509295939492505050565b60006020828403121561131c57600080fd5b815161110e816110e0565b634e487b7160e01b600052604160045260246000fd5b6000815180845260005b8181101561136357602081850181015186830182015201611347565b506000602082860101526020601f19601f83011685010191505092915050565b60006060820160018060a01b0386168352602085818501526060604085015281855180845260808601915060808160051b870101935082870160005b828110156113ed57607f198887030184526113db86835161133d565b955092840192908401906001016113bf565b50939998505050505050505050565b8051600781900b811461140e57600080fd5b919050565b60006020828403121561142557600080fd5b61110e826113fc565b60018060a01b03841681528260070b6020820152606060408201526000611458606083018461133d565b95945050505050565b604051601f8201601f1916810167ffffffffffffffff8111828210171561148a5761148a611327565b604052919050565b600067ffffffffffffffff8211156114ac576114ac611327565b5060051b60200190565b600082601f8301126114c757600080fd5b815160206114dc6114d783611492565b611461565b82815260059290921b840181019181810190868411156114fb57600080fd5b8286015b8481101561151657805183529183019183016114ff565b509695505050505050565b6000806040838503121561153457600080fd5b825167ffffffffffffffff8082111561154c57600080fd5b818501915085601f83011261156057600080fd5b815160206115706114d783611492565b82815260059290921b8401810191818101908984111561158f57600080fd5b948201945b838610156115b65785516115a781611115565b82529482019490820190611594565b918801519196509093505050808211156115cf57600080fd5b506115dc858286016114b6565b9150509250929050565b634e487b7160e01b600052603260045260246000fd5b600081518084526020808501945080840160005b838110156111c557815160ff1687529582019590820190600101611610565b60808152600085516101a080608085015261164e61022085018361133d565b91506020880151607f19808685030160a087015261166c848361133d565b935060408a0151915061168a60c08701836001600160a01b03169052565b60608a01519150808685030160e08701526116a5848361133d565b935060808a015191506101006116be8188018415159052565b60a08b015192506101206116d98189018563ffffffff169052565b60c08c015193506101406116f0818a018615159052565b60e08d01519450610160848a890301818b015261170d888761118c565b9750838e015195506101809350848a890301848b015261172d888761118c565b9750828e01519550848a890301878b0152611748888761118c565b9750818e01519650848a8903016101c08b0152611765888861118c565b9750808e0151965050505081878603016101e0880152611785858561118c565b9450808b015193505050506117a061020085018260ff169052565b5085602084015282810360408401526117b981866115fc565b905082810360608401526117cd818561118c565b979650505050505050565b600080604083850312156117eb57600080fd5b6117f4836113fc565b9150602083015161180481611115565b80915050925092905056fea2646970667358221220ee44d251b0959d1e06603823f2811a90f3d7893ca5bf369272138f173efc8d6e64736f6c63430008120033",
  "linkReferences": {},
  "deployedLinkReferences": {}
}