{
  "_format": "hh-sol-artifact-1",
  "contractName": "IndexTokenController",
  "sourceName": "app/contracts/IndexTokenController.sol",
  "abi": [
    {
      "inputs": [
        {
          "internalType": "address",
          "name": "_vaultAddress",
          "type": "address"
        },
        {
          "internalType": "address",
          "name": "_htsAddress",
          "type": "address"
        }
      ],
      "stateMutability": "nonpayable",
      "type": "constructor"
    },
    {
      "inputs": [
        {
          "internalType": "address",
          "name": "token",
          "type": "address"
        },
        {
          "internalType": "int64",
          "name": "responseCode",
          "type": "int64"
        },
        {
          "internalType": "string",
          "name": "message",
          "type": "string"
        }
      ],
      "name": "HtsError",
      "type": "error"
    },
    {
      "inputs": [],
      "name": "InsufficientDeposits",
      "type": "error"
    },
    {
      "inputs": [],
      "name": "InvalidAmount",
      "type": "error"
    },
    {
      "inputs": [],
      "name": "NoSupplyKeyForToken",
      "type": "error"
    },
    {
      "inputs": [],
      "name": "OnlyAdmin",
      "type": "error"
    },
    {
      "inputs": [
        {
          "internalType": "int64",
          "name": "errorCode",
          "type": "int64"
        }
      ],
      "name": "TokenCreationFailed",
      "type": "error"
    },
    {
      "inputs": [
        {
          "internalType": "address",
          "name": "token",
          "type": "address"
        },
        {
          "internalType": "int64",
          "name": "errorCode",
          "type": "int64"
        }
      ],
      "name": "TokenMintFailed",
      "type": "error"
    },
    {
      "inputs": [
        {
          "internalType": "address",
          "name": "token",
          "type": "address"
        },
        {
          "internalType": "address",
          "name": "account",
          "type": "address"
        }
      ],
      "name": "TokenNotAssociated",
      "type": "error"
    },
    {
      "inputs": [
        {
          "internalType": "address",
          "name": "token",
          "type": "address"
        },
        {
          "internalType": "int64",
          "name": "errorCode",
          "type": "int64"
        }
      ],
      "name": "TokenTransferFailed",
      "type": "error"
    },
    {
      "anonymous": false,
      "inputs": [
        {
          "indexed": false,
          "internalType": "address",
          "name": "tokenAddress",
          "type": "address"
        },
        {
          "indexed": false,
          "internalType": "int64",
          "name": "responseCode",
          "type": "int64"
        }
      ],
      "name": "IndexTokenCreated",
      "type": "event"
    },
    {
      "anonymous": false,
      "inputs": [
        {
          "indexed": true,
          "internalType": "address",
          "name": "user",
          "type": "address"
        },
        {
          "indexed": false,
          "internalType": "uint256",
          "name": "amount",
          "type": "uint256"
        }
      ],
      "name": "IndexTokenMinted",
      "type": "event"
    },
    {
      "anonymous": false,
      "inputs": [
        {
          "indexed": true,
          "internalType": "address",
          "name": "tokenAddress",
          "type": "address"
        }
      ],
      "name": "IndexTokenSet",
      "type": "event"
    },
    {
      "anonymous": false,
      "inputs": [
        {
          "indexed": false,
          "internalType": "bool",
          "name": "hasKey",
          "type": "bool"
        }
      ],
      "name": "SupplyKeyVerified",
      "type": "event"
    },
    {
      "anonymous": false,
      "inputs": [
        {
          "indexed": false,
          "internalType": "address",
          "name": "account",
          "type": "address"
        },
        {
          "indexed": false,
          "internalType": "address",
          "name": "token",
          "type": "address"
        },
        {
          "indexed": false,
          "internalType": "int64",
          "name": "responseCode",
          "type": "int64"
        }
      ],
      "name": "TokenAssociationAttempt",
      "type": "event"
    },
    {
      "anonymous": false,
      "inputs": [
        {
          "indexed": false,
          "internalType": "string",
          "name": "name",
          "type": "string"
        },
        {
          "indexed": false,
          "internalType": "string",
          "name": "symbol",
          "type": "string"
        },
        {
          "indexed": false,
          "internalType": "address",
          "name": "treasury",
          "type": "address"
        },
        {
          "indexed": false,
          "internalType": "address[]",
          "name": "supplyKey",
          "type": "address[]"
        },
        {
          "indexed": false,
          "internalType": "address[]",
          "name": "adminKey",
          "type": "address[]"
        },
        {
          "indexed": false,
          "internalType": "address[]",
          "name": "autoRenewKey",
          "type": "address[]"
        }
      ],
      "name": "TokenCreationAttempt",
      "type": "event"
    },
    {
      "anonymous": false,
      "inputs": [
        {
          "indexed": false,
          "internalType": "int64",
          "name": "responseCode",
          "type": "int64"
        },
        {
          "indexed": false,
          "internalType": "address",
          "name": "tokenAddress",
          "type": "address"
        },
        {
          "indexed": false,
          "internalType": "string",
          "name": "errorMessage",
          "type": "string"
        }
      ],
      "name": "TokenCreationResponse",
      "type": "event"
    },
    {
      "inputs": [],
      "name": "ADMIN",
      "outputs": [
        {
          "internalType": "address",
          "name": "",
          "type": "address"
        }
      ],
      "stateMutability": "view",
      "type": "function"
    },
    {
      "inputs": [],
      "name": "AUTO_RENEW_PERIOD",
      "outputs": [
        {
          "internalType": "uint32",
          "name": "",
          "type": "uint32"
        }
      ],
      "stateMutability": "view",
      "type": "function"
    },
    {
      "inputs": [],
      "name": "HTS_PRECOMPILE",
      "outputs": [
        {
          "internalType": "address",
          "name": "",
          "type": "address"
        }
      ],
      "stateMutability": "view",
      "type": "function"
    },
    {
      "inputs": [],
      "name": "INDEX_TOKEN",
      "outputs": [
        {
          "internalType": "address",
          "name": "",
          "type": "address"
        }
      ],
      "stateMutability": "view",
      "type": "function"
    },
    {
      "inputs": [],
      "name": "IS_SUPPLY_TYPE_INFINITE",
      "outputs": [
        {
          "internalType": "bool",
          "name": "",
          "type": "bool"
        }
      ],
      "stateMutability": "view",
      "type": "function"
    },
    {
      "inputs": [],
      "name": "TOKEN_DECIMALS",
      "outputs": [
        {
          "internalType": "uint8",
          "name": "",
          "type": "uint8"
        }
      ],
      "stateMutability": "view",
      "type": "function"
    },
    {
      "inputs": [],
      "name": "TOKEN_MAX_SUPPLY",
      "outputs": [
        {
          "internalType": "uint32",
          "name": "",
          "type": "uint32"
        }
      ],
      "stateMutability": "view",
      "type": "function"
    },
    {
      "inputs": [
        {
          "internalType": "uint256",
          "name": "amount",
          "type": "uint256"
        }
      ],
      "name": "calculateRequiredDeposits",
      "outputs": [
        {
          "internalType": "address[]",
          "name": "",
          "type": "address[]"
        },
        {
          "internalType": "uint256[]",
          "name": "",
          "type": "uint256[]"
        }
      ],
      "stateMutability": "view",
      "type": "function"
    },
    {
      "inputs": [],
      "name": "checkSupplyKey",
      "outputs": [],
      "stateMutability": "nonpayable",
      "type": "function"
    },
    {
      "inputs": [
        {
          "internalType": "string",
          "name": "name",
          "type": "string"
        },
        {
          "internalType": "string",
          "name": "symbol",
          "type": "string"
        },
        {
          "internalType": "string",
          "name": "memo",
          "type": "string"
        }
      ],
      "name": "createIndexToken",
      "outputs": [],
      "stateMutability": "payable",
      "type": "function"
    },
    {
      "inputs": [],
      "name": "getTokenAddress",
      "outputs": [
        {
          "internalType": "address",
          "name": "",
          "type": "address"
        }
      ],
      "stateMutability": "view",
      "type": "function"
    },
    {
      "inputs": [],
      "name": "hasSupplyKey",
      "outputs": [
        {
          "internalType": "bool",
          "name": "",
          "type": "bool"
        }
      ],
      "stateMutability": "view",
      "type": "function"
    },
    {
      "inputs": [
        {
          "internalType": "address",
          "name": "recipient",
          "type": "address"
        },
        {
          "internalType": "uint256",
          "name": "amount",
          "type": "uint256"
        }
      ],
      "name": "mintTo",
      "outputs": [],
      "stateMutability": "nonpayable",
      "type": "function"
    },
    {
      "inputs": [
        {
          "internalType": "address",
          "name": "newIndexTokenAddress",
          "type": "address"
        }
      ],
      "name": "setIndexTokenId",
      "outputs": [],
      "stateMutability": "nonpayable",
      "type": "function"
    },
    {
      "inputs": [
        {
          "internalType": "bool",
          "name": "status",
          "type": "bool"
        }
      ],
      "name": "setSupplyKeyStatus",
      "outputs": [],
      "stateMutability": "nonpayable",
      "type": "function"
    },
    {
      "inputs": [
        {
          "internalType": "address",
          "name": "mockHts",
          "type": "address"
        }
      ],
      "name": "setTokenService",
      "outputs": [],
      "stateMutability": "nonpayable",
      "type": "function"
    },
    {
      "inputs": [],
      "name": "updateSupplyKeyStatus",
      "outputs": [],
      "stateMutability": "nonpayable",
      "type": "function"
    },
    {
      "inputs": [],
      "name": "vault",
      "outputs": [
        {
          "internalType": "contract IndexVault",
          "name": "",
          "type": "address"
        }
      ],
      "stateMutability": "view",
      "type": "function"
    },
    {
      "stateMutability": "payable",
      "type": "receive"
    }
  ],
  "bytecode": "0x60806040526002805460ff60a01b191690553480156200001e57600080fd5b5060405162001a1438038062001a148339810160408190526200004191620000c3565b6001600160a01b038116156200005857806200005c565b6101675b600380546001600160a01b039283166001600160a01b03199182161790915560028054949092169381169390931790555060018054821633179055600080549091169055620000fb565b80516001600160a01b0381168114620000be57600080fd5b919050565b60008060408385031215620000d757600080fd5b620000e283620000a6565b9150620000f260208401620000a6565b90509250929050565b611909806200010b6000396000f3fe60806040526004361061010d5760003560e01c80638ee2c4b811610095578063c2f4bfaf11610064578063c2f4bfaf146102ef578063de579bc914610304578063e294204d14610319578063f76c4a741461032e578063fbfa77cf1461034157600080fd5b80638ee2c4b81461026c5780638f9f8b0114610281578063aa13e5f1146102af578063c11201f7146102cf57600080fd5b8063335c3fe8116100dc578063335c3fe8146101cd578063449a52f8146101ef5780634543873d1461020f5780634bb3c9cf146102255780635b7f415c1461024557600080fd5b8063041dbadf1461011957806310fe9ae81461014a5780632a0acc6a1461017c578063331a4c201461019c57600080fd5b3661011457005b600080fd5b34801561012557600080fd5b50610130626acfc081565b60405163ffffffff90911681526020015b60405180910390f35b34801561015657600080fd5b506000546001600160a01b03165b6040516001600160a01b039091168152602001610141565b34801561018857600080fd5b50600154610164906001600160a01b031681565b3480156101a857600080fd5b506002546101bd90600160a01b900460ff1681565b6040519015158152602001610141565b3480156101d957600080fd5b506101ed6101e83660046110f1565b610361565b005b3480156101fb57600080fd5b506101ed61020a36600461112a565b6103e4565b34801561021b57600080fd5b5061016461016781565b34801561023157600080fd5b506101ed610240366004611156565b61074a565b34801561025157600080fd5b5061025a600881565b60405160ff9091168152602001610141565b34801561027857600080fd5b50610130600081565b34801561028d57600080fd5b506102a161029c366004611173565b610797565b6040516101419291906111d1565b3480156102bb57600080fd5b506101ed6102ca366004611156565b610816565b3480156102db57600080fd5b50600054610164906001600160a01b031681565b3480156102fb57600080fd5b506101ed6109a9565b34801561031057600080fd5b506101ed6109de565b34801561032557600080fd5b506101bd600181565b6101ed61033c366004611271565b610a81565b34801561034d57600080fd5b50600254610164906001600160a01b031681565b6001546001600160a01b0316331461038c57604051634755657960e01b815260040160405180910390fd5b60028054821515600160a01b0260ff60a01b199091161790556040517f40a36e95e1165e03b5c30095cd9d1e9fa9d8aa98d06aa1d6432a77718c0b68f0906103d990831515815260200190565b60405180910390a150565b600254600160a01b900460ff1661040e5760405163b291599960e01b815260040160405180910390fd5b8060000361042f5760405163162908e360e11b815260040160405180910390fd5b600254604051635cea93e360e11b81526001600160a01b03848116600483015260248201849052600092169063b9d527c690604401602060405180830381865afa158015610481573d6000803e3d6000fd5b505050506040513d601f19601f820116820180604052508101906104a5919061130b565b9050806104c55760405163a2725db560e01b815260040160405180910390fd5b60408051600080825260208201909252816104f0565b60608152602001906001900390816104db5790505b506003546000805460405163707a02cd60e11b81529394509092839283926001600160a01b039182169263e0f4059a926105329216908a908990600401611384565b6000604051808303816000875af1158015610551573d6000803e3d6000fd5b505050506040513d6000823e601f3d908101601f19168201604052610579919081019061146e565b9250925092508260070b6000146106985760008360070b60001914610632578360070b60011914610607578360070b600219146105db576040518060400160405280600d81526020016c2ab735b737bbb71032b93937b960991b815250610660565b6040518060400160405280600e81526020016d125b9d985b1a5908185b5bdd5b9d60921b815250610660565b6040518060400160405280600d81526020016c4e6f20737570706c79206b657960981b815250610660565b60405180604001604052806014815260200173151bdad95b881b9bdd08185cdcdbd8da585d195960621b8152505b6000546040516389a219dd60e01b815291925061068f916001600160a01b03909116908690849060040161152e565b60405180910390fd5b60025460405163746b934560e01b81526001600160a01b038981166004830152602482018990529091169063746b934590604401600060405180830381600087803b1580156106e657600080fd5b505af11580156106fa573d6000803e3d6000fd5b50505050866001600160a01b03167fb10d72c4fed7257575e1cb903701345d622e81a97d514c757eeb7bd26dd2f36f8760405161073991815260200190565b60405180910390a250505050505050565b6001546001600160a01b0316331461077557604051634755657960e01b815260040160405180910390fd5b600380546001600160a01b0319166001600160a01b0392909216919091179055565b600254604051638f9f8b0160e01b81526004810183905260609182916001600160a01b0390911690638f9f8b0190602401600060405180830381865afa1580156107e5573d6000803e3d6000fd5b505050506040513d6000823e601f3d908101601f1916820160405261080d91908101906115cb565b91509150915091565b6001546001600160a01b0316331461084157604051634755657960e01b815260040160405180910390fd5b6000546001600160a01b03161561089a5760405162461bcd60e51b815260206004820152601760248201527f496e64657820746f6b656e20616c726561647920736574000000000000000000604482015260640161068f565b6001600160a01b0381166108f05760405162461bcd60e51b815260206004820152601a60248201527f43616e6e6f742073657420746f207a65726f2061646472657373000000000000604482015260640161068f565b600080546001600160a01b0319166001600160a01b0383161790556109136109de565b60025460405163b82a35c560e01b81526001600160a01b0383811660048301529091169063b82a35c590602401600060405180830381600087803b15801561095a57600080fd5b505af115801561096e573d6000803e3d6000fd5b50506040516001600160a01b03841692507f40cdac5625b9528b38b786c9b74c257c1de10eac74b82c0ebc45a652cd8bcf639150600090a250565b6001546001600160a01b031633146109d457604051634755657960e01b815260040160405180910390fd5b6109dc6109de565b565b6000546001600160a01b0316610a32576002805460ff60a01b19169055604051600081527f40a36e95e1165e03b5c30095cd9d1e9fa9d8aa98d06aa1d6432a77718c0b68f0906020015b60405180910390a1565b6002805460ff60a01b1916600160a01b908117918290556040517f40a36e95e1165e03b5c30095cd9d1e9fa9d8aa98d06aa1d6432a77718c0b68f092610a2892900460ff161515815260200190565b6000546001600160a01b031615610ada5760405162461bcd60e51b815260206004820152601a60248201527f496e64657820746f6b656e20616c726561647920657869737473000000000000604482015260640161068f565b60408051600180825281830190925260009160208083019080368337505060015482519293506001600160a01b031691839150600090610b1c57610b1c611690565b6001600160a01b0392909216602092830291909101909101526040805160018082528183019092526000918160200160208202803683370190505090503081600081518110610b6d57610b6d611690565b6001600160a01b03929092166020928302919091018201526040805160008082529281019091526002546040519192507f548ea41ba0825ced44081d4a4be5448de2c997105b5ee488025c4e49bc9a395691610be0918c918c918c918c916001600160a01b03169089908b908a906116cf565b60405180910390a1610c4660408051610100810182526060808252602080830182905260008385018190528284018390526080840181905260a0840181905260c0840181905284519283018552808352908201819052928101929092529060e082015290565b89898080601f016020809104026020016040519081016040528093929190818152602001838380828437600092019190915250505090825250604080516020601f8a018190048102820181019092528881529089908990819084018382808284376000920191909152505050506020808301919091526002546001600160a01b03166040808401919091528051601f8801839004830281018301909152868152908790879081908401838280828437600092018290525060608601949094525050600160808401525060a0820181905260c0820181905260e08201805182905280513060209091015251626acfc0604091820152600354905163dbc619eb60e01b815282916001600160a01b03169063dbc619eb903490610d709087908690600890600401611750565b604080518083038185885af1158015610d8d573d6000803e3d6000fd5b50505050506040513d601f19601f82011682018060405250810190610db29190611857565b9150915060008260070b600014610e9b578260070b60001914610e69578260070b60011914610e3e578260070b60021914610e12576040518060400160405280600d81526020016c2ab735b737bbb71032b93937b960991b815250610ebc565b6040518060400160405280600e81526020016d125b9d985b1a5908185b5bdd5b9d60921b815250610ebc565b6040518060400160405280600d81526020016c4e6f20737570706c79206b657960981b815250610ebc565b60405180604001604052806014815260200173151bdad95b881b9bdd08185cdcdbd8da585d195960621b815250610ebc565b604051806040016040528060078152602001665375636365737360c81b8152505b90507f18f0fd238092faaa203ddc27f3b4fe6cb018207b0d851a05bab28a39ef27ee71838383604051610ef19392919061188e565b60405180910390a18260070b600014610f2257604051622a27bf60e01b8152600784900b600482015260240161068f565b600080546001600160a01b0319166001600160a01b03848116918217835560035460405163248a35ef60e11b8152306004820152602481019390935216906349146bde906044016020604051808303816000875af1158015610f88573d6000803e3d6000fd5b505050506040513d601f19601f82011682018060405250810190610fac91906118b8565b604080513081526001600160a01b0386166020820152600783900b8183015290519192507f326f963627b1acc59dd5d7d9d1c61c3bcb423a0eec980b72be698525dfe56906919081900360600190a18060070b60001461102457604051622a27bf60e01b8152600782900b600482015260240161068f565b60025460405163b82a35c560e01b81526001600160a01b0385811660048301529091169063b82a35c590602401600060405180830381600087803b15801561106b57600080fd5b505af115801561107f573d6000803e3d6000fd5b5050505061108b6109de565b604080516001600160a01b0385168152600786900b60208201527f6eac19c9a21d5e9d36083852c56740284f5b210efee80c1cd2527b3d4c58fcf6910160405180910390a15050505050505050505050505050565b80151581146110ee57600080fd5b50565b60006020828403121561110357600080fd5b813561110e816110e0565b9392505050565b6001600160a01b03811681146110ee57600080fd5b6000806040838503121561113d57600080fd5b823561114881611115565b946020939093013593505050565b60006020828403121561116857600080fd5b813561110e81611115565b60006020828403121561118557600080fd5b5035919050565b60008151808452602080850194506020840160005b838110156111c65781516001600160a01b0316875295820195908201906001016111a1565b509495945050505050565b6040815260006111e4604083018561118c565b82810360208481019190915284518083528582019282019060005b8181101561121b578451835293830193918301916001016111ff565b5090979650505050505050565b60008083601f84011261123a57600080fd5b50813567ffffffffffffffff81111561125257600080fd5b60208301915083602082850101111561126a57600080fd5b9250929050565b6000806000806000806060878903121561128a57600080fd5b863567ffffffffffffffff808211156112a257600080fd5b6112ae8a838b01611228565b909850965060208901359150808211156112c757600080fd5b6112d38a838b01611228565b909650945060408901359150808211156112ec57600080fd5b506112f989828a01611228565b979a9699509497509295939492505050565b60006020828403121561131d57600080fd5b815161110e816110e0565b634e487b7160e01b600052604160045260246000fd5b6000815180845260005b8181101561136457602081850181015186830182015201611348565b506000602082860101526020601f19601f83011685010191505092915050565b60006060820160018060a01b038616835260208560070b60208501526060604085015281855180845260808601915060808160051b87010193506020870160005b828110156113f357607f198887030184526113e186835161133e565b955092840192908401906001016113c5565b50939998505050505050505050565b8051600781900b811461141457600080fd5b919050565b604051601f8201601f1916810167ffffffffffffffff8111828210171561144257611442611328565b604052919050565b600067ffffffffffffffff82111561146457611464611328565b5060051b60200190565b60008060006060848603121561148357600080fd5b61148c84611402565b9250602061149b818601611402565b9250604085015167ffffffffffffffff8111156114b757600080fd5b8501601f810187136114c857600080fd5b80516114db6114d68261144a565b611419565b81815260059190911b820183019083810190898311156114fa57600080fd5b928401925b8284101561151f5761151084611402565b825292840192908401906114ff565b80955050505050509250925092565b60018060a01b03841681528260070b6020820152606060408201526000611558606083018461133e565b95945050505050565b600082601f83011261157257600080fd5b815160206115826114d68361144a565b8083825260208201915060208460051b8701019350868411156115a457600080fd5b602086015b848110156115c057805183529183019183016115a9565b509695505050505050565b600080604083850312156115de57600080fd5b825167ffffffffffffffff808211156115f657600080fd5b818501915085601f83011261160a57600080fd5b8151602061161a6114d68361144a565b82815260059290921b8401810191818101908984111561163957600080fd5b948201945b8386101561166057855161165181611115565b8252948201949082019061163e565b9188015191965090935050508082111561167957600080fd5b5061168685828601611561565b9150509250929050565b634e487b7160e01b600052603260045260246000fd5b81835281816020850137506000828201602090810191909152601f909101601f19169091010190565b60c0815260006116e360c083018a8c6116a6565b82810360208401526116f681898b6116a6565b6001600160a01b038816604085015283810360608501529050611719818761118c565b9050828103608084015261172d818661118c565b905082810360a0840152611741818561118c565b9b9a5050505050505050505050565b606081526000845161014080606085015261176f6101a085018361133e565b91506020870151605f198086850301608087015261178d848361133e565b9350604089015191506117ab60a08701836001600160a01b03169052565b60608901519150808685030160c0870152506117c7838261133e565b92505060808701516117dd60e086018215159052565b5060a08701516117f361010086018260070b9052565b5060c0870151151561012085015260e08701518051600790810b8387019081526020808401516001600160a01b03169082015260408084015190920b9101525050600785900b6020840152905061184f604083018460030b9052565b949350505050565b6000806040838503121561186a57600080fd5b61187383611402565b9150602083015161188381611115565b809150509250929050565b8360070b815260018060a01b0383166020820152606060408201526000611558606083018461133e565b6000602082840312156118ca57600080fd5b61110e8261140256fea2646970667358221220520e10e64b69bdbf7f817ee658e38168c8a759fa031f12a1f15e1c765dc11ab564736f6c63430008180033",
  "linkReferences": {},
  "deployedLinkReferences": {}
}