{
  "_format": "hh-sol-artifact-1",
  "contractName": "IndexVault",
  "sourceName": "hardhat/contracts/index-token/IndexVault.sol",
  "abi": [
    {
      "inputs": [
        {
          "internalType": "address",
          "name": "_admin",
          "type": "address"
        },
        {
          "internalType": "address",
          "name": "_htsAddress",
          "type": "address"
        }
      ],
      "stateMutability": "nonpayable",
      "type": "constructor"
    },
    {
      "anonymous": false,
      "inputs": [
        {
          "indexed": false,
          "internalType": "address",
          "name": "controllerAddress",
          "type": "address"
        }
      ],
      "name": "ControllerSet",
      "type": "event"
    },
    {
      "anonymous": false,
      "inputs": [
        {
          "indexed": false,
          "internalType": "bool",
          "name": "activated",
          "type": "bool"
        }
      ],
      "name": "GovernanceActivated",
      "type": "event"
    },
    {
      "anonymous": false,
      "inputs": [
        {
          "indexed": false,
          "internalType": "address",
          "name": "hookAddress",
          "type": "address"
        }
      ],
      "name": "GovernanceHookSet",
      "type": "event"
    },
    {
      "anonymous": false,
      "inputs": [
        {
          "indexed": false,
          "internalType": "address",
          "name": "indexToken",
          "type": "address"
        }
      ],
      "name": "IndexTokenSet",
      "type": "event"
    },
    {
      "anonymous": false,
      "inputs": [
        {
          "indexed": false,
          "internalType": "address",
          "name": "token",
          "type": "address"
        },
        {
          "indexed": false,
          "internalType": "uint256",
          "name": "weight",
          "type": "uint256"
        }
      ],
      "name": "TokenAdded",
      "type": "event"
    },
    {
      "anonymous": false,
      "inputs": [
        {
          "indexed": false,
          "internalType": "address",
          "name": "token",
          "type": "address"
        }
      ],
      "name": "TokenRemoved",
      "type": "event"
    },
    {
      "anonymous": false,
      "inputs": [
        {
          "indexed": false,
          "internalType": "address",
          "name": "token",
          "type": "address"
        },
        {
          "indexed": false,
          "internalType": "uint256",
          "name": "oldWeight",
          "type": "uint256"
        },
        {
          "indexed": false,
          "internalType": "uint256",
          "name": "newWeight",
          "type": "uint256"
        }
      ],
      "name": "TokenWeightUpdated",
      "type": "event"
    },
    {
      "anonymous": false,
      "inputs": [
        {
          "indexed": false,
          "internalType": "address",
          "name": "user",
          "type": "address"
        },
        {
          "indexed": false,
          "internalType": "address",
          "name": "token",
          "type": "address"
        },
        {
          "indexed": false,
          "internalType": "uint256",
          "name": "amount",
          "type": "uint256"
        }
      ],
      "name": "UserDeposit",
      "type": "event"
    },
    {
      "inputs": [
        {
          "internalType": "address",
          "name": "_token",
          "type": "address"
        },
        {
          "internalType": "uint256",
          "name": "_weight",
          "type": "uint256"
        }
      ],
      "name": "addToken",
      "outputs": [],
      "stateMutability": "nonpayable",
      "type": "function"
    },
    {
      "inputs": [],
      "name": "admin",
      "outputs": [
        {
          "internalType": "address",
          "name": "",
          "type": "address"
        }
      ],
      "stateMutability": "view",
      "type": "function"
    },
    {
      "inputs": [
        {
          "internalType": "uint256",
          "name": "_mintAmount",
          "type": "uint256"
        }
      ],
      "name": "calculateRequiredDeposits",
      "outputs": [
        {
          "internalType": "address[]",
          "name": "tokens",
          "type": "address[]"
        },
        {
          "internalType": "uint256[]",
          "name": "amounts",
          "type": "uint256[]"
        }
      ],
      "stateMutability": "view",
      "type": "function"
    },
    {
      "inputs": [
        {
          "internalType": "uint256",
          "name": "",
          "type": "uint256"
        }
      ],
      "name": "compositionTokens",
      "outputs": [
        {
          "internalType": "address",
          "name": "",
          "type": "address"
        }
      ],
      "stateMutability": "view",
      "type": "function"
    },
    {
      "inputs": [],
      "name": "controller",
      "outputs": [
        {
          "internalType": "address",
          "name": "",
          "type": "address"
        }
      ],
      "stateMutability": "view",
      "type": "function"
    },
    {
      "inputs": [
        {
          "internalType": "address",
          "name": "_token",
          "type": "address"
        },
        {
          "internalType": "uint256",
          "name": "_amount",
          "type": "uint256"
        }
      ],
      "name": "depositToken",
      "outputs": [],
      "stateMutability": "nonpayable",
      "type": "function"
    },
    {
      "inputs": [],
      "name": "getComposition",
      "outputs": [
        {
          "internalType": "address[]",
          "name": "tokens",
          "type": "address[]"
        },
        {
          "internalType": "uint256[]",
          "name": "weights",
          "type": "uint256[]"
        }
      ],
      "stateMutability": "view",
      "type": "function"
    },
    {
      "inputs": [],
      "name": "governanceActivated",
      "outputs": [
        {
          "internalType": "bool",
          "name": "",
          "type": "bool"
        }
      ],
      "stateMutability": "view",
      "type": "function"
    },
    {
      "inputs": [],
      "name": "governanceHook",
      "outputs": [
        {
          "internalType": "contract IGovernanceHook",
          "name": "",
          "type": "address"
        }
      ],
      "stateMutability": "view",
      "type": "function"
    },
    {
      "inputs": [],
      "name": "indexToken",
      "outputs": [
        {
          "internalType": "address",
          "name": "",
          "type": "address"
        }
      ],
      "stateMutability": "view",
      "type": "function"
    },
    {
      "inputs": [
        {
          "internalType": "address",
          "name": "",
          "type": "address"
        }
      ],
      "name": "isCompositionToken",
      "outputs": [
        {
          "internalType": "bool",
          "name": "",
          "type": "bool"
        }
      ],
      "stateMutability": "view",
      "type": "function"
    },
    {
      "inputs": [
        {
          "internalType": "address",
          "name": "_user",
          "type": "address"
        },
        {
          "internalType": "uint256",
          "name": "_mintAmount",
          "type": "uint256"
        }
      ],
      "name": "processMint",
      "outputs": [],
      "stateMutability": "nonpayable",
      "type": "function"
    },
    {
      "inputs": [
        {
          "internalType": "address",
          "name": "_token",
          "type": "address"
        }
      ],
      "name": "removeToken",
      "outputs": [],
      "stateMutability": "nonpayable",
      "type": "function"
    },
    {
      "inputs": [
        {
          "internalType": "address",
          "name": "_controller",
          "type": "address"
        }
      ],
      "name": "setController",
      "outputs": [],
      "stateMutability": "nonpayable",
      "type": "function"
    },
    {
      "inputs": [
        {
          "internalType": "bool",
          "name": "_activated",
          "type": "bool"
        }
      ],
      "name": "setGovernanceActivated",
      "outputs": [],
      "stateMutability": "nonpayable",
      "type": "function"
    },
    {
      "inputs": [
        {
          "internalType": "address",
          "name": "_hook",
          "type": "address"
        }
      ],
      "name": "setGovernanceHook",
      "outputs": [],
      "stateMutability": "nonpayable",
      "type": "function"
    },
    {
      "inputs": [
        {
          "internalType": "address",
          "name": "_indexToken",
          "type": "address"
        }
      ],
      "name": "setIndexToken",
      "outputs": [],
      "stateMutability": "nonpayable",
      "type": "function"
    },
    {
      "inputs": [
        {
          "internalType": "address",
          "name": "",
          "type": "address"
        }
      ],
      "name": "tokenWeights",
      "outputs": [
        {
          "internalType": "uint256",
          "name": "",
          "type": "uint256"
        }
      ],
      "stateMutability": "view",
      "type": "function"
    },
    {
      "inputs": [],
      "name": "totalWeight",
      "outputs": [
        {
          "internalType": "uint256",
          "name": "",
          "type": "uint256"
        }
      ],
      "stateMutability": "view",
      "type": "function"
    },
    {
      "inputs": [
        {
          "internalType": "address",
          "name": "_token",
          "type": "address"
        },
        {
          "internalType": "uint256",
          "name": "_newWeight",
          "type": "uint256"
        }
      ],
      "name": "updateTokenWeight",
      "outputs": [],
      "stateMutability": "nonpayable",
      "type": "function"
    },
    {
      "inputs": [
        {
          "internalType": "address",
          "name": "",
          "type": "address"
        },
        {
          "internalType": "address",
          "name": "",
          "type": "address"
        }
      ],
      "name": "userDeposits",
      "outputs": [
        {
          "internalType": "uint256",
          "name": "",
          "type": "uint256"
        }
      ],
      "stateMutability": "view",
      "type": "function"
    },
    {
      "inputs": [
        {
          "internalType": "address",
          "name": "_user",
          "type": "address"
        },
        {
          "internalType": "uint256",
          "name": "_mintAmount",
          "type": "uint256"
        }
      ],
      "name": "validateMint",
      "outputs": [
        {
          "internalType": "bool",
          "name": "",
          "type": "bool"
        }
      ],
      "stateMutability": "view",
      "type": "function"
    },
    {
      "stateMutability": "payable",
      "type": "receive"
    }
  ],
  "bytecode": "0x60806040526003805460ff60a01b1916905560006007553480156200002357600080fd5b5060405162001c5a38038062001c5a833981016040819052620000469162000095565b600180546001600160a01b039384166001600160a01b03199182161790915560008054929093169116179055620000cd565b80516001600160a01b03811681146200009057600080fd5b919050565b60008060408385031215620000a957600080fd5b620000b48362000078565b9150620000c46020840162000078565b90509250929050565b611b7d80620000dd6000396000f3fe6080604052600436106101395760003560e01c806392eefe9b116100ab578063b9d527c61161006f578063b9d527c6146103b1578063c228ddd7146103d1578063e7d015f2146103f1578063f77c479114610411578063f851a44014610431578063fbadceca1461045157600080fd5b806392eefe9b1461030e57806396c82e571461032e578063ab2f3ad414610344578063af81c5b914610371578063b82a35c51461039157600080fd5b8063338b5dea116100fd578063338b5dea14610228578063436d8039146102485780634df8dce51461028e57806357c37b69146102ae5780635fa7b584146102ce5780638f9f8b01146102ee57600080fd5b8063047ac6e21461014557806308d72102146101825780630e8fb99b146101a557806321faf184146101e5578063322b5c481461020757600080fd5b3661014057005b600080fd5b34801561015157600080fd5b50600354610165906001600160a01b031681565b6040516001600160a01b0390911681526020015b60405180910390f35b34801561018e57600080fd5b50610197610471565b604051610179929190611805565b3480156101b157600080fd5b506101d56101c03660046118a5565b60056020526000908152604090205460ff1681565b6040519015158152602001610179565b3480156101f157600080fd5b506102056102003660046118c7565b6105dd565b005b34801561021357600080fd5b506003546101d590600160a01b900460ff1681565b34801561023457600080fd5b506102056102433660046118c7565b61074b565b34801561025457600080fd5b506102806102633660046118f1565b600860209081526000928352604080842090915290825290205481565b604051908152602001610179565b34801561029a57600080fd5b506101656102a9366004611924565b610bed565b3480156102ba57600080fd5b506102056102c93660046118a5565b610c17565b3480156102da57600080fd5b506102056102e93660046118a5565b610cbf565b3480156102fa57600080fd5b50610197610309366004611924565b610ede565b34801561031a57600080fd5b506102056103293660046118a5565b611060565b34801561033a57600080fd5b5061028060075481565b34801561035057600080fd5b5061028061035f3660046118a5565b60066020526000908152604090205481565b34801561037d57600080fd5b5061020561038c3660046118c7565b611101565b34801561039d57600080fd5b506102056103ac3660046118a5565b61132a565b3480156103bd57600080fd5b506101d56103cc3660046118c7565b611538565b3480156103dd57600080fd5b506102056103ec36600461194e565b61161a565b3480156103fd57600080fd5b50600954610165906001600160a01b031681565b34801561041d57600080fd5b50600254610165906001600160a01b031681565b34801561043d57600080fd5b50600154610165906001600160a01b031681565b34801561045d57600080fd5b5061020561046c3660046118c7565b6116ba565b600454606090819067ffffffffffffffff8111156104915761049161196b565b6040519080825280602002602001820160405280156104ba578160200160208202803683370190505b5060045490925067ffffffffffffffff8111156104d9576104d961196b565b604051908082528060200260200182016040528015610502578160200160208202803683370190505b50905060005b6004548110156105d8576004818154811061052557610525611981565b9060005260206000200160009054906101000a90046001600160a01b031683828151811061055557610555611981565b60200260200101906001600160a01b031690816001600160a01b031681525050600660006004838154811061058c5761058c611981565b60009182526020808320909101546001600160a01b0316835282019290925260400190205482518390839081106105c5576105c5611981565b6020908102919091010152600101610508565b509091565b6001546001600160a01b03163314806106145750600354600160a01b900460ff16801561061457506003546001600160a01b031633145b6106395760405162461bcd60e51b815260040161063090611997565b60405180910390fd5b6001600160a01b03821660009081526005602052604090205460ff166106715760405162461bcd60e51b8152600401610630906119e6565b600081116106c15760405162461bcd60e51b815260206004820152601d60248201527f576569676874206d7573742062652067726561746572207468616e20300000006044820152606401610630565b6001600160a01b038216600090815260066020526040902080549082905560075482906106ef908390611a33565b6106f99190611a46565b600755604080516001600160a01b0385168152602081018390529081018390527fd61df61512d18d18089442c81b1ab8998bb7e67975673fb7dbfcc07efc5330e89060600160405180910390a1505050565b6001600160a01b03821660009081526005602052604090205460ff166107835760405162461bcd60e51b8152600401610630906119e6565b600081116107d35760405162461bcd60e51b815260206004820152601d60248201527f416d6f756e74206d7573742062652067726561746572207468616e20300000006044820152606401610630565b600054604051631c97fa2960e21b81526001600160a01b0384811660048301523060248301529091169063725fe8a490604401602060405180830381865afa158015610823573d6000803e3d6000fd5b505050506040513d601f19601f820116820180604052508101906108479190611a59565b6108935760405162461bcd60e51b815260206004820152601f60248201527f546f6b656e206e6f74206173736f6369617465642077697468207661756c74006044820152606401610630565b600054604051631c97fa2960e21b81526001600160a01b0384811660048301523360248301529091169063725fe8a490604401602060405180830381865afa1580156108e3573d6000803e3d6000fd5b505050506040513d601f19601f820116820180604052508101906109079190611a59565b6109535760405162461bcd60e51b815260206004820181905260248201527f546f6b656e206e6f74206173736f63696174656420776974682073656e6465726044820152606401610630565b60008054604051633de222bb60e21b81526001600160a01b0385811660048301523060248301529091169063f7888aec90604401602060405180830381865afa1580156109a4573d6000803e3d6000fd5b505050506040513d601f19601f820116820180604052508101906109c89190611a76565b60008054604051632c54de4f60e01b81526001600160a01b0387811660048301523360248301523060448301526064820187905293945091921690632c54de4f906084016020604051808303816000875af1158015610a2b573d6000803e3d6000fd5b505050506040513d601f19601f82011682018060405250810190610a4f9190611a8f565b90508060070b600014610a965760405162461bcd60e51b815260206004820152600f60248201526e151c985b9cd9995c8819985a5b1959608a1b6044820152606401610630565b60008054604051633de222bb60e21b81526001600160a01b0387811660048301523060248301529091169063f7888aec90604401602060405180830381865afa158015610ae7573d6000803e3d6000fd5b505050506040513d601f19601f82011682018060405250810190610b0b9190611a76565b905083610b188483611a33565b14610b655760405162461bcd60e51b815260206004820152601860248201527f5472616e7366657220616d6f756e74206d69736d6174636800000000000000006044820152606401610630565b3360009081526008602090815260408083206001600160a01b038916845290915281208054869290610b98908490611a46565b9091555050604080513381526001600160a01b03871660208201529081018590527f3bc57f469ad6d10d7723ea226cd22bd2b9e527def2b529f6ab44645a166895829060600160405180910390a15050505050565b60048181548110610bfd57600080fd5b6000918252602090912001546001600160a01b0316905081565b6001546001600160a01b0316331480610c4e5750600354600160a01b900460ff168015610c4e57506003546001600160a01b031633145b610c6a5760405162461bcd60e51b815260040161063090611997565b600380546001600160a01b0319166001600160a01b0383169081179091556040519081527f5791ed6893704b67959da1f8dcad745d80186900528da4fe640c2c5154e45f05906020015b60405180910390a150565b6001546001600160a01b0316331480610cf65750600354600160a01b900460ff168015610cf657506003546001600160a01b031633145b610d125760405162461bcd60e51b815260040161063090611997565b6001600160a01b03811660009081526005602052604090205460ff16610d4a5760405162461bcd60e51b8152600401610630906119e6565b6001600160a01b0381166000908152600660205260408120546007805491929091610d76908490611a33565b90915550506001600160a01b038116600090815260066020908152604080832083905560059091528120805460ff191690555b600454811015610ea457816001600160a01b031660048281548110610dd057610dd0611981565b6000918252602090912001546001600160a01b031603610e9c5760048054610dfa90600190611a33565b81548110610e0a57610e0a611981565b600091825260209091200154600480546001600160a01b039092169183908110610e3657610e36611981565b9060005260206000200160006101000a8154816001600160a01b0302191690836001600160a01b031602179055506004805480610e7557610e75611ab2565b600082815260209020810160001990810180546001600160a01b0319169055019055610ea4565b600101610da9565b506040516001600160a01b03821681527f4c910b69fe65a61f7531b9c5042b2329ca7179c77290aa7e2eb3afa3c8511fd390602001610cb4565b600454606090819067ffffffffffffffff811115610efe57610efe61196b565b604051908082528060200260200182016040528015610f27578160200160208202803683370190505b5060045490925067ffffffffffffffff811115610f4657610f4661196b565b604051908082528060200260200182016040528015610f6f578160200160208202803683370190505b50905060005b60045481101561105a5760048181548110610f9257610f92611981565b9060005260206000200160009054906101000a90046001600160a01b0316838281518110610fc257610fc2611981565b60200260200101906001600160a01b031690816001600160a01b0316815250506007546006600060048481548110610ffc57610ffc611981565b60009182526020808320909101546001600160a01b0316835282019290925260400190205461102b9086611ac8565b6110359190611adf565b82828151811061104757611047611981565b6020908102919091010152600101610f75565b50915091565b6001546001600160a01b03163314806110975750600354600160a01b900460ff16801561109757506003546001600160a01b031633145b6110b35760405162461bcd60e51b815260040161063090611997565b600280546001600160a01b0319166001600160a01b0383169081179091556040519081527f79f74fd5964b6943d8a1865abfb7f668c92fa3f32c0a2e3195da7d0946703ad790602001610cb4565b6001546001600160a01b03163314806111385750600354600160a01b900460ff16801561113857506003546001600160a01b031633145b6111545760405162461bcd60e51b815260040161063090611997565b6001600160a01b0382166111a25760405162461bcd60e51b8152602060048201526015602482015274496e76616c696420746f6b656e206164647265737360581b6044820152606401610630565b600081116111f25760405162461bcd60e51b815260206004820152601d60248201527f576569676874206d7573742062652067726561746572207468616e20300000006044820152606401610630565b6001600160a01b03821660009081526005602052604090205460ff161561125b5760405162461bcd60e51b815260206004820152601c60248201527f546f6b656e20616c726561647920696e20636f6d706f736974696f6e000000006044820152606401610630565b6001600160a01b0382166000818152600560209081526040808320805460ff191660019081179091556006909252822084905560048054918201815582527f8a35acfbc15ff81a39ae7d344fd709f28e8600b4aa8c65c6b64bfe7fe36bd19b0180546001600160a01b031916909217909155600780548392906112df908490611a46565b9091555050604080516001600160a01b0384168152602081018390527ff4c563a3ea86ff1f4275e8c207df0375a51963f2b831b7bf4da8be938d92876c910160405180910390a15050565b6002546001600160a01b031633146113545760405162461bcd60e51b815260040161063090611b01565b6001600160a01b0381166113a25760405162461bcd60e51b8152602060048201526015602482015274496e76616c696420746f6b656e206164647265737360581b6044820152606401610630565b600980546001600160a01b0319166001600160a01b03838116918217909255600054604051631c97fa2960e21b815230600482015260248101929092529091169063725fe8a490604401602060405180830381865afa158015611409573d6000803e3d6000fd5b505050506040513d601f19601f8201168201806040525081019061142d9190611a59565b6114ff576000805460405163248a35ef60e11b81523060048201526001600160a01b038481166024830152909116906349146bde906044016020604051808303816000875af1158015611484573d6000803e3d6000fd5b505050506040513d601f19601f820116820180604052508101906114a89190611a8f565b90508060070b6000146114fd5760405162461bcd60e51b815260206004820152601860248201527f546f6b656e206173736f63696174696f6e206661696c656400000000000000006044820152606401610630565b505b6040516001600160a01b03821681527f40cdac5625b9528b38b786c9b74c257c1de10eac74b82c0ebc45a652cd8bcf6390602001610cb4565b6002546000906001600160a01b031633146115655760405162461bcd60e51b815260040161063090611b01565b60005b60045481101561160e5760006004828154811061158757611587611981565b60009182526020808320909101546007546001600160a01b0390911680845260069092526040832054919350906115be9087611ac8565b6115c89190611adf565b6001600160a01b038088166000908152600860209081526040808320938716835292905220549091508111156116045760009350505050611614565b5050600101611568565b50600190505b92915050565b6001546001600160a01b03163314806116515750600354600160a01b900460ff16801561165157506003546001600160a01b031633145b61166d5760405162461bcd60e51b815260040161063090611997565b60038054821515600160a01b0260ff60a01b199091161790556040517f809d1f09b32df1036de4c3ec9f8f624ee9a1ba9489ac372d25693caf17835a9590610cb490831515815260200190565b6002546001600160a01b031633146116e45760405162461bcd60e51b815260040161063090611b01565b60005b6004548110156118005760006004828154811061170657611706611981565b60009182526020808320909101546007546001600160a01b03909116808452600690925260408320549193509061173d9086611ac8565b6117479190611adf565b6001600160a01b038087166000908152600860209081526040808320938716835292905220549091508111156117b65760405162461bcd60e51b8152602060048201526014602482015273125b9cdd59999a58da595b9d0819195c1bdcda5d60621b6044820152606401610630565b6001600160a01b038086166000908152600860209081526040808320938616835292905290812080548392906117ed908490611a33565b9091555050600190920191506116e79050565b505050565b604080825283519082018190526000906020906060840190828701845b828110156118475781516001600160a01b031684529284019290840190600101611822565b5050508381038285015284518082528583019183019060005b8181101561187c57835183529284019291840191600101611860565b5090979650505050505050565b80356001600160a01b03811681146118a057600080fd5b919050565b6000602082840312156118b757600080fd5b6118c082611889565b9392505050565b600080604083850312156118da57600080fd5b6118e383611889565b946020939093013593505050565b6000806040838503121561190457600080fd5b61190d83611889565b915061191b60208401611889565b90509250929050565b60006020828403121561193657600080fd5b5035919050565b801515811461194b57600080fd5b50565b60006020828403121561196057600080fd5b81356118c08161193d565b634e487b7160e01b600052604160045260246000fd5b634e487b7160e01b600052603260045260246000fd5b6020808252602f908201527f4f6e6c792061646d696e206f7220676f7665726e616e63652063616e2063616c60408201526e36103a3434b990333ab731ba34b7b760891b606082015260800190565b60208082526018908201527f546f6b656e206e6f7420696e20636f6d706f736974696f6e0000000000000000604082015260600190565b634e487b7160e01b600052601160045260246000fd5b8181038181111561161457611614611a1d565b8082018082111561161457611614611a1d565b600060208284031215611a6b57600080fd5b81516118c08161193d565b600060208284031215611a8857600080fd5b5051919050565b600060208284031215611aa157600080fd5b81518060070b81146118c057600080fd5b634e487b7160e01b600052603160045260246000fd5b808202811582820484141761161457611614611a1d565b600082611afc57634e487b7160e01b600052601260045260246000fd5b500490565b60208082526026908201527f4f6e6c7920636f6e74726f6c6c65722063616e2063616c6c20746869732066756040820152653731ba34b7b760d11b60608201526080019056fea26469706673582212207707bd781ffb296203ac50ed4b5d2c6c0fa369d5823ef306c54506e28134335264736f6c63430008180033",
  "linkReferences": {},
  "deployedLinkReferences": {}
}