{
  "_format": "hh-sol-artifact-1",
  "contractName": "SimpleTokenMinter",
  "sourceName": "contracts/debug/SimpleTokenMinter.sol",
  "abi": [
    {
      "inputs": [],
      "stateMutability": "nonpayable",
      "type": "constructor"
    },
    {
      "anonymous": false,
      "inputs": [
        {
          "indexed": false,
          "internalType": "address",
          "name": "token",
          "type": "address"
        },
        {
          "indexed": false,
          "internalType": "int64",
          "name": "amount",
          "type": "int64"
        },
        {
          "indexed": false,
          "internalType": "int256",
          "name": "responseCode",
          "type": "int256"
        }
      ],
      "name": "MintSuccessful",
      "type": "event"
    },
    {
      "anonymous": false,
      "inputs": [
        {
          "indexed": false,
          "internalType": "address",
          "name": "token",
          "type": "address"
        },
        {
          "indexed": false,
          "internalType": "int64",
          "name": "responseCode",
          "type": "int64"
        }
      ],
      "name": "TokenAssociated",
      "type": "event"
    },
    {
      "anonymous": false,
      "inputs": [
        {
          "indexed": false,
          "internalType": "address",
          "name": "previousToken",
          "type": "address"
        },
        {
          "indexed": false,
          "internalType": "address",
          "name": "newToken",
          "type": "address"
        }
      ],
      "name": "TokenSet",
      "type": "event"
    },
    {
      "inputs": [],
      "name": "associateTokens",
      "outputs": [],
      "stateMutability": "nonpayable",
      "type": "function"
    },
    {
      "inputs": [],
      "name": "checkAssociation",
      "outputs": [
        {
          "internalType": "bool",
          "name": "",
          "type": "bool"
        }
      ],
      "stateMutability": "nonpayable",
      "type": "function"
    },
    {
      "inputs": [
        {
          "internalType": "int64",
          "name": "amount",
          "type": "int64"
        }
      ],
      "name": "mintTokens",
      "outputs": [],
      "stateMutability": "nonpayable",
      "type": "function"
    },
    {
      "inputs": [
        {
          "internalType": "address",
          "name": "_tokenAddress",
          "type": "address"
        }
      ],
      "name": "setTokenAddress",
      "outputs": [],
      "stateMutability": "nonpayable",
      "type": "function"
    },
    {
      "inputs": [],
      "name": "tokenAddress",
      "outputs": [
        {
          "internalType": "address",
          "name": "",
          "type": "address"
        }
      ],
      "stateMutability": "view",
      "type": "function"
    },
    {
      "stateMutability": "payable",
      "type": "receive"
    }
  ],
  "bytecode": "0x608060405234801561001057600080fd5b50600080546001600160a01b0319166101671790556107e5806100346000396000f3fe60806040526004361061004e5760003560e01c806310ca0bce1461005a57806326a4e8d21461007157806359288690146100915780639d76ea58146100bb578063b62bca7a146100f357600080fd5b3661005557005b600080fd5b34801561006657600080fd5b5061006f610113565b005b34801561007d57600080fd5b5061006f61008c366004610504565b61020c565b34801561009d57600080fd5b506100a661026d565b60405190151581526020015b60405180910390f35b3480156100c757600080fd5b506001546100db906001600160a01b031681565b6040516001600160a01b0390911681526020016100b2565b3480156100ff57600080fd5b5061006f61010e366004610546565b610332565b6001546001600160a01b03166101445760405162461bcd60e51b815260040161013b90610563565b60405180910390fd5b6000805460015460405163248a35ef60e11b81523060048201526001600160a01b0391821660248201529116906349146bde906044016020604051808303816000875af1158015610199573d6000803e3d6000fd5b505050506040513d601f19601f820116820180604052508101906101bd91906105a2565b600154604080516001600160a01b039092168252600783900b60208301529192507f67ffbb4c78b48980b096bba60e2f42b06e9f89d70c4c458668c902f696571ec8910160405180910390a150565b600180546001600160a01b038381166001600160a01b031983168117909355604080519190921680825260208201939093527f0dd664a155dd89526bb019e22b00291bb7ca9d07ba3ec4a1a76b410da9797ceb910160405180910390a15050565b6001546000906001600160a01b03166102985760405162461bcd60e51b815260040161013b90610563565b60008054600154604051630d9f324960e31b81523060048201526001600160a01b03918216602482015283929190911690636cf992489060440160408051808303816000875af11580156102f0573d6000803e3d6000fd5b505050506040513d601f19601f8201168201806040525081019061031491906105bf565b91509150601660030b8260070b14801561032b5750805b9250505090565b6001546001600160a01b031661035a5760405162461bcd60e51b815260040161013b90610563565b60008160070b136103ad5760405162461bcd60e51b815260206004820152601d60248201527f416d6f756e74206d7573742062652067726561746572207468616e2030000000604482015260640161013b565b60408051600080825260208201909252816103d8565b60608152602001906001900390816103c35790505b506000805460015460405163707a02cd60e11b81529394509192839283926001600160a01b039081169263e0f4059a9261041a92169089908990600401610614565b6000604051808303816000875af1158015610439573d6000803e3d6000fd5b505050506040513d6000823e601f3d908101601f1916820160405261046191908101906106c0565b600154604080516001600160a01b03909216825260078a810b602084015285900b9082015292955090935091507ffc9c5e2ed9c7911538c33c84a00eb47cdf7337b12069bc933a544a440b196b619060600160405180910390a1600783900b6016146104fd5760405162461bcd60e51b815260206004820152600b60248201526a135a5b9d0819985a5b195960aa1b604482015260640161013b565b5050505050565b60006020828403121561051657600080fd5b81356001600160a01b038116811461052d57600080fd5b9392505050565b8060070b811461054357600080fd5b50565b60006020828403121561055857600080fd5b813561052d81610534565b602080825260159082015274151bdad95b881859191c995cdcc81b9bdd081cd95d605a1b604082015260600190565b805161059d81610534565b919050565b6000602082840312156105b457600080fd5b815161052d81610534565b600080604083850312156105d257600080fd5b82516105dd81610534565b602084015190925080151581146105f357600080fd5b809150509250929050565b634e487b7160e01b600052604160045260246000fd5b60006060820160018060a01b038616835260208560070b818501526060604085015281855180845260808601915060808160051b87010193508287016000805b838110156106b057888703607f1901855282518051808952835b81811015610689578281018901518a82018a0152880161066e565b508881018801849052601f01601f1916909701860196509385019391850191600101610654565b50949a9950505050505050505050565b6000806000606084860312156106d557600080fd5b83516106e081610534565b809350506020808501516106f381610534565b604086015190935067ffffffffffffffff8082111561071157600080fd5b818701915087601f83011261072557600080fd5b815181811115610737576107376105fe565b8060051b604051601f19603f8301168101818110858211171561075c5761075c6105fe565b60405291825284820192508381018501918a83111561077a57600080fd5b938501935b8285101561079f5761079085610592565b8452938501939285019261077f565b809650505050505050925092509256fea2646970667358221220f541ab9c804dfe3d9751e8d210dec16184c5432b51f4f097a06e939bedc5d1bf64736f6c63430008130033",
  "linkReferences": {},
  "deployedLinkReferences": {}
}