{"contracts/DepositMinterV2.sol":{"DepositMinterV2":{"abi":[{"inputs":[{"internalType":"address","name":"lynxToken","type":"address"},{"internalType":"address","name":"wbtcToken","type":"address"},{"internalType":"address","name":"sauceToken","type":"address"},{"internalType":"address","name":"usdcToken","type":"address"},{"internalType":"address","name":"jamToken","type":"address"},{"internalType":"address","name":"headstartToken","type":"address"},{"internalType":"address","name":"treasury","type":"address"}],"stateMutability":"nonpayable","type":"constructor"},{"inputs":[],"name":"GovernanceNotSet","type":"error"},{"inputs":[{"internalType":"string","name":"operation","type":"string"},{"internalType":"int64","name":"responseCode","type":"int64"}],"name":"HTSOperationFailed","type":"error"},{"inputs":[{"internalType":"string","name":"tokenType","type":"string"},{"internalType":"uint256","name":"required","type":"uint256"},{"internalType":"uint256","name":"provided","type":"uint256"}],"name":"InsufficientDeposit","type":"error"},{"inputs":[],"name":"InvalidAmount","type":"error"},{"inputs":[{"internalType":"string","name":"ratioName","type":"string"},{"internalType":"uint256","name":"value","type":"uint256"}],"name":"InvalidRatio","type":"error"},{"inputs":[],"name":"OnlyAdmin","type":"error"},{"inputs":[],"name":"OnlyGovernance","type":"error"},{"inputs":[{"internalType":"string","name":"tokenType","type":"string"}],"name":"TokenNotSet","type":"error"},{"anonymous":false,"inputs":[{"indexed":true,"internalType":"address","name":"user","type":"address"},{"indexed":false,"internalType":"uint256","name":"totalTokensProcessed","type":"uint256"}],"name":"DepositsProcessed","type":"event"},{"anonymous":false,"inputs":[{"indexed":true,"internalType":"address","name":"oldGovernance","type":"address"},{"indexed":true,"internalType":"address","name":"newGovernance","type":"address"}],"name":"GovernanceAddressUpdated","type":"event"},{"anonymous":false,"inputs":[{"indexed":true,"internalType":"address","name":"user","type":"address"},{"indexed":false,"internalType":"uint256","name":"lynxAmount","type":"uint256"}],"name":"LynxMinted","type":"event"},{"anonymous":false,"inputs":[{"indexed":true,"internalType":"address","name":"user","type":"address"},{"indexed":false,"internalType":"uint256","name":"lynxAmount","type":"uint256"},{"indexed":false,"internalType":"uint256","name":"lynxBaseUnits","type":"uint256"}],"name":"MintAttempt","type":"event"},{"anonymous":false,"inputs":[{"indexed":false,"internalType":"int64","name":"responseCode","type":"int64"},{"indexed":false,"internalType":"int64","name":"newTotalSupply","type":"int64"}],"name":"MintResult","type":"event"},{"anonymous":false,"inputs":[{"indexed":false,"internalType":"uint256","name":"hbarRatio","type":"uint256"},{"indexed":false,"internalType":"uint256","name":"wbtcRatio","type":"uint256"},{"indexed":false,"internalType":"uint256","name":"sauceRatio","type":"uint256"},{"indexed":false,"internalType":"uint256","name":"usdcRatio","type":"uint256"},{"indexed":false,"internalType":"uint256","name":"jamRatio","type":"uint256"},{"indexed":false,"internalType":"uint256","name":"headstartRatio","type":"uint256"},{"indexed":true,"internalType":"address","name":"updatedBy","type":"address"}],"name":"RatiosUpdated","type":"event"},{"anonymous":false,"inputs":[{"indexed":false,"internalType":"address","name":"token","type":"address"},{"indexed":false,"internalType":"int64","name":"responseCode","type":"int64"}],"name":"TokensAssociated","type":"event"},{"anonymous":false,"inputs":[{"indexed":true,"internalType":"address","name":"user","type":"address"},{"indexed":false,"internalType":"uint256","name":"hbarAmount","type":"uint256"},{"indexed":false,"internalType":"uint256","name":"wbtcAmount","type":"uint256"},{"indexed":false,"internalType":"uint256","name":"sauceAmount","type":"uint256"},{"indexed":false,"internalType":"uint256","name":"usdcAmount","type":"uint256"},{"indexed":false,"internalType":"uint256","name":"jamAmount","type":"uint256"},{"indexed":false,"internalType":"uint256","name":"headstartAmount","type":"uint256"}],"name":"TokensDeposited","type":"event"},{"anonymous":false,"inputs":[{"indexed":false,"internalType":"address","name":"from","type":"address"},{"indexed":false,"internalType":"address","name":"to","type":"address"},{"indexed":false,"internalType":"uint256","name":"amount","type":"uint256"}],"name":"TransferAttempt","type":"event"},{"anonymous":false,"inputs":[{"indexed":false,"internalType":"int64","name":"responseCode","type":"int64"}],"name":"TransferResult","type":"event"},{"inputs":[],"name":"ADMIN","outputs":[{"internalType":"address","name":"","type":"address"}],"stateMutability":"view","type":"function"},{"inputs":[],"name":"GOVERNANCE","outputs":[{"internalType":"address","name":"","type":"address"}],"stateMutability":"view","type":"function"},{"inputs":[],"name":"HBAR_RATIO","outputs":[{"internalType":"uint256","name":"","type":"uint256"}],"stateMutability":"view","type":"function"},{"inputs":[],"name":"HEADSTART_DECIMALS","outputs":[{"internalType":"uint8","name":"","type":"uint8"}],"stateMutability":"view","type":"function"},{"inputs":[],"name":"HEADSTART_RATIO","outputs":[{"internalType":"uint256","name":"","type":"uint256"}],"stateMutability":"view","type":"function"},{"inputs":[],"name":"HEADSTART_TOKEN","outputs":[{"internalType":"address","name":"","type":"address"}],"stateMutability":"view","type":"function"},{"inputs":[],"name":"JAM_DECIMALS","outputs":[{"internalType":"uint8","name":"","type":"uint8"}],"stateMutability":"view","type":"function"},{"inputs":[],"name":"JAM_RATIO","outputs":[{"internalType":"uint256","name":"","type":"uint256"}],"stateMutability":"view","type":"function"},{"inputs":[],"name":"JAM_TOKEN","outputs":[{"internalType":"address","name":"","type":"address"}],"stateMutability":"view","type":"function"},{"inputs":[],"name":"LYNX_DECIMALS","outputs":[{"internalType":"uint8","name":"","type":"uint8"}],"stateMutability":"view","type":"function"},{"inputs":[],"name":"LYNX_TOKEN","outputs":[{"internalType":"address","name":"","type":"address"}],"stateMutability":"view","type":"function"},{"inputs":[],"name":"MAX_RATIO","outputs":[{"internalType":"uint256","name":"","type":"uint256"}],"stateMutability":"view","type":"function"},{"inputs":[],"name":"MIN_RATIO","outputs":[{"internalType":"uint256","name":"","type":"uint256"}],"stateMutability":"view","type":"function"},{"inputs":[],"name":"SAUCE_DECIMALS","outputs":[{"internalType":"uint8","name":"","type":"uint8"}],"stateMutability":"view","type":"function"},{"inputs":[],"name":"SAUCE_RATIO","outputs":[{"internalType":"uint256","name":"","type":"uint256"}],"stateMutability":"view","type":"function"},{"inputs":[],"name":"SAUCE_TOKEN","outputs":[{"internalType":"address","name":"","type":"address"}],"stateMutability":"view","type":"function"},{"inputs":[],"name":"TREASURY","outputs":[{"internalType":"address","name":"","type":"address"}],"stateMutability":"view","type":"function"},{"inputs":[],"name":"USDC_DECIMALS","outputs":[{"internalType":"uint8","name":"","type":"uint8"}],"stateMutability":"view","type":"function"},{"inputs":[],"name":"USDC_RATIO","outputs":[{"internalType":"uint256","name":"","type":"uint256"}],"stateMutability":"view","type":"function"},{"inputs":[],"name":"USDC_TOKEN","outputs":[{"internalType":"address","name":"","type":"address"}],"stateMutability":"view","type":"function"},{"inputs":[],"name":"WBTC_DECIMALS","outputs":[{"internalType":"uint8","name":"","type":"uint8"}],"stateMutability":"view","type":"function"},{"inputs":[],"name":"WBTC_RATIO","outputs":[{"internalType":"uint256","name":"","type":"uint256"}],"stateMutability":"view","type":"function"},{"inputs":[],"name":"WBTC_TOKEN","outputs":[{"internalType":"address","name":"","type":"address"}],"stateMutability":"view","type":"function"},{"inputs":[{"internalType":"uint256","name":"hbarRatio","type":"uint256"},{"internalType":"uint256","name":"wbtcRatio","type":"uint256"},{"internalType":"uint256","name":"sauceRatio","type":"uint256"},{"internalType":"uint256","name":"usdcRatio","type":"uint256"},{"internalType":"uint256","name":"jamRatio","type":"uint256"},{"internalType":"uint256","name":"headstartRatio","type":"uint256"}],"name":"adminUpdateRatios","outputs":[],"stateMutability":"nonpayable","type":"function"},{"inputs":[],"name":"associateTokens","outputs":[],"stateMutability":"nonpayable","type":"function"},{"inputs":[{"internalType":"uint256","name":"lynxAmount","type":"uint256"}],"name":"calculateRequiredDeposits","outputs":[{"internalType":"uint256","name":"hbarRequired","type":"uint256"},{"internalType":"uint256","name":"wbtcRequired","type":"uint256"},{"internalType":"uint256","name":"sauceRequired","type":"uint256"},{"internalType":"uint256","name":"usdcRequired","type":"uint256"},{"internalType":"uint256","name":"jamRequired","type":"uint256"},{"internalType":"uint256","name":"headstartRequired","type":"uint256"}],"stateMutability":"view","type":"function"},{"inputs":[],"name":"checkAssociations","outputs":[{"internalType":"bool","name":"lynxAssociated","type":"bool"},{"internalType":"bool","name":"wbtcAssociated","type":"bool"},{"internalType":"bool","name":"sauceAssociated","type":"bool"},{"internalType":"bool","name":"usdcAssociated","type":"bool"},{"internalType":"bool","name":"jamAssociated","type":"bool"},{"internalType":"bool","name":"headstartAssociated","type":"bool"}],"stateMutability":"nonpayable","type":"function"},{"inputs":[{"internalType":"uint256","name":"amount","type":"uint256"}],"name":"emergencyWithdrawHbar","outputs":[],"stateMutability":"nonpayable","type":"function"},{"inputs":[],"name":"getCurrentRatios","outputs":[{"internalType":"uint256","name":"hbarRatio","type":"uint256"},{"internalType":"uint256","name":"wbtcRatio","type":"uint256"},{"internalType":"uint256","name":"sauceRatio","type":"uint256"},{"internalType":"uint256","name":"usdcRatio","type":"uint256"},{"internalType":"uint256","name":"jamRatio","type":"uint256"},{"internalType":"uint256","name":"headstartRatio","type":"uint256"}],"stateMutability":"view","type":"function"},{"inputs":[],"name":"getHbarBalance","outputs":[{"internalType":"uint256","name":"","type":"uint256"}],"stateMutability":"view","type":"function"},{"inputs":[{"internalType":"uint256","name":"lynxAmount","type":"uint256"},{"internalType":"uint256","name":"wbtcAmount","type":"uint256"},{"internalType":"uint256","name":"sauceAmount","type":"uint256"},{"internalType":"uint256","name":"usdcAmount","type":"uint256"},{"internalType":"uint256","name":"jamAmount","type":"uint256"},{"internalType":"uint256","name":"headstartAmount","type":"uint256"}],"name":"mintWithDeposits","outputs":[],"stateMutability":"payable","type":"function"},{"inputs":[{"internalType":"address","name":"newGovernance","type":"address"}],"name":"setGovernanceAddress","outputs":[],"stateMutability":"nonpayable","type":"function"},{"inputs":[{"internalType":"uint256","name":"hbarRatio","type":"uint256"},{"internalType":"uint256","name":"wbtcRatio","type":"uint256"},{"internalType":"uint256","name":"sauceRatio","type":"uint256"},{"internalType":"uint256","name":"usdcRatio","type":"uint256"},{"internalType":"uint256","name":"jamRatio","type":"uint256"},{"internalType":"uint256","name":"headstartRatio","type":"uint256"}],"name":"updateRatios","outputs":[],"stateMutability":"nonpayable","type":"function"},{"stateMutability":"payable","type":"receive"}],"evm":{"bytecode":{"linkReferences":{},"object":"60806040526019600a556002600b55600f600c55600f600d55600f600e55600a600f553480156200002f57600080fd5b506040516200259138038062002591833981016040819052620000529162000108565b600080546101676001600160a01b0319918216179091556001805482166001600160a01b03998a1617905560028054821697891697909717909655600380548716958816959095179094556004805486169387169390931790925560058054851691861691909117905560068054841691851691909117905560078054339084161790556009805490921692169190911790556200019d565b80516001600160a01b03811681146200010357600080fd5b919050565b600080600080600080600060e0888a0312156200012457600080fd5b6200012f88620000eb565b96506200013f60208901620000eb565b95506200014f60408901620000eb565b94506200015f60608901620000eb565b93506200016f60808901620000eb565b92506200017f60a08901620000eb565b91506200018f60c08901620000eb565b905092959891949750929550565b6123e480620001ad6000396000f3fe6080604052600436106101f25760003560e01c806384b1349e1161010d578063cfc16254116100a0578063e40d79a01161006f578063e40d79a014610543578063e9142b2e14610563578063ef03759314610579578063fa5692741461058f578063ff4348871461032b57600080fd5b8063cfc16254146104e3578063d65db29714610503578063de97b29f146104ce578063e1e995761461052357600080fd5b806397dd850d116100dc57806397dd850d14610481578063a1c6a7af146104a5578063b158d32b146104bb578063c1419def146104ce57600080fd5b806384b1349e146103de5780638f8f6c01146103fe5780638f9f8b0114610414578063919904661461046157600080fd5b80633265c151116101855780635af91dab116101545780635af91dab146103685780635ea4a9fd1461032b578063630eb8ab146103b65780637bd82c69146103cb57600080fd5b80633265c1511461030b5780634234e0ed1461032b578063462ef0fa1461032b5780634924190c1461035257600080fd5b80631ec65c36116101c15780631ec65c361461028b5780632a0acc6a146102ab5780632d2c5565146102cb5780632ed41384146102eb57600080fd5b80630f0aeb8d146101fe57806310ca0bce14610226578063146278341461023d5780631bf5ae0c1461027557600080fd5b366101f957005b600080fd5b34801561020a57600080fd5b50610213600181565b6040519081526020015b60405180910390f35b34801561023257600080fd5b5061023b6105af565b005b34801561024957600080fd5b5060085461025d906001600160a01b031681565b6040516001600160a01b03909116815260200161021d565b34801561028157600080fd5b50610213600b5481565b34801561029757600080fd5b5060035461025d906001600160a01b031681565b3480156102b757600080fd5b5060075461025d906001600160a01b031681565b3480156102d757600080fd5b5060095461025d906001600160a01b031681565b3480156102f757600080fd5b5060025461025d906001600160a01b031681565b34801561031757600080fd5b5061023b610326366004611d22565b6109db565b34801561033757600080fd5b50610340600881565b60405160ff909116815260200161021d565b34801561035e57600080fd5b50610213600a5481565b34801561037457600080fd5b5061037d610b97565b604080519615158752941515602087015292151593850193909352151560608401529015156080830152151560a082015260c00161021d565b3480156103c257600080fd5b50610213606481565b3480156103d757600080fd5b5047610213565b3480156103ea57600080fd5b5060065461025d906001600160a01b031681565b34801561040a57600080fd5b50610213600d5481565b34801561042057600080fd5b5061043461042f366004611d65565b610f39565b604080519687526020870195909552938501929092526060840152608083015260a082015260c00161021d565b34801561046d57600080fd5b5061023b61047c366004611d22565b611065565b34801561048d57600080fd5b50600a54600b54600c54600d54600e54600f54610434565b3480156104b157600080fd5b50610213600e5481565b61023b6104c9366004611d22565b611090565b3480156104da57600080fd5b50610340600681565b3480156104ef57600080fd5b5061023b6104fe366004611d7e565b6110bc565b34801561050f57600080fd5b5061023b61051e366004611d65565b611139565b34801561052f57600080fd5b5060015461025d906001600160a01b031681565b34801561054f57600080fd5b5060055461025d906001600160a01b031681565b34801561056f57600080fd5b50610213600f5481565b34801561058557600080fd5b50610213600c5481565b34801561059b57600080fd5b5060045461025d906001600160a01b031681565b6000805460015460405163248a35ef60e11b81526001600160a01b03928316926349146bde926105e792309290911690600401611dae565b6020604051808303816000875af1158015610606573d6000803e3d6000fd5b505050506040513d601f19601f8201168201806040525081019061062a9190611ddf565b60015460405191925060008051602061238f83398151915291610658916001600160a01b0316908490611dfa565b60405180910390a16000805460025460405163248a35ef60e11b81526001600160a01b03928316926349146bde9261069892309290911690600401611dae565b6020604051808303816000875af11580156106b7573d6000803e3d6000fd5b505050506040513d601f19601f820116820180604052508101906106db9190611ddf565b60025460405191925060008051602061238f83398151915291610709916001600160a01b0316908490611dfa565b60405180910390a16000805460035460405163248a35ef60e11b81526001600160a01b03928316926349146bde9261074992309290911690600401611dae565b6020604051808303816000875af1158015610768573d6000803e3d6000fd5b505050506040513d601f19601f8201168201806040525081019061078c9190611ddf565b60035460405191925060008051602061238f833981519152916107ba916001600160a01b0316908490611dfa565b60405180910390a1600080546004805460405163248a35ef60e11b81526001600160a01b03938416936349146bde936107f893309392169101611dae565b6020604051808303816000875af1158015610817573d6000803e3d6000fd5b505050506040513d601f19601f8201168201806040525081019061083b9190611ddf565b60045460405191925060008051602061238f83398151915291610869916001600160a01b0316908490611dfa565b60405180910390a16000805460055460405163248a35ef60e11b81526001600160a01b03928316926349146bde926108a992309290911690600401611dae565b6020604051808303816000875af11580156108c8573d6000803e3d6000fd5b505050506040513d601f19601f820116820180604052508101906108ec9190611ddf565b60055460405191925060008051602061238f8339815191529161091a916001600160a01b0316908490611dfa565b60405180910390a16000805460065460405163248a35ef60e11b81526001600160a01b03928316926349146bde9261095a92309290911690600401611dae565b6020604051808303816000875af1158015610979573d6000803e3d6000fd5b505050506040513d601f19601f8201168201806040525081019061099d9190611ddf565b60065460405191925060008051602061238f833981519152916109cb916001600160a01b0316908490611dfa565b60405180910390a1505050505050565b6008546001600160a01b03163314610a06576040516354348f0360e01b815260040160405180910390fd5b6008546001600160a01b0316610a2f576040516351ab837960e01b815260040160405180910390fd5b610a5560405180604001604052806004815260200163242120a960e11b815250876111f7565b610a7b604051806040016040528060048152602001635742544360e01b815250866111f7565b610aa260405180604001604052806005815260200164534155434560d81b815250856111f7565b610ac8604051806040016040528060048152602001635553444360e01b815250846111f7565b610aed604051806040016040528060038152602001624a414d60e81b815250836111f7565b610b18604051806040016040528060098152602001681211505114d510549560ba1b815250826111f7565b600a869055600b859055600c849055600d839055600e829055600f8190556040805187815260208101879052908101859052606081018490526080810183905260a0810182905233907fdddcd6d13d30a1b9bf1c0879c984c2674ffcbf7df677700a7a3752b1fd7e0f069060c0015b60405180910390a2505050505050565b60008054600154604051630d9f324960e31b815283928392839283928392839283926001600160a01b0390811692636cf9924892610bdb9230921690600401611dae565b60408051808303816000875af1158015610bf9573d6000803e3d6000fd5b505050506040513d601f19601f82011682018060405250810190610c1d9190611e16565b91509150601660030b8260070b148015610c345750805b60008054600254604051630d9f324960e31b8152939b50919283926001600160a01b0392831692636cf9924892610c719230921690600401611dae565b60408051808303816000875af1158015610c8f573d6000803e3d6000fd5b505050506040513d601f19601f82011682018060405250810190610cb39190611e16565b91509150601660030b8260070b148015610cca5750805b60008054600354604051630d9f324960e31b8152939c50919283926001600160a01b0392831692636cf9924892610d079230921690600401611dae565b60408051808303816000875af1158015610d25573d6000803e3d6000fd5b505050506040513d601f19601f82011682018060405250810190610d499190611e16565b91509150601660030b8260070b148015610d605750805b6000805460048054604051630d9f324960e31b8152949e50929384936001600160a01b0393841693636cf9924893610d9e9330939092169101611dae565b60408051808303816000875af1158015610dbc573d6000803e3d6000fd5b505050506040513d601f19601f82011682018060405250810190610de09190611e16565b91509150601660030b8260070b148015610df75750805b60008054600554604051630d9f324960e31b8152939e50919283926001600160a01b0392831692636cf9924892610e349230921690600401611dae565b60408051808303816000875af1158015610e52573d6000803e3d6000fd5b505050506040513d601f19601f82011682018060405250810190610e769190611e16565b91509150601660030b8260070b148015610e8d5750805b60008054600654604051630d9f324960e31b8152939f50919283926001600160a01b0392831692636cf9924892610eca9230921690600401611dae565b60408051808303816000875af1158015610ee8573d6000803e3d6000fd5b505050506040513d601f19601f82011682018060405250810190610f0c9190611e16565b91509150601660030b8260070b148015610f235750805b9c50505050505050505050505050909192939495565b600080600080600080600a805488610f519190611e68565b610f5f906305f5e100611e68565b610f699190611e85565b95506064610f796008600a611f8b565b600b54610f86908a611e68565b610f909190611e68565b610f9a9190611e85565b9450600a610fa9600682611f8b565b600c54610fb6908a611e68565b610fc09190611e68565b610fca9190611e85565b9350600a610fd9600682611f8b565b600d54610fe6908a611e68565b610ff09190611e68565b610ffa9190611e85565b9250600a611009600882611f8b565b600e54611016908a611e68565b6110209190611e68565b61102a9190611e85565b9150600a611039600882611f8b565b600f54611046908a611e68565b6110509190611e68565b61105a9190611e85565b905091939550919395565b6007546001600160a01b03163314610a2f57604051634755657960e01b815260040160405180910390fd5b61109e868686868686611228565b6110ab85858585856114ea565b6110b4866119ea565b505050505050565b6007546001600160a01b031633146110e757604051634755657960e01b815260040160405180910390fd5b600880546001600160a01b038381166001600160a01b0319831681179093556040519116919082907f73666e452d96d561d08d04f6c3f125bc9ae8f7080f8df2c5160e2967f8b1e4a790600090a35050565b6007546001600160a01b0316331461116457604051634755657960e01b815260040160405180910390fd5b478111156111b95760405162461bcd60e51b815260206004820152601960248201527f496e73756666696369656e7420484241522062616c616e63650000000000000060448201526064015b60405180910390fd5b6007546040516001600160a01b039091169082156108fc029083906000818181858888f193505050501580156111f3573d6000803e3d6000fd5b5050565b60018110806112065750606481115b156111f3578181604051636482420760e11b81526004016111b0929190611fe0565b856000036112495760405163162908e360e11b815260040160405180910390fd5b6001546001600160a01b031661128b576040516364d2ac4160e01b81526004016111b090602080825260049082015263098b29cb60e31b604082015260600190565b6002546001600160a01b03166112b4576040516364d2ac4160e01b81526004016111b090612002565b6003546001600160a01b03166112dd576040516364d2ac4160e01b81526004016111b090612026565b6004546001600160a01b0316611306576040516364d2ac4160e01b81526004016111b09061204b565b6005546001600160a01b031661132f576040516364d2ac4160e01b81526004016111b09061206f565b6006546001600160a01b0316611358576040516364d2ac4160e01b81526004016111b090612092565b600080600080600080306001600160a01b0316638f9f8b018d6040518263ffffffff1660e01b815260040161138f91815260200190565b60c060405180830381865afa1580156113ac573d6000803e3d6000fd5b505050506040513d601f19601f820116820180604052508101906113d091906120bb565b955095509550955095509550853410156114235760405163d5871b2360e01b81526060600480830191909152606482015263242120a960e11b60848201526024810187905234604482015260a4016111b0565b848b101561144857848b60405163d5871b2360e01b81526004016111b0929190612105565b838a101561146d57838a60405163d5871b2360e01b81526004016111b0929190612139565b8289101561149257828960405163d5871b2360e01b81526004016111b092919061215e565b818810156114b757818860405163d5871b2360e01b81526004016111b0929190612182565b808710156114dc57808760405163d5871b2360e01b81526004016111b09291906121a5565b505050505050505050505050565b6000805460025460405163eca3691760e01b815283926001600160a01b039081169263eca36917926115289290911690339030908d906004016121ce565b6020604051808303816000875af1158015611547573d6000803e3d6000fd5b505050506040513d601f19601f8201168201806040525081019061156b9190611ddf565b9050600781900b6016146115be576040805163016146c160e61b81526004810191909152600d60448201526c2ba12a21903a3930b739b332b960991b6064820152600782900b60248201526084016111b0565b816115c8816121fb565b6000805460035460405163eca3691760e01b81529396509193506001600160a01b039081169263eca3691792611608921690339030908d906004016121ce565b6020604051808303816000875af1158015611627573d6000803e3d6000fd5b505050506040513d601f19601f8201168201806040525081019061164b9190611ddf565b9050600781900b60161461169f576040805163016146c160e61b81526004810191909152600e60448201526d29a0aaa1a2903a3930b739b332b960911b6064820152600782900b60248201526084016111b0565b826116a9816121fb565b600080546004805460405163eca3691760e01b81529498509294506001600160a01b039182169363eca36917936116e8931691339130918e91016121ce565b6020604051808303816000875af1158015611707573d6000803e3d6000fd5b505050506040513d601f19601f8201168201806040525081019061172b9190611ddf565b9050600781900b60161461177e576040805163016146c160e61b81526004810191909152600d60448201526c2aa9a221903a3930b739b332b960991b6064820152600782900b60248201526084016111b0565b83611788816121fb565b6000805460055460405163eca3691760e01b81529398509193506001600160a01b039081169263eca36917926117c8921690339030908d906004016121ce565b6020604051808303816000875af11580156117e7573d6000803e3d6000fd5b505050506040513d601f19601f8201168201806040525081019061180b9190611ddf565b9050600781900b60161461185d576040805163016146c160e61b81526004810191909152600c60448201526b2520a6903a3930b739b332b960a11b6064820152600782900b60248201526084016111b0565b84611867816121fb565b6000805460065460405163eca3691760e01b81529399509193506001600160a01b039081169263eca36917926118a7921690339030908d906004016121ce565b6020604051808303816000875af11580156118c6573d6000803e3d6000fd5b505050506040513d601f19601f820116820180604052508101906118ea9190611ddf565b9050600781900b601614611942576040805163016146c160e61b8152600481019190915260126044820152712422a0a229aa20a92a103a3930b739b332b960711b6064820152600782900b60248201526084016111b0565b8561194c816121fb565b6040518181529097503391507ffb6c065aedb9f80db2a7c600754a071d9b16cdee761f37b7ecf1f3e68578b3229060200160405180910390a260408051348152602081018d90529081018b9052606081018a90526080810189905260a0810188905233907f46e94826ddc11785b987fda075f8564a41ac10326680fcd384e60b2064a7fab89060c00160405180910390a25050505050505050505050565b60006119f86008600a611f8b565b611a029083611e68565b604080518481526020810183905291925033917fef8f5be9f6e9b6cafe9795e6972d99452d92fdfca92995050eaa9cbbdcd627dc910160405180910390a26040805160008082526020820190925281611a6b565b6060815260200190600190039081611a565790505b506000805460015460405163707a02cd60e11b8152939450919283926001600160a01b039283169263e0f4059a92611aad92909116908890889060040161222a565b6000604051808303816000875af1158015611acc573d6000803e3d6000fd5b505050506040513d6000823e601f3d908101601f19168201604052611af491908101906122a6565b5060408051600784810b825283900b60208201529294509092507feeb8b94f7bf115b59d1437edf60f2f07656a1eb52234a1835d90480777c5762c910160405180910390a1600782900b601614611b86576040805163016146c160e61b81526004810191909152600960448201526813165396081b5a5b9d60ba1b6064820152600783900b60248201526084016111b0565b600954604080516001600160a01b03909216825233602083015281018590527f883dd34324c5e33f1ce994b8f1652ab425a78c77305f00a08660b05245ed17b39060600160405180910390a16000805460015460095460405163eca3691760e01b81526001600160a01b039384169363eca3691793611c12939082169291169033908b906004016121ce565b6020604051808303816000875af1158015611c31573d6000803e3d6000fd5b505050506040513d601f19601f82011682018060405250810190611c559190611ddf565b604051600782900b81529091507fdba6742b403f91ba4bdac157a4315ca9e09412ea4375f6ebbd570c7676c11f479060200160405180910390a1600781900b601614611cf0576040805163016146c160e61b81526004810191909152601b60448201527f4c594e58207472616e736665722066726f6d20747265617375727900000000006064820152600782900b60248201526084016111b0565b60405186815233907f465927a4840d7c7d6aa087bb368fe25bed2f96a7de450603903e0331dec0dbb590602001610b87565b60008060008060008060c08789031215611d3b57600080fd5b505084359660208601359650604086013595606081013595506080810135945060a0013592509050565b600060208284031215611d7757600080fd5b5035919050565b600060208284031215611d9057600080fd5b81356001600160a01b0381168114611da757600080fd5b9392505050565b6001600160a01b0392831681529116602082015260400190565b8051600781900b8114611dda57600080fd5b919050565b600060208284031215611df157600080fd5b611da782611dc8565b6001600160a01b0392909216825260070b602082015260400190565b60008060408385031215611e2957600080fd5b611e3283611dc8565b915060208301518015158114611e4757600080fd5b809150509250929050565b634e487b7160e01b600052601160045260246000fd5b8082028115828204841417611e7f57611e7f611e52565b92915050565b600082611ea257634e487b7160e01b600052601260045260246000fd5b500490565b600181815b80851115611ee2578160001904821115611ec857611ec8611e52565b80851615611ed557918102915b93841c9390800290611eac565b509250929050565b600082611ef957506001611e7f565b81611f0657506000611e7f565b8160018114611f1c5760028114611f2657611f42565b6001915050611e7f565b60ff841115611f3757611f37611e52565b50506001821b611e7f565b5060208310610133831016604e8410600b8410161715611f65575081810a611e7f565b611f6f8383611ea7565b8060001904821115611f8357611f83611e52565b029392505050565b6000611da760ff841683611eea565b6000815180845260005b81811015611fc057602081850181015186830182015201611fa4565b506000602082860101526020601f19601f83011685010191505092915050565b604081526000611ff36040830185611f9a565b90508260208301529392505050565b602081526000611e7f6020830160048152635742544360e01b602082015260400190565b602081526000611e7f602083016005815264534155434560d81b602082015260400190565b602081526000611e7f6020830160048152635553444360e01b602082015260400190565b602081526000611e7f6020830160038152624a414d60e81b602082015260400190565b602081526000611e7f6020830160098152681211505114d510549560ba1b602082015260400190565b60008060008060008060c087890312156120d457600080fd5b865195506020870151945060408701519350606087015192506080870151915060a087015190509295509295509295565b6060815260006121296060830160048152635742544360e01b602082015260400190565b6020830194909452506040015290565b606081526000612129606083016005815264534155434560d81b602082015260400190565b6060815260006121296060830160048152635553444360e01b602082015260400190565b6060815260006121296060830160038152624a414d60e81b602082015260400190565b6060815260006121296060830160098152681211505114d510549560ba1b602082015260400190565b6001600160a01b03948516815292841660208401529216604082015260079190910b606082015260800190565b60006001820161220d5761220d611e52565b5060010190565b634e487b7160e01b600052604160045260246000fd5b60006060820160018060a01b038616835260208560070b818501526060604085015281855180845260808601915060808160051b870101935082870160005b8281101561229757607f19888703018452612285868351611f9a565b95509284019290840190600101612269565b50939998505050505050505050565b6000806000606084860312156122bb57600080fd5b6122c484611dc8565b925060206122d3818601611dc8565b9250604085015167ffffffffffffffff808211156122f057600080fd5b818701915087601f83011261230457600080fd5b81518181111561231657612316612214565b8060051b604051601f19603f8301168101818110858211171561233b5761233b612214565b60405291825284820192508381018501918a83111561235957600080fd5b938501935b8285101561237e5761236f85611dc8565b8452938501939285019261235e565b809650505050505050925092509256fe6c452a6a0f6c8613bd46d4bd9a6192b0904a3f33a64c294ba553582502dfd770a2646970667358221220df06ba4dfa9e58bb5ced8011756b221f876eace2274701fc1959feba7ce46bf764736f6c63430008130033","opcodes":"PUSH1 0x80 PUSH1 0x40 MSTORE PUSH1 0x19 PUSH1 0xA SSTORE PUSH1 0x2 PUSH1 0xB SSTORE PUSH1 0xF PUSH1 0xC SSTORE PUSH1 0xF PUSH1 0xD SSTORE PUSH1 0xF PUSH1 0xE SSTORE PUSH1 0xA PUSH1 0xF SSTORE CALLVALUE DUP1 ISZERO PUSH3 0x2F JUMPI PUSH1 0x0 DUP1 REVERT JUMPDEST POP PUSH1 0x40 MLOAD PUSH3 0x2591 CODESIZE SUB DUP1 PUSH3 0x2591 DUP4 CODECOPY DUP2 ADD PUSH1 0x40 DUP2 SWAP1 MSTORE PUSH3 0x52 SWAP2 PUSH3 0x108 JUMP JUMPDEST PUSH1 0x0 DUP1 SLOAD PUSH2 0x167 PUSH1 0x1 PUSH1 0x1 PUSH1 0xA0 SHL SUB NOT SWAP2 DUP3 AND OR SWAP1 SWAP2 SSTORE PUSH1 0x1 DUP1 SLOAD DUP3 AND PUSH1 0x1 PUSH1 0x1 PUSH1 0xA0 SHL SUB SWAP10 DUP11 AND OR SWAP1 SSTORE PUSH1 0x2 DUP1 SLOAD DUP3 AND SWAP8 DUP10 AND SWAP8 SWAP1 SWAP8 OR SWAP1 SWAP7 SSTORE PUSH1 0x3 DUP1 SLOAD DUP8 AND SWAP6 DUP9 AND SWAP6 SWAP1 SWAP6 OR SWAP1 SWAP5 SSTORE PUSH1 0x4 DUP1 SLOAD DUP7 AND SWAP4 DUP8 AND SWAP4 SWAP1 SWAP4 OR SWAP1 SWAP3 SSTORE PUSH1 0x5 DUP1 SLOAD DUP6 AND SWAP2 DUP7 AND SWAP2 SWAP1 SWAP2 OR SWAP1 SSTORE PUSH1 0x6 DUP1 SLOAD DUP5 AND SWAP2 DUP6 AND SWAP2 SWAP1 SWAP2 OR SWAP1 SSTORE PUSH1 0x7 DUP1 SLOAD CALLER SWAP1 DUP5 AND OR SWAP1 SSTORE PUSH1 0x9 DUP1 SLOAD SWAP1 SWAP3 AND SWAP3 AND SWAP2 SWAP1 SWAP2 OR SWAP1 SSTORE PUSH3 0x19D JUMP JUMPDEST DUP1 MLOAD PUSH1 0x1 PUSH1 0x1 PUSH1 0xA0 SHL SUB DUP2 AND DUP2 EQ PUSH3 0x103 JUMPI PUSH1 0x0 DUP1 REVERT JUMPDEST SWAP2 SWAP1 POP JUMP JUMPDEST PUSH1 0x0 DUP1 PUSH1 0x0 DUP1 PUSH1 0x0 DUP1 PUSH1 0x0 PUSH1 0xE0 DUP9 DUP11 SUB SLT ISZERO PUSH3 0x124 JUMPI PUSH1 0x0 DUP1 REVERT JUMPDEST PUSH3 0x12F DUP9 PUSH3 0xEB JUMP JUMPDEST SWAP7 POP PUSH3 0x13F PUSH1 0x20 DUP10 ADD PUSH3 0xEB JUMP JUMPDEST SWAP6 POP PUSH3 0x14F PUSH1 0x40 DUP10 ADD PUSH3 0xEB JUMP JUMPDEST SWAP5 POP PUSH3 0x15F PUSH1 0x60 DUP10 ADD PUSH3 0xEB JUMP JUMPDEST SWAP4 POP PUSH3 0x16F PUSH1 0x80 DUP10 ADD PUSH3 0xEB JUMP JUMPDEST SWAP3 POP PUSH3 0x17F PUSH1 0xA0 DUP10 ADD PUSH3 0xEB JUMP JUMPDEST SWAP2 POP PUSH3 0x18F PUSH1 0xC0 DUP10 ADD PUSH3 0xEB JUMP JUMPDEST SWAP1 POP SWAP3 SWAP6 SWAP9 SWAP2 SWAP5 SWAP8 POP SWAP3 SWAP6 POP JUMP JUMPDEST PUSH2 0x23E4 DUP1 PUSH3 0x1AD PUSH1 0x0 CODECOPY PUSH1 0x0 RETURN INVALID PUSH1 0x80 PUSH1 0x40 MSTORE PUSH1 0x4 CALLDATASIZE LT PUSH2 0x1F2 JUMPI PUSH1 0x0 CALLDATALOAD PUSH1 0xE0 SHR DUP1 PUSH4 0x84B1349E GT PUSH2 0x10D JUMPI DUP1 PUSH4 0xCFC16254 GT PUSH2 0xA0 JUMPI DUP1 PUSH4 0xE40D79A0 GT PUSH2 0x6F JUMPI DUP1 PUSH4 0xE40D79A0 EQ PUSH2 0x543 JUMPI DUP1 PUSH4 0xE9142B2E EQ PUSH2 0x563 JUMPI DUP1 PUSH4 0xEF037593 EQ PUSH2 0x579 JUMPI DUP1 PUSH4 0xFA569274 EQ PUSH2 0x58F JUMPI DUP1 PUSH4 0xFF434887 EQ PUSH2 0x32B JUMPI PUSH1 0x0 DUP1 REVERT JUMPDEST DUP1 PUSH4 0xCFC16254 EQ PUSH2 0x4E3 JUMPI DUP1 PUSH4 0xD65DB297 EQ PUSH2 0x503 JUMPI DUP1 PUSH4 0xDE97B29F EQ PUSH2 0x4CE JUMPI DUP1 PUSH4 0xE1E99576 EQ PUSH2 0x523 JUMPI PUSH1 0x0 DUP1 REVERT JUMPDEST DUP1 PUSH4 0x97DD850D GT PUSH2 0xDC JUMPI DUP1 PUSH4 0x97DD850D EQ PUSH2 0x481 JUMPI DUP1 PUSH4 0xA1C6A7AF EQ PUSH2 0x4A5 JUMPI DUP1 PUSH4 0xB158D32B EQ PUSH2 0x4BB JUMPI DUP1 PUSH4 0xC1419DEF EQ PUSH2 0x4CE JUMPI PUSH1 0x0 DUP1 REVERT JUMPDEST DUP1 PUSH4 0x84B1349E EQ PUSH2 0x3DE JUMPI DUP1 PUSH4 0x8F8F6C01 EQ PUSH2 0x3FE JUMPI DUP1 PUSH4 0x8F9F8B01 EQ PUSH2 0x414 JUMPI DUP1 PUSH4 0x91990466 EQ PUSH2 0x461 JUMPI PUSH1 0x0 DUP1 REVERT JUMPDEST DUP1 PUSH4 0x3265C151 GT PUSH2 0x185 JUMPI DUP1 PUSH4 0x5AF91DAB GT PUSH2 0x154 JUMPI DUP1 PUSH4 0x5AF91DAB EQ PUSH2 0x368 JUMPI DUP1 PUSH4 0x5EA4A9FD EQ PUSH2 0x32B JUMPI DUP1 PUSH4 0x630EB8AB EQ PUSH2 0x3B6 JUMPI DUP1 PUSH4 0x7BD82C69 EQ PUSH2 0x3CB JUMPI PUSH1 0x0 DUP1 REVERT JUMPDEST DUP1 PUSH4 0x3265C151 EQ PUSH2 0x30B JUMPI DUP1 PUSH4 0x4234E0ED EQ PUSH2 0x32B JUMPI DUP1 PUSH4 0x462EF0FA EQ PUSH2 0x32B JUMPI DUP1 PUSH4 0x4924190C EQ PUSH2 0x352 JUMPI PUSH1 0x0 DUP1 REVERT JUMPDEST DUP1 PUSH4 0x1EC65C36 GT PUSH2 0x1C1 JUMPI DUP1 PUSH4 0x1EC65C36 EQ PUSH2 0x28B JUMPI DUP1 PUSH4 0x2A0ACC6A EQ PUSH2 0x2AB JUMPI DUP1 PUSH4 0x2D2C5565 EQ PUSH2 0x2CB JUMPI DUP1 PUSH4 0x2ED41384 EQ PUSH2 0x2EB JUMPI PUSH1 0x0 DUP1 REVERT JUMPDEST DUP1 PUSH4 0xF0AEB8D EQ PUSH2 0x1FE JUMPI DUP1 PUSH4 0x10CA0BCE EQ PUSH2 0x226 JUMPI DUP1 PUSH4 0x14627834 EQ PUSH2 0x23D JUMPI DUP1 PUSH4 0x1BF5AE0C EQ PUSH2 0x275 JUMPI PUSH1 0x0 DUP1 REVERT JUMPDEST CALLDATASIZE PUSH2 0x1F9 JUMPI STOP JUMPDEST PUSH1 0x0 DUP1 REVERT JUMPDEST CALLVALUE DUP1 ISZERO PUSH2 0x20A JUMPI PUSH1 0x0 DUP1 REVERT JUMPDEST POP PUSH2 0x213 PUSH1 0x1 DUP2 JUMP JUMPDEST PUSH1 0x40 MLOAD SWAP1 DUP2 MSTORE PUSH1 0x20 ADD JUMPDEST PUSH1 0x40 MLOAD DUP1 SWAP2 SUB SWAP1 RETURN JUMPDEST CALLVALUE DUP1 ISZERO PUSH2 0x232 JUMPI PUSH1 0x0 DUP1 REVERT JUMPDEST POP PUSH2 0x23B PUSH2 0x5AF JUMP JUMPDEST STOP JUMPDEST CALLVALUE DUP1 ISZERO PUSH2 0x249 JUMPI PUSH1 0x0 DUP1 REVERT JUMPDEST POP PUSH1 0x8 SLOAD PUSH2 0x25D SWAP1 PUSH1 0x1 PUSH1 0x1 PUSH1 0xA0 SHL SUB AND DUP2 JUMP JUMPDEST PUSH1 0x40 MLOAD PUSH1 0x1 PUSH1 0x1 PUSH1 0xA0 SHL SUB SWAP1 SWAP2 AND DUP2 MSTORE PUSH1 0x20 ADD PUSH2 0x21D JUMP JUMPDEST CALLVALUE DUP1 ISZERO PUSH2 0x281 JUMPI PUSH1 0x0 DUP1 REVERT JUMPDEST POP PUSH2 0x213 PUSH1 0xB SLOAD DUP2 JUMP JUMPDEST CALLVALUE DUP1 ISZERO PUSH2 0x297 JUMPI PUSH1 0x0 DUP1 REVERT JUMPDEST POP PUSH1 0x3 SLOAD PUSH2 0x25D SWAP1 PUSH1 0x1 PUSH1 0x1 PUSH1 0xA0 SHL SUB AND DUP2 JUMP JUMPDEST CALLVALUE DUP1 ISZERO PUSH2 0x2B7 JUMPI PUSH1 0x0 DUP1 REVERT JUMPDEST POP PUSH1 0x7 SLOAD PUSH2 0x25D SWAP1 PUSH1 0x1 PUSH1 0x1 PUSH1 0xA0 SHL SUB AND DUP2 JUMP JUMPDEST CALLVALUE DUP1 ISZERO PUSH2 0x2D7 JUMPI PUSH1 0x0 DUP1 REVERT JUMPDEST POP PUSH1 0x9 SLOAD PUSH2 0x25D SWAP1 PUSH1 0x1 PUSH1 0x1 PUSH1 0xA0 SHL SUB AND DUP2 JUMP JUMPDEST CALLVALUE DUP1 ISZERO PUSH2 0x2F7 JUMPI PUSH1 0x0 DUP1 REVERT JUMPDEST POP PUSH1 0x2 SLOAD PUSH2 0x25D SWAP1 PUSH1 0x1 PUSH1 0x1 PUSH1 0xA0 SHL SUB AND DUP2 JUMP JUMPDEST CALLVALUE DUP1 ISZERO PUSH2 0x317 JUMPI PUSH1 0x0 DUP1 REVERT JUMPDEST POP PUSH2 0x23B PUSH2 0x326 CALLDATASIZE PUSH1 0x4 PUSH2 0x1D22 JUMP JUMPDEST PUSH2 0x9DB JUMP JUMPDEST CALLVALUE DUP1 ISZERO PUSH2 0x337 JUMPI PUSH1 0x0 DUP1 REVERT JUMPDEST POP PUSH2 0x340 PUSH1 0x8 DUP2 JUMP JUMPDEST PUSH1 0x40 MLOAD PUSH1 0xFF SWAP1 SWAP2 AND DUP2 MSTORE PUSH1 0x20 ADD PUSH2 0x21D JUMP JUMPDEST CALLVALUE DUP1 ISZERO PUSH2 0x35E JUMPI PUSH1 0x0 DUP1 REVERT JUMPDEST POP PUSH2 0x213 PUSH1 0xA SLOAD DUP2 JUMP JUMPDEST CALLVALUE DUP1 ISZERO PUSH2 0x374 JUMPI PUSH1 0x0 DUP1 REVERT JUMPDEST POP PUSH2 0x37D PUSH2 0xB97 JUMP JUMPDEST PUSH1 0x40 DUP1 MLOAD SWAP7 ISZERO ISZERO DUP8 MSTORE SWAP5 ISZERO ISZERO PUSH1 0x20 DUP8 ADD MSTORE SWAP3 ISZERO ISZERO SWAP4 DUP6 ADD SWAP4 SWAP1 SWAP4 MSTORE ISZERO ISZERO PUSH1 0x60 DUP5 ADD MSTORE SWAP1 ISZERO ISZERO PUSH1 0x80 DUP4 ADD MSTORE ISZERO ISZERO PUSH1 0xA0 DUP3 ADD MSTORE PUSH1 0xC0 ADD PUSH2 0x21D JUMP JUMPDEST CALLVALUE DUP1 ISZERO PUSH2 0x3C2 JUMPI PUSH1 0x0 DUP1 REVERT JUMPDEST POP PUSH2 0x213 PUSH1 0x64 DUP2 JUMP JUMPDEST CALLVALUE DUP1 ISZERO PUSH2 0x3D7 JUMPI PUSH1 0x0 DUP1 REVERT JUMPDEST POP SELFBALANCE PUSH2 0x213 JUMP JUMPDEST CALLVALUE DUP1 ISZERO PUSH2 0x3EA JUMPI PUSH1 0x0 DUP1 REVERT JUMPDEST POP PUSH1 0x6 SLOAD PUSH2 0x25D SWAP1 PUSH1 0x1 PUSH1 0x1 PUSH1 0xA0 SHL SUB AND DUP2 JUMP JUMPDEST CALLVALUE DUP1 ISZERO PUSH2 0x40A JUMPI PUSH1 0x0 DUP1 REVERT JUMPDEST POP PUSH2 0x213 PUSH1 0xD SLOAD DUP2 JUMP JUMPDEST CALLVALUE DUP1 ISZERO PUSH2 0x420 JUMPI PUSH1 0x0 DUP1 REVERT JUMPDEST POP PUSH2 0x434 PUSH2 0x42F CALLDATASIZE PUSH1 0x4 PUSH2 0x1D65 JUMP JUMPDEST PUSH2 0xF39 JUMP JUMPDEST PUSH1 0x40 DUP1 MLOAD SWAP7 DUP8 MSTORE PUSH1 0x20 DUP8 ADD SWAP6 SWAP1 SWAP6 MSTORE SWAP4 DUP6 ADD SWAP3 SWAP1 SWAP3 MSTORE PUSH1 0x60 DUP5 ADD MSTORE PUSH1 0x80 DUP4 ADD MSTORE PUSH1 0xA0 DUP3 ADD MSTORE PUSH1 0xC0 ADD PUSH2 0x21D JUMP JUMPDEST CALLVALUE DUP1 ISZERO PUSH2 0x46D JUMPI PUSH1 0x0 DUP1 REVERT JUMPDEST POP PUSH2 0x23B PUSH2 0x47C CALLDATASIZE PUSH1 0x4 PUSH2 0x1D22 JUMP JUMPDEST PUSH2 0x1065 JUMP JUMPDEST CALLVALUE DUP1 ISZERO PUSH2 0x48D JUMPI PUSH1 0x0 DUP1 REVERT JUMPDEST POP PUSH1 0xA SLOAD PUSH1 0xB SLOAD PUSH1 0xC SLOAD PUSH1 0xD SLOAD PUSH1 0xE SLOAD PUSH1 0xF SLOAD PUSH2 0x434 JUMP JUMPDEST CALLVALUE DUP1 ISZERO PUSH2 0x4B1 JUMPI PUSH1 0x0 DUP1 REVERT JUMPDEST POP PUSH2 0x213 PUSH1 0xE SLOAD DUP2 JUMP JUMPDEST PUSH2 0x23B PUSH2 0x4C9 CALLDATASIZE PUSH1 0x4 PUSH2 0x1D22 JUMP JUMPDEST PUSH2 0x1090 JUMP JUMPDEST CALLVALUE DUP1 ISZERO PUSH2 0x4DA JUMPI PUSH1 0x0 DUP1 REVERT JUMPDEST POP PUSH2 0x340 PUSH1 0x6 DUP2 JUMP JUMPDEST CALLVALUE DUP1 ISZERO PUSH2 0x4EF JUMPI PUSH1 0x0 DUP1 REVERT JUMPDEST POP PUSH2 0x23B PUSH2 0x4FE CALLDATASIZE PUSH1 0x4 PUSH2 0x1D7E JUMP JUMPDEST PUSH2 0x10BC JUMP JUMPDEST CALLVALUE DUP1 ISZERO PUSH2 0x50F JUMPI PUSH1 0x0 DUP1 REVERT JUMPDEST POP PUSH2 0x23B PUSH2 0x51E CALLDATASIZE PUSH1 0x4 PUSH2 0x1D65 JUMP JUMPDEST PUSH2 0x1139 JUMP JUMPDEST CALLVALUE DUP1 ISZERO PUSH2 0x52F JUMPI PUSH1 0x0 DUP1 REVERT JUMPDEST POP PUSH1 0x1 SLOAD PUSH2 0x25D SWAP1 PUSH1 0x1 PUSH1 0x1 PUSH1 0xA0 SHL SUB AND DUP2 JUMP JUMPDEST CALLVALUE DUP1 ISZERO PUSH2 0x54F JUMPI PUSH1 0x0 DUP1 REVERT JUMPDEST POP PUSH1 0x5 SLOAD PUSH2 0x25D SWAP1 PUSH1 0x1 PUSH1 0x1 PUSH1 0xA0 SHL SUB AND DUP2 JUMP JUMPDEST CALLVALUE DUP1 ISZERO PUSH2 0x56F JUMPI PUSH1 0x0 DUP1 REVERT JUMPDEST POP PUSH2 0x213 PUSH1 0xF SLOAD DUP2 JUMP JUMPDEST CALLVALUE DUP1 ISZERO PUSH2 0x585 JUMPI PUSH1 0x0 DUP1 REVERT JUMPDEST POP PUSH2 0x213 PUSH1 0xC SLOAD DUP2 JUMP JUMPDEST CALLVALUE DUP1 ISZERO PUSH2 0x59B JUMPI PUSH1 0x0 DUP1 REVERT JUMPDEST POP PUSH1 0x4 SLOAD PUSH2 0x25D SWAP1 PUSH1 0x1 PUSH1 0x1 PUSH1 0xA0 SHL SUB AND DUP2 JUMP JUMPDEST PUSH1 0x0 DUP1 SLOAD PUSH1 0x1 SLOAD PUSH1 0x40 MLOAD PUSH4 0x248A35EF PUSH1 0xE1 SHL DUP2 MSTORE PUSH1 0x1 PUSH1 0x1 PUSH1 0xA0 SHL SUB SWAP3 DUP4 AND SWAP3 PUSH4 0x49146BDE SWAP3 PUSH2 0x5E7 SWAP3 ADDRESS SWAP3 SWAP1 SWAP2 AND SWAP1 PUSH1 0x4 ADD PUSH2 0x1DAE JUMP JUMPDEST PUSH1 0x20 PUSH1 0x40 MLOAD DUP1 DUP4 SUB DUP2 PUSH1 0x0 DUP8 GAS CALL ISZERO DUP1 ISZERO PUSH2 0x606 JUMPI RETURNDATASIZE PUSH1 0x0 DUP1 RETURNDATACOPY RETURNDATASIZE PUSH1 0x0 REVERT JUMPDEST POP POP POP POP PUSH1 0x40 MLOAD RETURNDATASIZE PUSH1 0x1F NOT PUSH1 0x1F DUP3 ADD AND DUP3 ADD DUP1 PUSH1 0x40 MSTORE POP DUP2 ADD SWAP1 PUSH2 0x62A SWAP2 SWAP1 PUSH2 0x1DDF JUMP JUMPDEST PUSH1 0x1 SLOAD PUSH1 0x40 MLOAD SWAP2 SWAP3 POP PUSH1 0x0 DUP1 MLOAD PUSH1 0x20 PUSH2 0x238F DUP4 CODECOPY DUP2 MLOAD SWAP2 MSTORE SWAP2 PUSH2 0x658 SWAP2 PUSH1 0x1 PUSH1 0x1 PUSH1 0xA0 SHL SUB AND SWAP1 DUP5 SWAP1 PUSH2 0x1DFA JUMP JUMPDEST PUSH1 0x40 MLOAD DUP1 SWAP2 SUB SWAP1 LOG1 PUSH1 0x0 DUP1 SLOAD PUSH1 0x2 SLOAD PUSH1 0x40 MLOAD PUSH4 0x248A35EF PUSH1 0xE1 SHL DUP2 MSTORE PUSH1 0x1 PUSH1 0x1 PUSH1 0xA0 SHL SUB SWAP3 DUP4 AND SWAP3 PUSH4 0x49146BDE SWAP3 PUSH2 0x698 SWAP3 ADDRESS SWAP3 SWAP1 SWAP2 AND SWAP1 PUSH1 0x4 ADD PUSH2 0x1DAE JUMP JUMPDEST PUSH1 0x20 PUSH1 0x40 MLOAD DUP1 DUP4 SUB DUP2 PUSH1 0x0 DUP8 GAS CALL ISZERO DUP1 ISZERO PUSH2 0x6B7 JUMPI RETURNDATASIZE PUSH1 0x0 DUP1 RETURNDATACOPY RETURNDATASIZE PUSH1 0x0 REVERT JUMPDEST POP POP POP POP PUSH1 0x40 MLOAD RETURNDATASIZE PUSH1 0x1F NOT PUSH1 0x1F DUP3 ADD AND DUP3 ADD DUP1 PUSH1 0x40 MSTORE POP DUP2 ADD SWAP1 PUSH2 0x6DB SWAP2 SWAP1 PUSH2 0x1DDF JUMP JUMPDEST PUSH1 0x2 SLOAD PUSH1 0x40 MLOAD SWAP2 SWAP3 POP PUSH1 0x0 DUP1 MLOAD PUSH1 0x20 PUSH2 0x238F DUP4 CODECOPY DUP2 MLOAD SWAP2 MSTORE SWAP2 PUSH2 0x709 SWAP2 PUSH1 0x1 PUSH1 0x1 PUSH1 0xA0 SHL SUB AND SWAP1 DUP5 SWAP1 PUSH2 0x1DFA JUMP JUMPDEST PUSH1 0x40 MLOAD DUP1 SWAP2 SUB SWAP1 LOG1 PUSH1 0x0 DUP1 SLOAD PUSH1 0x3 SLOAD PUSH1 0x40 MLOAD PUSH4 0x248A35EF PUSH1 0xE1 SHL DUP2 MSTORE PUSH1 0x1 PUSH1 0x1 PUSH1 0xA0 SHL SUB SWAP3 DUP4 AND SWAP3 PUSH4 0x49146BDE SWAP3 PUSH2 0x749 SWAP3 ADDRESS SWAP3 SWAP1 SWAP2 AND SWAP1 PUSH1 0x4 ADD PUSH2 0x1DAE JUMP JUMPDEST PUSH1 0x20 PUSH1 0x40 MLOAD DUP1 DUP4 SUB DUP2 PUSH1 0x0 DUP8 GAS CALL ISZERO DUP1 ISZERO PUSH2 0x768 JUMPI RETURNDATASIZE PUSH1 0x0 DUP1 RETURNDATACOPY RETURNDATASIZE PUSH1 0x0 REVERT JUMPDEST POP POP POP POP PUSH1 0x40 MLOAD RETURNDATASIZE PUSH1 0x1F NOT PUSH1 0x1F DUP3 ADD AND DUP3 ADD DUP1 PUSH1 0x40 MSTORE POP DUP2 ADD SWAP1 PUSH2 0x78C SWAP2 SWAP1 PUSH2 0x1DDF JUMP JUMPDEST PUSH1 0x3 SLOAD PUSH1 0x40 MLOAD SWAP2 SWAP3 POP PUSH1 0x0 DUP1 MLOAD PUSH1 0x20 PUSH2 0x238F DUP4 CODECOPY DUP2 MLOAD SWAP2 MSTORE SWAP2 PUSH2 0x7BA SWAP2 PUSH1 0x1 PUSH1 0x1 PUSH1 0xA0 SHL SUB AND SWAP1 DUP5 SWAP1 PUSH2 0x1DFA JUMP JUMPDEST PUSH1 0x40 MLOAD DUP1 SWAP2 SUB SWAP1 LOG1 PUSH1 0x0 DUP1 SLOAD PUSH1 0x4 DUP1 SLOAD PUSH1 0x40 MLOAD PUSH4 0x248A35EF PUSH1 0xE1 SHL DUP2 MSTORE PUSH1 0x1 PUSH1 0x1 PUSH1 0xA0 SHL SUB SWAP4 DUP5 AND SWAP4 PUSH4 0x49146BDE SWAP4 PUSH2 0x7F8 SWAP4 ADDRESS SWAP4 SWAP3 AND SWAP2 ADD PUSH2 0x1DAE JUMP JUMPDEST PUSH1 0x20 PUSH1 0x40 MLOAD DUP1 DUP4 SUB DUP2 PUSH1 0x0 DUP8 GAS CALL ISZERO DUP1 ISZERO PUSH2 0x817 JUMPI RETURNDATASIZE PUSH1 0x0 DUP1 RETURNDATACOPY RETURNDATASIZE PUSH1 0x0 REVERT JUMPDEST POP POP POP POP PUSH1 0x40 MLOAD RETURNDATASIZE PUSH1 0x1F NOT PUSH1 0x1F DUP3 ADD AND DUP3 ADD DUP1 PUSH1 0x40 MSTORE POP DUP2 ADD SWAP1 PUSH2 0x83B SWAP2 SWAP1 PUSH2 0x1DDF JUMP JUMPDEST PUSH1 0x4 SLOAD PUSH1 0x40 MLOAD SWAP2 SWAP3 POP PUSH1 0x0 DUP1 MLOAD PUSH1 0x20 PUSH2 0x238F DUP4 CODECOPY DUP2 MLOAD SWAP2 MSTORE SWAP2 PUSH2 0x869 SWAP2 PUSH1 0x1 PUSH1 0x1 PUSH1 0xA0 SHL SUB AND SWAP1 DUP5 SWAP1 PUSH2 0x1DFA JUMP JUMPDEST PUSH1 0x40 MLOAD DUP1 SWAP2 SUB SWAP1 LOG1 PUSH1 0x0 DUP1 SLOAD PUSH1 0x5 SLOAD PUSH1 0x40 MLOAD PUSH4 0x248A35EF PUSH1 0xE1 SHL DUP2 MSTORE PUSH1 0x1 PUSH1 0x1 PUSH1 0xA0 SHL SUB SWAP3 DUP4 AND SWAP3 PUSH4 0x49146BDE SWAP3 PUSH2 0x8A9 SWAP3 ADDRESS SWAP3 SWAP1 SWAP2 AND SWAP1 PUSH1 0x4 ADD PUSH2 0x1DAE JUMP JUMPDEST PUSH1 0x20 PUSH1 0x40 MLOAD DUP1 DUP4 SUB DUP2 PUSH1 0x0 DUP8 GAS CALL ISZERO DUP1 ISZERO PUSH2 0x8C8 JUMPI RETURNDATASIZE PUSH1 0x0 DUP1 RETURNDATACOPY RETURNDATASIZE PUSH1 0x0 REVERT JUMPDEST POP POP POP POP PUSH1 0x40 MLOAD RETURNDATASIZE PUSH1 0x1F NOT PUSH1 0x1F DUP3 ADD AND DUP3 ADD DUP1 PUSH1 0x40 MSTORE POP DUP2 ADD SWAP1 PUSH2 0x8EC SWAP2 SWAP1 PUSH2 0x1DDF JUMP JUMPDEST PUSH1 0x5 SLOAD PUSH1 0x40 MLOAD SWAP2 SWAP3 POP PUSH1 0x0 DUP1 MLOAD PUSH1 0x20 PUSH2 0x238F DUP4 CODECOPY DUP2 MLOAD SWAP2 MSTORE SWAP2 PUSH2 0x91A SWAP2 PUSH1 0x1 PUSH1 0x1 PUSH1 0xA0 SHL SUB AND SWAP1 DUP5 SWAP1 PUSH2 0x1DFA JUMP JUMPDEST PUSH1 0x40 MLOAD DUP1 SWAP2 SUB SWAP1 LOG1 PUSH1 0x0 DUP1 SLOAD PUSH1 0x6 SLOAD PUSH1 0x40 MLOAD PUSH4 0x248A35EF PUSH1 0xE1 SHL DUP2 MSTORE PUSH1 0x1 PUSH1 0x1 PUSH1 0xA0 SHL SUB SWAP3 DUP4 AND SWAP3 PUSH4 0x49146BDE SWAP3 PUSH2 0x95A SWAP3 ADDRESS SWAP3 SWAP1 SWAP2 AND SWAP1 PUSH1 0x4 ADD PUSH2 0x1DAE JUMP JUMPDEST PUSH1 0x20 PUSH1 0x40 MLOAD DUP1 DUP4 SUB DUP2 PUSH1 0x0 DUP8 GAS CALL ISZERO DUP1 ISZERO PUSH2 0x979 JUMPI RETURNDATASIZE PUSH1 0x0 DUP1 RETURNDATACOPY RETURNDATASIZE PUSH1 0x0 REVERT JUMPDEST POP POP POP POP PUSH1 0x40 MLOAD RETURNDATASIZE PUSH1 0x1F NOT PUSH1 0x1F DUP3 ADD AND DUP3 ADD DUP1 PUSH1 0x40 MSTORE POP DUP2 ADD SWAP1 PUSH2 0x99D SWAP2 SWAP1 PUSH2 0x1DDF JUMP JUMPDEST PUSH1 0x6 SLOAD PUSH1 0x40 MLOAD SWAP2 SWAP3 POP PUSH1 0x0 DUP1 MLOAD PUSH1 0x20 PUSH2 0x238F DUP4 CODECOPY DUP2 MLOAD SWAP2 MSTORE SWAP2 PUSH2 0x9CB SWAP2 PUSH1 0x1 PUSH1 0x1 PUSH1 0xA0 SHL SUB AND SWAP1 DUP5 SWAP1 PUSH2 0x1DFA JUMP JUMPDEST PUSH1 0x40 MLOAD DUP1 SWAP2 SUB SWAP1 LOG1 POP POP POP POP POP POP JUMP JUMPDEST PUSH1 0x8 SLOAD PUSH1 0x1 PUSH1 0x1 PUSH1 0xA0 SHL SUB AND CALLER EQ PUSH2 0xA06 JUMPI PUSH1 0x40 MLOAD PUSH4 0x54348F03 PUSH1 0xE0 SHL DUP2 MSTORE PUSH1 0x4 ADD PUSH1 0x40 MLOAD DUP1 SWAP2 SUB SWAP1 REVERT JUMPDEST PUSH1 0x8 SLOAD PUSH1 0x1 PUSH1 0x1 PUSH1 0xA0 SHL SUB AND PUSH2 0xA2F JUMPI PUSH1 0x40 MLOAD PUSH4 0x51AB8379 PUSH1 0xE0 SHL DUP2 MSTORE PUSH1 0x4 ADD PUSH1 0x40 MLOAD DUP1 SWAP2 SUB SWAP1 REVERT JUMPDEST PUSH2 0xA55 PUSH1 0x40 MLOAD DUP1 PUSH1 0x40 ADD PUSH1 0x40 MSTORE DUP1 PUSH1 0x4 DUP2 MSTORE PUSH1 0x20 ADD PUSH4 0x242120A9 PUSH1 0xE1 SHL DUP2 MSTORE POP DUP8 PUSH2 0x11F7 JUMP JUMPDEST PUSH2 0xA7B PUSH1 0x40 MLOAD DUP1 PUSH1 0x40 ADD PUSH1 0x40 MSTORE DUP1 PUSH1 0x4 DUP2 MSTORE PUSH1 0x20 ADD PUSH4 0x57425443 PUSH1 0xE0 SHL DUP2 MSTORE POP DUP7 PUSH2 0x11F7 JUMP JUMPDEST PUSH2 0xAA2 PUSH1 0x40 MLOAD DUP1 PUSH1 0x40 ADD PUSH1 0x40 MSTORE DUP1 PUSH1 0x5 DUP2 MSTORE PUSH1 0x20 ADD PUSH5 0x5341554345 PUSH1 0xD8 SHL DUP2 MSTORE POP DUP6 PUSH2 0x11F7 JUMP JUMPDEST PUSH2 0xAC8 PUSH1 0x40 MLOAD DUP1 PUSH1 0x40 ADD PUSH1 0x40 MSTORE DUP1 PUSH1 0x4 DUP2 MSTORE PUSH1 0x20 ADD PUSH4 0x55534443 PUSH1 0xE0 SHL DUP2 MSTORE POP DUP5 PUSH2 0x11F7 JUMP JUMPDEST PUSH2 0xAED PUSH1 0x40 MLOAD DUP1 PUSH1 0x40 ADD PUSH1 0x40 MSTORE DUP1 PUSH1 0x3 DUP2 MSTORE PUSH1 0x20 ADD PUSH3 0x4A414D PUSH1 0xE8 SHL DUP2 MSTORE POP DUP4 PUSH2 0x11F7 JUMP JUMPDEST PUSH2 0xB18 PUSH1 0x40 MLOAD DUP1 PUSH1 0x40 ADD PUSH1 0x40 MSTORE DUP1 PUSH1 0x9 DUP2 MSTORE PUSH1 0x20 ADD PUSH9 0x1211505114D5105495 PUSH1 0xBA SHL DUP2 MSTORE POP DUP3 PUSH2 0x11F7 JUMP JUMPDEST PUSH1 0xA DUP7 SWAP1 SSTORE PUSH1 0xB DUP6 SWAP1 SSTORE PUSH1 0xC DUP5 SWAP1 SSTORE PUSH1 0xD DUP4 SWAP1 SSTORE PUSH1 0xE DUP3 SWAP1 SSTORE PUSH1 0xF DUP2 SWAP1 SSTORE PUSH1 0x40 DUP1 MLOAD DUP8 DUP2 MSTORE PUSH1 0x20 DUP2 ADD DUP8 SWAP1 MSTORE SWAP1 DUP2 ADD DUP6 SWAP1 MSTORE PUSH1 0x60 DUP2 ADD DUP5 SWAP1 MSTORE PUSH1 0x80 DUP2 ADD DUP4 SWAP1 MSTORE PUSH1 0xA0 DUP2 ADD DUP3 SWAP1 MSTORE CALLER SWAP1 PUSH32 0xDDDCD6D13D30A1B9BF1C0879C984C2674FFCBF7DF677700A7A3752B1FD7E0F06 SWAP1 PUSH1 0xC0 ADD JUMPDEST PUSH1 0x40 MLOAD DUP1 SWAP2 SUB SWAP1 LOG2 POP POP POP POP POP POP JUMP JUMPDEST PUSH1 0x0 DUP1 SLOAD PUSH1 0x1 SLOAD PUSH1 0x40 MLOAD PUSH4 0xD9F3249 PUSH1 0xE3 SHL DUP2 MSTORE DUP4 SWAP3 DUP4 SWAP3 DUP4 SWAP3 DUP4 SWAP3 DUP4 SWAP3 DUP4 SWAP3 DUP4 SWAP3 PUSH1 0x1 PUSH1 0x1 PUSH1 0xA0 SHL SUB SWAP1 DUP2 AND SWAP3 PUSH4 0x6CF99248 SWAP3 PUSH2 0xBDB SWAP3 ADDRESS SWAP3 AND SWAP1 PUSH1 0x4 ADD PUSH2 0x1DAE JUMP JUMPDEST PUSH1 0x40 DUP1 MLOAD DUP1 DUP4 SUB DUP2 PUSH1 0x0 DUP8 GAS CALL ISZERO DUP1 ISZERO PUSH2 0xBF9 JUMPI RETURNDATASIZE PUSH1 0x0 DUP1 RETURNDATACOPY RETURNDATASIZE PUSH1 0x0 REVERT JUMPDEST POP POP POP POP PUSH1 0x40 MLOAD RETURNDATASIZE PUSH1 0x1F NOT PUSH1 0x1F DUP3 ADD AND DUP3 ADD DUP1 PUSH1 0x40 MSTORE POP DUP2 ADD SWAP1 PUSH2 0xC1D SWAP2 SWAP1 PUSH2 0x1E16 JUMP JUMPDEST SWAP2 POP SWAP2 POP PUSH1 0x16 PUSH1 0x3 SIGNEXTEND DUP3 PUSH1 0x7 SIGNEXTEND EQ DUP1 ISZERO PUSH2 0xC34 JUMPI POP DUP1 JUMPDEST PUSH1 0x0 DUP1 SLOAD PUSH1 0x2 SLOAD PUSH1 0x40 MLOAD PUSH4 0xD9F3249 PUSH1 0xE3 SHL DUP2 MSTORE SWAP4 SWAP12 POP SWAP2 SWAP3 DUP4 SWAP3 PUSH1 0x1 PUSH1 0x1 PUSH1 0xA0 SHL SUB SWAP3 DUP4 AND SWAP3 PUSH4 0x6CF99248 SWAP3 PUSH2 0xC71 SWAP3 ADDRESS SWAP3 AND SWAP1 PUSH1 0x4 ADD PUSH2 0x1DAE JUMP JUMPDEST PUSH1 0x40 DUP1 MLOAD DUP1 DUP4 SUB DUP2 PUSH1 0x0 DUP8 GAS CALL ISZERO DUP1 ISZERO PUSH2 0xC8F JUMPI RETURNDATASIZE PUSH1 0x0 DUP1 RETURNDATACOPY RETURNDATASIZE PUSH1 0x0 REVERT JUMPDEST POP POP POP POP PUSH1 0x40 MLOAD RETURNDATASIZE PUSH1 0x1F NOT PUSH1 0x1F DUP3 ADD AND DUP3 ADD DUP1 PUSH1 0x40 MSTORE POP DUP2 ADD SWAP1 PUSH2 0xCB3 SWAP2 SWAP1 PUSH2 0x1E16 JUMP JUMPDEST SWAP2 POP SWAP2 POP PUSH1 0x16 PUSH1 0x3 SIGNEXTEND DUP3 PUSH1 0x7 SIGNEXTEND EQ DUP1 ISZERO PUSH2 0xCCA JUMPI POP DUP1 JUMPDEST PUSH1 0x0 DUP1 SLOAD PUSH1 0x3 SLOAD PUSH1 0x40 MLOAD PUSH4 0xD9F3249 PUSH1 0xE3 SHL DUP2 MSTORE SWAP4 SWAP13 POP SWAP2 SWAP3 DUP4 SWAP3 PUSH1 0x1 PUSH1 0x1 PUSH1 0xA0 SHL SUB SWAP3 DUP4 AND SWAP3 PUSH4 0x6CF99248 SWAP3 PUSH2 0xD07 SWAP3 ADDRESS SWAP3 AND SWAP1 PUSH1 0x4 ADD PUSH2 0x1DAE JUMP JUMPDEST PUSH1 0x40 DUP1 MLOAD DUP1 DUP4 SUB DUP2 PUSH1 0x0 DUP8 GAS CALL ISZERO DUP1 ISZERO PUSH2 0xD25 JUMPI RETURNDATASIZE PUSH1 0x0 DUP1 RETURNDATACOPY RETURNDATASIZE PUSH1 0x0 REVERT JUMPDEST POP POP POP POP PUSH1 0x40 MLOAD RETURNDATASIZE PUSH1 0x1F NOT PUSH1 0x1F DUP3 ADD AND DUP3 ADD DUP1 PUSH1 0x40 MSTORE POP DUP2 ADD SWAP1 PUSH2 0xD49 SWAP2 SWAP1 PUSH2 0x1E16 JUMP JUMPDEST SWAP2 POP SWAP2 POP PUSH1 0x16 PUSH1 0x3 SIGNEXTEND DUP3 PUSH1 0x7 SIGNEXTEND EQ DUP1 ISZERO PUSH2 0xD60 JUMPI POP DUP1 JUMPDEST PUSH1 0x0 DUP1 SLOAD PUSH1 0x4 DUP1 SLOAD PUSH1 0x40 MLOAD PUSH4 0xD9F3249 PUSH1 0xE3 SHL DUP2 MSTORE SWAP5 SWAP15 POP SWAP3 SWAP4 DUP5 SWAP4 PUSH1 0x1 PUSH1 0x1 PUSH1 0xA0 SHL SUB SWAP4 DUP5 AND SWAP4 PUSH4 0x6CF99248 SWAP4 PUSH2 0xD9E SWAP4 ADDRESS SWAP4 SWAP1 SWAP3 AND SWAP2 ADD PUSH2 0x1DAE JUMP JUMPDEST PUSH1 0x40 DUP1 MLOAD DUP1 DUP4 SUB DUP2 PUSH1 0x0 DUP8 GAS CALL ISZERO DUP1 ISZERO PUSH2 0xDBC JUMPI RETURNDATASIZE PUSH1 0x0 DUP1 RETURNDATACOPY RETURNDATASIZE PUSH1 0x0 REVERT JUMPDEST POP POP POP POP PUSH1 0x40 MLOAD RETURNDATASIZE PUSH1 0x1F NOT PUSH1 0x1F DUP3 ADD AND DUP3 ADD DUP1 PUSH1 0x40 MSTORE POP DUP2 ADD SWAP1 PUSH2 0xDE0 SWAP2 SWAP1 PUSH2 0x1E16 JUMP JUMPDEST SWAP2 POP SWAP2 POP PUSH1 0x16 PUSH1 0x3 SIGNEXTEND DUP3 PUSH1 0x7 SIGNEXTEND EQ DUP1 ISZERO PUSH2 0xDF7 JUMPI POP DUP1 JUMPDEST PUSH1 0x0 DUP1 SLOAD PUSH1 0x5 SLOAD PUSH1 0x40 MLOAD PUSH4 0xD9F3249 PUSH1 0xE3 SHL DUP2 MSTORE SWAP4 SWAP15 POP SWAP2 SWAP3 DUP4 SWAP3 PUSH1 0x1 PUSH1 0x1 PUSH1 0xA0 SHL SUB SWAP3 DUP4 AND SWAP3 PUSH4 0x6CF99248 SWAP3 PUSH2 0xE34 SWAP3 ADDRESS SWAP3 AND SWAP1 PUSH1 0x4 ADD PUSH2 0x1DAE JUMP JUMPDEST PUSH1 0x40 DUP1 MLOAD DUP1 DUP4 SUB DUP2 PUSH1 0x0 DUP8 GAS CALL ISZERO DUP1 ISZERO PUSH2 0xE52 JUMPI RETURNDATASIZE PUSH1 0x0 DUP1 RETURNDATACOPY RETURNDATASIZE PUSH1 0x0 REVERT JUMPDEST POP POP POP POP PUSH1 0x40 MLOAD RETURNDATASIZE PUSH1 0x1F NOT PUSH1 0x1F DUP3 ADD AND DUP3 ADD DUP1 PUSH1 0x40 MSTORE POP DUP2 ADD SWAP1 PUSH2 0xE76 SWAP2 SWAP1 PUSH2 0x1E16 JUMP JUMPDEST SWAP2 POP SWAP2 POP PUSH1 0x16 PUSH1 0x3 SIGNEXTEND DUP3 PUSH1 0x7 SIGNEXTEND EQ DUP1 ISZERO PUSH2 0xE8D JUMPI POP DUP1 JUMPDEST PUSH1 0x0 DUP1 SLOAD PUSH1 0x6 SLOAD PUSH1 0x40 MLOAD PUSH4 0xD9F3249 PUSH1 0xE3 SHL DUP2 MSTORE SWAP4 SWAP16 POP SWAP2 SWAP3 DUP4 SWAP3 PUSH1 0x1 PUSH1 0x1 PUSH1 0xA0 SHL SUB SWAP3 DUP4 AND SWAP3 PUSH4 0x6CF99248 SWAP3 PUSH2 0xECA SWAP3 ADDRESS SWAP3 AND SWAP1 PUSH1 0x4 ADD PUSH2 0x1DAE JUMP JUMPDEST PUSH1 0x40 DUP1 MLOAD DUP1 DUP4 SUB DUP2 PUSH1 0x0 DUP8 GAS CALL ISZERO DUP1 ISZERO PUSH2 0xEE8 JUMPI RETURNDATASIZE PUSH1 0x0 DUP1 RETURNDATACOPY RETURNDATASIZE PUSH1 0x0 REVERT JUMPDEST POP POP POP POP PUSH1 0x40 MLOAD RETURNDATASIZE PUSH1 0x1F NOT PUSH1 0x1F DUP3 ADD AND DUP3 ADD DUP1 PUSH1 0x40 MSTORE POP DUP2 ADD SWAP1 PUSH2 0xF0C SWAP2 SWAP1 PUSH2 0x1E16 JUMP JUMPDEST SWAP2 POP SWAP2 POP PUSH1 0x16 PUSH1 0x3 SIGNEXTEND DUP3 PUSH1 0x7 SIGNEXTEND EQ DUP1 ISZERO PUSH2 0xF23 JUMPI POP DUP1 JUMPDEST SWAP13 POP POP POP POP POP POP POP POP POP POP POP POP POP SWAP1 SWAP2 SWAP3 SWAP4 SWAP5 SWAP6 JUMP JUMPDEST PUSH1 0x0 DUP1 PUSH1 0x0 DUP1 PUSH1 0x0 DUP1 PUSH1 0xA DUP1 SLOAD DUP9 PUSH2 0xF51 SWAP2 SWAP1 PUSH2 0x1E68 JUMP JUMPDEST PUSH2 0xF5F SWAP1 PUSH4 0x5F5E100 PUSH2 0x1E68 JUMP JUMPDEST PUSH2 0xF69 SWAP2 SWAP1 PUSH2 0x1E85 JUMP JUMPDEST SWAP6 POP PUSH1 0x64 PUSH2 0xF79 PUSH1 0x8 PUSH1 0xA PUSH2 0x1F8B JUMP JUMPDEST PUSH1 0xB SLOAD PUSH2 0xF86 SWAP1 DUP11 PUSH2 0x1E68 JUMP JUMPDEST PUSH2 0xF90 SWAP2 SWAP1 PUSH2 0x1E68 JUMP JUMPDEST PUSH2 0xF9A SWAP2 SWAP1 PUSH2 0x1E85 JUMP JUMPDEST SWAP5 POP PUSH1 0xA PUSH2 0xFA9 PUSH1 0x6 DUP3 PUSH2 0x1F8B JUMP JUMPDEST PUSH1 0xC SLOAD PUSH2 0xFB6 SWAP1 DUP11 PUSH2 0x1E68 JUMP JUMPDEST PUSH2 0xFC0 SWAP2 SWAP1 PUSH2 0x1E68 JUMP JUMPDEST PUSH2 0xFCA SWAP2 SWAP1 PUSH2 0x1E85 JUMP JUMPDEST SWAP4 POP PUSH1 0xA PUSH2 0xFD9 PUSH1 0x6 DUP3 PUSH2 0x1F8B JUMP JUMPDEST PUSH1 0xD SLOAD PUSH2 0xFE6 SWAP1 DUP11 PUSH2 0x1E68 JUMP JUMPDEST PUSH2 0xFF0 SWAP2 SWAP1 PUSH2 0x1E68 JUMP JUMPDEST PUSH2 0xFFA SWAP2 SWAP1 PUSH2 0x1E85 JUMP JUMPDEST SWAP3 POP PUSH1 0xA PUSH2 0x1009 PUSH1 0x8 DUP3 PUSH2 0x1F8B JUMP JUMPDEST PUSH1 0xE SLOAD PUSH2 0x1016 SWAP1 DUP11 PUSH2 0x1E68 JUMP JUMPDEST PUSH2 0x1020 SWAP2 SWAP1 PUSH2 0x1E68 JUMP JUMPDEST PUSH2 0x102A SWAP2 SWAP1 PUSH2 0x1E85 JUMP JUMPDEST SWAP2 POP PUSH1 0xA PUSH2 0x1039 PUSH1 0x8 DUP3 PUSH2 0x1F8B JUMP JUMPDEST PUSH1 0xF SLOAD PUSH2 0x1046 SWAP1 DUP11 PUSH2 0x1E68 JUMP JUMPDEST PUSH2 0x1050 SWAP2 SWAP1 PUSH2 0x1E68 JUMP JUMPDEST PUSH2 0x105A SWAP2 SWAP1 PUSH2 0x1E85 JUMP JUMPDEST SWAP1 POP SWAP2 SWAP4 SWAP6 POP SWAP2 SWAP4 SWAP6 JUMP JUMPDEST PUSH1 0x7 SLOAD PUSH1 0x1 PUSH1 0x1 PUSH1 0xA0 SHL SUB AND CALLER EQ PUSH2 0xA2F JUMPI PUSH1 0x40 MLOAD PUSH4 0x47556579 PUSH1 0xE0 SHL DUP2 MSTORE PUSH1 0x4 ADD PUSH1 0x40 MLOAD DUP1 SWAP2 SUB SWAP1 REVERT JUMPDEST PUSH2 0x109E DUP7 DUP7 DUP7 DUP7 DUP7 DUP7 PUSH2 0x1228 JUMP JUMPDEST PUSH2 0x10AB DUP6 DUP6 DUP6 DUP6 DUP6 PUSH2 0x14EA JUMP JUMPDEST PUSH2 0x10B4 DUP7 PUSH2 0x19EA JUMP JUMPDEST POP POP POP POP POP POP JUMP JUMPDEST PUSH1 0x7 SLOAD PUSH1 0x1 PUSH1 0x1 PUSH1 0xA0 SHL SUB AND CALLER EQ PUSH2 0x10E7 JUMPI PUSH1 0x40 MLOAD PUSH4 0x47556579 PUSH1 0xE0 SHL DUP2 MSTORE PUSH1 0x4 ADD PUSH1 0x40 MLOAD DUP1 SWAP2 SUB SWAP1 REVERT JUMPDEST PUSH1 0x8 DUP1 SLOAD PUSH1 0x1 PUSH1 0x1 PUSH1 0xA0 SHL SUB DUP4 DUP2 AND PUSH1 0x1 PUSH1 0x1 PUSH1 0xA0 SHL SUB NOT DUP4 AND DUP2 OR SWAP1 SWAP4 SSTORE PUSH1 0x40 MLOAD SWAP2 AND SWAP2 SWAP1 DUP3 SWAP1 PUSH32 0x73666E452D96D561D08D04F6C3F125BC9AE8F7080F8DF2C5160E2967F8B1E4A7 SWAP1 PUSH1 0x0 SWAP1 LOG3 POP POP JUMP JUMPDEST PUSH1 0x7 SLOAD PUSH1 0x1 PUSH1 0x1 PUSH1 0xA0 SHL SUB AND CALLER EQ PUSH2 0x1164 JUMPI PUSH1 0x40 MLOAD PUSH4 0x47556579 PUSH1 0xE0 SHL DUP2 MSTORE PUSH1 0x4 ADD PUSH1 0x40 MLOAD DUP1 SWAP2 SUB SWAP1 REVERT JUMPDEST SELFBALANCE DUP2 GT ISZERO PUSH2 0x11B9 JUMPI PUSH1 0x40 MLOAD PUSH3 0x461BCD PUSH1 0xE5 SHL DUP2 MSTORE PUSH1 0x20 PUSH1 0x4 DUP3 ADD MSTORE PUSH1 0x19 PUSH1 0x24 DUP3 ADD MSTORE PUSH32 0x496E73756666696369656E7420484241522062616C616E636500000000000000 PUSH1 0x44 DUP3 ADD MSTORE PUSH1 0x64 ADD JUMPDEST PUSH1 0x40 MLOAD DUP1 SWAP2 SUB SWAP1 REVERT JUMPDEST PUSH1 0x7 SLOAD PUSH1 0x40 MLOAD PUSH1 0x1 PUSH1 0x1 PUSH1 0xA0 SHL SUB SWAP1 SWAP2 AND SWAP1 DUP3 ISZERO PUSH2 0x8FC MUL SWAP1 DUP4 SWAP1 PUSH1 0x0 DUP2 DUP2 DUP2 DUP6 DUP9 DUP9 CALL SWAP4 POP POP POP POP ISZERO DUP1 ISZERO PUSH2 0x11F3 JUMPI RETURNDATASIZE PUSH1 0x0 DUP1 RETURNDATACOPY RETURNDATASIZE PUSH1 0x0 REVERT JUMPDEST POP POP JUMP JUMPDEST PUSH1 0x1 DUP2 LT DUP1 PUSH2 0x1206 JUMPI POP PUSH1 0x64 DUP2 GT JUMPDEST ISZERO PUSH2 0x11F3 JUMPI DUP2 DUP2 PUSH1 0x40 MLOAD PUSH4 0x64824207 PUSH1 0xE1 SHL DUP2 MSTORE PUSH1 0x4 ADD PUSH2 0x11B0 SWAP3 SWAP2 SWAP1 PUSH2 0x1FE0 JUMP JUMPDEST DUP6 PUSH1 0x0 SUB PUSH2 0x1249 JUMPI PUSH1 0x40 MLOAD PUSH4 0x162908E3 PUSH1 0xE1 SHL DUP2 MSTORE PUSH1 0x4 ADD PUSH1 0x40 MLOAD DUP1 SWAP2 SUB SWAP1 REVERT JUMPDEST PUSH1 0x1 SLOAD PUSH1 0x1 PUSH1 0x1 PUSH1 0xA0 SHL SUB AND PUSH2 0x128B JUMPI PUSH1 0x40 MLOAD PUSH4 0x64D2AC41 PUSH1 0xE0 SHL DUP2 MSTORE PUSH1 0x4 ADD PUSH2 0x11B0 SWAP1 PUSH1 0x20 DUP1 DUP3 MSTORE PUSH1 0x4 SWAP1 DUP3 ADD MSTORE PUSH4 0x98B29CB PUSH1 0xE3 SHL PUSH1 0x40 DUP3 ADD MSTORE PUSH1 0x60 ADD SWAP1 JUMP JUMPDEST PUSH1 0x2 SLOAD PUSH1 0x1 PUSH1 0x1 PUSH1 0xA0 SHL SUB AND PUSH2 0x12B4 JUMPI PUSH1 0x40 MLOAD PUSH4 0x64D2AC41 PUSH1 0xE0 SHL DUP2 MSTORE PUSH1 0x4 ADD PUSH2 0x11B0 SWAP1 PUSH2 0x2002 JUMP JUMPDEST PUSH1 0x3 SLOAD PUSH1 0x1 PUSH1 0x1 PUSH1 0xA0 SHL SUB AND PUSH2 0x12DD JUMPI PUSH1 0x40 MLOAD PUSH4 0x64D2AC41 PUSH1 0xE0 SHL DUP2 MSTORE PUSH1 0x4 ADD PUSH2 0x11B0 SWAP1 PUSH2 0x2026 JUMP JUMPDEST PUSH1 0x4 SLOAD PUSH1 0x1 PUSH1 0x1 PUSH1 0xA0 SHL SUB AND PUSH2 0x1306 JUMPI PUSH1 0x40 MLOAD PUSH4 0x64D2AC41 PUSH1 0xE0 SHL DUP2 MSTORE PUSH1 0x4 ADD PUSH2 0x11B0 SWAP1 PUSH2 0x204B JUMP JUMPDEST PUSH1 0x5 SLOAD PUSH1 0x1 PUSH1 0x1 PUSH1 0xA0 SHL SUB AND PUSH2 0x132F JUMPI PUSH1 0x40 MLOAD PUSH4 0x64D2AC41 PUSH1 0xE0 SHL DUP2 MSTORE PUSH1 0x4 ADD PUSH2 0x11B0 SWAP1 PUSH2 0x206F JUMP JUMPDEST PUSH1 0x6 SLOAD PUSH1 0x1 PUSH1 0x1 PUSH1 0xA0 SHL SUB AND PUSH2 0x1358 JUMPI PUSH1 0x40 MLOAD PUSH4 0x64D2AC41 PUSH1 0xE0 SHL DUP2 MSTORE PUSH1 0x4 ADD PUSH2 0x11B0 SWAP1 PUSH2 0x2092 JUMP JUMPDEST PUSH1 0x0 DUP1 PUSH1 0x0 DUP1 PUSH1 0x0 DUP1 ADDRESS PUSH1 0x1 PUSH1 0x1 PUSH1 0xA0 SHL SUB AND PUSH4 0x8F9F8B01 DUP14 PUSH1 0x40 MLOAD DUP3 PUSH4 0xFFFFFFFF AND PUSH1 0xE0 SHL DUP2 MSTORE PUSH1 0x4 ADD PUSH2 0x138F SWAP2 DUP2 MSTORE PUSH1 0x20 ADD SWAP1 JUMP JUMPDEST PUSH1 0xC0 PUSH1 0x40 MLOAD DUP1 DUP4 SUB DUP2 DUP7 GAS STATICCALL ISZERO DUP1 ISZERO PUSH2 0x13AC JUMPI RETURNDATASIZE PUSH1 0x0 DUP1 RETURNDATACOPY RETURNDATASIZE PUSH1 0x0 REVERT JUMPDEST POP POP POP POP PUSH1 0x40 MLOAD RETURNDATASIZE PUSH1 0x1F NOT PUSH1 0x1F DUP3 ADD AND DUP3 ADD DUP1 PUSH1 0x40 MSTORE POP DUP2 ADD SWAP1 PUSH2 0x13D0 SWAP2 SWAP1 PUSH2 0x20BB JUMP JUMPDEST SWAP6 POP SWAP6 POP SWAP6 POP SWAP6 POP SWAP6 POP SWAP6 POP DUP6 CALLVALUE LT ISZERO PUSH2 0x1423 JUMPI PUSH1 0x40 MLOAD PUSH4 0xD5871B23 PUSH1 0xE0 SHL DUP2 MSTORE PUSH1 0x60 PUSH1 0x4 DUP1 DUP4 ADD SWAP2 SWAP1 SWAP2 MSTORE PUSH1 0x64 DUP3 ADD MSTORE PUSH4 0x242120A9 PUSH1 0xE1 SHL PUSH1 0x84 DUP3 ADD MSTORE PUSH1 0x24 DUP2 ADD DUP8 SWAP1 MSTORE CALLVALUE PUSH1 0x44 DUP3 ADD MSTORE PUSH1 0xA4 ADD PUSH2 0x11B0 JUMP JUMPDEST DUP5 DUP12 LT ISZERO PUSH2 0x1448 JUMPI DUP5 DUP12 PUSH1 0x40 MLOAD PUSH4 0xD5871B23 PUSH1 0xE0 SHL DUP2 MSTORE PUSH1 0x4 ADD PUSH2 0x11B0 SWAP3 SWAP2 SWAP1 PUSH2 0x2105 JUMP JUMPDEST DUP4 DUP11 LT ISZERO PUSH2 0x146D JUMPI DUP4 DUP11 PUSH1 0x40 MLOAD PUSH4 0xD5871B23 PUSH1 0xE0 SHL DUP2 MSTORE PUSH1 0x4 ADD PUSH2 0x11B0 SWAP3 SWAP2 SWAP1 PUSH2 0x2139 JUMP JUMPDEST DUP3 DUP10 LT ISZERO PUSH2 0x1492 JUMPI DUP3 DUP10 PUSH1 0x40 MLOAD PUSH4 0xD5871B23 PUSH1 0xE0 SHL DUP2 MSTORE PUSH1 0x4 ADD PUSH2 0x11B0 SWAP3 SWAP2 SWAP1 PUSH2 0x215E JUMP JUMPDEST DUP2 DUP9 LT ISZERO PUSH2 0x14B7 JUMPI DUP2 DUP9 PUSH1 0x40 MLOAD PUSH4 0xD5871B23 PUSH1 0xE0 SHL DUP2 MSTORE PUSH1 0x4 ADD PUSH2 0x11B0 SWAP3 SWAP2 SWAP1 PUSH2 0x2182 JUMP JUMPDEST DUP1 DUP8 LT ISZERO PUSH2 0x14DC JUMPI DUP1 DUP8 PUSH1 0x40 MLOAD PUSH4 0xD5871B23 PUSH1 0xE0 SHL DUP2 MSTORE PUSH1 0x4 ADD PUSH2 0x11B0 SWAP3 SWAP2 SWAP1 PUSH2 0x21A5 JUMP JUMPDEST POP POP POP POP POP POP POP POP POP POP POP POP JUMP JUMPDEST PUSH1 0x0 DUP1 SLOAD PUSH1 0x2 SLOAD PUSH1 0x40 MLOAD PUSH4 0xECA36917 PUSH1 0xE0 SHL DUP2 MSTORE DUP4 SWAP3 PUSH1 0x1 PUSH1 0x1 PUSH1 0xA0 SHL SUB SWAP1 DUP2 AND SWAP3 PUSH4 0xECA36917 SWAP3 PUSH2 0x1528 SWAP3 SWAP1 SWAP2 AND SWAP1 CALLER SWAP1 ADDRESS SWAP1 DUP14 SWAP1 PUSH1 0x4 ADD PUSH2 0x21CE JUMP JUMPDEST PUSH1 0x20 PUSH1 0x40 MLOAD DUP1 DUP4 SUB DUP2 PUSH1 0x0 DUP8 GAS CALL ISZERO DUP1 ISZERO PUSH2 0x1547 JUMPI RETURNDATASIZE PUSH1 0x0 DUP1 RETURNDATACOPY RETURNDATASIZE PUSH1 0x0 REVERT JUMPDEST POP POP POP POP PUSH1 0x40 MLOAD RETURNDATASIZE PUSH1 0x1F NOT PUSH1 0x1F DUP3 ADD AND DUP3 ADD DUP1 PUSH1 0x40 MSTORE POP DUP2 ADD SWAP1 PUSH2 0x156B SWAP2 SWAP1 PUSH2 0x1DDF JUMP JUMPDEST SWAP1 POP PUSH1 0x7 DUP2 SWAP1 SIGNEXTEND PUSH1 0x16 EQ PUSH2 0x15BE JUMPI PUSH1 0x40 DUP1 MLOAD PUSH4 0x16146C1 PUSH1 0xE6 SHL DUP2 MSTORE PUSH1 0x4 DUP2 ADD SWAP2 SWAP1 SWAP2 MSTORE PUSH1 0xD PUSH1 0x44 DUP3 ADD MSTORE PUSH13 0x2BA12A21903A3930B739B332B9 PUSH1 0x99 SHL PUSH1 0x64 DUP3 ADD MSTORE PUSH1 0x7 DUP3 SWAP1 SIGNEXTEND PUSH1 0x24 DUP3 ADD MSTORE PUSH1 0x84 ADD PUSH2 0x11B0 JUMP JUMPDEST DUP2 PUSH2 0x15C8 DUP2 PUSH2 0x21FB JUMP JUMPDEST PUSH1 0x0 DUP1 SLOAD PUSH1 0x3 SLOAD PUSH1 0x40 MLOAD PUSH4 0xECA36917 PUSH1 0xE0 SHL DUP2 MSTORE SWAP4 SWAP7 POP SWAP2 SWAP4 POP PUSH1 0x1 PUSH1 0x1 PUSH1 0xA0 SHL SUB SWAP1 DUP2 AND SWAP3 PUSH4 0xECA36917 SWAP3 PUSH2 0x1608 SWAP3 AND SWAP1 CALLER SWAP1 ADDRESS SWAP1 DUP14 SWAP1 PUSH1 0x4 ADD PUSH2 0x21CE JUMP JUMPDEST PUSH1 0x20 PUSH1 0x40 MLOAD DUP1 DUP4 SUB DUP2 PUSH1 0x0 DUP8 GAS CALL ISZERO DUP1 ISZERO PUSH2 0x1627 JUMPI RETURNDATASIZE PUSH1 0x0 DUP1 RETURNDATACOPY RETURNDATASIZE PUSH1 0x0 REVERT JUMPDEST POP POP POP POP PUSH1 0x40 MLOAD RETURNDATASIZE PUSH1 0x1F NOT PUSH1 0x1F DUP3 ADD AND DUP3 ADD DUP1 PUSH1 0x40 MSTORE POP DUP2 ADD SWAP1 PUSH2 0x164B SWAP2 SWAP1 PUSH2 0x1DDF JUMP JUMPDEST SWAP1 POP PUSH1 0x7 DUP2 SWAP1 SIGNEXTEND PUSH1 0x16 EQ PUSH2 0x169F JUMPI PUSH1 0x40 DUP1 MLOAD PUSH4 0x16146C1 PUSH1 0xE6 SHL DUP2 MSTORE PUSH1 0x4 DUP2 ADD SWAP2 SWAP1 SWAP2 MSTORE PUSH1 0xE PUSH1 0x44 DUP3 ADD MSTORE PUSH14 0x29A0AAA1A2903A3930B739B332B9 PUSH1 0x91 SHL PUSH1 0x64 DUP3 ADD MSTORE PUSH1 0x7 DUP3 SWAP1 SIGNEXTEND PUSH1 0x24 DUP3 ADD MSTORE PUSH1 0x84 ADD PUSH2 0x11B0 JUMP JUMPDEST DUP3 PUSH2 0x16A9 DUP2 PUSH2 0x21FB JUMP JUMPDEST PUSH1 0x0 DUP1 SLOAD PUSH1 0x4 DUP1 SLOAD PUSH1 0x40 MLOAD PUSH4 0xECA36917 PUSH1 0xE0 SHL DUP2 MSTORE SWAP5 SWAP9 POP SWAP3 SWAP5 POP PUSH1 0x1 PUSH1 0x1 PUSH1 0xA0 SHL SUB SWAP2 DUP3 AND SWAP4 PUSH4 0xECA36917 SWAP4 PUSH2 0x16E8 SWAP4 AND SWAP2 CALLER SWAP2 ADDRESS SWAP2 DUP15 SWAP2 ADD PUSH2 0x21CE JUMP JUMPDEST PUSH1 0x20 PUSH1 0x40 MLOAD DUP1 DUP4 SUB DUP2 PUSH1 0x0 DUP8 GAS CALL ISZERO DUP1 ISZERO PUSH2 0x1707 JUMPI RETURNDATASIZE PUSH1 0x0 DUP1 RETURNDATACOPY RETURNDATASIZE PUSH1 0x0 REVERT JUMPDEST POP POP POP POP PUSH1 0x40 MLOAD RETURNDATASIZE PUSH1 0x1F NOT PUSH1 0x1F DUP3 ADD AND DUP3 ADD DUP1 PUSH1 0x40 MSTORE POP DUP2 ADD SWAP1 PUSH2 0x172B SWAP2 SWAP1 PUSH2 0x1DDF JUMP JUMPDEST SWAP1 POP PUSH1 0x7 DUP2 SWAP1 SIGNEXTEND PUSH1 0x16 EQ PUSH2 0x177E JUMPI PUSH1 0x40 DUP1 MLOAD PUSH4 0x16146C1 PUSH1 0xE6 SHL DUP2 MSTORE PUSH1 0x4 DUP2 ADD SWAP2 SWAP1 SWAP2 MSTORE PUSH1 0xD PUSH1 0x44 DUP3 ADD MSTORE PUSH13 0x2AA9A221903A3930B739B332B9 PUSH1 0x99 SHL PUSH1 0x64 DUP3 ADD MSTORE PUSH1 0x7 DUP3 SWAP1 SIGNEXTEND PUSH1 0x24 DUP3 ADD MSTORE PUSH1 0x84 ADD PUSH2 0x11B0 JUMP JUMPDEST DUP4 PUSH2 0x1788 DUP2 PUSH2 0x21FB JUMP JUMPDEST PUSH1 0x0 DUP1 SLOAD PUSH1 0x5 SLOAD PUSH1 0x40 MLOAD PUSH4 0xECA36917 PUSH1 0xE0 SHL DUP2 MSTORE SWAP4 SWAP9 POP SWAP2 SWAP4 POP PUSH1 0x1 PUSH1 0x1 PUSH1 0xA0 SHL SUB SWAP1 DUP2 AND SWAP3 PUSH4 0xECA36917 SWAP3 PUSH2 0x17C8 SWAP3 AND SWAP1 CALLER SWAP1 ADDRESS SWAP1 DUP14 SWAP1 PUSH1 0x4 ADD PUSH2 0x21CE JUMP JUMPDEST PUSH1 0x20 PUSH1 0x40 MLOAD DUP1 DUP4 SUB DUP2 PUSH1 0x0 DUP8 GAS CALL ISZERO DUP1 ISZERO PUSH2 0x17E7 JUMPI RETURNDATASIZE PUSH1 0x0 DUP1 RETURNDATACOPY RETURNDATASIZE PUSH1 0x0 REVERT JUMPDEST POP POP POP POP PUSH1 0x40 MLOAD RETURNDATASIZE PUSH1 0x1F NOT PUSH1 0x1F DUP3 ADD AND DUP3 ADD DUP1 PUSH1 0x40 MSTORE POP DUP2 ADD SWAP1 PUSH2 0x180B SWAP2 SWAP1 PUSH2 0x1DDF JUMP JUMPDEST SWAP1 POP PUSH1 0x7 DUP2 SWAP1 SIGNEXTEND PUSH1 0x16 EQ PUSH2 0x185D JUMPI PUSH1 0x40 DUP1 MLOAD PUSH4 0x16146C1 PUSH1 0xE6 SHL DUP2 MSTORE PUSH1 0x4 DUP2 ADD SWAP2 SWAP1 SWAP2 MSTORE PUSH1 0xC PUSH1 0x44 DUP3 ADD MSTORE PUSH12 0x2520A6903A3930B739B332B9 PUSH1 0xA1 SHL PUSH1 0x64 DUP3 ADD MSTORE PUSH1 0x7 DUP3 SWAP1 SIGNEXTEND PUSH1 0x24 DUP3 ADD MSTORE PUSH1 0x84 ADD PUSH2 0x11B0 JUMP JUMPDEST DUP5 PUSH2 0x1867 DUP2 PUSH2 0x21FB JUMP JUMPDEST PUSH1 0x0 DUP1 SLOAD PUSH1 0x6 SLOAD PUSH1 0x40 MLOAD PUSH4 0xECA36917 PUSH1 0xE0 SHL DUP2 MSTORE SWAP4 SWAP10 POP SWAP2 SWAP4 POP PUSH1 0x1 PUSH1 0x1 PUSH1 0xA0 SHL SUB SWAP1 DUP2 AND SWAP3 PUSH4 0xECA36917 SWAP3 PUSH2 0x18A7 SWAP3 AND SWAP1 CALLER SWAP1 ADDRESS SWAP1 DUP14 SWAP1 PUSH1 0x4 ADD PUSH2 0x21CE JUMP JUMPDEST PUSH1 0x20 PUSH1 0x40 MLOAD DUP1 DUP4 SUB DUP2 PUSH1 0x0 DUP8 GAS CALL ISZERO DUP1 ISZERO PUSH2 0x18C6 JUMPI RETURNDATASIZE PUSH1 0x0 DUP1 RETURNDATACOPY RETURNDATASIZE PUSH1 0x0 REVERT JUMPDEST POP POP POP POP PUSH1 0x40 MLOAD RETURNDATASIZE PUSH1 0x1F NOT PUSH1 0x1F DUP3 ADD AND DUP3 ADD DUP1 PUSH1 0x40 MSTORE POP DUP2 ADD SWAP1 PUSH2 0x18EA SWAP2 SWAP1 PUSH2 0x1DDF JUMP JUMPDEST SWAP1 POP PUSH1 0x7 DUP2 SWAP1 SIGNEXTEND PUSH1 0x16 EQ PUSH2 0x1942 JUMPI PUSH1 0x40 DUP1 MLOAD PUSH4 0x16146C1 PUSH1 0xE6 SHL DUP2 MSTORE PUSH1 0x4 DUP2 ADD SWAP2 SWAP1 SWAP2 MSTORE PUSH1 0x12 PUSH1 0x44 DUP3 ADD MSTORE PUSH18 0x2422A0A229AA20A92A103A3930B739B332B9 PUSH1 0x71 SHL PUSH1 0x64 DUP3 ADD MSTORE PUSH1 0x7 DUP3 SWAP1 SIGNEXTEND PUSH1 0x24 DUP3 ADD MSTORE PUSH1 0x84 ADD PUSH2 0x11B0 JUMP JUMPDEST DUP6 PUSH2 0x194C DUP2 PUSH2 0x21FB JUMP JUMPDEST PUSH1 0x40 MLOAD DUP2 DUP2 MSTORE SWAP1 SWAP8 POP CALLER SWAP2 POP PUSH32 0xFB6C065AEDB9F80DB2A7C600754A071D9B16CDEE761F37B7ECF1F3E68578B322 SWAP1 PUSH1 0x20 ADD PUSH1 0x40 MLOAD DUP1 SWAP2 SUB SWAP1 LOG2 PUSH1 0x40 DUP1 MLOAD CALLVALUE DUP2 MSTORE PUSH1 0x20 DUP2 ADD DUP14 SWAP1 MSTORE SWAP1 DUP2 ADD DUP12 SWAP1 MSTORE PUSH1 0x60 DUP2 ADD DUP11 SWAP1 MSTORE PUSH1 0x80 DUP2 ADD DUP10 SWAP1 MSTORE PUSH1 0xA0 DUP2 ADD DUP9 SWAP1 MSTORE CALLER SWAP1 PUSH32 0x46E94826DDC11785B987FDA075F8564A41AC10326680FCD384E60B2064A7FAB8 SWAP1 PUSH1 0xC0 ADD PUSH1 0x40 MLOAD DUP1 SWAP2 SUB SWAP1 LOG2 POP POP POP POP POP POP POP POP POP POP POP JUMP JUMPDEST PUSH1 0x0 PUSH2 0x19F8 PUSH1 0x8 PUSH1 0xA PUSH2 0x1F8B JUMP JUMPDEST PUSH2 0x1A02 SWAP1 DUP4 PUSH2 0x1E68 JUMP JUMPDEST PUSH1 0x40 DUP1 MLOAD DUP5 DUP2 MSTORE PUSH1 0x20 DUP2 ADD DUP4 SWAP1 MSTORE SWAP2 SWAP3 POP CALLER SWAP2 PUSH32 0xEF8F5BE9F6E9B6CAFE9795E6972D99452D92FDFCA92995050EAA9CBBDCD627DC SWAP2 ADD PUSH1 0x40 MLOAD DUP1 SWAP2 SUB SWAP1 LOG2 PUSH1 0x40 DUP1 MLOAD PUSH1 0x0 DUP1 DUP3 MSTORE PUSH1 0x20 DUP3 ADD SWAP1 SWAP3 MSTORE DUP2 PUSH2 0x1A6B JUMP JUMPDEST PUSH1 0x60 DUP2 MSTORE PUSH1 0x20 ADD SWAP1 PUSH1 0x1 SWAP1 SUB SWAP1 DUP2 PUSH2 0x1A56 JUMPI SWAP1 POP JUMPDEST POP PUSH1 0x0 DUP1 SLOAD PUSH1 0x1 SLOAD PUSH1 0x40 MLOAD PUSH4 0x707A02CD PUSH1 0xE1 SHL DUP2 MSTORE SWAP4 SWAP5 POP SWAP2 SWAP3 DUP4 SWAP3 PUSH1 0x1 PUSH1 0x1 PUSH1 0xA0 SHL SUB SWAP3 DUP4 AND SWAP3 PUSH4 0xE0F4059A SWAP3 PUSH2 0x1AAD SWAP3 SWAP1 SWAP2 AND SWAP1 DUP9 SWAP1 DUP9 SWAP1 PUSH1 0x4 ADD PUSH2 0x222A JUMP JUMPDEST PUSH1 0x0 PUSH1 0x40 MLOAD DUP1 DUP4 SUB DUP2 PUSH1 0x0 DUP8 GAS CALL ISZERO DUP1 ISZERO PUSH2 0x1ACC JUMPI RETURNDATASIZE PUSH1 0x0 DUP1 RETURNDATACOPY RETURNDATASIZE PUSH1 0x0 REVERT JUMPDEST POP POP POP POP PUSH1 0x40 MLOAD RETURNDATASIZE PUSH1 0x0 DUP3 RETURNDATACOPY PUSH1 0x1F RETURNDATASIZE SWAP1 DUP2 ADD PUSH1 0x1F NOT AND DUP3 ADD PUSH1 0x40 MSTORE PUSH2 0x1AF4 SWAP2 SWAP1 DUP2 ADD SWAP1 PUSH2 0x22A6 JUMP JUMPDEST POP PUSH1 0x40 DUP1 MLOAD PUSH1 0x7 DUP5 DUP2 SIGNEXTEND DUP3 MSTORE DUP4 SWAP1 SIGNEXTEND PUSH1 0x20 DUP3 ADD MSTORE SWAP3 SWAP5 POP SWAP1 SWAP3 POP PUSH32 0xEEB8B94F7BF115B59D1437EDF60F2F07656A1EB52234A1835D90480777C5762C SWAP2 ADD PUSH1 0x40 MLOAD DUP1 SWAP2 SUB SWAP1 LOG1 PUSH1 0x7 DUP3 SWAP1 SIGNEXTEND PUSH1 0x16 EQ PUSH2 0x1B86 JUMPI PUSH1 0x40 DUP1 MLOAD PUSH4 0x16146C1 PUSH1 0xE6 SHL DUP2 MSTORE PUSH1 0x4 DUP2 ADD SWAP2 SWAP1 SWAP2 MSTORE PUSH1 0x9 PUSH1 0x44 DUP3 ADD MSTORE PUSH9 0x13165396081B5A5B9D PUSH1 0xBA SHL PUSH1 0x64 DUP3 ADD MSTORE PUSH1 0x7 DUP4 SWAP1 SIGNEXTEND PUSH1 0x24 DUP3 ADD MSTORE PUSH1 0x84 ADD PUSH2 0x11B0 JUMP JUMPDEST PUSH1 0x9 SLOAD PUSH1 0x40 DUP1 MLOAD PUSH1 0x1 PUSH1 0x1 PUSH1 0xA0 SHL SUB SWAP1 SWAP3 AND DUP3 MSTORE CALLER PUSH1 0x20 DUP4 ADD MSTORE DUP2 ADD DUP6 SWAP1 MSTORE PUSH32 0x883DD34324C5E33F1CE994B8F1652AB425A78C77305F00A08660B05245ED17B3 SWAP1 PUSH1 0x60 ADD PUSH1 0x40 MLOAD DUP1 SWAP2 SUB SWAP1 LOG1 PUSH1 0x0 DUP1 SLOAD PUSH1 0x1 SLOAD PUSH1 0x9 SLOAD PUSH1 0x40 MLOAD PUSH4 0xECA36917 PUSH1 0xE0 SHL DUP2 MSTORE PUSH1 0x1 PUSH1 0x1 PUSH1 0xA0 SHL SUB SWAP4 DUP5 AND SWAP4 PUSH4 0xECA36917 SWAP4 PUSH2 0x1C12 SWAP4 SWAP1 DUP3 AND SWAP3 SWAP2 AND SWAP1 CALLER SWAP1 DUP12 SWAP1 PUSH1 0x4 ADD PUSH2 0x21CE JUMP JUMPDEST PUSH1 0x20 PUSH1 0x40 MLOAD DUP1 DUP4 SUB DUP2 PUSH1 0x0 DUP8 GAS CALL ISZERO DUP1 ISZERO PUSH2 0x1C31 JUMPI RETURNDATASIZE PUSH1 0x0 DUP1 RETURNDATACOPY RETURNDATASIZE PUSH1 0x0 REVERT JUMPDEST POP POP POP POP PUSH1 0x40 MLOAD RETURNDATASIZE PUSH1 0x1F NOT PUSH1 0x1F DUP3 ADD AND DUP3 ADD DUP1 PUSH1 0x40 MSTORE POP DUP2 ADD SWAP1 PUSH2 0x1C55 SWAP2 SWAP1 PUSH2 0x1DDF JUMP JUMPDEST PUSH1 0x40 MLOAD PUSH1 0x7 DUP3 SWAP1 SIGNEXTEND DUP2 MSTORE SWAP1 SWAP2 POP PUSH32 0xDBA6742B403F91BA4BDAC157A4315CA9E09412EA4375F6EBBD570C7676C11F47 SWAP1 PUSH1 0x20 ADD PUSH1 0x40 MLOAD DUP1 SWAP2 SUB SWAP1 LOG1 PUSH1 0x7 DUP2 SWAP1 SIGNEXTEND PUSH1 0x16 EQ PUSH2 0x1CF0 JUMPI PUSH1 0x40 DUP1 MLOAD PUSH4 0x16146C1 PUSH1 0xE6 SHL DUP2 MSTORE PUSH1 0x4 DUP2 ADD SWAP2 SWAP1 SWAP2 MSTORE PUSH1 0x1B PUSH1 0x44 DUP3 ADD MSTORE PUSH32 0x4C594E58207472616E736665722066726F6D2074726561737572790000000000 PUSH1 0x64 DUP3 ADD MSTORE PUSH1 0x7 DUP3 SWAP1 SIGNEXTEND PUSH1 0x24 DUP3 ADD MSTORE PUSH1 0x84 ADD PUSH2 0x11B0 JUMP JUMPDEST PUSH1 0x40 MLOAD DUP7 DUP2 MSTORE CALLER SWAP1 PUSH32 0x465927A4840D7C7D6AA087BB368FE25BED2F96A7DE450603903E0331DEC0DBB5 SWAP1 PUSH1 0x20 ADD PUSH2 0xB87 JUMP JUMPDEST PUSH1 0x0 DUP1 PUSH1 0x0 DUP1 PUSH1 0x0 DUP1 PUSH1 0xC0 DUP8 DUP10 SUB SLT ISZERO PUSH2 0x1D3B JUMPI PUSH1 0x0 DUP1 REVERT JUMPDEST POP POP DUP5 CALLDATALOAD SWAP7 PUSH1 0x20 DUP7 ADD CALLDATALOAD SWAP7 POP PUSH1 0x40 DUP7 ADD CALLDATALOAD SWAP6 PUSH1 0x60 DUP2 ADD CALLDATALOAD SWAP6 POP PUSH1 0x80 DUP2 ADD CALLDATALOAD SWAP5 POP PUSH1 0xA0 ADD CALLDATALOAD SWAP3 POP SWAP1 POP JUMP JUMPDEST PUSH1 0x0 PUSH1 0x20 DUP3 DUP5 SUB SLT ISZERO PUSH2 0x1D77 JUMPI PUSH1 0x0 DUP1 REVERT JUMPDEST POP CALLDATALOAD SWAP2 SWAP1 POP JUMP JUMPDEST PUSH1 0x0 PUSH1 0x20 DUP3 DUP5 SUB SLT ISZERO PUSH2 0x1D90 JUMPI PUSH1 0x0 DUP1 REVERT JUMPDEST DUP2 CALLDATALOAD PUSH1 0x1 PUSH1 0x1 PUSH1 0xA0 SHL SUB DUP2 AND DUP2 EQ PUSH2 0x1DA7 JUMPI PUSH1 0x0 DUP1 REVERT JUMPDEST SWAP4 SWAP3 POP POP POP JUMP JUMPDEST PUSH1 0x1 PUSH1 0x1 PUSH1 0xA0 SHL SUB SWAP3 DUP4 AND DUP2 MSTORE SWAP2 AND PUSH1 0x20 DUP3 ADD MSTORE PUSH1 0x40 ADD SWAP1 JUMP JUMPDEST DUP1 MLOAD PUSH1 0x7 DUP2 SWAP1 SIGNEXTEND DUP2 EQ PUSH2 0x1DDA JUMPI PUSH1 0x0 DUP1 REVERT JUMPDEST SWAP2 SWAP1 POP JUMP JUMPDEST PUSH1 0x0 PUSH1 0x20 DUP3 DUP5 SUB SLT ISZERO PUSH2 0x1DF1 JUMPI PUSH1 0x0 DUP1 REVERT JUMPDEST PUSH2 0x1DA7 DUP3 PUSH2 0x1DC8 JUMP JUMPDEST PUSH1 0x1 PUSH1 0x1 PUSH1 0xA0 SHL SUB SWAP3 SWAP1 SWAP3 AND DUP3 MSTORE PUSH1 0x7 SIGNEXTEND PUSH1 0x20 DUP3 ADD MSTORE PUSH1 0x40 ADD SWAP1 JUMP JUMPDEST PUSH1 0x0 DUP1 PUSH1 0x40 DUP4 DUP6 SUB SLT ISZERO PUSH2 0x1E29 JUMPI PUSH1 0x0 DUP1 REVERT JUMPDEST PUSH2 0x1E32 DUP4 PUSH2 0x1DC8 JUMP JUMPDEST SWAP2 POP PUSH1 0x20 DUP4 ADD MLOAD DUP1 ISZERO ISZERO DUP2 EQ PUSH2 0x1E47 JUMPI PUSH1 0x0 DUP1 REVERT JUMPDEST DUP1 SWAP2 POP POP SWAP3 POP SWAP3 SWAP1 POP JUMP JUMPDEST PUSH4 0x4E487B71 PUSH1 0xE0 SHL PUSH1 0x0 MSTORE PUSH1 0x11 PUSH1 0x4 MSTORE PUSH1 0x24 PUSH1 0x0 REVERT JUMPDEST DUP1 DUP3 MUL DUP2 ISZERO DUP3 DUP3 DIV DUP5 EQ OR PUSH2 0x1E7F JUMPI PUSH2 0x1E7F PUSH2 0x1E52 JUMP JUMPDEST SWAP3 SWAP2 POP POP JUMP JUMPDEST PUSH1 0x0 DUP3 PUSH2 0x1EA2 JUMPI PUSH4 0x4E487B71 PUSH1 0xE0 SHL PUSH1 0x0 MSTORE PUSH1 0x12 PUSH1 0x4 MSTORE PUSH1 0x24 PUSH1 0x0 REVERT JUMPDEST POP DIV SWAP1 JUMP JUMPDEST PUSH1 0x1 DUP2 DUP2 JUMPDEST DUP1 DUP6 GT ISZERO PUSH2 0x1EE2 JUMPI DUP2 PUSH1 0x0 NOT DIV DUP3 GT ISZERO PUSH2 0x1EC8 JUMPI PUSH2 0x1EC8 PUSH2 0x1E52 JUMP JUMPDEST DUP1 DUP6 AND ISZERO PUSH2 0x1ED5 JUMPI SWAP2 DUP2 MUL SWAP2 JUMPDEST SWAP4 DUP5 SHR SWAP4 SWAP1 DUP1 MUL SWAP1 PUSH2 0x1EAC JUMP JUMPDEST POP SWAP3 POP SWAP3 SWAP1 POP JUMP JUMPDEST PUSH1 0x0 DUP3 PUSH2 0x1EF9 JUMPI POP PUSH1 0x1 PUSH2 0x1E7F JUMP JUMPDEST DUP2 PUSH2 0x1F06 JUMPI POP PUSH1 0x0 PUSH2 0x1E7F JUMP JUMPDEST DUP2 PUSH1 0x1 DUP2 EQ PUSH2 0x1F1C JUMPI PUSH1 0x2 DUP2 EQ PUSH2 0x1F26 JUMPI PUSH2 0x1F42 JUMP JUMPDEST PUSH1 0x1 SWAP2 POP POP PUSH2 0x1E7F JUMP JUMPDEST PUSH1 0xFF DUP5 GT ISZERO PUSH2 0x1F37 JUMPI PUSH2 0x1F37 PUSH2 0x1E52 JUMP JUMPDEST POP POP PUSH1 0x1 DUP3 SHL PUSH2 0x1E7F JUMP JUMPDEST POP PUSH1 0x20 DUP4 LT PUSH2 0x133 DUP4 LT AND PUSH1 0x4E DUP5 LT PUSH1 0xB DUP5 LT AND OR ISZERO PUSH2 0x1F65 JUMPI POP DUP2 DUP2 EXP PUSH2 0x1E7F JUMP JUMPDEST PUSH2 0x1F6F DUP4 DUP4 PUSH2 0x1EA7 JUMP JUMPDEST DUP1 PUSH1 0x0 NOT DIV DUP3 GT ISZERO PUSH2 0x1F83 JUMPI PUSH2 0x1F83 PUSH2 0x1E52 JUMP JUMPDEST MUL SWAP4 SWAP3 POP POP POP JUMP JUMPDEST PUSH1 0x0 PUSH2 0x1DA7 PUSH1 0xFF DUP5 AND DUP4 PUSH2 0x1EEA JUMP JUMPDEST PUSH1 0x0 DUP2 MLOAD DUP1 DUP5 MSTORE PUSH1 0x0 JUMPDEST DUP2 DUP2 LT ISZERO PUSH2 0x1FC0 JUMPI PUSH1 0x20 DUP2 DUP6 ADD DUP2 ADD MLOAD DUP7 DUP4 ADD DUP3 ADD MSTORE ADD PUSH2 0x1FA4 JUMP JUMPDEST POP PUSH1 0x0 PUSH1 0x20 DUP3 DUP7 ADD ADD MSTORE PUSH1 0x20 PUSH1 0x1F NOT PUSH1 0x1F DUP4 ADD AND DUP6 ADD ADD SWAP2 POP POP SWAP3 SWAP2 POP POP JUMP JUMPDEST PUSH1 0x40 DUP2 MSTORE PUSH1 0x0 PUSH2 0x1FF3 PUSH1 0x40 DUP4 ADD DUP6 PUSH2 0x1F9A JUMP JUMPDEST SWAP1 POP DUP3 PUSH1 0x20 DUP4 ADD MSTORE SWAP4 SWAP3 POP POP POP JUMP JUMPDEST PUSH1 0x20 DUP2 MSTORE PUSH1 0x0 PUSH2 0x1E7F PUSH1 0x20 DUP4 ADD PUSH1 0x4 DUP2 MSTORE PUSH4 0x57425443 PUSH1 0xE0 SHL PUSH1 0x20 DUP3 ADD MSTORE PUSH1 0x40 ADD SWAP1 JUMP JUMPDEST PUSH1 0x20 DUP2 MSTORE PUSH1 0x0 PUSH2 0x1E7F PUSH1 0x20 DUP4 ADD PUSH1 0x5 DUP2 MSTORE PUSH5 0x5341554345 PUSH1 0xD8 SHL PUSH1 0x20 DUP3 ADD MSTORE PUSH1 0x40 ADD SWAP1 JUMP JUMPDEST PUSH1 0x20 DUP2 MSTORE PUSH1 0x0 PUSH2 0x1E7F PUSH1 0x20 DUP4 ADD PUSH1 0x4 DUP2 MSTORE PUSH4 0x55534443 PUSH1 0xE0 SHL PUSH1 0x20 DUP3 ADD MSTORE PUSH1 0x40 ADD SWAP1 JUMP JUMPDEST PUSH1 0x20 DUP2 MSTORE PUSH1 0x0 PUSH2 0x1E7F PUSH1 0x20 DUP4 ADD PUSH1 0x3 DUP2 MSTORE PUSH3 0x4A414D PUSH1 0xE8 SHL PUSH1 0x20 DUP3 ADD MSTORE PUSH1 0x40 ADD SWAP1 JUMP JUMPDEST PUSH1 0x20 DUP2 MSTORE PUSH1 0x0 PUSH2 0x1E7F PUSH1 0x20 DUP4 ADD PUSH1 0x9 DUP2 MSTORE PUSH9 0x1211505114D5105495 PUSH1 0xBA SHL PUSH1 0x20 DUP3 ADD MSTORE PUSH1 0x40 ADD SWAP1 JUMP JUMPDEST PUSH1 0x0 DUP1 PUSH1 0x0 DUP1 PUSH1 0x0 DUP1 PUSH1 0xC0 DUP8 DUP10 SUB SLT ISZERO PUSH2 0x20D4 JUMPI PUSH1 0x0 DUP1 REVERT JUMPDEST DUP7 MLOAD SWAP6 POP PUSH1 0x20 DUP8 ADD MLOAD SWAP5 POP PUSH1 0x40 DUP8 ADD MLOAD SWAP4 POP PUSH1 0x60 DUP8 ADD MLOAD SWAP3 POP PUSH1 0x80 DUP8 ADD MLOAD SWAP2 POP PUSH1 0xA0 DUP8 ADD MLOAD SWAP1 POP SWAP3 SWAP6 POP SWAP3 SWAP6 POP SWAP3 SWAP6 JUMP JUMPDEST PUSH1 0x60 DUP2 MSTORE PUSH1 0x0 PUSH2 0x2129 PUSH1 0x60 DUP4 ADD PUSH1 0x4 DUP2 MSTORE PUSH4 0x57425443 PUSH1 0xE0 SHL PUSH1 0x20 DUP3 ADD MSTORE PUSH1 0x40 ADD SWAP1 JUMP JUMPDEST PUSH1 0x20 DUP4 ADD SWAP5 SWAP1 SWAP5 MSTORE POP PUSH1 0x40 ADD MSTORE SWAP1 JUMP JUMPDEST PUSH1 0x60 DUP2 MSTORE PUSH1 0x0 PUSH2 0x2129 PUSH1 0x60 DUP4 ADD PUSH1 0x5 DUP2 MSTORE PUSH5 0x5341554345 PUSH1 0xD8 SHL PUSH1 0x20 DUP3 ADD MSTORE PUSH1 0x40 ADD SWAP1 JUMP JUMPDEST PUSH1 0x60 DUP2 MSTORE PUSH1 0x0 PUSH2 0x2129 PUSH1 0x60 DUP4 ADD PUSH1 0x4 DUP2 MSTORE PUSH4 0x55534443 PUSH1 0xE0 SHL PUSH1 0x20 DUP3 ADD MSTORE PUSH1 0x40 ADD SWAP1 JUMP JUMPDEST PUSH1 0x60 DUP2 MSTORE PUSH1 0x0 PUSH2 0x2129 PUSH1 0x60 DUP4 ADD PUSH1 0x3 DUP2 MSTORE PUSH3 0x4A414D PUSH1 0xE8 SHL PUSH1 0x20 DUP3 ADD MSTORE PUSH1 0x40 ADD SWAP1 JUMP JUMPDEST PUSH1 0x60 DUP2 MSTORE PUSH1 0x0 PUSH2 0x2129 PUSH1 0x60 DUP4 ADD PUSH1 0x9 DUP2 MSTORE PUSH9 0x1211505114D5105495 PUSH1 0xBA SHL PUSH1 0x20 DUP3 ADD MSTORE PUSH1 0x40 ADD SWAP1 JUMP JUMPDEST PUSH1 0x1 PUSH1 0x1 PUSH1 0xA0 SHL SUB SWAP5 DUP6 AND DUP2 MSTORE SWAP3 DUP5 AND PUSH1 0x20 DUP5 ADD MSTORE SWAP3 AND PUSH1 0x40 DUP3 ADD MSTORE PUSH1 0x7 SWAP2 SWAP1 SWAP2 SIGNEXTEND PUSH1 0x60 DUP3 ADD MSTORE PUSH1 0x80 ADD SWAP1 JUMP JUMPDEST PUSH1 0x0 PUSH1 0x1 DUP3 ADD PUSH2 0x220D JUMPI PUSH2 0x220D PUSH2 0x1E52 JUMP JUMPDEST POP PUSH1 0x1 ADD SWAP1 JUMP JUMPDEST PUSH4 0x4E487B71 PUSH1 0xE0 SHL PUSH1 0x0 MSTORE PUSH1 0x41 PUSH1 0x4 MSTORE PUSH1 0x24 PUSH1 0x0 REVERT JUMPDEST PUSH1 0x0 PUSH1 0x60 DUP3 ADD PUSH1 0x1 DUP1 PUSH1 0xA0 SHL SUB DUP7 AND DUP4 MSTORE PUSH1 0x20 DUP6 PUSH1 0x7 SIGNEXTEND DUP2 DUP6 ADD MSTORE PUSH1 0x60 PUSH1 0x40 DUP6 ADD MSTORE DUP2 DUP6 MLOAD DUP1 DUP5 MSTORE PUSH1 0x80 DUP7 ADD SWAP2 POP PUSH1 0x80 DUP2 PUSH1 0x5 SHL DUP8 ADD ADD SWAP4 POP DUP3 DUP8 ADD PUSH1 0x0 JUMPDEST DUP3 DUP2 LT ISZERO PUSH2 0x2297 JUMPI PUSH1 0x7F NOT DUP9 DUP8 SUB ADD DUP5 MSTORE PUSH2 0x2285 DUP7 DUP4 MLOAD PUSH2 0x1F9A JUMP JUMPDEST SWAP6 POP SWAP3 DUP5 ADD SWAP3 SWAP1 DUP5 ADD SWAP1 PUSH1 0x1 ADD PUSH2 0x2269 JUMP JUMPDEST POP SWAP4 SWAP10 SWAP9 POP POP POP POP POP POP POP POP POP JUMP JUMPDEST PUSH1 0x0 DUP1 PUSH1 0x0 PUSH1 0x60 DUP5 DUP7 SUB SLT ISZERO PUSH2 0x22BB JUMPI PUSH1 0x0 DUP1 REVERT JUMPDEST PUSH2 0x22C4 DUP5 PUSH2 0x1DC8 JUMP JUMPDEST SWAP3 POP PUSH1 0x20 PUSH2 0x22D3 DUP2 DUP7 ADD PUSH2 0x1DC8 JUMP JUMPDEST SWAP3 POP PUSH1 0x40 DUP6 ADD MLOAD PUSH8 0xFFFFFFFFFFFFFFFF DUP1 DUP3 GT ISZERO PUSH2 0x22F0 JUMPI PUSH1 0x0 DUP1 REVERT JUMPDEST DUP2 DUP8 ADD SWAP2 POP DUP8 PUSH1 0x1F DUP4 ADD SLT PUSH2 0x2304 JUMPI PUSH1 0x0 DUP1 REVERT JUMPDEST DUP2 MLOAD DUP2 DUP2 GT ISZERO PUSH2 0x2316 JUMPI PUSH2 0x2316 PUSH2 0x2214 JUMP JUMPDEST DUP1 PUSH1 0x5 SHL PUSH1 0x40 MLOAD PUSH1 0x1F NOT PUSH1 0x3F DUP4 ADD AND DUP2 ADD DUP2 DUP2 LT DUP6 DUP3 GT OR ISZERO PUSH2 0x233B JUMPI PUSH2 0x233B PUSH2 0x2214 JUMP JUMPDEST PUSH1 0x40 MSTORE SWAP2 DUP3 MSTORE DUP5 DUP3 ADD SWAP3 POP DUP4 DUP2 ADD DUP6 ADD SWAP2 DUP11 DUP4 GT ISZERO PUSH2 0x2359 JUMPI PUSH1 0x0 DUP1 REVERT JUMPDEST SWAP4 DUP6 ADD SWAP4 JUMPDEST DUP3 DUP6 LT ISZERO PUSH2 0x237E JUMPI PUSH2 0x236F DUP6 PUSH2 0x1DC8 JUMP JUMPDEST DUP5 MSTORE SWAP4 DUP6 ADD SWAP4 SWAP3 DUP6 ADD SWAP3 PUSH2 0x235E JUMP JUMPDEST DUP1 SWAP7 POP POP POP POP POP POP POP SWAP3 POP SWAP3 POP SWAP3 JUMP INVALID PUSH13 0x452A6A0F6C8613BD46D4BD9A61 SWAP3 0xB0 SWAP1 0x4A EXTCODEHASH CALLER 0xA6 0x4C 0x29 0x4B 0xA5 MSTORE8 PC 0x25 MUL 0xDF 0xD7 PUSH17 0xA2646970667358221220DF06BA4DFA9E58 0xBB 0x5C 0xED DUP1 GT PUSH22 0x6B221F876EACE2274701FC1959FEBA7CE46BF764736F PUSH13 0x63430008130033000000000000 "},"methodIdentifiers":{"ADMIN()":"2a0acc6a","GOVERNANCE()":"14627834","HBAR_RATIO()":"4924190c","HEADSTART_DECIMALS()":"4234e0ed","HEADSTART_RATIO()":"e9142b2e","HEADSTART_TOKEN()":"84b1349e","JAM_DECIMALS()":"ff434887","JAM_RATIO()":"a1c6a7af","JAM_TOKEN()":"e40d79a0","LYNX_DECIMALS()":"5ea4a9fd","LYNX_TOKEN()":"e1e99576","MAX_RATIO()":"630eb8ab","MIN_RATIO()":"0f0aeb8d","SAUCE_DECIMALS()":"de97b29f","SAUCE_RATIO()":"ef037593","SAUCE_TOKEN()":"1ec65c36","TREASURY()":"2d2c5565","USDC_DECIMALS()":"c1419def","USDC_RATIO()":"8f8f6c01","USDC_TOKEN()":"fa569274","WBTC_DECIMALS()":"462ef0fa","WBTC_RATIO()":"1bf5ae0c","WBTC_TOKEN()":"2ed41384","adminUpdateRatios(uint256,uint256,uint256,uint256,uint256,uint256)":"91990466","associateTokens()":"10ca0bce","calculateRequiredDeposits(uint256)":"8f9f8b01","checkAssociations()":"5af91dab","emergencyWithdrawHbar(uint256)":"d65db297","getCurrentRatios()":"97dd850d","getHbarBalance()":"7bd82c69","mintWithDeposits(uint256,uint256,uint256,uint256,uint256,uint256)":"b158d32b","setGovernanceAddress(address)":"cfc16254","updateRatios(uint256,uint256,uint256,uint256,uint256,uint256)":"3265c151"}}}}}