{"contracts/DepositMinterV2.sol":{"DepositMinterV2":{"abi":[{"inputs":[{"internalType":"address","name":"lynxToken","type":"address"},{"internalType":"address","name":"wbtcToken","type":"address"},{"internalType":"address","name":"sauceToken","type":"address"},{"internalType":"address","name":"usdcToken","type":"address"},{"internalType":"address","name":"jamToken","type":"address"},{"internalType":"address","name":"headstartToken","type":"address"},{"internalType":"address","name":"treasury","type":"address"}],"stateMutability":"nonpayable","type":"constructor"},{"inputs":[{"internalType":"string","name":"operation","type":"string"},{"internalType":"int64","name":"responseCode","type":"int64"}],"name":"HTSOperationFailed","type":"error"},{"inputs":[{"internalType":"string","name":"tokenType","type":"string"},{"internalType":"uint256","name":"required","type":"uint256"},{"internalType":"uint256","name":"provided","type":"uint256"}],"name":"InsufficientDeposit","type":"error"},{"inputs":[],"name":"InvalidAmount","type":"error"},{"inputs":[],"name":"OnlyAdmin","type":"error"},{"inputs":[{"internalType":"string","name":"tokenType","type":"string"}],"name":"TokenNotSet","type":"error"},{"anonymous":false,"inputs":[{"indexed":true,"internalType":"address","name":"user","type":"address"},{"indexed":false,"internalType":"uint256","name":"totalTokensProcessed","type":"uint256"}],"name":"DepositsProcessed","type":"event"},{"anonymous":false,"inputs":[{"indexed":true,"internalType":"address","name":"user","type":"address"},{"indexed":false,"internalType":"uint256","name":"lynxAmount","type":"uint256"}],"name":"LynxMinted","type":"event"},{"anonymous":false,"inputs":[{"indexed":true,"internalType":"address","name":"user","type":"address"},{"indexed":false,"internalType":"uint256","name":"lynxAmount","type":"uint256"},{"indexed":false,"internalType":"uint256","name":"lynxBaseUnits","type":"uint256"}],"name":"MintAttempt","type":"event"},{"anonymous":false,"inputs":[{"indexed":false,"internalType":"int64","name":"responseCode","type":"int64"},{"indexed":false,"internalType":"int64","name":"newTotalSupply","type":"int64"}],"name":"MintResult","type":"event"},{"anonymous":false,"inputs":[{"indexed":false,"internalType":"address","name":"token","type":"address"},{"indexed":false,"internalType":"int64","name":"responseCode","type":"int64"}],"name":"TokensAssociated","type":"event"},{"anonymous":false,"inputs":[{"indexed":true,"internalType":"address","name":"user","type":"address"},{"indexed":false,"internalType":"uint256","name":"hbarAmount","type":"uint256"},{"indexed":false,"internalType":"uint256","name":"wbtcAmount","type":"uint256"},{"indexed":false,"internalType":"uint256","name":"sauceAmount","type":"uint256"},{"indexed":false,"internalType":"uint256","name":"usdcAmount","type":"uint256"},{"indexed":false,"internalType":"uint256","name":"jamAmount","type":"uint256"},{"indexed":false,"internalType":"uint256","name":"headstartAmount","type":"uint256"}],"name":"TokensDeposited","type":"event"},{"anonymous":false,"inputs":[{"indexed":false,"internalType":"address","name":"from","type":"address"},{"indexed":false,"internalType":"address","name":"to","type":"address"},{"indexed":false,"internalType":"uint256","name":"amount","type":"uint256"}],"name":"TransferAttempt","type":"event"},{"anonymous":false,"inputs":[{"indexed":false,"internalType":"int64","name":"responseCode","type":"int64"}],"name":"TransferResult","type":"event"},{"inputs":[],"name":"ADMIN","outputs":[{"internalType":"address","name":"","type":"address"}],"stateMutability":"view","type":"function"},{"inputs":[],"name":"HBAR_RATIO","outputs":[{"internalType":"uint256","name":"","type":"uint256"}],"stateMutability":"view","type":"function"},{"inputs":[],"name":"HEADSTART_DECIMALS","outputs":[{"internalType":"uint8","name":"","type":"uint8"}],"stateMutability":"view","type":"function"},{"inputs":[],"name":"HEADSTART_RATIO","outputs":[{"internalType":"uint256","name":"","type":"uint256"}],"stateMutability":"view","type":"function"},{"inputs":[],"name":"HEADSTART_TOKEN","outputs":[{"internalType":"address","name":"","type":"address"}],"stateMutability":"view","type":"function"},{"inputs":[],"name":"JAM_DECIMALS","outputs":[{"internalType":"uint8","name":"","type":"uint8"}],"stateMutability":"view","type":"function"},{"inputs":[],"name":"JAM_RATIO","outputs":[{"internalType":"uint256","name":"","type":"uint256"}],"stateMutability":"view","type":"function"},{"inputs":[],"name":"JAM_TOKEN","outputs":[{"internalType":"address","name":"","type":"address"}],"stateMutability":"view","type":"function"},{"inputs":[],"name":"LYNX_DECIMALS","outputs":[{"internalType":"uint8","name":"","type":"uint8"}],"stateMutability":"view","type":"function"},{"inputs":[],"name":"LYNX_TOKEN","outputs":[{"internalType":"address","name":"","type":"address"}],"stateMutability":"view","type":"function"},{"inputs":[],"name":"SAUCE_DECIMALS","outputs":[{"internalType":"uint8","name":"","type":"uint8"}],"stateMutability":"view","type":"function"},{"inputs":[],"name":"SAUCE_RATIO","outputs":[{"internalType":"uint256","name":"","type":"uint256"}],"stateMutability":"view","type":"function"},{"inputs":[],"name":"SAUCE_TOKEN","outputs":[{"internalType":"address","name":"","type":"address"}],"stateMutability":"view","type":"function"},{"inputs":[],"name":"TREASURY","outputs":[{"internalType":"address","name":"","type":"address"}],"stateMutability":"view","type":"function"},{"inputs":[],"name":"USDC_DECIMALS","outputs":[{"internalType":"uint8","name":"","type":"uint8"}],"stateMutability":"view","type":"function"},{"inputs":[],"name":"USDC_RATIO","outputs":[{"internalType":"uint256","name":"","type":"uint256"}],"stateMutability":"view","type":"function"},{"inputs":[],"name":"USDC_TOKEN","outputs":[{"internalType":"address","name":"","type":"address"}],"stateMutability":"view","type":"function"},{"inputs":[],"name":"WBTC_DECIMALS","outputs":[{"internalType":"uint8","name":"","type":"uint8"}],"stateMutability":"view","type":"function"},{"inputs":[],"name":"WBTC_RATIO","outputs":[{"internalType":"uint256","name":"","type":"uint256"}],"stateMutability":"view","type":"function"},{"inputs":[],"name":"WBTC_TOKEN","outputs":[{"internalType":"address","name":"","type":"address"}],"stateMutability":"view","type":"function"},{"inputs":[],"name":"associateTokens","outputs":[],"stateMutability":"nonpayable","type":"function"},{"inputs":[{"internalType":"uint256","name":"lynxAmount","type":"uint256"}],"name":"calculateRequiredDeposits","outputs":[{"internalType":"uint256","name":"hbarRequired","type":"uint256"},{"internalType":"uint256","name":"wbtcRequired","type":"uint256"},{"internalType":"uint256","name":"sauceRequired","type":"uint256"},{"internalType":"uint256","name":"usdcRequired","type":"uint256"},{"internalType":"uint256","name":"jamRequired","type":"uint256"},{"internalType":"uint256","name":"headstartRequired","type":"uint256"}],"stateMutability":"pure","type":"function"},{"inputs":[],"name":"checkAssociations","outputs":[{"internalType":"bool","name":"lynxAssociated","type":"bool"},{"internalType":"bool","name":"wbtcAssociated","type":"bool"},{"internalType":"bool","name":"sauceAssociated","type":"bool"},{"internalType":"bool","name":"usdcAssociated","type":"bool"},{"internalType":"bool","name":"jamAssociated","type":"bool"},{"internalType":"bool","name":"headstartAssociated","type":"bool"}],"stateMutability":"nonpayable","type":"function"},{"inputs":[{"internalType":"uint256","name":"amount","type":"uint256"}],"name":"emergencyWithdrawHbar","outputs":[],"stateMutability":"nonpayable","type":"function"},{"inputs":[],"name":"getHbarBalance","outputs":[{"internalType":"uint256","name":"","type":"uint256"}],"stateMutability":"view","type":"function"},{"inputs":[{"internalType":"uint256","name":"lynxAmount","type":"uint256"},{"internalType":"uint256","name":"wbtcAmount","type":"uint256"},{"internalType":"uint256","name":"sauceAmount","type":"uint256"},{"internalType":"uint256","name":"usdcAmount","type":"uint256"},{"internalType":"uint256","name":"jamAmount","type":"uint256"},{"internalType":"uint256","name":"headstartAmount","type":"uint256"}],"name":"mintWithDeposits","outputs":[],"stateMutability":"payable","type":"function"},{"stateMutability":"payable","type":"receive"}],"evm":{"bytecode":{"linkReferences":{},"object":"60806040523480156200001157600080fd5b506040516200210f3803806200210f8339810160408190526200003491620000ea565b600080546101676001600160a01b0319918216179091556001805482166001600160a01b03998a1617905560028054821697891697909717909655600380548716958816959095179094556004805486169387169390931790925560058054851691861691909117905560068054841691851691909117905560078054339084161790556008805490921692169190911790556200017f565b80516001600160a01b0381168114620000e557600080fd5b919050565b600080600080600080600060e0888a0312156200010657600080fd5b6200011188620000cd565b96506200012160208901620000cd565b95506200013160408901620000cd565b94506200014160608901620000cd565b93506200015160808901620000cd565b92506200016160a08901620000cd565b91506200017160c08901620000cd565b905092959891949750929550565b611f80806200018f6000396000f3fe6080604052600436106101855760003560e01c80638f8f6c01116100d1578063de97b29f1161008a578063e9142b2e11610064578063e9142b2e1461040f578063ef03759314610325578063fa56927414610424578063ff4348871461026857600080fd5b8063de97b29f1461039a578063e1e99576146103cf578063e40d79a0146103ef57600080fd5b80638f8f6c01146103255780638f9f8b011461033a578063a1c6a7af14610325578063b158d32b14610387578063c1419def1461039a578063d65db297146103af57600080fd5b80634234e0ed1161013e5780635af91dab116101185780635af91dab146102a45780635ea4a9fd146102685780637bd82c69146102f257806384b1349e1461030557600080fd5b80634234e0ed14610268578063462ef0fa146102685780634924190c1461028f57600080fd5b806310ca0bce146101915780631bf5ae0c146101a85780631ec65c36146101d05780632a0acc6a146102085780632d2c5565146102285780632ed413841461024857600080fd5b3661018c57005b600080fd5b34801561019d57600080fd5b506101a6610444565b005b3480156101b457600080fd5b506101bd600281565b6040519081526020015b60405180910390f35b3480156101dc57600080fd5b506003546101f0906001600160a01b031681565b6040516001600160a01b0390911681526020016101c7565b34801561021457600080fd5b506007546101f0906001600160a01b031681565b34801561023457600080fd5b506008546101f0906001600160a01b031681565b34801561025457600080fd5b506002546101f0906001600160a01b031681565b34801561027457600080fd5b5061027d600881565b60405160ff90911681526020016101c7565b34801561029b57600080fd5b506101bd601981565b3480156102b057600080fd5b506102b9610870565b604080519615158752941515602087015292151593850193909352151560608401529015156080830152151560a082015260c0016101c7565b3480156102fe57600080fd5b50476101bd565b34801561031157600080fd5b506006546101f0906001600160a01b031681565b34801561033157600080fd5b506101bd600f81565b34801561034657600080fd5b5061035a61035536600461191f565b610c12565b604080519687526020870195909552938501929092526060840152608083015260a082015260c0016101c7565b6101a6610395366004611938565b610d30565b3480156103a657600080fd5b5061027d600681565b3480156103bb57600080fd5b506101a66103ca36600461191f565b610d5c565b3480156103db57600080fd5b506001546101f0906001600160a01b031681565b3480156103fb57600080fd5b506005546101f0906001600160a01b031681565b34801561041b57600080fd5b506101bd600a81565b34801561043057600080fd5b506004546101f0906001600160a01b031681565b6000805460015460405163248a35ef60e11b81526001600160a01b03928316926349146bde9261047c9230929091169060040161197b565b6020604051808303816000875af115801561049b573d6000803e3d6000fd5b505050506040513d601f19601f820116820180604052508101906104bf91906119ac565b600154604051919250600080516020611f2b833981519152916104ed916001600160a01b03169084906119ce565b60405180910390a16000805460025460405163248a35ef60e11b81526001600160a01b03928316926349146bde9261052d9230929091169060040161197b565b6020604051808303816000875af115801561054c573d6000803e3d6000fd5b505050506040513d601f19601f8201168201806040525081019061057091906119ac565b600254604051919250600080516020611f2b8339815191529161059e916001600160a01b03169084906119ce565b60405180910390a16000805460035460405163248a35ef60e11b81526001600160a01b03928316926349146bde926105de9230929091169060040161197b565b6020604051808303816000875af11580156105fd573d6000803e3d6000fd5b505050506040513d601f19601f8201168201806040525081019061062191906119ac565b600354604051919250600080516020611f2b8339815191529161064f916001600160a01b03169084906119ce565b60405180910390a1600080546004805460405163248a35ef60e11b81526001600160a01b03938416936349146bde9361068d9330939216910161197b565b6020604051808303816000875af11580156106ac573d6000803e3d6000fd5b505050506040513d601f19601f820116820180604052508101906106d091906119ac565b600454604051919250600080516020611f2b833981519152916106fe916001600160a01b03169084906119ce565b60405180910390a16000805460055460405163248a35ef60e11b81526001600160a01b03928316926349146bde9261073e9230929091169060040161197b565b6020604051808303816000875af115801561075d573d6000803e3d6000fd5b505050506040513d601f19601f8201168201806040525081019061078191906119ac565b600554604051919250600080516020611f2b833981519152916107af916001600160a01b03169084906119ce565b60405180910390a16000805460065460405163248a35ef60e11b81526001600160a01b03928316926349146bde926107ef9230929091169060040161197b565b6020604051808303816000875af115801561080e573d6000803e3d6000fd5b505050506040513d601f19601f8201168201806040525081019061083291906119ac565b600654604051919250600080516020611f2b83398151915291610860916001600160a01b03169084906119ce565b60405180910390a1505050505050565b60008054600154604051630d9f324960e31b815283928392839283928392839283926001600160a01b0390811692636cf99248926108b4923092169060040161197b565b60408051808303816000875af11580156108d2573d6000803e3d6000fd5b505050506040513d601f19601f820116820180604052508101906108f691906119ea565b91509150601660030b8260070b14801561090d5750805b60008054600254604051630d9f324960e31b8152939b50919283926001600160a01b0392831692636cf992489261094a923092169060040161197b565b60408051808303816000875af1158015610968573d6000803e3d6000fd5b505050506040513d601f19601f8201168201806040525081019061098c91906119ea565b91509150601660030b8260070b1480156109a35750805b60008054600354604051630d9f324960e31b8152939c50919283926001600160a01b0392831692636cf99248926109e0923092169060040161197b565b60408051808303816000875af11580156109fe573d6000803e3d6000fd5b505050506040513d601f19601f82011682018060405250810190610a2291906119ea565b91509150601660030b8260070b148015610a395750805b6000805460048054604051630d9f324960e31b8152949e50929384936001600160a01b0393841693636cf9924893610a77933093909216910161197b565b60408051808303816000875af1158015610a95573d6000803e3d6000fd5b505050506040513d601f19601f82011682018060405250810190610ab991906119ea565b91509150601660030b8260070b148015610ad05750805b60008054600554604051630d9f324960e31b8152939e50919283926001600160a01b0392831692636cf9924892610b0d923092169060040161197b565b60408051808303816000875af1158015610b2b573d6000803e3d6000fd5b505050506040513d601f19601f82011682018060405250810190610b4f91906119ea565b91509150601660030b8260070b148015610b665750805b60008054600654604051630d9f324960e31b8152939f50919283926001600160a01b0392831692636cf9924892610ba3923092169060040161197b565b60408051808303816000875af1158015610bc1573d6000803e3d6000fd5b505050506040513d601f19601f82011682018060405250810190610be591906119ea565b91509150601660030b8260070b148015610bfc5750805b9c50505050505050505050505050909192939495565b60008080808080600a610c26601989611a3c565b610c34906305f5e100611a3c565b610c3e9190611a59565b95506064610c4e6008600a611b5f565b610c5960028a611a3c565b610c639190611a3c565b610c6d9190611a59565b9450600a610c7c600682611b5f565b610c87600f8a611a3c565b610c919190611a3c565b610c9b9190611a59565b9350600a610caa600682611b5f565b610cb5600f8a611a3c565b610cbf9190611a3c565b610cc99190611a59565b9250600a610cd8600882611b5f565b610ce3600f8a611a3c565b610ced9190611a3c565b610cf79190611a59565b9150600a610d06600882611b5f565b610d11600a8a611a3c565b610d1b9190611a3c565b610d259190611a59565b905091939550919395565b610d3e868686868686610e1a565b610d4b85858585856110dc565b610d54866115dc565b505050505050565b6007546001600160a01b03163314610d8757604051634755657960e01b815260040160405180910390fd5b47811115610ddc5760405162461bcd60e51b815260206004820152601960248201527f496e73756666696369656e7420484241522062616c616e63650000000000000060448201526064015b60405180910390fd5b6007546040516001600160a01b039091169082156108fc029083906000818181858888f19350505050158015610e16573d6000803e3d6000fd5b5050565b85600003610e3b5760405163162908e360e11b815260040160405180910390fd5b6001546001600160a01b0316610e7d576040516364d2ac4160e01b8152600401610dd390602080825260049082015263098b29cb60e31b604082015260600190565b6002546001600160a01b0316610ea6576040516364d2ac4160e01b8152600401610dd390611b6e565b6003546001600160a01b0316610ecf576040516364d2ac4160e01b8152600401610dd390611b92565b6004546001600160a01b0316610ef8576040516364d2ac4160e01b8152600401610dd390611bb7565b6005546001600160a01b0316610f21576040516364d2ac4160e01b8152600401610dd390611bdb565b6006546001600160a01b0316610f4a576040516364d2ac4160e01b8152600401610dd390611bfe565b600080600080600080306001600160a01b0316638f9f8b018d6040518263ffffffff1660e01b8152600401610f8191815260200190565b60c060405180830381865afa158015610f9e573d6000803e3d6000fd5b505050506040513d601f19601f82011682018060405250810190610fc29190611c27565b955095509550955095509550853410156110155760405163d5871b2360e01b81526060600480830191909152606482015263242120a960e11b60848201526024810187905234604482015260a401610dd3565b848b101561103a57848b60405163d5871b2360e01b8152600401610dd3929190611c71565b838a101561105f57838a60405163d5871b2360e01b8152600401610dd3929190611ca5565b8289101561108457828960405163d5871b2360e01b8152600401610dd3929190611cca565b818810156110a957818860405163d5871b2360e01b8152600401610dd3929190611cee565b808710156110ce57808760405163d5871b2360e01b8152600401610dd3929190611d11565b505050505050505050505050565b6000805460025460405163eca3691760e01b815283926001600160a01b039081169263eca369179261111a9290911690339030908d90600401611d3a565b6020604051808303816000875af1158015611139573d6000803e3d6000fd5b505050506040513d601f19601f8201168201806040525081019061115d91906119ac565b9050600781900b6016146111b0576040805163016146c160e61b81526004810191909152600d60448201526c2ba12a21903a3930b739b332b960991b6064820152600782900b6024820152608401610dd3565b816111ba81611d67565b6000805460035460405163eca3691760e01b81529396509193506001600160a01b039081169263eca36917926111fa921690339030908d90600401611d3a565b6020604051808303816000875af1158015611219573d6000803e3d6000fd5b505050506040513d601f19601f8201168201806040525081019061123d91906119ac565b9050600781900b601614611291576040805163016146c160e61b81526004810191909152600e60448201526d29a0aaa1a2903a3930b739b332b960911b6064820152600782900b6024820152608401610dd3565b8261129b81611d67565b600080546004805460405163eca3691760e01b81529498509294506001600160a01b039182169363eca36917936112da931691339130918e9101611d3a565b6020604051808303816000875af11580156112f9573d6000803e3d6000fd5b505050506040513d601f19601f8201168201806040525081019061131d91906119ac565b9050600781900b601614611370576040805163016146c160e61b81526004810191909152600d60448201526c2aa9a221903a3930b739b332b960991b6064820152600782900b6024820152608401610dd3565b8361137a81611d67565b6000805460055460405163eca3691760e01b81529398509193506001600160a01b039081169263eca36917926113ba921690339030908d90600401611d3a565b6020604051808303816000875af11580156113d9573d6000803e3d6000fd5b505050506040513d601f19601f820116820180604052508101906113fd91906119ac565b9050600781900b60161461144f576040805163016146c160e61b81526004810191909152600c60448201526b2520a6903a3930b739b332b960a11b6064820152600782900b6024820152608401610dd3565b8461145981611d67565b6000805460065460405163eca3691760e01b81529399509193506001600160a01b039081169263eca3691792611499921690339030908d90600401611d3a565b6020604051808303816000875af11580156114b8573d6000803e3d6000fd5b505050506040513d601f19601f820116820180604052508101906114dc91906119ac565b9050600781900b601614611534576040805163016146c160e61b8152600481019190915260126044820152712422a0a229aa20a92a103a3930b739b332b960711b6064820152600782900b6024820152608401610dd3565b8561153e81611d67565b6040518181529097503391507ffb6c065aedb9f80db2a7c600754a071d9b16cdee761f37b7ecf1f3e68578b3229060200160405180910390a260408051348152602081018d90529081018b9052606081018a90526080810189905260a0810188905233907f46e94826ddc11785b987fda075f8564a41ac10326680fcd384e60b2064a7fab89060c00160405180910390a25050505050505050505050565b60006115ea6008600a611b5f565b6115f49083611a3c565b604080518481526020810183905291925033917fef8f5be9f6e9b6cafe9795e6972d99452d92fdfca92995050eaa9cbbdcd627dc910160405180910390a2604080516000808252602082019092528161165d565b60608152602001906001900390816116485790505b506000805460015460405163707a02cd60e11b8152939450919283926001600160a01b039283169263e0f4059a9261169f929091169088908890600401611d96565b6000604051808303816000875af11580156116be573d6000803e3d6000fd5b505050506040513d6000823e601f3d908101601f191682016040526116e69190810190611e42565b5060408051600784810b825283900b60208201529294509092507feeb8b94f7bf115b59d1437edf60f2f07656a1eb52234a1835d90480777c5762c910160405180910390a1600782900b601614611778576040805163016146c160e61b81526004810191909152600960448201526813165396081b5a5b9d60ba1b6064820152600783900b6024820152608401610dd3565b600854604080516001600160a01b03909216825233602083015281018590527f883dd34324c5e33f1ce994b8f1652ab425a78c77305f00a08660b05245ed17b39060600160405180910390a16000805460015460085460405163eca3691760e01b81526001600160a01b039384169363eca3691793611804939082169291169033908b90600401611d3a565b6020604051808303816000875af1158015611823573d6000803e3d6000fd5b505050506040513d601f19601f8201168201806040525081019061184791906119ac565b604051600782900b81529091507fdba6742b403f91ba4bdac157a4315ca9e09412ea4375f6ebbd570c7676c11f479060200160405180910390a1600781900b6016146118e2576040805163016146c160e61b81526004810191909152601b60448201527f4c594e58207472616e736665722066726f6d20747265617375727900000000006064820152600782900b6024820152608401610dd3565b60405186815233907f465927a4840d7c7d6aa087bb368fe25bed2f96a7de450603903e0331dec0dbb59060200160405180910390a2505050505050565b60006020828403121561193157600080fd5b5035919050565b60008060008060008060c0878903121561195157600080fd5b505084359660208601359650604086013595606081013595506080810135945060a0013592509050565b6001600160a01b0392831681529116602082015260400190565b8051600781900b81146119a757600080fd5b919050565b6000602082840312156119be57600080fd5b6119c782611995565b9392505050565b6001600160a01b0392909216825260070b602082015260400190565b600080604083850312156119fd57600080fd5b611a0683611995565b915060208301518015158114611a1b57600080fd5b809150509250929050565b634e487b7160e01b600052601160045260246000fd5b8082028115828204841417611a5357611a53611a26565b92915050565b600082611a7657634e487b7160e01b600052601260045260246000fd5b500490565b600181815b80851115611ab6578160001904821115611a9c57611a9c611a26565b80851615611aa957918102915b93841c9390800290611a80565b509250929050565b600082611acd57506001611a53565b81611ada57506000611a53565b8160018114611af05760028114611afa57611b16565b6001915050611a53565b60ff841115611b0b57611b0b611a26565b50506001821b611a53565b5060208310610133831016604e8410600b8410161715611b39575081810a611a53565b611b438383611a7b565b8060001904821115611b5757611b57611a26565b029392505050565b60006119c760ff841683611abe565b602081526000611a536020830160048152635742544360e01b602082015260400190565b602081526000611a53602083016005815264534155434560d81b602082015260400190565b602081526000611a536020830160048152635553444360e01b602082015260400190565b602081526000611a536020830160038152624a414d60e81b602082015260400190565b602081526000611a536020830160098152681211505114d510549560ba1b602082015260400190565b60008060008060008060c08789031215611c4057600080fd5b865195506020870151945060408701519350606087015192506080870151915060a087015190509295509295509295565b606081526000611c956060830160048152635742544360e01b602082015260400190565b6020830194909452506040015290565b606081526000611c95606083016005815264534155434560d81b602082015260400190565b606081526000611c956060830160048152635553444360e01b602082015260400190565b606081526000611c956060830160038152624a414d60e81b602082015260400190565b606081526000611c956060830160098152681211505114d510549560ba1b602082015260400190565b6001600160a01b03948516815292841660208401529216604082015260079190910b606082015260800190565b600060018201611d7957611d79611a26565b5060010190565b634e487b7160e01b600052604160045260246000fd5b60006060820160018060a01b038616835260208560070b818501526060604085015281855180845260808601915060808160051b87010193508287016000805b83811015611e3257888703607f1901855282518051808952835b81811015611e0b578281018901518a82018a01528801611df0565b508881018801849052601f01601f1916909701860196509385019391850191600101611dd6565b50949a9950505050505050505050565b600080600060608486031215611e5757600080fd5b611e6084611995565b92506020611e6f818601611995565b9250604085015167ffffffffffffffff80821115611e8c57600080fd5b818701915087601f830112611ea057600080fd5b815181811115611eb257611eb2611d80565b8060051b604051601f19603f83011681018181108582111715611ed757611ed7611d80565b60405291825284820192508381018501918a831115611ef557600080fd5b938501935b82851015611f1a57611f0b85611995565b84529385019392850192611efa565b809650505050505050925092509256fe6c452a6a0f6c8613bd46d4bd9a6192b0904a3f33a64c294ba553582502dfd770a26469706673582212207ed079e6b8b3ff768e04a0e12f04aa88485c74bc42e24007b12b10f362ebb24264736f6c63430008130033","opcodes":"PUSH1 0x80 PUSH1 0x40 MSTORE CALLVALUE DUP1 ISZERO PUSH3 0x11 JUMPI PUSH1 0x0 DUP1 REVERT JUMPDEST POP PUSH1 0x40 MLOAD PUSH3 0x210F CODESIZE SUB DUP1 PUSH3 0x210F DUP4 CODECOPY DUP2 ADD PUSH1 0x40 DUP2 SWAP1 MSTORE PUSH3 0x34 SWAP2 PUSH3 0xEA JUMP JUMPDEST PUSH1 0x0 DUP1 SLOAD PUSH2 0x167 PUSH1 0x1 PUSH1 0x1 PUSH1 0xA0 SHL SUB NOT SWAP2 DUP3 AND OR SWAP1 SWAP2 SSTORE PUSH1 0x1 DUP1 SLOAD DUP3 AND PUSH1 0x1 PUSH1 0x1 PUSH1 0xA0 SHL SUB SWAP10 DUP11 AND OR SWAP1 SSTORE PUSH1 0x2 DUP1 SLOAD DUP3 AND SWAP8 DUP10 AND SWAP8 SWAP1 SWAP8 OR SWAP1 SWAP7 SSTORE PUSH1 0x3 DUP1 SLOAD DUP8 AND SWAP6 DUP9 AND SWAP6 SWAP1 SWAP6 OR SWAP1 SWAP5 SSTORE PUSH1 0x4 DUP1 SLOAD DUP7 AND SWAP4 DUP8 AND SWAP4 SWAP1 SWAP4 OR SWAP1 SWAP3 SSTORE PUSH1 0x5 DUP1 SLOAD DUP6 AND SWAP2 DUP7 AND SWAP2 SWAP1 SWAP2 OR SWAP1 SSTORE PUSH1 0x6 DUP1 SLOAD DUP5 AND SWAP2 DUP6 AND SWAP2 SWAP1 SWAP2 OR SWAP1 SSTORE PUSH1 0x7 DUP1 SLOAD CALLER SWAP1 DUP5 AND OR SWAP1 SSTORE PUSH1 0x8 DUP1 SLOAD SWAP1 SWAP3 AND SWAP3 AND SWAP2 SWAP1 SWAP2 OR SWAP1 SSTORE PUSH3 0x17F JUMP JUMPDEST DUP1 MLOAD PUSH1 0x1 PUSH1 0x1 PUSH1 0xA0 SHL SUB DUP2 AND DUP2 EQ PUSH3 0xE5 JUMPI PUSH1 0x0 DUP1 REVERT JUMPDEST SWAP2 SWAP1 POP JUMP JUMPDEST PUSH1 0x0 DUP1 PUSH1 0x0 DUP1 PUSH1 0x0 DUP1 PUSH1 0x0 PUSH1 0xE0 DUP9 DUP11 SUB SLT ISZERO PUSH3 0x106 JUMPI PUSH1 0x0 DUP1 REVERT JUMPDEST PUSH3 0x111 DUP9 PUSH3 0xCD JUMP JUMPDEST SWAP7 POP PUSH3 0x121 PUSH1 0x20 DUP10 ADD PUSH3 0xCD JUMP JUMPDEST SWAP6 POP PUSH3 0x131 PUSH1 0x40 DUP10 ADD PUSH3 0xCD JUMP JUMPDEST SWAP5 POP PUSH3 0x141 PUSH1 0x60 DUP10 ADD PUSH3 0xCD JUMP JUMPDEST SWAP4 POP PUSH3 0x151 PUSH1 0x80 DUP10 ADD PUSH3 0xCD JUMP JUMPDEST SWAP3 POP PUSH3 0x161 PUSH1 0xA0 DUP10 ADD PUSH3 0xCD JUMP JUMPDEST SWAP2 POP PUSH3 0x171 PUSH1 0xC0 DUP10 ADD PUSH3 0xCD JUMP JUMPDEST SWAP1 POP SWAP3 SWAP6 SWAP9 SWAP2 SWAP5 SWAP8 POP SWAP3 SWAP6 POP JUMP JUMPDEST PUSH2 0x1F80 DUP1 PUSH3 0x18F PUSH1 0x0 CODECOPY PUSH1 0x0 RETURN INVALID PUSH1 0x80 PUSH1 0x40 MSTORE PUSH1 0x4 CALLDATASIZE LT PUSH2 0x185 JUMPI PUSH1 0x0 CALLDATALOAD PUSH1 0xE0 SHR DUP1 PUSH4 0x8F8F6C01 GT PUSH2 0xD1 JUMPI DUP1 PUSH4 0xDE97B29F GT PUSH2 0x8A JUMPI DUP1 PUSH4 0xE9142B2E GT PUSH2 0x64 JUMPI DUP1 PUSH4 0xE9142B2E EQ PUSH2 0x40F JUMPI DUP1 PUSH4 0xEF037593 EQ PUSH2 0x325 JUMPI DUP1 PUSH4 0xFA569274 EQ PUSH2 0x424 JUMPI DUP1 PUSH4 0xFF434887 EQ PUSH2 0x268 JUMPI PUSH1 0x0 DUP1 REVERT JUMPDEST DUP1 PUSH4 0xDE97B29F EQ PUSH2 0x39A JUMPI DUP1 PUSH4 0xE1E99576 EQ PUSH2 0x3CF JUMPI DUP1 PUSH4 0xE40D79A0 EQ PUSH2 0x3EF JUMPI PUSH1 0x0 DUP1 REVERT JUMPDEST DUP1 PUSH4 0x8F8F6C01 EQ PUSH2 0x325 JUMPI DUP1 PUSH4 0x8F9F8B01 EQ PUSH2 0x33A JUMPI DUP1 PUSH4 0xA1C6A7AF EQ PUSH2 0x325 JUMPI DUP1 PUSH4 0xB158D32B EQ PUSH2 0x387 JUMPI DUP1 PUSH4 0xC1419DEF EQ PUSH2 0x39A JUMPI DUP1 PUSH4 0xD65DB297 EQ PUSH2 0x3AF JUMPI PUSH1 0x0 DUP1 REVERT JUMPDEST DUP1 PUSH4 0x4234E0ED GT PUSH2 0x13E JUMPI DUP1 PUSH4 0x5AF91DAB GT PUSH2 0x118 JUMPI DUP1 PUSH4 0x5AF91DAB EQ PUSH2 0x2A4 JUMPI DUP1 PUSH4 0x5EA4A9FD EQ PUSH2 0x268 JUMPI DUP1 PUSH4 0x7BD82C69 EQ PUSH2 0x2F2 JUMPI DUP1 PUSH4 0x84B1349E EQ PUSH2 0x305 JUMPI PUSH1 0x0 DUP1 REVERT JUMPDEST DUP1 PUSH4 0x4234E0ED EQ PUSH2 0x268 JUMPI DUP1 PUSH4 0x462EF0FA EQ PUSH2 0x268 JUMPI DUP1 PUSH4 0x4924190C EQ PUSH2 0x28F JUMPI PUSH1 0x0 DUP1 REVERT JUMPDEST DUP1 PUSH4 0x10CA0BCE EQ PUSH2 0x191 JUMPI DUP1 PUSH4 0x1BF5AE0C EQ PUSH2 0x1A8 JUMPI DUP1 PUSH4 0x1EC65C36 EQ PUSH2 0x1D0 JUMPI DUP1 PUSH4 0x2A0ACC6A EQ PUSH2 0x208 JUMPI DUP1 PUSH4 0x2D2C5565 EQ PUSH2 0x228 JUMPI DUP1 PUSH4 0x2ED41384 EQ PUSH2 0x248 JUMPI PUSH1 0x0 DUP1 REVERT JUMPDEST CALLDATASIZE PUSH2 0x18C JUMPI STOP JUMPDEST PUSH1 0x0 DUP1 REVERT JUMPDEST CALLVALUE DUP1 ISZERO PUSH2 0x19D JUMPI PUSH1 0x0 DUP1 REVERT JUMPDEST POP PUSH2 0x1A6 PUSH2 0x444 JUMP JUMPDEST STOP JUMPDEST CALLVALUE DUP1 ISZERO PUSH2 0x1B4 JUMPI PUSH1 0x0 DUP1 REVERT JUMPDEST POP PUSH2 0x1BD PUSH1 0x2 DUP2 JUMP JUMPDEST PUSH1 0x40 MLOAD SWAP1 DUP2 MSTORE PUSH1 0x20 ADD JUMPDEST PUSH1 0x40 MLOAD DUP1 SWAP2 SUB SWAP1 RETURN JUMPDEST CALLVALUE DUP1 ISZERO PUSH2 0x1DC JUMPI PUSH1 0x0 DUP1 REVERT JUMPDEST POP PUSH1 0x3 SLOAD PUSH2 0x1F0 SWAP1 PUSH1 0x1 PUSH1 0x1 PUSH1 0xA0 SHL SUB AND DUP2 JUMP JUMPDEST PUSH1 0x40 MLOAD PUSH1 0x1 PUSH1 0x1 PUSH1 0xA0 SHL SUB SWAP1 SWAP2 AND DUP2 MSTORE PUSH1 0x20 ADD PUSH2 0x1C7 JUMP JUMPDEST CALLVALUE DUP1 ISZERO PUSH2 0x214 JUMPI PUSH1 0x0 DUP1 REVERT JUMPDEST POP PUSH1 0x7 SLOAD PUSH2 0x1F0 SWAP1 PUSH1 0x1 PUSH1 0x1 PUSH1 0xA0 SHL SUB AND DUP2 JUMP JUMPDEST CALLVALUE DUP1 ISZERO PUSH2 0x234 JUMPI PUSH1 0x0 DUP1 REVERT JUMPDEST POP PUSH1 0x8 SLOAD PUSH2 0x1F0 SWAP1 PUSH1 0x1 PUSH1 0x1 PUSH1 0xA0 SHL SUB AND DUP2 JUMP JUMPDEST CALLVALUE DUP1 ISZERO PUSH2 0x254 JUMPI PUSH1 0x0 DUP1 REVERT JUMPDEST POP PUSH1 0x2 SLOAD PUSH2 0x1F0 SWAP1 PUSH1 0x1 PUSH1 0x1 PUSH1 0xA0 SHL SUB AND DUP2 JUMP JUMPDEST CALLVALUE DUP1 ISZERO PUSH2 0x274 JUMPI PUSH1 0x0 DUP1 REVERT JUMPDEST POP PUSH2 0x27D PUSH1 0x8 DUP2 JUMP JUMPDEST PUSH1 0x40 MLOAD PUSH1 0xFF SWAP1 SWAP2 AND DUP2 MSTORE PUSH1 0x20 ADD PUSH2 0x1C7 JUMP JUMPDEST CALLVALUE DUP1 ISZERO PUSH2 0x29B JUMPI PUSH1 0x0 DUP1 REVERT JUMPDEST POP PUSH2 0x1BD PUSH1 0x19 DUP2 JUMP JUMPDEST CALLVALUE DUP1 ISZERO PUSH2 0x2B0 JUMPI PUSH1 0x0 DUP1 REVERT JUMPDEST POP PUSH2 0x2B9 PUSH2 0x870 JUMP JUMPDEST PUSH1 0x40 DUP1 MLOAD SWAP7 ISZERO ISZERO DUP8 MSTORE SWAP5 ISZERO ISZERO PUSH1 0x20 DUP8 ADD MSTORE SWAP3 ISZERO ISZERO SWAP4 DUP6 ADD SWAP4 SWAP1 SWAP4 MSTORE ISZERO ISZERO PUSH1 0x60 DUP5 ADD MSTORE SWAP1 ISZERO ISZERO PUSH1 0x80 DUP4 ADD MSTORE ISZERO ISZERO PUSH1 0xA0 DUP3 ADD MSTORE PUSH1 0xC0 ADD PUSH2 0x1C7 JUMP JUMPDEST CALLVALUE DUP1 ISZERO PUSH2 0x2FE JUMPI PUSH1 0x0 DUP1 REVERT JUMPDEST POP SELFBALANCE PUSH2 0x1BD JUMP JUMPDEST CALLVALUE DUP1 ISZERO PUSH2 0x311 JUMPI PUSH1 0x0 DUP1 REVERT JUMPDEST POP PUSH1 0x6 SLOAD PUSH2 0x1F0 SWAP1 PUSH1 0x1 PUSH1 0x1 PUSH1 0xA0 SHL SUB AND DUP2 JUMP JUMPDEST CALLVALUE DUP1 ISZERO PUSH2 0x331 JUMPI PUSH1 0x0 DUP1 REVERT JUMPDEST POP PUSH2 0x1BD PUSH1 0xF DUP2 JUMP JUMPDEST CALLVALUE DUP1 ISZERO PUSH2 0x346 JUMPI PUSH1 0x0 DUP1 REVERT JUMPDEST POP PUSH2 0x35A PUSH2 0x355 CALLDATASIZE PUSH1 0x4 PUSH2 0x191F JUMP JUMPDEST PUSH2 0xC12 JUMP JUMPDEST PUSH1 0x40 DUP1 MLOAD SWAP7 DUP8 MSTORE PUSH1 0x20 DUP8 ADD SWAP6 SWAP1 SWAP6 MSTORE SWAP4 DUP6 ADD SWAP3 SWAP1 SWAP3 MSTORE PUSH1 0x60 DUP5 ADD MSTORE PUSH1 0x80 DUP4 ADD MSTORE PUSH1 0xA0 DUP3 ADD MSTORE PUSH1 0xC0 ADD PUSH2 0x1C7 JUMP JUMPDEST PUSH2 0x1A6 PUSH2 0x395 CALLDATASIZE PUSH1 0x4 PUSH2 0x1938 JUMP JUMPDEST PUSH2 0xD30 JUMP JUMPDEST CALLVALUE DUP1 ISZERO PUSH2 0x3A6 JUMPI PUSH1 0x0 DUP1 REVERT JUMPDEST POP PUSH2 0x27D PUSH1 0x6 DUP2 JUMP JUMPDEST CALLVALUE DUP1 ISZERO PUSH2 0x3BB JUMPI PUSH1 0x0 DUP1 REVERT JUMPDEST POP PUSH2 0x1A6 PUSH2 0x3CA CALLDATASIZE PUSH1 0x4 PUSH2 0x191F JUMP JUMPDEST PUSH2 0xD5C JUMP JUMPDEST CALLVALUE DUP1 ISZERO PUSH2 0x3DB JUMPI PUSH1 0x0 DUP1 REVERT JUMPDEST POP PUSH1 0x1 SLOAD PUSH2 0x1F0 SWAP1 PUSH1 0x1 PUSH1 0x1 PUSH1 0xA0 SHL SUB AND DUP2 JUMP JUMPDEST CALLVALUE DUP1 ISZERO PUSH2 0x3FB JUMPI PUSH1 0x0 DUP1 REVERT JUMPDEST POP PUSH1 0x5 SLOAD PUSH2 0x1F0 SWAP1 PUSH1 0x1 PUSH1 0x1 PUSH1 0xA0 SHL SUB AND DUP2 JUMP JUMPDEST CALLVALUE DUP1 ISZERO PUSH2 0x41B JUMPI PUSH1 0x0 DUP1 REVERT JUMPDEST POP PUSH2 0x1BD PUSH1 0xA DUP2 JUMP JUMPDEST CALLVALUE DUP1 ISZERO PUSH2 0x430 JUMPI PUSH1 0x0 DUP1 REVERT JUMPDEST POP PUSH1 0x4 SLOAD PUSH2 0x1F0 SWAP1 PUSH1 0x1 PUSH1 0x1 PUSH1 0xA0 SHL SUB AND DUP2 JUMP JUMPDEST PUSH1 0x0 DUP1 SLOAD PUSH1 0x1 SLOAD PUSH1 0x40 MLOAD PUSH4 0x248A35EF PUSH1 0xE1 SHL DUP2 MSTORE PUSH1 0x1 PUSH1 0x1 PUSH1 0xA0 SHL SUB SWAP3 DUP4 AND SWAP3 PUSH4 0x49146BDE SWAP3 PUSH2 0x47C SWAP3 ADDRESS SWAP3 SWAP1 SWAP2 AND SWAP1 PUSH1 0x4 ADD PUSH2 0x197B JUMP JUMPDEST PUSH1 0x20 PUSH1 0x40 MLOAD DUP1 DUP4 SUB DUP2 PUSH1 0x0 DUP8 GAS CALL ISZERO DUP1 ISZERO PUSH2 0x49B JUMPI RETURNDATASIZE PUSH1 0x0 DUP1 RETURNDATACOPY RETURNDATASIZE PUSH1 0x0 REVERT JUMPDEST POP POP POP POP PUSH1 0x40 MLOAD RETURNDATASIZE PUSH1 0x1F NOT PUSH1 0x1F DUP3 ADD AND DUP3 ADD DUP1 PUSH1 0x40 MSTORE POP DUP2 ADD SWAP1 PUSH2 0x4BF SWAP2 SWAP1 PUSH2 0x19AC JUMP JUMPDEST PUSH1 0x1 SLOAD PUSH1 0x40 MLOAD SWAP2 SWAP3 POP PUSH1 0x0 DUP1 MLOAD PUSH1 0x20 PUSH2 0x1F2B DUP4 CODECOPY DUP2 MLOAD SWAP2 MSTORE SWAP2 PUSH2 0x4ED SWAP2 PUSH1 0x1 PUSH1 0x1 PUSH1 0xA0 SHL SUB AND SWAP1 DUP5 SWAP1 PUSH2 0x19CE JUMP JUMPDEST PUSH1 0x40 MLOAD DUP1 SWAP2 SUB SWAP1 LOG1 PUSH1 0x0 DUP1 SLOAD PUSH1 0x2 SLOAD PUSH1 0x40 MLOAD PUSH4 0x248A35EF PUSH1 0xE1 SHL DUP2 MSTORE PUSH1 0x1 PUSH1 0x1 PUSH1 0xA0 SHL SUB SWAP3 DUP4 AND SWAP3 PUSH4 0x49146BDE SWAP3 PUSH2 0x52D SWAP3 ADDRESS SWAP3 SWAP1 SWAP2 AND SWAP1 PUSH1 0x4 ADD PUSH2 0x197B JUMP JUMPDEST PUSH1 0x20 PUSH1 0x40 MLOAD DUP1 DUP4 SUB DUP2 PUSH1 0x0 DUP8 GAS CALL ISZERO DUP1 ISZERO PUSH2 0x54C JUMPI RETURNDATASIZE PUSH1 0x0 DUP1 RETURNDATACOPY RETURNDATASIZE PUSH1 0x0 REVERT JUMPDEST POP POP POP POP PUSH1 0x40 MLOAD RETURNDATASIZE PUSH1 0x1F NOT PUSH1 0x1F DUP3 ADD AND DUP3 ADD DUP1 PUSH1 0x40 MSTORE POP DUP2 ADD SWAP1 PUSH2 0x570 SWAP2 SWAP1 PUSH2 0x19AC JUMP JUMPDEST PUSH1 0x2 SLOAD PUSH1 0x40 MLOAD SWAP2 SWAP3 POP PUSH1 0x0 DUP1 MLOAD PUSH1 0x20 PUSH2 0x1F2B DUP4 CODECOPY DUP2 MLOAD SWAP2 MSTORE SWAP2 PUSH2 0x59E SWAP2 PUSH1 0x1 PUSH1 0x1 PUSH1 0xA0 SHL SUB AND SWAP1 DUP5 SWAP1 PUSH2 0x19CE JUMP JUMPDEST PUSH1 0x40 MLOAD DUP1 SWAP2 SUB SWAP1 LOG1 PUSH1 0x0 DUP1 SLOAD PUSH1 0x3 SLOAD PUSH1 0x40 MLOAD PUSH4 0x248A35EF PUSH1 0xE1 SHL DUP2 MSTORE PUSH1 0x1 PUSH1 0x1 PUSH1 0xA0 SHL SUB SWAP3 DUP4 AND SWAP3 PUSH4 0x49146BDE SWAP3 PUSH2 0x5DE SWAP3 ADDRESS SWAP3 SWAP1 SWAP2 AND SWAP1 PUSH1 0x4 ADD PUSH2 0x197B JUMP JUMPDEST PUSH1 0x20 PUSH1 0x40 MLOAD DUP1 DUP4 SUB DUP2 PUSH1 0x0 DUP8 GAS CALL ISZERO DUP1 ISZERO PUSH2 0x5FD JUMPI RETURNDATASIZE PUSH1 0x0 DUP1 RETURNDATACOPY RETURNDATASIZE PUSH1 0x0 REVERT JUMPDEST POP POP POP POP PUSH1 0x40 MLOAD RETURNDATASIZE PUSH1 0x1F NOT PUSH1 0x1F DUP3 ADD AND DUP3 ADD DUP1 PUSH1 0x40 MSTORE POP DUP2 ADD SWAP1 PUSH2 0x621 SWAP2 SWAP1 PUSH2 0x19AC JUMP JUMPDEST PUSH1 0x3 SLOAD PUSH1 0x40 MLOAD SWAP2 SWAP3 POP PUSH1 0x0 DUP1 MLOAD PUSH1 0x20 PUSH2 0x1F2B DUP4 CODECOPY DUP2 MLOAD SWAP2 MSTORE SWAP2 PUSH2 0x64F SWAP2 PUSH1 0x1 PUSH1 0x1 PUSH1 0xA0 SHL SUB AND SWAP1 DUP5 SWAP1 PUSH2 0x19CE JUMP JUMPDEST PUSH1 0x40 MLOAD DUP1 SWAP2 SUB SWAP1 LOG1 PUSH1 0x0 DUP1 SLOAD PUSH1 0x4 DUP1 SLOAD PUSH1 0x40 MLOAD PUSH4 0x248A35EF PUSH1 0xE1 SHL DUP2 MSTORE PUSH1 0x1 PUSH1 0x1 PUSH1 0xA0 SHL SUB SWAP4 DUP5 AND SWAP4 PUSH4 0x49146BDE SWAP4 PUSH2 0x68D SWAP4 ADDRESS SWAP4 SWAP3 AND SWAP2 ADD PUSH2 0x197B JUMP JUMPDEST PUSH1 0x20 PUSH1 0x40 MLOAD DUP1 DUP4 SUB DUP2 PUSH1 0x0 DUP8 GAS CALL ISZERO DUP1 ISZERO PUSH2 0x6AC JUMPI RETURNDATASIZE PUSH1 0x0 DUP1 RETURNDATACOPY RETURNDATASIZE PUSH1 0x0 REVERT JUMPDEST POP POP POP POP PUSH1 0x40 MLOAD RETURNDATASIZE PUSH1 0x1F NOT PUSH1 0x1F DUP3 ADD AND DUP3 ADD DUP1 PUSH1 0x40 MSTORE POP DUP2 ADD SWAP1 PUSH2 0x6D0 SWAP2 SWAP1 PUSH2 0x19AC JUMP JUMPDEST PUSH1 0x4 SLOAD PUSH1 0x40 MLOAD SWAP2 SWAP3 POP PUSH1 0x0 DUP1 MLOAD PUSH1 0x20 PUSH2 0x1F2B DUP4 CODECOPY DUP2 MLOAD SWAP2 MSTORE SWAP2 PUSH2 0x6FE SWAP2 PUSH1 0x1 PUSH1 0x1 PUSH1 0xA0 SHL SUB AND SWAP1 DUP5 SWAP1 PUSH2 0x19CE JUMP JUMPDEST PUSH1 0x40 MLOAD DUP1 SWAP2 SUB SWAP1 LOG1 PUSH1 0x0 DUP1 SLOAD PUSH1 0x5 SLOAD PUSH1 0x40 MLOAD PUSH4 0x248A35EF PUSH1 0xE1 SHL DUP2 MSTORE PUSH1 0x1 PUSH1 0x1 PUSH1 0xA0 SHL SUB SWAP3 DUP4 AND SWAP3 PUSH4 0x49146BDE SWAP3 PUSH2 0x73E SWAP3 ADDRESS SWAP3 SWAP1 SWAP2 AND SWAP1 PUSH1 0x4 ADD PUSH2 0x197B JUMP JUMPDEST PUSH1 0x20 PUSH1 0x40 MLOAD DUP1 DUP4 SUB DUP2 PUSH1 0x0 DUP8 GAS CALL ISZERO DUP1 ISZERO PUSH2 0x75D JUMPI RETURNDATASIZE PUSH1 0x0 DUP1 RETURNDATACOPY RETURNDATASIZE PUSH1 0x0 REVERT JUMPDEST POP POP POP POP PUSH1 0x40 MLOAD RETURNDATASIZE PUSH1 0x1F NOT PUSH1 0x1F DUP3 ADD AND DUP3 ADD DUP1 PUSH1 0x40 MSTORE POP DUP2 ADD SWAP1 PUSH2 0x781 SWAP2 SWAP1 PUSH2 0x19AC JUMP JUMPDEST PUSH1 0x5 SLOAD PUSH1 0x40 MLOAD SWAP2 SWAP3 POP PUSH1 0x0 DUP1 MLOAD PUSH1 0x20 PUSH2 0x1F2B DUP4 CODECOPY DUP2 MLOAD SWAP2 MSTORE SWAP2 PUSH2 0x7AF SWAP2 PUSH1 0x1 PUSH1 0x1 PUSH1 0xA0 SHL SUB AND SWAP1 DUP5 SWAP1 PUSH2 0x19CE JUMP JUMPDEST PUSH1 0x40 MLOAD DUP1 SWAP2 SUB SWAP1 LOG1 PUSH1 0x0 DUP1 SLOAD PUSH1 0x6 SLOAD PUSH1 0x40 MLOAD PUSH4 0x248A35EF PUSH1 0xE1 SHL DUP2 MSTORE PUSH1 0x1 PUSH1 0x1 PUSH1 0xA0 SHL SUB SWAP3 DUP4 AND SWAP3 PUSH4 0x49146BDE SWAP3 PUSH2 0x7EF SWAP3 ADDRESS SWAP3 SWAP1 SWAP2 AND SWAP1 PUSH1 0x4 ADD PUSH2 0x197B JUMP JUMPDEST PUSH1 0x20 PUSH1 0x40 MLOAD DUP1 DUP4 SUB DUP2 PUSH1 0x0 DUP8 GAS CALL ISZERO DUP1 ISZERO PUSH2 0x80E JUMPI RETURNDATASIZE PUSH1 0x0 DUP1 RETURNDATACOPY RETURNDATASIZE PUSH1 0x0 REVERT JUMPDEST POP POP POP POP PUSH1 0x40 MLOAD RETURNDATASIZE PUSH1 0x1F NOT PUSH1 0x1F DUP3 ADD AND DUP3 ADD DUP1 PUSH1 0x40 MSTORE POP DUP2 ADD SWAP1 PUSH2 0x832 SWAP2 SWAP1 PUSH2 0x19AC JUMP JUMPDEST PUSH1 0x6 SLOAD PUSH1 0x40 MLOAD SWAP2 SWAP3 POP PUSH1 0x0 DUP1 MLOAD PUSH1 0x20 PUSH2 0x1F2B DUP4 CODECOPY DUP2 MLOAD SWAP2 MSTORE SWAP2 PUSH2 0x860 SWAP2 PUSH1 0x1 PUSH1 0x1 PUSH1 0xA0 SHL SUB AND SWAP1 DUP5 SWAP1 PUSH2 0x19CE JUMP JUMPDEST PUSH1 0x40 MLOAD DUP1 SWAP2 SUB SWAP1 LOG1 POP POP POP POP POP POP JUMP JUMPDEST PUSH1 0x0 DUP1 SLOAD PUSH1 0x1 SLOAD PUSH1 0x40 MLOAD PUSH4 0xD9F3249 PUSH1 0xE3 SHL DUP2 MSTORE DUP4 SWAP3 DUP4 SWAP3 DUP4 SWAP3 DUP4 SWAP3 DUP4 SWAP3 DUP4 SWAP3 DUP4 SWAP3 PUSH1 0x1 PUSH1 0x1 PUSH1 0xA0 SHL SUB SWAP1 DUP2 AND SWAP3 PUSH4 0x6CF99248 SWAP3 PUSH2 0x8B4 SWAP3 ADDRESS SWAP3 AND SWAP1 PUSH1 0x4 ADD PUSH2 0x197B JUMP JUMPDEST PUSH1 0x40 DUP1 MLOAD DUP1 DUP4 SUB DUP2 PUSH1 0x0 DUP8 GAS CALL ISZERO DUP1 ISZERO PUSH2 0x8D2 JUMPI RETURNDATASIZE PUSH1 0x0 DUP1 RETURNDATACOPY RETURNDATASIZE PUSH1 0x0 REVERT JUMPDEST POP POP POP POP PUSH1 0x40 MLOAD RETURNDATASIZE PUSH1 0x1F NOT PUSH1 0x1F DUP3 ADD AND DUP3 ADD DUP1 PUSH1 0x40 MSTORE POP DUP2 ADD SWAP1 PUSH2 0x8F6 SWAP2 SWAP1 PUSH2 0x19EA JUMP JUMPDEST SWAP2 POP SWAP2 POP PUSH1 0x16 PUSH1 0x3 SIGNEXTEND DUP3 PUSH1 0x7 SIGNEXTEND EQ DUP1 ISZERO PUSH2 0x90D JUMPI POP DUP1 JUMPDEST PUSH1 0x0 DUP1 SLOAD PUSH1 0x2 SLOAD PUSH1 0x40 MLOAD PUSH4 0xD9F3249 PUSH1 0xE3 SHL DUP2 MSTORE SWAP4 SWAP12 POP SWAP2 SWAP3 DUP4 SWAP3 PUSH1 0x1 PUSH1 0x1 PUSH1 0xA0 SHL SUB SWAP3 DUP4 AND SWAP3 PUSH4 0x6CF99248 SWAP3 PUSH2 0x94A SWAP3 ADDRESS SWAP3 AND SWAP1 PUSH1 0x4 ADD PUSH2 0x197B JUMP JUMPDEST PUSH1 0x40 DUP1 MLOAD DUP1 DUP4 SUB DUP2 PUSH1 0x0 DUP8 GAS CALL ISZERO DUP1 ISZERO PUSH2 0x968 JUMPI RETURNDATASIZE PUSH1 0x0 DUP1 RETURNDATACOPY RETURNDATASIZE PUSH1 0x0 REVERT JUMPDEST POP POP POP POP PUSH1 0x40 MLOAD RETURNDATASIZE PUSH1 0x1F NOT PUSH1 0x1F DUP3 ADD AND DUP3 ADD DUP1 PUSH1 0x40 MSTORE POP DUP2 ADD SWAP1 PUSH2 0x98C SWAP2 SWAP1 PUSH2 0x19EA JUMP JUMPDEST SWAP2 POP SWAP2 POP PUSH1 0x16 PUSH1 0x3 SIGNEXTEND DUP3 PUSH1 0x7 SIGNEXTEND EQ DUP1 ISZERO PUSH2 0x9A3 JUMPI POP DUP1 JUMPDEST PUSH1 0x0 DUP1 SLOAD PUSH1 0x3 SLOAD PUSH1 0x40 MLOAD PUSH4 0xD9F3249 PUSH1 0xE3 SHL DUP2 MSTORE SWAP4 SWAP13 POP SWAP2 SWAP3 DUP4 SWAP3 PUSH1 0x1 PUSH1 0x1 PUSH1 0xA0 SHL SUB SWAP3 DUP4 AND SWAP3 PUSH4 0x6CF99248 SWAP3 PUSH2 0x9E0 SWAP3 ADDRESS SWAP3 AND SWAP1 PUSH1 0x4 ADD PUSH2 0x197B JUMP JUMPDEST PUSH1 0x40 DUP1 MLOAD DUP1 DUP4 SUB DUP2 PUSH1 0x0 DUP8 GAS CALL ISZERO DUP1 ISZERO PUSH2 0x9FE JUMPI RETURNDATASIZE PUSH1 0x0 DUP1 RETURNDATACOPY RETURNDATASIZE PUSH1 0x0 REVERT JUMPDEST POP POP POP POP PUSH1 0x40 MLOAD RETURNDATASIZE PUSH1 0x1F NOT PUSH1 0x1F DUP3 ADD AND DUP3 ADD DUP1 PUSH1 0x40 MSTORE POP DUP2 ADD SWAP1 PUSH2 0xA22 SWAP2 SWAP1 PUSH2 0x19EA JUMP JUMPDEST SWAP2 POP SWAP2 POP PUSH1 0x16 PUSH1 0x3 SIGNEXTEND DUP3 PUSH1 0x7 SIGNEXTEND EQ DUP1 ISZERO PUSH2 0xA39 JUMPI POP DUP1 JUMPDEST PUSH1 0x0 DUP1 SLOAD PUSH1 0x4 DUP1 SLOAD PUSH1 0x40 MLOAD PUSH4 0xD9F3249 PUSH1 0xE3 SHL DUP2 MSTORE SWAP5 SWAP15 POP SWAP3 SWAP4 DUP5 SWAP4 PUSH1 0x1 PUSH1 0x1 PUSH1 0xA0 SHL SUB SWAP4 DUP5 AND SWAP4 PUSH4 0x6CF99248 SWAP4 PUSH2 0xA77 SWAP4 ADDRESS SWAP4 SWAP1 SWAP3 AND SWAP2 ADD PUSH2 0x197B JUMP JUMPDEST PUSH1 0x40 DUP1 MLOAD DUP1 DUP4 SUB DUP2 PUSH1 0x0 DUP8 GAS CALL ISZERO DUP1 ISZERO PUSH2 0xA95 JUMPI RETURNDATASIZE PUSH1 0x0 DUP1 RETURNDATACOPY RETURNDATASIZE PUSH1 0x0 REVERT JUMPDEST POP POP POP POP PUSH1 0x40 MLOAD RETURNDATASIZE PUSH1 0x1F NOT PUSH1 0x1F DUP3 ADD AND DUP3 ADD DUP1 PUSH1 0x40 MSTORE POP DUP2 ADD SWAP1 PUSH2 0xAB9 SWAP2 SWAP1 PUSH2 0x19EA JUMP JUMPDEST SWAP2 POP SWAP2 POP PUSH1 0x16 PUSH1 0x3 SIGNEXTEND DUP3 PUSH1 0x7 SIGNEXTEND EQ DUP1 ISZERO PUSH2 0xAD0 JUMPI POP DUP1 JUMPDEST PUSH1 0x0 DUP1 SLOAD PUSH1 0x5 SLOAD PUSH1 0x40 MLOAD PUSH4 0xD9F3249 PUSH1 0xE3 SHL DUP2 MSTORE SWAP4 SWAP15 POP SWAP2 SWAP3 DUP4 SWAP3 PUSH1 0x1 PUSH1 0x1 PUSH1 0xA0 SHL SUB SWAP3 DUP4 AND SWAP3 PUSH4 0x6CF99248 SWAP3 PUSH2 0xB0D SWAP3 ADDRESS SWAP3 AND SWAP1 PUSH1 0x4 ADD PUSH2 0x197B JUMP JUMPDEST PUSH1 0x40 DUP1 MLOAD DUP1 DUP4 SUB DUP2 PUSH1 0x0 DUP8 GAS CALL ISZERO DUP1 ISZERO PUSH2 0xB2B JUMPI RETURNDATASIZE PUSH1 0x0 DUP1 RETURNDATACOPY RETURNDATASIZE PUSH1 0x0 REVERT JUMPDEST POP POP POP POP PUSH1 0x40 MLOAD RETURNDATASIZE PUSH1 0x1F NOT PUSH1 0x1F DUP3 ADD AND DUP3 ADD DUP1 PUSH1 0x40 MSTORE POP DUP2 ADD SWAP1 PUSH2 0xB4F SWAP2 SWAP1 PUSH2 0x19EA JUMP JUMPDEST SWAP2 POP SWAP2 POP PUSH1 0x16 PUSH1 0x3 SIGNEXTEND DUP3 PUSH1 0x7 SIGNEXTEND EQ DUP1 ISZERO PUSH2 0xB66 JUMPI POP DUP1 JUMPDEST PUSH1 0x0 DUP1 SLOAD PUSH1 0x6 SLOAD PUSH1 0x40 MLOAD PUSH4 0xD9F3249 PUSH1 0xE3 SHL DUP2 MSTORE SWAP4 SWAP16 POP SWAP2 SWAP3 DUP4 SWAP3 PUSH1 0x1 PUSH1 0x1 PUSH1 0xA0 SHL SUB SWAP3 DUP4 AND SWAP3 PUSH4 0x6CF99248 SWAP3 PUSH2 0xBA3 SWAP3 ADDRESS SWAP3 AND SWAP1 PUSH1 0x4 ADD PUSH2 0x197B JUMP JUMPDEST PUSH1 0x40 DUP1 MLOAD DUP1 DUP4 SUB DUP2 PUSH1 0x0 DUP8 GAS CALL ISZERO DUP1 ISZERO PUSH2 0xBC1 JUMPI RETURNDATASIZE PUSH1 0x0 DUP1 RETURNDATACOPY RETURNDATASIZE PUSH1 0x0 REVERT JUMPDEST POP POP POP POP PUSH1 0x40 MLOAD RETURNDATASIZE PUSH1 0x1F NOT PUSH1 0x1F DUP3 ADD AND DUP3 ADD DUP1 PUSH1 0x40 MSTORE POP DUP2 ADD SWAP1 PUSH2 0xBE5 SWAP2 SWAP1 PUSH2 0x19EA JUMP JUMPDEST SWAP2 POP SWAP2 POP PUSH1 0x16 PUSH1 0x3 SIGNEXTEND DUP3 PUSH1 0x7 SIGNEXTEND EQ DUP1 ISZERO PUSH2 0xBFC JUMPI POP DUP1 JUMPDEST SWAP13 POP POP POP POP POP POP POP POP POP POP POP POP POP SWAP1 SWAP2 SWAP3 SWAP4 SWAP5 SWAP6 JUMP JUMPDEST PUSH1 0x0 DUP1 DUP1 DUP1 DUP1 DUP1 PUSH1 0xA PUSH2 0xC26 PUSH1 0x19 DUP10 PUSH2 0x1A3C JUMP JUMPDEST PUSH2 0xC34 SWAP1 PUSH4 0x5F5E100 PUSH2 0x1A3C JUMP JUMPDEST PUSH2 0xC3E SWAP2 SWAP1 PUSH2 0x1A59 JUMP JUMPDEST SWAP6 POP PUSH1 0x64 PUSH2 0xC4E PUSH1 0x8 PUSH1 0xA PUSH2 0x1B5F JUMP JUMPDEST PUSH2 0xC59 PUSH1 0x2 DUP11 PUSH2 0x1A3C JUMP JUMPDEST PUSH2 0xC63 SWAP2 SWAP1 PUSH2 0x1A3C JUMP JUMPDEST PUSH2 0xC6D SWAP2 SWAP1 PUSH2 0x1A59 JUMP JUMPDEST SWAP5 POP PUSH1 0xA PUSH2 0xC7C PUSH1 0x6 DUP3 PUSH2 0x1B5F JUMP JUMPDEST PUSH2 0xC87 PUSH1 0xF DUP11 PUSH2 0x1A3C JUMP JUMPDEST PUSH2 0xC91 SWAP2 SWAP1 PUSH2 0x1A3C JUMP JUMPDEST PUSH2 0xC9B SWAP2 SWAP1 PUSH2 0x1A59 JUMP JUMPDEST SWAP4 POP PUSH1 0xA PUSH2 0xCAA PUSH1 0x6 DUP3 PUSH2 0x1B5F JUMP JUMPDEST PUSH2 0xCB5 PUSH1 0xF DUP11 PUSH2 0x1A3C JUMP JUMPDEST PUSH2 0xCBF SWAP2 SWAP1 PUSH2 0x1A3C JUMP JUMPDEST PUSH2 0xCC9 SWAP2 SWAP1 PUSH2 0x1A59 JUMP JUMPDEST SWAP3 POP PUSH1 0xA PUSH2 0xCD8 PUSH1 0x8 DUP3 PUSH2 0x1B5F JUMP JUMPDEST PUSH2 0xCE3 PUSH1 0xF DUP11 PUSH2 0x1A3C JUMP JUMPDEST PUSH2 0xCED SWAP2 SWAP1 PUSH2 0x1A3C JUMP JUMPDEST PUSH2 0xCF7 SWAP2 SWAP1 PUSH2 0x1A59 JUMP JUMPDEST SWAP2 POP PUSH1 0xA PUSH2 0xD06 PUSH1 0x8 DUP3 PUSH2 0x1B5F JUMP JUMPDEST PUSH2 0xD11 PUSH1 0xA DUP11 PUSH2 0x1A3C JUMP JUMPDEST PUSH2 0xD1B SWAP2 SWAP1 PUSH2 0x1A3C JUMP JUMPDEST PUSH2 0xD25 SWAP2 SWAP1 PUSH2 0x1A59 JUMP JUMPDEST SWAP1 POP SWAP2 SWAP4 SWAP6 POP SWAP2 SWAP4 SWAP6 JUMP JUMPDEST PUSH2 0xD3E DUP7 DUP7 DUP7 DUP7 DUP7 DUP7 PUSH2 0xE1A JUMP JUMPDEST PUSH2 0xD4B DUP6 DUP6 DUP6 DUP6 DUP6 PUSH2 0x10DC JUMP JUMPDEST PUSH2 0xD54 DUP7 PUSH2 0x15DC JUMP JUMPDEST POP POP POP POP POP POP JUMP JUMPDEST PUSH1 0x7 SLOAD PUSH1 0x1 PUSH1 0x1 PUSH1 0xA0 SHL SUB AND CALLER EQ PUSH2 0xD87 JUMPI PUSH1 0x40 MLOAD PUSH4 0x47556579 PUSH1 0xE0 SHL DUP2 MSTORE PUSH1 0x4 ADD PUSH1 0x40 MLOAD DUP1 SWAP2 SUB SWAP1 REVERT JUMPDEST SELFBALANCE DUP2 GT ISZERO PUSH2 0xDDC JUMPI PUSH1 0x40 MLOAD PUSH3 0x461BCD PUSH1 0xE5 SHL DUP2 MSTORE PUSH1 0x20 PUSH1 0x4 DUP3 ADD MSTORE PUSH1 0x19 PUSH1 0x24 DUP3 ADD MSTORE PUSH32 0x496E73756666696369656E7420484241522062616C616E636500000000000000 PUSH1 0x44 DUP3 ADD MSTORE PUSH1 0x64 ADD JUMPDEST PUSH1 0x40 MLOAD DUP1 SWAP2 SUB SWAP1 REVERT JUMPDEST PUSH1 0x7 SLOAD PUSH1 0x40 MLOAD PUSH1 0x1 PUSH1 0x1 PUSH1 0xA0 SHL SUB SWAP1 SWAP2 AND SWAP1 DUP3 ISZERO PUSH2 0x8FC MUL SWAP1 DUP4 SWAP1 PUSH1 0x0 DUP2 DUP2 DUP2 DUP6 DUP9 DUP9 CALL SWAP4 POP POP POP POP ISZERO DUP1 ISZERO PUSH2 0xE16 JUMPI RETURNDATASIZE PUSH1 0x0 DUP1 RETURNDATACOPY RETURNDATASIZE PUSH1 0x0 REVERT JUMPDEST POP POP JUMP JUMPDEST DUP6 PUSH1 0x0 SUB PUSH2 0xE3B JUMPI PUSH1 0x40 MLOAD PUSH4 0x162908E3 PUSH1 0xE1 SHL DUP2 MSTORE PUSH1 0x4 ADD PUSH1 0x40 MLOAD DUP1 SWAP2 SUB SWAP1 REVERT JUMPDEST PUSH1 0x1 SLOAD PUSH1 0x1 PUSH1 0x1 PUSH1 0xA0 SHL SUB AND PUSH2 0xE7D JUMPI PUSH1 0x40 MLOAD PUSH4 0x64D2AC41 PUSH1 0xE0 SHL DUP2 MSTORE PUSH1 0x4 ADD PUSH2 0xDD3 SWAP1 PUSH1 0x20 DUP1 DUP3 MSTORE PUSH1 0x4 SWAP1 DUP3 ADD MSTORE PUSH4 0x98B29CB PUSH1 0xE3 SHL PUSH1 0x40 DUP3 ADD MSTORE PUSH1 0x60 ADD SWAP1 JUMP JUMPDEST PUSH1 0x2 SLOAD PUSH1 0x1 PUSH1 0x1 PUSH1 0xA0 SHL SUB AND PUSH2 0xEA6 JUMPI PUSH1 0x40 MLOAD PUSH4 0x64D2AC41 PUSH1 0xE0 SHL DUP2 MSTORE PUSH1 0x4 ADD PUSH2 0xDD3 SWAP1 PUSH2 0x1B6E JUMP JUMPDEST PUSH1 0x3 SLOAD PUSH1 0x1 PUSH1 0x1 PUSH1 0xA0 SHL SUB AND PUSH2 0xECF JUMPI PUSH1 0x40 MLOAD PUSH4 0x64D2AC41 PUSH1 0xE0 SHL DUP2 MSTORE PUSH1 0x4 ADD PUSH2 0xDD3 SWAP1 PUSH2 0x1B92 JUMP JUMPDEST PUSH1 0x4 SLOAD PUSH1 0x1 PUSH1 0x1 PUSH1 0xA0 SHL SUB AND PUSH2 0xEF8 JUMPI PUSH1 0x40 MLOAD PUSH4 0x64D2AC41 PUSH1 0xE0 SHL DUP2 MSTORE PUSH1 0x4 ADD PUSH2 0xDD3 SWAP1 PUSH2 0x1BB7 JUMP JUMPDEST PUSH1 0x5 SLOAD PUSH1 0x1 PUSH1 0x1 PUSH1 0xA0 SHL SUB AND PUSH2 0xF21 JUMPI PUSH1 0x40 MLOAD PUSH4 0x64D2AC41 PUSH1 0xE0 SHL DUP2 MSTORE PUSH1 0x4 ADD PUSH2 0xDD3 SWAP1 PUSH2 0x1BDB JUMP JUMPDEST PUSH1 0x6 SLOAD PUSH1 0x1 PUSH1 0x1 PUSH1 0xA0 SHL SUB AND PUSH2 0xF4A JUMPI PUSH1 0x40 MLOAD PUSH4 0x64D2AC41 PUSH1 0xE0 SHL DUP2 MSTORE PUSH1 0x4 ADD PUSH2 0xDD3 SWAP1 PUSH2 0x1BFE JUMP JUMPDEST PUSH1 0x0 DUP1 PUSH1 0x0 DUP1 PUSH1 0x0 DUP1 ADDRESS PUSH1 0x1 PUSH1 0x1 PUSH1 0xA0 SHL SUB AND PUSH4 0x8F9F8B01 DUP14 PUSH1 0x40 MLOAD DUP3 PUSH4 0xFFFFFFFF AND PUSH1 0xE0 SHL DUP2 MSTORE PUSH1 0x4 ADD PUSH2 0xF81 SWAP2 DUP2 MSTORE PUSH1 0x20 ADD SWAP1 JUMP JUMPDEST PUSH1 0xC0 PUSH1 0x40 MLOAD DUP1 DUP4 SUB DUP2 DUP7 GAS STATICCALL ISZERO DUP1 ISZERO PUSH2 0xF9E JUMPI RETURNDATASIZE PUSH1 0x0 DUP1 RETURNDATACOPY RETURNDATASIZE PUSH1 0x0 REVERT JUMPDEST POP POP POP POP PUSH1 0x40 MLOAD RETURNDATASIZE PUSH1 0x1F NOT PUSH1 0x1F DUP3 ADD AND DUP3 ADD DUP1 PUSH1 0x40 MSTORE POP DUP2 ADD SWAP1 PUSH2 0xFC2 SWAP2 SWAP1 PUSH2 0x1C27 JUMP JUMPDEST SWAP6 POP SWAP6 POP SWAP6 POP SWAP6 POP SWAP6 POP SWAP6 POP DUP6 CALLVALUE LT ISZERO PUSH2 0x1015 JUMPI PUSH1 0x40 MLOAD PUSH4 0xD5871B23 PUSH1 0xE0 SHL DUP2 MSTORE PUSH1 0x60 PUSH1 0x4 DUP1 DUP4 ADD SWAP2 SWAP1 SWAP2 MSTORE PUSH1 0x64 DUP3 ADD MSTORE PUSH4 0x242120A9 PUSH1 0xE1 SHL PUSH1 0x84 DUP3 ADD MSTORE PUSH1 0x24 DUP2 ADD DUP8 SWAP1 MSTORE CALLVALUE PUSH1 0x44 DUP3 ADD MSTORE PUSH1 0xA4 ADD PUSH2 0xDD3 JUMP JUMPDEST DUP5 DUP12 LT ISZERO PUSH2 0x103A JUMPI DUP5 DUP12 PUSH1 0x40 MLOAD PUSH4 0xD5871B23 PUSH1 0xE0 SHL DUP2 MSTORE PUSH1 0x4 ADD PUSH2 0xDD3 SWAP3 SWAP2 SWAP1 PUSH2 0x1C71 JUMP JUMPDEST DUP4 DUP11 LT ISZERO PUSH2 0x105F JUMPI DUP4 DUP11 PUSH1 0x40 MLOAD PUSH4 0xD5871B23 PUSH1 0xE0 SHL DUP2 MSTORE PUSH1 0x4 ADD PUSH2 0xDD3 SWAP3 SWAP2 SWAP1 PUSH2 0x1CA5 JUMP JUMPDEST DUP3 DUP10 LT ISZERO PUSH2 0x1084 JUMPI DUP3 DUP10 PUSH1 0x40 MLOAD PUSH4 0xD5871B23 PUSH1 0xE0 SHL DUP2 MSTORE PUSH1 0x4 ADD PUSH2 0xDD3 SWAP3 SWAP2 SWAP1 PUSH2 0x1CCA JUMP JUMPDEST DUP2 DUP9 LT ISZERO PUSH2 0x10A9 JUMPI DUP2 DUP9 PUSH1 0x40 MLOAD PUSH4 0xD5871B23 PUSH1 0xE0 SHL DUP2 MSTORE PUSH1 0x4 ADD PUSH2 0xDD3 SWAP3 SWAP2 SWAP1 PUSH2 0x1CEE JUMP JUMPDEST DUP1 DUP8 LT ISZERO PUSH2 0x10CE JUMPI DUP1 DUP8 PUSH1 0x40 MLOAD PUSH4 0xD5871B23 PUSH1 0xE0 SHL DUP2 MSTORE PUSH1 0x4 ADD PUSH2 0xDD3 SWAP3 SWAP2 SWAP1 PUSH2 0x1D11 JUMP JUMPDEST POP POP POP POP POP POP POP POP POP POP POP POP JUMP JUMPDEST PUSH1 0x0 DUP1 SLOAD PUSH1 0x2 SLOAD PUSH1 0x40 MLOAD PUSH4 0xECA36917 PUSH1 0xE0 SHL DUP2 MSTORE DUP4 SWAP3 PUSH1 0x1 PUSH1 0x1 PUSH1 0xA0 SHL SUB SWAP1 DUP2 AND SWAP3 PUSH4 0xECA36917 SWAP3 PUSH2 0x111A SWAP3 SWAP1 SWAP2 AND SWAP1 CALLER SWAP1 ADDRESS SWAP1 DUP14 SWAP1 PUSH1 0x4 ADD PUSH2 0x1D3A JUMP JUMPDEST PUSH1 0x20 PUSH1 0x40 MLOAD DUP1 DUP4 SUB DUP2 PUSH1 0x0 DUP8 GAS CALL ISZERO DUP1 ISZERO PUSH2 0x1139 JUMPI RETURNDATASIZE PUSH1 0x0 DUP1 RETURNDATACOPY RETURNDATASIZE PUSH1 0x0 REVERT JUMPDEST POP POP POP POP PUSH1 0x40 MLOAD RETURNDATASIZE PUSH1 0x1F NOT PUSH1 0x1F DUP3 ADD AND DUP3 ADD DUP1 PUSH1 0x40 MSTORE POP DUP2 ADD SWAP1 PUSH2 0x115D SWAP2 SWAP1 PUSH2 0x19AC JUMP JUMPDEST SWAP1 POP PUSH1 0x7 DUP2 SWAP1 SIGNEXTEND PUSH1 0x16 EQ PUSH2 0x11B0 JUMPI PUSH1 0x40 DUP1 MLOAD PUSH4 0x16146C1 PUSH1 0xE6 SHL DUP2 MSTORE PUSH1 0x4 DUP2 ADD SWAP2 SWAP1 SWAP2 MSTORE PUSH1 0xD PUSH1 0x44 DUP3 ADD MSTORE PUSH13 0x2BA12A21903A3930B739B332B9 PUSH1 0x99 SHL PUSH1 0x64 DUP3 ADD MSTORE PUSH1 0x7 DUP3 SWAP1 SIGNEXTEND PUSH1 0x24 DUP3 ADD MSTORE PUSH1 0x84 ADD PUSH2 0xDD3 JUMP JUMPDEST DUP2 PUSH2 0x11BA DUP2 PUSH2 0x1D67 JUMP JUMPDEST PUSH1 0x0 DUP1 SLOAD PUSH1 0x3 SLOAD PUSH1 0x40 MLOAD PUSH4 0xECA36917 PUSH1 0xE0 SHL DUP2 MSTORE SWAP4 SWAP7 POP SWAP2 SWAP4 POP PUSH1 0x1 PUSH1 0x1 PUSH1 0xA0 SHL SUB SWAP1 DUP2 AND SWAP3 PUSH4 0xECA36917 SWAP3 PUSH2 0x11FA SWAP3 AND SWAP1 CALLER SWAP1 ADDRESS SWAP1 DUP14 SWAP1 PUSH1 0x4 ADD PUSH2 0x1D3A JUMP JUMPDEST PUSH1 0x20 PUSH1 0x40 MLOAD DUP1 DUP4 SUB DUP2 PUSH1 0x0 DUP8 GAS CALL ISZERO DUP1 ISZERO PUSH2 0x1219 JUMPI RETURNDATASIZE PUSH1 0x0 DUP1 RETURNDATACOPY RETURNDATASIZE PUSH1 0x0 REVERT JUMPDEST POP POP POP POP PUSH1 0x40 MLOAD RETURNDATASIZE PUSH1 0x1F NOT PUSH1 0x1F DUP3 ADD AND DUP3 ADD DUP1 PUSH1 0x40 MSTORE POP DUP2 ADD SWAP1 PUSH2 0x123D SWAP2 SWAP1 PUSH2 0x19AC JUMP JUMPDEST SWAP1 POP PUSH1 0x7 DUP2 SWAP1 SIGNEXTEND PUSH1 0x16 EQ PUSH2 0x1291 JUMPI PUSH1 0x40 DUP1 MLOAD PUSH4 0x16146C1 PUSH1 0xE6 SHL DUP2 MSTORE PUSH1 0x4 DUP2 ADD SWAP2 SWAP1 SWAP2 MSTORE PUSH1 0xE PUSH1 0x44 DUP3 ADD MSTORE PUSH14 0x29A0AAA1A2903A3930B739B332B9 PUSH1 0x91 SHL PUSH1 0x64 DUP3 ADD MSTORE PUSH1 0x7 DUP3 SWAP1 SIGNEXTEND PUSH1 0x24 DUP3 ADD MSTORE PUSH1 0x84 ADD PUSH2 0xDD3 JUMP JUMPDEST DUP3 PUSH2 0x129B DUP2 PUSH2 0x1D67 JUMP JUMPDEST PUSH1 0x0 DUP1 SLOAD PUSH1 0x4 DUP1 SLOAD PUSH1 0x40 MLOAD PUSH4 0xECA36917 PUSH1 0xE0 SHL DUP2 MSTORE SWAP5 SWAP9 POP SWAP3 SWAP5 POP PUSH1 0x1 PUSH1 0x1 PUSH1 0xA0 SHL SUB SWAP2 DUP3 AND SWAP4 PUSH4 0xECA36917 SWAP4 PUSH2 0x12DA SWAP4 AND SWAP2 CALLER SWAP2 ADDRESS SWAP2 DUP15 SWAP2 ADD PUSH2 0x1D3A JUMP JUMPDEST PUSH1 0x20 PUSH1 0x40 MLOAD DUP1 DUP4 SUB DUP2 PUSH1 0x0 DUP8 GAS CALL ISZERO DUP1 ISZERO PUSH2 0x12F9 JUMPI RETURNDATASIZE PUSH1 0x0 DUP1 RETURNDATACOPY RETURNDATASIZE PUSH1 0x0 REVERT JUMPDEST POP POP POP POP PUSH1 0x40 MLOAD RETURNDATASIZE PUSH1 0x1F NOT PUSH1 0x1F DUP3 ADD AND DUP3 ADD DUP1 PUSH1 0x40 MSTORE POP DUP2 ADD SWAP1 PUSH2 0x131D SWAP2 SWAP1 PUSH2 0x19AC JUMP JUMPDEST SWAP1 POP PUSH1 0x7 DUP2 SWAP1 SIGNEXTEND PUSH1 0x16 EQ PUSH2 0x1370 JUMPI PUSH1 0x40 DUP1 MLOAD PUSH4 0x16146C1 PUSH1 0xE6 SHL DUP2 MSTORE PUSH1 0x4 DUP2 ADD SWAP2 SWAP1 SWAP2 MSTORE PUSH1 0xD PUSH1 0x44 DUP3 ADD MSTORE PUSH13 0x2AA9A221903A3930B739B332B9 PUSH1 0x99 SHL PUSH1 0x64 DUP3 ADD MSTORE PUSH1 0x7 DUP3 SWAP1 SIGNEXTEND PUSH1 0x24 DUP3 ADD MSTORE PUSH1 0x84 ADD PUSH2 0xDD3 JUMP JUMPDEST DUP4 PUSH2 0x137A DUP2 PUSH2 0x1D67 JUMP JUMPDEST PUSH1 0x0 DUP1 SLOAD PUSH1 0x5 SLOAD PUSH1 0x40 MLOAD PUSH4 0xECA36917 PUSH1 0xE0 SHL DUP2 MSTORE SWAP4 SWAP9 POP SWAP2 SWAP4 POP PUSH1 0x1 PUSH1 0x1 PUSH1 0xA0 SHL SUB SWAP1 DUP2 AND SWAP3 PUSH4 0xECA36917 SWAP3 PUSH2 0x13BA SWAP3 AND SWAP1 CALLER SWAP1 ADDRESS SWAP1 DUP14 SWAP1 PUSH1 0x4 ADD PUSH2 0x1D3A JUMP JUMPDEST PUSH1 0x20 PUSH1 0x40 MLOAD DUP1 DUP4 SUB DUP2 PUSH1 0x0 DUP8 GAS CALL ISZERO DUP1 ISZERO PUSH2 0x13D9 JUMPI RETURNDATASIZE PUSH1 0x0 DUP1 RETURNDATACOPY RETURNDATASIZE PUSH1 0x0 REVERT JUMPDEST POP POP POP POP PUSH1 0x40 MLOAD RETURNDATASIZE PUSH1 0x1F NOT PUSH1 0x1F DUP3 ADD AND DUP3 ADD DUP1 PUSH1 0x40 MSTORE POP DUP2 ADD SWAP1 PUSH2 0x13FD SWAP2 SWAP1 PUSH2 0x19AC JUMP JUMPDEST SWAP1 POP PUSH1 0x7 DUP2 SWAP1 SIGNEXTEND PUSH1 0x16 EQ PUSH2 0x144F JUMPI PUSH1 0x40 DUP1 MLOAD PUSH4 0x16146C1 PUSH1 0xE6 SHL DUP2 MSTORE PUSH1 0x4 DUP2 ADD SWAP2 SWAP1 SWAP2 MSTORE PUSH1 0xC PUSH1 0x44 DUP3 ADD MSTORE PUSH12 0x2520A6903A3930B739B332B9 PUSH1 0xA1 SHL PUSH1 0x64 DUP3 ADD MSTORE PUSH1 0x7 DUP3 SWAP1 SIGNEXTEND PUSH1 0x24 DUP3 ADD MSTORE PUSH1 0x84 ADD PUSH2 0xDD3 JUMP JUMPDEST DUP5 PUSH2 0x1459 DUP2 PUSH2 0x1D67 JUMP JUMPDEST PUSH1 0x0 DUP1 SLOAD PUSH1 0x6 SLOAD PUSH1 0x40 MLOAD PUSH4 0xECA36917 PUSH1 0xE0 SHL DUP2 MSTORE SWAP4 SWAP10 POP SWAP2 SWAP4 POP PUSH1 0x1 PUSH1 0x1 PUSH1 0xA0 SHL SUB SWAP1 DUP2 AND SWAP3 PUSH4 0xECA36917 SWAP3 PUSH2 0x1499 SWAP3 AND SWAP1 CALLER SWAP1 ADDRESS SWAP1 DUP14 SWAP1 PUSH1 0x4 ADD PUSH2 0x1D3A JUMP JUMPDEST PUSH1 0x20 PUSH1 0x40 MLOAD DUP1 DUP4 SUB DUP2 PUSH1 0x0 DUP8 GAS CALL ISZERO DUP1 ISZERO PUSH2 0x14B8 JUMPI RETURNDATASIZE PUSH1 0x0 DUP1 RETURNDATACOPY RETURNDATASIZE PUSH1 0x0 REVERT JUMPDEST POP POP POP POP PUSH1 0x40 MLOAD RETURNDATASIZE PUSH1 0x1F NOT PUSH1 0x1F DUP3 ADD AND DUP3 ADD DUP1 PUSH1 0x40 MSTORE POP DUP2 ADD SWAP1 PUSH2 0x14DC SWAP2 SWAP1 PUSH2 0x19AC JUMP JUMPDEST SWAP1 POP PUSH1 0x7 DUP2 SWAP1 SIGNEXTEND PUSH1 0x16 EQ PUSH2 0x1534 JUMPI PUSH1 0x40 DUP1 MLOAD PUSH4 0x16146C1 PUSH1 0xE6 SHL DUP2 MSTORE PUSH1 0x4 DUP2 ADD SWAP2 SWAP1 SWAP2 MSTORE PUSH1 0x12 PUSH1 0x44 DUP3 ADD MSTORE PUSH18 0x2422A0A229AA20A92A103A3930B739B332B9 PUSH1 0x71 SHL PUSH1 0x64 DUP3 ADD MSTORE PUSH1 0x7 DUP3 SWAP1 SIGNEXTEND PUSH1 0x24 DUP3 ADD MSTORE PUSH1 0x84 ADD PUSH2 0xDD3 JUMP JUMPDEST DUP6 PUSH2 0x153E DUP2 PUSH2 0x1D67 JUMP JUMPDEST PUSH1 0x40 MLOAD DUP2 DUP2 MSTORE SWAP1 SWAP8 POP CALLER SWAP2 POP PUSH32 0xFB6C065AEDB9F80DB2A7C600754A071D9B16CDEE761F37B7ECF1F3E68578B322 SWAP1 PUSH1 0x20 ADD PUSH1 0x40 MLOAD DUP1 SWAP2 SUB SWAP1 LOG2 PUSH1 0x40 DUP1 MLOAD CALLVALUE DUP2 MSTORE PUSH1 0x20 DUP2 ADD DUP14 SWAP1 MSTORE SWAP1 DUP2 ADD DUP12 SWAP1 MSTORE PUSH1 0x60 DUP2 ADD DUP11 SWAP1 MSTORE PUSH1 0x80 DUP2 ADD DUP10 SWAP1 MSTORE PUSH1 0xA0 DUP2 ADD DUP9 SWAP1 MSTORE CALLER SWAP1 PUSH32 0x46E94826DDC11785B987FDA075F8564A41AC10326680FCD384E60B2064A7FAB8 SWAP1 PUSH1 0xC0 ADD PUSH1 0x40 MLOAD DUP1 SWAP2 SUB SWAP1 LOG2 POP POP POP POP POP POP POP POP POP POP POP JUMP JUMPDEST PUSH1 0x0 PUSH2 0x15EA PUSH1 0x8 PUSH1 0xA PUSH2 0x1B5F JUMP JUMPDEST PUSH2 0x15F4 SWAP1 DUP4 PUSH2 0x1A3C JUMP JUMPDEST PUSH1 0x40 DUP1 MLOAD DUP5 DUP2 MSTORE PUSH1 0x20 DUP2 ADD DUP4 SWAP1 MSTORE SWAP2 SWAP3 POP CALLER SWAP2 PUSH32 0xEF8F5BE9F6E9B6CAFE9795E6972D99452D92FDFCA92995050EAA9CBBDCD627DC SWAP2 ADD PUSH1 0x40 MLOAD DUP1 SWAP2 SUB SWAP1 LOG2 PUSH1 0x40 DUP1 MLOAD PUSH1 0x0 DUP1 DUP3 MSTORE PUSH1 0x20 DUP3 ADD SWAP1 SWAP3 MSTORE DUP2 PUSH2 0x165D JUMP JUMPDEST PUSH1 0x60 DUP2 MSTORE PUSH1 0x20 ADD SWAP1 PUSH1 0x1 SWAP1 SUB SWAP1 DUP2 PUSH2 0x1648 JUMPI SWAP1 POP JUMPDEST POP PUSH1 0x0 DUP1 SLOAD PUSH1 0x1 SLOAD PUSH1 0x40 MLOAD PUSH4 0x707A02CD PUSH1 0xE1 SHL DUP2 MSTORE SWAP4 SWAP5 POP SWAP2 SWAP3 DUP4 SWAP3 PUSH1 0x1 PUSH1 0x1 PUSH1 0xA0 SHL SUB SWAP3 DUP4 AND SWAP3 PUSH4 0xE0F4059A SWAP3 PUSH2 0x169F SWAP3 SWAP1 SWAP2 AND SWAP1 DUP9 SWAP1 DUP9 SWAP1 PUSH1 0x4 ADD PUSH2 0x1D96 JUMP JUMPDEST PUSH1 0x0 PUSH1 0x40 MLOAD DUP1 DUP4 SUB DUP2 PUSH1 0x0 DUP8 GAS CALL ISZERO DUP1 ISZERO PUSH2 0x16BE JUMPI RETURNDATASIZE PUSH1 0x0 DUP1 RETURNDATACOPY RETURNDATASIZE PUSH1 0x0 REVERT JUMPDEST POP POP POP POP PUSH1 0x40 MLOAD RETURNDATASIZE PUSH1 0x0 DUP3 RETURNDATACOPY PUSH1 0x1F RETURNDATASIZE SWAP1 DUP2 ADD PUSH1 0x1F NOT AND DUP3 ADD PUSH1 0x40 MSTORE PUSH2 0x16E6 SWAP2 SWAP1 DUP2 ADD SWAP1 PUSH2 0x1E42 JUMP JUMPDEST POP PUSH1 0x40 DUP1 MLOAD PUSH1 0x7 DUP5 DUP2 SIGNEXTEND DUP3 MSTORE DUP4 SWAP1 SIGNEXTEND PUSH1 0x20 DUP3 ADD MSTORE SWAP3 SWAP5 POP SWAP1 SWAP3 POP PUSH32 0xEEB8B94F7BF115B59D1437EDF60F2F07656A1EB52234A1835D90480777C5762C SWAP2 ADD PUSH1 0x40 MLOAD DUP1 SWAP2 SUB SWAP1 LOG1 PUSH1 0x7 DUP3 SWAP1 SIGNEXTEND PUSH1 0x16 EQ PUSH2 0x1778 JUMPI PUSH1 0x40 DUP1 MLOAD PUSH4 0x16146C1 PUSH1 0xE6 SHL DUP2 MSTORE PUSH1 0x4 DUP2 ADD SWAP2 SWAP1 SWAP2 MSTORE PUSH1 0x9 PUSH1 0x44 DUP3 ADD MSTORE PUSH9 0x13165396081B5A5B9D PUSH1 0xBA SHL PUSH1 0x64 DUP3 ADD MSTORE PUSH1 0x7 DUP4 SWAP1 SIGNEXTEND PUSH1 0x24 DUP3 ADD MSTORE PUSH1 0x84 ADD PUSH2 0xDD3 JUMP JUMPDEST PUSH1 0x8 SLOAD PUSH1 0x40 DUP1 MLOAD PUSH1 0x1 PUSH1 0x1 PUSH1 0xA0 SHL SUB SWAP1 SWAP3 AND DUP3 MSTORE CALLER PUSH1 0x20 DUP4 ADD MSTORE DUP2 ADD DUP6 SWAP1 MSTORE PUSH32 0x883DD34324C5E33F1CE994B8F1652AB425A78C77305F00A08660B05245ED17B3 SWAP1 PUSH1 0x60 ADD PUSH1 0x40 MLOAD DUP1 SWAP2 SUB SWAP1 LOG1 PUSH1 0x0 DUP1 SLOAD PUSH1 0x1 SLOAD PUSH1 0x8 SLOAD PUSH1 0x40 MLOAD PUSH4 0xECA36917 PUSH1 0xE0 SHL DUP2 MSTORE PUSH1 0x1 PUSH1 0x1 PUSH1 0xA0 SHL SUB SWAP4 DUP5 AND SWAP4 PUSH4 0xECA36917 SWAP4 PUSH2 0x1804 SWAP4 SWAP1 DUP3 AND SWAP3 SWAP2 AND SWAP1 CALLER SWAP1 DUP12 SWAP1 PUSH1 0x4 ADD PUSH2 0x1D3A JUMP JUMPDEST PUSH1 0x20 PUSH1 0x40 MLOAD DUP1 DUP4 SUB DUP2 PUSH1 0x0 DUP8 GAS CALL ISZERO DUP1 ISZERO PUSH2 0x1823 JUMPI RETURNDATASIZE PUSH1 0x0 DUP1 RETURNDATACOPY RETURNDATASIZE PUSH1 0x0 REVERT JUMPDEST POP POP POP POP PUSH1 0x40 MLOAD RETURNDATASIZE PUSH1 0x1F NOT PUSH1 0x1F DUP3 ADD AND DUP3 ADD DUP1 PUSH1 0x40 MSTORE POP DUP2 ADD SWAP1 PUSH2 0x1847 SWAP2 SWAP1 PUSH2 0x19AC JUMP JUMPDEST PUSH1 0x40 MLOAD PUSH1 0x7 DUP3 SWAP1 SIGNEXTEND DUP2 MSTORE SWAP1 SWAP2 POP PUSH32 0xDBA6742B403F91BA4BDAC157A4315CA9E09412EA4375F6EBBD570C7676C11F47 SWAP1 PUSH1 0x20 ADD PUSH1 0x40 MLOAD DUP1 SWAP2 SUB SWAP1 LOG1 PUSH1 0x7 DUP2 SWAP1 SIGNEXTEND PUSH1 0x16 EQ PUSH2 0x18E2 JUMPI PUSH1 0x40 DUP1 MLOAD PUSH4 0x16146C1 PUSH1 0xE6 SHL DUP2 MSTORE PUSH1 0x4 DUP2 ADD SWAP2 SWAP1 SWAP2 MSTORE PUSH1 0x1B PUSH1 0x44 DUP3 ADD MSTORE PUSH32 0x4C594E58207472616E736665722066726F6D2074726561737572790000000000 PUSH1 0x64 DUP3 ADD MSTORE PUSH1 0x7 DUP3 SWAP1 SIGNEXTEND PUSH1 0x24 DUP3 ADD MSTORE PUSH1 0x84 ADD PUSH2 0xDD3 JUMP JUMPDEST PUSH1 0x40 MLOAD DUP7 DUP2 MSTORE CALLER SWAP1 PUSH32 0x465927A4840D7C7D6AA087BB368FE25BED2F96A7DE450603903E0331DEC0DBB5 SWAP1 PUSH1 0x20 ADD PUSH1 0x40 MLOAD DUP1 SWAP2 SUB SWAP1 LOG2 POP POP POP POP POP POP JUMP JUMPDEST PUSH1 0x0 PUSH1 0x20 DUP3 DUP5 SUB SLT ISZERO PUSH2 0x1931 JUMPI PUSH1 0x0 DUP1 REVERT JUMPDEST POP CALLDATALOAD SWAP2 SWAP1 POP JUMP JUMPDEST PUSH1 0x0 DUP1 PUSH1 0x0 DUP1 PUSH1 0x0 DUP1 PUSH1 0xC0 DUP8 DUP10 SUB SLT ISZERO PUSH2 0x1951 JUMPI PUSH1 0x0 DUP1 REVERT JUMPDEST POP POP DUP5 CALLDATALOAD SWAP7 PUSH1 0x20 DUP7 ADD CALLDATALOAD SWAP7 POP PUSH1 0x40 DUP7 ADD CALLDATALOAD SWAP6 PUSH1 0x60 DUP2 ADD CALLDATALOAD SWAP6 POP PUSH1 0x80 DUP2 ADD CALLDATALOAD SWAP5 POP PUSH1 0xA0 ADD CALLDATALOAD SWAP3 POP SWAP1 POP JUMP JUMPDEST PUSH1 0x1 PUSH1 0x1 PUSH1 0xA0 SHL SUB SWAP3 DUP4 AND DUP2 MSTORE SWAP2 AND PUSH1 0x20 DUP3 ADD MSTORE PUSH1 0x40 ADD SWAP1 JUMP JUMPDEST DUP1 MLOAD PUSH1 0x7 DUP2 SWAP1 SIGNEXTEND DUP2 EQ PUSH2 0x19A7 JUMPI PUSH1 0x0 DUP1 REVERT JUMPDEST SWAP2 SWAP1 POP JUMP JUMPDEST PUSH1 0x0 PUSH1 0x20 DUP3 DUP5 SUB SLT ISZERO PUSH2 0x19BE JUMPI PUSH1 0x0 DUP1 REVERT JUMPDEST PUSH2 0x19C7 DUP3 PUSH2 0x1995 JUMP JUMPDEST SWAP4 SWAP3 POP POP POP JUMP JUMPDEST PUSH1 0x1 PUSH1 0x1 PUSH1 0xA0 SHL SUB SWAP3 SWAP1 SWAP3 AND DUP3 MSTORE PUSH1 0x7 SIGNEXTEND PUSH1 0x20 DUP3 ADD MSTORE PUSH1 0x40 ADD SWAP1 JUMP JUMPDEST PUSH1 0x0 DUP1 PUSH1 0x40 DUP4 DUP6 SUB SLT ISZERO PUSH2 0x19FD JUMPI PUSH1 0x0 DUP1 REVERT JUMPDEST PUSH2 0x1A06 DUP4 PUSH2 0x1995 JUMP JUMPDEST SWAP2 POP PUSH1 0x20 DUP4 ADD MLOAD DUP1 ISZERO ISZERO DUP2 EQ PUSH2 0x1A1B JUMPI PUSH1 0x0 DUP1 REVERT JUMPDEST DUP1 SWAP2 POP POP SWAP3 POP SWAP3 SWAP1 POP JUMP JUMPDEST PUSH4 0x4E487B71 PUSH1 0xE0 SHL PUSH1 0x0 MSTORE PUSH1 0x11 PUSH1 0x4 MSTORE PUSH1 0x24 PUSH1 0x0 REVERT JUMPDEST DUP1 DUP3 MUL DUP2 ISZERO DUP3 DUP3 DIV DUP5 EQ OR PUSH2 0x1A53 JUMPI PUSH2 0x1A53 PUSH2 0x1A26 JUMP JUMPDEST SWAP3 SWAP2 POP POP JUMP JUMPDEST PUSH1 0x0 DUP3 PUSH2 0x1A76 JUMPI PUSH4 0x4E487B71 PUSH1 0xE0 SHL PUSH1 0x0 MSTORE PUSH1 0x12 PUSH1 0x4 MSTORE PUSH1 0x24 PUSH1 0x0 REVERT JUMPDEST POP DIV SWAP1 JUMP JUMPDEST PUSH1 0x1 DUP2 DUP2 JUMPDEST DUP1 DUP6 GT ISZERO PUSH2 0x1AB6 JUMPI DUP2 PUSH1 0x0 NOT DIV DUP3 GT ISZERO PUSH2 0x1A9C JUMPI PUSH2 0x1A9C PUSH2 0x1A26 JUMP JUMPDEST DUP1 DUP6 AND ISZERO PUSH2 0x1AA9 JUMPI SWAP2 DUP2 MUL SWAP2 JUMPDEST SWAP4 DUP5 SHR SWAP4 SWAP1 DUP1 MUL SWAP1 PUSH2 0x1A80 JUMP JUMPDEST POP SWAP3 POP SWAP3 SWAP1 POP JUMP JUMPDEST PUSH1 0x0 DUP3 PUSH2 0x1ACD JUMPI POP PUSH1 0x1 PUSH2 0x1A53 JUMP JUMPDEST DUP2 PUSH2 0x1ADA JUMPI POP PUSH1 0x0 PUSH2 0x1A53 JUMP JUMPDEST DUP2 PUSH1 0x1 DUP2 EQ PUSH2 0x1AF0 JUMPI PUSH1 0x2 DUP2 EQ PUSH2 0x1AFA JUMPI PUSH2 0x1B16 JUMP JUMPDEST PUSH1 0x1 SWAP2 POP POP PUSH2 0x1A53 JUMP JUMPDEST PUSH1 0xFF DUP5 GT ISZERO PUSH2 0x1B0B JUMPI PUSH2 0x1B0B PUSH2 0x1A26 JUMP JUMPDEST POP POP PUSH1 0x1 DUP3 SHL PUSH2 0x1A53 JUMP JUMPDEST POP PUSH1 0x20 DUP4 LT PUSH2 0x133 DUP4 LT AND PUSH1 0x4E DUP5 LT PUSH1 0xB DUP5 LT AND OR ISZERO PUSH2 0x1B39 JUMPI POP DUP2 DUP2 EXP PUSH2 0x1A53 JUMP JUMPDEST PUSH2 0x1B43 DUP4 DUP4 PUSH2 0x1A7B JUMP JUMPDEST DUP1 PUSH1 0x0 NOT DIV DUP3 GT ISZERO PUSH2 0x1B57 JUMPI PUSH2 0x1B57 PUSH2 0x1A26 JUMP JUMPDEST MUL SWAP4 SWAP3 POP POP POP JUMP JUMPDEST PUSH1 0x0 PUSH2 0x19C7 PUSH1 0xFF DUP5 AND DUP4 PUSH2 0x1ABE JUMP JUMPDEST PUSH1 0x20 DUP2 MSTORE PUSH1 0x0 PUSH2 0x1A53 PUSH1 0x20 DUP4 ADD PUSH1 0x4 DUP2 MSTORE PUSH4 0x57425443 PUSH1 0xE0 SHL PUSH1 0x20 DUP3 ADD MSTORE PUSH1 0x40 ADD SWAP1 JUMP JUMPDEST PUSH1 0x20 DUP2 MSTORE PUSH1 0x0 PUSH2 0x1A53 PUSH1 0x20 DUP4 ADD PUSH1 0x5 DUP2 MSTORE PUSH5 0x5341554345 PUSH1 0xD8 SHL PUSH1 0x20 DUP3 ADD MSTORE PUSH1 0x40 ADD SWAP1 JUMP JUMPDEST PUSH1 0x20 DUP2 MSTORE PUSH1 0x0 PUSH2 0x1A53 PUSH1 0x20 DUP4 ADD PUSH1 0x4 DUP2 MSTORE PUSH4 0x55534443 PUSH1 0xE0 SHL PUSH1 0x20 DUP3 ADD MSTORE PUSH1 0x40 ADD SWAP1 JUMP JUMPDEST PUSH1 0x20 DUP2 MSTORE PUSH1 0x0 PUSH2 0x1A53 PUSH1 0x20 DUP4 ADD PUSH1 0x3 DUP2 MSTORE PUSH3 0x4A414D PUSH1 0xE8 SHL PUSH1 0x20 DUP3 ADD MSTORE PUSH1 0x40 ADD SWAP1 JUMP JUMPDEST PUSH1 0x20 DUP2 MSTORE PUSH1 0x0 PUSH2 0x1A53 PUSH1 0x20 DUP4 ADD PUSH1 0x9 DUP2 MSTORE PUSH9 0x1211505114D5105495 PUSH1 0xBA SHL PUSH1 0x20 DUP3 ADD MSTORE PUSH1 0x40 ADD SWAP1 JUMP JUMPDEST PUSH1 0x0 DUP1 PUSH1 0x0 DUP1 PUSH1 0x0 DUP1 PUSH1 0xC0 DUP8 DUP10 SUB SLT ISZERO PUSH2 0x1C40 JUMPI PUSH1 0x0 DUP1 REVERT JUMPDEST DUP7 MLOAD SWAP6 POP PUSH1 0x20 DUP8 ADD MLOAD SWAP5 POP PUSH1 0x40 DUP8 ADD MLOAD SWAP4 POP PUSH1 0x60 DUP8 ADD MLOAD SWAP3 POP PUSH1 0x80 DUP8 ADD MLOAD SWAP2 POP PUSH1 0xA0 DUP8 ADD MLOAD SWAP1 POP SWAP3 SWAP6 POP SWAP3 SWAP6 POP SWAP3 SWAP6 JUMP JUMPDEST PUSH1 0x60 DUP2 MSTORE PUSH1 0x0 PUSH2 0x1C95 PUSH1 0x60 DUP4 ADD PUSH1 0x4 DUP2 MSTORE PUSH4 0x57425443 PUSH1 0xE0 SHL PUSH1 0x20 DUP3 ADD MSTORE PUSH1 0x40 ADD SWAP1 JUMP JUMPDEST PUSH1 0x20 DUP4 ADD SWAP5 SWAP1 SWAP5 MSTORE POP PUSH1 0x40 ADD MSTORE SWAP1 JUMP JUMPDEST PUSH1 0x60 DUP2 MSTORE PUSH1 0x0 PUSH2 0x1C95 PUSH1 0x60 DUP4 ADD PUSH1 0x5 DUP2 MSTORE PUSH5 0x5341554345 PUSH1 0xD8 SHL PUSH1 0x20 DUP3 ADD MSTORE PUSH1 0x40 ADD SWAP1 JUMP JUMPDEST PUSH1 0x60 DUP2 MSTORE PUSH1 0x0 PUSH2 0x1C95 PUSH1 0x60 DUP4 ADD PUSH1 0x4 DUP2 MSTORE PUSH4 0x55534443 PUSH1 0xE0 SHL PUSH1 0x20 DUP3 ADD MSTORE PUSH1 0x40 ADD SWAP1 JUMP JUMPDEST PUSH1 0x60 DUP2 MSTORE PUSH1 0x0 PUSH2 0x1C95 PUSH1 0x60 DUP4 ADD PUSH1 0x3 DUP2 MSTORE PUSH3 0x4A414D PUSH1 0xE8 SHL PUSH1 0x20 DUP3 ADD MSTORE PUSH1 0x40 ADD SWAP1 JUMP JUMPDEST PUSH1 0x60 DUP2 MSTORE PUSH1 0x0 PUSH2 0x1C95 PUSH1 0x60 DUP4 ADD PUSH1 0x9 DUP2 MSTORE PUSH9 0x1211505114D5105495 PUSH1 0xBA SHL PUSH1 0x20 DUP3 ADD MSTORE PUSH1 0x40 ADD SWAP1 JUMP JUMPDEST PUSH1 0x1 PUSH1 0x1 PUSH1 0xA0 SHL SUB SWAP5 DUP6 AND DUP2 MSTORE SWAP3 DUP5 AND PUSH1 0x20 DUP5 ADD MSTORE SWAP3 AND PUSH1 0x40 DUP3 ADD MSTORE PUSH1 0x7 SWAP2 SWAP1 SWAP2 SIGNEXTEND PUSH1 0x60 DUP3 ADD MSTORE PUSH1 0x80 ADD SWAP1 JUMP JUMPDEST PUSH1 0x0 PUSH1 0x1 DUP3 ADD PUSH2 0x1D79 JUMPI PUSH2 0x1D79 PUSH2 0x1A26 JUMP JUMPDEST POP PUSH1 0x1 ADD SWAP1 JUMP JUMPDEST PUSH4 0x4E487B71 PUSH1 0xE0 SHL PUSH1 0x0 MSTORE PUSH1 0x41 PUSH1 0x4 MSTORE PUSH1 0x24 PUSH1 0x0 REVERT JUMPDEST PUSH1 0x0 PUSH1 0x60 DUP3 ADD PUSH1 0x1 DUP1 PUSH1 0xA0 SHL SUB DUP7 AND DUP4 MSTORE PUSH1 0x20 DUP6 PUSH1 0x7 SIGNEXTEND DUP2 DUP6 ADD MSTORE PUSH1 0x60 PUSH1 0x40 DUP6 ADD MSTORE DUP2 DUP6 MLOAD DUP1 DUP5 MSTORE PUSH1 0x80 DUP7 ADD SWAP2 POP PUSH1 0x80 DUP2 PUSH1 0x5 SHL DUP8 ADD ADD SWAP4 POP DUP3 DUP8 ADD PUSH1 0x0 DUP1 JUMPDEST DUP4 DUP2 LT ISZERO PUSH2 0x1E32 JUMPI DUP9 DUP8 SUB PUSH1 0x7F NOT ADD DUP6 MSTORE DUP3 MLOAD DUP1 MLOAD DUP1 DUP10 MSTORE DUP4 JUMPDEST DUP2 DUP2 LT ISZERO PUSH2 0x1E0B JUMPI DUP3 DUP2 ADD DUP10 ADD MLOAD DUP11 DUP3 ADD DUP11 ADD MSTORE DUP9 ADD PUSH2 0x1DF0 JUMP JUMPDEST POP DUP9 DUP2 ADD DUP9 ADD DUP5 SWAP1 MSTORE PUSH1 0x1F ADD PUSH1 0x1F NOT AND SWAP1 SWAP8 ADD DUP7 ADD SWAP7 POP SWAP4 DUP6 ADD SWAP4 SWAP2 DUP6 ADD SWAP2 PUSH1 0x1 ADD PUSH2 0x1DD6 JUMP JUMPDEST POP SWAP5 SWAP11 SWAP10 POP POP POP POP POP POP POP POP POP POP JUMP JUMPDEST PUSH1 0x0 DUP1 PUSH1 0x0 PUSH1 0x60 DUP5 DUP7 SUB SLT ISZERO PUSH2 0x1E57 JUMPI PUSH1 0x0 DUP1 REVERT JUMPDEST PUSH2 0x1E60 DUP5 PUSH2 0x1995 JUMP JUMPDEST SWAP3 POP PUSH1 0x20 PUSH2 0x1E6F DUP2 DUP7 ADD PUSH2 0x1995 JUMP JUMPDEST SWAP3 POP PUSH1 0x40 DUP6 ADD MLOAD PUSH8 0xFFFFFFFFFFFFFFFF DUP1 DUP3 GT ISZERO PUSH2 0x1E8C JUMPI PUSH1 0x0 DUP1 REVERT JUMPDEST DUP2 DUP8 ADD SWAP2 POP DUP8 PUSH1 0x1F DUP4 ADD SLT PUSH2 0x1EA0 JUMPI PUSH1 0x0 DUP1 REVERT JUMPDEST DUP2 MLOAD DUP2 DUP2 GT ISZERO PUSH2 0x1EB2 JUMPI PUSH2 0x1EB2 PUSH2 0x1D80 JUMP JUMPDEST DUP1 PUSH1 0x5 SHL PUSH1 0x40 MLOAD PUSH1 0x1F NOT PUSH1 0x3F DUP4 ADD AND DUP2 ADD DUP2 DUP2 LT DUP6 DUP3 GT OR ISZERO PUSH2 0x1ED7 JUMPI PUSH2 0x1ED7 PUSH2 0x1D80 JUMP JUMPDEST PUSH1 0x40 MSTORE SWAP2 DUP3 MSTORE DUP5 DUP3 ADD SWAP3 POP DUP4 DUP2 ADD DUP6 ADD SWAP2 DUP11 DUP4 GT ISZERO PUSH2 0x1EF5 JUMPI PUSH1 0x0 DUP1 REVERT JUMPDEST SWAP4 DUP6 ADD SWAP4 JUMPDEST DUP3 DUP6 LT ISZERO PUSH2 0x1F1A JUMPI PUSH2 0x1F0B DUP6 PUSH2 0x1995 JUMP JUMPDEST DUP5 MSTORE SWAP4 DUP6 ADD SWAP4 SWAP3 DUP6 ADD SWAP3 PUSH2 0x1EFA JUMP JUMPDEST DUP1 SWAP7 POP POP POP POP POP POP POP SWAP3 POP SWAP3 POP SWAP3 JUMP INVALID PUSH13 0x452A6A0F6C8613BD46D4BD9A61 SWAP3 0xB0 SWAP1 0x4A EXTCODEHASH CALLER 0xA6 0x4C 0x29 0x4B 0xA5 MSTORE8 PC 0x25 MUL 0xDF 0xD7 PUSH17 0xA26469706673582212207ED079E6B8B3FF PUSH23 0x8E04A0E12F04AA88485C74BC42E24007B12B10F362EBB2 TIMESTAMP PUSH5 0x736F6C6343 STOP ADDMOD SGT STOP CALLER "},"methodIdentifiers":{"ADMIN()":"2a0acc6a","HBAR_RATIO()":"4924190c","HEADSTART_DECIMALS()":"4234e0ed","HEADSTART_RATIO()":"e9142b2e","HEADSTART_TOKEN()":"84b1349e","JAM_DECIMALS()":"ff434887","JAM_RATIO()":"a1c6a7af","JAM_TOKEN()":"e40d79a0","LYNX_DECIMALS()":"5ea4a9fd","LYNX_TOKEN()":"e1e99576","SAUCE_DECIMALS()":"de97b29f","SAUCE_RATIO()":"ef037593","SAUCE_TOKEN()":"1ec65c36","TREASURY()":"2d2c5565","USDC_DECIMALS()":"c1419def","USDC_RATIO()":"8f8f6c01","USDC_TOKEN()":"fa569274","WBTC_DECIMALS()":"462ef0fa","WBTC_RATIO()":"1bf5ae0c","WBTC_TOKEN()":"2ed41384","associateTokens()":"10ca0bce","calculateRequiredDeposits(uint256)":"8f9f8b01","checkAssociations()":"5af91dab","emergencyWithdrawHbar(uint256)":"d65db297","getHbarBalance()":"7bd82c69","mintWithDeposits(uint256,uint256,uint256,uint256,uint256,uint256)":"b158d32b"}}}}}