{"contracts/index-token/IndexVault.sol":{"IndexVault":{"abi":[{"inputs":[{"internalType":"address","name":"_controller","type":"address"},{"internalType":"address","name":"_htsAddress","type":"address"}],"stateMutability":"nonpayable","type":"constructor"},{"inputs":[{"internalType":"address","name":"token","type":"address"},{"internalType":"uint256","name":"required","type":"uint256"},{"internalType":"uint256","name":"actual","type":"uint256"}],"name":"InsufficientDeposit","type":"error"},{"inputs":[],"name":"InvalidComposition","type":"error"},{"inputs":[],"name":"OnlyAdmin","type":"error"},{"inputs":[],"name":"OnlyController","type":"error"},{"inputs":[{"internalType":"address","name":"token","type":"address"},{"internalType":"address","name":"account","type":"address"}],"name":"TokenNotAssociated","type":"error"},{"inputs":[{"internalType":"address","name":"token","type":"address"},{"internalType":"int64","name":"responseCode","type":"int64"}],"name":"TransferFailed","type":"error"},{"anonymous":false,"inputs":[{"components":[{"internalType":"address","name":"token","type":"address"},{"internalType":"uint16","name":"weight","type":"uint16"}],"indexed":false,"internalType":"struct IndexVault.Asset[]","name":"composition","type":"tuple[]"}],"name":"CompositionUpdated","type":"event"},{"anonymous":false,"inputs":[{"indexed":true,"internalType":"address","name":"user","type":"address"},{"indexed":true,"internalType":"address","name":"token","type":"address"},{"indexed":false,"internalType":"uint256","name":"amount","type":"uint256"}],"name":"DepositReceived","type":"event"},{"anonymous":false,"inputs":[{"indexed":true,"internalType":"address","name":"tokenAddress","type":"address"}],"name":"IndexTokenSet","type":"event"},{"anonymous":false,"inputs":[{"indexed":true,"internalType":"address","name":"user","type":"address"},{"indexed":false,"internalType":"uint256","name":"amount","type":"uint256"}],"name":"TokensDistributed","type":"event"},{"inputs":[],"name":"admin","outputs":[{"internalType":"address","name":"","type":"address"}],"stateMutability":"view","type":"function"},{"inputs":[{"internalType":"uint256","name":"amount","type":"uint256"}],"name":"calculateRequiredDeposits","outputs":[{"internalType":"address[]","name":"tokens","type":"address[]"},{"internalType":"uint256[]","name":"amounts","type":"uint256[]"}],"stateMutability":"view","type":"function"},{"inputs":[{"internalType":"uint256","name":"","type":"uint256"}],"name":"composition","outputs":[{"internalType":"address","name":"token","type":"address"},{"internalType":"uint16","name":"weight","type":"uint16"}],"stateMutability":"view","type":"function"},{"inputs":[],"name":"controller","outputs":[{"internalType":"address","name":"","type":"address"}],"stateMutability":"view","type":"function"},{"inputs":[{"internalType":"address","name":"token","type":"address"},{"internalType":"uint256","name":"amount","type":"uint256"}],"name":"depositAsset","outputs":[],"stateMutability":"nonpayable","type":"function"},{"inputs":[{"internalType":"address","name":"","type":"address"},{"internalType":"address","name":"","type":"address"}],"name":"deposits","outputs":[{"internalType":"uint256","name":"","type":"uint256"}],"stateMutability":"view","type":"function"},{"inputs":[],"name":"getComposition","outputs":[{"components":[{"internalType":"address","name":"token","type":"address"},{"internalType":"uint16","name":"weight","type":"uint16"}],"internalType":"struct IndexVault.Asset[]","name":"","type":"tuple[]"}],"stateMutability":"view","type":"function"},{"inputs":[{"internalType":"address","name":"user","type":"address"},{"internalType":"address","name":"token","type":"address"}],"name":"getDeposit","outputs":[{"internalType":"uint256","name":"","type":"uint256"}],"stateMutability":"view","type":"function"},{"inputs":[],"name":"htsAddress","outputs":[{"internalType":"address","name":"","type":"address"}],"stateMutability":"view","type":"function"},{"inputs":[],"name":"indexToken","outputs":[{"internalType":"address","name":"","type":"address"}],"stateMutability":"view","type":"function"},{"inputs":[{"internalType":"address","name":"user","type":"address"},{"internalType":"uint256","name":"amount","type":"uint256"}],"name":"receiveMint","outputs":[],"stateMutability":"nonpayable","type":"function"},{"inputs":[{"components":[{"internalType":"address","name":"token","type":"address"},{"internalType":"uint16","name":"weight","type":"uint16"}],"internalType":"struct IndexVault.Asset[]","name":"_composition","type":"tuple[]"}],"name":"setComposition","outputs":[],"stateMutability":"nonpayable","type":"function"},{"inputs":[{"internalType":"address","name":"_indexToken","type":"address"}],"name":"setIndexToken","outputs":[],"stateMutability":"nonpayable","type":"function"},{"inputs":[{"internalType":"address","name":"newAdmin","type":"address"}],"name":"updateAdmin","outputs":[],"stateMutability":"nonpayable","type":"function"},{"inputs":[{"internalType":"address","name":"newController","type":"address"}],"name":"updateController","outputs":[],"stateMutability":"nonpayable","type":"function"},{"inputs":[{"internalType":"address","name":"user","type":"address"},{"internalType":"uint256","name":"amount","type":"uint256"}],"name":"validateMint","outputs":[{"internalType":"bool","name":"","type":"bool"}],"stateMutability":"view","type":"function"},{"stateMutability":"payable","type":"receive"}],"evm":{"bytecode":{"linkReferences":{},"object":"608060405234801561001057600080fd5b506040516200184d3803806200184d8339810160408190526100319161009f565b600180546001600160a01b039384166001600160a01b031991821617909155600280548216331790556003805492909316918116821790925560068054831690911790556000805490911690556100d2565b80516001600160a01b038116811461009a57600080fd5b919050565b600080604083850312156100b257600080fd5b6100bb83610083565b91506100c960208401610083565b90509250929050565b61176b80620000e26000396000f3fe6080604052600436106100f75760003560e01c8063b9d527c61161008a578063e7d015f211610059578063e7d015f21461031c578063f66be67314610354578063f77c479114610374578063f851a4401461039457600080fd5b8063b9d527c614610244578063c35082a914610274578063d58f0263146102ba578063e2f273bd146102fc57600080fd5b8063746b9345116100c6578063746b9345146101905780638f601f66146101b05780638f9f8b01146101f6578063b82a35c51461022457600080fd5b806306cb5b661461010357806308d721021461012557806346a5d043146101505780634c8810731461017057600080fd5b366100fe57005b600080fd5b34801561010f57600080fd5b5061012361011e366004611328565b6103b4565b005b34801561013157600080fd5b5061013a610430565b604051610147919061134c565b60405180910390f35b34801561015c57600080fd5b5061012361016b3660046113a8565b6104a7565b34801561017c57600080fd5b5061012361018b3660046113d4565b610784565b34801561019c57600080fd5b506101236101ab3660046113a8565b610a9f565b3480156101bc57600080fd5b506101e86101cb366004611449565b600560209081526000928352604080842090915290825290205481565b604051908152602001610147565b34801561020257600080fd5b50610216610211366004611482565b610e25565b60405161014792919061149b565b34801561023057600080fd5b5061012361023f366004611328565b610f9b565b34801561025057600080fd5b5061026461025f3660046113a8565b611142565b6040519015158152602001610147565b34801561028057600080fd5b506101e861028f366004611449565b6001600160a01b03918216600090815260056020908152604080832093909416825291909152205490565b3480156102c657600080fd5b506102da6102d5366004611482565b611226565b604080516001600160a01b03909316835261ffff909116602083015201610147565b34801561030857600080fd5b50610123610317366004611328565b61125c565b34801561032857600080fd5b5060005461033c906001600160a01b031681565b6040516001600160a01b039091168152602001610147565b34801561036057600080fd5b5060035461033c906001600160a01b031681565b34801561038057600080fd5b5060015461033c906001600160a01b031681565b3480156103a057600080fd5b5060025461033c906001600160a01b031681565b6002546001600160a01b031633146103df57604051634755657960e01b815260040160405180910390fd5b6001600160a01b03811661040e5760405162461bcd60e51b81526004016104059061151f565b60405180910390fd5b600180546001600160a01b0319166001600160a01b0392909216919091179055565b60606004805480602002602001604051908101604052809291908181526020016000905b8282101561049e57600084815260209081902060408051808201909152908401546001600160a01b0381168252600160a01b900461ffff1681830152825260019092019101610454565b50505050905090565b600081116104f75760405162461bcd60e51b815260206004820181905260248201527f416d6f756e74206d7573742062652067726561746572207468616e207a65726f6044820152606401610405565b6000805b60045481101561055757836001600160a01b03166004828154811061052257610522611556565b6000918252602090912001546001600160a01b0316036105455760019150610557565b8061054f81611582565b9150506104fb565b50806105a55760405162461bcd60e51b815260206004820152601d60248201527f546f6b656e206e6f742070617274206f6620636f6d706f736974696f6e0000006044820152606401610405565b600654604051631c97fa2960e21b81523060048201526001600160a01b0385811660248301529091169063725fe8a490604401602060405180830381865afa1580156105f5573d6000803e3d6000fd5b505050506040513d601f19601f82011682018060405250810190610619919061159b565b61064757604051632460bcbb60e21b81526001600160a01b0384166004820152306024820152604401610405565b600654604051632c54de4f60e01b81526001600160a01b038581166004830152336024830152306044830152606482018590526000921690632c54de4f906084016020604051808303816000875af11580156106a7573d6000803e3d6000fd5b505050506040513d601f19601f820116820180604052508101906106cb91906115bd565b90508060070b60001461070657604051630b3bb03f60e01b81526001600160a01b0385166004820152600782900b6024820152604401610405565b3360009081526005602090815260408083206001600160a01b0388168452909152812080548592906107399084906115e0565b90915550506040518381526001600160a01b0385169033907f54ef209e319f7d023f4f2c1d4b427c3844f7ef008d20a2104b1f20cb533a7fbf9060200160405180910390a350505050565b6002546001600160a01b031633146107af57604051634755657960e01b815260040160405180910390fd5b6000805b828110156109c9578383828181106107cd576107cd611556565b90506040020160200160208101906107e59190611603565b6107f39061ffff16836115e0565b6006549092506001600160a01b031663725fe8a43086868581811061081a5761081a611556565b6108309260206040909202019081019150611328565b6040516001600160e01b031960e085901b1681526001600160a01b03928316600482015291166024820152604401602060405180830381865afa15801561087b573d6000803e3d6000fd5b505050506040513d601f19601f8201168201806040525081019061089f919061159b565b6109b7576006546000906001600160a01b03166349146bde308787868181106108ca576108ca611556565b6108e09260206040909202019081019150611328565b6040516001600160e01b031960e085901b1681526001600160a01b039283166004820152911660248201526044016020604051808303816000875af115801561092d573d6000803e3d6000fd5b505050506040513d601f19601f8201168201806040525081019061095191906115bd565b90508060070b6000146109b55784848381811061097057610970611556565b6109869260206040909202019081019150611328565b604051630b3bb03f60e01b81526001600160a01b039091166004820152600782900b6024820152604401610405565b505b806109c181611582565b9150506107b3565b5080612710146109ec57604051639d811b9960e01b815260040160405180910390fd5b60045415610a0057610a00600460006112cf565b60005b82811015610a60576004848483818110610a1f57610a1f611556565b83546001810185556000948552602090942060409091029290920192919091019050610a4b8282611620565b50508080610a5890611582565b915050610a03565b507f5a47f63b43dc044e0b2dad1e54f67ffb24bf1d3328c812a029f66486c66e86708383604051610a9292919061167a565b60405180910390a1505050565b6001546001600160a01b03163314610aca57604051635990781360e01b815260040160405180910390fd5b6000546001600160a01b0316610b185760405162461bcd60e51b8152602060048201526013602482015272125b99195e081d1bdad95b881b9bdd081cd95d606a1b6044820152606401610405565b60005b600454811015610c6857600060048281548110610b3a57610b3a611556565b60009182526020808320604080518082019091529201546001600160a01b0381168352600160a01b900461ffff1690820181905290925061271090610b7f90866116d3565b610b8991906116ea565b6001600160a01b038087166000908152600560209081526040808320875190941683529290522054909150811115610c135781516001600160a01b03868116600090815260056020908152604080832087518516845290915290819020549051632fc28c5360e01b8152919092166004820152602481018390526044810191909152606401610405565b6001600160a01b038086166000908152600560209081526040808320865190941683529290529081208054839290610c4c90849061170c565b9250508190555050508080610c6090611582565b915050610b1b565b50600654600054604051631c97fa2960e21b81526001600160a01b038581166004830152918216602482015291169063725fe8a490604401602060405180830381865afa158015610cbd573d6000803e3d6000fd5b505050506040513d601f19601f82011682018060405250810190610ce1919061159b565b610d1557600054604051632460bcbb60e21b81526001600160a01b0391821660048201529083166024820152604401610405565b60065460008054604051632c54de4f60e01b81526001600160a01b03918216600482015230602482015285821660448201526064810185905291921690632c54de4f906084016020604051808303816000875af1158015610d7a573d6000803e3d6000fd5b505050506040513d601f19601f82011682018060405250810190610d9e91906115bd565b90508060070b600014610ddd57600054604051630b3bb03f60e01b81526001600160a01b039091166004820152600782900b6024820152604401610405565b826001600160a01b03167f16b0da2ffcb90c6723317bd637d9aad7f04711f42bbe0ac0918ebe10f1f9001c83604051610e1891815260200190565b60405180910390a2505050565b600454606090819067ffffffffffffffff811115610e4557610e4561171f565b604051908082528060200260200182016040528015610e6e578160200160208202803683370190505b5060045490925067ffffffffffffffff811115610e8d57610e8d61171f565b604051908082528060200260200182016040528015610eb6578160200160208202803683370190505b50905060005b600454811015610f955760048181548110610ed957610ed9611556565b60009182526020909120015483516001600160a01b0390911690849083908110610f0557610f05611556565b60200260200101906001600160a01b031690816001600160a01b03168152505061271060048281548110610f3b57610f3b611556565b600091825260209091200154610f5c90600160a01b900461ffff16866116d3565b610f6691906116ea565b828281518110610f7857610f78611556565b602090810291909101015280610f8d81611582565b915050610ebc565b50915091565b6001546001600160a01b03163314610fc657604051635990781360e01b815260040160405180910390fd5b6000546001600160a01b03161561101f5760405162461bcd60e51b815260206004820152601760248201527f496e64657820746f6b656e20616c7265616479207365740000000000000000006044820152606401610405565b6001600160a01b0381166110455760405162461bcd60e51b81526004016104059061151f565b600080546001600160a01b0319166001600160a01b03838116918217835560065460405163248a35ef60e11b8152306004820152602481019390935216906349146bde906044016020604051808303816000875af11580156110ab573d6000803e3d6000fd5b505050506040513d601f19601f820116820180604052508101906110cf91906115bd565b90508060070b60001461110a57604051630b3bb03f60e01b81526001600160a01b0383166004820152600782900b6024820152604401610405565b6040516001600160a01b038316907f40cdac5625b9528b38b786c9b74c257c1de10eac74b82c0ebc45a652cd8bcf6390600090a25050565b600454600090810361115657506000611220565b60005b60045481101561121a5760006004828154811061117857611178611556565b60009182526020808320604080518082019091529201546001600160a01b0381168352600160a01b900461ffff16908201819052909250612710906111bd90876116d3565b6111c791906116ea565b6001600160a01b0380881660009081526005602090815260408083208751909416835292905220549091508111156112055760009350505050611220565b5050808061121290611582565b915050611159565b50600190505b92915050565b6004818154811061123657600080fd5b6000918252602090912001546001600160a01b0381169150600160a01b900461ffff1682565b6002546001600160a01b0316331461128757604051634755657960e01b815260040160405180910390fd5b6001600160a01b0381166112ad5760405162461bcd60e51b81526004016104059061151f565b600280546001600160a01b0319166001600160a01b0392909216919091179055565b50805460008255906000526020600020908101906112ed91906112f0565b50565b5b8082111561130f5780546001600160b01b03191681556001016112f1565b5090565b6001600160a01b03811681146112ed57600080fd5b60006020828403121561133a57600080fd5b813561134581611313565b9392505050565b602080825282518282018190526000919060409081850190868401855b8281101561139b57815180516001600160a01b0316855286015161ffff16868501529284019290850190600101611369565b5091979650505050505050565b600080604083850312156113bb57600080fd5b82356113c681611313565b946020939093013593505050565b600080602083850312156113e757600080fd5b823567ffffffffffffffff808211156113ff57600080fd5b818501915085601f83011261141357600080fd5b81358181111561142257600080fd5b8660208260061b850101111561143757600080fd5b60209290920196919550909350505050565b6000806040838503121561145c57600080fd5b823561146781611313565b9150602083013561147781611313565b809150509250929050565b60006020828403121561149457600080fd5b5035919050565b604080825283519082018190526000906020906060840190828701845b828110156114dd5781516001600160a01b0316845292840192908401906001016114b8565b5050508381038285015284518082528583019183019060005b81811015611512578351835292840192918401916001016114f6565b5090979650505050505050565b6020808252601a908201527f43616e6e6f742073657420746f207a65726f2061646472657373000000000000604082015260600190565b634e487b7160e01b600052603260045260246000fd5b634e487b7160e01b600052601160045260246000fd5b6000600182016115945761159461156c565b5060010190565b6000602082840312156115ad57600080fd5b8151801515811461134557600080fd5b6000602082840312156115cf57600080fd5b81518060070b811461134557600080fd5b808201808211156112205761122061156c565b61ffff811681146112ed57600080fd5b60006020828403121561161557600080fd5b8135611345816115f3565b813561162b81611313565b81546001600160a01b031981166001600160a01b039290921691821783556020840135611657816115f3565b6001600160b01b03199190911690911760a09190911b61ffff60a01b1617905550565b6020808252818101839052600090604080840186845b878110156115125781356116a381611313565b6001600160a01b03168352818501356116bb816115f3565b61ffff16838601529183019190830190600101611690565b80820281158282048414176112205761122061156c565b60008261170757634e487b7160e01b600052601260045260246000fd5b500490565b818103818111156112205761122061156c565b634e487b7160e01b600052604160045260246000fdfea2646970667358221220d9360c6df013f585f773ab8fea6d4c3d671b3a44e0f9d5a3c76321ef15b3386164736f6c63430008130033","opcodes":"PUSH1 0x80 PUSH1 0x40 MSTORE CALLVALUE DUP1 ISZERO PUSH2 0x10 JUMPI PUSH1 0x0 DUP1 REVERT JUMPDEST POP PUSH1 0x40 MLOAD PUSH3 0x184D CODESIZE SUB DUP1 PUSH3 0x184D DUP4 CODECOPY DUP2 ADD PUSH1 0x40 DUP2 SWAP1 MSTORE PUSH2 0x31 SWAP2 PUSH2 0x9F JUMP JUMPDEST PUSH1 0x1 DUP1 SLOAD PUSH1 0x1 PUSH1 0x1 PUSH1 0xA0 SHL SUB SWAP4 DUP5 AND PUSH1 0x1 PUSH1 0x1 PUSH1 0xA0 SHL SUB NOT SWAP2 DUP3 AND OR SWAP1 SWAP2 SSTORE PUSH1 0x2 DUP1 SLOAD DUP3 AND CALLER OR SWAP1 SSTORE PUSH1 0x3 DUP1 SLOAD SWAP3 SWAP1 SWAP4 AND SWAP2 DUP2 AND DUP3 OR SWAP1 SWAP3 SSTORE PUSH1 0x6 DUP1 SLOAD DUP4 AND SWAP1 SWAP2 OR SWAP1 SSTORE PUSH1 0x0 DUP1 SLOAD SWAP1 SWAP2 AND SWAP1 SSTORE PUSH2 0xD2 JUMP JUMPDEST DUP1 MLOAD PUSH1 0x1 PUSH1 0x1 PUSH1 0xA0 SHL SUB DUP2 AND DUP2 EQ PUSH2 0x9A JUMPI PUSH1 0x0 DUP1 REVERT JUMPDEST SWAP2 SWAP1 POP JUMP JUMPDEST PUSH1 0x0 DUP1 PUSH1 0x40 DUP4 DUP6 SUB SLT ISZERO PUSH2 0xB2 JUMPI PUSH1 0x0 DUP1 REVERT JUMPDEST PUSH2 0xBB DUP4 PUSH2 0x83 JUMP JUMPDEST SWAP2 POP PUSH2 0xC9 PUSH1 0x20 DUP5 ADD PUSH2 0x83 JUMP JUMPDEST SWAP1 POP SWAP3 POP SWAP3 SWAP1 POP JUMP JUMPDEST PUSH2 0x176B DUP1 PUSH3 0xE2 PUSH1 0x0 CODECOPY PUSH1 0x0 RETURN INVALID PUSH1 0x80 PUSH1 0x40 MSTORE PUSH1 0x4 CALLDATASIZE LT PUSH2 0xF7 JUMPI PUSH1 0x0 CALLDATALOAD PUSH1 0xE0 SHR DUP1 PUSH4 0xB9D527C6 GT PUSH2 0x8A JUMPI DUP1 PUSH4 0xE7D015F2 GT PUSH2 0x59 JUMPI DUP1 PUSH4 0xE7D015F2 EQ PUSH2 0x31C JUMPI DUP1 PUSH4 0xF66BE673 EQ PUSH2 0x354 JUMPI DUP1 PUSH4 0xF77C4791 EQ PUSH2 0x374 JUMPI DUP1 PUSH4 0xF851A440 EQ PUSH2 0x394 JUMPI PUSH1 0x0 DUP1 REVERT JUMPDEST DUP1 PUSH4 0xB9D527C6 EQ PUSH2 0x244 JUMPI DUP1 PUSH4 0xC35082A9 EQ PUSH2 0x274 JUMPI DUP1 PUSH4 0xD58F0263 EQ PUSH2 0x2BA JUMPI DUP1 PUSH4 0xE2F273BD EQ PUSH2 0x2FC JUMPI PUSH1 0x0 DUP1 REVERT JUMPDEST DUP1 PUSH4 0x746B9345 GT PUSH2 0xC6 JUMPI DUP1 PUSH4 0x746B9345 EQ PUSH2 0x190 JUMPI DUP1 PUSH4 0x8F601F66 EQ PUSH2 0x1B0 JUMPI DUP1 PUSH4 0x8F9F8B01 EQ PUSH2 0x1F6 JUMPI DUP1 PUSH4 0xB82A35C5 EQ PUSH2 0x224 JUMPI PUSH1 0x0 DUP1 REVERT JUMPDEST DUP1 PUSH4 0x6CB5B66 EQ PUSH2 0x103 JUMPI DUP1 PUSH4 0x8D72102 EQ PUSH2 0x125 JUMPI DUP1 PUSH4 0x46A5D043 EQ PUSH2 0x150 JUMPI DUP1 PUSH4 0x4C881073 EQ PUSH2 0x170 JUMPI PUSH1 0x0 DUP1 REVERT JUMPDEST CALLDATASIZE PUSH2 0xFE JUMPI STOP JUMPDEST PUSH1 0x0 DUP1 REVERT JUMPDEST CALLVALUE DUP1 ISZERO PUSH2 0x10F JUMPI PUSH1 0x0 DUP1 REVERT JUMPDEST POP PUSH2 0x123 PUSH2 0x11E CALLDATASIZE PUSH1 0x4 PUSH2 0x1328 JUMP JUMPDEST PUSH2 0x3B4 JUMP JUMPDEST STOP JUMPDEST CALLVALUE DUP1 ISZERO PUSH2 0x131 JUMPI PUSH1 0x0 DUP1 REVERT JUMPDEST POP PUSH2 0x13A PUSH2 0x430 JUMP JUMPDEST PUSH1 0x40 MLOAD PUSH2 0x147 SWAP2 SWAP1 PUSH2 0x134C JUMP JUMPDEST PUSH1 0x40 MLOAD DUP1 SWAP2 SUB SWAP1 RETURN JUMPDEST CALLVALUE DUP1 ISZERO PUSH2 0x15C JUMPI PUSH1 0x0 DUP1 REVERT JUMPDEST POP PUSH2 0x123 PUSH2 0x16B CALLDATASIZE PUSH1 0x4 PUSH2 0x13A8 JUMP JUMPDEST PUSH2 0x4A7 JUMP JUMPDEST CALLVALUE DUP1 ISZERO PUSH2 0x17C JUMPI PUSH1 0x0 DUP1 REVERT JUMPDEST POP PUSH2 0x123 PUSH2 0x18B CALLDATASIZE PUSH1 0x4 PUSH2 0x13D4 JUMP JUMPDEST PUSH2 0x784 JUMP JUMPDEST CALLVALUE DUP1 ISZERO PUSH2 0x19C JUMPI PUSH1 0x0 DUP1 REVERT JUMPDEST POP PUSH2 0x123 PUSH2 0x1AB CALLDATASIZE PUSH1 0x4 PUSH2 0x13A8 JUMP JUMPDEST PUSH2 0xA9F JUMP JUMPDEST CALLVALUE DUP1 ISZERO PUSH2 0x1BC JUMPI PUSH1 0x0 DUP1 REVERT JUMPDEST POP PUSH2 0x1E8 PUSH2 0x1CB CALLDATASIZE PUSH1 0x4 PUSH2 0x1449 JUMP JUMPDEST PUSH1 0x5 PUSH1 0x20 SWAP1 DUP2 MSTORE PUSH1 0x0 SWAP3 DUP4 MSTORE PUSH1 0x40 DUP1 DUP5 KECCAK256 SWAP1 SWAP2 MSTORE SWAP1 DUP3 MSTORE SWAP1 KECCAK256 SLOAD DUP2 JUMP JUMPDEST PUSH1 0x40 MLOAD SWAP1 DUP2 MSTORE PUSH1 0x20 ADD PUSH2 0x147 JUMP JUMPDEST CALLVALUE DUP1 ISZERO PUSH2 0x202 JUMPI PUSH1 0x0 DUP1 REVERT JUMPDEST POP PUSH2 0x216 PUSH2 0x211 CALLDATASIZE PUSH1 0x4 PUSH2 0x1482 JUMP JUMPDEST PUSH2 0xE25 JUMP JUMPDEST PUSH1 0x40 MLOAD PUSH2 0x147 SWAP3 SWAP2 SWAP1 PUSH2 0x149B JUMP JUMPDEST CALLVALUE DUP1 ISZERO PUSH2 0x230 JUMPI PUSH1 0x0 DUP1 REVERT JUMPDEST POP PUSH2 0x123 PUSH2 0x23F CALLDATASIZE PUSH1 0x4 PUSH2 0x1328 JUMP JUMPDEST PUSH2 0xF9B JUMP JUMPDEST CALLVALUE DUP1 ISZERO PUSH2 0x250 JUMPI PUSH1 0x0 DUP1 REVERT JUMPDEST POP PUSH2 0x264 PUSH2 0x25F CALLDATASIZE PUSH1 0x4 PUSH2 0x13A8 JUMP JUMPDEST PUSH2 0x1142 JUMP JUMPDEST PUSH1 0x40 MLOAD SWAP1 ISZERO ISZERO DUP2 MSTORE PUSH1 0x20 ADD PUSH2 0x147 JUMP JUMPDEST CALLVALUE DUP1 ISZERO PUSH2 0x280 JUMPI PUSH1 0x0 DUP1 REVERT JUMPDEST POP PUSH2 0x1E8 PUSH2 0x28F CALLDATASIZE PUSH1 0x4 PUSH2 0x1449 JUMP JUMPDEST PUSH1 0x1 PUSH1 0x1 PUSH1 0xA0 SHL SUB SWAP2 DUP3 AND PUSH1 0x0 SWAP1 DUP2 MSTORE PUSH1 0x5 PUSH1 0x20 SWAP1 DUP2 MSTORE PUSH1 0x40 DUP1 DUP4 KECCAK256 SWAP4 SWAP1 SWAP5 AND DUP3 MSTORE SWAP2 SWAP1 SWAP2 MSTORE KECCAK256 SLOAD SWAP1 JUMP JUMPDEST CALLVALUE DUP1 ISZERO PUSH2 0x2C6 JUMPI PUSH1 0x0 DUP1 REVERT JUMPDEST POP PUSH2 0x2DA PUSH2 0x2D5 CALLDATASIZE PUSH1 0x4 PUSH2 0x1482 JUMP JUMPDEST PUSH2 0x1226 JUMP JUMPDEST PUSH1 0x40 DUP1 MLOAD PUSH1 0x1 PUSH1 0x1 PUSH1 0xA0 SHL SUB SWAP1 SWAP4 AND DUP4 MSTORE PUSH2 0xFFFF SWAP1 SWAP2 AND PUSH1 0x20 DUP4 ADD MSTORE ADD PUSH2 0x147 JUMP JUMPDEST CALLVALUE DUP1 ISZERO PUSH2 0x308 JUMPI PUSH1 0x0 DUP1 REVERT JUMPDEST POP PUSH2 0x123 PUSH2 0x317 CALLDATASIZE PUSH1 0x4 PUSH2 0x1328 JUMP JUMPDEST PUSH2 0x125C JUMP JUMPDEST CALLVALUE DUP1 ISZERO PUSH2 0x328 JUMPI PUSH1 0x0 DUP1 REVERT JUMPDEST POP PUSH1 0x0 SLOAD PUSH2 0x33C SWAP1 PUSH1 0x1 PUSH1 0x1 PUSH1 0xA0 SHL SUB AND DUP2 JUMP JUMPDEST PUSH1 0x40 MLOAD PUSH1 0x1 PUSH1 0x1 PUSH1 0xA0 SHL SUB SWAP1 SWAP2 AND DUP2 MSTORE PUSH1 0x20 ADD PUSH2 0x147 JUMP JUMPDEST CALLVALUE DUP1 ISZERO PUSH2 0x360 JUMPI PUSH1 0x0 DUP1 REVERT JUMPDEST POP PUSH1 0x3 SLOAD PUSH2 0x33C SWAP1 PUSH1 0x1 PUSH1 0x1 PUSH1 0xA0 SHL SUB AND DUP2 JUMP JUMPDEST CALLVALUE DUP1 ISZERO PUSH2 0x380 JUMPI PUSH1 0x0 DUP1 REVERT JUMPDEST POP PUSH1 0x1 SLOAD PUSH2 0x33C SWAP1 PUSH1 0x1 PUSH1 0x1 PUSH1 0xA0 SHL SUB AND DUP2 JUMP JUMPDEST CALLVALUE DUP1 ISZERO PUSH2 0x3A0 JUMPI PUSH1 0x0 DUP1 REVERT JUMPDEST POP PUSH1 0x2 SLOAD PUSH2 0x33C SWAP1 PUSH1 0x1 PUSH1 0x1 PUSH1 0xA0 SHL SUB AND DUP2 JUMP JUMPDEST PUSH1 0x2 SLOAD PUSH1 0x1 PUSH1 0x1 PUSH1 0xA0 SHL SUB AND CALLER EQ PUSH2 0x3DF JUMPI PUSH1 0x40 MLOAD PUSH4 0x47556579 PUSH1 0xE0 SHL DUP2 MSTORE PUSH1 0x4 ADD PUSH1 0x40 MLOAD DUP1 SWAP2 SUB SWAP1 REVERT JUMPDEST PUSH1 0x1 PUSH1 0x1 PUSH1 0xA0 SHL SUB DUP2 AND PUSH2 0x40E JUMPI PUSH1 0x40 MLOAD PUSH3 0x461BCD PUSH1 0xE5 SHL DUP2 MSTORE PUSH1 0x4 ADD PUSH2 0x405 SWAP1 PUSH2 0x151F JUMP JUMPDEST PUSH1 0x40 MLOAD DUP1 SWAP2 SUB SWAP1 REVERT JUMPDEST PUSH1 0x1 DUP1 SLOAD PUSH1 0x1 PUSH1 0x1 PUSH1 0xA0 SHL SUB NOT AND PUSH1 0x1 PUSH1 0x1 PUSH1 0xA0 SHL SUB SWAP3 SWAP1 SWAP3 AND SWAP2 SWAP1 SWAP2 OR SWAP1 SSTORE JUMP JUMPDEST PUSH1 0x60 PUSH1 0x4 DUP1 SLOAD DUP1 PUSH1 0x20 MUL PUSH1 0x20 ADD PUSH1 0x40 MLOAD SWAP1 DUP2 ADD PUSH1 0x40 MSTORE DUP1 SWAP3 SWAP2 SWAP1 DUP2 DUP2 MSTORE PUSH1 0x20 ADD PUSH1 0x0 SWAP1 JUMPDEST DUP3 DUP3 LT ISZERO PUSH2 0x49E JUMPI PUSH1 0x0 DUP5 DUP2 MSTORE PUSH1 0x20 SWAP1 DUP2 SWAP1 KECCAK256 PUSH1 0x40 DUP1 MLOAD DUP1 DUP3 ADD SWAP1 SWAP2 MSTORE SWAP1 DUP5 ADD SLOAD PUSH1 0x1 PUSH1 0x1 PUSH1 0xA0 SHL SUB DUP2 AND DUP3 MSTORE PUSH1 0x1 PUSH1 0xA0 SHL SWAP1 DIV PUSH2 0xFFFF AND DUP2 DUP4 ADD MSTORE DUP3 MSTORE PUSH1 0x1 SWAP1 SWAP3 ADD SWAP2 ADD PUSH2 0x454 JUMP JUMPDEST POP POP POP POP SWAP1 POP SWAP1 JUMP JUMPDEST PUSH1 0x0 DUP2 GT PUSH2 0x4F7 JUMPI PUSH1 0x40 MLOAD PUSH3 0x461BCD PUSH1 0xE5 SHL DUP2 MSTORE PUSH1 0x20 PUSH1 0x4 DUP3 ADD DUP2 SWAP1 MSTORE PUSH1 0x24 DUP3 ADD MSTORE PUSH32 0x416D6F756E74206D7573742062652067726561746572207468616E207A65726F PUSH1 0x44 DUP3 ADD MSTORE PUSH1 0x64 ADD PUSH2 0x405 JUMP JUMPDEST PUSH1 0x0 DUP1 JUMPDEST PUSH1 0x4 SLOAD DUP2 LT ISZERO PUSH2 0x557 JUMPI DUP4 PUSH1 0x1 PUSH1 0x1 PUSH1 0xA0 SHL SUB AND PUSH1 0x4 DUP3 DUP2 SLOAD DUP2 LT PUSH2 0x522 JUMPI PUSH2 0x522 PUSH2 0x1556 JUMP JUMPDEST PUSH1 0x0 SWAP2 DUP3 MSTORE PUSH1 0x20 SWAP1 SWAP2 KECCAK256 ADD SLOAD PUSH1 0x1 PUSH1 0x1 PUSH1 0xA0 SHL SUB AND SUB PUSH2 0x545 JUMPI PUSH1 0x1 SWAP2 POP PUSH2 0x557 JUMP JUMPDEST DUP1 PUSH2 0x54F DUP2 PUSH2 0x1582 JUMP JUMPDEST SWAP2 POP POP PUSH2 0x4FB JUMP JUMPDEST POP DUP1 PUSH2 0x5A5 JUMPI PUSH1 0x40 MLOAD PUSH3 0x461BCD PUSH1 0xE5 SHL DUP2 MSTORE PUSH1 0x20 PUSH1 0x4 DUP3 ADD MSTORE PUSH1 0x1D PUSH1 0x24 DUP3 ADD MSTORE PUSH32 0x546F6B656E206E6F742070617274206F6620636F6D706F736974696F6E000000 PUSH1 0x44 DUP3 ADD MSTORE PUSH1 0x64 ADD PUSH2 0x405 JUMP JUMPDEST PUSH1 0x6 SLOAD PUSH1 0x40 MLOAD PUSH4 0x1C97FA29 PUSH1 0xE2 SHL DUP2 MSTORE ADDRESS PUSH1 0x4 DUP3 ADD MSTORE PUSH1 0x1 PUSH1 0x1 PUSH1 0xA0 SHL SUB DUP6 DUP2 AND PUSH1 0x24 DUP4 ADD MSTORE SWAP1 SWAP2 AND SWAP1 PUSH4 0x725FE8A4 SWAP1 PUSH1 0x44 ADD PUSH1 0x20 PUSH1 0x40 MLOAD DUP1 DUP4 SUB DUP2 DUP7 GAS STATICCALL ISZERO DUP1 ISZERO PUSH2 0x5F5 JUMPI RETURNDATASIZE PUSH1 0x0 DUP1 RETURNDATACOPY RETURNDATASIZE PUSH1 0x0 REVERT JUMPDEST POP POP POP POP PUSH1 0x40 MLOAD RETURNDATASIZE PUSH1 0x1F NOT PUSH1 0x1F DUP3 ADD AND DUP3 ADD DUP1 PUSH1 0x40 MSTORE POP DUP2 ADD SWAP1 PUSH2 0x619 SWAP2 SWAP1 PUSH2 0x159B JUMP JUMPDEST PUSH2 0x647 JUMPI PUSH1 0x40 MLOAD PUSH4 0x2460BCBB PUSH1 0xE2 SHL DUP2 MSTORE PUSH1 0x1 PUSH1 0x1 PUSH1 0xA0 SHL SUB DUP5 AND PUSH1 0x4 DUP3 ADD MSTORE ADDRESS PUSH1 0x24 DUP3 ADD MSTORE PUSH1 0x44 ADD PUSH2 0x405 JUMP JUMPDEST PUSH1 0x6 SLOAD PUSH1 0x40 MLOAD PUSH4 0x2C54DE4F PUSH1 0xE0 SHL DUP2 MSTORE PUSH1 0x1 PUSH1 0x1 PUSH1 0xA0 SHL SUB DUP6 DUP2 AND PUSH1 0x4 DUP4 ADD MSTORE CALLER PUSH1 0x24 DUP4 ADD MSTORE ADDRESS PUSH1 0x44 DUP4 ADD MSTORE PUSH1 0x64 DUP3 ADD DUP6 SWAP1 MSTORE PUSH1 0x0 SWAP3 AND SWAP1 PUSH4 0x2C54DE4F SWAP1 PUSH1 0x84 ADD PUSH1 0x20 PUSH1 0x40 MLOAD DUP1 DUP4 SUB DUP2 PUSH1 0x0 DUP8 GAS CALL ISZERO DUP1 ISZERO PUSH2 0x6A7 JUMPI RETURNDATASIZE PUSH1 0x0 DUP1 RETURNDATACOPY RETURNDATASIZE PUSH1 0x0 REVERT JUMPDEST POP POP POP POP PUSH1 0x40 MLOAD RETURNDATASIZE PUSH1 0x1F NOT PUSH1 0x1F DUP3 ADD AND DUP3 ADD DUP1 PUSH1 0x40 MSTORE POP DUP2 ADD SWAP1 PUSH2 0x6CB SWAP2 SWAP1 PUSH2 0x15BD JUMP JUMPDEST SWAP1 POP DUP1 PUSH1 0x7 SIGNEXTEND PUSH1 0x0 EQ PUSH2 0x706 JUMPI PUSH1 0x40 MLOAD PUSH4 0xB3BB03F PUSH1 0xE0 SHL DUP2 MSTORE PUSH1 0x1 PUSH1 0x1 PUSH1 0xA0 SHL SUB DUP6 AND PUSH1 0x4 DUP3 ADD MSTORE PUSH1 0x7 DUP3 SWAP1 SIGNEXTEND PUSH1 0x24 DUP3 ADD MSTORE PUSH1 0x44 ADD PUSH2 0x405 JUMP JUMPDEST CALLER PUSH1 0x0 SWAP1 DUP2 MSTORE PUSH1 0x5 PUSH1 0x20 SWAP1 DUP2 MSTORE PUSH1 0x40 DUP1 DUP4 KECCAK256 PUSH1 0x1 PUSH1 0x1 PUSH1 0xA0 SHL SUB DUP9 AND DUP5 MSTORE SWAP1 SWAP2 MSTORE DUP2 KECCAK256 DUP1 SLOAD DUP6 SWAP3 SWAP1 PUSH2 0x739 SWAP1 DUP5 SWAP1 PUSH2 0x15E0 JUMP JUMPDEST SWAP1 SWAP2 SSTORE POP POP PUSH1 0x40 MLOAD DUP4 DUP2 MSTORE PUSH1 0x1 PUSH1 0x1 PUSH1 0xA0 SHL SUB DUP6 AND SWAP1 CALLER SWAP1 PUSH32 0x54EF209E319F7D023F4F2C1D4B427C3844F7EF008D20A2104B1F20CB533A7FBF SWAP1 PUSH1 0x20 ADD PUSH1 0x40 MLOAD DUP1 SWAP2 SUB SWAP1 LOG3 POP POP POP POP JUMP JUMPDEST PUSH1 0x2 SLOAD PUSH1 0x1 PUSH1 0x1 PUSH1 0xA0 SHL SUB AND CALLER EQ PUSH2 0x7AF JUMPI PUSH1 0x40 MLOAD PUSH4 0x47556579 PUSH1 0xE0 SHL DUP2 MSTORE PUSH1 0x4 ADD PUSH1 0x40 MLOAD DUP1 SWAP2 SUB SWAP1 REVERT JUMPDEST PUSH1 0x0 DUP1 JUMPDEST DUP3 DUP2 LT ISZERO PUSH2 0x9C9 JUMPI DUP4 DUP4 DUP3 DUP2 DUP2 LT PUSH2 0x7CD JUMPI PUSH2 0x7CD PUSH2 0x1556 JUMP JUMPDEST SWAP1 POP PUSH1 0x40 MUL ADD PUSH1 0x20 ADD PUSH1 0x20 DUP2 ADD SWAP1 PUSH2 0x7E5 SWAP2 SWAP1 PUSH2 0x1603 JUMP JUMPDEST PUSH2 0x7F3 SWAP1 PUSH2 0xFFFF AND DUP4 PUSH2 0x15E0 JUMP JUMPDEST PUSH1 0x6 SLOAD SWAP1 SWAP3 POP PUSH1 0x1 PUSH1 0x1 PUSH1 0xA0 SHL SUB AND PUSH4 0x725FE8A4 ADDRESS DUP7 DUP7 DUP6 DUP2 DUP2 LT PUSH2 0x81A JUMPI PUSH2 0x81A PUSH2 0x1556 JUMP JUMPDEST PUSH2 0x830 SWAP3 PUSH1 0x20 PUSH1 0x40 SWAP1 SWAP3 MUL ADD SWAP1 DUP2 ADD SWAP2 POP PUSH2 0x1328 JUMP JUMPDEST PUSH1 0x40 MLOAD PUSH1 0x1 PUSH1 0x1 PUSH1 0xE0 SHL SUB NOT PUSH1 0xE0 DUP6 SWAP1 SHL AND DUP2 MSTORE PUSH1 0x1 PUSH1 0x1 PUSH1 0xA0 SHL SUB SWAP3 DUP4 AND PUSH1 0x4 DUP3 ADD MSTORE SWAP2 AND PUSH1 0x24 DUP3 ADD MSTORE PUSH1 0x44 ADD PUSH1 0x20 PUSH1 0x40 MLOAD DUP1 DUP4 SUB DUP2 DUP7 GAS STATICCALL ISZERO DUP1 ISZERO PUSH2 0x87B JUMPI RETURNDATASIZE PUSH1 0x0 DUP1 RETURNDATACOPY RETURNDATASIZE PUSH1 0x0 REVERT JUMPDEST POP POP POP POP PUSH1 0x40 MLOAD RETURNDATASIZE PUSH1 0x1F NOT PUSH1 0x1F DUP3 ADD AND DUP3 ADD DUP1 PUSH1 0x40 MSTORE POP DUP2 ADD SWAP1 PUSH2 0x89F SWAP2 SWAP1 PUSH2 0x159B JUMP JUMPDEST PUSH2 0x9B7 JUMPI PUSH1 0x6 SLOAD PUSH1 0x0 SWAP1 PUSH1 0x1 PUSH1 0x1 PUSH1 0xA0 SHL SUB AND PUSH4 0x49146BDE ADDRESS DUP8 DUP8 DUP7 DUP2 DUP2 LT PUSH2 0x8CA JUMPI PUSH2 0x8CA PUSH2 0x1556 JUMP JUMPDEST PUSH2 0x8E0 SWAP3 PUSH1 0x20 PUSH1 0x40 SWAP1 SWAP3 MUL ADD SWAP1 DUP2 ADD SWAP2 POP PUSH2 0x1328 JUMP JUMPDEST PUSH1 0x40 MLOAD PUSH1 0x1 PUSH1 0x1 PUSH1 0xE0 SHL SUB NOT PUSH1 0xE0 DUP6 SWAP1 SHL AND DUP2 MSTORE PUSH1 0x1 PUSH1 0x1 PUSH1 0xA0 SHL SUB SWAP3 DUP4 AND PUSH1 0x4 DUP3 ADD MSTORE SWAP2 AND PUSH1 0x24 DUP3 ADD MSTORE PUSH1 0x44 ADD PUSH1 0x20 PUSH1 0x40 MLOAD DUP1 DUP4 SUB DUP2 PUSH1 0x0 DUP8 GAS CALL ISZERO DUP1 ISZERO PUSH2 0x92D JUMPI RETURNDATASIZE PUSH1 0x0 DUP1 RETURNDATACOPY RETURNDATASIZE PUSH1 0x0 REVERT JUMPDEST POP POP POP POP PUSH1 0x40 MLOAD RETURNDATASIZE PUSH1 0x1F NOT PUSH1 0x1F DUP3 ADD AND DUP3 ADD DUP1 PUSH1 0x40 MSTORE POP DUP2 ADD SWAP1 PUSH2 0x951 SWAP2 SWAP1 PUSH2 0x15BD JUMP JUMPDEST SWAP1 POP DUP1 PUSH1 0x7 SIGNEXTEND PUSH1 0x0 EQ PUSH2 0x9B5 JUMPI DUP5 DUP5 DUP4 DUP2 DUP2 LT PUSH2 0x970 JUMPI PUSH2 0x970 PUSH2 0x1556 JUMP JUMPDEST PUSH2 0x986 SWAP3 PUSH1 0x20 PUSH1 0x40 SWAP1 SWAP3 MUL ADD SWAP1 DUP2 ADD SWAP2 POP PUSH2 0x1328 JUMP JUMPDEST PUSH1 0x40 MLOAD PUSH4 0xB3BB03F PUSH1 0xE0 SHL DUP2 MSTORE PUSH1 0x1 PUSH1 0x1 PUSH1 0xA0 SHL SUB SWAP1 SWAP2 AND PUSH1 0x4 DUP3 ADD MSTORE PUSH1 0x7 DUP3 SWAP1 SIGNEXTEND PUSH1 0x24 DUP3 ADD MSTORE PUSH1 0x44 ADD PUSH2 0x405 JUMP JUMPDEST POP JUMPDEST DUP1 PUSH2 0x9C1 DUP2 PUSH2 0x1582 JUMP JUMPDEST SWAP2 POP POP PUSH2 0x7B3 JUMP JUMPDEST POP DUP1 PUSH2 0x2710 EQ PUSH2 0x9EC JUMPI PUSH1 0x40 MLOAD PUSH4 0x9D811B99 PUSH1 0xE0 SHL DUP2 MSTORE PUSH1 0x4 ADD PUSH1 0x40 MLOAD DUP1 SWAP2 SUB SWAP1 REVERT JUMPDEST PUSH1 0x4 SLOAD ISZERO PUSH2 0xA00 JUMPI PUSH2 0xA00 PUSH1 0x4 PUSH1 0x0 PUSH2 0x12CF JUMP JUMPDEST PUSH1 0x0 JUMPDEST DUP3 DUP2 LT ISZERO PUSH2 0xA60 JUMPI PUSH1 0x4 DUP5 DUP5 DUP4 DUP2 DUP2 LT PUSH2 0xA1F JUMPI PUSH2 0xA1F PUSH2 0x1556 JUMP JUMPDEST DUP4 SLOAD PUSH1 0x1 DUP2 ADD DUP6 SSTORE PUSH1 0x0 SWAP5 DUP6 MSTORE PUSH1 0x20 SWAP1 SWAP5 KECCAK256 PUSH1 0x40 SWAP1 SWAP2 MUL SWAP3 SWAP1 SWAP3 ADD SWAP3 SWAP2 SWAP1 SWAP2 ADD SWAP1 POP PUSH2 0xA4B DUP3 DUP3 PUSH2 0x1620 JUMP JUMPDEST POP POP DUP1 DUP1 PUSH2 0xA58 SWAP1 PUSH2 0x1582 JUMP JUMPDEST SWAP2 POP POP PUSH2 0xA03 JUMP JUMPDEST POP PUSH32 0x5A47F63B43DC044E0B2DAD1E54F67FFB24BF1D3328C812A029F66486C66E8670 DUP4 DUP4 PUSH1 0x40 MLOAD PUSH2 0xA92 SWAP3 SWAP2 SWAP1 PUSH2 0x167A JUMP JUMPDEST PUSH1 0x40 MLOAD DUP1 SWAP2 SUB SWAP1 LOG1 POP POP POP JUMP JUMPDEST PUSH1 0x1 SLOAD PUSH1 0x1 PUSH1 0x1 PUSH1 0xA0 SHL SUB AND CALLER EQ PUSH2 0xACA JUMPI PUSH1 0x40 MLOAD PUSH4 0x59907813 PUSH1 0xE0 SHL DUP2 MSTORE PUSH1 0x4 ADD PUSH1 0x40 MLOAD DUP1 SWAP2 SUB SWAP1 REVERT JUMPDEST PUSH1 0x0 SLOAD PUSH1 0x1 PUSH1 0x1 PUSH1 0xA0 SHL SUB AND PUSH2 0xB18 JUMPI PUSH1 0x40 MLOAD PUSH3 0x461BCD PUSH1 0xE5 SHL DUP2 MSTORE PUSH1 0x20 PUSH1 0x4 DUP3 ADD MSTORE PUSH1 0x13 PUSH1 0x24 DUP3 ADD MSTORE PUSH19 0x125B99195E081D1BDAD95B881B9BDD081CD95D PUSH1 0x6A SHL PUSH1 0x44 DUP3 ADD MSTORE PUSH1 0x64 ADD PUSH2 0x405 JUMP JUMPDEST PUSH1 0x0 JUMPDEST PUSH1 0x4 SLOAD DUP2 LT ISZERO PUSH2 0xC68 JUMPI PUSH1 0x0 PUSH1 0x4 DUP3 DUP2 SLOAD DUP2 LT PUSH2 0xB3A JUMPI PUSH2 0xB3A PUSH2 0x1556 JUMP JUMPDEST PUSH1 0x0 SWAP2 DUP3 MSTORE PUSH1 0x20 DUP1 DUP4 KECCAK256 PUSH1 0x40 DUP1 MLOAD DUP1 DUP3 ADD SWAP1 SWAP2 MSTORE SWAP3 ADD SLOAD PUSH1 0x1 PUSH1 0x1 PUSH1 0xA0 SHL SUB DUP2 AND DUP4 MSTORE PUSH1 0x1 PUSH1 0xA0 SHL SWAP1 DIV PUSH2 0xFFFF AND SWAP1 DUP3 ADD DUP2 SWAP1 MSTORE SWAP1 SWAP3 POP PUSH2 0x2710 SWAP1 PUSH2 0xB7F SWAP1 DUP7 PUSH2 0x16D3 JUMP JUMPDEST PUSH2 0xB89 SWAP2 SWAP1 PUSH2 0x16EA JUMP JUMPDEST PUSH1 0x1 PUSH1 0x1 PUSH1 0xA0 SHL SUB DUP1 DUP8 AND PUSH1 0x0 SWAP1 DUP2 MSTORE PUSH1 0x5 PUSH1 0x20 SWAP1 DUP2 MSTORE PUSH1 0x40 DUP1 DUP4 KECCAK256 DUP8 MLOAD SWAP1 SWAP5 AND DUP4 MSTORE SWAP3 SWAP1 MSTORE KECCAK256 SLOAD SWAP1 SWAP2 POP DUP2 GT ISZERO PUSH2 0xC13 JUMPI DUP2 MLOAD PUSH1 0x1 PUSH1 0x1 PUSH1 0xA0 SHL SUB DUP7 DUP2 AND PUSH1 0x0 SWAP1 DUP2 MSTORE PUSH1 0x5 PUSH1 0x20 SWAP1 DUP2 MSTORE PUSH1 0x40 DUP1 DUP4 KECCAK256 DUP8 MLOAD DUP6 AND DUP5 MSTORE SWAP1 SWAP2 MSTORE SWAP1 DUP2 SWAP1 KECCAK256 SLOAD SWAP1 MLOAD PUSH4 0x2FC28C53 PUSH1 0xE0 SHL DUP2 MSTORE SWAP2 SWAP1 SWAP3 AND PUSH1 0x4 DUP3 ADD MSTORE PUSH1 0x24 DUP2 ADD DUP4 SWAP1 MSTORE PUSH1 0x44 DUP2 ADD SWAP2 SWAP1 SWAP2 MSTORE PUSH1 0x64 ADD PUSH2 0x405 JUMP JUMPDEST PUSH1 0x1 PUSH1 0x1 PUSH1 0xA0 SHL SUB DUP1 DUP7 AND PUSH1 0x0 SWAP1 DUP2 MSTORE PUSH1 0x5 PUSH1 0x20 SWAP1 DUP2 MSTORE PUSH1 0x40 DUP1 DUP4 KECCAK256 DUP7 MLOAD SWAP1 SWAP5 AND DUP4 MSTORE SWAP3 SWAP1 MSTORE SWAP1 DUP2 KECCAK256 DUP1 SLOAD DUP4 SWAP3 SWAP1 PUSH2 0xC4C SWAP1 DUP5 SWAP1 PUSH2 0x170C JUMP JUMPDEST SWAP3 POP POP DUP2 SWAP1 SSTORE POP POP POP DUP1 DUP1 PUSH2 0xC60 SWAP1 PUSH2 0x1582 JUMP JUMPDEST SWAP2 POP POP PUSH2 0xB1B JUMP JUMPDEST POP PUSH1 0x6 SLOAD PUSH1 0x0 SLOAD PUSH1 0x40 MLOAD PUSH4 0x1C97FA29 PUSH1 0xE2 SHL DUP2 MSTORE PUSH1 0x1 PUSH1 0x1 PUSH1 0xA0 SHL SUB DUP6 DUP2 AND PUSH1 0x4 DUP4 ADD MSTORE SWAP2 DUP3 AND PUSH1 0x24 DUP3 ADD MSTORE SWAP2 AND SWAP1 PUSH4 0x725FE8A4 SWAP1 PUSH1 0x44 ADD PUSH1 0x20 PUSH1 0x40 MLOAD DUP1 DUP4 SUB DUP2 DUP7 GAS STATICCALL ISZERO DUP1 ISZERO PUSH2 0xCBD JUMPI RETURNDATASIZE PUSH1 0x0 DUP1 RETURNDATACOPY RETURNDATASIZE PUSH1 0x0 REVERT JUMPDEST POP POP POP POP PUSH1 0x40 MLOAD RETURNDATASIZE PUSH1 0x1F NOT PUSH1 0x1F DUP3 ADD AND DUP3 ADD DUP1 PUSH1 0x40 MSTORE POP DUP2 ADD SWAP1 PUSH2 0xCE1 SWAP2 SWAP1 PUSH2 0x159B JUMP JUMPDEST PUSH2 0xD15 JUMPI PUSH1 0x0 SLOAD PUSH1 0x40 MLOAD PUSH4 0x2460BCBB PUSH1 0xE2 SHL DUP2 MSTORE PUSH1 0x1 PUSH1 0x1 PUSH1 0xA0 SHL SUB SWAP2 DUP3 AND PUSH1 0x4 DUP3 ADD MSTORE SWAP1 DUP4 AND PUSH1 0x24 DUP3 ADD MSTORE PUSH1 0x44 ADD PUSH2 0x405 JUMP JUMPDEST PUSH1 0x6 SLOAD PUSH1 0x0 DUP1 SLOAD PUSH1 0x40 MLOAD PUSH4 0x2C54DE4F PUSH1 0xE0 SHL DUP2 MSTORE PUSH1 0x1 PUSH1 0x1 PUSH1 0xA0 SHL SUB SWAP2 DUP3 AND PUSH1 0x4 DUP3 ADD MSTORE ADDRESS PUSH1 0x24 DUP3 ADD MSTORE DUP6 DUP3 AND PUSH1 0x44 DUP3 ADD MSTORE PUSH1 0x64 DUP2 ADD DUP6 SWAP1 MSTORE SWAP2 SWAP3 AND SWAP1 PUSH4 0x2C54DE4F SWAP1 PUSH1 0x84 ADD PUSH1 0x20 PUSH1 0x40 MLOAD DUP1 DUP4 SUB DUP2 PUSH1 0x0 DUP8 GAS CALL ISZERO DUP1 ISZERO PUSH2 0xD7A JUMPI RETURNDATASIZE PUSH1 0x0 DUP1 RETURNDATACOPY RETURNDATASIZE PUSH1 0x0 REVERT JUMPDEST POP POP POP POP PUSH1 0x40 MLOAD RETURNDATASIZE PUSH1 0x1F NOT PUSH1 0x1F DUP3 ADD AND DUP3 ADD DUP1 PUSH1 0x40 MSTORE POP DUP2 ADD SWAP1 PUSH2 0xD9E SWAP2 SWAP1 PUSH2 0x15BD JUMP JUMPDEST SWAP1 POP DUP1 PUSH1 0x7 SIGNEXTEND PUSH1 0x0 EQ PUSH2 0xDDD JUMPI PUSH1 0x0 SLOAD PUSH1 0x40 MLOAD PUSH4 0xB3BB03F PUSH1 0xE0 SHL DUP2 MSTORE PUSH1 0x1 PUSH1 0x1 PUSH1 0xA0 SHL SUB SWAP1 SWAP2 AND PUSH1 0x4 DUP3 ADD MSTORE PUSH1 0x7 DUP3 SWAP1 SIGNEXTEND PUSH1 0x24 DUP3 ADD MSTORE PUSH1 0x44 ADD PUSH2 0x405 JUMP JUMPDEST DUP3 PUSH1 0x1 PUSH1 0x1 PUSH1 0xA0 SHL SUB AND PUSH32 0x16B0DA2FFCB90C6723317BD637D9AAD7F04711F42BBE0AC0918EBE10F1F9001C DUP4 PUSH1 0x40 MLOAD PUSH2 0xE18 SWAP2 DUP2 MSTORE PUSH1 0x20 ADD SWAP1 JUMP JUMPDEST PUSH1 0x40 MLOAD DUP1 SWAP2 SUB SWAP1 LOG2 POP POP POP JUMP JUMPDEST PUSH1 0x4 SLOAD PUSH1 0x60 SWAP1 DUP2 SWAP1 PUSH8 0xFFFFFFFFFFFFFFFF DUP2 GT ISZERO PUSH2 0xE45 JUMPI PUSH2 0xE45 PUSH2 0x171F JUMP JUMPDEST PUSH1 0x40 MLOAD SWAP1 DUP1 DUP3 MSTORE DUP1 PUSH1 0x20 MUL PUSH1 0x20 ADD DUP3 ADD PUSH1 0x40 MSTORE DUP1 ISZERO PUSH2 0xE6E JUMPI DUP2 PUSH1 0x20 ADD PUSH1 0x20 DUP3 MUL DUP1 CALLDATASIZE DUP4 CALLDATACOPY ADD SWAP1 POP JUMPDEST POP PUSH1 0x4 SLOAD SWAP1 SWAP3 POP PUSH8 0xFFFFFFFFFFFFFFFF DUP2 GT ISZERO PUSH2 0xE8D JUMPI PUSH2 0xE8D PUSH2 0x171F JUMP JUMPDEST PUSH1 0x40 MLOAD SWAP1 DUP1 DUP3 MSTORE DUP1 PUSH1 0x20 MUL PUSH1 0x20 ADD DUP3 ADD PUSH1 0x40 MSTORE DUP1 ISZERO PUSH2 0xEB6 JUMPI DUP2 PUSH1 0x20 ADD PUSH1 0x20 DUP3 MUL DUP1 CALLDATASIZE DUP4 CALLDATACOPY ADD SWAP1 POP JUMPDEST POP SWAP1 POP PUSH1 0x0 JUMPDEST PUSH1 0x4 SLOAD DUP2 LT ISZERO PUSH2 0xF95 JUMPI PUSH1 0x4 DUP2 DUP2 SLOAD DUP2 LT PUSH2 0xED9 JUMPI PUSH2 0xED9 PUSH2 0x1556 JUMP JUMPDEST PUSH1 0x0 SWAP2 DUP3 MSTORE PUSH1 0x20 SWAP1 SWAP2 KECCAK256 ADD SLOAD DUP4 MLOAD PUSH1 0x1 PUSH1 0x1 PUSH1 0xA0 SHL SUB SWAP1 SWAP2 AND SWAP1 DUP5 SWAP1 DUP4 SWAP1 DUP2 LT PUSH2 0xF05 JUMPI PUSH2 0xF05 PUSH2 0x1556 JUMP JUMPDEST PUSH1 0x20 MUL PUSH1 0x20 ADD ADD SWAP1 PUSH1 0x1 PUSH1 0x1 PUSH1 0xA0 SHL SUB AND SWAP1 DUP2 PUSH1 0x1 PUSH1 0x1 PUSH1 0xA0 SHL SUB AND DUP2 MSTORE POP POP PUSH2 0x2710 PUSH1 0x4 DUP3 DUP2 SLOAD DUP2 LT PUSH2 0xF3B JUMPI PUSH2 0xF3B PUSH2 0x1556 JUMP JUMPDEST PUSH1 0x0 SWAP2 DUP3 MSTORE PUSH1 0x20 SWAP1 SWAP2 KECCAK256 ADD SLOAD PUSH2 0xF5C SWAP1 PUSH1 0x1 PUSH1 0xA0 SHL SWAP1 DIV PUSH2 0xFFFF AND DUP7 PUSH2 0x16D3 JUMP JUMPDEST PUSH2 0xF66 SWAP2 SWAP1 PUSH2 0x16EA JUMP JUMPDEST DUP3 DUP3 DUP2 MLOAD DUP2 LT PUSH2 0xF78 JUMPI PUSH2 0xF78 PUSH2 0x1556 JUMP JUMPDEST PUSH1 0x20 SWAP1 DUP2 MUL SWAP2 SWAP1 SWAP2 ADD ADD MSTORE DUP1 PUSH2 0xF8D DUP2 PUSH2 0x1582 JUMP JUMPDEST SWAP2 POP POP PUSH2 0xEBC JUMP JUMPDEST POP SWAP2 POP SWAP2 JUMP JUMPDEST PUSH1 0x1 SLOAD PUSH1 0x1 PUSH1 0x1 PUSH1 0xA0 SHL SUB AND CALLER EQ PUSH2 0xFC6 JUMPI PUSH1 0x40 MLOAD PUSH4 0x59907813 PUSH1 0xE0 SHL DUP2 MSTORE PUSH1 0x4 ADD PUSH1 0x40 MLOAD DUP1 SWAP2 SUB SWAP1 REVERT JUMPDEST PUSH1 0x0 SLOAD PUSH1 0x1 PUSH1 0x1 PUSH1 0xA0 SHL SUB AND ISZERO PUSH2 0x101F JUMPI PUSH1 0x40 MLOAD PUSH3 0x461BCD PUSH1 0xE5 SHL DUP2 MSTORE PUSH1 0x20 PUSH1 0x4 DUP3 ADD MSTORE PUSH1 0x17 PUSH1 0x24 DUP3 ADD MSTORE PUSH32 0x496E64657820746F6B656E20616C726561647920736574000000000000000000 PUSH1 0x44 DUP3 ADD MSTORE PUSH1 0x64 ADD PUSH2 0x405 JUMP JUMPDEST PUSH1 0x1 PUSH1 0x1 PUSH1 0xA0 SHL SUB DUP2 AND PUSH2 0x1045 JUMPI PUSH1 0x40 MLOAD PUSH3 0x461BCD PUSH1 0xE5 SHL DUP2 MSTORE PUSH1 0x4 ADD PUSH2 0x405 SWAP1 PUSH2 0x151F JUMP JUMPDEST PUSH1 0x0 DUP1 SLOAD PUSH1 0x1 PUSH1 0x1 PUSH1 0xA0 SHL SUB NOT AND PUSH1 0x1 PUSH1 0x1 PUSH1 0xA0 SHL SUB DUP4 DUP2 AND SWAP2 DUP3 OR DUP4 SSTORE PUSH1 0x6 SLOAD PUSH1 0x40 MLOAD PUSH4 0x248A35EF PUSH1 0xE1 SHL DUP2 MSTORE ADDRESS PUSH1 0x4 DUP3 ADD MSTORE PUSH1 0x24 DUP2 ADD SWAP4 SWAP1 SWAP4 MSTORE AND SWAP1 PUSH4 0x49146BDE SWAP1 PUSH1 0x44 ADD PUSH1 0x20 PUSH1 0x40 MLOAD DUP1 DUP4 SUB DUP2 PUSH1 0x0 DUP8 GAS CALL ISZERO DUP1 ISZERO PUSH2 0x10AB JUMPI RETURNDATASIZE PUSH1 0x0 DUP1 RETURNDATACOPY RETURNDATASIZE PUSH1 0x0 REVERT JUMPDEST POP POP POP POP PUSH1 0x40 MLOAD RETURNDATASIZE PUSH1 0x1F NOT PUSH1 0x1F DUP3 ADD AND DUP3 ADD DUP1 PUSH1 0x40 MSTORE POP DUP2 ADD SWAP1 PUSH2 0x10CF SWAP2 SWAP1 PUSH2 0x15BD JUMP JUMPDEST SWAP1 POP DUP1 PUSH1 0x7 SIGNEXTEND PUSH1 0x0 EQ PUSH2 0x110A JUMPI PUSH1 0x40 MLOAD PUSH4 0xB3BB03F PUSH1 0xE0 SHL DUP2 MSTORE PUSH1 0x1 PUSH1 0x1 PUSH1 0xA0 SHL SUB DUP4 AND PUSH1 0x4 DUP3 ADD MSTORE PUSH1 0x7 DUP3 SWAP1 SIGNEXTEND PUSH1 0x24 DUP3 ADD MSTORE PUSH1 0x44 ADD PUSH2 0x405 JUMP JUMPDEST PUSH1 0x40 MLOAD PUSH1 0x1 PUSH1 0x1 PUSH1 0xA0 SHL SUB DUP4 AND SWAP1 PUSH32 0x40CDAC5625B9528B38B786C9B74C257C1DE10EAC74B82C0EBC45A652CD8BCF63 SWAP1 PUSH1 0x0 SWAP1 LOG2 POP POP JUMP JUMPDEST PUSH1 0x4 SLOAD PUSH1 0x0 SWAP1 DUP2 SUB PUSH2 0x1156 JUMPI POP PUSH1 0x0 PUSH2 0x1220 JUMP JUMPDEST PUSH1 0x0 JUMPDEST PUSH1 0x4 SLOAD DUP2 LT ISZERO PUSH2 0x121A JUMPI PUSH1 0x0 PUSH1 0x4 DUP3 DUP2 SLOAD DUP2 LT PUSH2 0x1178 JUMPI PUSH2 0x1178 PUSH2 0x1556 JUMP JUMPDEST PUSH1 0x0 SWAP2 DUP3 MSTORE PUSH1 0x20 DUP1 DUP4 KECCAK256 PUSH1 0x40 DUP1 MLOAD DUP1 DUP3 ADD SWAP1 SWAP2 MSTORE SWAP3 ADD SLOAD PUSH1 0x1 PUSH1 0x1 PUSH1 0xA0 SHL SUB DUP2 AND DUP4 MSTORE PUSH1 0x1 PUSH1 0xA0 SHL SWAP1 DIV PUSH2 0xFFFF AND SWAP1 DUP3 ADD DUP2 SWAP1 MSTORE SWAP1 SWAP3 POP PUSH2 0x2710 SWAP1 PUSH2 0x11BD SWAP1 DUP8 PUSH2 0x16D3 JUMP JUMPDEST PUSH2 0x11C7 SWAP2 SWAP1 PUSH2 0x16EA JUMP JUMPDEST PUSH1 0x1 PUSH1 0x1 PUSH1 0xA0 SHL SUB DUP1 DUP9 AND PUSH1 0x0 SWAP1 DUP2 MSTORE PUSH1 0x5 PUSH1 0x20 SWAP1 DUP2 MSTORE PUSH1 0x40 DUP1 DUP4 KECCAK256 DUP8 MLOAD SWAP1 SWAP5 AND DUP4 MSTORE SWAP3 SWAP1 MSTORE KECCAK256 SLOAD SWAP1 SWAP2 POP DUP2 GT ISZERO PUSH2 0x1205 JUMPI PUSH1 0x0 SWAP4 POP POP POP POP PUSH2 0x1220 JUMP JUMPDEST POP POP DUP1 DUP1 PUSH2 0x1212 SWAP1 PUSH2 0x1582 JUMP JUMPDEST SWAP2 POP POP PUSH2 0x1159 JUMP JUMPDEST POP PUSH1 0x1 SWAP1 POP JUMPDEST SWAP3 SWAP2 POP POP JUMP JUMPDEST PUSH1 0x4 DUP2 DUP2 SLOAD DUP2 LT PUSH2 0x1236 JUMPI PUSH1 0x0 DUP1 REVERT JUMPDEST PUSH1 0x0 SWAP2 DUP3 MSTORE PUSH1 0x20 SWAP1 SWAP2 KECCAK256 ADD SLOAD PUSH1 0x1 PUSH1 0x1 PUSH1 0xA0 SHL SUB DUP2 AND SWAP2 POP PUSH1 0x1 PUSH1 0xA0 SHL SWAP1 DIV PUSH2 0xFFFF AND DUP3 JUMP JUMPDEST PUSH1 0x2 SLOAD PUSH1 0x1 PUSH1 0x1 PUSH1 0xA0 SHL SUB AND CALLER EQ PUSH2 0x1287 JUMPI PUSH1 0x40 MLOAD PUSH4 0x47556579 PUSH1 0xE0 SHL DUP2 MSTORE PUSH1 0x4 ADD PUSH1 0x40 MLOAD DUP1 SWAP2 SUB SWAP1 REVERT JUMPDEST PUSH1 0x1 PUSH1 0x1 PUSH1 0xA0 SHL SUB DUP2 AND PUSH2 0x12AD JUMPI PUSH1 0x40 MLOAD PUSH3 0x461BCD PUSH1 0xE5 SHL DUP2 MSTORE PUSH1 0x4 ADD PUSH2 0x405 SWAP1 PUSH2 0x151F JUMP JUMPDEST PUSH1 0x2 DUP1 SLOAD PUSH1 0x1 PUSH1 0x1 PUSH1 0xA0 SHL SUB NOT AND PUSH1 0x1 PUSH1 0x1 PUSH1 0xA0 SHL SUB SWAP3 SWAP1 SWAP3 AND SWAP2 SWAP1 SWAP2 OR SWAP1 SSTORE JUMP JUMPDEST POP DUP1 SLOAD PUSH1 0x0 DUP3 SSTORE SWAP1 PUSH1 0x0 MSTORE PUSH1 0x20 PUSH1 0x0 KECCAK256 SWAP1 DUP2 ADD SWAP1 PUSH2 0x12ED SWAP2 SWAP1 PUSH2 0x12F0 JUMP JUMPDEST POP JUMP JUMPDEST JUMPDEST DUP1 DUP3 GT ISZERO PUSH2 0x130F JUMPI DUP1 SLOAD PUSH1 0x1 PUSH1 0x1 PUSH1 0xB0 SHL SUB NOT AND DUP2 SSTORE PUSH1 0x1 ADD PUSH2 0x12F1 JUMP JUMPDEST POP SWAP1 JUMP JUMPDEST PUSH1 0x1 PUSH1 0x1 PUSH1 0xA0 SHL SUB DUP2 AND DUP2 EQ PUSH2 0x12ED JUMPI PUSH1 0x0 DUP1 REVERT JUMPDEST PUSH1 0x0 PUSH1 0x20 DUP3 DUP5 SUB SLT ISZERO PUSH2 0x133A JUMPI PUSH1 0x0 DUP1 REVERT JUMPDEST DUP2 CALLDATALOAD PUSH2 0x1345 DUP2 PUSH2 0x1313 JUMP JUMPDEST SWAP4 SWAP3 POP POP POP JUMP JUMPDEST PUSH1 0x20 DUP1 DUP3 MSTORE DUP3 MLOAD DUP3 DUP3 ADD DUP2 SWAP1 MSTORE PUSH1 0x0 SWAP2 SWAP1 PUSH1 0x40 SWAP1 DUP2 DUP6 ADD SWAP1 DUP7 DUP5 ADD DUP6 JUMPDEST DUP3 DUP2 LT ISZERO PUSH2 0x139B JUMPI DUP2 MLOAD DUP1 MLOAD PUSH1 0x1 PUSH1 0x1 PUSH1 0xA0 SHL SUB AND DUP6 MSTORE DUP7 ADD MLOAD PUSH2 0xFFFF AND DUP7 DUP6 ADD MSTORE SWAP3 DUP5 ADD SWAP3 SWAP1 DUP6 ADD SWAP1 PUSH1 0x1 ADD PUSH2 0x1369 JUMP JUMPDEST POP SWAP2 SWAP8 SWAP7 POP POP POP POP POP POP POP JUMP JUMPDEST PUSH1 0x0 DUP1 PUSH1 0x40 DUP4 DUP6 SUB SLT ISZERO PUSH2 0x13BB JUMPI PUSH1 0x0 DUP1 REVERT JUMPDEST DUP3 CALLDATALOAD PUSH2 0x13C6 DUP2 PUSH2 0x1313 JUMP JUMPDEST SWAP5 PUSH1 0x20 SWAP4 SWAP1 SWAP4 ADD CALLDATALOAD SWAP4 POP POP POP JUMP JUMPDEST PUSH1 0x0 DUP1 PUSH1 0x20 DUP4 DUP6 SUB SLT ISZERO PUSH2 0x13E7 JUMPI PUSH1 0x0 DUP1 REVERT JUMPDEST DUP3 CALLDATALOAD PUSH8 0xFFFFFFFFFFFFFFFF DUP1 DUP3 GT ISZERO PUSH2 0x13FF JUMPI PUSH1 0x0 DUP1 REVERT JUMPDEST DUP2 DUP6 ADD SWAP2 POP DUP6 PUSH1 0x1F DUP4 ADD SLT PUSH2 0x1413 JUMPI PUSH1 0x0 DUP1 REVERT JUMPDEST DUP2 CALLDATALOAD DUP2 DUP2 GT ISZERO PUSH2 0x1422 JUMPI PUSH1 0x0 DUP1 REVERT JUMPDEST DUP7 PUSH1 0x20 DUP3 PUSH1 0x6 SHL DUP6 ADD ADD GT ISZERO PUSH2 0x1437 JUMPI PUSH1 0x0 DUP1 REVERT JUMPDEST PUSH1 0x20 SWAP3 SWAP1 SWAP3 ADD SWAP7 SWAP2 SWAP6 POP SWAP1 SWAP4 POP POP POP POP JUMP JUMPDEST PUSH1 0x0 DUP1 PUSH1 0x40 DUP4 DUP6 SUB SLT ISZERO PUSH2 0x145C JUMPI PUSH1 0x0 DUP1 REVERT JUMPDEST DUP3 CALLDATALOAD PUSH2 0x1467 DUP2 PUSH2 0x1313 JUMP JUMPDEST SWAP2 POP PUSH1 0x20 DUP4 ADD CALLDATALOAD PUSH2 0x1477 DUP2 PUSH2 0x1313 JUMP JUMPDEST DUP1 SWAP2 POP POP SWAP3 POP SWAP3 SWAP1 POP JUMP JUMPDEST PUSH1 0x0 PUSH1 0x20 DUP3 DUP5 SUB SLT ISZERO PUSH2 0x1494 JUMPI PUSH1 0x0 DUP1 REVERT JUMPDEST POP CALLDATALOAD SWAP2 SWAP1 POP JUMP JUMPDEST PUSH1 0x40 DUP1 DUP3 MSTORE DUP4 MLOAD SWAP1 DUP3 ADD DUP2 SWAP1 MSTORE PUSH1 0x0 SWAP1 PUSH1 0x20 SWAP1 PUSH1 0x60 DUP5 ADD SWAP1 DUP3 DUP8 ADD DUP5 JUMPDEST DUP3 DUP2 LT ISZERO PUSH2 0x14DD JUMPI DUP2 MLOAD PUSH1 0x1 PUSH1 0x1 PUSH1 0xA0 SHL SUB AND DUP5 MSTORE SWAP3 DUP5 ADD SWAP3 SWAP1 DUP5 ADD SWAP1 PUSH1 0x1 ADD PUSH2 0x14B8 JUMP JUMPDEST POP POP POP DUP4 DUP2 SUB DUP3 DUP6 ADD MSTORE DUP5 MLOAD DUP1 DUP3 MSTORE DUP6 DUP4 ADD SWAP2 DUP4 ADD SWAP1 PUSH1 0x0 JUMPDEST DUP2 DUP2 LT ISZERO PUSH2 0x1512 JUMPI DUP4 MLOAD DUP4 MSTORE SWAP3 DUP5 ADD SWAP3 SWAP2 DUP5 ADD SWAP2 PUSH1 0x1 ADD PUSH2 0x14F6 JUMP JUMPDEST POP SWAP1 SWAP8 SWAP7 POP POP POP POP POP POP POP JUMP JUMPDEST PUSH1 0x20 DUP1 DUP3 MSTORE PUSH1 0x1A SWAP1 DUP3 ADD MSTORE PUSH32 0x43616E6E6F742073657420746F207A65726F2061646472657373000000000000 PUSH1 0x40 DUP3 ADD MSTORE PUSH1 0x60 ADD SWAP1 JUMP JUMPDEST PUSH4 0x4E487B71 PUSH1 0xE0 SHL PUSH1 0x0 MSTORE PUSH1 0x32 PUSH1 0x4 MSTORE PUSH1 0x24 PUSH1 0x0 REVERT JUMPDEST PUSH4 0x4E487B71 PUSH1 0xE0 SHL PUSH1 0x0 MSTORE PUSH1 0x11 PUSH1 0x4 MSTORE PUSH1 0x24 PUSH1 0x0 REVERT JUMPDEST PUSH1 0x0 PUSH1 0x1 DUP3 ADD PUSH2 0x1594 JUMPI PUSH2 0x1594 PUSH2 0x156C JUMP JUMPDEST POP PUSH1 0x1 ADD SWAP1 JUMP JUMPDEST PUSH1 0x0 PUSH1 0x20 DUP3 DUP5 SUB SLT ISZERO PUSH2 0x15AD JUMPI PUSH1 0x0 DUP1 REVERT JUMPDEST DUP2 MLOAD DUP1 ISZERO ISZERO DUP2 EQ PUSH2 0x1345 JUMPI PUSH1 0x0 DUP1 REVERT JUMPDEST PUSH1 0x0 PUSH1 0x20 DUP3 DUP5 SUB SLT ISZERO PUSH2 0x15CF JUMPI PUSH1 0x0 DUP1 REVERT JUMPDEST DUP2 MLOAD DUP1 PUSH1 0x7 SIGNEXTEND DUP2 EQ PUSH2 0x1345 JUMPI PUSH1 0x0 DUP1 REVERT JUMPDEST DUP1 DUP3 ADD DUP1 DUP3 GT ISZERO PUSH2 0x1220 JUMPI PUSH2 0x1220 PUSH2 0x156C JUMP JUMPDEST PUSH2 0xFFFF DUP2 AND DUP2 EQ PUSH2 0x12ED JUMPI PUSH1 0x0 DUP1 REVERT JUMPDEST PUSH1 0x0 PUSH1 0x20 DUP3 DUP5 SUB SLT ISZERO PUSH2 0x1615 JUMPI PUSH1 0x0 DUP1 REVERT JUMPDEST DUP2 CALLDATALOAD PUSH2 0x1345 DUP2 PUSH2 0x15F3 JUMP JUMPDEST DUP2 CALLDATALOAD PUSH2 0x162B DUP2 PUSH2 0x1313 JUMP JUMPDEST DUP2 SLOAD PUSH1 0x1 PUSH1 0x1 PUSH1 0xA0 SHL SUB NOT DUP2 AND PUSH1 0x1 PUSH1 0x1 PUSH1 0xA0 SHL SUB SWAP3 SWAP1 SWAP3 AND SWAP2 DUP3 OR DUP4 SSTORE PUSH1 0x20 DUP5 ADD CALLDATALOAD PUSH2 0x1657 DUP2 PUSH2 0x15F3 JUMP JUMPDEST PUSH1 0x1 PUSH1 0x1 PUSH1 0xB0 SHL SUB NOT SWAP2 SWAP1 SWAP2 AND SWAP1 SWAP2 OR PUSH1 0xA0 SWAP2 SWAP1 SWAP2 SHL PUSH2 0xFFFF PUSH1 0xA0 SHL AND OR SWAP1 SSTORE POP JUMP JUMPDEST PUSH1 0x20 DUP1 DUP3 MSTORE DUP2 DUP2 ADD DUP4 SWAP1 MSTORE PUSH1 0x0 SWAP1 PUSH1 0x40 DUP1 DUP5 ADD DUP7 DUP5 JUMPDEST DUP8 DUP2 LT ISZERO PUSH2 0x1512 JUMPI DUP2 CALLDATALOAD PUSH2 0x16A3 DUP2 PUSH2 0x1313 JUMP JUMPDEST PUSH1 0x1 PUSH1 0x1 PUSH1 0xA0 SHL SUB AND DUP4 MSTORE DUP2 DUP6 ADD CALLDATALOAD PUSH2 0x16BB DUP2 PUSH2 0x15F3 JUMP JUMPDEST PUSH2 0xFFFF AND DUP4 DUP7 ADD MSTORE SWAP2 DUP4 ADD SWAP2 SWAP1 DUP4 ADD SWAP1 PUSH1 0x1 ADD PUSH2 0x1690 JUMP JUMPDEST DUP1 DUP3 MUL DUP2 ISZERO DUP3 DUP3 DIV DUP5 EQ OR PUSH2 0x1220 JUMPI PUSH2 0x1220 PUSH2 0x156C JUMP JUMPDEST PUSH1 0x0 DUP3 PUSH2 0x1707 JUMPI PUSH4 0x4E487B71 PUSH1 0xE0 SHL PUSH1 0x0 MSTORE PUSH1 0x12 PUSH1 0x4 MSTORE PUSH1 0x24 PUSH1 0x0 REVERT JUMPDEST POP DIV SWAP1 JUMP JUMPDEST DUP2 DUP2 SUB DUP2 DUP2 GT ISZERO PUSH2 0x1220 JUMPI PUSH2 0x1220 PUSH2 0x156C JUMP JUMPDEST PUSH4 0x4E487B71 PUSH1 0xE0 SHL PUSH1 0x0 MSTORE PUSH1 0x41 PUSH1 0x4 MSTORE PUSH1 0x24 PUSH1 0x0 REVERT INVALID LOG2 PUSH5 0x6970667358 0x22 SLT KECCAK256 0xD9 CALLDATASIZE 0xC PUSH14 0xF013F585F773AB8FEA6D4C3D671B GASPRICE PREVRANDAO 0xE0 0xF9 0xD5 LOG3 0xC7 PUSH4 0x21EF15B3 CODESIZE PUSH2 0x6473 PUSH16 0x6C634300081300330000000000000000 "},"methodIdentifiers":{"admin()":"f851a440","calculateRequiredDeposits(uint256)":"8f9f8b01","composition(uint256)":"d58f0263","controller()":"f77c4791","depositAsset(address,uint256)":"46a5d043","deposits(address,address)":"8f601f66","getComposition()":"08d72102","getDeposit(address,address)":"c35082a9","htsAddress()":"f66be673","indexToken()":"e7d015f2","receiveMint(address,uint256)":"746b9345","setComposition((address,uint16)[])":"4c881073","setIndexToken(address)":"b82a35c5","updateAdmin(address)":"e2f273bd","updateController(address)":"06cb5b66","validateMint(address,uint256)":"b9d527c6"}}}}}