{"contracts/SimpleTokenMinter.sol":{"SimpleTokenMinter":{"abi":[{"inputs":[],"stateMutability":"nonpayable","type":"constructor"},{"inputs":[{"internalType":"string","name":"operation","type":"string"},{"internalType":"int64","name":"responseCode","type":"int64"}],"name":"HTSOperationFailed","type":"error"},{"inputs":[],"name":"InvalidAmount","type":"error"},{"inputs":[],"name":"TokenNotSet","type":"error"},{"anonymous":false,"inputs":[{"indexed":false,"internalType":"address","name":"token","type":"address"},{"indexed":false,"internalType":"int64","name":"amount","type":"int64"},{"indexed":false,"internalType":"int64","name":"responseCode","type":"int64"}],"name":"MintFailed","type":"event"},{"anonymous":false,"inputs":[{"indexed":false,"internalType":"address","name":"token","type":"address"},{"indexed":false,"internalType":"int64","name":"amount","type":"int64"},{"indexed":false,"internalType":"int64","name":"responseCode","type":"int64"},{"indexed":false,"internalType":"int64","name":"newTotalSupply","type":"int64"}],"name":"MintSuccessful","type":"event"},{"anonymous":false,"inputs":[{"indexed":false,"internalType":"address","name":"token","type":"address"},{"indexed":false,"internalType":"int64","name":"responseCode","type":"int64"}],"name":"TokenAssociated","type":"event"},{"anonymous":false,"inputs":[{"indexed":false,"internalType":"address","name":"token","type":"address"}],"name":"TokenSet","type":"event"},{"inputs":[],"name":"associateTokens","outputs":[],"stateMutability":"nonpayable","type":"function"},{"inputs":[],"name":"checkAssociation","outputs":[{"internalType":"bool","name":"","type":"bool"}],"stateMutability":"nonpayable","type":"function"},{"inputs":[{"internalType":"int64","name":"amount","type":"int64"}],"name":"mintTokens","outputs":[],"stateMutability":"nonpayable","type":"function"},{"inputs":[{"internalType":"address","name":"_tokenAddress","type":"address"}],"name":"setTokenAddress","outputs":[],"stateMutability":"nonpayable","type":"function"},{"inputs":[],"name":"tokenAddress","outputs":[{"internalType":"address","name":"","type":"address"}],"stateMutability":"view","type":"function"},{"stateMutability":"payable","type":"receive"}],"evm":{"bytecode":{"linkReferences":{},"object":"608060405234801561001057600080fd5b50600080546001600160a01b031916610167179055610845806100346000396000f3fe60806040526004361061004e5760003560e01c806310ca0bce1461005a57806326a4e8d21461007157806359288690146100915780639d76ea58146100bb578063b62bca7a146100f357600080fd5b3661005557005b600080fd5b34801561006657600080fd5b5061006f610113565b005b34801561007d57600080fd5b5061006f61008c366004610596565b610271565b34801561009d57600080fd5b506100a66102c5565b60405190151581526020015b60405180910390f35b3480156100c757600080fd5b506001546100db906001600160a01b031681565b6040516001600160a01b0390911681526020016100b2565b3480156100ff57600080fd5b5061006f61010e3660046105d5565b61038b565b6001546001600160a01b031661013c57604051634b62f01360e01b815260040160405180910390fd5b6000805460015460405163248a35ef60e11b81523060048201526001600160a01b0391821660248201529116906349146bde906044016020604051808303816000875af1158015610191573d6000803e3d6000fd5b505050506040513d601f19601f820116820180604052508101906101b59190610602565b600154604080516001600160a01b039092168252600783900b60208301529192507f67ffbb4c78b48980b096bba60e2f42b06e9f89d70c4c458668c902f696571ec8910160405180910390a1600781900b60161480159061021b5750600781900b60c214155b1561026e576040805163016146c160e61b8152600481019190915260116044820152702a37b5b2b71030b9b9b7b1b4b0ba34b7b760791b6064820152600782900b60248201526084015b60405180910390fd5b50565b600180546001600160a01b0319166001600160a01b0383169081179091556040519081527fa07c91c183e42229e705a9795a1c06d76528b673788b849597364528c96eefb79060200160405180910390a150565b6001546000906001600160a01b03166102f157604051634b62f01360e01b815260040160405180910390fd5b60008054600154604051630d9f324960e31b81523060048201526001600160a01b03918216602482015283929190911690636cf992489060440160408051808303816000875af1158015610349573d6000803e3d6000fd5b505050506040513d601f19601f8201168201806040525081019061036d919061061f565b91509150601660030b8260070b1480156103845750805b9250505090565b6001546001600160a01b03166103b457604051634b62f01360e01b815260040160405180910390fd5b60008160070b136103d85760405163162908e360e11b815260040160405180910390fd5b6040805160008082526020820190925281610403565b60608152602001906001900390816103ee5790505b506000805460015460405163707a02cd60e11b81529394509192839283926001600160a01b039081169263e0f4059a9261044592169089908990600401610674565b6000604051808303816000875af1158015610464573d6000803e3d6000fd5b505050506040513d6000823e601f3d908101601f1916820160405261048c9190810190610720565b925092509250601660030b8360070b036104fd57600154604080516001600160a01b039092168252600787810b602084015285810b8383015284900b6060830152517f0a5f0e5e2bb4d2376c1912596aab8835f98513480a8d3c02a9775b5910c9535d9181900360800190a161058f565b600154604080516001600160a01b039092168252600787810b602084015285900b82820152517fa0c28231fbf5f65cb3142f80ce2a58f04dbac77fa126a08a2b4b3a08be0c60899181900360600190a16040805163016146c160e61b81526004810191909152600a604482015269151bdad95b881b5a5b9d60b21b6064820152600784900b6024820152608401610265565b5050505050565b6000602082840312156105a857600080fd5b81356001600160a01b03811681146105bf57600080fd5b9392505050565b8060070b811461026e57600080fd5b6000602082840312156105e757600080fd5b81356105bf816105c6565b80516105fd816105c6565b919050565b60006020828403121561061457600080fd5b81516105bf816105c6565b6000806040838503121561063257600080fd5b825161063d816105c6565b6020840151909250801515811461065357600080fd5b809150509250929050565b634e487b7160e01b600052604160045260246000fd5b60006060820160018060a01b038616835260208560070b818501526060604085015281855180845260808601915060808160051b87010193508287016000805b8381101561071057888703607f1901855282518051808952835b818110156106e9578281018901518a82018a015288016106ce565b508881018801849052601f01601f19169097018601965093850193918501916001016106b4565b50949a9950505050505050505050565b60008060006060848603121561073557600080fd5b8351610740816105c6565b80935050602080850151610753816105c6565b604086015190935067ffffffffffffffff8082111561077157600080fd5b818701915087601f83011261078557600080fd5b8151818111156107975761079761065e565b8060051b604051601f19603f830116810181811085821117156107bc576107bc61065e565b60405291825284820192508381018501918a8311156107da57600080fd5b938501935b828510156107ff576107f0856105f2565b845293850193928501926107df565b809650505050505050925092509256fea26469706673582212205eec9f30c3d5c468bdbdda6c0a7e17601d535f6788e8174fe5c4a41fa62dc6d464736f6c63430008130033","opcodes":"PUSH1 0x80 PUSH1 0x40 MSTORE CALLVALUE DUP1 ISZERO PUSH2 0x10 JUMPI PUSH1 0x0 DUP1 REVERT JUMPDEST POP PUSH1 0x0 DUP1 SLOAD PUSH1 0x1 PUSH1 0x1 PUSH1 0xA0 SHL SUB NOT AND PUSH2 0x167 OR SWAP1 SSTORE PUSH2 0x845 DUP1 PUSH2 0x34 PUSH1 0x0 CODECOPY PUSH1 0x0 RETURN INVALID PUSH1 0x80 PUSH1 0x40 MSTORE PUSH1 0x4 CALLDATASIZE LT PUSH2 0x4E JUMPI PUSH1 0x0 CALLDATALOAD PUSH1 0xE0 SHR DUP1 PUSH4 0x10CA0BCE EQ PUSH2 0x5A JUMPI DUP1 PUSH4 0x26A4E8D2 EQ PUSH2 0x71 JUMPI DUP1 PUSH4 0x59288690 EQ PUSH2 0x91 JUMPI DUP1 PUSH4 0x9D76EA58 EQ PUSH2 0xBB JUMPI DUP1 PUSH4 0xB62BCA7A EQ PUSH2 0xF3 JUMPI PUSH1 0x0 DUP1 REVERT JUMPDEST CALLDATASIZE PUSH2 0x55 JUMPI STOP JUMPDEST PUSH1 0x0 DUP1 REVERT JUMPDEST CALLVALUE DUP1 ISZERO PUSH2 0x66 JUMPI PUSH1 0x0 DUP1 REVERT JUMPDEST POP PUSH2 0x6F PUSH2 0x113 JUMP JUMPDEST STOP JUMPDEST CALLVALUE DUP1 ISZERO PUSH2 0x7D JUMPI PUSH1 0x0 DUP1 REVERT JUMPDEST POP PUSH2 0x6F PUSH2 0x8C CALLDATASIZE PUSH1 0x4 PUSH2 0x596 JUMP JUMPDEST PUSH2 0x271 JUMP JUMPDEST CALLVALUE DUP1 ISZERO PUSH2 0x9D JUMPI PUSH1 0x0 DUP1 REVERT JUMPDEST POP PUSH2 0xA6 PUSH2 0x2C5 JUMP JUMPDEST PUSH1 0x40 MLOAD SWAP1 ISZERO ISZERO DUP2 MSTORE PUSH1 0x20 ADD JUMPDEST PUSH1 0x40 MLOAD DUP1 SWAP2 SUB SWAP1 RETURN JUMPDEST CALLVALUE DUP1 ISZERO PUSH2 0xC7 JUMPI PUSH1 0x0 DUP1 REVERT JUMPDEST POP PUSH1 0x1 SLOAD PUSH2 0xDB SWAP1 PUSH1 0x1 PUSH1 0x1 PUSH1 0xA0 SHL SUB AND DUP2 JUMP JUMPDEST PUSH1 0x40 MLOAD PUSH1 0x1 PUSH1 0x1 PUSH1 0xA0 SHL SUB SWAP1 SWAP2 AND DUP2 MSTORE PUSH1 0x20 ADD PUSH2 0xB2 JUMP JUMPDEST CALLVALUE DUP1 ISZERO PUSH2 0xFF JUMPI PUSH1 0x0 DUP1 REVERT JUMPDEST POP PUSH2 0x6F PUSH2 0x10E CALLDATASIZE PUSH1 0x4 PUSH2 0x5D5 JUMP JUMPDEST PUSH2 0x38B JUMP JUMPDEST PUSH1 0x1 SLOAD PUSH1 0x1 PUSH1 0x1 PUSH1 0xA0 SHL SUB AND PUSH2 0x13C JUMPI PUSH1 0x40 MLOAD PUSH4 0x4B62F013 PUSH1 0xE0 SHL DUP2 MSTORE PUSH1 0x4 ADD PUSH1 0x40 MLOAD DUP1 SWAP2 SUB SWAP1 REVERT JUMPDEST PUSH1 0x0 DUP1 SLOAD PUSH1 0x1 SLOAD PUSH1 0x40 MLOAD PUSH4 0x248A35EF PUSH1 0xE1 SHL DUP2 MSTORE ADDRESS PUSH1 0x4 DUP3 ADD MSTORE PUSH1 0x1 PUSH1 0x1 PUSH1 0xA0 SHL SUB SWAP2 DUP3 AND PUSH1 0x24 DUP3 ADD MSTORE SWAP2 AND SWAP1 PUSH4 0x49146BDE SWAP1 PUSH1 0x44 ADD PUSH1 0x20 PUSH1 0x40 MLOAD DUP1 DUP4 SUB DUP2 PUSH1 0x0 DUP8 GAS CALL ISZERO DUP1 ISZERO PUSH2 0x191 JUMPI RETURNDATASIZE PUSH1 0x0 DUP1 RETURNDATACOPY RETURNDATASIZE PUSH1 0x0 REVERT JUMPDEST POP POP POP POP PUSH1 0x40 MLOAD RETURNDATASIZE PUSH1 0x1F NOT PUSH1 0x1F DUP3 ADD AND DUP3 ADD DUP1 PUSH1 0x40 MSTORE POP DUP2 ADD SWAP1 PUSH2 0x1B5 SWAP2 SWAP1 PUSH2 0x602 JUMP JUMPDEST PUSH1 0x1 SLOAD PUSH1 0x40 DUP1 MLOAD PUSH1 0x1 PUSH1 0x1 PUSH1 0xA0 SHL SUB SWAP1 SWAP3 AND DUP3 MSTORE PUSH1 0x7 DUP4 SWAP1 SIGNEXTEND PUSH1 0x20 DUP4 ADD MSTORE SWAP2 SWAP3 POP PUSH32 0x67FFBB4C78B48980B096BBA60E2F42B06E9F89D70C4C458668C902F696571EC8 SWAP2 ADD PUSH1 0x40 MLOAD DUP1 SWAP2 SUB SWAP1 LOG1 PUSH1 0x7 DUP2 SWAP1 SIGNEXTEND PUSH1 0x16 EQ DUP1 ISZERO SWAP1 PUSH2 0x21B JUMPI POP PUSH1 0x7 DUP2 SWAP1 SIGNEXTEND PUSH1 0xC2 EQ ISZERO JUMPDEST ISZERO PUSH2 0x26E JUMPI PUSH1 0x40 DUP1 MLOAD PUSH4 0x16146C1 PUSH1 0xE6 SHL DUP2 MSTORE PUSH1 0x4 DUP2 ADD SWAP2 SWAP1 SWAP2 MSTORE PUSH1 0x11 PUSH1 0x44 DUP3 ADD MSTORE PUSH17 0x2A37B5B2B71030B9B9B7B1B4B0BA34B7B7 PUSH1 0x79 SHL PUSH1 0x64 DUP3 ADD MSTORE PUSH1 0x7 DUP3 SWAP1 SIGNEXTEND PUSH1 0x24 DUP3 ADD MSTORE PUSH1 0x84 ADD JUMPDEST PUSH1 0x40 MLOAD DUP1 SWAP2 SUB SWAP1 REVERT JUMPDEST POP JUMP JUMPDEST PUSH1 0x1 DUP1 SLOAD PUSH1 0x1 PUSH1 0x1 PUSH1 0xA0 SHL SUB NOT AND PUSH1 0x1 PUSH1 0x1 PUSH1 0xA0 SHL SUB DUP4 AND SWAP1 DUP2 OR SWAP1 SWAP2 SSTORE PUSH1 0x40 MLOAD SWAP1 DUP2 MSTORE PUSH32 0xA07C91C183E42229E705A9795A1C06D76528B673788B849597364528C96EEFB7 SWAP1 PUSH1 0x20 ADD PUSH1 0x40 MLOAD DUP1 SWAP2 SUB SWAP1 LOG1 POP JUMP JUMPDEST PUSH1 0x1 SLOAD PUSH1 0x0 SWAP1 PUSH1 0x1 PUSH1 0x1 PUSH1 0xA0 SHL SUB AND PUSH2 0x2F1 JUMPI PUSH1 0x40 MLOAD PUSH4 0x4B62F013 PUSH1 0xE0 SHL DUP2 MSTORE PUSH1 0x4 ADD PUSH1 0x40 MLOAD DUP1 SWAP2 SUB SWAP1 REVERT JUMPDEST PUSH1 0x0 DUP1 SLOAD PUSH1 0x1 SLOAD PUSH1 0x40 MLOAD PUSH4 0xD9F3249 PUSH1 0xE3 SHL DUP2 MSTORE ADDRESS PUSH1 0x4 DUP3 ADD MSTORE PUSH1 0x1 PUSH1 0x1 PUSH1 0xA0 SHL SUB SWAP2 DUP3 AND PUSH1 0x24 DUP3 ADD MSTORE DUP4 SWAP3 SWAP2 SWAP1 SWAP2 AND SWAP1 PUSH4 0x6CF99248 SWAP1 PUSH1 0x44 ADD PUSH1 0x40 DUP1 MLOAD DUP1 DUP4 SUB DUP2 PUSH1 0x0 DUP8 GAS CALL ISZERO DUP1 ISZERO PUSH2 0x349 JUMPI RETURNDATASIZE PUSH1 0x0 DUP1 RETURNDATACOPY RETURNDATASIZE PUSH1 0x0 REVERT JUMPDEST POP POP POP POP PUSH1 0x40 MLOAD RETURNDATASIZE PUSH1 0x1F NOT PUSH1 0x1F DUP3 ADD AND DUP3 ADD DUP1 PUSH1 0x40 MSTORE POP DUP2 ADD SWAP1 PUSH2 0x36D SWAP2 SWAP1 PUSH2 0x61F JUMP JUMPDEST SWAP2 POP SWAP2 POP PUSH1 0x16 PUSH1 0x3 SIGNEXTEND DUP3 PUSH1 0x7 SIGNEXTEND EQ DUP1 ISZERO PUSH2 0x384 JUMPI POP DUP1 JUMPDEST SWAP3 POP POP POP SWAP1 JUMP JUMPDEST PUSH1 0x1 SLOAD PUSH1 0x1 PUSH1 0x1 PUSH1 0xA0 SHL SUB AND PUSH2 0x3B4 JUMPI PUSH1 0x40 MLOAD PUSH4 0x4B62F013 PUSH1 0xE0 SHL DUP2 MSTORE PUSH1 0x4 ADD PUSH1 0x40 MLOAD DUP1 SWAP2 SUB SWAP1 REVERT JUMPDEST PUSH1 0x0 DUP2 PUSH1 0x7 SIGNEXTEND SGT PUSH2 0x3D8 JUMPI PUSH1 0x40 MLOAD PUSH4 0x162908E3 PUSH1 0xE1 SHL DUP2 MSTORE PUSH1 0x4 ADD PUSH1 0x40 MLOAD DUP1 SWAP2 SUB SWAP1 REVERT JUMPDEST PUSH1 0x40 DUP1 MLOAD PUSH1 0x0 DUP1 DUP3 MSTORE PUSH1 0x20 DUP3 ADD SWAP1 SWAP3 MSTORE DUP2 PUSH2 0x403 JUMP JUMPDEST PUSH1 0x60 DUP2 MSTORE PUSH1 0x20 ADD SWAP1 PUSH1 0x1 SWAP1 SUB SWAP1 DUP2 PUSH2 0x3EE JUMPI SWAP1 POP JUMPDEST POP PUSH1 0x0 DUP1 SLOAD PUSH1 0x1 SLOAD PUSH1 0x40 MLOAD PUSH4 0x707A02CD PUSH1 0xE1 SHL DUP2 MSTORE SWAP4 SWAP5 POP SWAP2 SWAP3 DUP4 SWAP3 DUP4 SWAP3 PUSH1 0x1 PUSH1 0x1 PUSH1 0xA0 SHL SUB SWAP1 DUP2 AND SWAP3 PUSH4 0xE0F4059A SWAP3 PUSH2 0x445 SWAP3 AND SWAP1 DUP10 SWAP1 DUP10 SWAP1 PUSH1 0x4 ADD PUSH2 0x674 JUMP JUMPDEST PUSH1 0x0 PUSH1 0x40 MLOAD DUP1 DUP4 SUB DUP2 PUSH1 0x0 DUP8 GAS CALL ISZERO DUP1 ISZERO PUSH2 0x464 JUMPI RETURNDATASIZE PUSH1 0x0 DUP1 RETURNDATACOPY RETURNDATASIZE PUSH1 0x0 REVERT JUMPDEST POP POP POP POP PUSH1 0x40 MLOAD RETURNDATASIZE PUSH1 0x0 DUP3 RETURNDATACOPY PUSH1 0x1F RETURNDATASIZE SWAP1 DUP2 ADD PUSH1 0x1F NOT AND DUP3 ADD PUSH1 0x40 MSTORE PUSH2 0x48C SWAP2 SWAP1 DUP2 ADD SWAP1 PUSH2 0x720 JUMP JUMPDEST SWAP3 POP SWAP3 POP SWAP3 POP PUSH1 0x16 PUSH1 0x3 SIGNEXTEND DUP4 PUSH1 0x7 SIGNEXTEND SUB PUSH2 0x4FD JUMPI PUSH1 0x1 SLOAD PUSH1 0x40 DUP1 MLOAD PUSH1 0x1 PUSH1 0x1 PUSH1 0xA0 SHL SUB SWAP1 SWAP3 AND DUP3 MSTORE PUSH1 0x7 DUP8 DUP2 SIGNEXTEND PUSH1 0x20 DUP5 ADD MSTORE DUP6 DUP2 SIGNEXTEND DUP4 DUP4 ADD MSTORE DUP5 SWAP1 SIGNEXTEND PUSH1 0x60 DUP4 ADD MSTORE MLOAD PUSH32 0xA5F0E5E2BB4D2376C1912596AAB8835F98513480A8D3C02A9775B5910C9535D SWAP2 DUP2 SWAP1 SUB PUSH1 0x80 ADD SWAP1 LOG1 PUSH2 0x58F JUMP JUMPDEST PUSH1 0x1 SLOAD PUSH1 0x40 DUP1 MLOAD PUSH1 0x1 PUSH1 0x1 PUSH1 0xA0 SHL SUB SWAP1 SWAP3 AND DUP3 MSTORE PUSH1 0x7 DUP8 DUP2 SIGNEXTEND PUSH1 0x20 DUP5 ADD MSTORE DUP6 SWAP1 SIGNEXTEND DUP3 DUP3 ADD MSTORE MLOAD PUSH32 0xA0C28231FBF5F65CB3142F80CE2A58F04DBAC77FA126A08A2B4B3A08BE0C6089 SWAP2 DUP2 SWAP1 SUB PUSH1 0x60 ADD SWAP1 LOG1 PUSH1 0x40 DUP1 MLOAD PUSH4 0x16146C1 PUSH1 0xE6 SHL DUP2 MSTORE PUSH1 0x4 DUP2 ADD SWAP2 SWAP1 SWAP2 MSTORE PUSH1 0xA PUSH1 0x44 DUP3 ADD MSTORE PUSH10 0x151BDAD95B881B5A5B9D PUSH1 0xB2 SHL PUSH1 0x64 DUP3 ADD MSTORE PUSH1 0x7 DUP5 SWAP1 SIGNEXTEND PUSH1 0x24 DUP3 ADD MSTORE PUSH1 0x84 ADD PUSH2 0x265 JUMP JUMPDEST POP POP POP POP POP JUMP JUMPDEST PUSH1 0x0 PUSH1 0x20 DUP3 DUP5 SUB SLT ISZERO PUSH2 0x5A8 JUMPI PUSH1 0x0 DUP1 REVERT JUMPDEST DUP2 CALLDATALOAD PUSH1 0x1 PUSH1 0x1 PUSH1 0xA0 SHL SUB DUP2 AND DUP2 EQ PUSH2 0x5BF JUMPI PUSH1 0x0 DUP1 REVERT JUMPDEST SWAP4 SWAP3 POP POP POP JUMP JUMPDEST DUP1 PUSH1 0x7 SIGNEXTEND DUP2 EQ PUSH2 0x26E JUMPI PUSH1 0x0 DUP1 REVERT JUMPDEST PUSH1 0x0 PUSH1 0x20 DUP3 DUP5 SUB SLT ISZERO PUSH2 0x5E7 JUMPI PUSH1 0x0 DUP1 REVERT JUMPDEST DUP2 CALLDATALOAD PUSH2 0x5BF DUP2 PUSH2 0x5C6 JUMP JUMPDEST DUP1 MLOAD PUSH2 0x5FD DUP2 PUSH2 0x5C6 JUMP JUMPDEST SWAP2 SWAP1 POP JUMP JUMPDEST PUSH1 0x0 PUSH1 0x20 DUP3 DUP5 SUB SLT ISZERO PUSH2 0x614 JUMPI PUSH1 0x0 DUP1 REVERT JUMPDEST DUP2 MLOAD PUSH2 0x5BF DUP2 PUSH2 0x5C6 JUMP JUMPDEST PUSH1 0x0 DUP1 PUSH1 0x40 DUP4 DUP6 SUB SLT ISZERO PUSH2 0x632 JUMPI PUSH1 0x0 DUP1 REVERT JUMPDEST DUP3 MLOAD PUSH2 0x63D DUP2 PUSH2 0x5C6 JUMP JUMPDEST PUSH1 0x20 DUP5 ADD MLOAD SWAP1 SWAP3 POP DUP1 ISZERO ISZERO DUP2 EQ PUSH2 0x653 JUMPI PUSH1 0x0 DUP1 REVERT JUMPDEST DUP1 SWAP2 POP POP SWAP3 POP SWAP3 SWAP1 POP JUMP JUMPDEST PUSH4 0x4E487B71 PUSH1 0xE0 SHL PUSH1 0x0 MSTORE PUSH1 0x41 PUSH1 0x4 MSTORE PUSH1 0x24 PUSH1 0x0 REVERT JUMPDEST PUSH1 0x0 PUSH1 0x60 DUP3 ADD PUSH1 0x1 DUP1 PUSH1 0xA0 SHL SUB DUP7 AND DUP4 MSTORE PUSH1 0x20 DUP6 PUSH1 0x7 SIGNEXTEND DUP2 DUP6 ADD MSTORE PUSH1 0x60 PUSH1 0x40 DUP6 ADD MSTORE DUP2 DUP6 MLOAD DUP1 DUP5 MSTORE PUSH1 0x80 DUP7 ADD SWAP2 POP PUSH1 0x80 DUP2 PUSH1 0x5 SHL DUP8 ADD ADD SWAP4 POP DUP3 DUP8 ADD PUSH1 0x0 DUP1 JUMPDEST DUP4 DUP2 LT ISZERO PUSH2 0x710 JUMPI DUP9 DUP8 SUB PUSH1 0x7F NOT ADD DUP6 MSTORE DUP3 MLOAD DUP1 MLOAD DUP1 DUP10 MSTORE DUP4 JUMPDEST DUP2 DUP2 LT ISZERO PUSH2 0x6E9 JUMPI DUP3 DUP2 ADD DUP10 ADD MLOAD DUP11 DUP3 ADD DUP11 ADD MSTORE DUP9 ADD PUSH2 0x6CE JUMP JUMPDEST POP DUP9 DUP2 ADD DUP9 ADD DUP5 SWAP1 MSTORE PUSH1 0x1F ADD PUSH1 0x1F NOT AND SWAP1 SWAP8 ADD DUP7 ADD SWAP7 POP SWAP4 DUP6 ADD SWAP4 SWAP2 DUP6 ADD SWAP2 PUSH1 0x1 ADD PUSH2 0x6B4 JUMP JUMPDEST POP SWAP5 SWAP11 SWAP10 POP POP POP POP POP POP POP POP POP POP JUMP JUMPDEST PUSH1 0x0 DUP1 PUSH1 0x0 PUSH1 0x60 DUP5 DUP7 SUB SLT ISZERO PUSH2 0x735 JUMPI PUSH1 0x0 DUP1 REVERT JUMPDEST DUP4 MLOAD PUSH2 0x740 DUP2 PUSH2 0x5C6 JUMP JUMPDEST DUP1 SWAP4 POP POP PUSH1 0x20 DUP1 DUP6 ADD MLOAD PUSH2 0x753 DUP2 PUSH2 0x5C6 JUMP JUMPDEST PUSH1 0x40 DUP7 ADD MLOAD SWAP1 SWAP4 POP PUSH8 0xFFFFFFFFFFFFFFFF DUP1 DUP3 GT ISZERO PUSH2 0x771 JUMPI PUSH1 0x0 DUP1 REVERT JUMPDEST DUP2 DUP8 ADD SWAP2 POP DUP8 PUSH1 0x1F DUP4 ADD SLT PUSH2 0x785 JUMPI PUSH1 0x0 DUP1 REVERT JUMPDEST DUP2 MLOAD DUP2 DUP2 GT ISZERO PUSH2 0x797 JUMPI PUSH2 0x797 PUSH2 0x65E JUMP JUMPDEST DUP1 PUSH1 0x5 SHL PUSH1 0x40 MLOAD PUSH1 0x1F NOT PUSH1 0x3F DUP4 ADD AND DUP2 ADD DUP2 DUP2 LT DUP6 DUP3 GT OR ISZERO PUSH2 0x7BC JUMPI PUSH2 0x7BC PUSH2 0x65E JUMP JUMPDEST PUSH1 0x40 MSTORE SWAP2 DUP3 MSTORE DUP5 DUP3 ADD SWAP3 POP DUP4 DUP2 ADD DUP6 ADD SWAP2 DUP11 DUP4 GT ISZERO PUSH2 0x7DA JUMPI PUSH1 0x0 DUP1 REVERT JUMPDEST SWAP4 DUP6 ADD SWAP4 JUMPDEST DUP3 DUP6 LT ISZERO PUSH2 0x7FF JUMPI PUSH2 0x7F0 DUP6 PUSH2 0x5F2 JUMP JUMPDEST DUP5 MSTORE SWAP4 DUP6 ADD SWAP4 SWAP3 DUP6 ADD SWAP3 PUSH2 0x7DF JUMP JUMPDEST DUP1 SWAP7 POP POP POP POP POP POP POP SWAP3 POP SWAP3 POP SWAP3 JUMP INVALID LOG2 PUSH5 0x6970667358 0x22 SLT KECCAK256 0x5E 0xEC SWAP16 ADDRESS 0xC3 0xD5 0xC4 PUSH9 0xBDBDDA6C0A7E17601D MSTORE8 0x5F PUSH8 0x88E8174FE5C4A41F 0xA6 0x2D 0xC6 0xD4 PUSH5 0x736F6C6343 STOP ADDMOD SGT STOP CALLER "},"methodIdentifiers":{"associateTokens()":"10ca0bce","checkAssociation()":"59288690","mintTokens(int64)":"b62bca7a","setTokenAddress(address)":"26a4e8d2","tokenAddress()":"9d76ea58"}}}}}