{"contracts/DepositMinter.sol":{"DepositMinter":{"abi":[{"inputs":[{"internalType":"address","name":"lynxToken","type":"address"},{"internalType":"address","name":"sauceToken","type":"address"},{"internalType":"address","name":"clxyToken","type":"address"},{"internalType":"address","name":"treasury","type":"address"}],"stateMutability":"nonpayable","type":"constructor"},{"inputs":[{"internalType":"string","name":"operation","type":"string"},{"internalType":"int64","name":"responseCode","type":"int64"}],"name":"HTSOperationFailed","type":"error"},{"inputs":[{"internalType":"string","name":"tokenType","type":"string"},{"internalType":"uint256","name":"required","type":"uint256"},{"internalType":"uint256","name":"provided","type":"uint256"}],"name":"InsufficientDeposit","type":"error"},{"inputs":[],"name":"InvalidAmount","type":"error"},{"inputs":[],"name":"OnlyAdmin","type":"error"},{"inputs":[{"internalType":"string","name":"tokenType","type":"string"}],"name":"TokenNotSet","type":"error"},{"anonymous":false,"inputs":[{"indexed":true,"internalType":"address","name":"user","type":"address"},{"indexed":false,"internalType":"uint256","name":"sauceAmount","type":"uint256"},{"indexed":false,"internalType":"uint256","name":"clxyAmount","type":"uint256"}],"name":"DepositsProcessed","type":"event"},{"anonymous":false,"inputs":[{"indexed":true,"internalType":"address","name":"user","type":"address"},{"indexed":false,"internalType":"uint256","name":"lynxAmount","type":"uint256"}],"name":"LynxMinted","type":"event"},{"anonymous":false,"inputs":[{"indexed":true,"internalType":"address","name":"user","type":"address"},{"indexed":false,"internalType":"uint256","name":"lynxAmount","type":"uint256"},{"indexed":false,"internalType":"uint256","name":"lynxBaseUnits","type":"uint256"}],"name":"MintAttempt","type":"event"},{"anonymous":false,"inputs":[{"indexed":false,"internalType":"int64","name":"responseCode","type":"int64"},{"indexed":false,"internalType":"int64","name":"newTotalSupply","type":"int64"}],"name":"MintResult","type":"event"},{"anonymous":false,"inputs":[{"indexed":false,"internalType":"address","name":"token","type":"address"},{"indexed":false,"internalType":"int64","name":"responseCode","type":"int64"}],"name":"TokensAssociated","type":"event"},{"anonymous":false,"inputs":[{"indexed":true,"internalType":"address","name":"user","type":"address"},{"indexed":false,"internalType":"uint256","name":"sauceAmount","type":"uint256"},{"indexed":false,"internalType":"uint256","name":"clxyAmount","type":"uint256"},{"indexed":false,"internalType":"uint256","name":"hbarAmount","type":"uint256"}],"name":"TokensDeposited","type":"event"},{"anonymous":false,"inputs":[{"indexed":false,"internalType":"address","name":"from","type":"address"},{"indexed":false,"internalType":"address","name":"to","type":"address"},{"indexed":false,"internalType":"uint256","name":"amount","type":"uint256"}],"name":"TransferAttempt","type":"event"},{"anonymous":false,"inputs":[{"indexed":false,"internalType":"int64","name":"responseCode","type":"int64"}],"name":"TransferResult","type":"event"},{"inputs":[],"name":"ADMIN","outputs":[{"internalType":"address","name":"","type":"address"}],"stateMutability":"view","type":"function"},{"inputs":[],"name":"CLXY_DECIMALS","outputs":[{"internalType":"uint8","name":"","type":"uint8"}],"stateMutability":"view","type":"function"},{"inputs":[],"name":"CLXY_RATIO","outputs":[{"internalType":"uint256","name":"","type":"uint256"}],"stateMutability":"view","type":"function"},{"inputs":[],"name":"CLXY_TOKEN","outputs":[{"internalType":"address","name":"","type":"address"}],"stateMutability":"view","type":"function"},{"inputs":[],"name":"HBAR_RATIO","outputs":[{"internalType":"uint256","name":"","type":"uint256"}],"stateMutability":"view","type":"function"},{"inputs":[],"name":"LYNX_DECIMALS","outputs":[{"internalType":"uint8","name":"","type":"uint8"}],"stateMutability":"view","type":"function"},{"inputs":[],"name":"LYNX_TOKEN","outputs":[{"internalType":"address","name":"","type":"address"}],"stateMutability":"view","type":"function"},{"inputs":[],"name":"SAUCE_DECIMALS","outputs":[{"internalType":"uint8","name":"","type":"uint8"}],"stateMutability":"view","type":"function"},{"inputs":[],"name":"SAUCE_RATIO","outputs":[{"internalType":"uint256","name":"","type":"uint256"}],"stateMutability":"view","type":"function"},{"inputs":[],"name":"SAUCE_TOKEN","outputs":[{"internalType":"address","name":"","type":"address"}],"stateMutability":"view","type":"function"},{"inputs":[],"name":"TREASURY","outputs":[{"internalType":"address","name":"","type":"address"}],"stateMutability":"view","type":"function"},{"inputs":[],"name":"associateTokens","outputs":[],"stateMutability":"nonpayable","type":"function"},{"inputs":[{"internalType":"uint256","name":"lynxAmount","type":"uint256"}],"name":"calculateRequiredDeposits","outputs":[{"internalType":"uint256","name":"sauceRequired","type":"uint256"},{"internalType":"uint256","name":"clxyRequired","type":"uint256"},{"internalType":"uint256","name":"hbarRequired","type":"uint256"}],"stateMutability":"pure","type":"function"},{"inputs":[],"name":"checkAssociations","outputs":[{"internalType":"bool","name":"lynxAssociated","type":"bool"},{"internalType":"bool","name":"sauceAssociated","type":"bool"},{"internalType":"bool","name":"clxyAssociated","type":"bool"}],"stateMutability":"nonpayable","type":"function"},{"inputs":[{"internalType":"uint256","name":"amount","type":"uint256"}],"name":"emergencyWithdrawHbar","outputs":[],"stateMutability":"nonpayable","type":"function"},{"inputs":[],"name":"getHbarBalance","outputs":[{"internalType":"uint256","name":"","type":"uint256"}],"stateMutability":"view","type":"function"},{"inputs":[{"internalType":"uint256","name":"lynxAmount","type":"uint256"},{"internalType":"uint256","name":"sauceAmount","type":"uint256"},{"internalType":"uint256","name":"clxyAmount","type":"uint256"}],"name":"mintWithDeposits","outputs":[],"stateMutability":"payable","type":"function"},{"stateMutability":"payable","type":"receive"}],"evm":{"bytecode":{"linkReferences":{},"object":"60806040523480156200001157600080fd5b506040516200159a3803806200159a8339810160408190526200003491620000bc565b600080546001600160a01b031990811661016717909155600180546001600160a01b0396871690831617905560028054948616948216949094179093556003805492851692841692909217909155600480548316331790556005805491909316911617905562000119565b80516001600160a01b0381168114620000b757600080fd5b919050565b60008060008060808587031215620000d357600080fd5b620000de856200009f565b9350620000ee602086016200009f565b9250620000fe604086016200009f565b91506200010e606086016200009f565b905092959194509250565b61147180620001296000396000f3fe6080604052600436106101025760003560e01c80635ea4a9fd1161009557806396cd51d71161006457806396cd51d7146102b6578063d65db297146102cb578063de97b29f146102b6578063e1e99576146102eb578063ef0375931461030b57600080fd5b80635ea4a9fd1461022c5780637bd82c69146102535780638d6be540146102665780638f9f8b011461027b57600080fd5b80632d2c5565116100d15780632d2c5565146101a25780633ed4d3bc146101c25780634924190c146101d55780635af91dab146101f857600080fd5b806310ca0bce1461010e5780631da965c2146101255780631ec65c36146101625780632a0acc6a1461018257600080fd5b3661010957005b600080fd5b34801561011a57600080fd5b50610123610320565b005b34801561013157600080fd5b50600354610145906001600160a01b031681565b6040516001600160a01b0390911681526020015b60405180910390f35b34801561016e57600080fd5b50600254610145906001600160a01b031681565b34801561018e57600080fd5b50600454610145906001600160a01b031681565b3480156101ae57600080fd5b50600554610145906001600160a01b031681565b6101236101d0366004610fb8565b610574565b3480156101e157600080fd5b506101ea600a81565b604051908152602001610159565b34801561020457600080fd5b5061020d610597565b6040805193151584529115156020840152151590820152606001610159565b34801561023857600080fd5b50610241600881565b60405160ff9091168152602001610159565b34801561025f57600080fd5b50476101ea565b34801561027257600080fd5b506101ea600281565b34801561028757600080fd5b5061029b610296366004610fe4565b61076b565b60408051938452602084019290925290820152606001610159565b3480156102c257600080fd5b50610241600681565b3480156102d757600080fd5b506101236102e6366004610fe4565b6107d6565b3480156102f757600080fd5b50600154610145906001600160a01b031681565b34801561031757600080fd5b506101ea600581565b6000805460015460405163248a35ef60e11b81523060048201526001600160a01b0391821660248201529116906349146bde906044016020604051808303816000875af1158015610375573d6000803e3d6000fd5b505050506040513d601f19601f820116820180604052508101906103999190611014565b600154604080516001600160a01b039092168252600783900b60208301529192507f6c452a6a0f6c8613bd46d4bd9a6192b0904a3f33a64c294ba553582502dfd770910160405180910390a16000805460025460405163248a35ef60e11b81523060048201526001600160a01b0391821660248201529116906349146bde906044016020604051808303816000875af115801561043a573d6000803e3d6000fd5b505050506040513d601f19601f8201168201806040525081019061045e9190611014565b600254604080516001600160a01b039092168252600783900b60208301529192507f6c452a6a0f6c8613bd46d4bd9a6192b0904a3f33a64c294ba553582502dfd770910160405180910390a16000805460035460405163248a35ef60e11b81523060048201526001600160a01b0391821660248201529116906349146bde906044016020604051808303816000875af11580156104ff573d6000803e3d6000fd5b505050506040513d601f19601f820116820180604052508101906105239190611014565b600354604080516001600160a01b039092168252600783900b60208301529192507f6c452a6a0f6c8613bd46d4bd9a6192b0904a3f33a64c294ba553582502dfd770910160405180910390a1505050565b61057f838383610894565b6105898282610a4f565b61059283610c75565b505050565b60008054600154604051630d9f324960e31b81523060048201526001600160a01b03918216602482015283928392839283929190911690636cf992489060440160408051808303816000875af11580156105f5573d6000803e3d6000fd5b505050506040513d601f19601f820116820180604052508101906106199190611036565b91509150601660030b8260070b1480156106305750805b60008054600254604051630d9f324960e31b81523060048201526001600160a01b0391821660248201529398509192839290911690636cf992489060440160408051808303816000875af115801561068c573d6000803e3d6000fd5b505050506040513d601f19601f820116820180604052508101906106b09190611036565b91509150601660030b8260070b1480156106c75750805b60008054600354604051630d9f324960e31b81523060048201526001600160a01b0391821660248201529399509192839290911690636cf992489060440160408051808303816000875af1158015610723573d6000803e3d6000fd5b505050506040513d601f19601f820116820180604052508101906107479190611036565b91509150601660030b8260070b14801561075e5750805b9650505050505050909192565b6000808061077b6006600a61116e565b61078660058661117d565b610790919061117d565b925061079e6006600a61116e565b6107a960028661117d565b6107b3919061117d565b91506107c0600a8561117d565b6107ce906305f5e10061117d565b929491935050565b6004546001600160a01b0316331461080157604051634755657960e01b815260040160405180910390fd5b478111156108565760405162461bcd60e51b815260206004820152601960248201527f496e73756666696369656e7420484241522062616c616e63650000000000000060448201526064015b60405180910390fd5b6004546040516001600160a01b039091169082156108fc029083906000818181858888f19350505050158015610890573d6000803e3d6000fd5b5050565b826000036108b55760405163162908e360e11b815260040160405180910390fd5b6001546001600160a01b03166108f7576040516364d2ac4160e01b815260040161084d90602080825260049082015263098b29cb60e31b604082015260600190565b6002546001600160a01b0316610920576040516364d2ac4160e01b815260040161084d90611194565b6003546001600160a01b0316610949576040516364d2ac4160e01b815260040161084d906111b9565b604051638f9f8b0160e01b815260048101849052600090819081903090638f9f8b0190602401606060405180830381865afa15801561098c573d6000803e3d6000fd5b505050506040513d601f19601f820116820180604052508101906109b091906111dd565b925092509250828510156109db57828560405163d5871b2360e01b815260040161084d92919061120b565b81841015610a0057818460405163d5871b2360e01b815260040161084d929190611240565b80341015610a475760405163d5871b2360e01b81526060600480830191909152606482015263242120a960e11b60848201526024810182905234604482015260a40161084d565b505050505050565b6000805460025460405163eca3691760e01b81526001600160a01b039283169263eca3691792610a8a92911690339030908990600401611264565b6020604051808303816000875af1158015610aa9573d6000803e3d6000fd5b505050506040513d601f19601f82011682018060405250810190610acd9190611014565b9050600781900b601614610b21576040805163016146c160e61b81526004810191909152600e60448201526d29a0aaa1a2903a3930b739b332b960911b6064820152600782900b602482015260840161084d565b6000805460035460405163eca3691760e01b81526001600160a01b039283169263eca3691792610b5c92911690339030908990600401611264565b6020604051808303816000875af1158015610b7b573d6000803e3d6000fd5b505050506040513d601f19601f82011682018060405250810190610b9f9190611014565b9050600781900b601614610bf2576040805163016146c160e61b81526004810191909152600d60448201526c21a62c2c903a3930b739b332b960991b6064820152600782900b602482015260840161084d565b604080518581526020810185905233917f02ee9ff3c14d55b621ed1c8de6ec057d9b460ff41cdebedf3ea51962287530f4910160405180910390a260408051858152602081018590523481830152905133917f651b66d4c82e3fedc9c57c6ff8a4cf8c81b8d1cd432d7297773c6edbf6cfb36a919081900360600190a250505050565b6000610c836008600a61116e565b610c8d908361117d565b604080518481526020810183905291925033917fef8f5be9f6e9b6cafe9795e6972d99452d92fdfca92995050eaa9cbbdcd627dc910160405180910390a26040805160008082526020820190925281610cf6565b6060815260200190600190039081610ce15790505b506000805460015460405163707a02cd60e11b8152939450919283926001600160a01b039283169263e0f4059a92610d389290911690889088906004016112a7565b6000604051808303816000875af1158015610d57573d6000803e3d6000fd5b505050506040513d6000823e601f3d908101601f19168201604052610d7f9190810190611353565b5060408051600784810b825283900b60208201529294509092507feeb8b94f7bf115b59d1437edf60f2f07656a1eb52234a1835d90480777c5762c910160405180910390a1600782900b601614610e11576040805163016146c160e61b81526004810191909152600960448201526813165396081b5a5b9d60ba1b6064820152600783900b602482015260840161084d565b600554604080516001600160a01b03909216825233602083015281018590527f883dd34324c5e33f1ce994b8f1652ab425a78c77305f00a08660b05245ed17b39060600160405180910390a16000805460015460055460405163eca3691760e01b81526001600160a01b039384169363eca3691793610e9d939082169291169033908b90600401611264565b6020604051808303816000875af1158015610ebc573d6000803e3d6000fd5b505050506040513d601f19601f82011682018060405250810190610ee09190611014565b604051600782900b81529091507fdba6742b403f91ba4bdac157a4315ca9e09412ea4375f6ebbd570c7676c11f479060200160405180910390a1600781900b601614610f7b576040805163016146c160e61b81526004810191909152601b60448201527f4c594e58207472616e736665722066726f6d20636f6e747261637400000000006064820152600782900b602482015260840161084d565b60405186815233907f465927a4840d7c7d6aa087bb368fe25bed2f96a7de450603903e0331dec0dbb59060200160405180910390a2505050505050565b600080600060608486031215610fcd57600080fd5b505081359360208301359350604090920135919050565b600060208284031215610ff657600080fd5b5035919050565b8051600781900b811461100f57600080fd5b919050565b60006020828403121561102657600080fd5b61102f82610ffd565b9392505050565b6000806040838503121561104957600080fd5b61105283610ffd565b91506020830151801515811461106757600080fd5b809150509250929050565b634e487b7160e01b600052601160045260246000fd5b600181815b808511156110c35781600019048211156110a9576110a9611072565b808516156110b657918102915b93841c939080029061108d565b509250929050565b6000826110da57506001611168565b816110e757506000611168565b81600181146110fd576002811461110757611123565b6001915050611168565b60ff84111561111857611118611072565b50506001821b611168565b5060208310610133831016604e8410600b8410161715611146575081810a611168565b6111508383611088565b806000190482111561116457611164611072565b0290505b92915050565b600061102f60ff8416836110cb565b808202811582820484141761116857611168611072565b602081526000611168602083016005815264534155434560d81b602082015260400190565b602081526000611168602083016004815263434c585960e01b602082015260400190565b6000806000606084860312156111f257600080fd5b8351925060208401519150604084015190509250925092565b606081526000611230606083016005815264534155434560d81b602082015260400190565b6020830194909452506040015290565b606081526000611230606083016004815263434c585960e01b602082015260400190565b6001600160a01b03948516815292841660208401529216604082015260079190910b606082015260800190565b634e487b7160e01b600052604160045260246000fd5b60006060820160018060a01b038616835260208560070b818501526060604085015281855180845260808601915060808160051b87010193508287016000805b8381101561134357888703607f1901855282518051808952835b8181101561131c578281018901518a82018a01528801611301565b508881018801849052601f01601f19169097018601965093850193918501916001016112e7565b50949a9950505050505050505050565b60008060006060848603121561136857600080fd5b61137184610ffd565b92506020611380818601610ffd565b9250604085015167ffffffffffffffff8082111561139d57600080fd5b818701915087601f8301126113b157600080fd5b8151818111156113c3576113c3611291565b8060051b604051601f19603f830116810181811085821117156113e8576113e8611291565b60405291825284820192508381018501918a83111561140657600080fd5b938501935b8285101561142b5761141c85610ffd565b8452938501939285019261140b565b809650505050505050925092509256fea26469706673582212202d90d81a43573f268152a2a6c4dffbf457d1f1b316d611243602a8f6faa0207964736f6c63430008130033","opcodes":"PUSH1 0x80 PUSH1 0x40 MSTORE CALLVALUE DUP1 ISZERO PUSH3 0x11 JUMPI PUSH1 0x0 DUP1 REVERT JUMPDEST POP PUSH1 0x40 MLOAD PUSH3 0x159A CODESIZE SUB DUP1 PUSH3 0x159A DUP4 CODECOPY DUP2 ADD PUSH1 0x40 DUP2 SWAP1 MSTORE PUSH3 0x34 SWAP2 PUSH3 0xBC JUMP JUMPDEST PUSH1 0x0 DUP1 SLOAD PUSH1 0x1 PUSH1 0x1 PUSH1 0xA0 SHL SUB NOT SWAP1 DUP2 AND PUSH2 0x167 OR SWAP1 SWAP2 SSTORE PUSH1 0x1 DUP1 SLOAD PUSH1 0x1 PUSH1 0x1 PUSH1 0xA0 SHL SUB SWAP7 DUP8 AND SWAP1 DUP4 AND OR SWAP1 SSTORE PUSH1 0x2 DUP1 SLOAD SWAP5 DUP7 AND SWAP5 DUP3 AND SWAP5 SWAP1 SWAP5 OR SWAP1 SWAP4 SSTORE PUSH1 0x3 DUP1 SLOAD SWAP3 DUP6 AND SWAP3 DUP5 AND SWAP3 SWAP1 SWAP3 OR SWAP1 SWAP2 SSTORE PUSH1 0x4 DUP1 SLOAD DUP4 AND CALLER OR SWAP1 SSTORE PUSH1 0x5 DUP1 SLOAD SWAP2 SWAP1 SWAP4 AND SWAP2 AND OR SWAP1 SSTORE PUSH3 0x119 JUMP JUMPDEST DUP1 MLOAD PUSH1 0x1 PUSH1 0x1 PUSH1 0xA0 SHL SUB DUP2 AND DUP2 EQ PUSH3 0xB7 JUMPI PUSH1 0x0 DUP1 REVERT JUMPDEST SWAP2 SWAP1 POP JUMP JUMPDEST PUSH1 0x0 DUP1 PUSH1 0x0 DUP1 PUSH1 0x80 DUP6 DUP8 SUB SLT ISZERO PUSH3 0xD3 JUMPI PUSH1 0x0 DUP1 REVERT JUMPDEST PUSH3 0xDE DUP6 PUSH3 0x9F JUMP JUMPDEST SWAP4 POP PUSH3 0xEE PUSH1 0x20 DUP7 ADD PUSH3 0x9F JUMP JUMPDEST SWAP3 POP PUSH3 0xFE PUSH1 0x40 DUP7 ADD PUSH3 0x9F JUMP JUMPDEST SWAP2 POP PUSH3 0x10E PUSH1 0x60 DUP7 ADD PUSH3 0x9F JUMP JUMPDEST SWAP1 POP SWAP3 SWAP6 SWAP2 SWAP5 POP SWAP3 POP JUMP JUMPDEST PUSH2 0x1471 DUP1 PUSH3 0x129 PUSH1 0x0 CODECOPY PUSH1 0x0 RETURN INVALID PUSH1 0x80 PUSH1 0x40 MSTORE PUSH1 0x4 CALLDATASIZE LT PUSH2 0x102 JUMPI PUSH1 0x0 CALLDATALOAD PUSH1 0xE0 SHR DUP1 PUSH4 0x5EA4A9FD GT PUSH2 0x95 JUMPI DUP1 PUSH4 0x96CD51D7 GT PUSH2 0x64 JUMPI DUP1 PUSH4 0x96CD51D7 EQ PUSH2 0x2B6 JUMPI DUP1 PUSH4 0xD65DB297 EQ PUSH2 0x2CB JUMPI DUP1 PUSH4 0xDE97B29F EQ PUSH2 0x2B6 JUMPI DUP1 PUSH4 0xE1E99576 EQ PUSH2 0x2EB JUMPI DUP1 PUSH4 0xEF037593 EQ PUSH2 0x30B JUMPI PUSH1 0x0 DUP1 REVERT JUMPDEST DUP1 PUSH4 0x5EA4A9FD EQ PUSH2 0x22C JUMPI DUP1 PUSH4 0x7BD82C69 EQ PUSH2 0x253 JUMPI DUP1 PUSH4 0x8D6BE540 EQ PUSH2 0x266 JUMPI DUP1 PUSH4 0x8F9F8B01 EQ PUSH2 0x27B JUMPI PUSH1 0x0 DUP1 REVERT JUMPDEST DUP1 PUSH4 0x2D2C5565 GT PUSH2 0xD1 JUMPI DUP1 PUSH4 0x2D2C5565 EQ PUSH2 0x1A2 JUMPI DUP1 PUSH4 0x3ED4D3BC EQ PUSH2 0x1C2 JUMPI DUP1 PUSH4 0x4924190C EQ PUSH2 0x1D5 JUMPI DUP1 PUSH4 0x5AF91DAB EQ PUSH2 0x1F8 JUMPI PUSH1 0x0 DUP1 REVERT JUMPDEST DUP1 PUSH4 0x10CA0BCE EQ PUSH2 0x10E JUMPI DUP1 PUSH4 0x1DA965C2 EQ PUSH2 0x125 JUMPI DUP1 PUSH4 0x1EC65C36 EQ PUSH2 0x162 JUMPI DUP1 PUSH4 0x2A0ACC6A EQ PUSH2 0x182 JUMPI PUSH1 0x0 DUP1 REVERT JUMPDEST CALLDATASIZE PUSH2 0x109 JUMPI STOP JUMPDEST PUSH1 0x0 DUP1 REVERT JUMPDEST CALLVALUE DUP1 ISZERO PUSH2 0x11A JUMPI PUSH1 0x0 DUP1 REVERT JUMPDEST POP PUSH2 0x123 PUSH2 0x320 JUMP JUMPDEST STOP JUMPDEST CALLVALUE DUP1 ISZERO PUSH2 0x131 JUMPI PUSH1 0x0 DUP1 REVERT JUMPDEST POP PUSH1 0x3 SLOAD PUSH2 0x145 SWAP1 PUSH1 0x1 PUSH1 0x1 PUSH1 0xA0 SHL SUB AND DUP2 JUMP JUMPDEST PUSH1 0x40 MLOAD PUSH1 0x1 PUSH1 0x1 PUSH1 0xA0 SHL SUB SWAP1 SWAP2 AND DUP2 MSTORE PUSH1 0x20 ADD JUMPDEST PUSH1 0x40 MLOAD DUP1 SWAP2 SUB SWAP1 RETURN JUMPDEST CALLVALUE DUP1 ISZERO PUSH2 0x16E JUMPI PUSH1 0x0 DUP1 REVERT JUMPDEST POP PUSH1 0x2 SLOAD PUSH2 0x145 SWAP1 PUSH1 0x1 PUSH1 0x1 PUSH1 0xA0 SHL SUB AND DUP2 JUMP JUMPDEST CALLVALUE DUP1 ISZERO PUSH2 0x18E JUMPI PUSH1 0x0 DUP1 REVERT JUMPDEST POP PUSH1 0x4 SLOAD PUSH2 0x145 SWAP1 PUSH1 0x1 PUSH1 0x1 PUSH1 0xA0 SHL SUB AND DUP2 JUMP JUMPDEST CALLVALUE DUP1 ISZERO PUSH2 0x1AE JUMPI PUSH1 0x0 DUP1 REVERT JUMPDEST POP PUSH1 0x5 SLOAD PUSH2 0x145 SWAP1 PUSH1 0x1 PUSH1 0x1 PUSH1 0xA0 SHL SUB AND DUP2 JUMP JUMPDEST PUSH2 0x123 PUSH2 0x1D0 CALLDATASIZE PUSH1 0x4 PUSH2 0xFB8 JUMP JUMPDEST PUSH2 0x574 JUMP JUMPDEST CALLVALUE DUP1 ISZERO PUSH2 0x1E1 JUMPI PUSH1 0x0 DUP1 REVERT JUMPDEST POP PUSH2 0x1EA PUSH1 0xA DUP2 JUMP JUMPDEST PUSH1 0x40 MLOAD SWAP1 DUP2 MSTORE PUSH1 0x20 ADD PUSH2 0x159 JUMP JUMPDEST CALLVALUE DUP1 ISZERO PUSH2 0x204 JUMPI PUSH1 0x0 DUP1 REVERT JUMPDEST POP PUSH2 0x20D PUSH2 0x597 JUMP JUMPDEST PUSH1 0x40 DUP1 MLOAD SWAP4 ISZERO ISZERO DUP5 MSTORE SWAP2 ISZERO ISZERO PUSH1 0x20 DUP5 ADD MSTORE ISZERO ISZERO SWAP1 DUP3 ADD MSTORE PUSH1 0x60 ADD PUSH2 0x159 JUMP JUMPDEST CALLVALUE DUP1 ISZERO PUSH2 0x238 JUMPI PUSH1 0x0 DUP1 REVERT JUMPDEST POP PUSH2 0x241 PUSH1 0x8 DUP2 JUMP JUMPDEST PUSH1 0x40 MLOAD PUSH1 0xFF SWAP1 SWAP2 AND DUP2 MSTORE PUSH1 0x20 ADD PUSH2 0x159 JUMP JUMPDEST CALLVALUE DUP1 ISZERO PUSH2 0x25F JUMPI PUSH1 0x0 DUP1 REVERT JUMPDEST POP SELFBALANCE PUSH2 0x1EA JUMP JUMPDEST CALLVALUE DUP1 ISZERO PUSH2 0x272 JUMPI PUSH1 0x0 DUP1 REVERT JUMPDEST POP PUSH2 0x1EA PUSH1 0x2 DUP2 JUMP JUMPDEST CALLVALUE DUP1 ISZERO PUSH2 0x287 JUMPI PUSH1 0x0 DUP1 REVERT JUMPDEST POP PUSH2 0x29B PUSH2 0x296 CALLDATASIZE PUSH1 0x4 PUSH2 0xFE4 JUMP JUMPDEST PUSH2 0x76B JUMP JUMPDEST PUSH1 0x40 DUP1 MLOAD SWAP4 DUP5 MSTORE PUSH1 0x20 DUP5 ADD SWAP3 SWAP1 SWAP3 MSTORE SWAP1 DUP3 ADD MSTORE PUSH1 0x60 ADD PUSH2 0x159 JUMP JUMPDEST CALLVALUE DUP1 ISZERO PUSH2 0x2C2 JUMPI PUSH1 0x0 DUP1 REVERT JUMPDEST POP PUSH2 0x241 PUSH1 0x6 DUP2 JUMP JUMPDEST CALLVALUE DUP1 ISZERO PUSH2 0x2D7 JUMPI PUSH1 0x0 DUP1 REVERT JUMPDEST POP PUSH2 0x123 PUSH2 0x2E6 CALLDATASIZE PUSH1 0x4 PUSH2 0xFE4 JUMP JUMPDEST PUSH2 0x7D6 JUMP JUMPDEST CALLVALUE DUP1 ISZERO PUSH2 0x2F7 JUMPI PUSH1 0x0 DUP1 REVERT JUMPDEST POP PUSH1 0x1 SLOAD PUSH2 0x145 SWAP1 PUSH1 0x1 PUSH1 0x1 PUSH1 0xA0 SHL SUB AND DUP2 JUMP JUMPDEST CALLVALUE DUP1 ISZERO PUSH2 0x317 JUMPI PUSH1 0x0 DUP1 REVERT JUMPDEST POP PUSH2 0x1EA PUSH1 0x5 DUP2 JUMP JUMPDEST PUSH1 0x0 DUP1 SLOAD PUSH1 0x1 SLOAD PUSH1 0x40 MLOAD PUSH4 0x248A35EF PUSH1 0xE1 SHL DUP2 MSTORE ADDRESS PUSH1 0x4 DUP3 ADD MSTORE PUSH1 0x1 PUSH1 0x1 PUSH1 0xA0 SHL SUB SWAP2 DUP3 AND PUSH1 0x24 DUP3 ADD MSTORE SWAP2 AND SWAP1 PUSH4 0x49146BDE SWAP1 PUSH1 0x44 ADD PUSH1 0x20 PUSH1 0x40 MLOAD DUP1 DUP4 SUB DUP2 PUSH1 0x0 DUP8 GAS CALL ISZERO DUP1 ISZERO PUSH2 0x375 JUMPI RETURNDATASIZE PUSH1 0x0 DUP1 RETURNDATACOPY RETURNDATASIZE PUSH1 0x0 REVERT JUMPDEST POP POP POP POP PUSH1 0x40 MLOAD RETURNDATASIZE PUSH1 0x1F NOT PUSH1 0x1F DUP3 ADD AND DUP3 ADD DUP1 PUSH1 0x40 MSTORE POP DUP2 ADD SWAP1 PUSH2 0x399 SWAP2 SWAP1 PUSH2 0x1014 JUMP JUMPDEST PUSH1 0x1 SLOAD PUSH1 0x40 DUP1 MLOAD PUSH1 0x1 PUSH1 0x1 PUSH1 0xA0 SHL SUB SWAP1 SWAP3 AND DUP3 MSTORE PUSH1 0x7 DUP4 SWAP1 SIGNEXTEND PUSH1 0x20 DUP4 ADD MSTORE SWAP2 SWAP3 POP PUSH32 0x6C452A6A0F6C8613BD46D4BD9A6192B0904A3F33A64C294BA553582502DFD770 SWAP2 ADD PUSH1 0x40 MLOAD DUP1 SWAP2 SUB SWAP1 LOG1 PUSH1 0x0 DUP1 SLOAD PUSH1 0x2 SLOAD PUSH1 0x40 MLOAD PUSH4 0x248A35EF PUSH1 0xE1 SHL DUP2 MSTORE ADDRESS PUSH1 0x4 DUP3 ADD MSTORE PUSH1 0x1 PUSH1 0x1 PUSH1 0xA0 SHL SUB SWAP2 DUP3 AND PUSH1 0x24 DUP3 ADD MSTORE SWAP2 AND SWAP1 PUSH4 0x49146BDE SWAP1 PUSH1 0x44 ADD PUSH1 0x20 PUSH1 0x40 MLOAD DUP1 DUP4 SUB DUP2 PUSH1 0x0 DUP8 GAS CALL ISZERO DUP1 ISZERO PUSH2 0x43A JUMPI RETURNDATASIZE PUSH1 0x0 DUP1 RETURNDATACOPY RETURNDATASIZE PUSH1 0x0 REVERT JUMPDEST POP POP POP POP PUSH1 0x40 MLOAD RETURNDATASIZE PUSH1 0x1F NOT PUSH1 0x1F DUP3 ADD AND DUP3 ADD DUP1 PUSH1 0x40 MSTORE POP DUP2 ADD SWAP1 PUSH2 0x45E SWAP2 SWAP1 PUSH2 0x1014 JUMP JUMPDEST PUSH1 0x2 SLOAD PUSH1 0x40 DUP1 MLOAD PUSH1 0x1 PUSH1 0x1 PUSH1 0xA0 SHL SUB SWAP1 SWAP3 AND DUP3 MSTORE PUSH1 0x7 DUP4 SWAP1 SIGNEXTEND PUSH1 0x20 DUP4 ADD MSTORE SWAP2 SWAP3 POP PUSH32 0x6C452A6A0F6C8613BD46D4BD9A6192B0904A3F33A64C294BA553582502DFD770 SWAP2 ADD PUSH1 0x40 MLOAD DUP1 SWAP2 SUB SWAP1 LOG1 PUSH1 0x0 DUP1 SLOAD PUSH1 0x3 SLOAD PUSH1 0x40 MLOAD PUSH4 0x248A35EF PUSH1 0xE1 SHL DUP2 MSTORE ADDRESS PUSH1 0x4 DUP3 ADD MSTORE PUSH1 0x1 PUSH1 0x1 PUSH1 0xA0 SHL SUB SWAP2 DUP3 AND PUSH1 0x24 DUP3 ADD MSTORE SWAP2 AND SWAP1 PUSH4 0x49146BDE SWAP1 PUSH1 0x44 ADD PUSH1 0x20 PUSH1 0x40 MLOAD DUP1 DUP4 SUB DUP2 PUSH1 0x0 DUP8 GAS CALL ISZERO DUP1 ISZERO PUSH2 0x4FF JUMPI RETURNDATASIZE PUSH1 0x0 DUP1 RETURNDATACOPY RETURNDATASIZE PUSH1 0x0 REVERT JUMPDEST POP POP POP POP PUSH1 0x40 MLOAD RETURNDATASIZE PUSH1 0x1F NOT PUSH1 0x1F DUP3 ADD AND DUP3 ADD DUP1 PUSH1 0x40 MSTORE POP DUP2 ADD SWAP1 PUSH2 0x523 SWAP2 SWAP1 PUSH2 0x1014 JUMP JUMPDEST PUSH1 0x3 SLOAD PUSH1 0x40 DUP1 MLOAD PUSH1 0x1 PUSH1 0x1 PUSH1 0xA0 SHL SUB SWAP1 SWAP3 AND DUP3 MSTORE PUSH1 0x7 DUP4 SWAP1 SIGNEXTEND PUSH1 0x20 DUP4 ADD MSTORE SWAP2 SWAP3 POP PUSH32 0x6C452A6A0F6C8613BD46D4BD9A6192B0904A3F33A64C294BA553582502DFD770 SWAP2 ADD PUSH1 0x40 MLOAD DUP1 SWAP2 SUB SWAP1 LOG1 POP POP POP JUMP JUMPDEST PUSH2 0x57F DUP4 DUP4 DUP4 PUSH2 0x894 JUMP JUMPDEST PUSH2 0x589 DUP3 DUP3 PUSH2 0xA4F JUMP JUMPDEST PUSH2 0x592 DUP4 PUSH2 0xC75 JUMP JUMPDEST POP POP POP JUMP JUMPDEST PUSH1 0x0 DUP1 SLOAD PUSH1 0x1 SLOAD PUSH1 0x40 MLOAD PUSH4 0xD9F3249 PUSH1 0xE3 SHL DUP2 MSTORE ADDRESS PUSH1 0x4 DUP3 ADD MSTORE PUSH1 0x1 PUSH1 0x1 PUSH1 0xA0 SHL SUB SWAP2 DUP3 AND PUSH1 0x24 DUP3 ADD MSTORE DUP4 SWAP3 DUP4 SWAP3 DUP4 SWAP3 DUP4 SWAP3 SWAP2 SWAP1 SWAP2 AND SWAP1 PUSH4 0x6CF99248 SWAP1 PUSH1 0x44 ADD PUSH1 0x40 DUP1 MLOAD DUP1 DUP4 SUB DUP2 PUSH1 0x0 DUP8 GAS CALL ISZERO DUP1 ISZERO PUSH2 0x5F5 JUMPI RETURNDATASIZE PUSH1 0x0 DUP1 RETURNDATACOPY RETURNDATASIZE PUSH1 0x0 REVERT JUMPDEST POP POP POP POP PUSH1 0x40 MLOAD RETURNDATASIZE PUSH1 0x1F NOT PUSH1 0x1F DUP3 ADD AND DUP3 ADD DUP1 PUSH1 0x40 MSTORE POP DUP2 ADD SWAP1 PUSH2 0x619 SWAP2 SWAP1 PUSH2 0x1036 JUMP JUMPDEST SWAP2 POP SWAP2 POP PUSH1 0x16 PUSH1 0x3 SIGNEXTEND DUP3 PUSH1 0x7 SIGNEXTEND EQ DUP1 ISZERO PUSH2 0x630 JUMPI POP DUP1 JUMPDEST PUSH1 0x0 DUP1 SLOAD PUSH1 0x2 SLOAD PUSH1 0x40 MLOAD PUSH4 0xD9F3249 PUSH1 0xE3 SHL DUP2 MSTORE ADDRESS PUSH1 0x4 DUP3 ADD MSTORE PUSH1 0x1 PUSH1 0x1 PUSH1 0xA0 SHL SUB SWAP2 DUP3 AND PUSH1 0x24 DUP3 ADD MSTORE SWAP4 SWAP9 POP SWAP2 SWAP3 DUP4 SWAP3 SWAP1 SWAP2 AND SWAP1 PUSH4 0x6CF99248 SWAP1 PUSH1 0x44 ADD PUSH1 0x40 DUP1 MLOAD DUP1 DUP4 SUB DUP2 PUSH1 0x0 DUP8 GAS CALL ISZERO DUP1 ISZERO PUSH2 0x68C JUMPI RETURNDATASIZE PUSH1 0x0 DUP1 RETURNDATACOPY RETURNDATASIZE PUSH1 0x0 REVERT JUMPDEST POP POP POP POP PUSH1 0x40 MLOAD RETURNDATASIZE PUSH1 0x1F NOT PUSH1 0x1F DUP3 ADD AND DUP3 ADD DUP1 PUSH1 0x40 MSTORE POP DUP2 ADD SWAP1 PUSH2 0x6B0 SWAP2 SWAP1 PUSH2 0x1036 JUMP JUMPDEST SWAP2 POP SWAP2 POP PUSH1 0x16 PUSH1 0x3 SIGNEXTEND DUP3 PUSH1 0x7 SIGNEXTEND EQ DUP1 ISZERO PUSH2 0x6C7 JUMPI POP DUP1 JUMPDEST PUSH1 0x0 DUP1 SLOAD PUSH1 0x3 SLOAD PUSH1 0x40 MLOAD PUSH4 0xD9F3249 PUSH1 0xE3 SHL DUP2 MSTORE ADDRESS PUSH1 0x4 DUP3 ADD MSTORE PUSH1 0x1 PUSH1 0x1 PUSH1 0xA0 SHL SUB SWAP2 DUP3 AND PUSH1 0x24 DUP3 ADD MSTORE SWAP4 SWAP10 POP SWAP2 SWAP3 DUP4 SWAP3 SWAP1 SWAP2 AND SWAP1 PUSH4 0x6CF99248 SWAP1 PUSH1 0x44 ADD PUSH1 0x40 DUP1 MLOAD DUP1 DUP4 SUB DUP2 PUSH1 0x0 DUP8 GAS CALL ISZERO DUP1 ISZERO PUSH2 0x723 JUMPI RETURNDATASIZE PUSH1 0x0 DUP1 RETURNDATACOPY RETURNDATASIZE PUSH1 0x0 REVERT JUMPDEST POP POP POP POP PUSH1 0x40 MLOAD RETURNDATASIZE PUSH1 0x1F NOT PUSH1 0x1F DUP3 ADD AND DUP3 ADD DUP1 PUSH1 0x40 MSTORE POP DUP2 ADD SWAP1 PUSH2 0x747 SWAP2 SWAP1 PUSH2 0x1036 JUMP JUMPDEST SWAP2 POP SWAP2 POP PUSH1 0x16 PUSH1 0x3 SIGNEXTEND DUP3 PUSH1 0x7 SIGNEXTEND EQ DUP1 ISZERO PUSH2 0x75E JUMPI POP DUP1 JUMPDEST SWAP7 POP POP POP POP POP POP POP SWAP1 SWAP2 SWAP3 JUMP JUMPDEST PUSH1 0x0 DUP1 DUP1 PUSH2 0x77B PUSH1 0x6 PUSH1 0xA PUSH2 0x116E JUMP JUMPDEST PUSH2 0x786 PUSH1 0x5 DUP7 PUSH2 0x117D JUMP JUMPDEST PUSH2 0x790 SWAP2 SWAP1 PUSH2 0x117D JUMP JUMPDEST SWAP3 POP PUSH2 0x79E PUSH1 0x6 PUSH1 0xA PUSH2 0x116E JUMP JUMPDEST PUSH2 0x7A9 PUSH1 0x2 DUP7 PUSH2 0x117D JUMP JUMPDEST PUSH2 0x7B3 SWAP2 SWAP1 PUSH2 0x117D JUMP JUMPDEST SWAP2 POP PUSH2 0x7C0 PUSH1 0xA DUP6 PUSH2 0x117D JUMP JUMPDEST PUSH2 0x7CE SWAP1 PUSH4 0x5F5E100 PUSH2 0x117D JUMP JUMPDEST SWAP3 SWAP5 SWAP2 SWAP4 POP POP JUMP JUMPDEST PUSH1 0x4 SLOAD PUSH1 0x1 PUSH1 0x1 PUSH1 0xA0 SHL SUB AND CALLER EQ PUSH2 0x801 JUMPI PUSH1 0x40 MLOAD PUSH4 0x47556579 PUSH1 0xE0 SHL DUP2 MSTORE PUSH1 0x4 ADD PUSH1 0x40 MLOAD DUP1 SWAP2 SUB SWAP1 REVERT JUMPDEST SELFBALANCE DUP2 GT ISZERO PUSH2 0x856 JUMPI PUSH1 0x40 MLOAD PUSH3 0x461BCD PUSH1 0xE5 SHL DUP2 MSTORE PUSH1 0x20 PUSH1 0x4 DUP3 ADD MSTORE PUSH1 0x19 PUSH1 0x24 DUP3 ADD MSTORE PUSH32 0x496E73756666696369656E7420484241522062616C616E636500000000000000 PUSH1 0x44 DUP3 ADD MSTORE PUSH1 0x64 ADD JUMPDEST PUSH1 0x40 MLOAD DUP1 SWAP2 SUB SWAP1 REVERT JUMPDEST PUSH1 0x4 SLOAD PUSH1 0x40 MLOAD PUSH1 0x1 PUSH1 0x1 PUSH1 0xA0 SHL SUB SWAP1 SWAP2 AND SWAP1 DUP3 ISZERO PUSH2 0x8FC MUL SWAP1 DUP4 SWAP1 PUSH1 0x0 DUP2 DUP2 DUP2 DUP6 DUP9 DUP9 CALL SWAP4 POP POP POP POP ISZERO DUP1 ISZERO PUSH2 0x890 JUMPI RETURNDATASIZE PUSH1 0x0 DUP1 RETURNDATACOPY RETURNDATASIZE PUSH1 0x0 REVERT JUMPDEST POP POP JUMP JUMPDEST DUP3 PUSH1 0x0 SUB PUSH2 0x8B5 JUMPI PUSH1 0x40 MLOAD PUSH4 0x162908E3 PUSH1 0xE1 SHL DUP2 MSTORE PUSH1 0x4 ADD PUSH1 0x40 MLOAD DUP1 SWAP2 SUB SWAP1 REVERT JUMPDEST PUSH1 0x1 SLOAD PUSH1 0x1 PUSH1 0x1 PUSH1 0xA0 SHL SUB AND PUSH2 0x8F7 JUMPI PUSH1 0x40 MLOAD PUSH4 0x64D2AC41 PUSH1 0xE0 SHL DUP2 MSTORE PUSH1 0x4 ADD PUSH2 0x84D SWAP1 PUSH1 0x20 DUP1 DUP3 MSTORE PUSH1 0x4 SWAP1 DUP3 ADD MSTORE PUSH4 0x98B29CB PUSH1 0xE3 SHL PUSH1 0x40 DUP3 ADD MSTORE PUSH1 0x60 ADD SWAP1 JUMP JUMPDEST PUSH1 0x2 SLOAD PUSH1 0x1 PUSH1 0x1 PUSH1 0xA0 SHL SUB AND PUSH2 0x920 JUMPI PUSH1 0x40 MLOAD PUSH4 0x64D2AC41 PUSH1 0xE0 SHL DUP2 MSTORE PUSH1 0x4 ADD PUSH2 0x84D SWAP1 PUSH2 0x1194 JUMP JUMPDEST PUSH1 0x3 SLOAD PUSH1 0x1 PUSH1 0x1 PUSH1 0xA0 SHL SUB AND PUSH2 0x949 JUMPI PUSH1 0x40 MLOAD PUSH4 0x64D2AC41 PUSH1 0xE0 SHL DUP2 MSTORE PUSH1 0x4 ADD PUSH2 0x84D SWAP1 PUSH2 0x11B9 JUMP JUMPDEST PUSH1 0x40 MLOAD PUSH4 0x8F9F8B01 PUSH1 0xE0 SHL DUP2 MSTORE PUSH1 0x4 DUP2 ADD DUP5 SWAP1 MSTORE PUSH1 0x0 SWAP1 DUP2 SWAP1 DUP2 SWAP1 ADDRESS SWAP1 PUSH4 0x8F9F8B01 SWAP1 PUSH1 0x24 ADD PUSH1 0x60 PUSH1 0x40 MLOAD DUP1 DUP4 SUB DUP2 DUP7 GAS STATICCALL ISZERO DUP1 ISZERO PUSH2 0x98C JUMPI RETURNDATASIZE PUSH1 0x0 DUP1 RETURNDATACOPY RETURNDATASIZE PUSH1 0x0 REVERT JUMPDEST POP POP POP POP PUSH1 0x40 MLOAD RETURNDATASIZE PUSH1 0x1F NOT PUSH1 0x1F DUP3 ADD AND DUP3 ADD DUP1 PUSH1 0x40 MSTORE POP DUP2 ADD SWAP1 PUSH2 0x9B0 SWAP2 SWAP1 PUSH2 0x11DD JUMP JUMPDEST SWAP3 POP SWAP3 POP SWAP3 POP DUP3 DUP6 LT ISZERO PUSH2 0x9DB JUMPI DUP3 DUP6 PUSH1 0x40 MLOAD PUSH4 0xD5871B23 PUSH1 0xE0 SHL DUP2 MSTORE PUSH1 0x4 ADD PUSH2 0x84D SWAP3 SWAP2 SWAP1 PUSH2 0x120B JUMP JUMPDEST DUP2 DUP5 LT ISZERO PUSH2 0xA00 JUMPI DUP2 DUP5 PUSH1 0x40 MLOAD PUSH4 0xD5871B23 PUSH1 0xE0 SHL DUP2 MSTORE PUSH1 0x4 ADD PUSH2 0x84D SWAP3 SWAP2 SWAP1 PUSH2 0x1240 JUMP JUMPDEST DUP1 CALLVALUE LT ISZERO PUSH2 0xA47 JUMPI PUSH1 0x40 MLOAD PUSH4 0xD5871B23 PUSH1 0xE0 SHL DUP2 MSTORE PUSH1 0x60 PUSH1 0x4 DUP1 DUP4 ADD SWAP2 SWAP1 SWAP2 MSTORE PUSH1 0x64 DUP3 ADD MSTORE PUSH4 0x242120A9 PUSH1 0xE1 SHL PUSH1 0x84 DUP3 ADD MSTORE PUSH1 0x24 DUP2 ADD DUP3 SWAP1 MSTORE CALLVALUE PUSH1 0x44 DUP3 ADD MSTORE PUSH1 0xA4 ADD PUSH2 0x84D JUMP JUMPDEST POP POP POP POP POP POP JUMP JUMPDEST PUSH1 0x0 DUP1 SLOAD PUSH1 0x2 SLOAD PUSH1 0x40 MLOAD PUSH4 0xECA36917 PUSH1 0xE0 SHL DUP2 MSTORE PUSH1 0x1 PUSH1 0x1 PUSH1 0xA0 SHL SUB SWAP3 DUP4 AND SWAP3 PUSH4 0xECA36917 SWAP3 PUSH2 0xA8A SWAP3 SWAP2 AND SWAP1 CALLER SWAP1 ADDRESS SWAP1 DUP10 SWAP1 PUSH1 0x4 ADD PUSH2 0x1264 JUMP JUMPDEST PUSH1 0x20 PUSH1 0x40 MLOAD DUP1 DUP4 SUB DUP2 PUSH1 0x0 DUP8 GAS CALL ISZERO DUP1 ISZERO PUSH2 0xAA9 JUMPI RETURNDATASIZE PUSH1 0x0 DUP1 RETURNDATACOPY RETURNDATASIZE PUSH1 0x0 REVERT JUMPDEST POP POP POP POP PUSH1 0x40 MLOAD RETURNDATASIZE PUSH1 0x1F NOT PUSH1 0x1F DUP3 ADD AND DUP3 ADD DUP1 PUSH1 0x40 MSTORE POP DUP2 ADD SWAP1 PUSH2 0xACD SWAP2 SWAP1 PUSH2 0x1014 JUMP JUMPDEST SWAP1 POP PUSH1 0x7 DUP2 SWAP1 SIGNEXTEND PUSH1 0x16 EQ PUSH2 0xB21 JUMPI PUSH1 0x40 DUP1 MLOAD PUSH4 0x16146C1 PUSH1 0xE6 SHL DUP2 MSTORE PUSH1 0x4 DUP2 ADD SWAP2 SWAP1 SWAP2 MSTORE PUSH1 0xE PUSH1 0x44 DUP3 ADD MSTORE PUSH14 0x29A0AAA1A2903A3930B739B332B9 PUSH1 0x91 SHL PUSH1 0x64 DUP3 ADD MSTORE PUSH1 0x7 DUP3 SWAP1 SIGNEXTEND PUSH1 0x24 DUP3 ADD MSTORE PUSH1 0x84 ADD PUSH2 0x84D JUMP JUMPDEST PUSH1 0x0 DUP1 SLOAD PUSH1 0x3 SLOAD PUSH1 0x40 MLOAD PUSH4 0xECA36917 PUSH1 0xE0 SHL DUP2 MSTORE PUSH1 0x1 PUSH1 0x1 PUSH1 0xA0 SHL SUB SWAP3 DUP4 AND SWAP3 PUSH4 0xECA36917 SWAP3 PUSH2 0xB5C SWAP3 SWAP2 AND SWAP1 CALLER SWAP1 ADDRESS SWAP1 DUP10 SWAP1 PUSH1 0x4 ADD PUSH2 0x1264 JUMP JUMPDEST PUSH1 0x20 PUSH1 0x40 MLOAD DUP1 DUP4 SUB DUP2 PUSH1 0x0 DUP8 GAS CALL ISZERO DUP1 ISZERO PUSH2 0xB7B JUMPI RETURNDATASIZE PUSH1 0x0 DUP1 RETURNDATACOPY RETURNDATASIZE PUSH1 0x0 REVERT JUMPDEST POP POP POP POP PUSH1 0x40 MLOAD RETURNDATASIZE PUSH1 0x1F NOT PUSH1 0x1F DUP3 ADD AND DUP3 ADD DUP1 PUSH1 0x40 MSTORE POP DUP2 ADD SWAP1 PUSH2 0xB9F SWAP2 SWAP1 PUSH2 0x1014 JUMP JUMPDEST SWAP1 POP PUSH1 0x7 DUP2 SWAP1 SIGNEXTEND PUSH1 0x16 EQ PUSH2 0xBF2 JUMPI PUSH1 0x40 DUP1 MLOAD PUSH4 0x16146C1 PUSH1 0xE6 SHL DUP2 MSTORE PUSH1 0x4 DUP2 ADD SWAP2 SWAP1 SWAP2 MSTORE PUSH1 0xD PUSH1 0x44 DUP3 ADD MSTORE PUSH13 0x21A62C2C903A3930B739B332B9 PUSH1 0x99 SHL PUSH1 0x64 DUP3 ADD MSTORE PUSH1 0x7 DUP3 SWAP1 SIGNEXTEND PUSH1 0x24 DUP3 ADD MSTORE PUSH1 0x84 ADD PUSH2 0x84D JUMP JUMPDEST PUSH1 0x40 DUP1 MLOAD DUP6 DUP2 MSTORE PUSH1 0x20 DUP2 ADD DUP6 SWAP1 MSTORE CALLER SWAP2 PUSH32 0x2EE9FF3C14D55B621ED1C8DE6EC057D9B460FF41CDEBEDF3EA51962287530F4 SWAP2 ADD PUSH1 0x40 MLOAD DUP1 SWAP2 SUB SWAP1 LOG2 PUSH1 0x40 DUP1 MLOAD DUP6 DUP2 MSTORE PUSH1 0x20 DUP2 ADD DUP6 SWAP1 MSTORE CALLVALUE DUP2 DUP4 ADD MSTORE SWAP1 MLOAD CALLER SWAP2 PUSH32 0x651B66D4C82E3FEDC9C57C6FF8A4CF8C81B8D1CD432D7297773C6EDBF6CFB36A SWAP2 SWAP1 DUP2 SWAP1 SUB PUSH1 0x60 ADD SWAP1 LOG2 POP POP POP POP JUMP JUMPDEST PUSH1 0x0 PUSH2 0xC83 PUSH1 0x8 PUSH1 0xA PUSH2 0x116E JUMP JUMPDEST PUSH2 0xC8D SWAP1 DUP4 PUSH2 0x117D JUMP JUMPDEST PUSH1 0x40 DUP1 MLOAD DUP5 DUP2 MSTORE PUSH1 0x20 DUP2 ADD DUP4 SWAP1 MSTORE SWAP2 SWAP3 POP CALLER SWAP2 PUSH32 0xEF8F5BE9F6E9B6CAFE9795E6972D99452D92FDFCA92995050EAA9CBBDCD627DC SWAP2 ADD PUSH1 0x40 MLOAD DUP1 SWAP2 SUB SWAP1 LOG2 PUSH1 0x40 DUP1 MLOAD PUSH1 0x0 DUP1 DUP3 MSTORE PUSH1 0x20 DUP3 ADD SWAP1 SWAP3 MSTORE DUP2 PUSH2 0xCF6 JUMP JUMPDEST PUSH1 0x60 DUP2 MSTORE PUSH1 0x20 ADD SWAP1 PUSH1 0x1 SWAP1 SUB SWAP1 DUP2 PUSH2 0xCE1 JUMPI SWAP1 POP JUMPDEST POP PUSH1 0x0 DUP1 SLOAD PUSH1 0x1 SLOAD PUSH1 0x40 MLOAD PUSH4 0x707A02CD PUSH1 0xE1 SHL DUP2 MSTORE SWAP4 SWAP5 POP SWAP2 SWAP3 DUP4 SWAP3 PUSH1 0x1 PUSH1 0x1 PUSH1 0xA0 SHL SUB SWAP3 DUP4 AND SWAP3 PUSH4 0xE0F4059A SWAP3 PUSH2 0xD38 SWAP3 SWAP1 SWAP2 AND SWAP1 DUP9 SWAP1 DUP9 SWAP1 PUSH1 0x4 ADD PUSH2 0x12A7 JUMP JUMPDEST PUSH1 0x0 PUSH1 0x40 MLOAD DUP1 DUP4 SUB DUP2 PUSH1 0x0 DUP8 GAS CALL ISZERO DUP1 ISZERO PUSH2 0xD57 JUMPI RETURNDATASIZE PUSH1 0x0 DUP1 RETURNDATACOPY RETURNDATASIZE PUSH1 0x0 REVERT JUMPDEST POP POP POP POP PUSH1 0x40 MLOAD RETURNDATASIZE PUSH1 0x0 DUP3 RETURNDATACOPY PUSH1 0x1F RETURNDATASIZE SWAP1 DUP2 ADD PUSH1 0x1F NOT AND DUP3 ADD PUSH1 0x40 MSTORE PUSH2 0xD7F SWAP2 SWAP1 DUP2 ADD SWAP1 PUSH2 0x1353 JUMP JUMPDEST POP PUSH1 0x40 DUP1 MLOAD PUSH1 0x7 DUP5 DUP2 SIGNEXTEND DUP3 MSTORE DUP4 SWAP1 SIGNEXTEND PUSH1 0x20 DUP3 ADD MSTORE SWAP3 SWAP5 POP SWAP1 SWAP3 POP PUSH32 0xEEB8B94F7BF115B59D1437EDF60F2F07656A1EB52234A1835D90480777C5762C SWAP2 ADD PUSH1 0x40 MLOAD DUP1 SWAP2 SUB SWAP1 LOG1 PUSH1 0x7 DUP3 SWAP1 SIGNEXTEND PUSH1 0x16 EQ PUSH2 0xE11 JUMPI PUSH1 0x40 DUP1 MLOAD PUSH4 0x16146C1 PUSH1 0xE6 SHL DUP2 MSTORE PUSH1 0x4 DUP2 ADD SWAP2 SWAP1 SWAP2 MSTORE PUSH1 0x9 PUSH1 0x44 DUP3 ADD MSTORE PUSH9 0x13165396081B5A5B9D PUSH1 0xBA SHL PUSH1 0x64 DUP3 ADD MSTORE PUSH1 0x7 DUP4 SWAP1 SIGNEXTEND PUSH1 0x24 DUP3 ADD MSTORE PUSH1 0x84 ADD PUSH2 0x84D JUMP JUMPDEST PUSH1 0x5 SLOAD PUSH1 0x40 DUP1 MLOAD PUSH1 0x1 PUSH1 0x1 PUSH1 0xA0 SHL SUB SWAP1 SWAP3 AND DUP3 MSTORE CALLER PUSH1 0x20 DUP4 ADD MSTORE DUP2 ADD DUP6 SWAP1 MSTORE PUSH32 0x883DD34324C5E33F1CE994B8F1652AB425A78C77305F00A08660B05245ED17B3 SWAP1 PUSH1 0x60 ADD PUSH1 0x40 MLOAD DUP1 SWAP2 SUB SWAP1 LOG1 PUSH1 0x0 DUP1 SLOAD PUSH1 0x1 SLOAD PUSH1 0x5 SLOAD PUSH1 0x40 MLOAD PUSH4 0xECA36917 PUSH1 0xE0 SHL DUP2 MSTORE PUSH1 0x1 PUSH1 0x1 PUSH1 0xA0 SHL SUB SWAP4 DUP5 AND SWAP4 PUSH4 0xECA36917 SWAP4 PUSH2 0xE9D SWAP4 SWAP1 DUP3 AND SWAP3 SWAP2 AND SWAP1 CALLER SWAP1 DUP12 SWAP1 PUSH1 0x4 ADD PUSH2 0x1264 JUMP JUMPDEST PUSH1 0x20 PUSH1 0x40 MLOAD DUP1 DUP4 SUB DUP2 PUSH1 0x0 DUP8 GAS CALL ISZERO DUP1 ISZERO PUSH2 0xEBC JUMPI RETURNDATASIZE PUSH1 0x0 DUP1 RETURNDATACOPY RETURNDATASIZE PUSH1 0x0 REVERT JUMPDEST POP POP POP POP PUSH1 0x40 MLOAD RETURNDATASIZE PUSH1 0x1F NOT PUSH1 0x1F DUP3 ADD AND DUP3 ADD DUP1 PUSH1 0x40 MSTORE POP DUP2 ADD SWAP1 PUSH2 0xEE0 SWAP2 SWAP1 PUSH2 0x1014 JUMP JUMPDEST PUSH1 0x40 MLOAD PUSH1 0x7 DUP3 SWAP1 SIGNEXTEND DUP2 MSTORE SWAP1 SWAP2 POP PUSH32 0xDBA6742B403F91BA4BDAC157A4315CA9E09412EA4375F6EBBD570C7676C11F47 SWAP1 PUSH1 0x20 ADD PUSH1 0x40 MLOAD DUP1 SWAP2 SUB SWAP1 LOG1 PUSH1 0x7 DUP2 SWAP1 SIGNEXTEND PUSH1 0x16 EQ PUSH2 0xF7B JUMPI PUSH1 0x40 DUP1 MLOAD PUSH4 0x16146C1 PUSH1 0xE6 SHL DUP2 MSTORE PUSH1 0x4 DUP2 ADD SWAP2 SWAP1 SWAP2 MSTORE PUSH1 0x1B PUSH1 0x44 DUP3 ADD MSTORE PUSH32 0x4C594E58207472616E736665722066726F6D20636F6E74726163740000000000 PUSH1 0x64 DUP3 ADD MSTORE PUSH1 0x7 DUP3 SWAP1 SIGNEXTEND PUSH1 0x24 DUP3 ADD MSTORE PUSH1 0x84 ADD PUSH2 0x84D JUMP JUMPDEST PUSH1 0x40 MLOAD DUP7 DUP2 MSTORE CALLER SWAP1 PUSH32 0x465927A4840D7C7D6AA087BB368FE25BED2F96A7DE450603903E0331DEC0DBB5 SWAP1 PUSH1 0x20 ADD PUSH1 0x40 MLOAD DUP1 SWAP2 SUB SWAP1 LOG2 POP POP POP POP POP POP JUMP JUMPDEST PUSH1 0x0 DUP1 PUSH1 0x0 PUSH1 0x60 DUP5 DUP7 SUB SLT ISZERO PUSH2 0xFCD JUMPI PUSH1 0x0 DUP1 REVERT JUMPDEST POP POP DUP2 CALLDATALOAD SWAP4 PUSH1 0x20 DUP4 ADD CALLDATALOAD SWAP4 POP PUSH1 0x40 SWAP1 SWAP3 ADD CALLDATALOAD SWAP2 SWAP1 POP JUMP JUMPDEST PUSH1 0x0 PUSH1 0x20 DUP3 DUP5 SUB SLT ISZERO PUSH2 0xFF6 JUMPI PUSH1 0x0 DUP1 REVERT JUMPDEST POP CALLDATALOAD SWAP2 SWAP1 POP JUMP JUMPDEST DUP1 MLOAD PUSH1 0x7 DUP2 SWAP1 SIGNEXTEND DUP2 EQ PUSH2 0x100F JUMPI PUSH1 0x0 DUP1 REVERT JUMPDEST SWAP2 SWAP1 POP JUMP JUMPDEST PUSH1 0x0 PUSH1 0x20 DUP3 DUP5 SUB SLT ISZERO PUSH2 0x1026 JUMPI PUSH1 0x0 DUP1 REVERT JUMPDEST PUSH2 0x102F DUP3 PUSH2 0xFFD JUMP JUMPDEST SWAP4 SWAP3 POP POP POP JUMP JUMPDEST PUSH1 0x0 DUP1 PUSH1 0x40 DUP4 DUP6 SUB SLT ISZERO PUSH2 0x1049 JUMPI PUSH1 0x0 DUP1 REVERT JUMPDEST PUSH2 0x1052 DUP4 PUSH2 0xFFD JUMP JUMPDEST SWAP2 POP PUSH1 0x20 DUP4 ADD MLOAD DUP1 ISZERO ISZERO DUP2 EQ PUSH2 0x1067 JUMPI PUSH1 0x0 DUP1 REVERT JUMPDEST DUP1 SWAP2 POP POP SWAP3 POP SWAP3 SWAP1 POP JUMP JUMPDEST PUSH4 0x4E487B71 PUSH1 0xE0 SHL PUSH1 0x0 MSTORE PUSH1 0x11 PUSH1 0x4 MSTORE PUSH1 0x24 PUSH1 0x0 REVERT JUMPDEST PUSH1 0x1 DUP2 DUP2 JUMPDEST DUP1 DUP6 GT ISZERO PUSH2 0x10C3 JUMPI DUP2 PUSH1 0x0 NOT DIV DUP3 GT ISZERO PUSH2 0x10A9 JUMPI PUSH2 0x10A9 PUSH2 0x1072 JUMP JUMPDEST DUP1 DUP6 AND ISZERO PUSH2 0x10B6 JUMPI SWAP2 DUP2 MUL SWAP2 JUMPDEST SWAP4 DUP5 SHR SWAP4 SWAP1 DUP1 MUL SWAP1 PUSH2 0x108D JUMP JUMPDEST POP SWAP3 POP SWAP3 SWAP1 POP JUMP JUMPDEST PUSH1 0x0 DUP3 PUSH2 0x10DA JUMPI POP PUSH1 0x1 PUSH2 0x1168 JUMP JUMPDEST DUP2 PUSH2 0x10E7 JUMPI POP PUSH1 0x0 PUSH2 0x1168 JUMP JUMPDEST DUP2 PUSH1 0x1 DUP2 EQ PUSH2 0x10FD JUMPI PUSH1 0x2 DUP2 EQ PUSH2 0x1107 JUMPI PUSH2 0x1123 JUMP JUMPDEST PUSH1 0x1 SWAP2 POP POP PUSH2 0x1168 JUMP JUMPDEST PUSH1 0xFF DUP5 GT ISZERO PUSH2 0x1118 JUMPI PUSH2 0x1118 PUSH2 0x1072 JUMP JUMPDEST POP POP PUSH1 0x1 DUP3 SHL PUSH2 0x1168 JUMP JUMPDEST POP PUSH1 0x20 DUP4 LT PUSH2 0x133 DUP4 LT AND PUSH1 0x4E DUP5 LT PUSH1 0xB DUP5 LT AND OR ISZERO PUSH2 0x1146 JUMPI POP DUP2 DUP2 EXP PUSH2 0x1168 JUMP JUMPDEST PUSH2 0x1150 DUP4 DUP4 PUSH2 0x1088 JUMP JUMPDEST DUP1 PUSH1 0x0 NOT DIV DUP3 GT ISZERO PUSH2 0x1164 JUMPI PUSH2 0x1164 PUSH2 0x1072 JUMP JUMPDEST MUL SWAP1 POP JUMPDEST SWAP3 SWAP2 POP POP JUMP JUMPDEST PUSH1 0x0 PUSH2 0x102F PUSH1 0xFF DUP5 AND DUP4 PUSH2 0x10CB JUMP JUMPDEST DUP1 DUP3 MUL DUP2 ISZERO DUP3 DUP3 DIV DUP5 EQ OR PUSH2 0x1168 JUMPI PUSH2 0x1168 PUSH2 0x1072 JUMP JUMPDEST PUSH1 0x20 DUP2 MSTORE PUSH1 0x0 PUSH2 0x1168 PUSH1 0x20 DUP4 ADD PUSH1 0x5 DUP2 MSTORE PUSH5 0x5341554345 PUSH1 0xD8 SHL PUSH1 0x20 DUP3 ADD MSTORE PUSH1 0x40 ADD SWAP1 JUMP JUMPDEST PUSH1 0x20 DUP2 MSTORE PUSH1 0x0 PUSH2 0x1168 PUSH1 0x20 DUP4 ADD PUSH1 0x4 DUP2 MSTORE PUSH4 0x434C5859 PUSH1 0xE0 SHL PUSH1 0x20 DUP3 ADD MSTORE PUSH1 0x40 ADD SWAP1 JUMP JUMPDEST PUSH1 0x0 DUP1 PUSH1 0x0 PUSH1 0x60 DUP5 DUP7 SUB SLT ISZERO PUSH2 0x11F2 JUMPI PUSH1 0x0 DUP1 REVERT JUMPDEST DUP4 MLOAD SWAP3 POP PUSH1 0x20 DUP5 ADD MLOAD SWAP2 POP PUSH1 0x40 DUP5 ADD MLOAD SWAP1 POP SWAP3 POP SWAP3 POP SWAP3 JUMP JUMPDEST PUSH1 0x60 DUP2 MSTORE PUSH1 0x0 PUSH2 0x1230 PUSH1 0x60 DUP4 ADD PUSH1 0x5 DUP2 MSTORE PUSH5 0x5341554345 PUSH1 0xD8 SHL PUSH1 0x20 DUP3 ADD MSTORE PUSH1 0x40 ADD SWAP1 JUMP JUMPDEST PUSH1 0x20 DUP4 ADD SWAP5 SWAP1 SWAP5 MSTORE POP PUSH1 0x40 ADD MSTORE SWAP1 JUMP JUMPDEST PUSH1 0x60 DUP2 MSTORE PUSH1 0x0 PUSH2 0x1230 PUSH1 0x60 DUP4 ADD PUSH1 0x4 DUP2 MSTORE PUSH4 0x434C5859 PUSH1 0xE0 SHL PUSH1 0x20 DUP3 ADD MSTORE PUSH1 0x40 ADD SWAP1 JUMP JUMPDEST PUSH1 0x1 PUSH1 0x1 PUSH1 0xA0 SHL SUB SWAP5 DUP6 AND DUP2 MSTORE SWAP3 DUP5 AND PUSH1 0x20 DUP5 ADD MSTORE SWAP3 AND PUSH1 0x40 DUP3 ADD MSTORE PUSH1 0x7 SWAP2 SWAP1 SWAP2 SIGNEXTEND PUSH1 0x60 DUP3 ADD MSTORE PUSH1 0x80 ADD SWAP1 JUMP JUMPDEST PUSH4 0x4E487B71 PUSH1 0xE0 SHL PUSH1 0x0 MSTORE PUSH1 0x41 PUSH1 0x4 MSTORE PUSH1 0x24 PUSH1 0x0 REVERT JUMPDEST PUSH1 0x0 PUSH1 0x60 DUP3 ADD PUSH1 0x1 DUP1 PUSH1 0xA0 SHL SUB DUP7 AND DUP4 MSTORE PUSH1 0x20 DUP6 PUSH1 0x7 SIGNEXTEND DUP2 DUP6 ADD MSTORE PUSH1 0x60 PUSH1 0x40 DUP6 ADD MSTORE DUP2 DUP6 MLOAD DUP1 DUP5 MSTORE PUSH1 0x80 DUP7 ADD SWAP2 POP PUSH1 0x80 DUP2 PUSH1 0x5 SHL DUP8 ADD ADD SWAP4 POP DUP3 DUP8 ADD PUSH1 0x0 DUP1 JUMPDEST DUP4 DUP2 LT ISZERO PUSH2 0x1343 JUMPI DUP9 DUP8 SUB PUSH1 0x7F NOT ADD DUP6 MSTORE DUP3 MLOAD DUP1 MLOAD DUP1 DUP10 MSTORE DUP4 JUMPDEST DUP2 DUP2 LT ISZERO PUSH2 0x131C JUMPI DUP3 DUP2 ADD DUP10 ADD MLOAD DUP11 DUP3 ADD DUP11 ADD MSTORE DUP9 ADD PUSH2 0x1301 JUMP JUMPDEST POP DUP9 DUP2 ADD DUP9 ADD DUP5 SWAP1 MSTORE PUSH1 0x1F ADD PUSH1 0x1F NOT AND SWAP1 SWAP8 ADD DUP7 ADD SWAP7 POP SWAP4 DUP6 ADD SWAP4 SWAP2 DUP6 ADD SWAP2 PUSH1 0x1 ADD PUSH2 0x12E7 JUMP JUMPDEST POP SWAP5 SWAP11 SWAP10 POP POP POP POP POP POP POP POP POP POP JUMP JUMPDEST PUSH1 0x0 DUP1 PUSH1 0x0 PUSH1 0x60 DUP5 DUP7 SUB SLT ISZERO PUSH2 0x1368 JUMPI PUSH1 0x0 DUP1 REVERT JUMPDEST PUSH2 0x1371 DUP5 PUSH2 0xFFD JUMP JUMPDEST SWAP3 POP PUSH1 0x20 PUSH2 0x1380 DUP2 DUP7 ADD PUSH2 0xFFD JUMP JUMPDEST SWAP3 POP PUSH1 0x40 DUP6 ADD MLOAD PUSH8 0xFFFFFFFFFFFFFFFF DUP1 DUP3 GT ISZERO PUSH2 0x139D JUMPI PUSH1 0x0 DUP1 REVERT JUMPDEST DUP2 DUP8 ADD SWAP2 POP DUP8 PUSH1 0x1F DUP4 ADD SLT PUSH2 0x13B1 JUMPI PUSH1 0x0 DUP1 REVERT JUMPDEST DUP2 MLOAD DUP2 DUP2 GT ISZERO PUSH2 0x13C3 JUMPI PUSH2 0x13C3 PUSH2 0x1291 JUMP JUMPDEST DUP1 PUSH1 0x5 SHL PUSH1 0x40 MLOAD PUSH1 0x1F NOT PUSH1 0x3F DUP4 ADD AND DUP2 ADD DUP2 DUP2 LT DUP6 DUP3 GT OR ISZERO PUSH2 0x13E8 JUMPI PUSH2 0x13E8 PUSH2 0x1291 JUMP JUMPDEST PUSH1 0x40 MSTORE SWAP2 DUP3 MSTORE DUP5 DUP3 ADD SWAP3 POP DUP4 DUP2 ADD DUP6 ADD SWAP2 DUP11 DUP4 GT ISZERO PUSH2 0x1406 JUMPI PUSH1 0x0 DUP1 REVERT JUMPDEST SWAP4 DUP6 ADD SWAP4 JUMPDEST DUP3 DUP6 LT ISZERO PUSH2 0x142B JUMPI PUSH2 0x141C DUP6 PUSH2 0xFFD JUMP JUMPDEST DUP5 MSTORE SWAP4 DUP6 ADD SWAP4 SWAP3 DUP6 ADD SWAP3 PUSH2 0x140B JUMP JUMPDEST DUP1 SWAP7 POP POP POP POP POP POP POP SWAP3 POP SWAP3 POP SWAP3 JUMP INVALID LOG2 PUSH5 0x6970667358 0x22 SLT KECCAK256 0x2D SWAP1 0xD8 BYTE NUMBER JUMPI EXTCODEHASH 0x26 DUP2 MSTORE LOG2 0xA6 0xC4 0xDF 0xFB DELEGATECALL JUMPI 0xD1 CALL 0xB3 AND 0xD6 GT 0x24 CALLDATASIZE MUL 0xA8 0xF6 STATICCALL LOG0 KECCAK256 PUSH26 0x64736F6C63430008130033000000000000000000000000000000 "},"methodIdentifiers":{"ADMIN()":"2a0acc6a","CLXY_DECIMALS()":"96cd51d7","CLXY_RATIO()":"8d6be540","CLXY_TOKEN()":"1da965c2","HBAR_RATIO()":"4924190c","LYNX_DECIMALS()":"5ea4a9fd","LYNX_TOKEN()":"e1e99576","SAUCE_DECIMALS()":"de97b29f","SAUCE_RATIO()":"ef037593","SAUCE_TOKEN()":"1ec65c36","TREASURY()":"2d2c5565","associateTokens()":"10ca0bce","calculateRequiredDeposits(uint256)":"8f9f8b01","checkAssociations()":"5af91dab","emergencyWithdrawHbar(uint256)":"d65db297","getHbarBalance()":"7bd82c69","mintWithDeposits(uint256,uint256,uint256)":"3ed4d3bc"}}}}}