{
  "_format": "hh-sol-artifact-1",
  "contractName": "IndexTokenController",
  "sourceName": "contracts/index-token/IndexTokenController.sol",
  "abi": [
    {
      "inputs": [
        {
          "internalType": "address",
          "name": "_vaultAddress",
          "type": "address"
        },
        {
          "internalType": "address",
          "name": "_htsAddress",
          "type": "address"
        }
      ],
      "stateMutability": "nonpayable",
      "type": "constructor"
    },
    {
      "inputs": [
        {
          "internalType": "address",
          "name": "token",
          "type": "address"
        },
        {
          "internalType": "int64",
          "name": "responseCode",
          "type": "int64"
        },
        {
          "internalType": "string",
          "name": "message",
          "type": "string"
        }
      ],
      "name": "HtsError",
      "type": "error"
    },
    {
      "inputs": [],
      "name": "InsufficientDeposits",
      "type": "error"
    },
    {
      "inputs": [],
      "name": "InvalidAmount",
      "type": "error"
    },
    {
      "inputs": [],
      "name": "NoSupplyKeyForToken",
      "type": "error"
    },
    {
      "inputs": [],
      "name": "OnlyAdmin",
      "type": "error"
    },
    {
      "inputs": [
        {
          "internalType": "string",
          "name": "message",
          "type": "string"
        }
      ],
      "name": "PreTokenCreationError",
      "type": "error"
    },
    {
      "inputs": [
        {
          "internalType": "int64",
          "name": "errorCode",
          "type": "int64"
        }
      ],
      "name": "TokenCreationFailed",
      "type": "error"
    },
    {
      "inputs": [
        {
          "internalType": "address",
          "name": "token",
          "type": "address"
        },
        {
          "internalType": "int64",
          "name": "errorCode",
          "type": "int64"
        }
      ],
      "name": "TokenMintFailed",
      "type": "error"
    },
    {
      "inputs": [
        {
          "internalType": "address",
          "name": "token",
          "type": "address"
        },
        {
          "internalType": "address",
          "name": "account",
          "type": "address"
        }
      ],
      "name": "TokenNotAssociated",
      "type": "error"
    },
    {
      "inputs": [
        {
          "internalType": "address",
          "name": "token",
          "type": "address"
        },
        {
          "internalType": "int64",
          "name": "errorCode",
          "type": "int64"
        }
      ],
      "name": "TokenTransferFailed",
      "type": "error"
    },
    {
      "anonymous": false,
      "inputs": [
        {
          "indexed": false,
          "internalType": "address",
          "name": "tokenAddress",
          "type": "address"
        },
        {
          "indexed": false,
          "internalType": "int64",
          "name": "responseCode",
          "type": "int64"
        }
      ],
      "name": "IndexTokenCreated",
      "type": "event"
    },
    {
      "anonymous": false,
      "inputs": [
        {
          "indexed": true,
          "internalType": "address",
          "name": "user",
          "type": "address"
        },
        {
          "indexed": false,
          "internalType": "uint256",
          "name": "amount",
          "type": "uint256"
        }
      ],
      "name": "IndexTokenMinted",
      "type": "event"
    },
    {
      "anonymous": false,
      "inputs": [
        {
          "indexed": true,
          "internalType": "address",
          "name": "tokenAddress",
          "type": "address"
        }
      ],
      "name": "IndexTokenSet",
      "type": "event"
    },
    {
      "anonymous": false,
      "inputs": [
        {
          "indexed": false,
          "internalType": "bool",
          "name": "hasKey",
          "type": "bool"
        }
      ],
      "name": "SupplyKeyVerified",
      "type": "event"
    },
    {
      "anonymous": false,
      "inputs": [
        {
          "indexed": false,
          "internalType": "string",
          "name": "name",
          "type": "string"
        },
        {
          "indexed": false,
          "internalType": "string",
          "name": "symbol",
          "type": "string"
        },
        {
          "indexed": false,
          "internalType": "string",
          "name": "memo",
          "type": "string"
        },
        {
          "indexed": false,
          "internalType": "address",
          "name": "treasury",
          "type": "address"
        }
      ],
      "name": "TokenCreationAttempt",
      "type": "event"
    },
    {
      "anonymous": false,
      "inputs": [
        {
          "indexed": false,
          "internalType": "int64",
          "name": "responseCode",
          "type": "int64"
        },
        {
          "indexed": false,
          "internalType": "string",
          "name": "errorMessage",
          "type": "string"
        }
      ],
      "name": "TokenCreationError",
      "type": "event"
    },
    {
      "anonymous": false,
      "inputs": [
        {
          "indexed": false,
          "internalType": "string",
          "name": "step",
          "type": "string"
        },
        {
          "indexed": false,
          "internalType": "address",
          "name": "tokenAddress",
          "type": "address"
        },
        {
          "indexed": false,
          "internalType": "int64",
          "name": "responseCode",
          "type": "int64"
        }
      ],
      "name": "TokenCreationStep",
      "type": "event"
    },
    {
      "inputs": [],
      "name": "ADMIN",
      "outputs": [
        {
          "internalType": "address",
          "name": "",
          "type": "address"
        }
      ],
      "stateMutability": "view",
      "type": "function"
    },
    {
      "inputs": [],
      "name": "AUTO_RENEW_PERIOD",
      "outputs": [
        {
          "internalType": "uint32",
          "name": "",
          "type": "uint32"
        }
      ],
      "stateMutability": "view",
      "type": "function"
    },
    {
      "inputs": [],
      "name": "HTS_PRECOMPILE",
      "outputs": [
        {
          "internalType": "address",
          "name": "",
          "type": "address"
        }
      ],
      "stateMutability": "view",
      "type": "function"
    },
    {
      "inputs": [],
      "name": "INDEX_TOKEN",
      "outputs": [
        {
          "internalType": "address",
          "name": "",
          "type": "address"
        }
      ],
      "stateMutability": "view",
      "type": "function"
    },
    {
      "inputs": [],
      "name": "IS_SUPPLY_TYPE_INFINITE",
      "outputs": [
        {
          "internalType": "bool",
          "name": "",
          "type": "bool"
        }
      ],
      "stateMutability": "view",
      "type": "function"
    },
    {
      "inputs": [],
      "name": "TOKEN_DECIMALS",
      "outputs": [
        {
          "internalType": "uint8",
          "name": "",
          "type": "uint8"
        }
      ],
      "stateMutability": "view",
      "type": "function"
    },
    {
      "inputs": [],
      "name": "TOKEN_MAX_SUPPLY",
      "outputs": [
        {
          "internalType": "uint32",
          "name": "",
          "type": "uint32"
        }
      ],
      "stateMutability": "view",
      "type": "function"
    },
    {
      "inputs": [
        {
          "internalType": "uint256",
          "name": "amount",
          "type": "uint256"
        }
      ],
      "name": "calculateRequiredDeposits",
      "outputs": [
        {
          "internalType": "address[]",
          "name": "",
          "type": "address[]"
        },
        {
          "internalType": "uint256[]",
          "name": "",
          "type": "uint256[]"
        }
      ],
      "stateMutability": "view",
      "type": "function"
    },
    {
      "inputs": [],
      "name": "checkSupplyKey",
      "outputs": [],
      "stateMutability": "nonpayable",
      "type": "function"
    },
    {
      "inputs": [
        {
          "internalType": "string",
          "name": "name",
          "type": "string"
        },
        {
          "internalType": "string",
          "name": "symbol",
          "type": "string"
        },
        {
          "internalType": "string",
          "name": "memo",
          "type": "string"
        }
      ],
      "name": "createIndexToken",
      "outputs": [],
      "stateMutability": "payable",
      "type": "function"
    },
    {
      "inputs": [],
      "name": "getTokenAddress",
      "outputs": [
        {
          "internalType": "address",
          "name": "",
          "type": "address"
        }
      ],
      "stateMutability": "view",
      "type": "function"
    },
    {
      "inputs": [],
      "name": "hasSupplyKey",
      "outputs": [
        {
          "internalType": "bool",
          "name": "",
          "type": "bool"
        }
      ],
      "stateMutability": "view",
      "type": "function"
    },
    {
      "inputs": [
        {
          "internalType": "address",
          "name": "recipient",
          "type": "address"
        },
        {
          "internalType": "uint256",
          "name": "amount",
          "type": "uint256"
        }
      ],
      "name": "mintTo",
      "outputs": [],
      "stateMutability": "nonpayable",
      "type": "function"
    },
    {
      "inputs": [
        {
          "internalType": "address",
          "name": "newIndexTokenAddress",
          "type": "address"
        }
      ],
      "name": "setIndexTokenId",
      "outputs": [],
      "stateMutability": "nonpayable",
      "type": "function"
    },
    {
      "inputs": [
        {
          "internalType": "bool",
          "name": "status",
          "type": "bool"
        }
      ],
      "name": "setSupplyKeyStatus",
      "outputs": [],
      "stateMutability": "nonpayable",
      "type": "function"
    },
    {
      "inputs": [
        {
          "internalType": "address",
          "name": "mockHts",
          "type": "address"
        }
      ],
      "name": "setTokenService",
      "outputs": [],
      "stateMutability": "nonpayable",
      "type": "function"
    },
    {
      "inputs": [],
      "name": "updateSupplyKeyStatus",
      "outputs": [],
      "stateMutability": "nonpayable",
      "type": "function"
    },
    {
      "inputs": [],
      "name": "vault",
      "outputs": [
        {
          "internalType": "contract IndexVault",
          "name": "",
          "type": "address"
        }
      ],
      "stateMutability": "view",
      "type": "function"
    },
    {
      "stateMutability": "payable",
      "type": "receive"
    }
  ],
  "bytecode": "0x60806040526002805460ff60a01b191690553480156200001e57600080fd5b5060405162002564380380620025648339810160408190526200004191620000c3565b6001600160a01b038116156200005857806200005c565b6101675b600380546001600160a01b039283166001600160a01b03199182161790915560028054949092169381169390931790555060018054821633179055600080549091169055620000fb565b80516001600160a01b0381168114620000be57600080fd5b919050565b60008060408385031215620000d757600080fd5b620000e283620000a6565b9150620000f260208401620000a6565b90509250929050565b612459806200010b6000396000f3fe60806040526004361061010d5760003560e01c80638ee2c4b811610095578063c2f4bfaf11610064578063c2f4bfaf146102ef578063de579bc914610304578063e294204d14610319578063f76c4a741461032e578063fbfa77cf1461034157600080fd5b80638ee2c4b81461026c5780638f9f8b0114610281578063aa13e5f1146102af578063c11201f7146102cf57600080fd5b8063335c3fe8116100dc578063335c3fe8146101cd578063449a52f8146101ef5780634543873d1461020f5780634bb3c9cf146102255780635b7f415c1461024557600080fd5b8063041dbadf1461011957806310fe9ae81461014a5780632a0acc6a1461017c578063331a4c201461019c57600080fd5b3661011457005b600080fd5b34801561012557600080fd5b50610130626acfc081565b60405163ffffffff90911681526020015b60405180910390f35b34801561015657600080fd5b506000546001600160a01b03165b6040516001600160a01b039091168152602001610141565b34801561018857600080fd5b50600154610164906001600160a01b031681565b3480156101a857600080fd5b506002546101bd90600160a01b900460ff1681565b6040519015158152602001610141565b3480156101d957600080fd5b506101ed6101e8366004611b8e565b610361565b005b3480156101fb57600080fd5b506101ed61020a366004611bc7565b6103e4565b34801561021b57600080fd5b5061016461016781565b34801561023157600080fd5b506101ed610240366004611bf3565b6107e5565b34801561025157600080fd5b5061025a600881565b60405160ff9091168152602001610141565b34801561027857600080fd5b50610130600081565b34801561028d57600080fd5b506102a161029c366004611c10565b610832565b604051610141929190611c6d565b3480156102bb57600080fd5b506101ed6102ca366004611bf3565b6108b1565b3480156102db57600080fd5b50600054610164906001600160a01b031681565b3480156102fb57600080fd5b506101ed610a44565b34801561031057600080fd5b506101ed610a79565b34801561032557600080fd5b506101bd600181565b6101ed61033c366004611d0d565b610b98565b34801561034d57600080fd5b50600254610164906001600160a01b031681565b6001546001600160a01b0316331461038c57604051634755657960e01b815260040160405180910390fd5b60028054821515600160a01b0260ff60a01b199091161790556040517f40a36e95e1165e03b5c30095cd9d1e9fa9d8aa98d06aa1d6432a77718c0b68f0906103d990831515815260200190565b60405180910390a150565b600254600160a01b900460ff1661040e5760405163b291599960e01b815260040160405180910390fd5b8060000361042f5760405163162908e360e11b815260040160405180910390fd5b600354600054604051631c97fa2960e21b81526001600160a01b039182166004820152848216602482015291169063725fe8a490604401602060405180830381865afa158015610483573d6000803e3d6000fd5b505050506040513d601f19601f820116820180604052508101906104a79190611da7565b6104e057600054604051632460bcbb60e21b81526001600160a01b03918216600482015290831660248201526044015b60405180910390fd5b600254604051635cea93e360e11b81526001600160a01b03848116600483015260248201849052600092169063b9d527c690604401602060405180830381865afa158015610532573d6000803e3d6000fd5b505050506040513d601f19601f820116820180604052508101906105569190611da7565b9050806105765760405163a2725db560e01b815260040160405180910390fd5b60408051600080825260208201909252816105a1565b606081526020019060019003908161058c5790505b50600354600080546040516376096e0160e11b815293945090926001600160a01b039283169263ec12dc02926105e09291169088908790600401611e20565b6020604051808303816000875af11580156105ff573d6000803e3d6000fd5b505050506040513d601f19601f820116820180604052508101906106239190611eb0565b90508060070b6000146107355760008160070b600019146106d8578160070b600119146106ad578160070b60021914610681576040518060400160405280600d81526020016c2ab735b737bbb71032b93937b960991b815250610706565b6040518060400160405280600e81526020016d125b9d985b1a5908185b5bdd5b9d60921b815250610706565b6040518060400160405280600d81526020016c4e6f20737570706c79206b657960981b815250610706565b60405180604001604052806014815260200173151bdad95b881b9bdd08185cdcdbd8da585d195960621b8152505b6000546040516389a219dd60e01b81529192506104d7916001600160a01b039091169084908490600401611ecb565b60025460405163746b934560e01b81526001600160a01b038781166004830152602482018790529091169063746b934590604401600060405180830381600087803b15801561078357600080fd5b505af1158015610797573d6000803e3d6000fd5b50505050846001600160a01b03167fb10d72c4fed7257575e1cb903701345d622e81a97d514c757eeb7bd26dd2f36f856040516107d691815260200190565b60405180910390a25050505050565b6001546001600160a01b0316331461081057604051634755657960e01b815260040160405180910390fd5b600380546001600160a01b0319166001600160a01b0392909216919091179055565b600254604051638f9f8b0160e01b81526004810183905260609182916001600160a01b0390911690638f9f8b0190602401600060405180830381865afa158015610880573d6000803e3d6000fd5b505050506040513d6000823e601f3d908101601f191682016040526108a89190810190611fbe565b91509150915091565b6001546001600160a01b031633146108dc57604051634755657960e01b815260040160405180910390fd5b6000546001600160a01b0316156109355760405162461bcd60e51b815260206004820152601760248201527f496e64657820746f6b656e20616c72656164792073657400000000000000000060448201526064016104d7565b6001600160a01b03811661098b5760405162461bcd60e51b815260206004820152601a60248201527f43616e6e6f742073657420746f207a65726f206164647265737300000000000060448201526064016104d7565b600080546001600160a01b0319166001600160a01b0383161790556109ae610a79565b60025460405163b82a35c560e01b81526001600160a01b0383811660048301529091169063b82a35c590602401600060405180830381600087803b1580156109f557600080fd5b505af1158015610a09573d6000803e3d6000fd5b50506040516001600160a01b03841692507f40cdac5625b9528b38b786c9b74c257c1de10eac74b82c0ebc45a652cd8bcf639150600090a250565b6001546001600160a01b03163314610a6f57604051634755657960e01b815260040160405180910390fd5b610a77610a79565b565b6000546001600160a01b0316610acd576002805460ff60a01b19169055604051600081527f40a36e95e1165e03b5c30095cd9d1e9fa9d8aa98d06aa1d6432a77718c0b68f0906020015b60405180910390a1565b600354600054604051632e1a634560e11b81526001600160a01b039182166004820152306024820152911690635c34c68a90604401602060405180830381865afa158015610b1f573d6000803e3d6000fd5b505050506040513d601f19601f82011682018060405250810190610b439190611da7565b6002805460ff60a01b1916600160a01b9215158302179081905560405160ff9290910491909116151581527f40a36e95e1165e03b5c30095cd9d1e9fa9d8aa98d06aa1d6432a77718c0b68f090602001610ac3565b6001546001600160a01b03163314610bc357604051634755657960e01b815260040160405180910390fd5b6000546001600160a01b031615610c1c5760405162461bcd60e51b815260206004820152601a60248201527f496e64657820746f6b656e20616c72656164792065786973747300000000000060448201526064016104d7565b7f87f957b6294abd47c00ad421bd528a0ef626ee7f3e4f5b7f6cc082a1dd3406a186868686868630604051610c5797969594939291906120ac565b60405180910390a160408051600180825281830190925260009160208083019080368337505060015482519293506001600160a01b031691839150600090610ca157610ca1612105565b6001600160a01b0392909216602092830291909101909101526040805160018082528183019092526000918160200160208202803683370190505090503081600081518110610cf257610cf2612105565b6001600160a01b0392909216602092830291909101820152604080516000808252928101808352606090819052601c60808301527f4265666f7265206372656174696e6720746f6b656e207374727563740000000060a0830152818301849052810192909252516000805160206123958339815191529060c08184030190a1604080516102006020601f8c0181900402820181019092526101e081018a81526000928291908d908d9081908501838280828437600092019190915250505090825250604080516020601f8c018190048102820181019092528a815291810191908b908b90819084018382808284376000920191909152505050908252506002546001600160a01b031660208083019190915260408051601f8a0183900483028101830182528981529201919089908990819084018382808284376000920182905250938552505060016020840152506040808301829052606083018290526080830186905260a0830186905260c0830187905260e083018890526101008301869052600861012084015230610140840152626acfc061016090930192909252905191925060008051602061239583398151915291610efd919081906060808252601b908201527f4166746572206372656174696e6720746f6b656e20737472756374000000000060808201526001600160a01b0392909216602083015260070b604082015260a00190565b60405180910390a16040805160038082526080820190925260009160208201606080368337019050509050600181600081518110610f3d57610f3d612105565b602002602001019060ff16908160ff1681525050600481600181518110610f6657610f66612105565b602002602001019060ff16908160ff1681525050600881600281518110610f8f57610f8f612105565b60ff92909216602092830291909101820152604080516003808252608082019092526000929091908201606080368337505060015482519293506001600160a01b031691839150600090610fe557610fe5612105565b60200260200101906001600160a01b031690816001600160a01b031681525050308160018151811061101957611019612105565b60200260200101906001600160a01b031690816001600160a01b031681525050308160028151811061104d5761104d612105565b6001600160a01b0390921660209283029190910182015260408051606080825281018390527f44656275673a2041626f757420746f2063616c6c20637265617465546f6b656e60808201526000928101839052908101919091526000805160206123958339815191529060a00160405180910390a1604080516060808252601a908201527f4265666f72652063616c6c696e6720637265617465546f6b656e00000000000060808201526000602082018190528183015290516000805160206123958339815191529181900360a00190a1604080516060808252600e908201526d21b932b0ba34b733903a37b5b2b760911b60808201526000602082018190528183015290516000805160206123958339815191529181900360a00190a1600354604051635f692a2b60e11b815260009182916001600160a01b039091169063bed254569034906111a890899086908a908a9060040161214e565b604080518083038185885af1935050505080156111e2575060408051601f3d908101601f191682019092526111df91810190612326565b60015b611282573d808015611210576040519150601f19603f3d011682016040523d82523d6000602084013e611215565b606091505b508051819060000361123d576040518060600160405280602181526020016124036021913990505b6000805160206123b58339815191526103e6198260405161125f92919061235d565b60405180910390a180604051630f8f86b160e31b81526004016104d79190612381565b81935080925060008051602061239583398151915281836040516112f29291906060808252601a908201527f437265617465546f6b656e2063616c6c20636f6d706c6574656400000000000060808201526001600160a01b0392909216602083015260070b604082015260a00190565b60405180910390a150506040805160608082526019908201527f41667465722063616c6c696e6720637265617465546f6b656e0000000000000060808201526001600160a01b0383166020820152600784900b8183015290516000805160206123958339815191529181900360a00190a18160070b6000146114975760008260070b601614611436578260070b601b146113fb578260070b6007146113c057604051806040016040528060118152602001702ab735b737bbb710242a299032b93937b960791b815250611450565b6040518060400160405280601a81526020017f494e53554646494349454e545f50415945525f42414c414e4345000000000000815250611450565b6040518060400160405280601e81526020017f494e56414c49445f544f4b454e5f54524541535552595f4143434f554e540000815250611450565b6040518060600160405280602e81526020016123d5602e91395b90506000805160206123b5833981519152838260405161147192919061235d565b60405180910390a1604051622a27bf60e01b8152600784900b60048201526024016104d7565b6001600160a01b038116611534576040805160008152602081018290526036818301527f546f6b656e206372656174696f6e2073756363656564656420627574206e6f206060820152751d1bdad95b881859191c995cdcc81c995d1d5c9b995960521b608082015290516000805160206123b58339815191529181900360a00190a1604051622a27bf60e01b8152600060048201526024016104d7565b600080546001600160a01b0319166001600160a01b038316908117825560408051606080825260149082015273151bdad95b881859191c995cdcc81cdd1bdc995960621b608082015260208101929092528101919091526000805160206123958339815191529060a00160405180910390a16040805160608082526018908201527f4265666f7265206173736f63696174696e6720746f6b656e000000000000000060808201526001600160a01b038316602082015260008183015290516000805160206123958339815191529181900360a00190a16040805160608082526016908201527520b9b9b7b1b4b0ba34b733903bb4ba34103a37b5b2b760511b60808201526001600160a01b038316602082015260008183015290516000805160206123958339815191529181900360a00190a160035460405163248a35ef60e11b81523060048201526001600160a01b03838116602483015260009216906349146bde906044016020604051808303816000875af11580156116ba573d6000803e3d6000fd5b505050506040513d601f19601f820116820180604052508101906116de9190611eb0565b90508060070b6000146117615760408051600783900b815260208101829052601e818301527f4661696c656420746f206173736f6369617465207769746820746f6b656e0000606082015290516000805160206123b58339815191529181900360800190a1604051622a27bf60e01b8152600782900b60048201526024016104d7565b6040805160608082526017908201527f4166746572206173736f63696174696e6720746f6b656e00000000000000000060808201526001600160a01b0384166020820152600783900b8183015290516000805160206123958339815191529181900360a00190a1604080516060808252601a908201527f546f6b656e206173736f63696174696f6e20636f6d706c65746500000000000060808201526001600160a01b038416602082015260008183015290516000805160206123958339815191529181900360a00190a1604080516060808252601590820152741099599bdc99481d5c19185d1a5b99c81d985d5b1d605a1b60808201526001600160a01b038416602082015260008183015290516000805160206123958339815191529181900360a00190a1604080516060808252600e908201526d155c19185d1a5b99c81d985d5b1d60921b60808201526001600160a01b038416602082015260008183015290516000805160206123958339815191529181900360a00190a160025460405163b82a35c560e01b81526001600160a01b0384811660048301529091169063b82a35c590602401600060405180830381600087803b15801561192457600080fd5b505af1158015611938573d6000803e3d6000fd5b50506040805160608082526014908201527310599d195c881d5c19185d1a5b99c81d985d5b1d60621b60808201526001600160a01b0386166020820152600081830152905160008051602061239583398151915293509081900360a0019150a1604080516060808252601b908201527f4265666f726520766572696679696e6720737570706c79206b6579000000000060808201526001600160a01b038416602082015260008183015290516000805160206123958339815191529181900360a00190a160408051606080825260149082015273566572696679696e6720737570706c79206b657960601b60808201526001600160a01b038416602082015260008183015290516000805160206123958339815191529181900360a00190a1611a5f610a79565b604080516060808252601a908201527f416674657220766572696679696e6720737570706c79206b657900000000000060808201526001600160a01b038416602082015260008183015290516000805160206123958339815191529181900360a00190a1604080516001600160a01b0384168152600785900b60208201527f6eac19c9a21d5e9d36083852c56740284f5b210efee80c1cd2527b3d4c58fcf6910160405180910390a16040805160608082526017908201527f546f6b656e206372656174696f6e20636f6d706c65746500000000000000000060808201526001600160a01b038416602082015260008183015290516000805160206123958339815191529181900360a00190a1505050505050505050505050505050565b8015158114611b8b57600080fd5b50565b600060208284031215611ba057600080fd5b8135611bab81611b7d565b9392505050565b6001600160a01b0381168114611b8b57600080fd5b60008060408385031215611bda57600080fd5b8235611be581611bb2565b946020939093013593505050565b600060208284031215611c0557600080fd5b8135611bab81611bb2565b600060208284031215611c2257600080fd5b5035919050565b600081518084526020808501945080840160005b83811015611c625781516001600160a01b031687529582019590820190600101611c3d565b509495945050505050565b604081526000611c806040830185611c29565b82810360208481019190915284518083528582019282019060005b81811015611cb757845183529383019391830191600101611c9b565b5090979650505050505050565b60008083601f840112611cd657600080fd5b50813567ffffffffffffffff811115611cee57600080fd5b602083019150836020828501011115611d0657600080fd5b9250929050565b60008060008060008060608789031215611d2657600080fd5b863567ffffffffffffffff80821115611d3e57600080fd5b611d4a8a838b01611cc4565b90985096506020890135915080821115611d6357600080fd5b611d6f8a838b01611cc4565b90965094506040890135915080821115611d8857600080fd5b50611d9589828a01611cc4565b979a9699509497509295939492505050565b600060208284031215611db957600080fd5b8151611bab81611b7d565b634e487b7160e01b600052604160045260246000fd5b6000815180845260005b81811015611e0057602081850181015186830182015201611de4565b506000602082860101526020601f19601f83011685010191505092915050565b60006060820160018060a01b0386168352602085818501526060604085015281855180845260808601915060808160051b870101935082870160005b82811015611e8a57607f19888703018452611e78868351611dda565b95509284019290840190600101611e5c565b50939998505050505050505050565b8051600781900b8114611eab57600080fd5b919050565b600060208284031215611ec257600080fd5b611bab82611e99565b60018060a01b03841681528260070b6020820152606060408201526000611ef56060830184611dda565b95945050505050565b604051601f8201601f1916810167ffffffffffffffff81118282101715611f2757611f27611dc4565b604052919050565b600067ffffffffffffffff821115611f4957611f49611dc4565b5060051b60200190565b600082601f830112611f6457600080fd5b81516020611f79611f7483611f2f565b611efe565b82815260059290921b84018101918181019086841115611f9857600080fd5b8286015b84811015611fb35780518352918301918301611f9c565b509695505050505050565b60008060408385031215611fd157600080fd5b825167ffffffffffffffff80821115611fe957600080fd5b818501915085601f830112611ffd57600080fd5b8151602061200d611f7483611f2f565b82815260059290921b8401810191818101908984111561202c57600080fd5b948201945b8386101561205357855161204481611bb2565b82529482019490820190612031565b9188015191965090935050508082111561206c57600080fd5b5061207985828601611f53565b9150509250929050565b81835281816020850137506000828201602090810191909152601f909101601f19169091010190565b6080815260006120c060808301898b612083565b82810360208401526120d381888a612083565b905082810360408401526120e8818688612083565b91505060018060a01b038316606083015298975050505050505050565b634e487b7160e01b600052603260045260246000fd5b600081518084526020808501945080840160005b83811015611c6257815160ff168752958201959082019060010161212f565b60808152600085516101e080608085015261216d610260850183611dda565b91506020880151607f19808685030160a087015261218b8483611dda565b935060408a015191506121a960c08701836001600160a01b03169052565b60608a01519150808685030160e08701526121c48483611dda565b935060808a015191506101006121dd8188018415159052565b60a08b015192506101206121f88189018563ffffffff169052565b60c08c0151935061014061220f818a018615159052565b60e08d01519450610160848a890301818b015261222c8887611c29565b9750838e015195506101809350848a890301848b015261224c8887611c29565b9750828e015195506101a09250848a890301838b015261226c8887611c29565b9750818e015195506101c09150848a890301828b015261228c8887611c29565b9750808e01519550508389880301868a01526122a88786611c29565b9650828d015195506122c06102008a018760ff169052565b908c01516001600160a01b03166102208901528b015163ffffffff811661024089015293506122ee92505050565b508560208401528281036040840152612307818661211b565b9050828103606084015261231b8185611c29565b979650505050505050565b6000806040838503121561233957600080fd5b61234283611e99565b9150602083015161235281611bb2565b809150509250929050565b8260070b81526040602082015260006123796040830184611dda565b949350505050565b602081526000611bab6020830184611dda56fe0e1d4b26cd221748385fba6c86ee55275e3c2a09c4b57ed18b5db824af9cb1a676903562693ed75d5da5133f5a19c7e40e1527ee68c33ce709b85ef2f4f72012544f4b454e5f414c52454144595f4558495354535f574954485f444946464552454e545f50524f50455254494553556e6b6e6f776e206572726f722028656d70747920726576657274206461746129a264697066735822122035a8a381bc0ad09dfca9316738e80bbb13b0e2be3630be4ccfb9ab7dffb8542a64736f6c63430008130033",
  "linkReferences": {},
  "deployedLinkReferences": {}
}