{
  "_format": "hh-sol-artifact-1",
  "contractName": "TestHTS",
  "sourceName": "contracts/debug/TestHTS.sol",
  "abi": [
    {
      "anonymous": false,
      "inputs": [
        {
          "indexed": false,
          "internalType": "string",
          "name": "step",
          "type": "string"
        }
      ],
      "name": "Checkpoint",
      "type": "event"
    },
    {
      "anonymous": false,
      "inputs": [
        {
          "indexed": false,
          "internalType": "string",
          "name": "step",
          "type": "string"
        },
        {
          "indexed": false,
          "internalType": "uint256",
          "name": "gasLeft",
          "type": "uint256"
        }
      ],
      "name": "GasCheckpoint",
      "type": "event"
    },
    {
      "anonymous": false,
      "inputs": [
        {
          "indexed": false,
          "internalType": "address",
          "name": "tokenAddress",
          "type": "address"
        },
        {
          "indexed": false,
          "internalType": "int64",
          "name": "responseCode",
          "type": "int64"
        }
      ],
      "name": "TokenCreated",
      "type": "event"
    },
    {
      "anonymous": false,
      "inputs": [
        {
          "indexed": false,
          "internalType": "int64",
          "name": "responseCode",
          "type": "int64"
        },
        {
          "indexed": false,
          "internalType": "string",
          "name": "errorMessage",
          "type": "string"
        }
      ],
      "name": "TokenCreationError",
      "type": "event"
    },
    {
      "inputs": [],
      "name": "HTS_PRECOMPILE",
      "outputs": [
        {
          "internalType": "address",
          "name": "",
          "type": "address"
        }
      ],
      "stateMutability": "view",
      "type": "function"
    },
    {
      "inputs": [
        {
          "internalType": "string",
          "name": "name",
          "type": "string"
        },
        {
          "internalType": "string",
          "name": "symbol",
          "type": "string"
        }
      ],
      "name": "createBasicToken",
      "outputs": [],
      "stateMutability": "payable",
      "type": "function"
    },
    {
      "inputs": [
        {
          "internalType": "string",
          "name": "name",
          "type": "string"
        },
        {
          "internalType": "string",
          "name": "symbol",
          "type": "string"
        }
      ],
      "name": "createTokenWithAdminKey",
      "outputs": [],
      "stateMutability": "payable",
      "type": "function"
    },
    {
      "inputs": [
        {
          "internalType": "string",
          "name": "name",
          "type": "string"
        },
        {
          "internalType": "string",
          "name": "symbol",
          "type": "string"
        }
      ],
      "name": "createTokenWithAutoRenew",
      "outputs": [],
      "stateMutability": "payable",
      "type": "function"
    },
    {
      "inputs": [
        {
          "internalType": "string",
          "name": "name",
          "type": "string"
        },
        {
          "internalType": "string",
          "name": "symbol",
          "type": "string"
        }
      ],
      "name": "createTokenWithSupplyKey",
      "outputs": [],
      "stateMutability": "payable",
      "type": "function"
    },
    {
      "inputs": [
        {
          "internalType": "string",
          "name": "name",
          "type": "string"
        },
        {
          "internalType": "string",
          "name": "symbol",
          "type": "string"
        },
        {
          "internalType": "address",
          "name": "treasury",
          "type": "address"
        }
      ],
      "name": "createTokenWithTreasury",
      "outputs": [],
      "stateMutability": "payable",
      "type": "function"
    },
    {
      "inputs": [],
      "name": "lastCreatedToken",
      "outputs": [
        {
          "internalType": "address",
          "name": "",
          "type": "address"
        }
      ],
      "stateMutability": "view",
      "type": "function"
    },
    {
      "stateMutability": "payable",
      "type": "receive"
    }
  ],
  "bytecode": "0x608060405234801561001057600080fd5b5061229a806100206000396000f3fe6080604052600436106100745760003560e01c806352e49cbb1161004e57806352e49cbb146100da57806355f0798c146100fa578063585442ad1461010d578063c54ca2451461012057600080fd5b80632b8a1977146100805780634543873d146100955780634609a817146100c757600080fd5b3661007b57005b600080fd5b61009361008e3660046114e3565b610133565b005b3480156100a157600080fd5b506100ab61016781565b6040516001600160a01b03909116815260200160405180910390f35b6100936100d53660046114e3565b610472565b3480156100e657600080fd5b506000546100ab906001600160a01b031681565b6100936101083660046114e3565b610936565b61009361011b36600461155f565b610d49565b61009361012e3660046114e3565b61108c565b60008051602061219f83398151915260405161014e906115d7565b60405180910390a16000805160206122248339815191525a6040516101739190611602565b60405180910390a1604080516101e0810182528381526020808201849052338284015282518084018452600a8152692a32b9ba102a37b5b2b760b11b81830152606083015260016080830152600060a0830181905260c083018190528351818152808301855260e08401528351818152808301855261010084015283518181528083018552610120840152835181815280830185526101408401528351818152918201845261016083019190915260086101808301526101a0820152626acfc06101c08201529051610167919060008051602061219f8339815191529061025990611635565b60405180910390a16000805160206122248339815191525a60405161027e9190611667565b60405180910390a16040805160008082526020820181815282840193849052635f692a2b60e11b9093526001600160a01b0385169263bed254569234926102cb9287929060448201611756565b604080518083038185885af193505050508015610305575060408051601f3d908101601f191682019092526103029181019061192e565b60015b6103d9573d808015610333576040519150601f19603f3d011682016040523d82523d6000602084013e610338565b606091505b5060008051602061219f8339815191526040516103549061196e565b60405180910390a16000805160206122248339815191525a60405161037991906119a2565b60405180910390a1805181906000036103a8576040518060600160405280602181526020016122446021913990505b6000805160206122048339815191526103e619826040516103ca9291906119d6565b60405180910390a1505061046c565b60008051602061219f8339815191526040516103f4906119fa565b60405180910390a16000805160206122248339815191525a6040516104199190611a2b565b60405180910390a1600080546001600160a01b0319166001600160a01b03831690811790915560408051918252600784900b60208301526000805160206121e4833981519152910160405180910390a150505b50505050565b60008051602061219f83398151915260405161048d90611a5c565b60405180910390a16000805160206122248339815191525a6040516104b29190611a8b565b60405180910390a160408051600180825281830190925261016791600091906020808301908036833701905050905033816000815181106104f5576104f5611aba565b6001600160a01b039290921660209283029190910190910152604080516001808252818301909252600091816020016020820280368337019050509050308160008151811061054657610546611aba565b6001600160a01b039290921660209283029190910182015260408051600080825292810190915290506000604051806101e00160405280888152602001878152602001336001600160a01b031681526020016040518060600160405280602581526020016121bf602591398152600160208201526000604080830182905260608084018390526080840187905260a0840187905260c0840188905260e08401899052610100840187905260086101208501526101408401839052626acfc06101609094019390935280516002808252938101909152929350919081602001602082028036833701905050905060018160008151811061064757610647611aba565b602002602001019060ff16908160ff168152505060048160018151811061067057610670611aba565b60ff92909216602092830291909101820152604080516002808252606082018352600093919290918301908036833701905050905033816000815181106106b9576106b9611aba565b60200260200101906001600160a01b031690816001600160a01b03168152505030816001815181106106ed576106ed611aba565b60200260200101906001600160a01b031690816001600160a01b03168152505060008051602061219f83398151915260405161072890611ad0565b60405180910390a16000805160206122248339815191525a60405161074d9190611b0d565b60405180910390a1604051635f692a2b60e11b81526001600160a01b0388169063bed2545690349061078a90879060009088908890600401611756565b604080518083038185885af1935050505080156107c4575060408051601f3d908101601f191682019092526107c19181019061192e565b60015b610898573d8080156107f2576040519150601f19603f3d011682016040523d82523d6000602084013e6107f7565b606091505b5060008051602061219f83398151915260405161081390611b4a565b60405180910390a16000805160206122248339815191525a6040516108389190611b87565b60405180910390a180518190600003610867576040518060600160405280602181526020016122446021913990505b6000805160206122048339815191526103e619826040516108899291906119d6565b60405180910390a1505061092b565b60008051602061219f8339815191526040516108b390611bc4565b60405180910390a16000805160206122248339815191525a6040516108d89190611c01565b60405180910390a1600080546001600160a01b0319166001600160a01b03831690811790915560408051918252600784900b60208301526000805160206121e4833981519152910160405180910390a150505b505050505050505050565b60008051602061219f83398151915260405161095190611c3e565b60405180910390a16000805160206122248339815191525a6040516109769190611c6c565b60405180910390a160408051600180825281830190925261016791600091906020808301908036833701905050905033816000815181106109b9576109b9611aba565b6001600160a01b03929092166020928302919091018201526040805160008082526102008201835281840188815282840188905233606084015283518085018552601981527f5465737420546f6b656e20776974682041646d696e204b657900000000000000818701526080840152600160a0840181905260c0840183905260e084018390526101008401849052610120840184905261014084018490526101608401879052610180840184905260086101a08501526101c08401839052626acfc06101e08501528451818152808601909552929490939192908281019080368337019050509050600181600081518110610ab657610ab6611aba565b60ff92909216602092830291909101909101526040805160018082528183019092526000918160200160208202803683370190505090503381600081518110610b0157610b01611aba565b60200260200101906001600160a01b031690816001600160a01b03168152505060008051602061219f833981519152604051610b3c90611c9a565b60405180910390a16000805160206122248339815191525a604051610b619190611cd7565b60405180910390a1604051635f692a2b60e11b81526001600160a01b0387169063bed25456903490610b9e90879060009088908890600401611756565b604080518083038185885af193505050508015610bd8575060408051601f3d908101601f19168201909252610bd59181019061192e565b60015b610cac573d808015610c06576040519150601f19603f3d011682016040523d82523d6000602084013e610c0b565b606091505b5060008051602061219f833981519152604051610c2790611d14565b60405180910390a16000805160206122248339815191525a604051610c4c9190611d51565b60405180910390a180518190600003610c7b576040518060600160405280602181526020016122446021913990505b6000805160206122048339815191526103e61982604051610c9d9291906119d6565b60405180910390a15050610d3f565b60008051602061219f833981519152604051610cc790611d8e565b60405180910390a16000805160206122248339815191525a604051610cec9190611dcb565b60405180910390a1600080546001600160a01b0319166001600160a01b03831690811790915560408051918252600784900b60208301526000805160206121e4833981519152910160405180910390a150505b5050505050505050565b60008051602061219f833981519152604051610d6490611e08565b60405180910390a16000805160206122248339815191525a604051610d899190611e36565b60405180910390a16040805160008082526102008201835260208083018781528385018790526001600160a01b038616606085015284518086018652601e81527f5465737420546f6b656e2077697468205661756c742054726561737572790000928101929092526080840191909152600160a084015260c0830182905260e083018290526101008301839052610120830183905261014083018390526101608301839052610180830183905260086101a08401526101c0830191909152626acfc06101e08301529151610167929060008051602061219f83398151915290610e7190611e64565b60405180910390a16000805160206122248339815191525a604051610e969190611ea1565b60405180910390a16040805160008082526020820181815282840193849052635f692a2b60e11b9093526001600160a01b0386169263bed25456923492610ee39287929060448201611756565b604080518083038185885af193505050508015610f1d575060408051601f3d908101601f19168201909252610f1a9181019061192e565b60015b610ff1573d808015610f4b576040519150601f19603f3d011682016040523d82523d6000602084013e610f50565b606091505b5060008051602061219f833981519152604051610f6c90611ede565b60405180910390a16000805160206122248339815191525a604051610f919190611f1b565b60405180910390a180518190600003610fc0576040518060600160405280602181526020016122446021913990505b6000805160206122048339815191526103e61982604051610fe29291906119d6565b60405180910390a15050611084565b60008051602061219f83398151915260405161100c90611f58565b60405180910390a16000805160206122248339815191525a6040516110319190611f95565b60405180910390a1600080546001600160a01b0319166001600160a01b03831690811790915560408051918252600784900b60208301526000805160206121e4833981519152910160405180910390a150505b505050505050565b60008051602061219f8339815191526040516110a790611fd2565b60405180910390a16000805160206122248339815191525a6040516110cc9190612001565b60405180910390a1604080516001808252818301909252610167916000919060208083019080368337019050509050338160008151811061110f5761110f611aba565b6001600160a01b0392909216602092830291909101820152604080516000808252610200820183528184018881528284018890523360608085019190915284518086018652601981527f5465737420546f6b656e2077697468204175746f52656e657700000000000000818801526080850152600160a085015260c0840183905260e084018390526101008401849052610120840184905261014084018490526101608401879052610180840184905260086101a0850152306101c0850152626acfc06101e08501528451600280825291810186529395919492939290918301908036833701905050905060018160008151811061120f5761120f611aba565b602002602001019060ff16908160ff168152505060088160018151811061123857611238611aba565b60ff929092166020928302919091018201526040805160028082526060820183526000939192909183019080368337019050509050338160008151811061128157611281611aba565b60200260200101906001600160a01b031690816001600160a01b03168152505030816001815181106112b5576112b5611aba565b60200260200101906001600160a01b031690816001600160a01b03168152505060008051602061219f8339815191526040516112f090612030565b60405180910390a16000805160206122248339815191525a604051611315919061206d565b60405180910390a1604051635f692a2b60e11b81526001600160a01b0387169063bed2545690349061135290879060009088908890600401611756565b604080518083038185885af19350505050801561138c575060408051601f3d908101601f191682019092526113899181019061192e565b60015b611400573d8080156113ba576040519150601f19603f3d011682016040523d82523d6000602084013e6113bf565b606091505b5060008051602061219f8339815191526040516113db906120aa565b60405180910390a16000805160206122248339815191525a604051610c4c91906120e7565b60008051602061219f83398151915260405161141b90612124565b60405180910390a16000805160206122248339815191525a604051610cec9190612161565b634e487b7160e01b600052604160045260246000fd5b600082601f83011261146757600080fd5b813567ffffffffffffffff8082111561148257611482611440565b604051601f8301601f19908116603f011681019082821181831017156114aa576114aa611440565b816040528381528660208588010111156114c357600080fd5b836020870160208301376000602085830101528094505050505092915050565b600080604083850312156114f657600080fd5b823567ffffffffffffffff8082111561150e57600080fd5b61151a86838701611456565b9350602085013591508082111561153057600080fd5b5061153d85828601611456565b9150509250929050565b6001600160a01b038116811461155c57600080fd5b50565b60008060006060848603121561157457600080fd5b833567ffffffffffffffff8082111561158c57600080fd5b61159887838801611456565b945060208601359150808211156115ae57600080fd5b506115bb86828701611456565b92505060408401356115cc81611547565b809150509250925092565b6020815260006115fc60208301600581526414dd185c9d60da1b602082015260400190565b92915050565b60408152600061162760408301600581526414dd185c9d60da1b602082015260400190565b905082602083015292915050565b6020815260006115fc6020830160128152712132b337b9329031b932b0ba32aa37b5b2b760711b602082015260400190565b6040815260006116276040830160128152712132b337b9329031b932b0ba32aa37b5b2b760711b602082015260400190565b6000815180845260005b818110156116bf576020818501810151868301820152016116a3565b506000602082860101526020601f19601f83011685010191505092915050565b600081518084526020808501945080840160005b838110156117185781516001600160a01b0316875295820195908201906001016116f3565b509495945050505050565b600081518084526020808501945080840160005b8381101561171857815160ff1687529582019590820190600101611737565b60808152600085516101e0806080850152611775610260850183611699565b91506020880151607f19808685030160a08701526117938483611699565b935060408a015191506117b160c08701836001600160a01b03169052565b60608a01519150808685030160e08701526117cc8483611699565b935060808a015191506101006117e58188018415159052565b60a08b015192506101206118008189018563ffffffff169052565b60c08c01519350610140611817818a018615159052565b60e08d01519450610160848a890301818b015261183488876116df565b9750838e015195506101809350848a890301848b015261185488876116df565b9750828e015195506101a09250848a890301838b015261187488876116df565b9750818e015195506101c09150848a890301828b015261189488876116df565b9750808e01519550508389880301868a01526118b087866116df565b9650828d015195506118c86102008a018760ff169052565b908c01516001600160a01b03166102208901528b015163ffffffff811661024089015293506118f692505050565b50856020840152828103604084015261190f8186611723565b9050828103606084015261192381856116df565b979650505050505050565b6000806040838503121561194157600080fd5b82518060070b811461195257600080fd5b602084015190925061196381611547565b809150509250929050565b6020815260006115fc60208301601481527322b93937b91034b71031b932b0ba32aa37b5b2b760611b602082015260400190565b60408152600061162760408301601481527322b93937b91034b71031b932b0ba32aa37b5b2b760611b602082015260400190565b8260070b81526040602082015260006119f26040830184611699565b949350505050565b6020815260006115fc60208301601181527020b33a32b91031b932b0ba32aa37b5b2b760791b602082015260400190565b60408152600061162760408301601181527020b33a32b91031b932b0ba32aa37b5b2b760791b602082015260400190565b6020815260006115fc60208301600f81526e537461727420537570706c794b657960881b602082015260400190565b60408152600061162760408301600f81526e537461727420537570706c794b657960881b602082015260400190565b634e487b7160e01b600052603260045260246000fd5b6020815260006115fc60208301601c81527f4265666f726520637265617465546f6b656e20537570706c794b657900000000602082015260400190565b60408152600061162760408301601c81527f4265666f726520637265617465546f6b656e20537570706c794b657900000000602082015260400190565b6020815260006115fc60208301601e81527f4572726f7220696e20637265617465546f6b656e20537570706c794b65790000602082015260400190565b60408152600061162760408301601e81527f4572726f7220696e20637265617465546f6b656e20537570706c794b65790000602082015260400190565b6020815260006115fc60208301601b81527f416674657220637265617465546f6b656e20537570706c794b65790000000000602082015260400190565b60408152600061162760408301601b81527f416674657220637265617465546f6b656e20537570706c794b65790000000000602082015260400190565b6020815260006115fc60208301600e81526d53746172742041646d696e4b657960901b602082015260400190565b60408152600061162760408301600e81526d53746172742041646d696e4b657960901b602082015260400190565b6020815260006115fc60208301601b81527f4265666f726520637265617465546f6b656e2041646d696e4b65790000000000602082015260400190565b60408152600061162760408301601b81527f4265666f726520637265617465546f6b656e2041646d696e4b65790000000000602082015260400190565b6020815260006115fc60208301601d81527f4572726f7220696e20637265617465546f6b656e2041646d696e4b6579000000602082015260400190565b60408152600061162760408301601d81527f4572726f7220696e20637265617465546f6b656e2041646d696e4b6579000000602082015260400190565b6020815260006115fc60208301601a81527f416674657220637265617465546f6b656e2041646d696e4b6579000000000000602082015260400190565b60408152600061162760408301601a81527f416674657220637265617465546f6b656e2041646d696e4b6579000000000000602082015260400190565b6020815260006115fc60208301600e81526d537461727420547265617375727960901b602082015260400190565b60408152600061162760408301600e81526d537461727420547265617375727960901b602082015260400190565b6020815260006115fc60208301601b81527f4265666f726520637265617465546f6b656e2054726561737572790000000000602082015260400190565b60408152600061162760408301601b81527f4265666f726520637265617465546f6b656e2054726561737572790000000000602082015260400190565b6020815260006115fc60208301601d81527f4572726f7220696e20637265617465546f6b656e205472656173757279000000602082015260400190565b60408152600061162760408301601d81527f4572726f7220696e20637265617465546f6b656e205472656173757279000000602082015260400190565b6020815260006115fc60208301601a81527f416674657220637265617465546f6b656e205472656173757279000000000000602082015260400190565b60408152600061162760408301601a81527f416674657220637265617465546f6b656e205472656173757279000000000000602082015260400190565b6020815260006115fc60208301600f81526e5374617274204175746f52656e657760881b602082015260400190565b60408152600061162760408301600f81526e5374617274204175746f52656e657760881b602082015260400190565b6020815260006115fc60208301601c81527f4265666f726520637265617465546f6b656e204175746f52656e657700000000602082015260400190565b60408152600061162760408301601c81527f4265666f726520637265617465546f6b656e204175746f52656e657700000000602082015260400190565b6020815260006115fc60208301601e81527f4572726f7220696e20637265617465546f6b656e204175746f52656e65770000602082015260400190565b60408152600061162760408301601e81527f4572726f7220696e20637265617465546f6b656e204175746f52656e65770000602082015260400190565b6020815260006115fc60208301601b81527f416674657220637265617465546f6b656e204175746f52656e65770000000000602082015260400190565b60408152600061162760408301601b81527f416674657220637265617465546f6b656e204175746f52656e6577000000000060208201526040019056feb1fd29284b7a83462eb2babd0d9990b345c49033826b6cfacfff1ed216beedc05465737420546f6b656e20776974682041646d696e20616e6420537570706c79204b657973f2bd9ee0f805f0400eb427de41ff42ecbb8d13cd293bd1289a6b378532ad5d1676903562693ed75d5da5133f5a19c7e40e1527ee68c33ce709b85ef2f4f720127fd61c220461f2c47e0b5052f6e584193320f4d0cd137c3e9602fe44e5e48e17556e6b6e6f776e206572726f722028656d70747920726576657274206461746129a2646970667358221220214d6b473c22db8aa5832db56e09c6c2fae29673e9cd12d4f17bde856fcb899664736f6c63430008130033",
  "linkReferences": {},
  "deployedLinkReferences": {}
}