{
  "_format": "hh-sol-artifact-1",
  "contractName": "SimpleTokenMinter",
  "sourceName": "contracts/SimpleTokenMinter.sol",
  "abi": [
    {
      "inputs": [],
      "stateMutability": "nonpayable",
      "type": "constructor"
    },
    {
      "inputs": [
        {
          "internalType": "string",
          "name": "operation",
          "type": "string"
        },
        {
          "internalType": "int64",
          "name": "responseCode",
          "type": "int64"
        }
      ],
      "name": "HTSOperationFailed",
      "type": "error"
    },
    {
      "inputs": [],
      "name": "InvalidAmount",
      "type": "error"
    },
    {
      "inputs": [],
      "name": "TokenNotSet",
      "type": "error"
    },
    {
      "anonymous": false,
      "inputs": [
        {
          "indexed": false,
          "internalType": "address",
          "name": "token",
          "type": "address"
        },
        {
          "indexed": false,
          "internalType": "int64",
          "name": "amount",
          "type": "int64"
        },
        {
          "indexed": false,
          "internalType": "int64",
          "name": "responseCode",
          "type": "int64"
        }
      ],
      "name": "MintFailed",
      "type": "event"
    },
    {
      "anonymous": false,
      "inputs": [
        {
          "indexed": false,
          "internalType": "address",
          "name": "token",
          "type": "address"
        },
        {
          "indexed": false,
          "internalType": "int64",
          "name": "amount",
          "type": "int64"
        },
        {
          "indexed": false,
          "internalType": "int64",
          "name": "responseCode",
          "type": "int64"
        },
        {
          "indexed": false,
          "internalType": "int64",
          "name": "newTotalSupply",
          "type": "int64"
        }
      ],
      "name": "MintSuccessful",
      "type": "event"
    },
    {
      "anonymous": false,
      "inputs": [
        {
          "indexed": false,
          "internalType": "address",
          "name": "token",
          "type": "address"
        },
        {
          "indexed": false,
          "internalType": "int64",
          "name": "responseCode",
          "type": "int64"
        }
      ],
      "name": "TokenAssociated",
      "type": "event"
    },
    {
      "anonymous": false,
      "inputs": [
        {
          "indexed": false,
          "internalType": "address",
          "name": "token",
          "type": "address"
        }
      ],
      "name": "TokenSet",
      "type": "event"
    },
    {
      "inputs": [],
      "name": "associateTokens",
      "outputs": [],
      "stateMutability": "nonpayable",
      "type": "function"
    },
    {
      "inputs": [],
      "name": "checkAssociation",
      "outputs": [
        {
          "internalType": "bool",
          "name": "",
          "type": "bool"
        }
      ],
      "stateMutability": "nonpayable",
      "type": "function"
    },
    {
      "inputs": [
        {
          "internalType": "int64",
          "name": "amount",
          "type": "int64"
        }
      ],
      "name": "mintTokens",
      "outputs": [],
      "stateMutability": "nonpayable",
      "type": "function"
    },
    {
      "inputs": [
        {
          "internalType": "address",
          "name": "_tokenAddress",
          "type": "address"
        }
      ],
      "name": "setTokenAddress",
      "outputs": [],
      "stateMutability": "nonpayable",
      "type": "function"
    },
    {
      "inputs": [],
      "name": "tokenAddress",
      "outputs": [
        {
          "internalType": "address",
          "name": "",
          "type": "address"
        }
      ],
      "stateMutability": "view",
      "type": "function"
    },
    {
      "stateMutability": "payable",
      "type": "receive"
    }
  ],
  "bytecode": "0x608060405234801561001057600080fd5b50600080546001600160a01b031916610167179055610845806100346000396000f3fe60806040526004361061004e5760003560e01c806310ca0bce1461005a57806326a4e8d21461007157806359288690146100915780639d76ea58146100bb578063b62bca7a146100f357600080fd5b3661005557005b600080fd5b34801561006657600080fd5b5061006f610113565b005b34801561007d57600080fd5b5061006f61008c366004610596565b610271565b34801561009d57600080fd5b506100a66102c5565b60405190151581526020015b60405180910390f35b3480156100c757600080fd5b506001546100db906001600160a01b031681565b6040516001600160a01b0390911681526020016100b2565b3480156100ff57600080fd5b5061006f61010e3660046105d5565b61038b565b6001546001600160a01b031661013c57604051634b62f01360e01b815260040160405180910390fd5b6000805460015460405163248a35ef60e11b81523060048201526001600160a01b0391821660248201529116906349146bde906044016020604051808303816000875af1158015610191573d6000803e3d6000fd5b505050506040513d601f19601f820116820180604052508101906101b59190610602565b600154604080516001600160a01b039092168252600783900b60208301529192507f67ffbb4c78b48980b096bba60e2f42b06e9f89d70c4c458668c902f696571ec8910160405180910390a1600781900b60161480159061021b5750600781900b60c214155b1561026e576040805163016146c160e61b8152600481019190915260116044820152702a37b5b2b71030b9b9b7b1b4b0ba34b7b760791b6064820152600782900b60248201526084015b60405180910390fd5b50565b600180546001600160a01b0319166001600160a01b0383169081179091556040519081527fa07c91c183e42229e705a9795a1c06d76528b673788b849597364528c96eefb79060200160405180910390a150565b6001546000906001600160a01b03166102f157604051634b62f01360e01b815260040160405180910390fd5b60008054600154604051630d9f324960e31b81523060048201526001600160a01b03918216602482015283929190911690636cf992489060440160408051808303816000875af1158015610349573d6000803e3d6000fd5b505050506040513d601f19601f8201168201806040525081019061036d919061061f565b91509150601660030b8260070b1480156103845750805b9250505090565b6001546001600160a01b03166103b457604051634b62f01360e01b815260040160405180910390fd5b60008160070b136103d85760405163162908e360e11b815260040160405180910390fd5b6040805160008082526020820190925281610403565b60608152602001906001900390816103ee5790505b506000805460015460405163707a02cd60e11b81529394509192839283926001600160a01b039081169263e0f4059a9261044592169089908990600401610674565b6000604051808303816000875af1158015610464573d6000803e3d6000fd5b505050506040513d6000823e601f3d908101601f1916820160405261048c9190810190610720565b925092509250601660030b8360070b036104fd57600154604080516001600160a01b039092168252600787810b602084015285810b8383015284900b6060830152517f0a5f0e5e2bb4d2376c1912596aab8835f98513480a8d3c02a9775b5910c9535d9181900360800190a161058f565b600154604080516001600160a01b039092168252600787810b602084015285900b82820152517fa0c28231fbf5f65cb3142f80ce2a58f04dbac77fa126a08a2b4b3a08be0c60899181900360600190a16040805163016146c160e61b81526004810191909152600a604482015269151bdad95b881b5a5b9d60b21b6064820152600784900b6024820152608401610265565b5050505050565b6000602082840312156105a857600080fd5b81356001600160a01b03811681146105bf57600080fd5b9392505050565b8060070b811461026e57600080fd5b6000602082840312156105e757600080fd5b81356105bf816105c6565b80516105fd816105c6565b919050565b60006020828403121561061457600080fd5b81516105bf816105c6565b6000806040838503121561063257600080fd5b825161063d816105c6565b6020840151909250801515811461065357600080fd5b809150509250929050565b634e487b7160e01b600052604160045260246000fd5b60006060820160018060a01b038616835260208560070b818501526060604085015281855180845260808601915060808160051b87010193508287016000805b8381101561071057888703607f1901855282518051808952835b818110156106e9578281018901518a82018a015288016106ce565b508881018801849052601f01601f19169097018601965093850193918501916001016106b4565b50949a9950505050505050505050565b60008060006060848603121561073557600080fd5b8351610740816105c6565b80935050602080850151610753816105c6565b604086015190935067ffffffffffffffff8082111561077157600080fd5b818701915087601f83011261078557600080fd5b8151818111156107975761079761065e565b8060051b604051601f19603f830116810181811085821117156107bc576107bc61065e565b60405291825284820192508381018501918a8311156107da57600080fd5b938501935b828510156107ff576107f0856105f2565b845293850193928501926107df565b809650505050505050925092509256fea26469706673582212205eec9f30c3d5c468bdbdda6c0a7e17601d535f6788e8174fe5c4a41fa62dc6d464736f6c63430008130033",
  "linkReferences": {},
  "deployedLinkReferences": {}
}