{
  "_format": "hh-sol-artifact-1",
  "contractName": "IndexVault",
  "sourceName": "app/contracts/IndexVault.sol",
  "abi": [
    {
      "inputs": [
        {
          "internalType": "address",
          "name": "_controller",
          "type": "address"
        }
      ],
      "stateMutability": "nonpayable",
      "type": "constructor"
    },
    {
      "inputs": [
        {
          "internalType": "address",
          "name": "token",
          "type": "address"
        },
        {
          "internalType": "uint256",
          "name": "required",
          "type": "uint256"
        },
        {
          "internalType": "uint256",
          "name": "actual",
          "type": "uint256"
        }
      ],
      "name": "InsufficientDeposit",
      "type": "error"
    },
    {
      "inputs": [],
      "name": "InvalidComposition",
      "type": "error"
    },
    {
      "inputs": [],
      "name": "OnlyAdmin",
      "type": "error"
    },
    {
      "inputs": [],
      "name": "OnlyController",
      "type": "error"
    },
    {
      "inputs": [
        {
          "internalType": "address",
          "name": "token",
          "type": "address"
        },
        {
          "internalType": "address",
          "name": "account",
          "type": "address"
        }
      ],
      "name": "TokenNotAssociated",
      "type": "error"
    },
    {
      "inputs": [
        {
          "internalType": "address",
          "name": "token",
          "type": "address"
        },
        {
          "internalType": "int64",
          "name": "responseCode",
          "type": "int64"
        }
      ],
      "name": "TransferFailed",
      "type": "error"
    },
    {
      "anonymous": false,
      "inputs": [
        {
          "components": [
            {
              "internalType": "address",
              "name": "token",
              "type": "address"
            },
            {
              "internalType": "uint16",
              "name": "weight",
              "type": "uint16"
            }
          ],
          "indexed": false,
          "internalType": "struct IndexVault.Asset[]",
          "name": "composition",
          "type": "tuple[]"
        }
      ],
      "name": "CompositionUpdated",
      "type": "event"
    },
    {
      "anonymous": false,
      "inputs": [
        {
          "indexed": true,
          "internalType": "address",
          "name": "user",
          "type": "address"
        },
        {
          "indexed": true,
          "internalType": "address",
          "name": "token",
          "type": "address"
        },
        {
          "indexed": false,
          "internalType": "uint256",
          "name": "amount",
          "type": "uint256"
        }
      ],
      "name": "DepositReceived",
      "type": "event"
    },
    {
      "anonymous": false,
      "inputs": [
        {
          "indexed": true,
          "internalType": "address",
          "name": "tokenAddress",
          "type": "address"
        }
      ],
      "name": "IndexTokenSet",
      "type": "event"
    },
    {
      "anonymous": false,
      "inputs": [
        {
          "indexed": true,
          "internalType": "address",
          "name": "user",
          "type": "address"
        },
        {
          "indexed": false,
          "internalType": "uint256",
          "name": "amount",
          "type": "uint256"
        }
      ],
      "name": "TokensDistributed",
      "type": "event"
    },
    {
      "inputs": [],
      "name": "HTS_PRECOMPILE",
      "outputs": [
        {
          "internalType": "address",
          "name": "",
          "type": "address"
        }
      ],
      "stateMutability": "view",
      "type": "function"
    },
    {
      "inputs": [],
      "name": "admin",
      "outputs": [
        {
          "internalType": "address",
          "name": "",
          "type": "address"
        }
      ],
      "stateMutability": "view",
      "type": "function"
    },
    {
      "inputs": [
        {
          "internalType": "uint256",
          "name": "amount",
          "type": "uint256"
        }
      ],
      "name": "calculateRequiredDeposits",
      "outputs": [
        {
          "internalType": "address[]",
          "name": "tokens",
          "type": "address[]"
        },
        {
          "internalType": "uint256[]",
          "name": "amounts",
          "type": "uint256[]"
        }
      ],
      "stateMutability": "view",
      "type": "function"
    },
    {
      "inputs": [
        {
          "internalType": "uint256",
          "name": "",
          "type": "uint256"
        }
      ],
      "name": "composition",
      "outputs": [
        {
          "internalType": "address",
          "name": "token",
          "type": "address"
        },
        {
          "internalType": "uint16",
          "name": "weight",
          "type": "uint16"
        }
      ],
      "stateMutability": "view",
      "type": "function"
    },
    {
      "inputs": [],
      "name": "controller",
      "outputs": [
        {
          "internalType": "address",
          "name": "",
          "type": "address"
        }
      ],
      "stateMutability": "view",
      "type": "function"
    },
    {
      "inputs": [
        {
          "internalType": "address",
          "name": "token",
          "type": "address"
        },
        {
          "internalType": "uint256",
          "name": "amount",
          "type": "uint256"
        }
      ],
      "name": "depositAsset",
      "outputs": [],
      "stateMutability": "nonpayable",
      "type": "function"
    },
    {
      "inputs": [
        {
          "internalType": "address",
          "name": "",
          "type": "address"
        },
        {
          "internalType": "address",
          "name": "",
          "type": "address"
        }
      ],
      "name": "deposits",
      "outputs": [
        {
          "internalType": "uint256",
          "name": "",
          "type": "uint256"
        }
      ],
      "stateMutability": "view",
      "type": "function"
    },
    {
      "inputs": [],
      "name": "getComposition",
      "outputs": [
        {
          "components": [
            {
              "internalType": "address",
              "name": "token",
              "type": "address"
            },
            {
              "internalType": "uint16",
              "name": "weight",
              "type": "uint16"
            }
          ],
          "internalType": "struct IndexVault.Asset[]",
          "name": "",
          "type": "tuple[]"
        }
      ],
      "stateMutability": "view",
      "type": "function"
    },
    {
      "inputs": [
        {
          "internalType": "address",
          "name": "user",
          "type": "address"
        },
        {
          "internalType": "address",
          "name": "token",
          "type": "address"
        }
      ],
      "name": "getDeposit",
      "outputs": [
        {
          "internalType": "uint256",
          "name": "",
          "type": "uint256"
        }
      ],
      "stateMutability": "view",
      "type": "function"
    },
    {
      "inputs": [],
      "name": "indexToken",
      "outputs": [
        {
          "internalType": "address",
          "name": "",
          "type": "address"
        }
      ],
      "stateMutability": "view",
      "type": "function"
    },
    {
      "inputs": [
        {
          "internalType": "address",
          "name": "user",
          "type": "address"
        },
        {
          "internalType": "uint256",
          "name": "amount",
          "type": "uint256"
        }
      ],
      "name": "receiveMint",
      "outputs": [],
      "stateMutability": "nonpayable",
      "type": "function"
    },
    {
      "inputs": [
        {
          "components": [
            {
              "internalType": "address",
              "name": "token",
              "type": "address"
            },
            {
              "internalType": "uint16",
              "name": "weight",
              "type": "uint16"
            }
          ],
          "internalType": "struct IndexVault.Asset[]",
          "name": "_composition",
          "type": "tuple[]"
        }
      ],
      "name": "setComposition",
      "outputs": [],
      "stateMutability": "nonpayable",
      "type": "function"
    },
    {
      "inputs": [
        {
          "internalType": "address",
          "name": "_indexToken",
          "type": "address"
        }
      ],
      "name": "setIndexToken",
      "outputs": [],
      "stateMutability": "nonpayable",
      "type": "function"
    },
    {
      "inputs": [
        {
          "internalType": "address",
          "name": "newAdmin",
          "type": "address"
        }
      ],
      "name": "updateAdmin",
      "outputs": [],
      "stateMutability": "nonpayable",
      "type": "function"
    },
    {
      "inputs": [
        {
          "internalType": "address",
          "name": "newController",
          "type": "address"
        }
      ],
      "name": "updateController",
      "outputs": [],
      "stateMutability": "nonpayable",
      "type": "function"
    },
    {
      "inputs": [
        {
          "internalType": "address",
          "name": "user",
          "type": "address"
        },
        {
          "internalType": "uint256",
          "name": "amount",
          "type": "uint256"
        }
      ],
      "name": "validateMint",
      "outputs": [
        {
          "internalType": "bool",
          "name": "",
          "type": "bool"
        }
      ],
      "stateMutability": "view",
      "type": "function"
    },
    {
      "stateMutability": "payable",
      "type": "receive"
    }
  ],
  "bytecode": "0x608060405234801561001057600080fd5b5060405161181338038061181383398101604081905261002f91610071565b600180546001600160a01b039092166001600160a01b0319928316179055600280548216331790556005805482166101671790556000805490911690556100a1565b60006020828403121561008357600080fd5b81516001600160a01b038116811461009a57600080fd5b9392505050565b611763806100b06000396000f3fe6080604052600436106100f75760003560e01c8063b82a35c51161008a578063e2f273bd11610059578063e2f273bd1461032a578063e7d015f21461034a578063f77c47911461036a578063f851a4401461038a57600080fd5b8063b82a35c514610252578063b9d527c614610272578063c35082a9146102a2578063d58f0263146102e857600080fd5b80634c881073116100c65780634c8810731461019e578063746b9345146101be5780638f601f66146101de5780638f9f8b011461022457600080fd5b806306cb5b661461010357806308d72102146101255780634543873d1461015057806346a5d0431461017e57600080fd5b366100fe57005b600080fd5b34801561010f57600080fd5b5061012361011e366004611320565b6103aa565b005b34801561013157600080fd5b5061013a610426565b6040516101479190611344565b60405180910390f35b34801561015c57600080fd5b5061016661016781565b6040516001600160a01b039091168152602001610147565b34801561018a57600080fd5b506101236101993660046113a0565b61049d565b3480156101aa57600080fd5b506101236101b93660046113cc565b61077a565b3480156101ca57600080fd5b506101236101d93660046113a0565b610a95565b3480156101ea57600080fd5b506102166101f9366004611441565b600460209081526000928352604080842090915290825290205481565b604051908152602001610147565b34801561023057600080fd5b5061024461023f36600461147a565b610e1d565b604051610147929190611493565b34801561025e57600080fd5b5061012361026d366004611320565b610f93565b34801561027e57600080fd5b5061029261028d3660046113a0565b61113a565b6040519015158152602001610147565b3480156102ae57600080fd5b506102166102bd366004611441565b6001600160a01b03918216600090815260046020908152604080832093909416825291909152205490565b3480156102f457600080fd5b5061030861030336600461147a565b61121e565b604080516001600160a01b03909316835261ffff909116602083015201610147565b34801561033657600080fd5b50610123610345366004611320565b611254565b34801561035657600080fd5b50600054610166906001600160a01b031681565b34801561037657600080fd5b50600154610166906001600160a01b031681565b34801561039657600080fd5b50600254610166906001600160a01b031681565b6002546001600160a01b031633146103d557604051634755657960e01b815260040160405180910390fd5b6001600160a01b0381166104045760405162461bcd60e51b81526004016103fb90611517565b60405180910390fd5b600180546001600160a01b0319166001600160a01b0392909216919091179055565b60606003805480602002602001604051908101604052809291908181526020016000905b8282101561049457600084815260209081902060408051808201909152908401546001600160a01b0381168252600160a01b900461ffff168183015282526001909201910161044a565b50505050905090565b600081116104ed5760405162461bcd60e51b815260206004820181905260248201527f416d6f756e74206d7573742062652067726561746572207468616e207a65726f60448201526064016103fb565b6000805b60035481101561054d57836001600160a01b0316600382815481106105185761051861154e565b6000918252602090912001546001600160a01b03160361053b576001915061054d565b806105458161157a565b9150506104f1565b508061059b5760405162461bcd60e51b815260206004820152601d60248201527f546f6b656e206e6f742070617274206f6620636f6d706f736974696f6e00000060448201526064016103fb565b600554604051631c97fa2960e21b81523060048201526001600160a01b0385811660248301529091169063725fe8a490604401602060405180830381865afa1580156105eb573d6000803e3d6000fd5b505050506040513d601f19601f8201168201806040525081019061060f9190611593565b61063d57604051632460bcbb60e21b81526001600160a01b03841660048201523060248201526044016103fb565b600554604051632c54de4f60e01b81526001600160a01b038581166004830152336024830152306044830152606482018590526000921690632c54de4f906084016020604051808303816000875af115801561069d573d6000803e3d6000fd5b505050506040513d601f19601f820116820180604052508101906106c191906115b5565b90508060070b6000146106fc57604051630b3bb03f60e01b81526001600160a01b0385166004820152600782900b60248201526044016103fb565b3360009081526004602090815260408083206001600160a01b03881684529091528120805485929061072f9084906115d8565b90915550506040518381526001600160a01b0385169033907f54ef209e319f7d023f4f2c1d4b427c3844f7ef008d20a2104b1f20cb533a7fbf9060200160405180910390a350505050565b6002546001600160a01b031633146107a557604051634755657960e01b815260040160405180910390fd5b6000805b828110156109bf578383828181106107c3576107c361154e565b90506040020160200160208101906107db91906115fb565b6107e99061ffff16836115d8565b6005549092506001600160a01b031663725fe8a4308686858181106108105761081061154e565b6108269260206040909202019081019150611320565b6040516001600160e01b031960e085901b1681526001600160a01b03928316600482015291166024820152604401602060405180830381865afa158015610871573d6000803e3d6000fd5b505050506040513d601f19601f820116820180604052508101906108959190611593565b6109ad576005546000906001600160a01b03166349146bde308787868181106108c0576108c061154e565b6108d69260206040909202019081019150611320565b6040516001600160e01b031960e085901b1681526001600160a01b039283166004820152911660248201526044016020604051808303816000875af1158015610923573d6000803e3d6000fd5b505050506040513d601f19601f8201168201806040525081019061094791906115b5565b90508060070b6000146109ab578484838181106109665761096661154e565b61097c9260206040909202019081019150611320565b604051630b3bb03f60e01b81526001600160a01b039091166004820152600782900b60248201526044016103fb565b505b806109b78161157a565b9150506107a9565b5080612710146109e257604051639d811b9960e01b815260040160405180910390fd5b600354156109f6576109f6600360006112c7565b60005b82811015610a56576003848483818110610a1557610a1561154e565b83546001810185556000948552602090942060409091029290920192919091019050610a418282611618565b50508080610a4e9061157a565b9150506109f9565b507f5a47f63b43dc044e0b2dad1e54f67ffb24bf1d3328c812a029f66486c66e86708383604051610a88929190611672565b60405180910390a1505050565b6001546001600160a01b03163314610ac057604051635990781360e01b815260040160405180910390fd5b6000546001600160a01b0316610b0e5760405162461bcd60e51b8152602060048201526013602482015272125b99195e081d1bdad95b881b9bdd081cd95d606a1b60448201526064016103fb565b60005b600354811015610c6057600060038281548110610b3057610b3061154e565b60009182526020808320604080518082019091529201546001600160a01b0381168352600160a01b900461ffff1690820181905290925061271090610b7590866116cb565b610b7f91906116e2565b6001600160a01b038087166000908152600460209081526040808320875190941683529290522054909150811115610c0b5781516001600160a01b03868116600090815260046020818152604080842088518616855290915291829020549151632fc28c5360e01b815292909316928201929092526024810183905260448101919091526064016103fb565b6001600160a01b038086166000908152600460209081526040808320865190941683529290529081208054839290610c44908490611704565b9250508190555050508080610c589061157a565b915050610b11565b50600554600054604051631c97fa2960e21b81526001600160a01b038581166004830152918216602482015291169063725fe8a490604401602060405180830381865afa158015610cb5573d6000803e3d6000fd5b505050506040513d601f19601f82011682018060405250810190610cd99190611593565b610d0d57600054604051632460bcbb60e21b81526001600160a01b03918216600482015290831660248201526044016103fb565b60055460008054604051632c54de4f60e01b81526001600160a01b03918216600482015230602482015285821660448201526064810185905291921690632c54de4f906084016020604051808303816000875af1158015610d72573d6000803e3d6000fd5b505050506040513d601f19601f82011682018060405250810190610d9691906115b5565b90508060070b600014610dd557600054604051630b3bb03f60e01b81526001600160a01b039091166004820152600782900b60248201526044016103fb565b826001600160a01b03167f16b0da2ffcb90c6723317bd637d9aad7f04711f42bbe0ac0918ebe10f1f9001c83604051610e1091815260200190565b60405180910390a2505050565b600354606090819067ffffffffffffffff811115610e3d57610e3d611717565b604051908082528060200260200182016040528015610e66578160200160208202803683370190505b5060035490925067ffffffffffffffff811115610e8557610e85611717565b604051908082528060200260200182016040528015610eae578160200160208202803683370190505b50905060005b600354811015610f8d5760038181548110610ed157610ed161154e565b60009182526020909120015483516001600160a01b0390911690849083908110610efd57610efd61154e565b60200260200101906001600160a01b031690816001600160a01b03168152505061271060038281548110610f3357610f3361154e565b600091825260209091200154610f5490600160a01b900461ffff16866116cb565b610f5e91906116e2565b828281518110610f7057610f7061154e565b602090810291909101015280610f858161157a565b915050610eb4565b50915091565b6001546001600160a01b03163314610fbe57604051635990781360e01b815260040160405180910390fd5b6000546001600160a01b0316156110175760405162461bcd60e51b815260206004820152601760248201527f496e64657820746f6b656e20616c72656164792073657400000000000000000060448201526064016103fb565b6001600160a01b03811661103d5760405162461bcd60e51b81526004016103fb90611517565b600080546001600160a01b0319166001600160a01b03838116918217835560055460405163248a35ef60e11b8152306004820152602481019390935216906349146bde906044016020604051808303816000875af11580156110a3573d6000803e3d6000fd5b505050506040513d601f19601f820116820180604052508101906110c791906115b5565b90508060070b60001461110257604051630b3bb03f60e01b81526001600160a01b0383166004820152600782900b60248201526044016103fb565b6040516001600160a01b038316907f40cdac5625b9528b38b786c9b74c257c1de10eac74b82c0ebc45a652cd8bcf6390600090a25050565b600354600090810361114e57506000611218565b60005b600354811015611212576000600382815481106111705761117061154e565b60009182526020808320604080518082019091529201546001600160a01b0381168352600160a01b900461ffff16908201819052909250612710906111b590876116cb565b6111bf91906116e2565b6001600160a01b0380881660009081526004602090815260408083208751909416835292905220549091508111156111fd5760009350505050611218565b5050808061120a9061157a565b915050611151565b50600190505b92915050565b6003818154811061122e57600080fd5b6000918252602090912001546001600160a01b0381169150600160a01b900461ffff1682565b6002546001600160a01b0316331461127f57604051634755657960e01b815260040160405180910390fd5b6001600160a01b0381166112a55760405162461bcd60e51b81526004016103fb90611517565b600280546001600160a01b0319166001600160a01b0392909216919091179055565b50805460008255906000526020600020908101906112e591906112e8565b50565b5b808211156113075780546001600160b01b03191681556001016112e9565b5090565b6001600160a01b03811681146112e557600080fd5b60006020828403121561133257600080fd5b813561133d8161130b565b9392505050565b602080825282518282018190526000919060409081850190868401855b8281101561139357815180516001600160a01b0316855286015161ffff16868501529284019290850190600101611361565b5091979650505050505050565b600080604083850312156113b357600080fd5b82356113be8161130b565b946020939093013593505050565b600080602083850312156113df57600080fd5b823567ffffffffffffffff808211156113f757600080fd5b818501915085601f83011261140b57600080fd5b81358181111561141a57600080fd5b8660208260061b850101111561142f57600080fd5b60209290920196919550909350505050565b6000806040838503121561145457600080fd5b823561145f8161130b565b9150602083013561146f8161130b565b809150509250929050565b60006020828403121561148c57600080fd5b5035919050565b604080825283519082018190526000906020906060840190828701845b828110156114d55781516001600160a01b0316845292840192908401906001016114b0565b5050508381038285015284518082528583019183019060005b8181101561150a578351835292840192918401916001016114ee565b5090979650505050505050565b6020808252601a908201527f43616e6e6f742073657420746f207a65726f2061646472657373000000000000604082015260600190565b634e487b7160e01b600052603260045260246000fd5b634e487b7160e01b600052601160045260246000fd5b60006001820161158c5761158c611564565b5060010190565b6000602082840312156115a557600080fd5b8151801515811461133d57600080fd5b6000602082840312156115c757600080fd5b81518060070b811461133d57600080fd5b8082018082111561121857611218611564565b61ffff811681146112e557600080fd5b60006020828403121561160d57600080fd5b813561133d816115eb565b81356116238161130b565b81546001600160a01b031981166001600160a01b03929092169182178355602084013561164f816115eb565b6001600160b01b03199190911690911760a09190911b61ffff60a01b1617905550565b6020808252818101839052600090604080840186845b8781101561150a57813561169b8161130b565b6001600160a01b03168352818501356116b3816115eb565b61ffff16838601529183019190830190600101611688565b808202811582820484141761121857611218611564565b6000826116ff57634e487b7160e01b600052601260045260246000fd5b500490565b8181038181111561121857611218611564565b634e487b7160e01b600052604160045260246000fdfea2646970667358221220f6333dbd3202847985fed0dfdb679a7fc237b6e283d844da312461ac586b4d0464736f6c63430008120033",
  "linkReferences": {},
  "deployedLinkReferences": {}
}